{
	"src/contracts/AaveFlashLoanV3Factory.sol": {
		"AaveFlashLoanV3": {
			"abi": [
				{
					"inputs": [
						{
							"internalType": "contract IPoolAddressesProvider",
							"name": "_addressProvider",
							"type": "address"
						},
						{
							"internalType": "address",
							"name": "_owner",
							"type": "address"
						},
						{
							"internalType": "contract ISwapRouter",
							"name": "_uniSwapRouter",
							"type": "address"
						},
						{
							"internalType": "contract IUniswapV2Router02",
							"name": "_sushiRouter",
							"type": "address"
						}
					],
					"stateMutability": "nonpayable",
					"type": "constructor"
				},
				{
					"inputs": [],
					"name": "ADDRESSES_PROVIDER",
					"outputs": [
						{
							"internalType": "contract IPoolAddressesProvider",
							"name": "",
							"type": "address"
						}
					],
					"stateMutability": "view",
					"type": "function"
				},
				{
					"inputs": [],
					"name": "POOL",
					"outputs": [
						{
							"internalType": "contract IPool",
							"name": "",
							"type": "address"
						}
					],
					"stateMutability": "view",
					"type": "function"
				},
				{
					"inputs": [
						{
							"internalType": "address[]",
							"name": "assets",
							"type": "address[]"
						},
						{
							"internalType": "uint256[]",
							"name": "amounts",
							"type": "uint256[]"
						},
						{
							"internalType": "uint256[]",
							"name": "premiums",
							"type": "uint256[]"
						},
						{
							"internalType": "address",
							"name": "initiator",
							"type": "address"
						},
						{
							"internalType": "bytes",
							"name": "params",
							"type": "bytes"
						}
					],
					"name": "executeOperation",
					"outputs": [
						{
							"internalType": "bool",
							"name": "",
							"type": "bool"
						}
					],
					"stateMutability": "nonpayable",
					"type": "function"
				},
				{
					"inputs": [],
					"name": "getOwner",
					"outputs": [
						{
							"internalType": "address",
							"name": "",
							"type": "address"
						}
					],
					"stateMutability": "view",
					"type": "function"
				},
				{
					"inputs": [
						{
							"internalType": "address",
							"name": "token0",
							"type": "address"
						},
						{
							"internalType": "address",
							"name": "token1",
							"type": "address"
						},
						{
							"internalType": "uint8",
							"name": "direction",
							"type": "uint8"
						},
						{
							"internalType": "uint24",
							"name": "poolFee",
							"type": "uint24"
						},
						{
							"internalType": "uint256",
							"name": "amountIn",
							"type": "uint256"
						},
						{
							"internalType": "uint256",
							"name": "amountOut",
							"type": "uint256"
						},
						{
							"internalType": "uint256",
							"name": "deadline",
							"type": "uint256"
						}
					],
					"name": "myFlashLoanCall",
					"outputs": [],
					"stateMutability": "nonpayable",
					"type": "function"
				},
				{
					"inputs": [
						{
							"internalType": "address",
							"name": "newOwner",
							"type": "address"
						}
					],
					"name": "transferOwnership",
					"outputs": [],
					"stateMutability": "nonpayable",
					"type": "function"
				},
				{
					"inputs": [],
					"name": "withdraw",
					"outputs": [],
					"stateMutability": "payable",
					"type": "function"
				},
				{
					"inputs": [
						{
							"internalType": "address",
							"name": "token",
							"type": "address"
						}
					],
					"name": "withdrawERC20Token",
					"outputs": [
						{
							"internalType": "uint256",
							"name": "currentAmount",
							"type": "uint256"
						}
					],
					"stateMutability": "nonpayable",
					"type": "function"
				}
			],
			"devdoc": {
				"kind": "dev",
				"methods": {},
				"version": 1
			},
			"evm": {
				"assembly": "    /* \"src/contracts/AaveFlashLoanV3Factory.sol\":64062:71144  contract AaveFlashLoanV3 is FlashLoanReceiverBase{... */\n  mstore(0x40, 0x0100)\n    /* \"src/contracts/AaveFlashLoanV3Factory.sol\":64581:64865  constructor(IPoolAddressesProvider _addressProvider, address _owner, ISwapRouter _uniSwapRouter, IUniswapV2Router02 _sushiRouter) FlashLoanReceiverBase(_addressProvider) public {... */\n  callvalue\n  dup1\n  iszero\n  tag_1\n  jumpi\n  0x00\n  dup1\n  revert\ntag_1:\n  pop\n  mload(0x40)\n  sub(codesize, bytecodeSize)\n  dup1\n  bytecodeSize\n  dup4\n  codecopy\n  dup2\n  add\n  0x40\n  dup2\n  swap1\n  mstore\n  tag_2\n  swap2\n  tag_3\n  jump\t// in\ntag_2:\n    /* \"src/contracts/AaveFlashLoanV3Factory.sol\":64733:64749  _addressProvider */\n  dup4\n    /* \"src/contracts/AaveFlashLoanV3Factory.sol\":63631:63639  provider */\n  dup1\n  sub(shl(0xa0, 0x01), 0x01)\n    /* \"src/contracts/AaveFlashLoanV3Factory.sol\":63610:63639  ADDRESSES_PROVIDER = provider */\n  and\n  0x80\n  dup2\n  sub(shl(0xa0, 0x01), 0x01)\n  and\n  dup2\n  mstore\n  pop\n  pop\n    /* \"src/contracts/AaveFlashLoanV3Factory.sol\":63658:63666  provider */\n  dup1\n  sub(shl(0xa0, 0x01), 0x01)\n    /* \"src/contracts/AaveFlashLoanV3Factory.sol\":63658:63674  provider.getPool */\n  and\n  0x026b1d5f\n    /* \"src/contracts/AaveFlashLoanV3Factory.sol\":63658:63676  provider.getPool() */\n  mload(0x40)\n  dup2\n  0xffffffff\n  and\n  0xe0\n  shl\n  dup2\n  mstore\n  0x04\n  add\n  0x20\n  mload(0x40)\n  dup1\n  dup4\n  sub\n  dup2\n  dup7\n  gas\n  staticcall\n  iszero\n  dup1\n  iszero\n  tag_8\n  jumpi\n  returndatasize\n  0x00\n  dup1\n  returndatacopy\n  revert(0x00, returndatasize)\ntag_8:\n  pop\n  pop\n  pop\n  pop\n  mload(0x40)\n  returndatasize\n  not(0x1f)\n  0x1f\n  dup3\n  add\n  and\n  dup3\n  add\n  dup1\n  0x40\n  mstore\n  pop\n  dup2\n  add\n  swap1\n  tag_9\n  swap2\n  swap1\n  tag_10\n  jump\t// in\ntag_9:\n  sub(shl(0xa0, 0x01), 0x01)\n    /* \"src/contracts/AaveFlashLoanV3Factory.sol\":63645:63677  POOL = IPool(provider.getPool()) */\n  swap1\n  dup2\n  and\n  0xa0\n  mstore\n    /* \"src/contracts/AaveFlashLoanV3Factory.sol\":64768:64773  owner */\n  0x00\n    /* \"src/contracts/AaveFlashLoanV3Factory.sol\":64768:64782  owner = _owner */\n  dup1\n  sload\n  not(sub(shl(0xa0, 0x01), 0x01))\n  and\n  swap6\n  dup3\n  and\n  swap6\n  swap1\n  swap6\n  or\n  swap1\n  swap5\n  sstore\n  pop\n    /* \"src/contracts/AaveFlashLoanV3Factory.sol\":64792:64822  uniSwapRouter = _uniSwapRouter */\n  swap1\n  dup3\n  and\n  0xc0\n  mstore\n    /* \"src/contracts/AaveFlashLoanV3Factory.sol\":64832:64858  sushiRouter = _sushiRouter */\n  and\n  0xe0\n  mstore\n  pop\n    /* \"src/contracts/AaveFlashLoanV3Factory.sol\":64062:71144  contract AaveFlashLoanV3 is FlashLoanReceiverBase{... */\n  jump(tag_14)\n    /* \"#utility.yul\":14:169   */\ntag_13:\n  sub(shl(0xa0, 0x01), 0x01)\n    /* \"#utility.yul\":113:144   */\n  dup2\n  and\n    /* \"#utility.yul\":103:145   */\n  dup2\n  eq\n    /* \"#utility.yul\":93:163   */\n  tag_16\n  jumpi\n    /* \"#utility.yul\":159:160   */\n  0x00\n    /* \"#utility.yul\":156:157   */\n  dup1\n    /* \"#utility.yul\":149:161   */\n  revert\n    /* \"#utility.yul\":93:163   */\ntag_16:\n    /* \"#utility.yul\":14:169   */\n  pop\n  jump\t// out\n    /* \"#utility.yul\":174:1000   */\ntag_3:\n    /* \"#utility.yul\":347:353   */\n  0x00\n    /* \"#utility.yul\":355:361   */\n  dup1\n    /* \"#utility.yul\":363:369   */\n  0x00\n    /* \"#utility.yul\":371:377   */\n  dup1\n    /* \"#utility.yul\":424:427   */\n  0x80\n    /* \"#utility.yul\":412:421   */\n  dup6\n    /* \"#utility.yul\":403:410   */\n  dup8\n    /* \"#utility.yul\":399:422   */\n  sub\n    /* \"#utility.yul\":395:428   */\n  slt\n    /* \"#utility.yul\":392:445   */\n  iszero\n  tag_18\n  jumpi\n    /* \"#utility.yul\":441:442   */\n  0x00\n    /* \"#utility.yul\":438:439   */\n  dup1\n    /* \"#utility.yul\":431:443   */\n  revert\n    /* \"#utility.yul\":392:445   */\ntag_18:\n    /* \"#utility.yul\":473:482   */\n  dup5\n    /* \"#utility.yul\":467:483   */\n  mload\n    /* \"#utility.yul\":492:547   */\n  tag_19\n    /* \"#utility.yul\":541:546   */\n  dup2\n    /* \"#utility.yul\":492:547   */\n  tag_13\n  jump\t// in\ntag_19:\n    /* \"#utility.yul\":616:618   */\n  0x20\n    /* \"#utility.yul\":601:619   */\n  dup7\n  add\n    /* \"#utility.yul\":595:620   */\n  mload\n    /* \"#utility.yul\":566:571   */\n  swap1\n  swap5\n  pop\n    /* \"#utility.yul\":629:686   */\n  tag_20\n    /* \"#utility.yul\":595:620   */\n  dup2\n    /* \"#utility.yul\":629:686   */\n  tag_13\n  jump\t// in\ntag_20:\n    /* \"#utility.yul\":757:759   */\n  0x40\n    /* \"#utility.yul\":742:760   */\n  dup7\n  add\n    /* \"#utility.yul\":736:761   */\n  mload\n    /* \"#utility.yul\":705:712   */\n  swap1\n  swap4\n  pop\n    /* \"#utility.yul\":770:827   */\n  tag_21\n    /* \"#utility.yul\":736:761   */\n  dup2\n    /* \"#utility.yul\":770:827   */\n  tag_13\n  jump\t// in\ntag_21:\n    /* \"#utility.yul\":898:900   */\n  0x60\n    /* \"#utility.yul\":883:901   */\n  dup7\n  add\n    /* \"#utility.yul\":877:902   */\n  mload\n    /* \"#utility.yul\":846:853   */\n  swap1\n  swap3\n  pop\n    /* \"#utility.yul\":911:968   */\n  tag_22\n    /* \"#utility.yul\":877:902   */\n  dup2\n    /* \"#utility.yul\":911:968   */\n  tag_13\n  jump\t// in\ntag_22:\n    /* \"#utility.yul\":174:1000   */\n  swap4\n  swap7\n  swap3\n  swap6\n  pop\n  swap1\n  swap4\n  pop\n  pop\n  jump\t// out\n    /* \"#utility.yul\":1005:1280   */\ntag_10:\n    /* \"#utility.yul\":1075:1081   */\n  0x00\n    /* \"#utility.yul\":1128:1130   */\n  0x20\n    /* \"#utility.yul\":1116:1125   */\n  dup3\n    /* \"#utility.yul\":1107:1114   */\n  dup5\n    /* \"#utility.yul\":1103:1126   */\n  sub\n    /* \"#utility.yul\":1099:1131   */\n  slt\n    /* \"#utility.yul\":1096:1148   */\n  iszero\n  tag_24\n  jumpi\n    /* \"#utility.yul\":1144:1145   */\n  0x00\n    /* \"#utility.yul\":1141:1142   */\n  dup1\n    /* \"#utility.yul\":1134:1146   */\n  revert\n    /* \"#utility.yul\":1096:1148   */\ntag_24:\n    /* \"#utility.yul\":1176:1185   */\n  dup2\n    /* \"#utility.yul\":1170:1186   */\n  mload\n    /* \"#utility.yul\":1195:1250   */\n  tag_25\n    /* \"#utility.yul\":1244:1249   */\n  dup2\n    /* \"#utility.yul\":1195:1250   */\n  tag_13\n  jump\t// in\ntag_25:\n    /* \"#utility.yul\":1269:1274   */\n  swap4\n    /* \"#utility.yul\":1005:1280   */\n  swap3\n  pop\n  pop\n  pop\n  jump\t// out\ntag_14:\n    /* \"src/contracts/AaveFlashLoanV3Factory.sol\":64062:71144  contract AaveFlashLoanV3 is FlashLoanReceiverBase{... */\n  mload(0x80)\n  mload(0xa0)\n  mload(0xc0)\n  mload(0xe0)\n  codecopy(0x00, dataOffset(sub_0), dataSize(sub_0))\n  0x00\n  assignImmutable(\"0x2eb9a99718a5ddb41634aa3a127c1821b30a0e7db3d87b6203b71d7595223311\")\n  0x00\n  assignImmutable(\"0x699f39064b2157b761814ab9576fea345835b792abfaf54a5ff0c02bf6979a65\")\n  0x00\n  assignImmutable(\"0xdf9477d5be7ba6312927b83fae5c66d4b31f805974aa501892b5c5de8406530d\")\n  0x00\n  assignImmutable(\"0xd76331d4bf57b76ff76f23ccf9bdbb4000a2e6d7fd080b62eb656bd6ce6197d3\")\n  return(0x00, dataSize(sub_0))\nstop\n\nsub_0: assembly {\n        /* \"src/contracts/AaveFlashLoanV3Factory.sol\":64062:71144  contract AaveFlashLoanV3 is FlashLoanReceiverBase{... */\n      mstore(0x40, 0x80)\n      jumpi(tag_1, lt(calldatasize, 0x04))\n      shr(0xe0, calldataload(0x00))\n      dup1\n      0x893d20e8\n      gt\n      tag_10\n      jumpi\n      dup1\n      0x893d20e8\n      eq\n      tag_6\n      jumpi\n      dup1\n      0x920f5c84\n      eq\n      tag_7\n      jumpi\n      dup1\n      0xc2d22207\n      eq\n      tag_8\n      jumpi\n      dup1\n      0xf2fde38b\n      eq\n      tag_9\n      jumpi\n      0x00\n      dup1\n      revert\n    tag_10:\n      dup1\n      0x0542975c\n      eq\n      tag_2\n      jumpi\n      dup1\n      0x3bdebbe1\n      eq\n      tag_3\n      jumpi\n      dup1\n      0x3ccfd60b\n      eq\n      tag_4\n      jumpi\n      dup1\n      0x7535d246\n      eq\n      tag_5\n      jumpi\n    tag_1:\n      0x00\n      dup1\n      revert\n        /* \"src/contracts/AaveFlashLoanV3Factory.sol\":63447:63514  IPoolAddressesProvider public immutable override ADDRESSES_PROVIDER */\n    tag_2:\n      callvalue\n      dup1\n      iszero\n      tag_11\n      jumpi\n      0x00\n      dup1\n      revert\n    tag_11:\n      pop\n      tag_12\n      immutable(\"0xd76331d4bf57b76ff76f23ccf9bdbb4000a2e6d7fd080b62eb656bd6ce6197d3\")\n      dup2\n      jump\n    tag_12:\n      mload(0x40)\n      sub(shl(0xa0, 0x01), 0x01)\n        /* \"#utility.yul\":209:264   */\n      swap1\n      swap2\n      and\n        /* \"#utility.yul\":191:265   */\n      dup2\n      mstore\n        /* \"#utility.yul\":179:181   */\n      0x20\n        /* \"#utility.yul\":164:182   */\n      add\n        /* \"src/contracts/AaveFlashLoanV3Factory.sol\":63447:63514  IPoolAddressesProvider public immutable override ADDRESSES_PROVIDER */\n    tag_14:\n      mload(0x40)\n      dup1\n      swap2\n      sub\n      swap1\n      return\n        /* \"src/contracts/AaveFlashLoanV3Factory.sol\":70469:70786  function withdrawERC20Token(address token) external onlyOwner returns(uint256 currentAmount){... */\n    tag_3:\n      callvalue\n      dup1\n      iszero\n      tag_16\n      jumpi\n      0x00\n      dup1\n      revert\n    tag_16:\n      pop\n      tag_17\n      tag_18\n      calldatasize\n      0x04\n      tag_19\n      jump\t// in\n    tag_18:\n      tag_20\n      jump\t// in\n    tag_17:\n      mload(0x40)\n        /* \"#utility.yul\":833:858   */\n      swap1\n      dup2\n      mstore\n        /* \"#utility.yul\":821:823   */\n      0x20\n        /* \"#utility.yul\":806:824   */\n      add\n        /* \"src/contracts/AaveFlashLoanV3Factory.sol\":70469:70786  function withdrawERC20Token(address token) external onlyOwner returns(uint256 currentAmount){... */\n      tag_14\n        /* \"#utility.yul\":687:864   */\n      jump\n        /* \"src/contracts/AaveFlashLoanV3Factory.sol\":70228:70405  function withdraw() external payable onlyOwner(){... */\n    tag_4:\n      tag_23\n      tag_24\n      jump\t// in\n    tag_23:\n      stop\n        /* \"src/contracts/AaveFlashLoanV3Factory.sol\":63518:63554  IPool public immutable override POOL */\n    tag_5:\n      callvalue\n      dup1\n      iszero\n      tag_25\n      jumpi\n      0x00\n      dup1\n      revert\n    tag_25:\n      pop\n      tag_12\n      immutable(\"0xdf9477d5be7ba6312927b83fae5c66d4b31f805974aa501892b5c5de8406530d\")\n      dup2\n      jump\n        /* \"src/contracts/AaveFlashLoanV3Factory.sol\":70897:70977  function getOwner() view external returns (address){... */\n    tag_6:\n      callvalue\n      dup1\n      iszero\n      tag_30\n      jumpi\n      0x00\n      dup1\n      revert\n    tag_30:\n      pop\n        /* \"src/contracts/AaveFlashLoanV3Factory.sol\":70940:70947  address */\n      0x00\n        /* \"src/contracts/AaveFlashLoanV3Factory.sol\":70965:70970  owner */\n      sload\n      sub(shl(0xa0, 0x01), 0x01)\n      and\n        /* \"src/contracts/AaveFlashLoanV3Factory.sol\":70897:70977  function getOwner() view external returns (address){... */\n      jump(tag_12)\n        /* \"src/contracts/AaveFlashLoanV3Factory.sol\":65176:66060  function executeOperation(... */\n    tag_7:\n      callvalue\n      dup1\n      iszero\n      tag_35\n      jumpi\n      0x00\n      dup1\n      revert\n    tag_35:\n      pop\n      tag_36\n      tag_37\n      calldatasize\n      0x04\n      tag_38\n      jump\t// in\n    tag_37:\n      tag_39\n      jump\t// in\n    tag_36:\n      mload(0x40)\n        /* \"#utility.yul\":3560:3574   */\n      swap1\n      iszero\n        /* \"#utility.yul\":3553:3575   */\n      iszero\n        /* \"#utility.yul\":3535:3576   */\n      dup2\n      mstore\n        /* \"#utility.yul\":3523:3525   */\n      0x20\n        /* \"#utility.yul\":3508:3526   */\n      add\n        /* \"src/contracts/AaveFlashLoanV3Factory.sol\":65176:66060  function executeOperation(... */\n      tag_14\n        /* \"#utility.yul\":3395:3582   */\n      jump\n        /* \"src/contracts/AaveFlashLoanV3Factory.sol\":66139:67260  function myFlashLoanCall(address token0, address token1, uint8 direction, uint24 poolFee, uint256 amountIn, uint256 amountOut, uint256 deadline) public onlyOwner {... */\n    tag_8:\n      callvalue\n      dup1\n      iszero\n      tag_42\n      jumpi\n      0x00\n      dup1\n      revert\n    tag_42:\n      pop\n      tag_23\n      tag_44\n      calldatasize\n      0x04\n      tag_45\n      jump\t// in\n    tag_44:\n      tag_46\n      jump\t// in\n        /* \"src/contracts/AaveFlashLoanV3Factory.sol\":71042:71141  function transferOwnership(address newOwner) external onlyOwner {... */\n    tag_9:\n      callvalue\n      dup1\n      iszero\n      tag_47\n      jumpi\n      0x00\n      dup1\n      revert\n    tag_47:\n      pop\n      tag_23\n      tag_49\n      calldatasize\n      0x04\n      tag_19\n      jump\t// in\n    tag_49:\n      tag_50\n      jump\t// in\n        /* \"src/contracts/AaveFlashLoanV3Factory.sol\":70469:70786  function withdrawERC20Token(address token) external onlyOwner returns(uint256 currentAmount){... */\n    tag_20:\n        /* \"src/contracts/AaveFlashLoanV3Factory.sol\":70539:70560  uint256 currentAmount */\n      0x00\n        /* \"src/contracts/AaveFlashLoanV3Factory.sol\":65040:65045  owner */\n      dup1\n      sload\n      sub(shl(0xa0, 0x01), 0x01)\n      and\n        /* \"src/contracts/AaveFlashLoanV3Factory.sol\":65025:65035  msg.sender */\n      caller\n        /* \"src/contracts/AaveFlashLoanV3Factory.sol\":65017:65045  address(msg.sender) == owner */\n      eq\n        /* \"src/contracts/AaveFlashLoanV3Factory.sol\":65009:65046  require(address(msg.sender) == owner) */\n      tag_52\n      jumpi\n      0x00\n      dup1\n      revert\n    tag_52:\n        /* \"src/contracts/AaveFlashLoanV3Factory.sol\":70587:70625  IERC20(token).balanceOf(address(this)) */\n      mload(0x40)\n      0x70a0823100000000000000000000000000000000000000000000000000000000\n      dup2\n      mstore\n        /* \"src/contracts/AaveFlashLoanV3Factory.sol\":70619:70623  this */\n      address\n        /* \"src/contracts/AaveFlashLoanV3Factory.sol\":70587:70625  IERC20(token).balanceOf(address(this)) */\n      0x04\n      dup3\n      add\n        /* \"#utility.yul\":191:265   */\n      mstore\n      sub(shl(0xa0, 0x01), 0x01)\n        /* \"src/contracts/AaveFlashLoanV3Factory.sol\":70587:70610  IERC20(token).balanceOf */\n      dup4\n      and\n      swap1\n      0x70a08231\n      swap1\n        /* \"#utility.yul\":164:182   */\n      0x24\n      add\n        /* \"src/contracts/AaveFlashLoanV3Factory.sol\":70587:70625  IERC20(token).balanceOf(address(this)) */\n      0x20\n      mload(0x40)\n      dup1\n      dup4\n      sub\n      dup2\n      dup7\n      gas\n      staticcall\n      iszero\n      dup1\n      iszero\n      tag_56\n      jumpi\n      returndatasize\n      0x00\n      dup1\n      returndatacopy\n      revert(0x00, returndatasize)\n    tag_56:\n      pop\n      pop\n      pop\n      pop\n      mload(0x40)\n      returndatasize\n      not(0x1f)\n      0x1f\n      dup3\n      add\n      and\n      dup3\n      add\n      dup1\n      0x40\n      mstore\n      pop\n      dup2\n      add\n      swap1\n      tag_57\n      swap2\n      swap1\n      tag_58\n      jump\t// in\n    tag_57:\n        /* \"src/contracts/AaveFlashLoanV3Factory.sol\":70571:70625  currentAmount = IERC20(token).balanceOf(address(this)) */\n      swap1\n      pop\n        /* \"src/contracts/AaveFlashLoanV3Factory.sol\":70659:70660  0 */\n      0x00\n        /* \"src/contracts/AaveFlashLoanV3Factory.sol\":70643:70656  currentAmount */\n      dup2\n        /* \"src/contracts/AaveFlashLoanV3Factory.sol\":70643:70660  currentAmount > 0 */\n      gt\n        /* \"src/contracts/AaveFlashLoanV3Factory.sol\":70635:70713  require(currentAmount > 0, 'Contract does not have the provided ERC20 token.') */\n      tag_59\n      jumpi\n      mload(0x40)\n      shl(0xe5, 0x461bcd)\n      dup2\n      mstore\n        /* \"#utility.yul\":5048:5050   */\n      0x20\n        /* \"src/contracts/AaveFlashLoanV3Factory.sol\":70635:70713  require(currentAmount > 0, 'Contract does not have the provided ERC20 token.') */\n      0x04\n      dup3\n      add\n        /* \"#utility.yul\":5030:5051   */\n      mstore\n        /* \"#utility.yul\":5087:5089   */\n      0x30\n        /* \"#utility.yul\":5067:5085   */\n      0x24\n      dup3\n      add\n        /* \"#utility.yul\":5060:5090   */\n      mstore\n        /* \"#utility.yul\":5126:5160   */\n      0x436f6e747261637420646f6573206e6f742068617665207468652070726f7669\n        /* \"#utility.yul\":5106:5124   */\n      0x44\n      dup3\n      add\n        /* \"#utility.yul\":5099:5161   */\n      mstore\n        /* \"#utility.yul\":5197:5215   */\n      0x64656420455243323020746f6b656e2e00000000000000000000000000000000\n        /* \"#utility.yul\":5177:5195   */\n      0x64\n      dup3\n      add\n        /* \"#utility.yul\":5170:5216   */\n      mstore\n        /* \"#utility.yul\":5233:5252   */\n      0x84\n      add\n        /* \"src/contracts/AaveFlashLoanV3Factory.sol\":70635:70713  require(currentAmount > 0, 'Contract does not have the provided ERC20 token.') */\n    tag_60:\n      mload(0x40)\n      dup1\n      swap2\n      sub\n      swap1\n      revert\n    tag_59:\n        /* \"src/contracts/AaveFlashLoanV3Factory.sol\":70758:70763  owner */\n      sload(0x00)\n        /* \"src/contracts/AaveFlashLoanV3Factory.sol\":70723:70779  TransferHelper.safeTransfer(token, owner, currentAmount) */\n      tag_62\n      swap1\n        /* \"src/contracts/AaveFlashLoanV3Factory.sol\":70751:70756  token */\n      dup4\n      swap1\n      sub(shl(0xa0, 0x01), 0x01)\n        /* \"src/contracts/AaveFlashLoanV3Factory.sol\":70758:70763  owner */\n      and\n        /* \"src/contracts/AaveFlashLoanV3Factory.sol\":70765:70778  currentAmount */\n      dup4\n        /* \"src/contracts/AaveFlashLoanV3Factory.sol\":70723:70750  TransferHelper.safeTransfer */\n      tag_63\n        /* \"src/contracts/AaveFlashLoanV3Factory.sol\":70723:70779  TransferHelper.safeTransfer(token, owner, currentAmount) */\n      jump\t// in\n    tag_62:\n        /* \"src/contracts/AaveFlashLoanV3Factory.sol\":70469:70786  function withdrawERC20Token(address token) external onlyOwner returns(uint256 currentAmount){... */\n      swap2\n      swap1\n      pop\n      jump\t// out\n        /* \"src/contracts/AaveFlashLoanV3Factory.sol\":70228:70405  function withdraw() external payable onlyOwner(){... */\n    tag_24:\n        /* \"src/contracts/AaveFlashLoanV3Factory.sol\":65040:65045  owner */\n      and(sub(shl(0xa0, 0x01), 0x01), sload(0x00))\n        /* \"src/contracts/AaveFlashLoanV3Factory.sol\":65025:65035  msg.sender */\n      caller\n        /* \"src/contracts/AaveFlashLoanV3Factory.sol\":65017:65045  address(msg.sender) == owner */\n      eq\n        /* \"src/contracts/AaveFlashLoanV3Factory.sol\":65009:65046  require(address(msg.sender) == owner) */\n      tag_65\n      jumpi\n      0x00\n      dup1\n      revert\n    tag_65:\n        /* \"src/contracts/AaveFlashLoanV3Factory.sol\":70287:70299  bool success */\n      0x00\n        /* \"src/contracts/AaveFlashLoanV3Factory.sol\":70306:70311  owner */\n      dup1\n      sload\n        /* \"src/contracts/AaveFlashLoanV3Factory.sol\":70306:70352  owner.call{ value: address(this).balance }(\"\") */\n      mload(0x40)\n      sub(shl(0xa0, 0x01), 0x01)\n        /* \"src/contracts/AaveFlashLoanV3Factory.sol\":70306:70311  owner */\n      swap1\n      swap2\n      and\n      swap1\n        /* \"src/contracts/AaveFlashLoanV3Factory.sol\":70325:70346  address(this).balance */\n      selfbalance\n      swap1\n        /* \"src/contracts/AaveFlashLoanV3Factory.sol\":70287:70299  bool success */\n      dup4\n        /* \"src/contracts/AaveFlashLoanV3Factory.sol\":70306:70352  owner.call{ value: address(this).balance }(\"\") */\n      dup2\n        /* \"src/contracts/AaveFlashLoanV3Factory.sol\":70287:70299  bool success */\n      dup2\n        /* \"src/contracts/AaveFlashLoanV3Factory.sol\":70306:70352  owner.call{ value: address(this).balance }(\"\") */\n      dup2\n        /* \"src/contracts/AaveFlashLoanV3Factory.sol\":70325:70346  address(this).balance */\n      dup6\n        /* \"src/contracts/AaveFlashLoanV3Factory.sol\":70306:70311  owner */\n      dup8\n        /* \"src/contracts/AaveFlashLoanV3Factory.sol\":70306:70352  owner.call{ value: address(this).balance }(\"\") */\n      gas\n      call\n      swap3\n      pop\n      pop\n      pop\n      returndatasize\n      dup1\n      0x00\n      dup2\n      eq\n      tag_71\n      jumpi\n      mload(0x40)\n      swap2\n      pop\n      and(add(returndatasize, 0x3f), not(0x1f))\n      dup3\n      add\n      0x40\n      mstore\n      returndatasize\n      dup3\n      mstore\n      returndatasize\n      0x00\n      0x20\n      dup5\n      add\n      returndatacopy\n      jump(tag_70)\n    tag_71:\n      0x60\n      swap2\n      pop\n    tag_70:\n      pop\n        /* \"src/contracts/AaveFlashLoanV3Factory.sol\":70286:70352  (bool success, ) =  owner.call{ value: address(this).balance }(\"\") */\n      pop\n      swap1\n      pop\n        /* \"src/contracts/AaveFlashLoanV3Factory.sol\":70370:70377  success */\n      dup1\n        /* \"src/contracts/AaveFlashLoanV3Factory.sol\":70362:70398  require(success, \"Withdraw failed.\") */\n      tag_72\n      jumpi\n      mload(0x40)\n      shl(0xe5, 0x461bcd)\n      dup2\n      mstore\n        /* \"#utility.yul\":5675:5677   */\n      0x20\n        /* \"src/contracts/AaveFlashLoanV3Factory.sol\":70362:70398  require(success, \"Withdraw failed.\") */\n      0x04\n      dup3\n      add\n        /* \"#utility.yul\":5657:5678   */\n      mstore\n        /* \"#utility.yul\":5714:5716   */\n      0x10\n        /* \"#utility.yul\":5694:5712   */\n      0x24\n      dup3\n      add\n        /* \"#utility.yul\":5687:5717   */\n      mstore\n        /* \"#utility.yul\":5753:5771   */\n      0x5769746864726177206661696c65642e00000000000000000000000000000000\n        /* \"#utility.yul\":5733:5751   */\n      0x44\n      dup3\n      add\n        /* \"#utility.yul\":5726:5772   */\n      mstore\n        /* \"#utility.yul\":5789:5807   */\n      0x64\n      add\n        /* \"src/contracts/AaveFlashLoanV3Factory.sol\":70362:70398  require(success, \"Withdraw failed.\") */\n      tag_60\n        /* \"#utility.yul\":5473:5813   */\n      jump\n        /* \"src/contracts/AaveFlashLoanV3Factory.sol\":70362:70398  require(success, \"Withdraw failed.\") */\n    tag_72:\n        /* \"src/contracts/AaveFlashLoanV3Factory.sol\":70276:70405  {... */\n      pop\n        /* \"src/contracts/AaveFlashLoanV3Factory.sol\":70228:70405  function withdraw() external payable onlyOwner(){... */\n      jump\t// out\n        /* \"src/contracts/AaveFlashLoanV3Factory.sol\":65176:66060  function executeOperation(... */\n    tag_39:\n        /* \"src/contracts/AaveFlashLoanV3Factory.sol\":65405:65409  bool */\n      0x00\n        /* \"src/contracts/AaveFlashLoanV3Factory.sol\":65516:65539  swapERC20Tokens(params) */\n      tag_77\n        /* \"src/contracts/AaveFlashLoanV3Factory.sol\":65532:65538  params */\n      dup4\n      dup4\n        /* \"src/contracts/AaveFlashLoanV3Factory.sol\":65516:65531  swapERC20Tokens */\n      tag_78\n        /* \"src/contracts/AaveFlashLoanV3Factory.sol\":65516:65539  swapERC20Tokens(params) */\n      jump\t// in\n    tag_77:\n        /* \"src/contracts/AaveFlashLoanV3Factory.sol\":65841:65847  uint i */\n      0x00\n        /* \"src/contracts/AaveFlashLoanV3Factory.sol\":65836:66024  for (uint i = 0; i < assets.length; i++) {... */\n    tag_79:\n        /* \"src/contracts/AaveFlashLoanV3Factory.sol\":65853:65870  i < assets.length */\n      dup10\n      dup2\n      lt\n        /* \"src/contracts/AaveFlashLoanV3Factory.sol\":65836:66024  for (uint i = 0; i < assets.length; i++) {... */\n      iszero\n      tag_80\n      jumpi\n        /* \"src/contracts/AaveFlashLoanV3Factory.sol\":65891:65907  uint amountOwing */\n      0x00\n        /* \"src/contracts/AaveFlashLoanV3Factory.sol\":65923:65931  premiums */\n      dup8\n      dup8\n        /* \"src/contracts/AaveFlashLoanV3Factory.sol\":65932:65933  i */\n      dup4\n        /* \"src/contracts/AaveFlashLoanV3Factory.sol\":65923:65934  premiums[i] */\n      dup2\n      dup2\n      lt\n      tag_83\n      jumpi\n      tag_83\n      tag_84\n      jump\t// in\n    tag_83:\n      swap1\n      pop\n      0x20\n      mul\n      add\n      calldataload\n        /* \"src/contracts/AaveFlashLoanV3Factory.sol\":65910:65917  amounts */\n      dup11\n      dup11\n        /* \"src/contracts/AaveFlashLoanV3Factory.sol\":65918:65919  i */\n      dup5\n        /* \"src/contracts/AaveFlashLoanV3Factory.sol\":65910:65920  amounts[i] */\n      dup2\n      dup2\n      lt\n      tag_86\n      jumpi\n      tag_86\n      tag_84\n      jump\t// in\n    tag_86:\n      swap1\n      pop\n      0x20\n      mul\n      add\n      calldataload\n        /* \"src/contracts/AaveFlashLoanV3Factory.sol\":65910:65934  amounts[i] + premiums[i] */\n      tag_87\n      swap2\n      swap1\n      tag_88\n      jump\t// in\n    tag_87:\n        /* \"src/contracts/AaveFlashLoanV3Factory.sol\":65891:65934  uint amountOwing = amounts[i] + premiums[i] */\n      swap1\n      pop\n        /* \"src/contracts/AaveFlashLoanV3Factory.sol\":65948:66013  TransferHelper.safeApprove(assets[i], address(POOL), amountOwing) */\n      tag_89\n        /* \"src/contracts/AaveFlashLoanV3Factory.sol\":65975:65981  assets */\n      dup13\n      dup13\n        /* \"src/contracts/AaveFlashLoanV3Factory.sol\":65982:65983  i */\n      dup5\n        /* \"src/contracts/AaveFlashLoanV3Factory.sol\":65975:65984  assets[i] */\n      dup2\n      dup2\n      lt\n      tag_91\n      jumpi\n      tag_91\n      tag_84\n      jump\t// in\n    tag_91:\n      swap1\n      pop\n      0x20\n      mul\n      add\n      0x20\n      dup2\n      add\n      swap1\n      tag_92\n      swap2\n      swap1\n      tag_19\n      jump\t// in\n    tag_92:\n        /* \"src/contracts/AaveFlashLoanV3Factory.sol\":65994:65998  POOL */\n      immutable(\"0xdf9477d5be7ba6312927b83fae5c66d4b31f805974aa501892b5c5de8406530d\")\n        /* \"src/contracts/AaveFlashLoanV3Factory.sol\":66001:66012  amountOwing */\n      dup4\n        /* \"src/contracts/AaveFlashLoanV3Factory.sol\":65948:65974  TransferHelper.safeApprove */\n      tag_93\n        /* \"src/contracts/AaveFlashLoanV3Factory.sol\":65948:66013  TransferHelper.safeApprove(assets[i], address(POOL), amountOwing) */\n      jump\t// in\n    tag_89:\n      pop\n        /* \"src/contracts/AaveFlashLoanV3Factory.sol\":65872:65875  i++ */\n      dup1\n      tag_94\n      dup2\n      tag_95\n      jump\t// in\n    tag_94:\n      swap2\n      pop\n      pop\n        /* \"src/contracts/AaveFlashLoanV3Factory.sol\":65836:66024  for (uint i = 0; i < assets.length; i++) {... */\n      jump(tag_79)\n    tag_80:\n      pop\n        /* \"src/contracts/AaveFlashLoanV3Factory.sol\":66049:66053  true */\n      0x01\n      swap11\n        /* \"src/contracts/AaveFlashLoanV3Factory.sol\":65176:66060  function executeOperation(... */\n      swap10\n      pop\n      pop\n      pop\n      pop\n      pop\n      pop\n      pop\n      pop\n      pop\n      pop\n      jump\t// out\n        /* \"src/contracts/AaveFlashLoanV3Factory.sol\":66139:67260  function myFlashLoanCall(address token0, address token1, uint8 direction, uint24 poolFee, uint256 amountIn, uint256 amountOut, uint256 deadline) public onlyOwner {... */\n    tag_46:\n        /* \"src/contracts/AaveFlashLoanV3Factory.sol\":65040:65045  owner */\n      and(sub(shl(0xa0, 0x01), 0x01), sload(0x00))\n        /* \"src/contracts/AaveFlashLoanV3Factory.sol\":65025:65035  msg.sender */\n      caller\n        /* \"src/contracts/AaveFlashLoanV3Factory.sol\":65017:65045  address(msg.sender) == owner */\n      eq\n        /* \"src/contracts/AaveFlashLoanV3Factory.sol\":65009:65046  require(address(msg.sender) == owner) */\n      tag_97\n      jumpi\n      0x00\n      dup1\n      revert\n    tag_97:\n        /* \"src/contracts/AaveFlashLoanV3Factory.sol\":66440:66456  new address[](1) */\n      0x40\n      dup1\n      mload\n        /* \"src/contracts/AaveFlashLoanV3Factory.sol\":66454:66455  1 */\n      0x01\n        /* \"src/contracts/AaveFlashLoanV3Factory.sol\":66440:66456  new address[](1) */\n      dup1\n      dup3\n      mstore\n      dup2\n      dup4\n      add\n      swap1\n      swap3\n      mstore\n        /* \"src/contracts/AaveFlashLoanV3Factory.sol\":66398:66402  this */\n      address\n      swap2\n        /* \"src/contracts/AaveFlashLoanV3Factory.sol\":66364:66387  address receiverAddress */\n      0x00\n      swap2\n        /* \"src/contracts/AaveFlashLoanV3Factory.sol\":66440:66456  new address[](1) */\n      swap1\n      0x20\n      dup1\n      dup4\n      add\n      swap1\n      dup1\n      calldatasize\n      dup4\n      calldatacopy\n      add\n      swap1\n      pop\n      pop\n        /* \"src/contracts/AaveFlashLoanV3Factory.sol\":66414:66456  address[] memory assets = new address[](1) */\n      swap1\n      pop\n        /* \"src/contracts/AaveFlashLoanV3Factory.sol\":66478:66484  token0 */\n      dup9\n        /* \"src/contracts/AaveFlashLoanV3Factory.sol\":66466:66472  assets */\n      dup2\n        /* \"src/contracts/AaveFlashLoanV3Factory.sol\":66473:66474  0 */\n      0x00\n        /* \"src/contracts/AaveFlashLoanV3Factory.sol\":66466:66475  assets[0] */\n      dup2\n      mload\n      dup2\n      lt\n      tag_104\n      jumpi\n      tag_104\n      tag_84\n      jump\t// in\n    tag_104:\n      sub(shl(0xa0, 0x01), 0x01)\n        /* \"src/contracts/AaveFlashLoanV3Factory.sol\":66466:66484  assets[0] = token0 */\n      swap3\n      swap1\n      swap3\n      and\n        /* \"src/contracts/AaveFlashLoanV3Factory.sol\":66466:66475  assets[0] */\n      0x20\n      swap3\n      dup4\n      mul\n      swap2\n      swap1\n      swap2\n      add\n      swap1\n      swap2\n      add\n        /* \"src/contracts/AaveFlashLoanV3Factory.sol\":66466:66484  assets[0] = token0 */\n      mstore\n        /* \"src/contracts/AaveFlashLoanV3Factory.sol\":66522:66538  new uint256[](1) */\n      0x40\n      dup1\n      mload\n        /* \"src/contracts/AaveFlashLoanV3Factory.sol\":66536:66537  1 */\n      0x01\n        /* \"src/contracts/AaveFlashLoanV3Factory.sol\":66522:66538  new uint256[](1) */\n      dup1\n      dup3\n      mstore\n      dup2\n      dup4\n      add\n      swap1\n      swap3\n      mstore\n        /* \"src/contracts/AaveFlashLoanV3Factory.sol\":66495:66519  uint256[] memory amounts */\n      0x00\n      swap2\n        /* \"src/contracts/AaveFlashLoanV3Factory.sol\":66522:66538  new uint256[](1) */\n      dup2\n      0x20\n      add\n      0x20\n      dup3\n      mul\n      dup1\n      calldatasize\n      dup4\n      calldatacopy\n      add\n      swap1\n      pop\n      pop\n        /* \"src/contracts/AaveFlashLoanV3Factory.sol\":66495:66538  uint256[] memory amounts = new uint256[](1) */\n      swap1\n      pop\n        /* \"src/contracts/AaveFlashLoanV3Factory.sol\":66561:66569  amountIn */\n      dup6\n        /* \"src/contracts/AaveFlashLoanV3Factory.sol\":66548:66555  amounts */\n      dup2\n        /* \"src/contracts/AaveFlashLoanV3Factory.sol\":66556:66557  0 */\n      0x00\n        /* \"src/contracts/AaveFlashLoanV3Factory.sol\":66548:66558  amounts[0] */\n      dup2\n      mload\n      dup2\n      lt\n      tag_109\n      jumpi\n      tag_109\n      tag_84\n      jump\t// in\n    tag_109:\n      0x20\n      swap1\n      dup2\n      mul\n      swap2\n      swap1\n      swap2\n      add\n      add\n        /* \"src/contracts/AaveFlashLoanV3Factory.sol\":66548:66569  amounts[0] = amountIn */\n      mstore\n        /* \"src/contracts/AaveFlashLoanV3Factory.sol\":66654:66670  new uint256[](1) */\n      0x40\n      dup1\n      mload\n        /* \"src/contracts/AaveFlashLoanV3Factory.sol\":66668:66669  1 */\n      0x01\n        /* \"src/contracts/AaveFlashLoanV3Factory.sol\":66654:66670  new uint256[](1) */\n      dup1\n      dup3\n      mstore\n      dup2\n      dup4\n      add\n      swap1\n      swap3\n      mstore\n        /* \"src/contracts/AaveFlashLoanV3Factory.sol\":66629:66651  uint256[] memory modes */\n      0x00\n      swap2\n        /* \"src/contracts/AaveFlashLoanV3Factory.sol\":66654:66670  new uint256[](1) */\n      dup2\n      0x20\n      add\n      0x20\n      dup3\n      mul\n      dup1\n      calldatasize\n      dup4\n      calldatacopy\n      add\n      swap1\n      pop\n      pop\n        /* \"src/contracts/AaveFlashLoanV3Factory.sol\":66629:66670  uint256[] memory modes = new uint256[](1) */\n      swap1\n      pop\n        /* \"src/contracts/AaveFlashLoanV3Factory.sol\":66691:66692  0 */\n      0x00\n        /* \"src/contracts/AaveFlashLoanV3Factory.sol\":66680:66685  modes */\n      dup2\n        /* \"src/contracts/AaveFlashLoanV3Factory.sol\":66686:66687  0 */\n      0x00\n        /* \"src/contracts/AaveFlashLoanV3Factory.sol\":66680:66688  modes[0] */\n      dup2\n      mload\n      dup2\n      lt\n      tag_114\n      jumpi\n      tag_114\n      tag_84\n      jump\t// in\n    tag_114:\n      0x20\n      swap1\n      dup2\n      mul\n      swap2\n      swap1\n      swap2\n      add\n      dup2\n      add\n        /* \"src/contracts/AaveFlashLoanV3Factory.sol\":66680:66692  modes[0] = 0 */\n      swap2\n      swap1\n      swap2\n      mstore\n        /* \"src/contracts/AaveFlashLoanV3Factory.sol\":66903:66980  abi.encode(token0, token1, direction, poolFee, amountIn, amountOut, deadline) */\n      0x40\n      dup1\n      mload\n      sub(shl(0xa0, 0x01), 0x01)\n        /* \"#utility.yul\":7046:7061   */\n      dup1\n      dup16\n      and\n        /* \"src/contracts/AaveFlashLoanV3Factory.sol\":66903:66980  abi.encode(token0, token1, direction, poolFee, amountIn, amountOut, deadline) */\n      swap4\n      dup3\n      add\n        /* \"#utility.yul\":7028:7062   */\n      swap4\n      swap1\n      swap4\n      mstore\n        /* \"#utility.yul\":7098:7113   */\n      swap2\n      dup13\n      and\n        /* \"#utility.yul\":7078:7096   */\n      swap1\n      dup3\n      add\n        /* \"#utility.yul\":7071:7114   */\n      mstore\n        /* \"#utility.yul\":7162:7166   */\n      0xff\n        /* \"#utility.yul\":7150:7167   */\n      dup11\n      and\n        /* \"#utility.yul\":7130:7148   */\n      0x60\n      dup3\n      add\n        /* \"#utility.yul\":7123:7168   */\n      mstore\n        /* \"#utility.yul\":7216:7224   */\n      0xffffff\n        /* \"#utility.yul\":7204:7225   */\n      dup10\n      and\n        /* \"#utility.yul\":7184:7202   */\n      0x80\n      dup3\n      add\n        /* \"#utility.yul\":7177:7226   */\n      mstore\n        /* \"#utility.yul\":7242:7261   */\n      0xa0\n      dup2\n      add\n        /* \"#utility.yul\":7235:7270   */\n      dup9\n      swap1\n      mstore\n        /* \"#utility.yul\":7286:7305   */\n      0xc0\n      dup2\n      add\n        /* \"#utility.yul\":7279:7314   */\n      dup8\n      swap1\n      mstore\n        /* \"#utility.yul\":7330:7349   */\n      0xe0\n      dup2\n      add\n        /* \"#utility.yul\":7323:7358   */\n      dup7\n      swap1\n      mstore\n        /* \"src/contracts/AaveFlashLoanV3Factory.sol\":66731:66735  this */\n      address\n      swap1\n        /* \"src/contracts/AaveFlashLoanV3Factory.sol\":66702:66720  address onBehalfOf */\n      0x00\n      swap1\n        /* \"#utility.yul\":6939:6958   */\n      0x0100\n      add\n        /* \"src/contracts/AaveFlashLoanV3Factory.sol\":66903:66980  abi.encode(token0, token1, direction, poolFee, amountIn, amountOut, deadline) */\n      0x40\n      dup1\n      mload\n      not(0x1f)\n      dup2\n      dup5\n      sub\n      add\n      dup2\n      mstore\n      swap1\n      dup3\n      swap1\n      mstore\n        /* \"src/contracts/AaveFlashLoanV3Factory.sol\":67070:67253  POOL.flashLoan(... */\n      0xab9c4b5d00000000000000000000000000000000000000000000000000000000\n      dup3\n      mstore\n        /* \"src/contracts/AaveFlashLoanV3Factory.sol\":66903:66980  abi.encode(token0, token1, direction, poolFee, amountIn, amountOut, deadline) */\n      swap2\n      pop\n        /* \"src/contracts/AaveFlashLoanV3Factory.sol\":66990:67009  uint16 referralCode */\n      0x00\n      swap1\n      sub(shl(0xa0, 0x01), 0x01)\n        /* \"src/contracts/AaveFlashLoanV3Factory.sol\":67070:67074  POOL */\n      immutable(\"0xdf9477d5be7ba6312927b83fae5c66d4b31f805974aa501892b5c5de8406530d\")\n        /* \"src/contracts/AaveFlashLoanV3Factory.sol\":67070:67084  POOL.flashLoan */\n      and\n      swap1\n      0xab9c4b5d\n      swap1\n        /* \"src/contracts/AaveFlashLoanV3Factory.sol\":67070:67253  POOL.flashLoan(... */\n      tag_117\n      swap1\n        /* \"src/contracts/AaveFlashLoanV3Factory.sol\":67098:67113  receiverAddress */\n      dup11\n      swap1\n        /* \"src/contracts/AaveFlashLoanV3Factory.sol\":67127:67133  assets */\n      dup11\n      swap1\n        /* \"src/contracts/AaveFlashLoanV3Factory.sol\":67147:67154  amounts */\n      dup11\n      swap1\n        /* \"src/contracts/AaveFlashLoanV3Factory.sol\":67168:67173  modes */\n      dup11\n      swap1\n        /* \"src/contracts/AaveFlashLoanV3Factory.sol\":67187:67197  onBehalfOf */\n      dup11\n      swap1\n        /* \"src/contracts/AaveFlashLoanV3Factory.sol\":66903:66980  abi.encode(token0, token1, direction, poolFee, amountIn, amountOut, deadline) */\n      dup11\n      swap1\n        /* \"src/contracts/AaveFlashLoanV3Factory.sol\":66990:67009  uint16 referralCode */\n      dup11\n      swap1\n        /* \"src/contracts/AaveFlashLoanV3Factory.sol\":67070:67253  POOL.flashLoan(... */\n      0x04\n      add\n      tag_118\n      jump\t// in\n    tag_117:\n      0x00\n      mload(0x40)\n      dup1\n      dup4\n      sub\n      dup2\n      0x00\n      dup8\n      dup1\n      extcodesize\n      iszero\n      dup1\n      iszero\n      tag_119\n      jumpi\n      0x00\n      dup1\n      revert\n    tag_119:\n      pop\n      gas\n      call\n      iszero\n      dup1\n      iszero\n      tag_121\n      jumpi\n      returndatasize\n      0x00\n      dup1\n      returndatacopy\n      revert(0x00, returndatasize)\n    tag_121:\n      pop\n      pop\n      pop\n      pop\n        /* \"src/contracts/AaveFlashLoanV3Factory.sol\":66301:67260  {... */\n      pop\n      pop\n      pop\n      pop\n      pop\n      pop\n      pop\n        /* \"src/contracts/AaveFlashLoanV3Factory.sol\":66139:67260  function myFlashLoanCall(address token0, address token1, uint8 direction, uint24 poolFee, uint256 amountIn, uint256 amountOut, uint256 deadline) public onlyOwner {... */\n      pop\n      pop\n      pop\n      pop\n      pop\n      pop\n      pop\n      jump\t// out\n        /* \"src/contracts/AaveFlashLoanV3Factory.sol\":71042:71141  function transferOwnership(address newOwner) external onlyOwner {... */\n    tag_50:\n        /* \"src/contracts/AaveFlashLoanV3Factory.sol\":65040:65045  owner */\n      and(sub(shl(0xa0, 0x01), 0x01), sload(0x00))\n        /* \"src/contracts/AaveFlashLoanV3Factory.sol\":65025:65035  msg.sender */\n      caller\n        /* \"src/contracts/AaveFlashLoanV3Factory.sol\":65017:65045  address(msg.sender) == owner */\n      eq\n        /* \"src/contracts/AaveFlashLoanV3Factory.sol\":65009:65046  require(address(msg.sender) == owner) */\n      tag_123\n      jumpi\n      0x00\n      dup1\n      revert\n    tag_123:\n        /* \"src/contracts/AaveFlashLoanV3Factory.sol\":71117:71122  owner */\n      0x00\n        /* \"src/contracts/AaveFlashLoanV3Factory.sol\":71117:71133  owner = newOwner */\n      dup1\n      sload\n      0xffffffffffffffffffffffff0000000000000000000000000000000000000000\n      and\n      sub(shl(0xa0, 0x01), 0x01)\n      swap3\n      swap1\n      swap3\n      and\n      swap2\n      swap1\n      swap2\n      or\n      swap1\n      sstore\n        /* \"src/contracts/AaveFlashLoanV3Factory.sol\":71042:71141  function transferOwnership(address newOwner) external onlyOwner {... */\n      jump\t// out\n        /* \"src/contracts/AaveFlashLoanV3Factory.sol\":12903:13212  function safeTransfer(... */\n    tag_63:\n        /* \"src/contracts/AaveFlashLoanV3Factory.sol\":13063:13122  abi.encodeWithSelector(IERC20.transfer.selector, to, value) */\n      0x40\n      dup1\n      mload\n      sub(shl(0xa0, 0x01), 0x01)\n        /* \"#utility.yul\":10053:10108   */\n      dup5\n      dup2\n      and\n        /* \"src/contracts/AaveFlashLoanV3Factory.sol\":13063:13122  abi.encodeWithSelector(IERC20.transfer.selector, to, value) */\n      0x24\n      dup4\n      add\n        /* \"#utility.yul\":10035:10109   */\n      mstore\n        /* \"#utility.yul\":10125:10143   */\n      0x44\n      dup1\n      dup4\n      add\n        /* \"#utility.yul\":10118:10152   */\n      dup6\n      swap1\n      mstore\n        /* \"src/contracts/AaveFlashLoanV3Factory.sol\":13063:13122  abi.encodeWithSelector(IERC20.transfer.selector, to, value) */\n      dup4\n      mload\n      dup1\n      dup5\n      sub\n      swap1\n      swap2\n      add\n      dup2\n      mstore\n        /* \"#utility.yul\":10008:10026   */\n      0x64\n      swap1\n      swap3\n      add\n        /* \"src/contracts/AaveFlashLoanV3Factory.sol\":13063:13122  abi.encodeWithSelector(IERC20.transfer.selector, to, value) */\n      dup4\n      mstore\n      0x20\n      dup3\n      add\n      dup1\n      mload\n      0xffffffffffffffffffffffffffffffffffffffffffffffffffffffff\n      and\n        /* \"src/contracts/AaveFlashLoanV3Factory.sol\":13086:13110  IERC20.transfer.selector */\n      0xa9059cbb00000000000000000000000000000000000000000000000000000000\n        /* \"src/contracts/AaveFlashLoanV3Factory.sol\":13063:13122  abi.encodeWithSelector(IERC20.transfer.selector, to, value) */\n      or\n      swap1\n      mstore\n        /* \"src/contracts/AaveFlashLoanV3Factory.sol\":13052:13123  token.call(abi.encodeWithSelector(IERC20.transfer.selector, to, value)) */\n      swap2\n      mload\n      0x00\n      swap3\n      dup4\n      swap3\n        /* \"src/contracts/AaveFlashLoanV3Factory.sol\":13052:13062  token.call */\n      swap1\n      dup8\n      and\n      swap2\n        /* \"src/contracts/AaveFlashLoanV3Factory.sol\":13052:13123  token.call(abi.encodeWithSelector(IERC20.transfer.selector, to, value)) */\n      tag_128\n      swap2\n        /* \"src/contracts/AaveFlashLoanV3Factory.sol\":13063:13122  abi.encodeWithSelector(IERC20.transfer.selector, to, value) */\n      swap1\n        /* \"src/contracts/AaveFlashLoanV3Factory.sol\":13052:13123  token.call(abi.encodeWithSelector(IERC20.transfer.selector, to, value)) */\n      tag_129\n      jump\t// in\n    tag_128:\n      0x00\n      mload(0x40)\n      dup1\n      dup4\n      sub\n      dup2\n      0x00\n      dup7\n      gas\n      call\n      swap2\n      pop\n      pop\n      returndatasize\n      dup1\n      0x00\n      dup2\n      eq\n      tag_132\n      jumpi\n      mload(0x40)\n      swap2\n      pop\n      and(add(returndatasize, 0x3f), not(0x1f))\n      dup3\n      add\n      0x40\n      mstore\n      returndatasize\n      dup3\n      mstore\n      returndatasize\n      0x00\n      0x20\n      dup5\n      add\n      returndatacopy\n      jump(tag_131)\n    tag_132:\n      0x60\n      swap2\n      pop\n    tag_131:\n      pop\n        /* \"src/contracts/AaveFlashLoanV3Factory.sol\":13016:13123  (bool success, bytes memory data) = token.call(abi.encodeWithSelector(IERC20.transfer.selector, to, value)) */\n      swap2\n      pop\n      swap2\n      pop\n        /* \"src/contracts/AaveFlashLoanV3Factory.sol\":13141:13148  success */\n      dup2\n        /* \"src/contracts/AaveFlashLoanV3Factory.sol\":13141:13198  success && (data.length == 0 || abi.decode(data, (bool))) */\n      dup1\n      iszero\n      tag_135\n      jumpi\n      pop\n        /* \"src/contracts/AaveFlashLoanV3Factory.sol\":13153:13164  data.length */\n      dup1\n      mload\n        /* \"src/contracts/AaveFlashLoanV3Factory.sol\":13153:13169  data.length == 0 */\n      iszero\n      dup1\n        /* \"src/contracts/AaveFlashLoanV3Factory.sol\":13153:13197  data.length == 0 || abi.decode(data, (bool)) */\n      tag_135\n      jumpi\n      pop\n        /* \"src/contracts/AaveFlashLoanV3Factory.sol\":13184:13188  data */\n      dup1\n        /* \"src/contracts/AaveFlashLoanV3Factory.sol\":13173:13197  abi.decode(data, (bool)) */\n      dup1\n      0x20\n      add\n      swap1\n      mload\n      dup2\n      add\n      swap1\n      tag_135\n      swap2\n      swap1\n      tag_136\n      jump\t// in\n    tag_135:\n        /* \"src/contracts/AaveFlashLoanV3Factory.sol\":13133:13205  require(success && (data.length == 0 || abi.decode(data, (bool))), 'ST') */\n      tag_137\n      jumpi\n      mload(0x40)\n      shl(0xe5, 0x461bcd)\n      dup2\n      mstore\n        /* \"#utility.yul\":10926:10928   */\n      0x20\n        /* \"src/contracts/AaveFlashLoanV3Factory.sol\":13133:13205  require(success && (data.length == 0 || abi.decode(data, (bool))), 'ST') */\n      0x04\n      dup3\n      add\n        /* \"#utility.yul\":10908:10929   */\n      mstore\n        /* \"#utility.yul\":10965:10966   */\n      0x02\n        /* \"#utility.yul\":10945:10963   */\n      0x24\n      dup3\n      add\n        /* \"#utility.yul\":10938:10967   */\n      mstore\n        /* \"#utility.yul\":11003:11007   */\n      0x5354000000000000000000000000000000000000000000000000000000000000\n        /* \"#utility.yul\":10983:11001   */\n      0x44\n      dup3\n      add\n        /* \"#utility.yul\":10976:11008   */\n      mstore\n        /* \"#utility.yul\":11025:11043   */\n      0x64\n      add\n        /* \"src/contracts/AaveFlashLoanV3Factory.sol\":13133:13205  require(success && (data.length == 0 || abi.decode(data, (bool))), 'ST') */\n      tag_60\n        /* \"#utility.yul\":10724:11049   */\n      jump\n        /* \"src/contracts/AaveFlashLoanV3Factory.sol\":13133:13205  require(success && (data.length == 0 || abi.decode(data, (bool))), 'ST') */\n    tag_137:\n        /* \"src/contracts/AaveFlashLoanV3Factory.sol\":13006:13212  {... */\n      pop\n      pop\n        /* \"src/contracts/AaveFlashLoanV3Factory.sol\":12903:13212  function safeTransfer(... */\n      pop\n      pop\n      pop\n      jump\t// out\n        /* \"src/contracts/AaveFlashLoanV3Factory.sol\":67340:68583  function swapERC20Tokens(bytes calldata params) internal{... */\n    tag_78:\n        /* \"src/contracts/AaveFlashLoanV3Factory.sol\":67407:67421  address token0 */\n      0x00\n      dup1\n      dup1\n      dup1\n      dup1\n      dup1\n      dup1\n        /* \"src/contracts/AaveFlashLoanV3Factory.sol\":67529:67609  abi.decode(params, (address, address, uint8, uint24, uint256, uint256, uint256)) */\n      tag_141\n      dup9\n      dup11\n      add\n        /* \"src/contracts/AaveFlashLoanV3Factory.sol\":67540:67546  params */\n      dup11\n        /* \"src/contracts/AaveFlashLoanV3Factory.sol\":67529:67609  abi.decode(params, (address, address, uint8, uint24, uint256, uint256, uint256)) */\n      tag_45\n      jump\t// in\n    tag_141:\n        /* \"src/contracts/AaveFlashLoanV3Factory.sol\":67644:67660  new address[](2) */\n      0x40\n      dup1\n      mload\n        /* \"src/contracts/AaveFlashLoanV3Factory.sol\":67658:67659  2 */\n      0x02\n        /* \"src/contracts/AaveFlashLoanV3Factory.sol\":67644:67660  new address[](2) */\n      dup1\n      dup3\n      mstore\n      0x60\n      dup3\n      add\n      dup4\n      mstore\n        /* \"src/contracts/AaveFlashLoanV3Factory.sol\":67406:67609  (address token0, address token1, uint8 direction, uint24 poolFee, uint256 amountIn, uint256 amountOut, uint256 deadline) = abi.decode(params, (address, address, uint8, uint24, uint256, uint256, uint256)) */\n      swap9\n      swap16\n      pop\n      swap7\n      swap14\n      pop\n      swap5\n      swap12\n      pop\n      swap3\n      swap10\n      pop\n      swap1\n      swap8\n      pop\n      swap6\n      pop\n      swap4\n      pop\n        /* \"src/contracts/AaveFlashLoanV3Factory.sol\":67620:67641  address[] memory path */\n      0x00\n      swap3\n        /* \"src/contracts/AaveFlashLoanV3Factory.sol\":67658:67659  2 */\n      swap1\n        /* \"src/contracts/AaveFlashLoanV3Factory.sol\":67644:67660  new address[](2) */\n      0x20\n      dup4\n      add\n      swap1\n      dup1\n      calldatasize\n      dup4\n      calldatacopy\n      add\n      swap1\n      pop\n      pop\n        /* \"src/contracts/AaveFlashLoanV3Factory.sol\":67620:67660  address[] memory path = new address[](2) */\n      swap1\n      pop\n        /* \"src/contracts/AaveFlashLoanV3Factory.sol\":67771:67780  direction */\n      dup6\n        /* \"src/contracts/AaveFlashLoanV3Factory.sol\":67771:67785  direction == 1 */\n      0xff\n      and\n        /* \"src/contracts/AaveFlashLoanV3Factory.sol\":67784:67785  1 */\n      0x01\n        /* \"src/contracts/AaveFlashLoanV3Factory.sol\":67771:67785  direction == 1 */\n      eq\n        /* \"src/contracts/AaveFlashLoanV3Factory.sol\":67768:68577  if(direction == 1){... */\n      iszero\n      tag_146\n      jumpi\n        /* \"src/contracts/AaveFlashLoanV3Factory.sol\":67859:67883  uint256 uniSwapAmountOut */\n      0x00\n        /* \"src/contracts/AaveFlashLoanV3Factory.sol\":67886:67955  uniSwapExactInputSingle(amountIn, amountOut, token0, token1, poolFee) */\n      tag_147\n        /* \"src/contracts/AaveFlashLoanV3Factory.sol\":67910:67918  amountIn */\n      dup6\n        /* \"src/contracts/AaveFlashLoanV3Factory.sol\":67920:67929  amountOut */\n      dup6\n        /* \"src/contracts/AaveFlashLoanV3Factory.sol\":67931:67937  token0 */\n      dup12\n        /* \"src/contracts/AaveFlashLoanV3Factory.sol\":67939:67945  token1 */\n      dup12\n        /* \"src/contracts/AaveFlashLoanV3Factory.sol\":67947:67954  poolFee */\n      dup11\n        /* \"src/contracts/AaveFlashLoanV3Factory.sol\":67886:67909  uniSwapExactInputSingle */\n      tag_148\n        /* \"src/contracts/AaveFlashLoanV3Factory.sol\":67886:67955  uniSwapExactInputSingle(amountIn, amountOut, token0, token1, poolFee) */\n      jump\t// in\n    tag_147:\n        /* \"src/contracts/AaveFlashLoanV3Factory.sol\":67859:67955  uint256 uniSwapAmountOut = uniSwapExactInputSingle(amountIn, amountOut, token0, token1, poolFee) */\n      swap1\n      pop\n        /* \"src/contracts/AaveFlashLoanV3Factory.sol\":68048:68054  token1 */\n      dup8\n        /* \"src/contracts/AaveFlashLoanV3Factory.sol\":68038:68042  path */\n      dup3\n        /* \"src/contracts/AaveFlashLoanV3Factory.sol\":68043:68044  0 */\n      0x00\n        /* \"src/contracts/AaveFlashLoanV3Factory.sol\":68038:68045  path[0] */\n      dup2\n      mload\n      dup2\n      lt\n      tag_150\n      jumpi\n      tag_150\n      tag_84\n      jump\t// in\n    tag_150:\n      0x20\n      mul\n      0x20\n      add\n      add\n        /* \"src/contracts/AaveFlashLoanV3Factory.sol\":68038:68054  path[0] = token1 */\n      swap1\n      sub(shl(0xa0, 0x01), 0x01)\n      and\n      swap1\n      dup2\n      sub(shl(0xa0, 0x01), 0x01)\n      and\n      dup2\n      mstore\n      pop\n      pop\n        /* \"src/contracts/AaveFlashLoanV3Factory.sol\":68078:68084  token0 */\n      dup9\n        /* \"src/contracts/AaveFlashLoanV3Factory.sol\":68068:68072  path */\n      dup3\n        /* \"src/contracts/AaveFlashLoanV3Factory.sol\":68073:68074  1 */\n      0x01\n        /* \"src/contracts/AaveFlashLoanV3Factory.sol\":68068:68075  path[1] */\n      dup2\n      mload\n      dup2\n      lt\n      tag_152\n      jumpi\n      tag_152\n      tag_84\n      jump\t// in\n    tag_152:\n      0x20\n      mul\n      0x20\n      add\n      add\n        /* \"src/contracts/AaveFlashLoanV3Factory.sol\":68068:68084  path[1] = token0 */\n      swap1\n      sub(shl(0xa0, 0x01), 0x01)\n      and\n      swap1\n      dup2\n      sub(shl(0xa0, 0x01), 0x01)\n      and\n      dup2\n      mstore\n      pop\n      pop\n        /* \"src/contracts/AaveFlashLoanV3Factory.sol\":68098:68160  sushiSwapExactInputSingle(uniSwapAmountOut, 0, path, deadline) */\n      tag_153\n        /* \"src/contracts/AaveFlashLoanV3Factory.sol\":68124:68140  uniSwapAmountOut */\n      dup2\n        /* \"src/contracts/AaveFlashLoanV3Factory.sol\":68142:68143  0 */\n      0x00\n        /* \"src/contracts/AaveFlashLoanV3Factory.sol\":68145:68149  path */\n      dup5\n        /* \"src/contracts/AaveFlashLoanV3Factory.sol\":68151:68159  deadline */\n      dup7\n        /* \"src/contracts/AaveFlashLoanV3Factory.sol\":68098:68123  sushiSwapExactInputSingle */\n      tag_154\n        /* \"src/contracts/AaveFlashLoanV3Factory.sol\":68098:68160  sushiSwapExactInputSingle(uniSwapAmountOut, 0, path, deadline) */\n      jump\t// in\n    tag_153:\n      pop\n        /* \"src/contracts/AaveFlashLoanV3Factory.sol\":67786:68172  {... */\n      pop\n        /* \"src/contracts/AaveFlashLoanV3Factory.sol\":67768:68577  if(direction == 1){... */\n      jump(tag_155)\n    tag_146:\n        /* \"src/contracts/AaveFlashLoanV3Factory.sol\":68259:68265  token0 */\n      dup8\n        /* \"src/contracts/AaveFlashLoanV3Factory.sol\":68249:68253  path */\n      dup2\n        /* \"src/contracts/AaveFlashLoanV3Factory.sol\":68254:68255  0 */\n      0x00\n        /* \"src/contracts/AaveFlashLoanV3Factory.sol\":68249:68256  path[0] */\n      dup2\n      mload\n      dup2\n      lt\n      tag_157\n      jumpi\n      tag_157\n      tag_84\n      jump\t// in\n    tag_157:\n      0x20\n      mul\n      0x20\n      add\n      add\n        /* \"src/contracts/AaveFlashLoanV3Factory.sol\":68249:68265  path[0] = token0 */\n      swap1\n      sub(shl(0xa0, 0x01), 0x01)\n      and\n      swap1\n      dup2\n      sub(shl(0xa0, 0x01), 0x01)\n      and\n      dup2\n      mstore\n      pop\n      pop\n        /* \"src/contracts/AaveFlashLoanV3Factory.sol\":68289:68295  token1 */\n      dup7\n        /* \"src/contracts/AaveFlashLoanV3Factory.sol\":68279:68283  path */\n      dup2\n        /* \"src/contracts/AaveFlashLoanV3Factory.sol\":68284:68285  1 */\n      0x01\n        /* \"src/contracts/AaveFlashLoanV3Factory.sol\":68279:68286  path[1] */\n      dup2\n      mload\n      dup2\n      lt\n      tag_159\n      jumpi\n      tag_159\n      tag_84\n      jump\t// in\n    tag_159:\n      0x20\n      mul\n      0x20\n      add\n      add\n        /* \"src/contracts/AaveFlashLoanV3Factory.sol\":68279:68295  path[1] = token1 */\n      swap1\n      sub(shl(0xa0, 0x01), 0x01)\n      and\n      swap1\n      dup2\n      sub(shl(0xa0, 0x01), 0x01)\n      and\n      dup2\n      mstore\n      pop\n      pop\n        /* \"src/contracts/AaveFlashLoanV3Factory.sol\":68309:68344  uint256[] memory sushiSwapAmountOut */\n      0x00\n        /* \"src/contracts/AaveFlashLoanV3Factory.sol\":68347:68409  sushiSwapExactInputSingle(amountIn, amountOut, path, deadline) */\n      tag_160\n        /* \"src/contracts/AaveFlashLoanV3Factory.sol\":68373:68381  amountIn */\n      dup6\n        /* \"src/contracts/AaveFlashLoanV3Factory.sol\":68383:68392  amountOut */\n      dup6\n        /* \"src/contracts/AaveFlashLoanV3Factory.sol\":68394:68398  path */\n      dup5\n        /* \"src/contracts/AaveFlashLoanV3Factory.sol\":68400:68408  deadline */\n      dup7\n        /* \"src/contracts/AaveFlashLoanV3Factory.sol\":68347:68372  sushiSwapExactInputSingle */\n      tag_154\n        /* \"src/contracts/AaveFlashLoanV3Factory.sol\":68347:68409  sushiSwapExactInputSingle(amountIn, amountOut, path, deadline) */\n      jump\t// in\n    tag_160:\n        /* \"src/contracts/AaveFlashLoanV3Factory.sol\":68309:68409  uint256[] memory sushiSwapAmountOut = sushiSwapExactInputSingle(amountIn, amountOut, path, deadline) */\n      swap1\n      pop\n        /* \"src/contracts/AaveFlashLoanV3Factory.sol\":68492:68566  uniSwapExactInputSingle(sushiSwapAmountOut[1], 0, token1, token0, poolFee) */\n      tag_161\n        /* \"src/contracts/AaveFlashLoanV3Factory.sol\":68516:68534  sushiSwapAmountOut */\n      dup2\n        /* \"src/contracts/AaveFlashLoanV3Factory.sol\":68535:68536  1 */\n      0x01\n        /* \"src/contracts/AaveFlashLoanV3Factory.sol\":68516:68537  sushiSwapAmountOut[1] */\n      dup2\n      mload\n      dup2\n      lt\n      tag_163\n      jumpi\n      tag_163\n      tag_84\n      jump\t// in\n    tag_163:\n      0x20\n      mul\n      0x20\n      add\n      add\n      mload\n        /* \"src/contracts/AaveFlashLoanV3Factory.sol\":68539:68540  0 */\n      0x00\n        /* \"src/contracts/AaveFlashLoanV3Factory.sol\":68542:68548  token1 */\n      dup11\n        /* \"src/contracts/AaveFlashLoanV3Factory.sol\":68550:68556  token0 */\n      dup13\n        /* \"src/contracts/AaveFlashLoanV3Factory.sol\":68558:68565  poolFee */\n      dup11\n        /* \"src/contracts/AaveFlashLoanV3Factory.sol\":68492:68515  uniSwapExactInputSingle */\n      tag_148\n        /* \"src/contracts/AaveFlashLoanV3Factory.sol\":68492:68566  uniSwapExactInputSingle(sushiSwapAmountOut[1], 0, token1, token0, poolFee) */\n      jump\t// in\n    tag_161:\n      pop\n        /* \"src/contracts/AaveFlashLoanV3Factory.sol\":68176:68577  {... */\n      pop\n        /* \"src/contracts/AaveFlashLoanV3Factory.sol\":67768:68577  if(direction == 1){... */\n    tag_155:\n        /* \"src/contracts/AaveFlashLoanV3Factory.sol\":67396:68583  {... */\n      pop\n      pop\n      pop\n      pop\n      pop\n      pop\n      pop\n      pop\n        /* \"src/contracts/AaveFlashLoanV3Factory.sol\":67340:68583  function swapERC20Tokens(bytes calldata params) internal{... */\n      pop\n      pop\n      jump\t// out\n        /* \"src/contracts/AaveFlashLoanV3Factory.sol\":13565:13872  function safeApprove(... */\n    tag_93:\n        /* \"src/contracts/AaveFlashLoanV3Factory.sol\":13724:13782  abi.encodeWithSelector(IERC20.approve.selector, to, value) */\n      0x40\n      dup1\n      mload\n      sub(shl(0xa0, 0x01), 0x01)\n        /* \"#utility.yul\":10053:10108   */\n      dup5\n      dup2\n      and\n        /* \"src/contracts/AaveFlashLoanV3Factory.sol\":13724:13782  abi.encodeWithSelector(IERC20.approve.selector, to, value) */\n      0x24\n      dup4\n      add\n        /* \"#utility.yul\":10035:10109   */\n      mstore\n        /* \"#utility.yul\":10125:10143   */\n      0x44\n      dup1\n      dup4\n      add\n        /* \"#utility.yul\":10118:10152   */\n      dup6\n      swap1\n      mstore\n        /* \"src/contracts/AaveFlashLoanV3Factory.sol\":13724:13782  abi.encodeWithSelector(IERC20.approve.selector, to, value) */\n      dup4\n      mload\n      dup1\n      dup5\n      sub\n      swap1\n      swap2\n      add\n      dup2\n      mstore\n        /* \"#utility.yul\":10008:10026   */\n      0x64\n      swap1\n      swap3\n      add\n        /* \"src/contracts/AaveFlashLoanV3Factory.sol\":13724:13782  abi.encodeWithSelector(IERC20.approve.selector, to, value) */\n      dup4\n      mstore\n      0x20\n      dup3\n      add\n      dup1\n      mload\n      0xffffffffffffffffffffffffffffffffffffffffffffffffffffffff\n      and\n        /* \"src/contracts/AaveFlashLoanV3Factory.sol\":13747:13770  IERC20.approve.selector */\n      0x095ea7b300000000000000000000000000000000000000000000000000000000\n        /* \"src/contracts/AaveFlashLoanV3Factory.sol\":13724:13782  abi.encodeWithSelector(IERC20.approve.selector, to, value) */\n      or\n      swap1\n      mstore\n        /* \"src/contracts/AaveFlashLoanV3Factory.sol\":13713:13783  token.call(abi.encodeWithSelector(IERC20.approve.selector, to, value)) */\n      swap2\n      mload\n      0x00\n      swap3\n      dup4\n      swap3\n        /* \"src/contracts/AaveFlashLoanV3Factory.sol\":13713:13723  token.call */\n      swap1\n      dup8\n      and\n      swap2\n        /* \"src/contracts/AaveFlashLoanV3Factory.sol\":13713:13783  token.call(abi.encodeWithSelector(IERC20.approve.selector, to, value)) */\n      tag_166\n      swap2\n        /* \"src/contracts/AaveFlashLoanV3Factory.sol\":13724:13782  abi.encodeWithSelector(IERC20.approve.selector, to, value) */\n      swap1\n        /* \"src/contracts/AaveFlashLoanV3Factory.sol\":13713:13783  token.call(abi.encodeWithSelector(IERC20.approve.selector, to, value)) */\n      tag_129\n      jump\t// in\n    tag_166:\n      0x00\n      mload(0x40)\n      dup1\n      dup4\n      sub\n      dup2\n      0x00\n      dup7\n      gas\n      call\n      swap2\n      pop\n      pop\n      returndatasize\n      dup1\n      0x00\n      dup2\n      eq\n      tag_169\n      jumpi\n      mload(0x40)\n      swap2\n      pop\n      and(add(returndatasize, 0x3f), not(0x1f))\n      dup3\n      add\n      0x40\n      mstore\n      returndatasize\n      dup3\n      mstore\n      returndatasize\n      0x00\n      0x20\n      dup5\n      add\n      returndatacopy\n      jump(tag_168)\n    tag_169:\n      0x60\n      swap2\n      pop\n    tag_168:\n      pop\n        /* \"src/contracts/AaveFlashLoanV3Factory.sol\":13677:13783  (bool success, bytes memory data) = token.call(abi.encodeWithSelector(IERC20.approve.selector, to, value)) */\n      swap2\n      pop\n      swap2\n      pop\n        /* \"src/contracts/AaveFlashLoanV3Factory.sol\":13801:13808  success */\n      dup2\n        /* \"src/contracts/AaveFlashLoanV3Factory.sol\":13801:13858  success && (data.length == 0 || abi.decode(data, (bool))) */\n      dup1\n      iszero\n      tag_172\n      jumpi\n      pop\n        /* \"src/contracts/AaveFlashLoanV3Factory.sol\":13813:13824  data.length */\n      dup1\n      mload\n        /* \"src/contracts/AaveFlashLoanV3Factory.sol\":13813:13829  data.length == 0 */\n      iszero\n      dup1\n        /* \"src/contracts/AaveFlashLoanV3Factory.sol\":13813:13857  data.length == 0 || abi.decode(data, (bool)) */\n      tag_172\n      jumpi\n      pop\n        /* \"src/contracts/AaveFlashLoanV3Factory.sol\":13844:13848  data */\n      dup1\n        /* \"src/contracts/AaveFlashLoanV3Factory.sol\":13833:13857  abi.decode(data, (bool)) */\n      dup1\n      0x20\n      add\n      swap1\n      mload\n      dup2\n      add\n      swap1\n      tag_172\n      swap2\n      swap1\n      tag_136\n      jump\t// in\n    tag_172:\n        /* \"src/contracts/AaveFlashLoanV3Factory.sol\":13793:13865  require(success && (data.length == 0 || abi.decode(data, (bool))), 'SA') */\n      tag_137\n      jumpi\n      mload(0x40)\n      shl(0xe5, 0x461bcd)\n      dup2\n      mstore\n        /* \"#utility.yul\":12015:12017   */\n      0x20\n        /* \"src/contracts/AaveFlashLoanV3Factory.sol\":13793:13865  require(success && (data.length == 0 || abi.decode(data, (bool))), 'SA') */\n      0x04\n      dup3\n      add\n        /* \"#utility.yul\":11997:12018   */\n      mstore\n        /* \"#utility.yul\":12054:12055   */\n      0x02\n        /* \"#utility.yul\":12034:12052   */\n      0x24\n      dup3\n      add\n        /* \"#utility.yul\":12027:12056   */\n      mstore\n        /* \"#utility.yul\":12092:12096   */\n      0x5341000000000000000000000000000000000000000000000000000000000000\n        /* \"#utility.yul\":12072:12090   */\n      0x44\n      dup3\n      add\n        /* \"#utility.yul\":12065:12097   */\n      mstore\n        /* \"#utility.yul\":12114:12132   */\n      0x64\n      add\n        /* \"src/contracts/AaveFlashLoanV3Factory.sol\":13793:13865  require(success && (data.length == 0 || abi.decode(data, (bool))), 'SA') */\n      tag_60\n        /* \"#utility.yul\":11813:12138   */\n      jump\n        /* \"src/contracts/AaveFlashLoanV3Factory.sol\":68656:69603  function uniSwapExactInputSingle(uint256 amountIn, uint256 amountOutMinimum, address token0, address token1, uint24 poolFee) internal returns (uint256 amountOut) {... */\n    tag_148:\n        /* \"src/contracts/AaveFlashLoanV3Factory.sol\":68799:68816  uint256 amountOut */\n      0x00\n        /* \"src/contracts/AaveFlashLoanV3Factory.sol\":68884:68952  TransferHelper.safeApprove(token0, address(uniSwapRouter), amountIn) */\n      tag_177\n        /* \"src/contracts/AaveFlashLoanV3Factory.sol\":68911:68917  token0 */\n      dup5\n        /* \"src/contracts/AaveFlashLoanV3Factory.sol\":68927:68940  uniSwapRouter */\n      immutable(\"0x699f39064b2157b761814ab9576fea345835b792abfaf54a5ff0c02bf6979a65\")\n        /* \"src/contracts/AaveFlashLoanV3Factory.sol\":68943:68951  amountIn */\n      dup9\n        /* \"src/contracts/AaveFlashLoanV3Factory.sol\":68884:68910  TransferHelper.safeApprove */\n      tag_93\n        /* \"src/contracts/AaveFlashLoanV3Factory.sol\":68884:68952  TransferHelper.safeApprove(token0, address(uniSwapRouter), amountIn) */\n      jump\t// in\n    tag_177:\n        /* \"src/contracts/AaveFlashLoanV3Factory.sol\":69116:69474  ISwapRouter.ExactInputSingleParams({... */\n      0x40\n      dup1\n      mload\n      0x0100\n      dup2\n      add\n      dup3\n      mstore\n      sub(shl(0xa0, 0x01), 0x01)\n      dup7\n      dup2\n      and\n      dup3\n      mstore\n      dup6\n      dup2\n      and\n      0x20\n      dup4\n      add\n      swap1\n      dup2\n      mstore\n      0xffffff\n      dup7\n      dup2\n      and\n      dup5\n      dup7\n      add\n      swap1\n      dup2\n      mstore\n        /* \"src/contracts/AaveFlashLoanV3Factory.sol\":69285:69289  this */\n      address\n        /* \"src/contracts/AaveFlashLoanV3Factory.sol\":69116:69474  ISwapRouter.ExactInputSingleParams({... */\n      0x60\n      dup7\n      add\n      swap1\n      dup2\n      mstore\n        /* \"src/contracts/AaveFlashLoanV3Factory.sol\":69318:69333  block.timestamp */\n      timestamp\n        /* \"src/contracts/AaveFlashLoanV3Factory.sol\":69116:69474  ISwapRouter.ExactInputSingleParams({... */\n      0x80\n      dup8\n      add\n      swap1\n      dup2\n      mstore\n      0xa0\n      dup8\n      add\n      dup15\n      dup2\n      mstore\n      0xc0\n      dup9\n      add\n      dup15\n      dup2\n      mstore\n      0x00\n      0xe0\n      dup11\n      add\n      swap1\n      dup2\n      mstore\n        /* \"src/contracts/AaveFlashLoanV3Factory.sol\":69558:69596  uniSwapRouter.exactInputSingle(params) */\n      swap10\n      mload\n      0x414bf38900000000000000000000000000000000000000000000000000000000\n      dup2\n      mstore\n        /* \"#utility.yul\":12451:12464   */\n      dup10\n      mload\n        /* \"#utility.yul\":12447:12469   */\n      dup10\n      and\n        /* \"src/contracts/AaveFlashLoanV3Factory.sol\":69558:69596  uniSwapRouter.exactInputSingle(params) */\n      0x04\n      dup3\n      add\n        /* \"#utility.yul\":12429:12470   */\n      mstore\n        /* \"#utility.yul\":12512:12536   */\n      swap7\n      mload\n        /* \"#utility.yul\":12508:12541   */\n      dup9\n      and\n        /* \"#utility.yul\":12486:12506   */\n      0x24\n      dup9\n      add\n        /* \"#utility.yul\":12479:12542   */\n      mstore\n        /* \"#utility.yul\":12584:12608   */\n      swap4\n      mload\n        /* \"#utility.yul\":12580:12619   */\n      swap1\n      swap5\n      and\n        /* \"#utility.yul\":12558:12578   */\n      0x44\n      dup7\n      add\n        /* \"#utility.yul\":12551:12620   */\n      mstore\n        /* \"#utility.yul\":12662:12686   */\n      swap1\n      mload\n        /* \"#utility.yul\":12658:12691   */\n      dup6\n      and\n        /* \"#utility.yul\":12636:12656   */\n      0x64\n      dup6\n      add\n        /* \"#utility.yul\":12629:12692   */\n      mstore\n        /* \"#utility.yul\":12730:12754   */\n      mload\n        /* \"#utility.yul\":12708:12728   */\n      0x84\n      dup5\n      add\n        /* \"#utility.yul\":12701:12755   */\n      mstore\n        /* \"#utility.yul\":12793:12817   */\n      swap1\n      mload\n        /* \"#utility.yul\":12771:12791   */\n      0xa4\n      dup4\n      add\n        /* \"#utility.yul\":12764:12818   */\n      mstore\n        /* \"#utility.yul\":12856:12880   */\n      mload\n        /* \"#utility.yul\":12834:12854   */\n      0xc4\n      dup3\n      add\n        /* \"#utility.yul\":12827:12881   */\n      mstore\n        /* \"#utility.yul\":12923:12947   */\n      swap3\n      mload\n        /* \"#utility.yul\":12919:12952   */\n      dup2\n      and\n        /* \"#utility.yul\":12897:12917   */\n      0xe4\n      dup5\n      add\n        /* \"#utility.yul\":12890:12953   */\n      mstore\n        /* \"src/contracts/AaveFlashLoanV3Factory.sol\":69116:69474  ISwapRouter.ExactInputSingleParams({... */\n      swap1\n      swap2\n        /* \"src/contracts/AaveFlashLoanV3Factory.sol\":69558:69571  uniSwapRouter */\n      immutable(\"0x699f39064b2157b761814ab9576fea345835b792abfaf54a5ff0c02bf6979a65\")\n        /* \"src/contracts/AaveFlashLoanV3Factory.sol\":69558:69588  uniSwapRouter.exactInputSingle */\n      swap1\n      swap2\n      and\n      swap1\n      0x414bf389\n      swap1\n        /* \"#utility.yul\":12340:12359   */\n      0x0104\n      add\n        /* \"src/contracts/AaveFlashLoanV3Factory.sol\":69558:69596  uniSwapRouter.exactInputSingle(params) */\n      0x20\n      mload(0x40)\n      dup1\n      dup4\n      sub\n      dup2\n      0x00\n      dup8\n      gas\n      call\n      iszero\n      dup1\n      iszero\n      tag_181\n      jumpi\n      returndatasize\n      0x00\n      dup1\n      returndatacopy\n      revert(0x00, returndatasize)\n    tag_181:\n      pop\n      pop\n      pop\n      pop\n      mload(0x40)\n      returndatasize\n      not(0x1f)\n      0x1f\n      dup3\n      add\n      and\n      dup3\n      add\n      dup1\n      0x40\n      mstore\n      pop\n      dup2\n      add\n      swap1\n      tag_182\n      swap2\n      swap1\n      tag_58\n      jump\t// in\n    tag_182:\n        /* \"src/contracts/AaveFlashLoanV3Factory.sol\":69546:69596  amountOut = uniSwapRouter.exactInputSingle(params) */\n      swap8\n        /* \"src/contracts/AaveFlashLoanV3Factory.sol\":68656:69603  function uniSwapExactInputSingle(uint256 amountIn, uint256 amountOutMinimum, address token0, address token1, uint24 poolFee) internal returns (uint256 amountOut) {... */\n      swap7\n      pop\n      pop\n      pop\n      pop\n      pop\n      pop\n      pop\n      jump\t// out\n        /* \"src/contracts/AaveFlashLoanV3Factory.sol\":69670:70137  function sushiSwapExactInputSingle(uint256 amountIn, uint256 amountOutMin, address[] memory path, uint256 deadline) internal returns (uint256[] memory amountOut) {... */\n    tag_154:\n        /* \"src/contracts/AaveFlashLoanV3Factory.sol\":69804:69830  uint256[] memory amountOut */\n      0x60\n        /* \"src/contracts/AaveFlashLoanV3Factory.sol\":69888:69955  TransferHelper.safeApprove(path[0], address(sushiRouter), amountIn) */\n      tag_184\n        /* \"src/contracts/AaveFlashLoanV3Factory.sol\":69915:69919  path */\n      dup4\n        /* \"src/contracts/AaveFlashLoanV3Factory.sol\":69920:69921  0 */\n      0x00\n        /* \"src/contracts/AaveFlashLoanV3Factory.sol\":69915:69922  path[0] */\n      dup2\n      mload\n      dup2\n      lt\n      tag_186\n      jumpi\n      tag_186\n      tag_84\n      jump\t// in\n    tag_186:\n      0x20\n      mul\n      0x20\n      add\n      add\n      mload\n        /* \"src/contracts/AaveFlashLoanV3Factory.sol\":69932:69943  sushiRouter */\n      immutable(\"0x2eb9a99718a5ddb41634aa3a127c1821b30a0e7db3d87b6203b71d7595223311\")\n        /* \"src/contracts/AaveFlashLoanV3Factory.sol\":69946:69954  amountIn */\n      dup8\n        /* \"src/contracts/AaveFlashLoanV3Factory.sol\":69888:69914  TransferHelper.safeApprove */\n      tag_93\n        /* \"src/contracts/AaveFlashLoanV3Factory.sol\":69888:69955  TransferHelper.safeApprove(path[0], address(sushiRouter), amountIn) */\n      jump\t// in\n    tag_184:\n        /* \"src/contracts/AaveFlashLoanV3Factory.sol\":70039:70130  sushiRouter.swapExactTokensForTokens(amountIn, amountOutMin, path, address(this), deadline) */\n      mload(0x40)\n      0x38ed173900000000000000000000000000000000000000000000000000000000\n      dup2\n      mstore\n      sub(shl(0xa0, 0x01), 0x01)\n        /* \"src/contracts/AaveFlashLoanV3Factory.sol\":70039:70050  sushiRouter */\n      immutable(\"0x2eb9a99718a5ddb41634aa3a127c1821b30a0e7db3d87b6203b71d7595223311\")\n        /* \"src/contracts/AaveFlashLoanV3Factory.sol\":70039:70075  sushiRouter.swapExactTokensForTokens */\n      and\n      swap1\n      0x38ed1739\n      swap1\n        /* \"src/contracts/AaveFlashLoanV3Factory.sol\":70039:70130  sushiRouter.swapExactTokensForTokens(amountIn, amountOutMin, path, address(this), deadline) */\n      tag_187\n      swap1\n        /* \"src/contracts/AaveFlashLoanV3Factory.sol\":70076:70084  amountIn */\n      dup9\n      swap1\n        /* \"src/contracts/AaveFlashLoanV3Factory.sol\":70086:70098  amountOutMin */\n      dup9\n      swap1\n        /* \"src/contracts/AaveFlashLoanV3Factory.sol\":70100:70104  path */\n      dup9\n      swap1\n        /* \"src/contracts/AaveFlashLoanV3Factory.sol\":70114:70118  this */\n      address\n      swap1\n        /* \"src/contracts/AaveFlashLoanV3Factory.sol\":70121:70129  deadline */\n      dup10\n      swap1\n        /* \"src/contracts/AaveFlashLoanV3Factory.sol\":70039:70130  sushiRouter.swapExactTokensForTokens(amountIn, amountOutMin, path, address(this), deadline) */\n      0x04\n      add\n      tag_188\n      jump\t// in\n    tag_187:\n      0x00\n      mload(0x40)\n      dup1\n      dup4\n      sub\n      dup2\n      0x00\n      dup8\n      gas\n      call\n      iszero\n      dup1\n      iszero\n      tag_190\n      jumpi\n      returndatasize\n      0x00\n      dup1\n      returndatacopy\n      revert(0x00, returndatasize)\n    tag_190:\n      pop\n      pop\n      pop\n      pop\n      mload(0x40)\n      returndatasize\n      0x00\n      dup3\n      returndatacopy\n      0x1f\n      returndatasize\n      swap1\n      dup2\n      add\n      not(0x1f)\n      and\n      dup3\n      add\n      0x40\n      mstore\n      tag_191\n      swap2\n      swap1\n      dup2\n      add\n      swap1\n      tag_192\n      jump\t// in\n    tag_191:\n        /* \"src/contracts/AaveFlashLoanV3Factory.sol\":70027:70130  amountOut = sushiRouter.swapExactTokensForTokens(amountIn, amountOutMin, path, address(this), deadline) */\n      swap6\n        /* \"src/contracts/AaveFlashLoanV3Factory.sol\":69670:70137  function sushiSwapExactInputSingle(uint256 amountIn, uint256 amountOutMin, address[] memory path, uint256 deadline) internal returns (uint256[] memory amountOut) {... */\n      swap5\n      pop\n      pop\n      pop\n      pop\n      pop\n      jump\t// out\n        /* \"#utility.yul\":276:430   */\n    tag_193:\n      sub(shl(0xa0, 0x01), 0x01)\n        /* \"#utility.yul\":355:360   */\n      dup2\n        /* \"#utility.yul\":351:405   */\n      and\n        /* \"#utility.yul\":344:349   */\n      dup2\n        /* \"#utility.yul\":341:406   */\n      eq\n        /* \"#utility.yul\":331:424   */\n      tag_72\n      jumpi\n        /* \"#utility.yul\":420:421   */\n      0x00\n        /* \"#utility.yul\":417:418   */\n      dup1\n        /* \"#utility.yul\":410:422   */\n      revert\n        /* \"#utility.yul\":435:682   */\n    tag_19:\n        /* \"#utility.yul\":494:500   */\n      0x00\n        /* \"#utility.yul\":547:549   */\n      0x20\n        /* \"#utility.yul\":535:544   */\n      dup3\n        /* \"#utility.yul\":526:533   */\n      dup5\n        /* \"#utility.yul\":522:545   */\n      sub\n        /* \"#utility.yul\":518:550   */\n      slt\n        /* \"#utility.yul\":515:567   */\n      iszero\n      tag_206\n      jumpi\n        /* \"#utility.yul\":563:564   */\n      0x00\n        /* \"#utility.yul\":560:561   */\n      dup1\n        /* \"#utility.yul\":553:565   */\n      revert\n        /* \"#utility.yul\":515:567   */\n    tag_206:\n        /* \"#utility.yul\":602:611   */\n      dup2\n        /* \"#utility.yul\":589:612   */\n      calldataload\n        /* \"#utility.yul\":621:652   */\n      tag_207\n        /* \"#utility.yul\":646:651   */\n      dup2\n        /* \"#utility.yul\":621:652   */\n      tag_193\n      jump\t// in\n    tag_207:\n        /* \"#utility.yul\":671:676   */\n      swap4\n        /* \"#utility.yul\":435:682   */\n      swap3\n      pop\n      pop\n      pop\n      jump\t// out\n        /* \"#utility.yul\":1345:1712   */\n    tag_194:\n        /* \"#utility.yul\":1408:1416   */\n      0x00\n        /* \"#utility.yul\":1418:1424   */\n      dup1\n        /* \"#utility.yul\":1472:1475   */\n      dup4\n        /* \"#utility.yul\":1465:1469   */\n      0x1f\n        /* \"#utility.yul\":1457:1463   */\n      dup5\n        /* \"#utility.yul\":1453:1470   */\n      add\n        /* \"#utility.yul\":1449:1476   */\n      slt\n        /* \"#utility.yul\":1439:1494   */\n      tag_212\n      jumpi\n        /* \"#utility.yul\":1490:1491   */\n      0x00\n        /* \"#utility.yul\":1487:1488   */\n      dup1\n        /* \"#utility.yul\":1480:1492   */\n      revert\n        /* \"#utility.yul\":1439:1494   */\n    tag_212:\n      pop\n        /* \"#utility.yul\":1513:1533   */\n      dup2\n      calldataload\n        /* \"#utility.yul\":1556:1574   */\n      0xffffffffffffffff\n        /* \"#utility.yul\":1545:1575   */\n      dup2\n      gt\n        /* \"#utility.yul\":1542:1592   */\n      iszero\n      tag_213\n      jumpi\n        /* \"#utility.yul\":1588:1589   */\n      0x00\n        /* \"#utility.yul\":1585:1586   */\n      dup1\n        /* \"#utility.yul\":1578:1590   */\n      revert\n        /* \"#utility.yul\":1542:1592   */\n    tag_213:\n        /* \"#utility.yul\":1625:1629   */\n      0x20\n        /* \"#utility.yul\":1617:1623   */\n      dup4\n        /* \"#utility.yul\":1613:1630   */\n      add\n        /* \"#utility.yul\":1601:1630   */\n      swap2\n      pop\n        /* \"#utility.yul\":1685:1688   */\n      dup4\n        /* \"#utility.yul\":1678:1682   */\n      0x20\n        /* \"#utility.yul\":1668:1674   */\n      dup3\n        /* \"#utility.yul\":1665:1666   */\n      0x05\n        /* \"#utility.yul\":1661:1675   */\n      shl\n        /* \"#utility.yul\":1653:1659   */\n      dup6\n        /* \"#utility.yul\":1649:1676   */\n      add\n        /* \"#utility.yul\":1645:1683   */\n      add\n        /* \"#utility.yul\":1642:1689   */\n      gt\n        /* \"#utility.yul\":1639:1706   */\n      iszero\n      tag_214\n      jumpi\n        /* \"#utility.yul\":1702:1703   */\n      0x00\n        /* \"#utility.yul\":1699:1700   */\n      dup1\n        /* \"#utility.yul\":1692:1704   */\n      revert\n        /* \"#utility.yul\":1639:1706   */\n    tag_214:\n        /* \"#utility.yul\":1345:1712   */\n      swap3\n      pop\n      swap3\n      swap1\n      pop\n      jump\t// out\n        /* \"#utility.yul\":1717:3390   */\n    tag_38:\n        /* \"#utility.yul\":1904:1910   */\n      0x00\n        /* \"#utility.yul\":1912:1918   */\n      dup1\n        /* \"#utility.yul\":1920:1926   */\n      0x00\n        /* \"#utility.yul\":1928:1934   */\n      dup1\n        /* \"#utility.yul\":1936:1942   */\n      0x00\n        /* \"#utility.yul\":1944:1950   */\n      dup1\n        /* \"#utility.yul\":1952:1958   */\n      0x00\n        /* \"#utility.yul\":1960:1966   */\n      dup1\n        /* \"#utility.yul\":1968:1974   */\n      0x00\n        /* \"#utility.yul\":2021:2024   */\n      0xa0\n        /* \"#utility.yul\":2009:2018   */\n      dup11\n        /* \"#utility.yul\":2000:2007   */\n      dup13\n        /* \"#utility.yul\":1996:2019   */\n      sub\n        /* \"#utility.yul\":1992:2025   */\n      slt\n        /* \"#utility.yul\":1989:2042   */\n      iszero\n      tag_216\n      jumpi\n        /* \"#utility.yul\":2038:2039   */\n      0x00\n        /* \"#utility.yul\":2035:2036   */\n      dup1\n        /* \"#utility.yul\":2028:2040   */\n      revert\n        /* \"#utility.yul\":1989:2042   */\n    tag_216:\n        /* \"#utility.yul\":2078:2087   */\n      dup10\n        /* \"#utility.yul\":2065:2088   */\n      calldataload\n        /* \"#utility.yul\":2107:2125   */\n      0xffffffffffffffff\n        /* \"#utility.yul\":2148:2150   */\n      dup1\n        /* \"#utility.yul\":2140:2146   */\n      dup3\n        /* \"#utility.yul\":2137:2151   */\n      gt\n        /* \"#utility.yul\":2134:2168   */\n      iszero\n      tag_217\n      jumpi\n        /* \"#utility.yul\":2164:2165   */\n      0x00\n        /* \"#utility.yul\":2161:2162   */\n      dup1\n        /* \"#utility.yul\":2154:2166   */\n      revert\n        /* \"#utility.yul\":2134:2168   */\n    tag_217:\n        /* \"#utility.yul\":2203:2273   */\n      tag_218\n        /* \"#utility.yul\":2265:2272   */\n      dup14\n        /* \"#utility.yul\":2256:2262   */\n      dup4\n        /* \"#utility.yul\":2245:2254   */\n      dup15\n        /* \"#utility.yul\":2241:2263   */\n      add\n        /* \"#utility.yul\":2203:2273   */\n      tag_194\n      jump\t// in\n    tag_218:\n        /* \"#utility.yul\":2292:2300   */\n      swap1\n      swap12\n      pop\n        /* \"#utility.yul\":2177:2273   */\n      swap10\n      pop\n        /* \"#utility.yul\":2380:2382   */\n      0x20\n        /* \"#utility.yul\":2365:2383   */\n      dup13\n      add\n        /* \"#utility.yul\":2352:2384   */\n      calldataload\n      swap2\n      pop\n        /* \"#utility.yul\":2396:2412   */\n      dup1\n      dup3\n      gt\n        /* \"#utility.yul\":2393:2429   */\n      iszero\n      tag_219\n      jumpi\n        /* \"#utility.yul\":2425:2426   */\n      0x00\n        /* \"#utility.yul\":2422:2423   */\n      dup1\n        /* \"#utility.yul\":2415:2427   */\n      revert\n        /* \"#utility.yul\":2393:2429   */\n    tag_219:\n        /* \"#utility.yul\":2464:2536   */\n      tag_220\n        /* \"#utility.yul\":2528:2535   */\n      dup14\n        /* \"#utility.yul\":2517:2525   */\n      dup4\n        /* \"#utility.yul\":2506:2515   */\n      dup15\n        /* \"#utility.yul\":2502:2526   */\n      add\n        /* \"#utility.yul\":2464:2536   */\n      tag_194\n      jump\t// in\n    tag_220:\n        /* \"#utility.yul\":2555:2563   */\n      swap1\n      swap10\n      pop\n        /* \"#utility.yul\":2438:2536   */\n      swap8\n      pop\n        /* \"#utility.yul\":2643:2645   */\n      0x40\n        /* \"#utility.yul\":2628:2646   */\n      dup13\n      add\n        /* \"#utility.yul\":2615:2647   */\n      calldataload\n      swap2\n      pop\n        /* \"#utility.yul\":2659:2675   */\n      dup1\n      dup3\n      gt\n        /* \"#utility.yul\":2656:2692   */\n      iszero\n      tag_221\n      jumpi\n        /* \"#utility.yul\":2688:2689   */\n      0x00\n        /* \"#utility.yul\":2685:2686   */\n      dup1\n        /* \"#utility.yul\":2678:2690   */\n      revert\n        /* \"#utility.yul\":2656:2692   */\n    tag_221:\n        /* \"#utility.yul\":2727:2799   */\n      tag_222\n        /* \"#utility.yul\":2791:2798   */\n      dup14\n        /* \"#utility.yul\":2780:2788   */\n      dup4\n        /* \"#utility.yul\":2769:2778   */\n      dup15\n        /* \"#utility.yul\":2765:2789   */\n      add\n        /* \"#utility.yul\":2727:2799   */\n      tag_194\n      jump\t// in\n    tag_222:\n        /* \"#utility.yul\":2818:2826   */\n      swap1\n      swap8\n      pop\n        /* \"#utility.yul\":2701:2799   */\n      swap6\n      pop\n        /* \"#utility.yul\":2903:2905   */\n      0x60\n        /* \"#utility.yul\":2888:2906   */\n      dup13\n      add\n        /* \"#utility.yul\":2875:2907   */\n      calldataload\n      swap2\n      pop\n        /* \"#utility.yul\":2916:2947   */\n      tag_223\n        /* \"#utility.yul\":2875:2907   */\n      dup3\n        /* \"#utility.yul\":2916:2947   */\n      tag_193\n      jump\t// in\n    tag_223:\n        /* \"#utility.yul\":2966:2971   */\n      swap1\n      swap4\n      pop\n        /* \"#utility.yul\":3024:3027   */\n      0x80\n        /* \"#utility.yul\":3009:3028   */\n      dup12\n      add\n        /* \"#utility.yul\":2996:3029   */\n      calldataload\n      swap1\n        /* \"#utility.yul\":3041:3057   */\n      dup1\n      dup3\n      gt\n        /* \"#utility.yul\":3038:3074   */\n      iszero\n      tag_224\n      jumpi\n        /* \"#utility.yul\":3070:3071   */\n      0x00\n        /* \"#utility.yul\":3067:3068   */\n      dup1\n        /* \"#utility.yul\":3060:3072   */\n      revert\n        /* \"#utility.yul\":3038:3074   */\n    tag_224:\n        /* \"#utility.yul\":3108:3116   */\n      dup2\n        /* \"#utility.yul\":3097:3106   */\n      dup13\n        /* \"#utility.yul\":3093:3117   */\n      add\n        /* \"#utility.yul\":3083:3117   */\n      swap2\n      pop\n        /* \"#utility.yul\":3155:3162   */\n      dup13\n        /* \"#utility.yul\":3148:3152   */\n      0x1f\n        /* \"#utility.yul\":3144:3146   */\n      dup4\n        /* \"#utility.yul\":3140:3153   */\n      add\n        /* \"#utility.yul\":3136:3163   */\n      slt\n        /* \"#utility.yul\":3126:3181   */\n      tag_225\n      jumpi\n        /* \"#utility.yul\":3177:3178   */\n      0x00\n        /* \"#utility.yul\":3174:3175   */\n      dup1\n        /* \"#utility.yul\":3167:3179   */\n      revert\n        /* \"#utility.yul\":3126:3181   */\n    tag_225:\n        /* \"#utility.yul\":3217:3219   */\n      dup2\n        /* \"#utility.yul\":3204:3220   */\n      calldataload\n        /* \"#utility.yul\":3243:3245   */\n      dup2\n        /* \"#utility.yul\":3235:3241   */\n      dup2\n        /* \"#utility.yul\":3232:3246   */\n      gt\n        /* \"#utility.yul\":3229:3263   */\n      iszero\n      tag_226\n      jumpi\n        /* \"#utility.yul\":3259:3260   */\n      0x00\n        /* \"#utility.yul\":3256:3257   */\n      dup1\n        /* \"#utility.yul\":3249:3261   */\n      revert\n        /* \"#utility.yul\":3229:3263   */\n    tag_226:\n        /* \"#utility.yul\":3304:3311   */\n      dup14\n        /* \"#utility.yul\":3299:3301   */\n      0x20\n        /* \"#utility.yul\":3290:3296   */\n      dup3\n        /* \"#utility.yul\":3286:3288   */\n      dup6\n        /* \"#utility.yul\":3282:3297   */\n      add\n        /* \"#utility.yul\":3278:3302   */\n      add\n        /* \"#utility.yul\":3275:3312   */\n      gt\n        /* \"#utility.yul\":3272:3329   */\n      iszero\n      tag_227\n      jumpi\n        /* \"#utility.yul\":3325:3326   */\n      0x00\n        /* \"#utility.yul\":3322:3323   */\n      dup1\n        /* \"#utility.yul\":3315:3327   */\n      revert\n        /* \"#utility.yul\":3272:3329   */\n    tag_227:\n        /* \"#utility.yul\":3356:3358   */\n      0x20\n        /* \"#utility.yul\":3352:3354   */\n      dup4\n        /* \"#utility.yul\":3348:3359   */\n      add\n        /* \"#utility.yul\":3338:3359   */\n      swap5\n      pop\n        /* \"#utility.yul\":3378:3384   */\n      dup1\n        /* \"#utility.yul\":3368:3384   */\n      swap4\n      pop\n      pop\n      pop\n      pop\n        /* \"#utility.yul\":1717:3390   */\n      swap3\n      swap6\n      swap9\n      pop\n      swap3\n      swap6\n      swap9\n      pop\n      swap3\n      swap6\n      swap9\n      jump\t// out\n        /* \"#utility.yul\":3587:3743   */\n    tag_195:\n        /* \"#utility.yul\":3653:3673   */\n      dup1\n      calldataload\n        /* \"#utility.yul\":3713:3717   */\n      0xff\n        /* \"#utility.yul\":3702:3718   */\n      dup2\n      and\n        /* \"#utility.yul\":3692:3719   */\n      dup2\n      eq\n        /* \"#utility.yul\":3682:3737   */\n      tag_62\n      jumpi\n        /* \"#utility.yul\":3733:3734   */\n      0x00\n        /* \"#utility.yul\":3730:3731   */\n      dup1\n        /* \"#utility.yul\":3723:3735   */\n      revert\n        /* \"#utility.yul\":3748:3909   */\n    tag_196:\n        /* \"#utility.yul\":3815:3835   */\n      dup1\n      calldataload\n        /* \"#utility.yul\":3875:3883   */\n      0xffffff\n        /* \"#utility.yul\":3864:3884   */\n      dup2\n      and\n        /* \"#utility.yul\":3854:3885   */\n      dup2\n      eq\n        /* \"#utility.yul\":3844:3903   */\n      tag_62\n      jumpi\n        /* \"#utility.yul\":3899:3900   */\n      0x00\n        /* \"#utility.yul\":3896:3897   */\n      dup1\n        /* \"#utility.yul\":3889:3901   */\n      revert\n        /* \"#utility.yul\":3914:4652   */\n    tag_45:\n        /* \"#utility.yul\":4024:4030   */\n      0x00\n        /* \"#utility.yul\":4032:4038   */\n      dup1\n        /* \"#utility.yul\":4040:4046   */\n      0x00\n        /* \"#utility.yul\":4048:4054   */\n      dup1\n        /* \"#utility.yul\":4056:4062   */\n      0x00\n        /* \"#utility.yul\":4064:4070   */\n      dup1\n        /* \"#utility.yul\":4072:4078   */\n      0x00\n        /* \"#utility.yul\":4125:4128   */\n      0xe0\n        /* \"#utility.yul\":4113:4122   */\n      dup9\n        /* \"#utility.yul\":4104:4111   */\n      dup11\n        /* \"#utility.yul\":4100:4123   */\n      sub\n        /* \"#utility.yul\":4096:4129   */\n      slt\n        /* \"#utility.yul\":4093:4146   */\n      iszero\n      tag_234\n      jumpi\n        /* \"#utility.yul\":4142:4143   */\n      0x00\n        /* \"#utility.yul\":4139:4140   */\n      dup1\n        /* \"#utility.yul\":4132:4144   */\n      revert\n        /* \"#utility.yul\":4093:4146   */\n    tag_234:\n        /* \"#utility.yul\":4181:4190   */\n      dup8\n        /* \"#utility.yul\":4168:4191   */\n      calldataload\n        /* \"#utility.yul\":4200:4231   */\n      tag_235\n        /* \"#utility.yul\":4225:4230   */\n      dup2\n        /* \"#utility.yul\":4200:4231   */\n      tag_193\n      jump\t// in\n    tag_235:\n        /* \"#utility.yul\":4250:4255   */\n      swap7\n      pop\n        /* \"#utility.yul\":4307:4309   */\n      0x20\n        /* \"#utility.yul\":4292:4310   */\n      dup9\n      add\n        /* \"#utility.yul\":4279:4311   */\n      calldataload\n        /* \"#utility.yul\":4320:4353   */\n      tag_236\n        /* \"#utility.yul\":4279:4311   */\n      dup2\n        /* \"#utility.yul\":4320:4353   */\n      tag_193\n      jump\t// in\n    tag_236:\n        /* \"#utility.yul\":4372:4379   */\n      swap6\n      pop\n        /* \"#utility.yul\":4398:4434   */\n      tag_237\n        /* \"#utility.yul\":4430:4432   */\n      0x40\n        /* \"#utility.yul\":4415:4433   */\n      dup10\n      add\n        /* \"#utility.yul\":4398:4434   */\n      tag_195\n      jump\t// in\n    tag_237:\n        /* \"#utility.yul\":4388:4434   */\n      swap5\n      pop\n        /* \"#utility.yul\":4453:4490   */\n      tag_238\n        /* \"#utility.yul\":4486:4488   */\n      0x60\n        /* \"#utility.yul\":4475:4484   */\n      dup10\n        /* \"#utility.yul\":4471:4489   */\n      add\n        /* \"#utility.yul\":4453:4490   */\n      tag_196\n      jump\t// in\n    tag_238:\n        /* \"#utility.yul\":3914:4652   */\n      swap7\n      swap10\n      swap6\n      swap9\n      pop\n      swap4\n      swap7\n        /* \"#utility.yul\":4537:4540   */\n      0x80\n        /* \"#utility.yul\":4522:4541   */\n      dup2\n      add\n        /* \"#utility.yul\":4509:4542   */\n      calldataload\n      swap6\n        /* \"#utility.yul\":4589:4592   */\n      0xa0\n        /* \"#utility.yul\":4574:4593   */\n      dup3\n      add\n        /* \"#utility.yul\":4561:4594   */\n      calldataload\n      swap6\n      pop\n        /* \"#utility.yul\":4641:4644   */\n      0xc0\n        /* \"#utility.yul\":4626:4645   */\n      swap1\n      swap2\n      add\n        /* \"#utility.yul\":4613:4646   */\n      calldataload\n      swap4\n      pop\n        /* \"#utility.yul\":3914:4652   */\n      swap2\n      pop\n      pop\n      jump\t// out\n        /* \"#utility.yul\":4657:4841   */\n    tag_58:\n        /* \"#utility.yul\":4727:4733   */\n      0x00\n        /* \"#utility.yul\":4780:4782   */\n      0x20\n        /* \"#utility.yul\":4768:4777   */\n      dup3\n        /* \"#utility.yul\":4759:4766   */\n      dup5\n        /* \"#utility.yul\":4755:4778   */\n      sub\n        /* \"#utility.yul\":4751:4783   */\n      slt\n        /* \"#utility.yul\":4748:4800   */\n      iszero\n      tag_240\n      jumpi\n        /* \"#utility.yul\":4796:4797   */\n      0x00\n        /* \"#utility.yul\":4793:4794   */\n      dup1\n        /* \"#utility.yul\":4786:4798   */\n      revert\n        /* \"#utility.yul\":4748:4800   */\n    tag_240:\n      pop\n        /* \"#utility.yul\":4819:4835   */\n      mload\n      swap2\n        /* \"#utility.yul\":4657:4841   */\n      swap1\n      pop\n      jump\t// out\n        /* \"#utility.yul\":5818:6002   */\n    tag_84:\n      shl(0xe0, 0x4e487b71)\n        /* \"#utility.yul\":5867:5868   */\n      0x00\n        /* \"#utility.yul\":5860:5948   */\n      mstore\n        /* \"#utility.yul\":5967:5971   */\n      0x32\n        /* \"#utility.yul\":5964:5965   */\n      0x04\n        /* \"#utility.yul\":5957:5972   */\n      mstore\n        /* \"#utility.yul\":5991:5995   */\n      0x24\n        /* \"#utility.yul\":5988:5989   */\n      0x00\n        /* \"#utility.yul\":5981:5996   */\n      revert\n        /* \"#utility.yul\":6007:6191   */\n    tag_197:\n      shl(0xe0, 0x4e487b71)\n        /* \"#utility.yul\":6056:6057   */\n      0x00\n        /* \"#utility.yul\":6049:6137   */\n      mstore\n        /* \"#utility.yul\":6156:6160   */\n      0x11\n        /* \"#utility.yul\":6153:6154   */\n      0x04\n        /* \"#utility.yul\":6146:6161   */\n      mstore\n        /* \"#utility.yul\":6180:6184   */\n      0x24\n        /* \"#utility.yul\":6177:6178   */\n      0x00\n        /* \"#utility.yul\":6170:6185   */\n      revert\n        /* \"#utility.yul\":6196:6324   */\n    tag_88:\n        /* \"#utility.yul\":6236:6239   */\n      0x00\n        /* \"#utility.yul\":6267:6268   */\n      dup3\n        /* \"#utility.yul\":6263:6269   */\n      not\n        /* \"#utility.yul\":6260:6261   */\n      dup3\n        /* \"#utility.yul\":6257:6270   */\n      gt\n        /* \"#utility.yul\":6254:6293   */\n      iszero\n      tag_248\n      jumpi\n        /* \"#utility.yul\":6273:6291   */\n      tag_248\n      tag_197\n      jump\t// in\n    tag_248:\n      pop\n        /* \"#utility.yul\":6309:6318   */\n      add\n      swap1\n        /* \"#utility.yul\":6196:6324   */\n      jump\t// out\n        /* \"#utility.yul\":6329:6464   */\n    tag_95:\n        /* \"#utility.yul\":6368:6371   */\n      0x00\n      not(0x00)\n        /* \"#utility.yul\":6389:6406   */\n      dup3\n      eq\n        /* \"#utility.yul\":6386:6429   */\n      iszero\n      tag_251\n      jumpi\n        /* \"#utility.yul\":6409:6427   */\n      tag_251\n      tag_197\n      jump\t// in\n    tag_251:\n      pop\n        /* \"#utility.yul\":6456:6457   */\n      0x01\n        /* \"#utility.yul\":6445:6458   */\n      add\n      swap1\n        /* \"#utility.yul\":6329:6464   */\n      jump\t// out\n        /* \"#utility.yul\":6469:6653   */\n    tag_101:\n      shl(0xe0, 0x4e487b71)\n        /* \"#utility.yul\":6518:6519   */\n      0x00\n        /* \"#utility.yul\":6511:6599   */\n      mstore\n        /* \"#utility.yul\":6618:6622   */\n      0x41\n        /* \"#utility.yul\":6615:6616   */\n      0x04\n        /* \"#utility.yul\":6608:6623   */\n      mstore\n        /* \"#utility.yul\":6642:6646   */\n      0x24\n        /* \"#utility.yul\":6639:6640   */\n      0x00\n        /* \"#utility.yul\":6632:6647   */\n      revert\n        /* \"#utility.yul\":7369:7853   */\n    tag_198:\n        /* \"#utility.yul\":7422:7425   */\n      0x00\n        /* \"#utility.yul\":7460:7465   */\n      dup2\n        /* \"#utility.yul\":7454:7466   */\n      mload\n        /* \"#utility.yul\":7487:7493   */\n      dup1\n        /* \"#utility.yul\":7482:7485   */\n      dup5\n        /* \"#utility.yul\":7475:7494   */\n      mstore\n        /* \"#utility.yul\":7513:7517   */\n      0x20\n        /* \"#utility.yul\":7542:7544   */\n      dup1\n        /* \"#utility.yul\":7537:7540   */\n      dup6\n        /* \"#utility.yul\":7533:7545   */\n      add\n        /* \"#utility.yul\":7526:7545   */\n      swap5\n      pop\n        /* \"#utility.yul\":7579:7581   */\n      dup1\n        /* \"#utility.yul\":7572:7577   */\n      dup5\n        /* \"#utility.yul\":7568:7582   */\n      add\n        /* \"#utility.yul\":7600:7601   */\n      0x00\n        /* \"#utility.yul\":7610:7828   */\n    tag_255:\n        /* \"#utility.yul\":7624:7630   */\n      dup4\n        /* \"#utility.yul\":7621:7622   */\n      dup2\n        /* \"#utility.yul\":7618:7631   */\n      lt\n        /* \"#utility.yul\":7610:7828   */\n      iszero\n      tag_257\n      jumpi\n        /* \"#utility.yul\":7689:7702   */\n      dup2\n      mload\n      sub(shl(0xa0, 0x01), 0x01)\n        /* \"#utility.yul\":7685:7747   */\n      and\n        /* \"#utility.yul\":7673:7748   */\n      dup8\n      mstore\n        /* \"#utility.yul\":7768:7780   */\n      swap6\n      dup3\n      add\n      swap6\n        /* \"#utility.yul\":7803:7818   */\n      swap1\n      dup3\n      add\n      swap1\n        /* \"#utility.yul\":7646:7647   */\n      0x01\n        /* \"#utility.yul\":7639:7648   */\n      add\n        /* \"#utility.yul\":7610:7828   */\n      jump(tag_255)\n    tag_257:\n      pop\n        /* \"#utility.yul\":7844:7847   */\n      swap5\n      swap6\n        /* \"#utility.yul\":7369:7853   */\n      swap5\n      pop\n      pop\n      pop\n      pop\n      pop\n      jump\t// out\n        /* \"#utility.yul\":7858:8293   */\n    tag_199:\n        /* \"#utility.yul\":7911:7914   */\n      0x00\n        /* \"#utility.yul\":7949:7954   */\n      dup2\n        /* \"#utility.yul\":7943:7955   */\n      mload\n        /* \"#utility.yul\":7976:7982   */\n      dup1\n        /* \"#utility.yul\":7971:7974   */\n      dup5\n        /* \"#utility.yul\":7964:7983   */\n      mstore\n        /* \"#utility.yul\":8002:8006   */\n      0x20\n        /* \"#utility.yul\":8031:8033   */\n      dup1\n        /* \"#utility.yul\":8026:8029   */\n      dup6\n        /* \"#utility.yul\":8022:8034   */\n      add\n        /* \"#utility.yul\":8015:8034   */\n      swap5\n      pop\n        /* \"#utility.yul\":8068:8070   */\n      dup1\n        /* \"#utility.yul\":8061:8066   */\n      dup5\n        /* \"#utility.yul\":8057:8071   */\n      add\n        /* \"#utility.yul\":8089:8090   */\n      0x00\n        /* \"#utility.yul\":8099:8268   */\n    tag_259:\n        /* \"#utility.yul\":8113:8119   */\n      dup4\n        /* \"#utility.yul\":8110:8111   */\n      dup2\n        /* \"#utility.yul\":8107:8120   */\n      lt\n        /* \"#utility.yul\":8099:8268   */\n      iszero\n      tag_257\n      jumpi\n        /* \"#utility.yul\":8174:8187   */\n      dup2\n      mload\n        /* \"#utility.yul\":8162:8188   */\n      dup8\n      mstore\n        /* \"#utility.yul\":8208:8220   */\n      swap6\n      dup3\n      add\n      swap6\n        /* \"#utility.yul\":8243:8258   */\n      swap1\n      dup3\n      add\n      swap1\n        /* \"#utility.yul\":8135:8136   */\n      0x01\n        /* \"#utility.yul\":8128:8137   */\n      add\n        /* \"#utility.yul\":8099:8268   */\n      jump(tag_259)\n        /* \"#utility.yul\":8298:8556   */\n    tag_200:\n        /* \"#utility.yul\":8370:8371   */\n      0x00\n        /* \"#utility.yul\":8380:8493   */\n    tag_263:\n        /* \"#utility.yul\":8394:8400   */\n      dup4\n        /* \"#utility.yul\":8391:8392   */\n      dup2\n        /* \"#utility.yul\":8388:8401   */\n      lt\n        /* \"#utility.yul\":8380:8493   */\n      iszero\n      tag_265\n      jumpi\n        /* \"#utility.yul\":8470:8481   */\n      dup2\n      dup2\n      add\n        /* \"#utility.yul\":8464:8482   */\n      mload\n        /* \"#utility.yul\":8451:8462   */\n      dup4\n      dup3\n      add\n        /* \"#utility.yul\":8444:8483   */\n      mstore\n        /* \"#utility.yul\":8416:8418   */\n      0x20\n        /* \"#utility.yul\":8409:8419   */\n      add\n        /* \"#utility.yul\":8380:8493   */\n      jump(tag_263)\n    tag_265:\n        /* \"#utility.yul\":8511:8517   */\n      dup4\n        /* \"#utility.yul\":8508:8509   */\n      dup2\n        /* \"#utility.yul\":8505:8518   */\n      gt\n        /* \"#utility.yul\":8502:8550   */\n      iszero\n      tag_266\n      jumpi\n        /* \"#utility.yul\":8546:8547   */\n      0x00\n        /* \"#utility.yul\":8537:8543   */\n      dup5\n        /* \"#utility.yul\":8532:8535   */\n      dup5\n        /* \"#utility.yul\":8528:8544   */\n      add\n        /* \"#utility.yul\":8521:8548   */\n      mstore\n        /* \"#utility.yul\":8502:8550   */\n    tag_266:\n      pop\n        /* \"#utility.yul\":8298:8556   */\n      pop\n      pop\n      pop\n      jump\t// out\n        /* \"#utility.yul\":8561:9856   */\n    tag_118:\n        /* \"#utility.yul\":8987:8991   */\n      0x00\n      sub(shl(0xa0, 0x01), 0x01)\n        /* \"#utility.yul\":9097:9099   */\n      dup1\n        /* \"#utility.yul\":9089:9095   */\n      dup11\n        /* \"#utility.yul\":9085:9100   */\n      and\n        /* \"#utility.yul\":9074:9083   */\n      dup4\n        /* \"#utility.yul\":9067:9101   */\n      mstore\n        /* \"#utility.yul\":9137:9140   */\n      0xe0\n        /* \"#utility.yul\":9132:9134   */\n      0x20\n        /* \"#utility.yul\":9121:9130   */\n      dup5\n        /* \"#utility.yul\":9117:9135   */\n      add\n        /* \"#utility.yul\":9110:9141   */\n      mstore\n        /* \"#utility.yul\":9164:9221   */\n      tag_268\n        /* \"#utility.yul\":9216:9219   */\n      0xe0\n        /* \"#utility.yul\":9205:9214   */\n      dup5\n        /* \"#utility.yul\":9201:9220   */\n      add\n        /* \"#utility.yul\":9193:9199   */\n      dup11\n        /* \"#utility.yul\":9164:9221   */\n      tag_198\n      jump\t// in\n    tag_268:\n        /* \"#utility.yul\":9269:9278   */\n      dup4\n        /* \"#utility.yul\":9261:9267   */\n      dup2\n        /* \"#utility.yul\":9257:9279   */\n      sub\n        /* \"#utility.yul\":9252:9254   */\n      0x40\n        /* \"#utility.yul\":9241:9250   */\n      dup6\n        /* \"#utility.yul\":9237:9255   */\n      add\n        /* \"#utility.yul\":9230:9280   */\n      mstore\n        /* \"#utility.yul\":9303:9347   */\n      tag_269\n        /* \"#utility.yul\":9340:9346   */\n      dup2\n        /* \"#utility.yul\":9332:9338   */\n      dup11\n        /* \"#utility.yul\":9303:9347   */\n      tag_199\n      jump\t// in\n    tag_269:\n        /* \"#utility.yul\":9289:9347   */\n      swap1\n      pop\n        /* \"#utility.yul\":9395:9404   */\n      dup4\n        /* \"#utility.yul\":9387:9393   */\n      dup2\n        /* \"#utility.yul\":9383:9405   */\n      sub\n        /* \"#utility.yul\":9378:9380   */\n      0x60\n        /* \"#utility.yul\":9367:9376   */\n      dup6\n        /* \"#utility.yul\":9363:9381   */\n      add\n        /* \"#utility.yul\":9356:9406   */\n      mstore\n        /* \"#utility.yul\":9429:9473   */\n      tag_270\n        /* \"#utility.yul\":9466:9472   */\n      dup2\n        /* \"#utility.yul\":9458:9464   */\n      dup10\n        /* \"#utility.yul\":9429:9473   */\n      tag_199\n      jump\t// in\n    tag_270:\n        /* \"#utility.yul\":9510:9525   */\n      swap2\n      dup8\n      and\n        /* \"#utility.yul\":9504:9507   */\n      0x80\n        /* \"#utility.yul\":9489:9508   */\n      dup6\n      add\n        /* \"#utility.yul\":9482:9526   */\n      mstore\n      pop\n        /* \"#utility.yul\":9563:9585   */\n      dup3\n      dup2\n      sub\n        /* \"#utility.yul\":9557:9560   */\n      0xa0\n        /* \"#utility.yul\":9542:9561   */\n      dup5\n      add\n        /* \"#utility.yul\":9535:9586   */\n      mstore\n        /* \"#utility.yul\":9609:9622   */\n      dup5\n      mload\n        /* \"#utility.yul\":9631:9653   */\n      dup1\n      dup3\n      mstore\n        /* \"#utility.yul\":9609:9622   */\n      swap1\n        /* \"#utility.yul\":9662:9725   */\n      tag_271\n        /* \"#utility.yul\":9609:9622   */\n      dup3\n        /* \"#utility.yul\":9713:9715   */\n      0x20\n        /* \"#utility.yul\":9701:9716   */\n      dup1\n      dup5\n      add\n      swap1\n        /* \"#utility.yul\":9684:9699   */\n      dup10\n      add\n        /* \"#utility.yul\":9662:9725   */\n      tag_200\n      jump\t// in\n    tag_271:\n        /* \"#utility.yul\":9842:9848   */\n      0xffff\n        /* \"#utility.yul\":9830:9849   */\n      swap5\n      swap1\n      swap5\n      and\n        /* \"#utility.yul\":9824:9827   */\n      0xc0\n        /* \"#utility.yul\":9809:9828   */\n      swap4\n      swap1\n      swap4\n      add\n        /* \"#utility.yul\":9802:9850   */\n      swap3\n      swap1\n      swap3\n      mstore\n      pop\n        /* \"#utility.yul\":9783:9785   */\n      0x1f\n        /* \"#utility.yul\":9762:9777   */\n      add\n      not(0x1f)\n        /* \"#utility.yul\":9758:9787   */\n      and\n        /* \"#utility.yul\":9746:9788   */\n      add\n        /* \"#utility.yul\":9790:9792   */\n      0x20\n        /* \"#utility.yul\":9742:9793   */\n      add\n      swap7\n        /* \"#utility.yul\":8561:9856   */\n      swap6\n      pop\n      pop\n      pop\n      pop\n      pop\n      pop\n      jump\t// out\n        /* \"#utility.yul\":10163:10437   */\n    tag_129:\n        /* \"#utility.yul\":10292:10295   */\n      0x00\n        /* \"#utility.yul\":10330:10336   */\n      dup3\n        /* \"#utility.yul\":10324:10337   */\n      mload\n        /* \"#utility.yul\":10346:10399   */\n      tag_274\n        /* \"#utility.yul\":10392:10398   */\n      dup2\n        /* \"#utility.yul\":10387:10390   */\n      dup5\n        /* \"#utility.yul\":10380:10384   */\n      0x20\n        /* \"#utility.yul\":10372:10378   */\n      dup8\n        /* \"#utility.yul\":10368:10385   */\n      add\n        /* \"#utility.yul\":10346:10399   */\n      tag_200\n      jump\t// in\n    tag_274:\n        /* \"#utility.yul\":10415:10431   */\n      swap2\n      swap1\n      swap2\n      add\n      swap3\n        /* \"#utility.yul\":10163:10437   */\n      swap2\n      pop\n      pop\n      jump\t// out\n        /* \"#utility.yul\":10442:10719   */\n    tag_136:\n        /* \"#utility.yul\":10509:10515   */\n      0x00\n        /* \"#utility.yul\":10562:10564   */\n      0x20\n        /* \"#utility.yul\":10550:10559   */\n      dup3\n        /* \"#utility.yul\":10541:10548   */\n      dup5\n        /* \"#utility.yul\":10537:10560   */\n      sub\n        /* \"#utility.yul\":10533:10565   */\n      slt\n        /* \"#utility.yul\":10530:10582   */\n      iszero\n      tag_276\n      jumpi\n        /* \"#utility.yul\":10578:10579   */\n      0x00\n        /* \"#utility.yul\":10575:10576   */\n      dup1\n        /* \"#utility.yul\":10568:10580   */\n      revert\n        /* \"#utility.yul\":10530:10582   */\n    tag_276:\n        /* \"#utility.yul\":10610:10619   */\n      dup2\n        /* \"#utility.yul\":10604:10620   */\n      mload\n        /* \"#utility.yul\":10663:10668   */\n      dup1\n        /* \"#utility.yul\":10656:10669   */\n      iszero\n        /* \"#utility.yul\":10649:10670   */\n      iszero\n        /* \"#utility.yul\":10642:10647   */\n      dup2\n        /* \"#utility.yul\":10639:10671   */\n      eq\n        /* \"#utility.yul\":10629:10689   */\n      tag_207\n      jumpi\n        /* \"#utility.yul\":10685:10686   */\n      0x00\n        /* \"#utility.yul\":10682:10683   */\n      dup1\n        /* \"#utility.yul\":10675:10687   */\n      revert\n        /* \"#utility.yul\":12964:13561   */\n    tag_188:\n        /* \"#utility.yul\":13255:13261   */\n      dup6\n        /* \"#utility.yul\":13244:13253   */\n      dup2\n        /* \"#utility.yul\":13237:13262   */\n      mstore\n        /* \"#utility.yul\":13298:13304   */\n      dup5\n        /* \"#utility.yul\":13293:13295   */\n      0x20\n        /* \"#utility.yul\":13282:13291   */\n      dup3\n        /* \"#utility.yul\":13278:13296   */\n      add\n        /* \"#utility.yul\":13271:13305   */\n      mstore\n        /* \"#utility.yul\":13341:13344   */\n      0xa0\n        /* \"#utility.yul\":13336:13338   */\n      0x40\n        /* \"#utility.yul\":13325:13334   */\n      dup3\n        /* \"#utility.yul\":13321:13339   */\n      add\n        /* \"#utility.yul\":13314:13345   */\n      mstore\n        /* \"#utility.yul\":13218:13222   */\n      0x00\n        /* \"#utility.yul\":13362:13419   */\n      tag_288\n        /* \"#utility.yul\":13414:13417   */\n      0xa0\n        /* \"#utility.yul\":13403:13412   */\n      dup4\n        /* \"#utility.yul\":13399:13418   */\n      add\n        /* \"#utility.yul\":13391:13397   */\n      dup7\n        /* \"#utility.yul\":13362:13419   */\n      tag_198\n      jump\t// in\n    tag_288:\n      sub(shl(0xa0, 0x01), 0x01)\n        /* \"#utility.yul\":13455:13510   */\n      swap5\n      swap1\n      swap5\n      and\n        /* \"#utility.yul\":13450:13452   */\n      0x60\n        /* \"#utility.yul\":13435:13453   */\n      dup4\n      add\n        /* \"#utility.yul\":13428:13511   */\n      mstore\n      pop\n        /* \"#utility.yul\":13542:13545   */\n      0x80\n        /* \"#utility.yul\":13527:13546   */\n      add\n        /* \"#utility.yul\":13520:13555   */\n      mstore\n        /* \"#utility.yul\":13354:13419   */\n      swap4\n        /* \"#utility.yul\":12964:13561   */\n      swap3\n      pop\n      pop\n      pop\n      jump\t// out\n        /* \"#utility.yul\":13566:14671   */\n    tag_192:\n        /* \"#utility.yul\":13661:13667   */\n      0x00\n        /* \"#utility.yul\":13692:13694   */\n      0x20\n        /* \"#utility.yul\":13735:13737   */\n      dup1\n        /* \"#utility.yul\":13723:13732   */\n      dup4\n        /* \"#utility.yul\":13714:13721   */\n      dup6\n        /* \"#utility.yul\":13710:13733   */\n      sub\n        /* \"#utility.yul\":13706:13738   */\n      slt\n        /* \"#utility.yul\":13703:13755   */\n      iszero\n      tag_290\n      jumpi\n        /* \"#utility.yul\":13751:13752   */\n      0x00\n        /* \"#utility.yul\":13748:13749   */\n      dup1\n        /* \"#utility.yul\":13741:13753   */\n      revert\n        /* \"#utility.yul\":13703:13755   */\n    tag_290:\n        /* \"#utility.yul\":13784:13793   */\n      dup3\n        /* \"#utility.yul\":13778:13794   */\n      mload\n        /* \"#utility.yul\":13813:13831   */\n      0xffffffffffffffff\n        /* \"#utility.yul\":13854:13856   */\n      dup1\n        /* \"#utility.yul\":13846:13852   */\n      dup3\n        /* \"#utility.yul\":13843:13857   */\n      gt\n        /* \"#utility.yul\":13840:13874   */\n      iszero\n      tag_291\n      jumpi\n        /* \"#utility.yul\":13870:13871   */\n      0x00\n        /* \"#utility.yul\":13867:13868   */\n      dup1\n        /* \"#utility.yul\":13860:13872   */\n      revert\n        /* \"#utility.yul\":13840:13874   */\n    tag_291:\n        /* \"#utility.yul\":13908:13914   */\n      dup2\n        /* \"#utility.yul\":13897:13906   */\n      dup6\n        /* \"#utility.yul\":13893:13915   */\n      add\n        /* \"#utility.yul\":13883:13915   */\n      swap2\n      pop\n        /* \"#utility.yul\":13953:13960   */\n      dup6\n        /* \"#utility.yul\":13946:13950   */\n      0x1f\n        /* \"#utility.yul\":13942:13944   */\n      dup4\n        /* \"#utility.yul\":13938:13951   */\n      add\n        /* \"#utility.yul\":13934:13961   */\n      slt\n        /* \"#utility.yul\":13924:13979   */\n      tag_292\n      jumpi\n        /* \"#utility.yul\":13975:13976   */\n      0x00\n        /* \"#utility.yul\":13972:13973   */\n      dup1\n        /* \"#utility.yul\":13965:13977   */\n      revert\n        /* \"#utility.yul\":13924:13979   */\n    tag_292:\n        /* \"#utility.yul\":14004:14006   */\n      dup2\n        /* \"#utility.yul\":13998:14007   */\n      mload\n        /* \"#utility.yul\":14026:14028   */\n      dup2\n        /* \"#utility.yul\":14022:14024   */\n      dup2\n        /* \"#utility.yul\":14019:14029   */\n      gt\n        /* \"#utility.yul\":14016:14052   */\n      iszero\n      tag_294\n      jumpi\n        /* \"#utility.yul\":14032:14050   */\n      tag_294\n      tag_101\n      jump\t// in\n    tag_294:\n        /* \"#utility.yul\":14078:14080   */\n      dup1\n        /* \"#utility.yul\":14075:14076   */\n      0x05\n        /* \"#utility.yul\":14071:14081   */\n      shl\n        /* \"#utility.yul\":14110:14112   */\n      0x40\n        /* \"#utility.yul\":14104:14113   */\n      mload\n        /* \"#utility.yul\":14173:14175   */\n      0x1f\n        /* \"#utility.yul\":14169:14176   */\n      not\n        /* \"#utility.yul\":14164:14166   */\n      0x3f\n        /* \"#utility.yul\":14160:14162   */\n      dup4\n        /* \"#utility.yul\":14156:14167   */\n      add\n        /* \"#utility.yul\":14152:14177   */\n      and\n        /* \"#utility.yul\":14144:14150   */\n      dup2\n        /* \"#utility.yul\":14140:14178   */\n      add\n        /* \"#utility.yul\":14228:14234   */\n      dup2\n        /* \"#utility.yul\":14216:14226   */\n      dup2\n        /* \"#utility.yul\":14213:14235   */\n      lt\n        /* \"#utility.yul\":14208:14210   */\n      dup6\n        /* \"#utility.yul\":14196:14206   */\n      dup3\n        /* \"#utility.yul\":14193:14211   */\n      gt\n        /* \"#utility.yul\":14190:14236   */\n      or\n        /* \"#utility.yul\":14187:14259   */\n      iszero\n      tag_296\n      jumpi\n        /* \"#utility.yul\":14239:14257   */\n      tag_296\n      tag_101\n      jump\t// in\n    tag_296:\n        /* \"#utility.yul\":14275:14277   */\n      0x40\n        /* \"#utility.yul\":14268:14290   */\n      mstore\n        /* \"#utility.yul\":14325:14343   */\n      swap2\n      dup3\n      mstore\n        /* \"#utility.yul\":14359:14374   */\n      dup5\n      dup3\n      add\n      swap3\n      pop\n        /* \"#utility.yul\":14401:14412   */\n      dup4\n      dup2\n      add\n        /* \"#utility.yul\":14397:14417   */\n      dup6\n      add\n      swap2\n        /* \"#utility.yul\":14429:14448   */\n      dup9\n      dup4\n      gt\n        /* \"#utility.yul\":14426:14465   */\n      iszero\n      tag_297\n      jumpi\n        /* \"#utility.yul\":14461:14462   */\n      0x00\n        /* \"#utility.yul\":14458:14459   */\n      dup1\n        /* \"#utility.yul\":14451:14463   */\n      revert\n        /* \"#utility.yul\":14426:14465   */\n    tag_297:\n        /* \"#utility.yul\":14485:14496   */\n      swap4\n      dup6\n      add\n      swap4\n        /* \"#utility.yul\":14505:14640   */\n    tag_298:\n        /* \"#utility.yul\":14521:14527   */\n      dup3\n        /* \"#utility.yul\":14516:14519   */\n      dup6\n        /* \"#utility.yul\":14513:14528   */\n      lt\n        /* \"#utility.yul\":14505:14640   */\n      iszero\n      tag_300\n      jumpi\n        /* \"#utility.yul\":14587:14597   */\n      dup5\n      mload\n        /* \"#utility.yul\":14575:14598   */\n      dup5\n      mstore\n        /* \"#utility.yul\":14538:14550   */\n      swap4\n      dup6\n      add\n      swap4\n        /* \"#utility.yul\":14618:14630   */\n      swap3\n      dup6\n      add\n      swap3\n        /* \"#utility.yul\":14505:14640   */\n      jump(tag_298)\n    tag_300:\n        /* \"#utility.yul\":14659:14665   */\n      swap9\n        /* \"#utility.yul\":13566:14671   */\n      swap8\n      pop\n      pop\n      pop\n      pop\n      pop\n      pop\n      pop\n      pop\n      jump\t// out\n\n    auxdata: 0xa2646970667358221220b487f343ed2d1047a362d23030c9bd483c66e51e2f8afe007ec49c528fa0bb8d64736f6c634300080a0033\n}\n",
				"bytecode": {
					"linkReferences": {},
					"object": "6101006040523480156200001257600080fd5b50604051620014ac380380620014ac833981016040819052620000359162000106565b83806001600160a01b03166080816001600160a01b031681525050806001600160a01b031663026b1d5f6040518163ffffffff1660e01b8152600401602060405180830381865afa1580156200008f573d6000803e3d6000fd5b505050506040513d601f19601f82011682018060405250810190620000b591906200016e565b6001600160a01b0390811660a052600080546001600160a01b031916958216959095179094555090821660c0521660e0525062000195565b6001600160a01b03811681146200010357600080fd5b50565b600080600080608085870312156200011d57600080fd5b84516200012a81620000ed565b60208601519094506200013d81620000ed565b60408601519093506200015081620000ed565b60608601519092506200016381620000ed565b939692955090935050565b6000602082840312156200018157600080fd5b81516200018e81620000ed565b9392505050565b60805160a05160c05160e0516112c2620001ea60003960008181610c870152610cdc015260008181610b050152610bea01526000818161011b0152818161043e015261060d01526000609201526112c26000f3fe60806040526004361061007b5760003560e01c8063893d20e81161004e578063893d20e81461013d578063920f5c841461015b578063c2d222071461018b578063f2fde38b146101ab57600080fd5b80630542975c146100805780633bdebbe1146100d15780633ccfd60b146100ff5780637535d24614610109575b600080fd5b34801561008c57600080fd5b506100b47f000000000000000000000000000000000000000000000000000000000000000081565b6040516001600160a01b0390911681526020015b60405180910390f35b3480156100dd57600080fd5b506100f16100ec366004610d7e565b6101cb565b6040519081526020016100c8565b6101076102fe565b005b34801561011557600080fd5b506100b47f000000000000000000000000000000000000000000000000000000000000000081565b34801561014957600080fd5b506000546001600160a01b03166100b4565b34801561016757600080fd5b5061017b610176366004610dee565b6103bb565b60405190151581526020016100c8565b34801561019757600080fd5b506101076101a6366004610f17565b610487565b3480156101b757600080fd5b506101076101c6366004610d7e565b610690565b600080546001600160a01b031633146101e357600080fd5b6040517f70a082310000000000000000000000000000000000000000000000000000000081523060048201526001600160a01b038316906370a0823190602401602060405180830381865afa158015610240573d6000803e3d6000fd5b505050506040513d601f19601f820116820180604052508101906102649190610f8a565b9050600081116102e15760405162461bcd60e51b815260206004820152603060248201527f436f6e747261637420646f6573206e6f742068617665207468652070726f766960448201527f64656420455243323020746f6b656e2e0000000000000000000000000000000060648201526084015b60405180910390fd5b6000546102f99083906001600160a01b0316836106e1565b919050565b6000546001600160a01b0316331461031557600080fd5b600080546040516001600160a01b039091169047908381818185875af1925050503d8060008114610362576040519150601f19603f3d011682016040523d82523d6000602084013e610367565b606091505b50509050806103b85760405162461bcd60e51b815260206004820152601060248201527f5769746864726177206661696c65642e0000000000000000000000000000000060448201526064016102d8565b50565b60006103c7838361082a565b60005b898110156104765760008787838181106103e6576103e6610fa3565b905060200201358a8a848181106103ff576103ff610fa3565b905060200201356104109190610fcf565b90506104638c8c8481811061042757610427610fa3565b905060200201602081019061043c9190610d7e565b7f0000000000000000000000000000000000000000000000000000000000000000836109bb565b508061046e81610fe7565b9150506103ca565b5060019a9950505050505050505050565b6000546001600160a01b0316331461049e57600080fd5b6040805160018082528183019092523091600091906020808301908036833701905050905088816000815181106104d7576104d7610fa3565b6001600160a01b039290921660209283029190910190910152604080516001808252818301909252600091816020016020820280368337019050509050858160008151811061052857610528610fa3565b602090810291909101015260408051600180825281830190925260009181602001602082028036833701905050905060008160008151811061056c5761056c610fa3565b602090810291909101810191909152604080516001600160a01b03808f1693820193909352918c169082015260ff8a16606082015262ffffff8916608082015260a0810188905260c0810187905260e0810186905230906000906101000160408051601f19818403018152908290527fab9c4b5d00000000000000000000000000000000000000000000000000000000825291506000906001600160a01b037f0000000000000000000000000000000000000000000000000000000000000000169063ab9c4b5d9061064e908a908a908a908a908a908a908a906004016110bc565b600060405180830381600087803b15801561066857600080fd5b505af115801561067c573d6000803e3d6000fd5b505050505050505050505050505050505050565b6000546001600160a01b031633146106a757600080fd5b600080547fffffffffffffffffffffffff0000000000000000000000000000000000000000166001600160a01b0392909216919091179055565b604080516001600160a01b038481166024830152604480830185905283518084039091018152606490920183526020820180517bffffffffffffffffffffffffffffffffffffffffffffffffffffffff167fa9059cbb00000000000000000000000000000000000000000000000000000000179052915160009283929087169161076b9190611154565b6000604051808303816000865af19150503d80600081146107a8576040519150601f19603f3d011682016040523d82523d6000602084013e6107ad565b606091505b50915091508180156107d75750805115806107d75750808060200190518101906107d79190611170565b6108235760405162461bcd60e51b815260206004820152600260248201527f535400000000000000000000000000000000000000000000000000000000000060448201526064016102d8565b5050505050565b600080808080808061083e888a018a610f17565b604080516002808252606082018352989f50969d50949b5092995090975095509350600092906020830190803683370190505090508560ff166001141561090c57600061088e85858b8b8a610afd565b905087826000815181106108a4576108a4610fa3565b60200260200101906001600160a01b031690816001600160a01b03168152505088826001815181106108d8576108d8610fa3565b60200260200101906001600160a01b031690816001600160a01b0316815250506109058160008486610c65565b50506109af565b878160008151811061092057610920610fa3565b60200260200101906001600160a01b031690816001600160a01b031681525050868160018151811061095457610954610fa3565b60200260200101906001600160a01b031690816001600160a01b031681525050600061098285858486610c65565b90506109ac8160018151811061099a5761099a610fa3565b602002602001015160008a8c8a610afd565b50505b50505050505050505050565b604080516001600160a01b038481166024830152604480830185905283518084039091018152606490920183526020820180517bffffffffffffffffffffffffffffffffffffffffffffffffffffffff167f095ea7b3000000000000000000000000000000000000000000000000000000001790529151600092839290871691610a459190611154565b6000604051808303816000865af19150503d8060008114610a82576040519150601f19603f3d011682016040523d82523d6000602084013e610a87565b606091505b5091509150818015610ab1575080511580610ab1575080806020019051810190610ab19190611170565b6108235760405162461bcd60e51b815260206004820152600260248201527f534100000000000000000000000000000000000000000000000000000000000060448201526064016102d8565b6000610b2a847f0000000000000000000000000000000000000000000000000000000000000000886109bb565b60408051610100810182526001600160a01b0386811682528581166020830190815262ffffff8681168486019081523060608601908152426080870190815260a087018e815260c088018e8152600060e08a0190815299517f414bf38900000000000000000000000000000000000000000000000000000000815289518916600482015296518816602488015293519094166044860152905185166064850152516084840152905160a48301525160c48201529251811660e484015290917f00000000000000000000000000000000000000000000000000000000000000009091169063414bf38990610104016020604051808303816000875af1158015610c36573d6000803e3d6000fd5b505050506040513d601f19601f82011682018060405250810190610c5a9190610f8a565b979650505050505050565b6060610cac83600081518110610c7d57610c7d610fa3565b60200260200101517f0000000000000000000000000000000000000000000000000000000000000000876109bb565b6040517f38ed17390000000000000000000000000000000000000000000000000000000081526001600160a01b037f000000000000000000000000000000000000000000000000000000000000000016906338ed173990610d199088908890889030908990600401611192565b6000604051808303816000875af1158015610d38573d6000803e3d6000fd5b505050506040513d6000823e601f3d908101601f19168201604052610d6091908101906111ce565b95945050505050565b6001600160a01b03811681146103b857600080fd5b600060208284031215610d9057600080fd5b8135610d9b81610d69565b9392505050565b60008083601f840112610db457600080fd5b50813567ffffffffffffffff811115610dcc57600080fd5b6020830191508360208260051b8501011115610de757600080fd5b9250929050565b600080600080600080600080600060a08a8c031215610e0c57600080fd5b893567ffffffffffffffff80821115610e2457600080fd5b610e308d838e01610da2565b909b50995060208c0135915080821115610e4957600080fd5b610e558d838e01610da2565b909950975060408c0135915080821115610e6e57600080fd5b610e7a8d838e01610da2565b909750955060608c01359150610e8f82610d69565b90935060808b01359080821115610ea557600080fd5b818c0191508c601f830112610eb957600080fd5b813581811115610ec857600080fd5b8d6020828501011115610eda57600080fd5b6020830194508093505050509295985092959850929598565b803560ff811681146102f957600080fd5b803562ffffff811681146102f957600080fd5b600080600080600080600060e0888a031215610f3257600080fd5b8735610f3d81610d69565b96506020880135610f4d81610d69565b9550610f5b60408901610ef3565b9450610f6960608901610f04565b9699959850939660808101359560a0820135955060c0909101359350915050565b600060208284031215610f9c57600080fd5b5051919050565b634e487b7160e01b600052603260045260246000fd5b634e487b7160e01b600052601160045260246000fd5b60008219821115610fe257610fe2610fb9565b500190565b6000600019821415610ffb57610ffb610fb9565b5060010190565b634e487b7160e01b600052604160045260246000fd5b600081518084526020808501945080840160005b838110156110515781516001600160a01b03168752958201959082019060010161102c565b509495945050505050565b600081518084526020808501945080840160005b8381101561105157815187529582019590820190600101611070565b60005b838110156110a757818101518382015260200161108f565b838111156110b6576000848401525b50505050565b60006001600160a01b03808a16835260e060208401526110df60e084018a611018565b83810360408501526110f1818a61105c565b90508381036060850152611105818961105c565b91871660808501525082810360a084015284518082529061112d82602080840190890161108c565b61ffff9490941660c0939093019290925250601f01601f1916016020019695505050505050565b6000825161116681846020870161108c565b9190910192915050565b60006020828403121561118257600080fd5b81518015158114610d9b57600080fd5b85815284602082015260a0604082015260006111b160a0830186611018565b6001600160a01b0394909416606083015250608001529392505050565b600060208083850312156111e157600080fd5b825167ffffffffffffffff808211156111f957600080fd5b818501915085601f83011261120d57600080fd5b81518181111561121f5761121f611002565b8060051b604051601f19603f8301168101818110858211171561124457611244611002565b60405291825284820192508381018501918883111561126257600080fd5b938501935b8285101561128057845184529385019392850192611267565b9897505050505050505056fea2646970667358221220b487f343ed2d1047a362d23030c9bd483c66e51e2f8afe007ec49c528fa0bb8d64736f6c634300080a0033",
					"opcodes": "PUSH2 0x100 PUSH1 0x40 MSTORE CALLVALUE DUP1 ISZERO PUSH3 0x12 JUMPI PUSH1 0x0 DUP1 REVERT JUMPDEST POP PUSH1 0x40 MLOAD PUSH3 0x14AC CODESIZE SUB DUP1 PUSH3 0x14AC DUP4 CODECOPY DUP2 ADD PUSH1 0x40 DUP2 SWAP1 MSTORE PUSH3 0x35 SWAP2 PUSH3 0x106 JUMP JUMPDEST DUP4 DUP1 PUSH1 0x1 PUSH1 0x1 PUSH1 0xA0 SHL SUB AND PUSH1 0x80 DUP2 PUSH1 0x1 PUSH1 0x1 PUSH1 0xA0 SHL SUB AND DUP2 MSTORE POP POP DUP1 PUSH1 0x1 PUSH1 0x1 PUSH1 0xA0 SHL SUB AND PUSH4 0x26B1D5F PUSH1 0x40 MLOAD DUP2 PUSH4 0xFFFFFFFF AND PUSH1 0xE0 SHL DUP2 MSTORE PUSH1 0x4 ADD PUSH1 0x20 PUSH1 0x40 MLOAD DUP1 DUP4 SUB DUP2 DUP7 GAS STATICCALL ISZERO DUP1 ISZERO PUSH3 0x8F JUMPI RETURNDATASIZE PUSH1 0x0 DUP1 RETURNDATACOPY RETURNDATASIZE PUSH1 0x0 REVERT JUMPDEST POP POP POP POP PUSH1 0x40 MLOAD RETURNDATASIZE PUSH1 0x1F NOT PUSH1 0x1F DUP3 ADD AND DUP3 ADD DUP1 PUSH1 0x40 MSTORE POP DUP2 ADD SWAP1 PUSH3 0xB5 SWAP2 SWAP1 PUSH3 0x16E JUMP JUMPDEST PUSH1 0x1 PUSH1 0x1 PUSH1 0xA0 SHL SUB SWAP1 DUP2 AND PUSH1 0xA0 MSTORE PUSH1 0x0 DUP1 SLOAD PUSH1 0x1 PUSH1 0x1 PUSH1 0xA0 SHL SUB NOT AND SWAP6 DUP3 AND SWAP6 SWAP1 SWAP6 OR SWAP1 SWAP5 SSTORE POP SWAP1 DUP3 AND PUSH1 0xC0 MSTORE AND PUSH1 0xE0 MSTORE POP PUSH3 0x195 JUMP JUMPDEST PUSH1 0x1 PUSH1 0x1 PUSH1 0xA0 SHL SUB DUP2 AND DUP2 EQ PUSH3 0x103 JUMPI PUSH1 0x0 DUP1 REVERT JUMPDEST POP JUMP JUMPDEST PUSH1 0x0 DUP1 PUSH1 0x0 DUP1 PUSH1 0x80 DUP6 DUP8 SUB SLT ISZERO PUSH3 0x11D JUMPI PUSH1 0x0 DUP1 REVERT JUMPDEST DUP5 MLOAD PUSH3 0x12A DUP2 PUSH3 0xED JUMP JUMPDEST PUSH1 0x20 DUP7 ADD MLOAD SWAP1 SWAP5 POP PUSH3 0x13D DUP2 PUSH3 0xED JUMP JUMPDEST PUSH1 0x40 DUP7 ADD MLOAD SWAP1 SWAP4 POP PUSH3 0x150 DUP2 PUSH3 0xED JUMP JUMPDEST PUSH1 0x60 DUP7 ADD MLOAD SWAP1 SWAP3 POP PUSH3 0x163 DUP2 PUSH3 0xED JUMP JUMPDEST SWAP4 SWAP7 SWAP3 SWAP6 POP SWAP1 SWAP4 POP POP JUMP JUMPDEST PUSH1 0x0 PUSH1 0x20 DUP3 DUP5 SUB SLT ISZERO PUSH3 0x181 JUMPI PUSH1 0x0 DUP1 REVERT JUMPDEST DUP2 MLOAD PUSH3 0x18E DUP2 PUSH3 0xED JUMP JUMPDEST SWAP4 SWAP3 POP POP POP JUMP JUMPDEST PUSH1 0x80 MLOAD PUSH1 0xA0 MLOAD PUSH1 0xC0 MLOAD PUSH1 0xE0 MLOAD PUSH2 0x12C2 PUSH3 0x1EA PUSH1 0x0 CODECOPY PUSH1 0x0 DUP2 DUP2 PUSH2 0xC87 ADD MSTORE PUSH2 0xCDC ADD MSTORE PUSH1 0x0 DUP2 DUP2 PUSH2 0xB05 ADD MSTORE PUSH2 0xBEA ADD MSTORE PUSH1 0x0 DUP2 DUP2 PUSH2 0x11B ADD MSTORE DUP2 DUP2 PUSH2 0x43E ADD MSTORE PUSH2 0x60D ADD MSTORE PUSH1 0x0 PUSH1 0x92 ADD MSTORE PUSH2 0x12C2 PUSH1 0x0 RETURN INVALID PUSH1 0x80 PUSH1 0x40 MSTORE PUSH1 0x4 CALLDATASIZE LT PUSH2 0x7B JUMPI PUSH1 0x0 CALLDATALOAD PUSH1 0xE0 SHR DUP1 PUSH4 0x893D20E8 GT PUSH2 0x4E JUMPI DUP1 PUSH4 0x893D20E8 EQ PUSH2 0x13D JUMPI DUP1 PUSH4 0x920F5C84 EQ PUSH2 0x15B JUMPI DUP1 PUSH4 0xC2D22207 EQ PUSH2 0x18B JUMPI DUP1 PUSH4 0xF2FDE38B EQ PUSH2 0x1AB JUMPI PUSH1 0x0 DUP1 REVERT JUMPDEST DUP1 PUSH4 0x542975C EQ PUSH2 0x80 JUMPI DUP1 PUSH4 0x3BDEBBE1 EQ PUSH2 0xD1 JUMPI DUP1 PUSH4 0x3CCFD60B EQ PUSH2 0xFF JUMPI DUP1 PUSH4 0x7535D246 EQ PUSH2 0x109 JUMPI JUMPDEST PUSH1 0x0 DUP1 REVERT JUMPDEST CALLVALUE DUP1 ISZERO PUSH2 0x8C JUMPI PUSH1 0x0 DUP1 REVERT JUMPDEST POP PUSH2 0xB4 PUSH32 0x0 DUP2 JUMP JUMPDEST PUSH1 0x40 MLOAD PUSH1 0x1 PUSH1 0x1 PUSH1 0xA0 SHL SUB SWAP1 SWAP2 AND DUP2 MSTORE PUSH1 0x20 ADD JUMPDEST PUSH1 0x40 MLOAD DUP1 SWAP2 SUB SWAP1 RETURN JUMPDEST CALLVALUE DUP1 ISZERO PUSH2 0xDD JUMPI PUSH1 0x0 DUP1 REVERT JUMPDEST POP PUSH2 0xF1 PUSH2 0xEC CALLDATASIZE PUSH1 0x4 PUSH2 0xD7E JUMP JUMPDEST PUSH2 0x1CB JUMP JUMPDEST PUSH1 0x40 MLOAD SWAP1 DUP2 MSTORE PUSH1 0x20 ADD PUSH2 0xC8 JUMP JUMPDEST PUSH2 0x107 PUSH2 0x2FE JUMP JUMPDEST STOP JUMPDEST CALLVALUE DUP1 ISZERO PUSH2 0x115 JUMPI PUSH1 0x0 DUP1 REVERT JUMPDEST POP PUSH2 0xB4 PUSH32 0x0 DUP2 JUMP JUMPDEST CALLVALUE DUP1 ISZERO PUSH2 0x149 JUMPI PUSH1 0x0 DUP1 REVERT JUMPDEST POP PUSH1 0x0 SLOAD PUSH1 0x1 PUSH1 0x1 PUSH1 0xA0 SHL SUB AND PUSH2 0xB4 JUMP JUMPDEST CALLVALUE DUP1 ISZERO PUSH2 0x167 JUMPI PUSH1 0x0 DUP1 REVERT JUMPDEST POP PUSH2 0x17B PUSH2 0x176 CALLDATASIZE PUSH1 0x4 PUSH2 0xDEE JUMP JUMPDEST PUSH2 0x3BB JUMP JUMPDEST PUSH1 0x40 MLOAD SWAP1 ISZERO ISZERO DUP2 MSTORE PUSH1 0x20 ADD PUSH2 0xC8 JUMP JUMPDEST CALLVALUE DUP1 ISZERO PUSH2 0x197 JUMPI PUSH1 0x0 DUP1 REVERT JUMPDEST POP PUSH2 0x107 PUSH2 0x1A6 CALLDATASIZE PUSH1 0x4 PUSH2 0xF17 JUMP JUMPDEST PUSH2 0x487 JUMP JUMPDEST CALLVALUE DUP1 ISZERO PUSH2 0x1B7 JUMPI PUSH1 0x0 DUP1 REVERT JUMPDEST POP PUSH2 0x107 PUSH2 0x1C6 CALLDATASIZE PUSH1 0x4 PUSH2 0xD7E JUMP JUMPDEST PUSH2 0x690 JUMP JUMPDEST PUSH1 0x0 DUP1 SLOAD PUSH1 0x1 PUSH1 0x1 PUSH1 0xA0 SHL SUB AND CALLER EQ PUSH2 0x1E3 JUMPI PUSH1 0x0 DUP1 REVERT JUMPDEST PUSH1 0x40 MLOAD PUSH32 0x70A0823100000000000000000000000000000000000000000000000000000000 DUP2 MSTORE ADDRESS PUSH1 0x4 DUP3 ADD MSTORE PUSH1 0x1 PUSH1 0x1 PUSH1 0xA0 SHL SUB DUP4 AND SWAP1 PUSH4 0x70A08231 SWAP1 PUSH1 0x24 ADD PUSH1 0x20 PUSH1 0x40 MLOAD DUP1 DUP4 SUB DUP2 DUP7 GAS STATICCALL ISZERO DUP1 ISZERO PUSH2 0x240 JUMPI RETURNDATASIZE PUSH1 0x0 DUP1 RETURNDATACOPY RETURNDATASIZE PUSH1 0x0 REVERT JUMPDEST POP POP POP POP PUSH1 0x40 MLOAD RETURNDATASIZE PUSH1 0x1F NOT PUSH1 0x1F DUP3 ADD AND DUP3 ADD DUP1 PUSH1 0x40 MSTORE POP DUP2 ADD SWAP1 PUSH2 0x264 SWAP2 SWAP1 PUSH2 0xF8A JUMP JUMPDEST SWAP1 POP PUSH1 0x0 DUP2 GT PUSH2 0x2E1 JUMPI PUSH1 0x40 MLOAD PUSH3 0x461BCD PUSH1 0xE5 SHL DUP2 MSTORE PUSH1 0x20 PUSH1 0x4 DUP3 ADD MSTORE PUSH1 0x30 PUSH1 0x24 DUP3 ADD MSTORE PUSH32 0x436F6E747261637420646F6573206E6F742068617665207468652070726F7669 PUSH1 0x44 DUP3 ADD MSTORE PUSH32 0x64656420455243323020746F6B656E2E00000000000000000000000000000000 PUSH1 0x64 DUP3 ADD MSTORE PUSH1 0x84 ADD JUMPDEST PUSH1 0x40 MLOAD DUP1 SWAP2 SUB SWAP1 REVERT JUMPDEST PUSH1 0x0 SLOAD PUSH2 0x2F9 SWAP1 DUP4 SWAP1 PUSH1 0x1 PUSH1 0x1 PUSH1 0xA0 SHL SUB AND DUP4 PUSH2 0x6E1 JUMP JUMPDEST SWAP2 SWAP1 POP JUMP JUMPDEST PUSH1 0x0 SLOAD PUSH1 0x1 PUSH1 0x1 PUSH1 0xA0 SHL SUB AND CALLER EQ PUSH2 0x315 JUMPI PUSH1 0x0 DUP1 REVERT JUMPDEST PUSH1 0x0 DUP1 SLOAD PUSH1 0x40 MLOAD PUSH1 0x1 PUSH1 0x1 PUSH1 0xA0 SHL SUB SWAP1 SWAP2 AND SWAP1 SELFBALANCE SWAP1 DUP4 DUP2 DUP2 DUP2 DUP6 DUP8 GAS CALL SWAP3 POP POP POP RETURNDATASIZE DUP1 PUSH1 0x0 DUP2 EQ PUSH2 0x362 JUMPI PUSH1 0x40 MLOAD SWAP2 POP PUSH1 0x1F NOT PUSH1 0x3F RETURNDATASIZE ADD AND DUP3 ADD PUSH1 0x40 MSTORE RETURNDATASIZE DUP3 MSTORE RETURNDATASIZE PUSH1 0x0 PUSH1 0x20 DUP5 ADD RETURNDATACOPY PUSH2 0x367 JUMP JUMPDEST PUSH1 0x60 SWAP2 POP JUMPDEST POP POP SWAP1 POP DUP1 PUSH2 0x3B8 JUMPI PUSH1 0x40 MLOAD PUSH3 0x461BCD PUSH1 0xE5 SHL DUP2 MSTORE PUSH1 0x20 PUSH1 0x4 DUP3 ADD MSTORE PUSH1 0x10 PUSH1 0x24 DUP3 ADD MSTORE PUSH32 0x5769746864726177206661696C65642E00000000000000000000000000000000 PUSH1 0x44 DUP3 ADD MSTORE PUSH1 0x64 ADD PUSH2 0x2D8 JUMP JUMPDEST POP JUMP JUMPDEST PUSH1 0x0 PUSH2 0x3C7 DUP4 DUP4 PUSH2 0x82A JUMP JUMPDEST PUSH1 0x0 JUMPDEST DUP10 DUP2 LT ISZERO PUSH2 0x476 JUMPI PUSH1 0x0 DUP8 DUP8 DUP4 DUP2 DUP2 LT PUSH2 0x3E6 JUMPI PUSH2 0x3E6 PUSH2 0xFA3 JUMP JUMPDEST SWAP1 POP PUSH1 0x20 MUL ADD CALLDATALOAD DUP11 DUP11 DUP5 DUP2 DUP2 LT PUSH2 0x3FF JUMPI PUSH2 0x3FF PUSH2 0xFA3 JUMP JUMPDEST SWAP1 POP PUSH1 0x20 MUL ADD CALLDATALOAD PUSH2 0x410 SWAP2 SWAP1 PUSH2 0xFCF JUMP JUMPDEST SWAP1 POP PUSH2 0x463 DUP13 DUP13 DUP5 DUP2 DUP2 LT PUSH2 0x427 JUMPI PUSH2 0x427 PUSH2 0xFA3 JUMP JUMPDEST SWAP1 POP PUSH1 0x20 MUL ADD PUSH1 0x20 DUP2 ADD SWAP1 PUSH2 0x43C SWAP2 SWAP1 PUSH2 0xD7E JUMP JUMPDEST PUSH32 0x0 DUP4 PUSH2 0x9BB JUMP JUMPDEST POP DUP1 PUSH2 0x46E DUP2 PUSH2 0xFE7 JUMP JUMPDEST SWAP2 POP POP PUSH2 0x3CA JUMP JUMPDEST POP PUSH1 0x1 SWAP11 SWAP10 POP POP POP POP POP POP POP POP POP POP JUMP JUMPDEST PUSH1 0x0 SLOAD PUSH1 0x1 PUSH1 0x1 PUSH1 0xA0 SHL SUB AND CALLER EQ PUSH2 0x49E JUMPI PUSH1 0x0 DUP1 REVERT JUMPDEST PUSH1 0x40 DUP1 MLOAD PUSH1 0x1 DUP1 DUP3 MSTORE DUP2 DUP4 ADD SWAP1 SWAP3 MSTORE ADDRESS SWAP2 PUSH1 0x0 SWAP2 SWAP1 PUSH1 0x20 DUP1 DUP4 ADD SWAP1 DUP1 CALLDATASIZE DUP4 CALLDATACOPY ADD SWAP1 POP POP SWAP1 POP DUP9 DUP2 PUSH1 0x0 DUP2 MLOAD DUP2 LT PUSH2 0x4D7 JUMPI PUSH2 0x4D7 PUSH2 0xFA3 JUMP JUMPDEST PUSH1 0x1 PUSH1 0x1 PUSH1 0xA0 SHL SUB SWAP3 SWAP1 SWAP3 AND PUSH1 0x20 SWAP3 DUP4 MUL SWAP2 SWAP1 SWAP2 ADD SWAP1 SWAP2 ADD MSTORE PUSH1 0x40 DUP1 MLOAD PUSH1 0x1 DUP1 DUP3 MSTORE DUP2 DUP4 ADD SWAP1 SWAP3 MSTORE PUSH1 0x0 SWAP2 DUP2 PUSH1 0x20 ADD PUSH1 0x20 DUP3 MUL DUP1 CALLDATASIZE DUP4 CALLDATACOPY ADD SWAP1 POP POP SWAP1 POP DUP6 DUP2 PUSH1 0x0 DUP2 MLOAD DUP2 LT PUSH2 0x528 JUMPI PUSH2 0x528 PUSH2 0xFA3 JUMP JUMPDEST PUSH1 0x20 SWAP1 DUP2 MUL SWAP2 SWAP1 SWAP2 ADD ADD MSTORE PUSH1 0x40 DUP1 MLOAD PUSH1 0x1 DUP1 DUP3 MSTORE DUP2 DUP4 ADD SWAP1 SWAP3 MSTORE PUSH1 0x0 SWAP2 DUP2 PUSH1 0x20 ADD PUSH1 0x20 DUP3 MUL DUP1 CALLDATASIZE DUP4 CALLDATACOPY ADD SWAP1 POP POP SWAP1 POP PUSH1 0x0 DUP2 PUSH1 0x0 DUP2 MLOAD DUP2 LT PUSH2 0x56C JUMPI PUSH2 0x56C PUSH2 0xFA3 JUMP JUMPDEST PUSH1 0x20 SWAP1 DUP2 MUL SWAP2 SWAP1 SWAP2 ADD DUP2 ADD SWAP2 SWAP1 SWAP2 MSTORE PUSH1 0x40 DUP1 MLOAD PUSH1 0x1 PUSH1 0x1 PUSH1 0xA0 SHL SUB DUP1 DUP16 AND SWAP4 DUP3 ADD SWAP4 SWAP1 SWAP4 MSTORE SWAP2 DUP13 AND SWAP1 DUP3 ADD MSTORE PUSH1 0xFF DUP11 AND PUSH1 0x60 DUP3 ADD MSTORE PUSH3 0xFFFFFF DUP10 AND PUSH1 0x80 DUP3 ADD MSTORE PUSH1 0xA0 DUP2 ADD DUP9 SWAP1 MSTORE PUSH1 0xC0 DUP2 ADD DUP8 SWAP1 MSTORE PUSH1 0xE0 DUP2 ADD DUP7 SWAP1 MSTORE ADDRESS SWAP1 PUSH1 0x0 SWAP1 PUSH2 0x100 ADD PUSH1 0x40 DUP1 MLOAD PUSH1 0x1F NOT DUP2 DUP5 SUB ADD DUP2 MSTORE SWAP1 DUP3 SWAP1 MSTORE PUSH32 0xAB9C4B5D00000000000000000000000000000000000000000000000000000000 DUP3 MSTORE SWAP2 POP PUSH1 0x0 SWAP1 PUSH1 0x1 PUSH1 0x1 PUSH1 0xA0 SHL SUB PUSH32 0x0 AND SWAP1 PUSH4 0xAB9C4B5D SWAP1 PUSH2 0x64E SWAP1 DUP11 SWAP1 DUP11 SWAP1 DUP11 SWAP1 DUP11 SWAP1 DUP11 SWAP1 DUP11 SWAP1 DUP11 SWAP1 PUSH1 0x4 ADD PUSH2 0x10BC JUMP JUMPDEST PUSH1 0x0 PUSH1 0x40 MLOAD DUP1 DUP4 SUB DUP2 PUSH1 0x0 DUP8 DUP1 EXTCODESIZE ISZERO DUP1 ISZERO PUSH2 0x668 JUMPI PUSH1 0x0 DUP1 REVERT JUMPDEST POP GAS CALL ISZERO DUP1 ISZERO PUSH2 0x67C JUMPI RETURNDATASIZE PUSH1 0x0 DUP1 RETURNDATACOPY RETURNDATASIZE PUSH1 0x0 REVERT JUMPDEST POP POP POP POP POP POP POP POP POP POP POP POP POP POP POP POP POP POP JUMP JUMPDEST PUSH1 0x0 SLOAD PUSH1 0x1 PUSH1 0x1 PUSH1 0xA0 SHL SUB AND CALLER EQ PUSH2 0x6A7 JUMPI PUSH1 0x0 DUP1 REVERT JUMPDEST PUSH1 0x0 DUP1 SLOAD PUSH32 0xFFFFFFFFFFFFFFFFFFFFFFFF0000000000000000000000000000000000000000 AND PUSH1 0x1 PUSH1 0x1 PUSH1 0xA0 SHL SUB SWAP3 SWAP1 SWAP3 AND SWAP2 SWAP1 SWAP2 OR SWAP1 SSTORE JUMP JUMPDEST PUSH1 0x40 DUP1 MLOAD PUSH1 0x1 PUSH1 0x1 PUSH1 0xA0 SHL SUB DUP5 DUP2 AND PUSH1 0x24 DUP4 ADD MSTORE PUSH1 0x44 DUP1 DUP4 ADD DUP6 SWAP1 MSTORE DUP4 MLOAD DUP1 DUP5 SUB SWAP1 SWAP2 ADD DUP2 MSTORE PUSH1 0x64 SWAP1 SWAP3 ADD DUP4 MSTORE PUSH1 0x20 DUP3 ADD DUP1 MLOAD PUSH28 0xFFFFFFFFFFFFFFFFFFFFFFFFFFFFFFFFFFFFFFFFFFFFFFFFFFFFFFFF AND PUSH32 0xA9059CBB00000000000000000000000000000000000000000000000000000000 OR SWAP1 MSTORE SWAP2 MLOAD PUSH1 0x0 SWAP3 DUP4 SWAP3 SWAP1 DUP8 AND SWAP2 PUSH2 0x76B SWAP2 SWAP1 PUSH2 0x1154 JUMP JUMPDEST PUSH1 0x0 PUSH1 0x40 MLOAD DUP1 DUP4 SUB DUP2 PUSH1 0x0 DUP7 GAS CALL SWAP2 POP POP RETURNDATASIZE DUP1 PUSH1 0x0 DUP2 EQ PUSH2 0x7A8 JUMPI PUSH1 0x40 MLOAD SWAP2 POP PUSH1 0x1F NOT PUSH1 0x3F RETURNDATASIZE ADD AND DUP3 ADD PUSH1 0x40 MSTORE RETURNDATASIZE DUP3 MSTORE RETURNDATASIZE PUSH1 0x0 PUSH1 0x20 DUP5 ADD RETURNDATACOPY PUSH2 0x7AD JUMP JUMPDEST PUSH1 0x60 SWAP2 POP JUMPDEST POP SWAP2 POP SWAP2 POP DUP2 DUP1 ISZERO PUSH2 0x7D7 JUMPI POP DUP1 MLOAD ISZERO DUP1 PUSH2 0x7D7 JUMPI POP DUP1 DUP1 PUSH1 0x20 ADD SWAP1 MLOAD DUP2 ADD SWAP1 PUSH2 0x7D7 SWAP2 SWAP1 PUSH2 0x1170 JUMP JUMPDEST PUSH2 0x823 JUMPI PUSH1 0x40 MLOAD PUSH3 0x461BCD PUSH1 0xE5 SHL DUP2 MSTORE PUSH1 0x20 PUSH1 0x4 DUP3 ADD MSTORE PUSH1 0x2 PUSH1 0x24 DUP3 ADD MSTORE PUSH32 0x5354000000000000000000000000000000000000000000000000000000000000 PUSH1 0x44 DUP3 ADD MSTORE PUSH1 0x64 ADD PUSH2 0x2D8 JUMP JUMPDEST POP POP POP POP POP JUMP JUMPDEST PUSH1 0x0 DUP1 DUP1 DUP1 DUP1 DUP1 DUP1 PUSH2 0x83E DUP9 DUP11 ADD DUP11 PUSH2 0xF17 JUMP JUMPDEST PUSH1 0x40 DUP1 MLOAD PUSH1 0x2 DUP1 DUP3 MSTORE PUSH1 0x60 DUP3 ADD DUP4 MSTORE SWAP9 SWAP16 POP SWAP7 SWAP14 POP SWAP5 SWAP12 POP SWAP3 SWAP10 POP SWAP1 SWAP8 POP SWAP6 POP SWAP4 POP PUSH1 0x0 SWAP3 SWAP1 PUSH1 0x20 DUP4 ADD SWAP1 DUP1 CALLDATASIZE DUP4 CALLDATACOPY ADD SWAP1 POP POP SWAP1 POP DUP6 PUSH1 0xFF AND PUSH1 0x1 EQ ISZERO PUSH2 0x90C JUMPI PUSH1 0x0 PUSH2 0x88E DUP6 DUP6 DUP12 DUP12 DUP11 PUSH2 0xAFD JUMP JUMPDEST SWAP1 POP DUP8 DUP3 PUSH1 0x0 DUP2 MLOAD DUP2 LT PUSH2 0x8A4 JUMPI PUSH2 0x8A4 PUSH2 0xFA3 JUMP JUMPDEST PUSH1 0x20 MUL PUSH1 0x20 ADD ADD SWAP1 PUSH1 0x1 PUSH1 0x1 PUSH1 0xA0 SHL SUB AND SWAP1 DUP2 PUSH1 0x1 PUSH1 0x1 PUSH1 0xA0 SHL SUB AND DUP2 MSTORE POP POP DUP9 DUP3 PUSH1 0x1 DUP2 MLOAD DUP2 LT PUSH2 0x8D8 JUMPI PUSH2 0x8D8 PUSH2 0xFA3 JUMP JUMPDEST PUSH1 0x20 MUL PUSH1 0x20 ADD ADD SWAP1 PUSH1 0x1 PUSH1 0x1 PUSH1 0xA0 SHL SUB AND SWAP1 DUP2 PUSH1 0x1 PUSH1 0x1 PUSH1 0xA0 SHL SUB AND DUP2 MSTORE POP POP PUSH2 0x905 DUP2 PUSH1 0x0 DUP5 DUP7 PUSH2 0xC65 JUMP JUMPDEST POP POP PUSH2 0x9AF JUMP JUMPDEST DUP8 DUP2 PUSH1 0x0 DUP2 MLOAD DUP2 LT PUSH2 0x920 JUMPI PUSH2 0x920 PUSH2 0xFA3 JUMP JUMPDEST PUSH1 0x20 MUL PUSH1 0x20 ADD ADD SWAP1 PUSH1 0x1 PUSH1 0x1 PUSH1 0xA0 SHL SUB AND SWAP1 DUP2 PUSH1 0x1 PUSH1 0x1 PUSH1 0xA0 SHL SUB AND DUP2 MSTORE POP POP DUP7 DUP2 PUSH1 0x1 DUP2 MLOAD DUP2 LT PUSH2 0x954 JUMPI PUSH2 0x954 PUSH2 0xFA3 JUMP JUMPDEST PUSH1 0x20 MUL PUSH1 0x20 ADD ADD SWAP1 PUSH1 0x1 PUSH1 0x1 PUSH1 0xA0 SHL SUB AND SWAP1 DUP2 PUSH1 0x1 PUSH1 0x1 PUSH1 0xA0 SHL SUB AND DUP2 MSTORE POP POP PUSH1 0x0 PUSH2 0x982 DUP6 DUP6 DUP5 DUP7 PUSH2 0xC65 JUMP JUMPDEST SWAP1 POP PUSH2 0x9AC DUP2 PUSH1 0x1 DUP2 MLOAD DUP2 LT PUSH2 0x99A JUMPI PUSH2 0x99A PUSH2 0xFA3 JUMP JUMPDEST PUSH1 0x20 MUL PUSH1 0x20 ADD ADD MLOAD PUSH1 0x0 DUP11 DUP13 DUP11 PUSH2 0xAFD JUMP JUMPDEST POP POP JUMPDEST POP POP POP POP POP POP POP POP POP POP JUMP JUMPDEST PUSH1 0x40 DUP1 MLOAD PUSH1 0x1 PUSH1 0x1 PUSH1 0xA0 SHL SUB DUP5 DUP2 AND PUSH1 0x24 DUP4 ADD MSTORE PUSH1 0x44 DUP1 DUP4 ADD DUP6 SWAP1 MSTORE DUP4 MLOAD DUP1 DUP5 SUB SWAP1 SWAP2 ADD DUP2 MSTORE PUSH1 0x64 SWAP1 SWAP3 ADD DUP4 MSTORE PUSH1 0x20 DUP3 ADD DUP1 MLOAD PUSH28 0xFFFFFFFFFFFFFFFFFFFFFFFFFFFFFFFFFFFFFFFFFFFFFFFFFFFFFFFF AND PUSH32 0x95EA7B300000000000000000000000000000000000000000000000000000000 OR SWAP1 MSTORE SWAP2 MLOAD PUSH1 0x0 SWAP3 DUP4 SWAP3 SWAP1 DUP8 AND SWAP2 PUSH2 0xA45 SWAP2 SWAP1 PUSH2 0x1154 JUMP JUMPDEST PUSH1 0x0 PUSH1 0x40 MLOAD DUP1 DUP4 SUB DUP2 PUSH1 0x0 DUP7 GAS CALL SWAP2 POP POP RETURNDATASIZE DUP1 PUSH1 0x0 DUP2 EQ PUSH2 0xA82 JUMPI PUSH1 0x40 MLOAD SWAP2 POP PUSH1 0x1F NOT PUSH1 0x3F RETURNDATASIZE ADD AND DUP3 ADD PUSH1 0x40 MSTORE RETURNDATASIZE DUP3 MSTORE RETURNDATASIZE PUSH1 0x0 PUSH1 0x20 DUP5 ADD RETURNDATACOPY PUSH2 0xA87 JUMP JUMPDEST PUSH1 0x60 SWAP2 POP JUMPDEST POP SWAP2 POP SWAP2 POP DUP2 DUP1 ISZERO PUSH2 0xAB1 JUMPI POP DUP1 MLOAD ISZERO DUP1 PUSH2 0xAB1 JUMPI POP DUP1 DUP1 PUSH1 0x20 ADD SWAP1 MLOAD DUP2 ADD SWAP1 PUSH2 0xAB1 SWAP2 SWAP1 PUSH2 0x1170 JUMP JUMPDEST PUSH2 0x823 JUMPI PUSH1 0x40 MLOAD PUSH3 0x461BCD PUSH1 0xE5 SHL DUP2 MSTORE PUSH1 0x20 PUSH1 0x4 DUP3 ADD MSTORE PUSH1 0x2 PUSH1 0x24 DUP3 ADD MSTORE PUSH32 0x5341000000000000000000000000000000000000000000000000000000000000 PUSH1 0x44 DUP3 ADD MSTORE PUSH1 0x64 ADD PUSH2 0x2D8 JUMP JUMPDEST PUSH1 0x0 PUSH2 0xB2A DUP5 PUSH32 0x0 DUP9 PUSH2 0x9BB JUMP JUMPDEST PUSH1 0x40 DUP1 MLOAD PUSH2 0x100 DUP2 ADD DUP3 MSTORE PUSH1 0x1 PUSH1 0x1 PUSH1 0xA0 SHL SUB DUP7 DUP2 AND DUP3 MSTORE DUP6 DUP2 AND PUSH1 0x20 DUP4 ADD SWAP1 DUP2 MSTORE PUSH3 0xFFFFFF DUP7 DUP2 AND DUP5 DUP7 ADD SWAP1 DUP2 MSTORE ADDRESS PUSH1 0x60 DUP7 ADD SWAP1 DUP2 MSTORE TIMESTAMP PUSH1 0x80 DUP8 ADD SWAP1 DUP2 MSTORE PUSH1 0xA0 DUP8 ADD DUP15 DUP2 MSTORE PUSH1 0xC0 DUP9 ADD DUP15 DUP2 MSTORE PUSH1 0x0 PUSH1 0xE0 DUP11 ADD SWAP1 DUP2 MSTORE SWAP10 MLOAD PUSH32 0x414BF38900000000000000000000000000000000000000000000000000000000 DUP2 MSTORE DUP10 MLOAD DUP10 AND PUSH1 0x4 DUP3 ADD MSTORE SWAP7 MLOAD DUP9 AND PUSH1 0x24 DUP9 ADD MSTORE SWAP4 MLOAD SWAP1 SWAP5 AND PUSH1 0x44 DUP7 ADD MSTORE SWAP1 MLOAD DUP6 AND PUSH1 0x64 DUP6 ADD MSTORE MLOAD PUSH1 0x84 DUP5 ADD MSTORE SWAP1 MLOAD PUSH1 0xA4 DUP4 ADD MSTORE MLOAD PUSH1 0xC4 DUP3 ADD MSTORE SWAP3 MLOAD DUP2 AND PUSH1 0xE4 DUP5 ADD MSTORE SWAP1 SWAP2 PUSH32 0x0 SWAP1 SWAP2 AND SWAP1 PUSH4 0x414BF389 SWAP1 PUSH2 0x104 ADD PUSH1 0x20 PUSH1 0x40 MLOAD DUP1 DUP4 SUB DUP2 PUSH1 0x0 DUP8 GAS CALL ISZERO DUP1 ISZERO PUSH2 0xC36 JUMPI RETURNDATASIZE PUSH1 0x0 DUP1 RETURNDATACOPY RETURNDATASIZE PUSH1 0x0 REVERT JUMPDEST POP POP POP POP PUSH1 0x40 MLOAD RETURNDATASIZE PUSH1 0x1F NOT PUSH1 0x1F DUP3 ADD AND DUP3 ADD DUP1 PUSH1 0x40 MSTORE POP DUP2 ADD SWAP1 PUSH2 0xC5A SWAP2 SWAP1 PUSH2 0xF8A JUMP JUMPDEST SWAP8 SWAP7 POP POP POP POP POP POP POP JUMP JUMPDEST PUSH1 0x60 PUSH2 0xCAC DUP4 PUSH1 0x0 DUP2 MLOAD DUP2 LT PUSH2 0xC7D JUMPI PUSH2 0xC7D PUSH2 0xFA3 JUMP JUMPDEST PUSH1 0x20 MUL PUSH1 0x20 ADD ADD MLOAD PUSH32 0x0 DUP8 PUSH2 0x9BB JUMP JUMPDEST PUSH1 0x40 MLOAD PUSH32 0x38ED173900000000000000000000000000000000000000000000000000000000 DUP2 MSTORE PUSH1 0x1 PUSH1 0x1 PUSH1 0xA0 SHL SUB PUSH32 0x0 AND SWAP1 PUSH4 0x38ED1739 SWAP1 PUSH2 0xD19 SWAP1 DUP9 SWAP1 DUP9 SWAP1 DUP9 SWAP1 ADDRESS SWAP1 DUP10 SWAP1 PUSH1 0x4 ADD PUSH2 0x1192 JUMP JUMPDEST PUSH1 0x0 PUSH1 0x40 MLOAD DUP1 DUP4 SUB DUP2 PUSH1 0x0 DUP8 GAS CALL ISZERO DUP1 ISZERO PUSH2 0xD38 JUMPI RETURNDATASIZE PUSH1 0x0 DUP1 RETURNDATACOPY RETURNDATASIZE PUSH1 0x0 REVERT JUMPDEST POP POP POP POP PUSH1 0x40 MLOAD RETURNDATASIZE PUSH1 0x0 DUP3 RETURNDATACOPY PUSH1 0x1F RETURNDATASIZE SWAP1 DUP2 ADD PUSH1 0x1F NOT AND DUP3 ADD PUSH1 0x40 MSTORE PUSH2 0xD60 SWAP2 SWAP1 DUP2 ADD SWAP1 PUSH2 0x11CE JUMP JUMPDEST SWAP6 SWAP5 POP POP POP POP POP JUMP JUMPDEST PUSH1 0x1 PUSH1 0x1 PUSH1 0xA0 SHL SUB DUP2 AND DUP2 EQ PUSH2 0x3B8 JUMPI PUSH1 0x0 DUP1 REVERT JUMPDEST PUSH1 0x0 PUSH1 0x20 DUP3 DUP5 SUB SLT ISZERO PUSH2 0xD90 JUMPI PUSH1 0x0 DUP1 REVERT JUMPDEST DUP2 CALLDATALOAD PUSH2 0xD9B DUP2 PUSH2 0xD69 JUMP JUMPDEST SWAP4 SWAP3 POP POP POP JUMP JUMPDEST PUSH1 0x0 DUP1 DUP4 PUSH1 0x1F DUP5 ADD SLT PUSH2 0xDB4 JUMPI PUSH1 0x0 DUP1 REVERT JUMPDEST POP DUP2 CALLDATALOAD PUSH8 0xFFFFFFFFFFFFFFFF DUP2 GT ISZERO PUSH2 0xDCC JUMPI PUSH1 0x0 DUP1 REVERT JUMPDEST PUSH1 0x20 DUP4 ADD SWAP2 POP DUP4 PUSH1 0x20 DUP3 PUSH1 0x5 SHL DUP6 ADD ADD GT ISZERO PUSH2 0xDE7 JUMPI PUSH1 0x0 DUP1 REVERT JUMPDEST SWAP3 POP SWAP3 SWAP1 POP JUMP JUMPDEST PUSH1 0x0 DUP1 PUSH1 0x0 DUP1 PUSH1 0x0 DUP1 PUSH1 0x0 DUP1 PUSH1 0x0 PUSH1 0xA0 DUP11 DUP13 SUB SLT ISZERO PUSH2 0xE0C JUMPI PUSH1 0x0 DUP1 REVERT JUMPDEST DUP10 CALLDATALOAD PUSH8 0xFFFFFFFFFFFFFFFF DUP1 DUP3 GT ISZERO PUSH2 0xE24 JUMPI PUSH1 0x0 DUP1 REVERT JUMPDEST PUSH2 0xE30 DUP14 DUP4 DUP15 ADD PUSH2 0xDA2 JUMP JUMPDEST SWAP1 SWAP12 POP SWAP10 POP PUSH1 0x20 DUP13 ADD CALLDATALOAD SWAP2 POP DUP1 DUP3 GT ISZERO PUSH2 0xE49 JUMPI PUSH1 0x0 DUP1 REVERT JUMPDEST PUSH2 0xE55 DUP14 DUP4 DUP15 ADD PUSH2 0xDA2 JUMP JUMPDEST SWAP1 SWAP10 POP SWAP8 POP PUSH1 0x40 DUP13 ADD CALLDATALOAD SWAP2 POP DUP1 DUP3 GT ISZERO PUSH2 0xE6E JUMPI PUSH1 0x0 DUP1 REVERT JUMPDEST PUSH2 0xE7A DUP14 DUP4 DUP15 ADD PUSH2 0xDA2 JUMP JUMPDEST SWAP1 SWAP8 POP SWAP6 POP PUSH1 0x60 DUP13 ADD CALLDATALOAD SWAP2 POP PUSH2 0xE8F DUP3 PUSH2 0xD69 JUMP JUMPDEST SWAP1 SWAP4 POP PUSH1 0x80 DUP12 ADD CALLDATALOAD SWAP1 DUP1 DUP3 GT ISZERO PUSH2 0xEA5 JUMPI PUSH1 0x0 DUP1 REVERT JUMPDEST DUP2 DUP13 ADD SWAP2 POP DUP13 PUSH1 0x1F DUP4 ADD SLT PUSH2 0xEB9 JUMPI PUSH1 0x0 DUP1 REVERT JUMPDEST DUP2 CALLDATALOAD DUP2 DUP2 GT ISZERO PUSH2 0xEC8 JUMPI PUSH1 0x0 DUP1 REVERT JUMPDEST DUP14 PUSH1 0x20 DUP3 DUP6 ADD ADD GT ISZERO PUSH2 0xEDA JUMPI PUSH1 0x0 DUP1 REVERT JUMPDEST PUSH1 0x20 DUP4 ADD SWAP5 POP DUP1 SWAP4 POP POP POP POP SWAP3 SWAP6 SWAP9 POP SWAP3 SWAP6 SWAP9 POP SWAP3 SWAP6 SWAP9 JUMP JUMPDEST DUP1 CALLDATALOAD PUSH1 0xFF DUP2 AND DUP2 EQ PUSH2 0x2F9 JUMPI PUSH1 0x0 DUP1 REVERT JUMPDEST DUP1 CALLDATALOAD PUSH3 0xFFFFFF DUP2 AND DUP2 EQ PUSH2 0x2F9 JUMPI PUSH1 0x0 DUP1 REVERT JUMPDEST PUSH1 0x0 DUP1 PUSH1 0x0 DUP1 PUSH1 0x0 DUP1 PUSH1 0x0 PUSH1 0xE0 DUP9 DUP11 SUB SLT ISZERO PUSH2 0xF32 JUMPI PUSH1 0x0 DUP1 REVERT JUMPDEST DUP8 CALLDATALOAD PUSH2 0xF3D DUP2 PUSH2 0xD69 JUMP JUMPDEST SWAP7 POP PUSH1 0x20 DUP9 ADD CALLDATALOAD PUSH2 0xF4D DUP2 PUSH2 0xD69 JUMP JUMPDEST SWAP6 POP PUSH2 0xF5B PUSH1 0x40 DUP10 ADD PUSH2 0xEF3 JUMP JUMPDEST SWAP5 POP PUSH2 0xF69 PUSH1 0x60 DUP10 ADD PUSH2 0xF04 JUMP JUMPDEST SWAP7 SWAP10 SWAP6 SWAP9 POP SWAP4 SWAP7 PUSH1 0x80 DUP2 ADD CALLDATALOAD SWAP6 PUSH1 0xA0 DUP3 ADD CALLDATALOAD SWAP6 POP PUSH1 0xC0 SWAP1 SWAP2 ADD CALLDATALOAD SWAP4 POP SWAP2 POP POP JUMP JUMPDEST PUSH1 0x0 PUSH1 0x20 DUP3 DUP5 SUB SLT ISZERO PUSH2 0xF9C JUMPI PUSH1 0x0 DUP1 REVERT JUMPDEST POP MLOAD SWAP2 SWAP1 POP JUMP JUMPDEST PUSH4 0x4E487B71 PUSH1 0xE0 SHL PUSH1 0x0 MSTORE PUSH1 0x32 PUSH1 0x4 MSTORE PUSH1 0x24 PUSH1 0x0 REVERT JUMPDEST PUSH4 0x4E487B71 PUSH1 0xE0 SHL PUSH1 0x0 MSTORE PUSH1 0x11 PUSH1 0x4 MSTORE PUSH1 0x24 PUSH1 0x0 REVERT JUMPDEST PUSH1 0x0 DUP3 NOT DUP3 GT ISZERO PUSH2 0xFE2 JUMPI PUSH2 0xFE2 PUSH2 0xFB9 JUMP JUMPDEST POP ADD SWAP1 JUMP JUMPDEST PUSH1 0x0 PUSH1 0x0 NOT DUP3 EQ ISZERO PUSH2 0xFFB JUMPI PUSH2 0xFFB PUSH2 0xFB9 JUMP JUMPDEST POP PUSH1 0x1 ADD SWAP1 JUMP JUMPDEST PUSH4 0x4E487B71 PUSH1 0xE0 SHL PUSH1 0x0 MSTORE PUSH1 0x41 PUSH1 0x4 MSTORE PUSH1 0x24 PUSH1 0x0 REVERT JUMPDEST PUSH1 0x0 DUP2 MLOAD DUP1 DUP5 MSTORE PUSH1 0x20 DUP1 DUP6 ADD SWAP5 POP DUP1 DUP5 ADD PUSH1 0x0 JUMPDEST DUP4 DUP2 LT ISZERO PUSH2 0x1051 JUMPI DUP2 MLOAD PUSH1 0x1 PUSH1 0x1 PUSH1 0xA0 SHL SUB AND DUP8 MSTORE SWAP6 DUP3 ADD SWAP6 SWAP1 DUP3 ADD SWAP1 PUSH1 0x1 ADD PUSH2 0x102C JUMP JUMPDEST POP SWAP5 SWAP6 SWAP5 POP POP POP POP POP JUMP JUMPDEST PUSH1 0x0 DUP2 MLOAD DUP1 DUP5 MSTORE PUSH1 0x20 DUP1 DUP6 ADD SWAP5 POP DUP1 DUP5 ADD PUSH1 0x0 JUMPDEST DUP4 DUP2 LT ISZERO PUSH2 0x1051 JUMPI DUP2 MLOAD DUP8 MSTORE SWAP6 DUP3 ADD SWAP6 SWAP1 DUP3 ADD SWAP1 PUSH1 0x1 ADD PUSH2 0x1070 JUMP JUMPDEST PUSH1 0x0 JUMPDEST DUP4 DUP2 LT ISZERO PUSH2 0x10A7 JUMPI DUP2 DUP2 ADD MLOAD DUP4 DUP3 ADD MSTORE PUSH1 0x20 ADD PUSH2 0x108F JUMP JUMPDEST DUP4 DUP2 GT ISZERO PUSH2 0x10B6 JUMPI PUSH1 0x0 DUP5 DUP5 ADD MSTORE JUMPDEST POP POP POP POP JUMP JUMPDEST PUSH1 0x0 PUSH1 0x1 PUSH1 0x1 PUSH1 0xA0 SHL SUB DUP1 DUP11 AND DUP4 MSTORE PUSH1 0xE0 PUSH1 0x20 DUP5 ADD MSTORE PUSH2 0x10DF PUSH1 0xE0 DUP5 ADD DUP11 PUSH2 0x1018 JUMP JUMPDEST DUP4 DUP2 SUB PUSH1 0x40 DUP6 ADD MSTORE PUSH2 0x10F1 DUP2 DUP11 PUSH2 0x105C JUMP JUMPDEST SWAP1 POP DUP4 DUP2 SUB PUSH1 0x60 DUP6 ADD MSTORE PUSH2 0x1105 DUP2 DUP10 PUSH2 0x105C JUMP JUMPDEST SWAP2 DUP8 AND PUSH1 0x80 DUP6 ADD MSTORE POP DUP3 DUP2 SUB PUSH1 0xA0 DUP5 ADD MSTORE DUP5 MLOAD DUP1 DUP3 MSTORE SWAP1 PUSH2 0x112D DUP3 PUSH1 0x20 DUP1 DUP5 ADD SWAP1 DUP10 ADD PUSH2 0x108C JUMP JUMPDEST PUSH2 0xFFFF SWAP5 SWAP1 SWAP5 AND PUSH1 0xC0 SWAP4 SWAP1 SWAP4 ADD SWAP3 SWAP1 SWAP3 MSTORE POP PUSH1 0x1F ADD PUSH1 0x1F NOT AND ADD PUSH1 0x20 ADD SWAP7 SWAP6 POP POP POP POP POP POP JUMP JUMPDEST PUSH1 0x0 DUP3 MLOAD PUSH2 0x1166 DUP2 DUP5 PUSH1 0x20 DUP8 ADD PUSH2 0x108C JUMP JUMPDEST SWAP2 SWAP1 SWAP2 ADD SWAP3 SWAP2 POP POP JUMP JUMPDEST PUSH1 0x0 PUSH1 0x20 DUP3 DUP5 SUB SLT ISZERO PUSH2 0x1182 JUMPI PUSH1 0x0 DUP1 REVERT JUMPDEST DUP2 MLOAD DUP1 ISZERO ISZERO DUP2 EQ PUSH2 0xD9B JUMPI PUSH1 0x0 DUP1 REVERT JUMPDEST DUP6 DUP2 MSTORE DUP5 PUSH1 0x20 DUP3 ADD MSTORE PUSH1 0xA0 PUSH1 0x40 DUP3 ADD MSTORE PUSH1 0x0 PUSH2 0x11B1 PUSH1 0xA0 DUP4 ADD DUP7 PUSH2 0x1018 JUMP JUMPDEST PUSH1 0x1 PUSH1 0x1 PUSH1 0xA0 SHL SUB SWAP5 SWAP1 SWAP5 AND PUSH1 0x60 DUP4 ADD MSTORE POP PUSH1 0x80 ADD MSTORE SWAP4 SWAP3 POP POP POP JUMP JUMPDEST PUSH1 0x0 PUSH1 0x20 DUP1 DUP4 DUP6 SUB SLT ISZERO PUSH2 0x11E1 JUMPI PUSH1 0x0 DUP1 REVERT JUMPDEST DUP3 MLOAD PUSH8 0xFFFFFFFFFFFFFFFF DUP1 DUP3 GT ISZERO PUSH2 0x11F9 JUMPI PUSH1 0x0 DUP1 REVERT JUMPDEST DUP2 DUP6 ADD SWAP2 POP DUP6 PUSH1 0x1F DUP4 ADD SLT PUSH2 0x120D JUMPI PUSH1 0x0 DUP1 REVERT JUMPDEST DUP2 MLOAD DUP2 DUP2 GT ISZERO PUSH2 0x121F JUMPI PUSH2 0x121F PUSH2 0x1002 JUMP JUMPDEST DUP1 PUSH1 0x5 SHL PUSH1 0x40 MLOAD PUSH1 0x1F NOT PUSH1 0x3F DUP4 ADD AND DUP2 ADD DUP2 DUP2 LT DUP6 DUP3 GT OR ISZERO PUSH2 0x1244 JUMPI PUSH2 0x1244 PUSH2 0x1002 JUMP JUMPDEST PUSH1 0x40 MSTORE SWAP2 DUP3 MSTORE DUP5 DUP3 ADD SWAP3 POP DUP4 DUP2 ADD DUP6 ADD SWAP2 DUP9 DUP4 GT ISZERO PUSH2 0x1262 JUMPI PUSH1 0x0 DUP1 REVERT JUMPDEST SWAP4 DUP6 ADD SWAP4 JUMPDEST DUP3 DUP6 LT ISZERO PUSH2 0x1280 JUMPI DUP5 MLOAD DUP5 MSTORE SWAP4 DUP6 ADD SWAP4 SWAP3 DUP6 ADD SWAP3 PUSH2 0x1267 JUMP JUMPDEST SWAP9 SWAP8 POP POP POP POP POP POP POP POP JUMP INVALID LOG2 PUSH5 0x6970667358 0x22 SLT KECCAK256 0xB4 DUP8 RETURN NUMBER 0xED 0x2D LT SELFBALANCE LOG3 PUSH3 0xD23030 0xC9 0xBD BASEFEE EXTCODECOPY PUSH7 0xE51E2F8AFE007E 0xC4 SWAP13 MSTORE DUP16 LOG0 0xBB DUP14 PUSH5 0x736F6C6343 STOP ADDMOD EXP STOP CALLER "
				},
				"gasEstimates": {
					"creation": {
						"codeDepositCost": "960400",
						"executionCost": "infinite",
						"totalCost": "infinite"
					},
					"external": {
						"ADDRESSES_PROVIDER()": "infinite",
						"POOL()": "infinite",
						"executeOperation(address[],uint256[],uint256[],address,bytes)": "infinite",
						"getOwner()": "2320",
						"myFlashLoanCall(address,address,uint8,uint24,uint256,uint256,uint256)": "infinite",
						"transferOwnership(address)": "26756",
						"withdraw()": "infinite",
						"withdrawERC20Token(address)": "infinite"
					},
					"internal": {
						"sushiSwapExactInputSingle(uint256,uint256,address[] memory,uint256)": "infinite",
						"swapERC20Tokens(bytes calldata)": "infinite",
						"uniSwapExactInputSingle(uint256,uint256,address,address,uint24)": "infinite"
					}
				},
				"methodIdentifiers": {
					"ADDRESSES_PROVIDER()": "0542975c",
					"POOL()": "7535d246",
					"executeOperation(address[],uint256[],uint256[],address,bytes)": "920f5c84",
					"getOwner()": "893d20e8",
					"myFlashLoanCall(address,address,uint8,uint24,uint256,uint256,uint256)": "c2d22207",
					"transferOwnership(address)": "f2fde38b",
					"withdraw()": "3ccfd60b",
					"withdrawERC20Token(address)": "3bdebbe1"
				}
			},
			"userdoc": {
				"kind": "user",
				"methods": {
					"constructor": {
						"notice": "Intantiate lending pool addresses provider and get lending pool address"
					},
					"executeOperation(address[],uint256[],uint256[],address,bytes)": {
						"notice": "This function is called after your contract has received the flash loaned amount"
					},
					"getOwner()": {
						"notice": "Function to get owner information that keeps  the owner variable private."
					},
					"myFlashLoanCall(address,address,uint8,uint24,uint256,uint256,uint256)": {
						"notice": "This is the function that starts the flash loan."
					},
					"transferOwnership(address)": {
						"notice": "Change the owner of the contract."
					},
					"withdraw()": {
						"notice": "Withdraw function to be used in case any funds are left over."
					},
					"withdrawERC20Token(address)": {
						"notice": "Withdraw provided ERC20 token."
					}
				},
				"notice": "Contract to call a Flash Loan and make token swaps from UniSwap and SushiSwap. The direction of which to use first can be controlled by providing a 1 to start with UniSwap or any other number acceptable for uint8 to  start with SushiSwap.",
				"version": 1
			}
		}
	}
}