{
	"src/contracts/AaveFlashLoanV3Factory.sol": {
		"AaveFlashLoanV3Factory": {
			"abi": [
				{
					"inputs": [
						{
							"internalType": "contract IPoolAddressesProvider",
							"name": "_addressProvider",
							"type": "address"
						},
						{
							"internalType": "contract ISwapRouter",
							"name": "_uniSwapRouter",
							"type": "address"
						},
						{
							"internalType": "contract IUniswapV2Router02",
							"name": "_sushiRouter",
							"type": "address"
						},
						{
							"internalType": "contract IChainLinkOracle",
							"name": "_oracle",
							"type": "address"
						}
					],
					"stateMutability": "nonpayable",
					"type": "constructor"
				},
				{
					"inputs": [],
					"name": "addressProvider",
					"outputs": [
						{
							"internalType": "contract IPoolAddressesProvider",
							"name": "",
							"type": "address"
						}
					],
					"stateMutability": "view",
					"type": "function"
				},
				{
					"inputs": [],
					"name": "chainLinkOracle",
					"outputs": [
						{
							"internalType": "contract IChainLinkOracle",
							"name": "",
							"type": "address"
						}
					],
					"stateMutability": "view",
					"type": "function"
				},
				{
					"inputs": [
						{
							"internalType": "uint256",
							"name": "setAmount",
							"type": "uint256"
						}
					],
					"name": "changeUSDAmount",
					"outputs": [],
					"stateMutability": "nonpayable",
					"type": "function"
				},
				{
					"inputs": [],
					"name": "createNewFlashLoanContract",
					"outputs": [
						{
							"internalType": "address",
							"name": "",
							"type": "address"
						}
					],
					"stateMutability": "payable",
					"type": "function"
				},
				{
					"inputs": [],
					"name": "getAmountOfFlashLoansCreated",
					"outputs": [
						{
							"internalType": "uint256",
							"name": "amountCreated",
							"type": "uint256"
						}
					],
					"stateMutability": "view",
					"type": "function"
				},
				{
					"inputs": [
						{
							"internalType": "address",
							"name": "creatorAddress",
							"type": "address"
						}
					],
					"name": "getFlashLoanContract",
					"outputs": [
						{
							"internalType": "address",
							"name": "flashLoanContractAddress",
							"type": "address"
						}
					],
					"stateMutability": "view",
					"type": "function"
				},
				{
					"inputs": [],
					"name": "getMaticValueNeededForNewContract",
					"outputs": [
						{
							"internalType": "uint256",
							"name": "amountNeeded",
							"type": "uint256"
						}
					],
					"stateMutability": "view",
					"type": "function"
				},
				{
					"inputs": [],
					"name": "getOwner",
					"outputs": [
						{
							"internalType": "address",
							"name": "",
							"type": "address"
						}
					],
					"stateMutability": "view",
					"type": "function"
				},
				{
					"inputs": [],
					"name": "sushiRouter",
					"outputs": [
						{
							"internalType": "contract IUniswapV2Router02",
							"name": "",
							"type": "address"
						}
					],
					"stateMutability": "view",
					"type": "function"
				},
				{
					"inputs": [],
					"name": "uniSwapRouter",
					"outputs": [
						{
							"internalType": "contract ISwapRouter",
							"name": "",
							"type": "address"
						}
					],
					"stateMutability": "view",
					"type": "function"
				},
				{
					"inputs": [],
					"name": "withdraw",
					"outputs": [],
					"stateMutability": "payable",
					"type": "function"
				}
			],
			"devdoc": {
				"kind": "dev",
				"methods": {},
				"version": 1
			},
			"evm": {
				"assembly": "    /* \"src/contracts/AaveFlashLoanV3Factory.sol\":377:5281  contract AaveFlashLoanV3Factory {... */\n  mstore(0x40, 0x0100)\n    /* \"src/contracts/AaveFlashLoanV3Factory.sol\":841:843  50 */\n  0x32\n    /* \"src/contracts/AaveFlashLoanV3Factory.sol\":821:843  uint256 usdAmount = 50 */\n  0x01\n  sstore\n    /* \"src/contracts/AaveFlashLoanV3Factory.sol\":1202:1540  constructor(IPoolAddressesProvider _addressProvider, ISwapRouter _uniSwapRouter, IUniswapV2Router02 _sushiRouter, IChainLinkOracle _oracle){... */\n  callvalue\n  dup1\n  iszero\n  tag_1\n  jumpi\n  0x00\n  dup1\n  revert\ntag_1:\n  pop\n  mload(0x40)\n  sub(codesize, bytecodeSize)\n  dup1\n  bytecodeSize\n  dup4\n  codecopy\n  dup2\n  add\n  0x40\n  dup2\n  swap1\n  mstore\n  tag_2\n  swap2\n  tag_3\n  jump\t// in\ntag_2:\n    /* \"src/contracts/AaveFlashLoanV3Factory.sol\":1367:1377  msg.sender */\n  caller\n    /* \"src/contracts/AaveFlashLoanV3Factory.sol\":1351:1378  owner = address(msg.sender) */\n  0xe0\n  mstore\n    /* \"src/contracts/AaveFlashLoanV3Factory.sol\":1388:1403  addressProvider */\n  0x00\n    /* \"src/contracts/AaveFlashLoanV3Factory.sol\":1388:1422  addressProvider = _addressProvider */\n  dup1\n  sload\n  not(sub(shl(0xa0, 0x01), 0x01))\n  and\n  sub(shl(0xa0, 0x01), 0x01)\n  swap6\n  dup7\n  and\n  or\n  swap1\n  sstore\n    /* \"src/contracts/AaveFlashLoanV3Factory.sol\":1432:1462  uniSwapRouter = _uniSwapRouter */\n  swap2\n  dup4\n  and\n  0x80\n  mstore\n    /* \"src/contracts/AaveFlashLoanV3Factory.sol\":1472:1498  sushiRouter = _sushiRouter */\n  dup3\n  and\n  0xa0\n  mstore\n    /* \"src/contracts/AaveFlashLoanV3Factory.sol\":1508:1533  chainLinkOracle = _oracle */\n  and\n  0xc0\n  mstore\n    /* \"src/contracts/AaveFlashLoanV3Factory.sol\":377:5281  contract AaveFlashLoanV3Factory {... */\n  jump(tag_8)\n    /* \"#utility.yul\":14:169   */\ntag_7:\n  sub(shl(0xa0, 0x01), 0x01)\n    /* \"#utility.yul\":113:144   */\n  dup2\n  and\n    /* \"#utility.yul\":103:145   */\n  dup2\n  eq\n    /* \"#utility.yul\":93:163   */\n  tag_10\n  jumpi\n    /* \"#utility.yul\":159:160   */\n  0x00\n    /* \"#utility.yul\":156:157   */\n  dup1\n    /* \"#utility.yul\":149:161   */\n  revert\n    /* \"#utility.yul\":93:163   */\ntag_10:\n    /* \"#utility.yul\":14:169   */\n  pop\n  jump\t// out\n    /* \"#utility.yul\":174:1025   */\ntag_3:\n    /* \"#utility.yul\":372:378   */\n  0x00\n    /* \"#utility.yul\":380:386   */\n  dup1\n    /* \"#utility.yul\":388:394   */\n  0x00\n    /* \"#utility.yul\":396:402   */\n  dup1\n    /* \"#utility.yul\":449:452   */\n  0x80\n    /* \"#utility.yul\":437:446   */\n  dup6\n    /* \"#utility.yul\":428:435   */\n  dup8\n    /* \"#utility.yul\":424:447   */\n  sub\n    /* \"#utility.yul\":420:453   */\n  slt\n    /* \"#utility.yul\":417:470   */\n  iszero\n  tag_12\n  jumpi\n    /* \"#utility.yul\":466:467   */\n  0x00\n    /* \"#utility.yul\":463:464   */\n  dup1\n    /* \"#utility.yul\":456:468   */\n  revert\n    /* \"#utility.yul\":417:470   */\ntag_12:\n    /* \"#utility.yul\":498:507   */\n  dup5\n    /* \"#utility.yul\":492:508   */\n  mload\n    /* \"#utility.yul\":517:572   */\n  tag_13\n    /* \"#utility.yul\":566:571   */\n  dup2\n    /* \"#utility.yul\":517:572   */\n  tag_7\n  jump\t// in\ntag_13:\n    /* \"#utility.yul\":641:643   */\n  0x20\n    /* \"#utility.yul\":626:644   */\n  dup7\n  add\n    /* \"#utility.yul\":620:645   */\n  mload\n    /* \"#utility.yul\":591:596   */\n  swap1\n  swap5\n  pop\n    /* \"#utility.yul\":654:711   */\n  tag_14\n    /* \"#utility.yul\":620:645   */\n  dup2\n    /* \"#utility.yul\":654:711   */\n  tag_7\n  jump\t// in\ntag_14:\n    /* \"#utility.yul\":782:784   */\n  0x40\n    /* \"#utility.yul\":767:785   */\n  dup7\n  add\n    /* \"#utility.yul\":761:786   */\n  mload\n    /* \"#utility.yul\":730:737   */\n  swap1\n  swap4\n  pop\n    /* \"#utility.yul\":795:852   */\n  tag_15\n    /* \"#utility.yul\":761:786   */\n  dup2\n    /* \"#utility.yul\":795:852   */\n  tag_7\n  jump\t// in\ntag_15:\n    /* \"#utility.yul\":923:925   */\n  0x60\n    /* \"#utility.yul\":908:926   */\n  dup7\n  add\n    /* \"#utility.yul\":902:927   */\n  mload\n    /* \"#utility.yul\":871:878   */\n  swap1\n  swap3\n  pop\n    /* \"#utility.yul\":936:993   */\n  tag_16\n    /* \"#utility.yul\":902:927   */\n  dup2\n    /* \"#utility.yul\":936:993   */\n  tag_7\n  jump\t// in\ntag_16:\n    /* \"#utility.yul\":174:1025   */\n  swap4\n  swap7\n  swap3\n  swap6\n  pop\n  swap1\n  swap4\n  pop\n  pop\n  jump\t// out\ntag_8:\n    /* \"src/contracts/AaveFlashLoanV3Factory.sol\":377:5281  contract AaveFlashLoanV3Factory {... */\n  mload(0x80)\n  mload(0xa0)\n  mload(0xc0)\n  mload(0xe0)\n  codecopy(0x00, dataOffset(sub_0), dataSize(sub_0))\n  0x00\n  assignImmutable(\"0x700a1a51c97d506a873788d0be869a361a18b142387893f46aa35bd12cd1e37a\")\n  0x00\n  assignImmutable(\"0xdfd5b67accb2b5378e5d1ab05aca948173df65480c2f498125aa6b2e89895207\")\n  0x00\n  assignImmutable(\"0x0e830b0a12e88dee0360860b186c17dc108e02e0711604618c3c2016189dd4eb\")\n  0x00\n  assignImmutable(\"0xddba2e4dd16941be3be37d7360908dec72f39b8f7acfaefe7e9595b923ce3602\")\n  return(0x00, dataSize(sub_0))\nstop\n\nsub_0: assembly {\n        /* \"src/contracts/AaveFlashLoanV3Factory.sol\":377:5281  contract AaveFlashLoanV3Factory {... */\n      mstore(0x40, 0x80)\n      jumpi(tag_1, lt(calldatasize, 0x04))\n      shr(0xe0, calldataload(0x00))\n      dup1\n      0x5d01ff3d\n      gt\n      tag_13\n      jumpi\n      dup1\n      0x83770881\n      gt\n      tag_14\n      jumpi\n      dup1\n      0x83770881\n      eq\n      tag_10\n      jumpi\n      dup1\n      0x893d20e8\n      eq\n      tag_11\n      jumpi\n      dup1\n      0xc20b4395\n      eq\n      tag_12\n      jumpi\n      0x00\n      dup1\n      revert\n    tag_14:\n      dup1\n      0x5d01ff3d\n      eq\n      tag_7\n      jumpi\n      dup1\n      0x6d13582c\n      eq\n      tag_8\n      jumpi\n      dup1\n      0x78cd62c5\n      eq\n      tag_9\n      jumpi\n      0x00\n      dup1\n      revert\n    tag_13:\n      dup1\n      0x2954018c\n      gt\n      tag_15\n      jumpi\n      dup1\n      0x2954018c\n      eq\n      tag_4\n      jumpi\n      dup1\n      0x39ab4a24\n      eq\n      tag_5\n      jumpi\n      dup1\n      0x3ccfd60b\n      eq\n      tag_6\n      jumpi\n      0x00\n      dup1\n      revert\n    tag_15:\n      dup1\n      0x049211a8\n      eq\n      tag_2\n      jumpi\n      dup1\n      0x23ceb29a\n      eq\n      tag_3\n      jumpi\n    tag_1:\n      0x00\n      dup1\n      revert\n        /* \"src/contracts/AaveFlashLoanV3Factory.sol\":4610:4802  function getFlashLoanContract(address creatorAddress) view external returns(address flashLoanContractAddress){... */\n    tag_2:\n      callvalue\n      dup1\n      iszero\n      tag_16\n      jumpi\n      0x00\n      dup1\n      revert\n    tag_16:\n      pop\n      tag_17\n      tag_18\n      calldatasize\n      0x04\n      tag_19\n      jump\t// in\n    tag_18:\n      sub(shl(0xa0, 0x01), 0x01)\n        /* \"src/contracts/AaveFlashLoanV3Factory.sol\":4756:4795  AaveFlashLoanV3Mappings[creatorAddress] */\n      swap1\n      dup2\n      and\n        /* \"src/contracts/AaveFlashLoanV3Factory.sol\":4686:4718  address flashLoanContractAddress */\n      0x00\n        /* \"src/contracts/AaveFlashLoanV3Factory.sol\":4756:4795  AaveFlashLoanV3Mappings[creatorAddress] */\n      swap1\n      dup2\n      mstore\n        /* \"src/contracts/AaveFlashLoanV3Factory.sol\":4756:4779  AaveFlashLoanV3Mappings */\n      0x02\n        /* \"src/contracts/AaveFlashLoanV3Factory.sol\":4756:4795  AaveFlashLoanV3Mappings[creatorAddress] */\n      0x20\n      mstore\n      0x40\n      swap1\n      keccak256\n      sload\n      and\n      swap1\n        /* \"src/contracts/AaveFlashLoanV3Factory.sol\":4610:4802  function getFlashLoanContract(address creatorAddress) view external returns(address flashLoanContractAddress){... */\n      jump\n    tag_17:\n      mload(0x40)\n      sub(shl(0xa0, 0x01), 0x01)\n        /* \"#utility.yul\":492:547   */\n      swap1\n      swap2\n      and\n        /* \"#utility.yul\":474:548   */\n      dup2\n      mstore\n        /* \"#utility.yul\":462:464   */\n      0x20\n        /* \"#utility.yul\":447:465   */\n      add\n        /* \"src/contracts/AaveFlashLoanV3Factory.sol\":4610:4802  function getFlashLoanContract(address creatorAddress) view external returns(address flashLoanContractAddress){... */\n    tag_21:\n      mload(0x40)\n      dup1\n      swap2\n      sub\n      swap1\n      return\n        /* \"src/contracts/AaveFlashLoanV3Factory.sol\":5178:5279  function changeUSDAmount(uint256 setAmount) external onlyOwner {... */\n    tag_3:\n      callvalue\n      dup1\n      iszero\n      tag_23\n      jumpi\n      0x00\n      dup1\n      revert\n    tag_23:\n      pop\n      tag_24\n      tag_25\n      calldatasize\n      0x04\n      tag_26\n      jump\t// in\n    tag_25:\n      tag_27\n      jump\t// in\n    tag_24:\n      stop\n        /* \"src/contracts/AaveFlashLoanV3Factory.sol\":489:534  IPoolAddressesProvider public addressProvider */\n    tag_4:\n      callvalue\n      dup1\n      iszero\n      tag_28\n      jumpi\n      0x00\n      dup1\n      revert\n    tag_28:\n      pop\n      sload(0x00)\n      tag_17\n      swap1\n      sub(shl(0xa0, 0x01), 0x01)\n      and\n      dup2\n      jump\n        /* \"src/contracts/AaveFlashLoanV3Factory.sol\":4910:5034  function getAmountOfFlashLoansCreated() view external returns(uint256 amountCreated){... */\n    tag_5:\n      callvalue\n      dup1\n      iszero\n      tag_33\n      jumpi\n      0x00\n      dup1\n      revert\n    tag_33:\n      pop\n        /* \"src/contracts/AaveFlashLoanV3Factory.sol\":5020:5027  mapSize */\n      sload(0x03)\n        /* \"src/contracts/AaveFlashLoanV3Factory.sol\":4910:5034  function getAmountOfFlashLoansCreated() view external returns(uint256 amountCreated){... */\n    tag_34:\n      mload(0x40)\n        /* \"#utility.yul\":1152:1177   */\n      swap1\n      dup2\n      mstore\n        /* \"#utility.yul\":1140:1142   */\n      0x20\n        /* \"#utility.yul\":1125:1143   */\n      add\n        /* \"src/contracts/AaveFlashLoanV3Factory.sol\":4910:5034  function getAmountOfFlashLoansCreated() view external returns(uint256 amountCreated){... */\n      tag_21\n        /* \"#utility.yul\":1006:1183   */\n      jump\n        /* \"src/contracts/AaveFlashLoanV3Factory.sol\":4128:4305  function withdraw() external payable onlyOwner(){... */\n    tag_6:\n      tag_24\n      tag_39\n      jump\t// in\n        /* \"src/contracts/AaveFlashLoanV3Factory.sol\":540:582  ISwapRouter public immutable uniSwapRouter */\n    tag_7:\n      callvalue\n      dup1\n      iszero\n      tag_40\n      jumpi\n      0x00\n      dup1\n      revert\n    tag_40:\n      pop\n      tag_17\n      immutable(\"0xddba2e4dd16941be3be37d7360908dec72f39b8f7acfaefe7e9595b923ce3602\")\n      dup2\n      jump\n        /* \"src/contracts/AaveFlashLoanV3Factory.sol\":588:635  IUniswapV2Router02 public immutable sushiRouter */\n    tag_8:\n      callvalue\n      dup1\n      iszero\n      tag_45\n      jumpi\n      0x00\n      dup1\n      revert\n    tag_45:\n      pop\n      tag_17\n      immutable(\"0x0e830b0a12e88dee0360860b186c17dc108e02e0711604618c3c2016189dd4eb\")\n      dup2\n      jump\n        /* \"src/contracts/AaveFlashLoanV3Factory.sol\":766:815  IChainLinkOracle public immutable chainLinkOracle */\n    tag_9:\n      callvalue\n      dup1\n      iszero\n      tag_50\n      jumpi\n      0x00\n      dup1\n      revert\n    tag_50:\n      pop\n      tag_17\n      immutable(\"0xdfd5b67accb2b5378e5d1ab05aca948173df65480c2f498125aa6b2e89895207\")\n      dup2\n      jump\n        /* \"src/contracts/AaveFlashLoanV3Factory.sol\":1882:2111  function getMaticValueNeededForNewContract() view public returns(uint256 amountNeeded){... */\n    tag_10:\n      callvalue\n      dup1\n      iszero\n      tag_55\n      jumpi\n      0x00\n      dup1\n      revert\n    tag_55:\n      pop\n      tag_34\n      tag_57\n      jump\t// in\n        /* \"src/contracts/AaveFlashLoanV3Factory.sol\":4416:4505  function getOwner() view external returns (address){... */\n    tag_11:\n      callvalue\n      dup1\n      iszero\n      tag_59\n      jumpi\n      0x00\n      dup1\n      revert\n    tag_59:\n      pop\n        /* \"src/contracts/AaveFlashLoanV3Factory.sol\":4492:4497  owner */\n      immutable(\"0x700a1a51c97d506a873788d0be869a361a18b142387893f46aa35bd12cd1e37a\")\n        /* \"src/contracts/AaveFlashLoanV3Factory.sol\":4416:4505  function getOwner() view external returns (address){... */\n      jump(tag_17)\n        /* \"src/contracts/AaveFlashLoanV3Factory.sol\":2309:3975  function createNewFlashLoanContract() public payable returns (address){... */\n    tag_12:\n      tag_17\n      tag_64\n      jump\t// in\n        /* \"src/contracts/AaveFlashLoanV3Factory.sol\":5178:5279  function changeUSDAmount(uint256 setAmount) external onlyOwner {... */\n    tag_27:\n        /* \"src/contracts/AaveFlashLoanV3Factory.sol\":1699:1709  msg.sender */\n      caller\n      sub(shl(0xa0, 0x01), 0x01)\n        /* \"src/contracts/AaveFlashLoanV3Factory.sol\":1714:1719  owner */\n      immutable(\"0x700a1a51c97d506a873788d0be869a361a18b142387893f46aa35bd12cd1e37a\")\n        /* \"src/contracts/AaveFlashLoanV3Factory.sol\":1691:1719  address(msg.sender) == owner */\n      and\n      eq\n        /* \"src/contracts/AaveFlashLoanV3Factory.sol\":1683:1720  require(address(msg.sender) == owner) */\n      tag_68\n      jumpi\n      0x00\n      dup1\n      revert\n    tag_68:\n        /* \"src/contracts/AaveFlashLoanV3Factory.sol\":5251:5260  usdAmount */\n      0x01\n        /* \"src/contracts/AaveFlashLoanV3Factory.sol\":5251:5272  usdAmount = setAmount */\n      sstore\n        /* \"src/contracts/AaveFlashLoanV3Factory.sol\":5178:5279  function changeUSDAmount(uint256 setAmount) external onlyOwner {... */\n      jump\t// out\n        /* \"src/contracts/AaveFlashLoanV3Factory.sol\":4128:4305  function withdraw() external payable onlyOwner(){... */\n    tag_39:\n        /* \"src/contracts/AaveFlashLoanV3Factory.sol\":1699:1709  msg.sender */\n      caller\n      sub(shl(0xa0, 0x01), 0x01)\n        /* \"src/contracts/AaveFlashLoanV3Factory.sol\":1714:1719  owner */\n      immutable(\"0x700a1a51c97d506a873788d0be869a361a18b142387893f46aa35bd12cd1e37a\")\n        /* \"src/contracts/AaveFlashLoanV3Factory.sol\":1691:1719  address(msg.sender) == owner */\n      and\n      eq\n        /* \"src/contracts/AaveFlashLoanV3Factory.sol\":1683:1720  require(address(msg.sender) == owner) */\n      tag_72\n      jumpi\n      0x00\n      dup1\n      revert\n    tag_72:\n        /* \"src/contracts/AaveFlashLoanV3Factory.sol\":4187:4199  bool success */\n      0x00\n        /* \"src/contracts/AaveFlashLoanV3Factory.sol\":4206:4211  owner */\n      immutable(\"0x700a1a51c97d506a873788d0be869a361a18b142387893f46aa35bd12cd1e37a\")\n      sub(shl(0xa0, 0x01), 0x01)\n        /* \"src/contracts/AaveFlashLoanV3Factory.sol\":4206:4216  owner.call */\n      and\n        /* \"src/contracts/AaveFlashLoanV3Factory.sol\":4225:4246  address(this).balance */\n      selfbalance\n        /* \"src/contracts/AaveFlashLoanV3Factory.sol\":4206:4252  owner.call{ value: address(this).balance }(\"\") */\n      mload(0x40)\n      0x00\n      mload(0x40)\n      dup1\n      dup4\n      sub\n      dup2\n      dup6\n      dup8\n      gas\n      call\n      swap3\n      pop\n      pop\n      pop\n      returndatasize\n      dup1\n      0x00\n      dup2\n      eq\n      tag_78\n      jumpi\n      mload(0x40)\n      swap2\n      pop\n      and(add(returndatasize, 0x3f), not(0x1f))\n      dup3\n      add\n      0x40\n      mstore\n      returndatasize\n      dup3\n      mstore\n      returndatasize\n      0x00\n      0x20\n      dup5\n      add\n      returndatacopy\n      jump(tag_77)\n    tag_78:\n      0x60\n      swap2\n      pop\n    tag_77:\n      pop\n        /* \"src/contracts/AaveFlashLoanV3Factory.sol\":4186:4252  (bool success, ) =  owner.call{ value: address(this).balance }(\"\") */\n      pop\n      swap1\n      pop\n        /* \"src/contracts/AaveFlashLoanV3Factory.sol\":4270:4277  success */\n      dup1\n        /* \"src/contracts/AaveFlashLoanV3Factory.sol\":4262:4298  require(success, \"Withdraw failed.\") */\n      tag_79\n      jumpi\n      mload(0x40)\n      shl(0xe5, 0x461bcd)\n      dup2\n      mstore\n        /* \"#utility.yul\":2363:2365   */\n      0x20\n        /* \"src/contracts/AaveFlashLoanV3Factory.sol\":4262:4298  require(success, \"Withdraw failed.\") */\n      0x04\n      dup3\n      add\n        /* \"#utility.yul\":2345:2366   */\n      mstore\n        /* \"#utility.yul\":2402:2404   */\n      0x10\n        /* \"#utility.yul\":2382:2400   */\n      0x24\n      dup3\n      add\n        /* \"#utility.yul\":2375:2405   */\n      mstore\n        /* \"#utility.yul\":2441:2459   */\n      0x5769746864726177206661696c65642e00000000000000000000000000000000\n        /* \"#utility.yul\":2421:2439   */\n      0x44\n      dup3\n      add\n        /* \"#utility.yul\":2414:2460   */\n      mstore\n        /* \"#utility.yul\":2477:2495   */\n      0x64\n      add\n        /* \"src/contracts/AaveFlashLoanV3Factory.sol\":4262:4298  require(success, \"Withdraw failed.\") */\n    tag_80:\n      mload(0x40)\n      dup1\n      swap2\n      sub\n      swap1\n      revert\n    tag_79:\n        /* \"src/contracts/AaveFlashLoanV3Factory.sol\":4176:4305  {... */\n      pop\n        /* \"src/contracts/AaveFlashLoanV3Factory.sol\":4128:4305  function withdraw() external payable onlyOwner(){... */\n      jump\t// out\n        /* \"src/contracts/AaveFlashLoanV3Factory.sol\":1882:2111  function getMaticValueNeededForNewContract() view public returns(uint256 amountNeeded){... */\n    tag_57:\n        /* \"src/contracts/AaveFlashLoanV3Factory.sol\":1947:1967  uint256 amountNeeded */\n      0x00\n        /* \"src/contracts/AaveFlashLoanV3Factory.sol\":1978:1998  uint256 latestAnswer */\n      dup1\n        /* \"src/contracts/AaveFlashLoanV3Factory.sol\":2009:2024  chainLinkOracle */\n      immutable(\"0xdfd5b67accb2b5378e5d1ab05aca948173df65480c2f498125aa6b2e89895207\")\n      sub(shl(0xa0, 0x01), 0x01)\n        /* \"src/contracts/AaveFlashLoanV3Factory.sol\":2009:2037  chainLinkOracle.latestAnswer */\n      and\n      0x50d25bcd\n        /* \"src/contracts/AaveFlashLoanV3Factory.sol\":2009:2039  chainLinkOracle.latestAnswer() */\n      mload(0x40)\n      dup2\n      0xffffffff\n      and\n      0xe0\n      shl\n      dup2\n      mstore\n      0x04\n      add\n      0x20\n      mload(0x40)\n      dup1\n      dup4\n      sub\n      dup2\n      dup7\n      gas\n      staticcall\n      iszero\n      dup1\n      iszero\n      tag_84\n      jumpi\n      returndatasize\n      0x00\n      dup1\n      returndatacopy\n      revert(0x00, returndatasize)\n    tag_84:\n      pop\n      pop\n      pop\n      pop\n      mload(0x40)\n      returndatasize\n      not(0x1f)\n      0x1f\n      dup3\n      add\n      and\n      dup3\n      add\n      dup1\n      0x40\n      mstore\n      pop\n      dup2\n      add\n      swap1\n      tag_85\n      swap2\n      swap1\n      tag_86\n      jump\t// in\n    tag_85:\n        /* \"src/contracts/AaveFlashLoanV3Factory.sol\":1978:2040  uint256 latestAnswer = uint256(chainLinkOracle.latestAnswer()) */\n      swap1\n      pop\n        /* \"src/contracts/AaveFlashLoanV3Factory.sol\":2085:2097  latestAnswer */\n      dup1\n        /* \"src/contracts/AaveFlashLoanV3Factory.sol\":2067:2076  usdAmount */\n      sload(0x01)\n        /* \"src/contracts/AaveFlashLoanV3Factory.sol\":2077:2083  10**18 */\n      0x0de0b6b3a7640000\n        /* \"src/contracts/AaveFlashLoanV3Factory.sol\":2067:2083  usdAmount*10**18 */\n      tag_87\n      swap2\n      swap1\n      tag_88\n      jump\t// in\n    tag_87:\n        /* \"src/contracts/AaveFlashLoanV3Factory.sol\":2066:2097  (usdAmount*10**18)/latestAnswer */\n      tag_89\n      swap2\n      swap1\n      tag_90\n      jump\t// in\n    tag_89:\n        /* \"src/contracts/AaveFlashLoanV3Factory.sol\":2065:2104  ((usdAmount*10**18)/latestAnswer)*10**8 */\n      tag_91\n      swap1\n        /* \"src/contracts/AaveFlashLoanV3Factory.sol\":2099:2104  10**8 */\n      0x05f5e100\n        /* \"src/contracts/AaveFlashLoanV3Factory.sol\":2065:2104  ((usdAmount*10**18)/latestAnswer)*10**8 */\n      tag_88\n      jump\t// in\n    tag_91:\n        /* \"src/contracts/AaveFlashLoanV3Factory.sol\":2050:2104  amountNeeded = ((usdAmount*10**18)/latestAnswer)*10**8 */\n      swap2\n      pop\n        /* \"src/contracts/AaveFlashLoanV3Factory.sol\":1968:2111  {... */\n      pop\n        /* \"src/contracts/AaveFlashLoanV3Factory.sol\":1882:2111  function getMaticValueNeededForNewContract() view public returns(uint256 amountNeeded){... */\n      swap1\n      jump\t// out\n        /* \"src/contracts/AaveFlashLoanV3Factory.sol\":2309:3975  function createNewFlashLoanContract() public payable returns (address){... */\n    tag_64:\n        /* \"src/contracts/AaveFlashLoanV3Factory.sol\":2371:2378  address */\n      0x00\n        /* \"src/contracts/AaveFlashLoanV3Factory.sol\":2535:2545  msg.sender */\n      caller\n      sub(shl(0xa0, 0x01), 0x01)\n        /* \"src/contracts/AaveFlashLoanV3Factory.sol\":2550:2555  owner */\n      immutable(\"0x700a1a51c97d506a873788d0be869a361a18b142387893f46aa35bd12cd1e37a\")\n        /* \"src/contracts/AaveFlashLoanV3Factory.sol\":2527:2555  address(msg.sender) != owner */\n      and\n      eq\n        /* \"src/contracts/AaveFlashLoanV3Factory.sol\":2524:3454  if(address(msg.sender) != owner){... */\n      tag_94\n      jumpi\n        /* \"src/contracts/AaveFlashLoanV3Factory.sol\":2636:2653  uint256 minAmount */\n      0x00\n        /* \"src/contracts/AaveFlashLoanV3Factory.sol\":2656:2691  getMaticValueNeededForNewContract() */\n      tag_95\n        /* \"src/contracts/AaveFlashLoanV3Factory.sol\":2656:2689  getMaticValueNeededForNewContract */\n      tag_57\n        /* \"src/contracts/AaveFlashLoanV3Factory.sol\":2656:2691  getMaticValueNeededForNewContract() */\n      jump\t// in\n    tag_95:\n        /* \"src/contracts/AaveFlashLoanV3Factory.sol\":2636:2691  uint256 minAmount = getMaticValueNeededForNewContract() */\n      swap1\n      pop\n        /* \"src/contracts/AaveFlashLoanV3Factory.sol\":2787:2796  minAmount */\n      dup1\n        /* \"src/contracts/AaveFlashLoanV3Factory.sol\":2774:2783  msg.value */\n      callvalue\n        /* \"src/contracts/AaveFlashLoanV3Factory.sol\":2774:2796  msg.value >= minAmount */\n      lt\n      iszero\n        /* \"src/contracts/AaveFlashLoanV3Factory.sol\":2766:2977  require(msg.value >= minAmount, 'Need to send a minimum amount of matic to purchase flash loan contract. Any leftover funds are returned. View getMaticValueNeededForNewContract for current matic amount needed.') */\n      tag_96\n      jumpi\n      mload(0x40)\n      shl(0xe5, 0x461bcd)\n      dup2\n      mstore\n        /* \"#utility.yul\":3537:3539   */\n      0x20\n        /* \"src/contracts/AaveFlashLoanV3Factory.sol\":2766:2977  require(msg.value >= minAmount, 'Need to send a minimum amount of matic to purchase flash loan contract. Any leftover funds are returned. View getMaticValueNeededForNewContract for current matic amount needed.') */\n      0x04\n      dup3\n      add\n        /* \"#utility.yul\":3519:3540   */\n      mstore\n        /* \"#utility.yul\":3576:3579   */\n      0xb0\n        /* \"#utility.yul\":3556:3574   */\n      0x24\n      dup3\n      add\n        /* \"#utility.yul\":3549:3580   */\n      mstore\n        /* \"#utility.yul\":3616:3650   */\n      0x4e65656420746f2073656e642061206d696e696d756d20616d6f756e74206f66\n        /* \"#utility.yul\":3596:3614   */\n      0x44\n      dup3\n      add\n        /* \"#utility.yul\":3589:3651   */\n      mstore\n        /* \"#utility.yul\":3687:3721   */\n      0x206d6174696320746f20707572636861736520666c617368206c6f616e20636f\n        /* \"#utility.yul\":3667:3685   */\n      0x64\n      dup3\n      add\n        /* \"#utility.yul\":3660:3722   */\n      mstore\n        /* \"#utility.yul\":3759:3793   */\n      0x6e74726163742e20416e79206c6566746f7665722066756e6473206172652072\n        /* \"#utility.yul\":3738:3757   */\n      0x84\n      dup3\n      add\n        /* \"#utility.yul\":3731:3794   */\n      mstore\n        /* \"#utility.yul\":3831:3865   */\n      0x657475726e65642e2056696577206765744d6174696356616c75654e65656465\n        /* \"#utility.yul\":3810:3829   */\n      0xa4\n      dup3\n      add\n        /* \"#utility.yul\":3803:3866   */\n      mstore\n        /* \"#utility.yul\":3903:3937   */\n      0x64466f724e6577436f6e747261637420666f722063757272656e74206d617469\n        /* \"#utility.yul\":3882:3901   */\n      0xc4\n      dup3\n      add\n        /* \"#utility.yul\":3875:3938   */\n      mstore\n        /* \"#utility.yul\":3975:3993   */\n      0x6320616d6f756e74206e65656465642e00000000000000000000000000000000\n        /* \"#utility.yul\":3954:3973   */\n      0xe4\n      dup3\n      add\n        /* \"#utility.yul\":3947:3994   */\n      mstore\n        /* \"#utility.yul\":4011:4030   */\n      0x0104\n      add\n        /* \"src/contracts/AaveFlashLoanV3Factory.sol\":2766:2977  require(msg.value >= minAmount, 'Need to send a minimum amount of matic to purchase flash loan contract. Any leftover funds are returned. View getMaticValueNeededForNewContract for current matic amount needed.') */\n      tag_80\n        /* \"#utility.yul\":3335:4036   */\n      jump\n        /* \"src/contracts/AaveFlashLoanV3Factory.sol\":2766:2977  require(msg.value >= minAmount, 'Need to send a minimum amount of matic to purchase flash loan contract. Any leftover funds are returned. View getMaticValueNeededForNewContract for current matic amount needed.') */\n    tag_96:\n        /* \"src/contracts/AaveFlashLoanV3Factory.sol\":3037:3049  bool success */\n      0x00\n        /* \"src/contracts/AaveFlashLoanV3Factory.sol\":3056:3061  owner */\n      immutable(\"0x700a1a51c97d506a873788d0be869a361a18b142387893f46aa35bd12cd1e37a\")\n      sub(shl(0xa0, 0x01), 0x01)\n        /* \"src/contracts/AaveFlashLoanV3Factory.sol\":3056:3066  owner.call */\n      and\n        /* \"src/contracts/AaveFlashLoanV3Factory.sol\":3075:3084  minAmount */\n      dup3\n        /* \"src/contracts/AaveFlashLoanV3Factory.sol\":3056:3090  owner.call{ value: minAmount }(\"\") */\n      mload(0x40)\n      0x00\n      mload(0x40)\n      dup1\n      dup4\n      sub\n      dup2\n      dup6\n      dup8\n      gas\n      call\n      swap3\n      pop\n      pop\n      pop\n      returndatasize\n      dup1\n      0x00\n      dup2\n      eq\n      tag_102\n      jumpi\n      mload(0x40)\n      swap2\n      pop\n      and(add(returndatasize, 0x3f), not(0x1f))\n      dup3\n      add\n      0x40\n      mstore\n      returndatasize\n      dup3\n      mstore\n      returndatasize\n      0x00\n      0x20\n      dup5\n      add\n      returndatacopy\n      jump(tag_101)\n    tag_102:\n      0x60\n      swap2\n      pop\n    tag_101:\n      pop\n        /* \"src/contracts/AaveFlashLoanV3Factory.sol\":3036:3090  (bool success, ) =  owner.call{ value: minAmount }(\"\") */\n      pop\n      swap1\n      pop\n        /* \"src/contracts/AaveFlashLoanV3Factory.sol\":3112:3119  success */\n      dup1\n        /* \"src/contracts/AaveFlashLoanV3Factory.sol\":3104:3149  require(success, \"Transfer to owner failed.\") */\n      tag_103\n      jumpi\n      mload(0x40)\n      shl(0xe5, 0x461bcd)\n      dup2\n      mstore\n        /* \"#utility.yul\":4243:4245   */\n      0x20\n        /* \"src/contracts/AaveFlashLoanV3Factory.sol\":3104:3149  require(success, \"Transfer to owner failed.\") */\n      0x04\n      dup3\n      add\n        /* \"#utility.yul\":4225:4246   */\n      mstore\n        /* \"#utility.yul\":4282:4284   */\n      0x19\n        /* \"#utility.yul\":4262:4280   */\n      0x24\n      dup3\n      add\n        /* \"#utility.yul\":4255:4285   */\n      mstore\n        /* \"#utility.yul\":4321:4348   */\n      0x5472616e7366657220746f206f776e6572206661696c65642e00000000000000\n        /* \"#utility.yul\":4301:4319   */\n      0x44\n      dup3\n      add\n        /* \"#utility.yul\":4294:4349   */\n      mstore\n        /* \"#utility.yul\":4366:4384   */\n      0x64\n      add\n        /* \"src/contracts/AaveFlashLoanV3Factory.sol\":3104:3149  require(success, \"Transfer to owner failed.\") */\n      tag_80\n        /* \"#utility.yul\":4041:4390   */\n      jump\n        /* \"src/contracts/AaveFlashLoanV3Factory.sol\":3104:3149  require(success, \"Transfer to owner failed.\") */\n    tag_103:\n        /* \"src/contracts/AaveFlashLoanV3Factory.sol\":3244:3265  address(this).balance */\n      selfbalance\n        /* \"src/contracts/AaveFlashLoanV3Factory.sol\":3244:3269  address(this).balance > 0 */\n      iszero\n        /* \"src/contracts/AaveFlashLoanV3Factory.sol\":3241:3444  if(address(this).balance > 0){... */\n      tag_106\n      jumpi\n        /* \"src/contracts/AaveFlashLoanV3Factory.sol\":3289:3307  bool successRefund */\n      0x00\n        /* \"src/contracts/AaveFlashLoanV3Factory.sol\":3314:3324  msg.sender */\n      caller\n        /* \"src/contracts/AaveFlashLoanV3Factory.sol\":3338:3357  msg.value-minAmount */\n      tag_107\n        /* \"src/contracts/AaveFlashLoanV3Factory.sol\":3348:3357  minAmount */\n      dup5\n        /* \"src/contracts/AaveFlashLoanV3Factory.sol\":3338:3347  msg.value */\n      callvalue\n        /* \"src/contracts/AaveFlashLoanV3Factory.sol\":3338:3357  msg.value-minAmount */\n      tag_108\n      jump\t// in\n    tag_107:\n        /* \"src/contracts/AaveFlashLoanV3Factory.sol\":3314:3363  msg.sender.call{ value: msg.value-minAmount }(\"\") */\n      mload(0x40)\n      0x00\n      dup2\n      dup2\n      dup2\n      dup6\n      dup8\n      gas\n      call\n      swap3\n      pop\n      pop\n      pop\n      returndatasize\n      dup1\n      0x00\n      dup2\n      eq\n      tag_112\n      jumpi\n      mload(0x40)\n      swap2\n      pop\n      and(add(returndatasize, 0x3f), not(0x1f))\n      dup3\n      add\n      0x40\n      mstore\n      returndatasize\n      dup3\n      mstore\n      returndatasize\n      0x00\n      0x20\n      dup5\n      add\n      returndatacopy\n      jump(tag_111)\n    tag_112:\n      0x60\n      swap2\n      pop\n    tag_111:\n      pop\n        /* \"src/contracts/AaveFlashLoanV3Factory.sol\":3288:3363  (bool successRefund, ) =  msg.sender.call{ value: msg.value-minAmount }(\"\") */\n      pop\n      swap1\n      pop\n        /* \"src/contracts/AaveFlashLoanV3Factory.sol\":3389:3402  successRefund */\n      dup1\n        /* \"src/contracts/AaveFlashLoanV3Factory.sol\":3381:3429  require(successRefund, \"Refund to user failed.\") */\n      tag_113\n      jumpi\n      mload(0x40)\n      shl(0xe5, 0x461bcd)\n      dup2\n      mstore\n        /* \"#utility.yul\":4727:4729   */\n      0x20\n        /* \"src/contracts/AaveFlashLoanV3Factory.sol\":3381:3429  require(successRefund, \"Refund to user failed.\") */\n      0x04\n      dup3\n      add\n        /* \"#utility.yul\":4709:4730   */\n      mstore\n        /* \"#utility.yul\":4766:4768   */\n      0x16\n        /* \"#utility.yul\":4746:4764   */\n      0x24\n      dup3\n      add\n        /* \"#utility.yul\":4739:4769   */\n      mstore\n        /* \"#utility.yul\":4805:4829   */\n      0x526566756e6420746f2075736572206661696c65642e00000000000000000000\n        /* \"#utility.yul\":4785:4803   */\n      0x44\n      dup3\n      add\n        /* \"#utility.yul\":4778:4830   */\n      mstore\n        /* \"#utility.yul\":4847:4865   */\n      0x64\n      add\n        /* \"src/contracts/AaveFlashLoanV3Factory.sol\":3381:3429  require(successRefund, \"Refund to user failed.\") */\n      tag_80\n        /* \"#utility.yul\":4525:4871   */\n      jump\n        /* \"src/contracts/AaveFlashLoanV3Factory.sol\":3381:3429  require(successRefund, \"Refund to user failed.\") */\n    tag_113:\n        /* \"src/contracts/AaveFlashLoanV3Factory.sol\":3270:3444  {... */\n      pop\n        /* \"src/contracts/AaveFlashLoanV3Factory.sol\":3241:3444  if(address(this).balance > 0){... */\n    tag_106:\n        /* \"src/contracts/AaveFlashLoanV3Factory.sol\":2556:3454  {... */\n      pop\n      pop\n        /* \"src/contracts/AaveFlashLoanV3Factory.sol\":2524:3454  if(address(msg.sender) != owner){... */\n    tag_94:\n        /* \"src/contracts/AaveFlashLoanV3Factory.sol\":3717:3745  AaveFlashLoanV3 aaveContract */\n      0x00\n        /* \"src/contracts/AaveFlashLoanV3Factory.sol\":3768:3783  addressProvider */\n      dup1\n      sload\n        /* \"src/contracts/AaveFlashLoanV3Factory.sol\":3748:3833  new AaveFlashLoanV3(addressProvider, address(msg.sender), uniSwapRouter, sushiRouter) */\n      mload(0x40)\n      sub(shl(0xa0, 0x01), 0x01)\n        /* \"src/contracts/AaveFlashLoanV3Factory.sol\":3768:3783  addressProvider */\n      swap1\n      swap2\n      and\n      swap1\n        /* \"src/contracts/AaveFlashLoanV3Factory.sol\":3793:3803  msg.sender */\n      caller\n      swap1\n        /* \"src/contracts/AaveFlashLoanV3Factory.sol\":3806:3819  uniSwapRouter */\n      immutable(\"0xddba2e4dd16941be3be37d7360908dec72f39b8f7acfaefe7e9595b923ce3602\")\n      swap1\n        /* \"src/contracts/AaveFlashLoanV3Factory.sol\":3821:3832  sushiRouter */\n      immutable(\"0x0e830b0a12e88dee0360860b186c17dc108e02e0711604618c3c2016189dd4eb\")\n      swap1\n        /* \"src/contracts/AaveFlashLoanV3Factory.sol\":3748:3833  new AaveFlashLoanV3(addressProvider, address(msg.sender), uniSwapRouter, sushiRouter) */\n      tag_116\n      swap1\n      tag_117\n      jump\t// in\n    tag_116:\n      sub(shl(0xa0, 0x01), 0x01)\n        /* \"#utility.yul\":5262:5277   */\n      swap5\n      dup6\n      and\n        /* \"#utility.yul\":5244:5278   */\n      dup2\n      mstore\n        /* \"#utility.yul\":5314:5329   */\n      swap3\n      dup5\n      and\n        /* \"#utility.yul\":5309:5311   */\n      0x20\n        /* \"#utility.yul\":5294:5312   */\n      dup5\n      add\n        /* \"#utility.yul\":5287:5330   */\n      mstore\n        /* \"#utility.yul\":5366:5381   */\n      swap1\n      dup4\n      and\n        /* \"#utility.yul\":5361:5363   */\n      0x40\n        /* \"#utility.yul\":5346:5364   */\n      dup4\n      add\n        /* \"#utility.yul\":5339:5382   */\n      mstore\n        /* \"#utility.yul\":5418:5433   */\n      swap1\n      swap2\n      and\n        /* \"#utility.yul\":5413:5415   */\n      0x60\n        /* \"#utility.yul\":5398:5416   */\n      dup3\n      add\n        /* \"#utility.yul\":5391:5434   */\n      mstore\n        /* \"#utility.yul\":5170:5173   */\n      0x80\n        /* \"#utility.yul\":5155:5174   */\n      add\n        /* \"src/contracts/AaveFlashLoanV3Factory.sol\":3748:3833  new AaveFlashLoanV3(addressProvider, address(msg.sender), uniSwapRouter, sushiRouter) */\n      mload(0x40)\n      dup1\n      swap2\n      sub\n      swap1\n      0x00\n      create\n      dup1\n      iszero\n      dup1\n      iszero\n      tag_120\n      jumpi\n      returndatasize\n      0x00\n      dup1\n      returndatacopy\n      revert(0x00, returndatasize)\n    tag_120:\n      pop\n        /* \"src/contracts/AaveFlashLoanV3Factory.sol\":3875:3885  msg.sender */\n      caller\n        /* \"src/contracts/AaveFlashLoanV3Factory.sol\":3843:3887  AaveFlashLoanV3Mappings[address(msg.sender)] */\n      0x00\n      swap1\n      dup2\n      mstore\n        /* \"src/contracts/AaveFlashLoanV3Factory.sol\":3843:3866  AaveFlashLoanV3Mappings */\n      0x02\n        /* \"src/contracts/AaveFlashLoanV3Factory.sol\":3843:3887  AaveFlashLoanV3Mappings[address(msg.sender)] */\n      0x20\n      mstore\n      0x40\n      dup2\n      keccak256\n        /* \"src/contracts/AaveFlashLoanV3Factory.sol\":3843:3911  AaveFlashLoanV3Mappings[address(msg.sender)] = address(aaveContract) */\n      dup1\n      sload\n      0xffffffffffffffffffffffff0000000000000000000000000000000000000000\n      and\n      sub(shl(0xa0, 0x01), 0x01)\n      dup5\n      and\n      or\n      swap1\n      sstore\n        /* \"src/contracts/AaveFlashLoanV3Factory.sol\":3921:3928  mapSize */\n      0x03\n        /* \"src/contracts/AaveFlashLoanV3Factory.sol\":3921:3930  mapSize++ */\n      dup1\n      sload\n        /* \"src/contracts/AaveFlashLoanV3Factory.sol\":3843:3911  AaveFlashLoanV3Mappings[address(msg.sender)] = address(aaveContract) */\n      swap3\n      swap4\n      pop\n        /* \"src/contracts/AaveFlashLoanV3Factory.sol\":3921:3928  mapSize */\n      swap1\n        /* \"src/contracts/AaveFlashLoanV3Factory.sol\":3921:3930  mapSize++ */\n      tag_121\n      dup4\n      tag_122\n      jump\t// in\n    tag_121:\n      swap1\n      swap2\n      sstore\n      pop\n        /* \"src/contracts/AaveFlashLoanV3Factory.sol\":3955:3967  aaveContract */\n      swap1\n      swap3\n        /* \"src/contracts/AaveFlashLoanV3Factory.sol\":2309:3975  function createNewFlashLoanContract() public payable returns (address){... */\n      swap2\n      pop\n      pop\n      jump\t// out\n    tag_117:\n      dataSize(sub_0)\n      dup1\n      dataOffset(sub_0)\n      dup4\n      codecopy\n      add\n      swap1\n      jump\t// out\n        /* \"#utility.yul\":14:323   */\n    tag_19:\n        /* \"#utility.yul\":73:79   */\n      0x00\n        /* \"#utility.yul\":126:128   */\n      0x20\n        /* \"#utility.yul\":114:123   */\n      dup3\n        /* \"#utility.yul\":105:112   */\n      dup5\n        /* \"#utility.yul\":101:124   */\n      sub\n        /* \"#utility.yul\":97:129   */\n      slt\n        /* \"#utility.yul\":94:146   */\n      iszero\n      tag_126\n      jumpi\n        /* \"#utility.yul\":142:143   */\n      0x00\n        /* \"#utility.yul\":139:140   */\n      dup1\n        /* \"#utility.yul\":132:144   */\n      revert\n        /* \"#utility.yul\":94:146   */\n    tag_126:\n        /* \"#utility.yul\":181:190   */\n      dup2\n        /* \"#utility.yul\":168:191   */\n      calldataload\n      sub(shl(0xa0, 0x01), 0x01)\n        /* \"#utility.yul\":224:229   */\n      dup2\n        /* \"#utility.yul\":220:274   */\n      and\n        /* \"#utility.yul\":213:218   */\n      dup2\n        /* \"#utility.yul\":210:275   */\n      eq\n        /* \"#utility.yul\":200:293   */\n      tag_127\n      jumpi\n        /* \"#utility.yul\":289:290   */\n      0x00\n        /* \"#utility.yul\":286:287   */\n      dup1\n        /* \"#utility.yul\":279:291   */\n      revert\n        /* \"#utility.yul\":200:293   */\n    tag_127:\n        /* \"#utility.yul\":312:317   */\n      swap4\n        /* \"#utility.yul\":14:323   */\n      swap3\n      pop\n      pop\n      pop\n      jump\t// out\n        /* \"#utility.yul\":559:739   */\n    tag_26:\n        /* \"#utility.yul\":618:624   */\n      0x00\n        /* \"#utility.yul\":671:673   */\n      0x20\n        /* \"#utility.yul\":659:668   */\n      dup3\n        /* \"#utility.yul\":650:657   */\n      dup5\n        /* \"#utility.yul\":646:669   */\n      sub\n        /* \"#utility.yul\":642:674   */\n      slt\n        /* \"#utility.yul\":639:691   */\n      iszero\n      tag_130\n      jumpi\n        /* \"#utility.yul\":687:688   */\n      0x00\n        /* \"#utility.yul\":684:685   */\n      dup1\n        /* \"#utility.yul\":677:689   */\n      revert\n        /* \"#utility.yul\":639:691   */\n    tag_130:\n      pop\n        /* \"#utility.yul\":710:733   */\n      calldataload\n      swap2\n        /* \"#utility.yul\":559:739   */\n      swap1\n      pop\n      jump\t// out\n        /* \"#utility.yul\":2506:2689   */\n    tag_86:\n        /* \"#utility.yul\":2575:2581   */\n      0x00\n        /* \"#utility.yul\":2628:2630   */\n      0x20\n        /* \"#utility.yul\":2616:2625   */\n      dup3\n        /* \"#utility.yul\":2607:2614   */\n      dup5\n        /* \"#utility.yul\":2603:2626   */\n      sub\n        /* \"#utility.yul\":2599:2631   */\n      slt\n        /* \"#utility.yul\":2596:2648   */\n      iszero\n      tag_139\n      jumpi\n        /* \"#utility.yul\":2644:2645   */\n      0x00\n        /* \"#utility.yul\":2641:2642   */\n      dup1\n        /* \"#utility.yul\":2634:2646   */\n      revert\n        /* \"#utility.yul\":2596:2648   */\n    tag_139:\n      pop\n        /* \"#utility.yul\":2667:2683   */\n      mload\n      swap2\n        /* \"#utility.yul\":2506:2689   */\n      swap1\n      pop\n      jump\t// out\n        /* \"#utility.yul\":2694:2878   */\n    tag_123:\n      shl(0xe0, 0x4e487b71)\n        /* \"#utility.yul\":2743:2744   */\n      0x00\n        /* \"#utility.yul\":2736:2824   */\n      mstore\n        /* \"#utility.yul\":2843:2847   */\n      0x11\n        /* \"#utility.yul\":2840:2841   */\n      0x04\n        /* \"#utility.yul\":2833:2848   */\n      mstore\n        /* \"#utility.yul\":2867:2871   */\n      0x24\n        /* \"#utility.yul\":2864:2865   */\n      0x00\n        /* \"#utility.yul\":2857:2872   */\n      revert\n        /* \"#utility.yul\":2883:3051   */\n    tag_88:\n        /* \"#utility.yul\":2923:2930   */\n      0x00\n        /* \"#utility.yul\":2989:2990   */\n      dup2\n        /* \"#utility.yul\":2985:2986   */\n      0x00\n        /* \"#utility.yul\":2981:2987   */\n      not\n        /* \"#utility.yul\":2977:2991   */\n      div\n        /* \"#utility.yul\":2974:2975   */\n      dup4\n        /* \"#utility.yul\":2971:2992   */\n      gt\n        /* \"#utility.yul\":2966:2967   */\n      dup3\n        /* \"#utility.yul\":2959:2968   */\n      iszero\n        /* \"#utility.yul\":2952:2969   */\n      iszero\n        /* \"#utility.yul\":2948:2993   */\n      and\n        /* \"#utility.yul\":2945:3016   */\n      iszero\n      tag_143\n      jumpi\n        /* \"#utility.yul\":2996:3014   */\n      tag_143\n      tag_123\n      jump\t// in\n    tag_143:\n      pop\n        /* \"#utility.yul\":3036:3045   */\n      mul\n      swap1\n        /* \"#utility.yul\":2883:3051   */\n      jump\t// out\n        /* \"#utility.yul\":3056:3330   */\n    tag_90:\n        /* \"#utility.yul\":3096:3097   */\n      0x00\n        /* \"#utility.yul\":3122:3123   */\n      dup3\n        /* \"#utility.yul\":3112:3301   */\n      tag_145\n      jumpi\n      shl(0xe0, 0x4e487b71)\n        /* \"#utility.yul\":3154:3155   */\n      0x00\n        /* \"#utility.yul\":3147:3235   */\n      mstore\n        /* \"#utility.yul\":3258:3262   */\n      0x12\n        /* \"#utility.yul\":3255:3256   */\n      0x04\n        /* \"#utility.yul\":3248:3263   */\n      mstore\n        /* \"#utility.yul\":3286:3290   */\n      0x24\n        /* \"#utility.yul\":3283:3284   */\n      0x00\n        /* \"#utility.yul\":3276:3291   */\n      revert\n        /* \"#utility.yul\":3112:3301   */\n    tag_145:\n      pop\n        /* \"#utility.yul\":3315:3324   */\n      div\n      swap1\n        /* \"#utility.yul\":3056:3330   */\n      jump\t// out\n        /* \"#utility.yul\":4395:4520   */\n    tag_108:\n        /* \"#utility.yul\":4435:4439   */\n      0x00\n        /* \"#utility.yul\":4463:4464   */\n      dup3\n        /* \"#utility.yul\":4460:4461   */\n      dup3\n        /* \"#utility.yul\":4457:4465   */\n      lt\n        /* \"#utility.yul\":4454:4488   */\n      iszero\n      tag_150\n      jumpi\n        /* \"#utility.yul\":4468:4486   */\n      tag_150\n      tag_123\n      jump\t// in\n    tag_150:\n      pop\n        /* \"#utility.yul\":4505:4514   */\n      sub\n      swap1\n        /* \"#utility.yul\":4395:4520   */\n      jump\t// out\n        /* \"#utility.yul\":5445:5580   */\n    tag_122:\n        /* \"#utility.yul\":5484:5487   */\n      0x00\n      not(0x00)\n        /* \"#utility.yul\":5505:5522   */\n      dup3\n      eq\n        /* \"#utility.yul\":5502:5545   */\n      iszero\n      tag_155\n      jumpi\n        /* \"#utility.yul\":5525:5543   */\n      tag_155\n      tag_123\n      jump\t// in\n    tag_155:\n      pop\n        /* \"#utility.yul\":5572:5573   */\n      0x01\n        /* \"#utility.yul\":5561:5574   */\n      add\n      swap1\n        /* \"#utility.yul\":5445:5580   */\n      jump\t// out\n    stop\n\n    sub_0: assembly {\n            /* \"src/contracts/AaveFlashLoanV3.sol\":671:7753  contract AaveFlashLoanV3 is FlashLoanReceiverBase{... */\n          mstore(0x40, 0x0100)\n            /* \"src/contracts/AaveFlashLoanV3.sol\":1190:1474  constructor(IPoolAddressesProvider _addressProvider, address _owner, ISwapRouter _uniSwapRouter, IUniswapV2Router02 _sushiRouter) FlashLoanReceiverBase(_addressProvider) public {... */\n          callvalue\n          dup1\n          iszero\n          tag_1\n          jumpi\n          0x00\n          dup1\n          revert\n        tag_1:\n          pop\n          mload(0x40)\n          sub(codesize, bytecodeSize)\n          dup1\n          bytecodeSize\n          dup4\n          codecopy\n          dup2\n          add\n          0x40\n          dup2\n          swap1\n          mstore\n          tag_2\n          swap2\n          tag_3\n          jump\t// in\n        tag_2:\n            /* \"src/contracts/AaveFlashLoanV3.sol\":1342:1358  _addressProvider */\n          dup4\n            /* \"src/contracts/base/FlashLoanReceiverBase.sol\":637:645  provider */\n          dup1\n          sub(shl(0xa0, 0x01), 0x01)\n            /* \"src/contracts/base/FlashLoanReceiverBase.sol\":616:645  ADDRESSES_PROVIDER = provider */\n          and\n          0x80\n          dup2\n          sub(shl(0xa0, 0x01), 0x01)\n          and\n          dup2\n          mstore\n          pop\n          pop\n            /* \"src/contracts/base/FlashLoanReceiverBase.sol\":664:672  provider */\n          dup1\n          sub(shl(0xa0, 0x01), 0x01)\n            /* \"src/contracts/base/FlashLoanReceiverBase.sol\":664:680  provider.getPool */\n          and\n          0x026b1d5f\n            /* \"src/contracts/base/FlashLoanReceiverBase.sol\":664:682  provider.getPool() */\n          mload(0x40)\n          dup2\n          0xffffffff\n          and\n          0xe0\n          shl\n          dup2\n          mstore\n          0x04\n          add\n          0x20\n          mload(0x40)\n          dup1\n          dup4\n          sub\n          dup2\n          dup7\n          gas\n          staticcall\n          iszero\n          dup1\n          iszero\n          tag_8\n          jumpi\n          returndatasize\n          0x00\n          dup1\n          returndatacopy\n          revert(0x00, returndatasize)\n        tag_8:\n          pop\n          pop\n          pop\n          pop\n          mload(0x40)\n          returndatasize\n          not(0x1f)\n          0x1f\n          dup3\n          add\n          and\n          dup3\n          add\n          dup1\n          0x40\n          mstore\n          pop\n          dup2\n          add\n          swap1\n          tag_9\n          swap2\n          swap1\n          tag_10\n          jump\t// in\n        tag_9:\n          sub(shl(0xa0, 0x01), 0x01)\n            /* \"src/contracts/base/FlashLoanReceiverBase.sol\":651:683  POOL = IPool(provider.getPool()) */\n          swap1\n          dup2\n          and\n          0xa0\n          mstore\n            /* \"src/contracts/AaveFlashLoanV3.sol\":1377:1382  owner */\n          0x00\n            /* \"src/contracts/AaveFlashLoanV3.sol\":1377:1391  owner = _owner */\n          dup1\n          sload\n          not(sub(shl(0xa0, 0x01), 0x01))\n          and\n          swap6\n          dup3\n          and\n          swap6\n          swap1\n          swap6\n          or\n          swap1\n          swap5\n          sstore\n          pop\n            /* \"src/contracts/AaveFlashLoanV3.sol\":1401:1431  uniSwapRouter = _uniSwapRouter */\n          swap1\n          dup3\n          and\n          0xc0\n          mstore\n            /* \"src/contracts/AaveFlashLoanV3.sol\":1441:1467  sushiRouter = _sushiRouter */\n          and\n          0xe0\n          mstore\n          pop\n            /* \"src/contracts/AaveFlashLoanV3.sol\":671:7753  contract AaveFlashLoanV3 is FlashLoanReceiverBase{... */\n          jump(tag_14)\n            /* \"#utility.yul\":14:169   */\n        tag_13:\n          sub(shl(0xa0, 0x01), 0x01)\n            /* \"#utility.yul\":113:144   */\n          dup2\n          and\n            /* \"#utility.yul\":103:145   */\n          dup2\n          eq\n            /* \"#utility.yul\":93:163   */\n          tag_16\n          jumpi\n            /* \"#utility.yul\":159:160   */\n          0x00\n            /* \"#utility.yul\":156:157   */\n          dup1\n            /* \"#utility.yul\":149:161   */\n          revert\n            /* \"#utility.yul\":93:163   */\n        tag_16:\n            /* \"#utility.yul\":14:169   */\n          pop\n          jump\t// out\n            /* \"#utility.yul\":174:1000   */\n        tag_3:\n            /* \"#utility.yul\":347:353   */\n          0x00\n            /* \"#utility.yul\":355:361   */\n          dup1\n            /* \"#utility.yul\":363:369   */\n          0x00\n            /* \"#utility.yul\":371:377   */\n          dup1\n            /* \"#utility.yul\":424:427   */\n          0x80\n            /* \"#utility.yul\":412:421   */\n          dup6\n            /* \"#utility.yul\":403:410   */\n          dup8\n            /* \"#utility.yul\":399:422   */\n          sub\n            /* \"#utility.yul\":395:428   */\n          slt\n            /* \"#utility.yul\":392:445   */\n          iszero\n          tag_18\n          jumpi\n            /* \"#utility.yul\":441:442   */\n          0x00\n            /* \"#utility.yul\":438:439   */\n          dup1\n            /* \"#utility.yul\":431:443   */\n          revert\n            /* \"#utility.yul\":392:445   */\n        tag_18:\n            /* \"#utility.yul\":473:482   */\n          dup5\n            /* \"#utility.yul\":467:483   */\n          mload\n            /* \"#utility.yul\":492:547   */\n          tag_19\n            /* \"#utility.yul\":541:546   */\n          dup2\n            /* \"#utility.yul\":492:547   */\n          tag_13\n          jump\t// in\n        tag_19:\n            /* \"#utility.yul\":616:618   */\n          0x20\n            /* \"#utility.yul\":601:619   */\n          dup7\n          add\n            /* \"#utility.yul\":595:620   */\n          mload\n            /* \"#utility.yul\":566:571   */\n          swap1\n          swap5\n          pop\n            /* \"#utility.yul\":629:686   */\n          tag_20\n            /* \"#utility.yul\":595:620   */\n          dup2\n            /* \"#utility.yul\":629:686   */\n          tag_13\n          jump\t// in\n        tag_20:\n            /* \"#utility.yul\":757:759   */\n          0x40\n            /* \"#utility.yul\":742:760   */\n          dup7\n          add\n            /* \"#utility.yul\":736:761   */\n          mload\n            /* \"#utility.yul\":705:712   */\n          swap1\n          swap4\n          pop\n            /* \"#utility.yul\":770:827   */\n          tag_21\n            /* \"#utility.yul\":736:761   */\n          dup2\n            /* \"#utility.yul\":770:827   */\n          tag_13\n          jump\t// in\n        tag_21:\n            /* \"#utility.yul\":898:900   */\n          0x60\n            /* \"#utility.yul\":883:901   */\n          dup7\n          add\n            /* \"#utility.yul\":877:902   */\n          mload\n            /* \"#utility.yul\":846:853   */\n          swap1\n          swap3\n          pop\n            /* \"#utility.yul\":911:968   */\n          tag_22\n            /* \"#utility.yul\":877:902   */\n          dup2\n            /* \"#utility.yul\":911:968   */\n          tag_13\n          jump\t// in\n        tag_22:\n            /* \"#utility.yul\":174:1000   */\n          swap4\n          swap7\n          swap3\n          swap6\n          pop\n          swap1\n          swap4\n          pop\n          pop\n          jump\t// out\n            /* \"#utility.yul\":1005:1280   */\n        tag_10:\n            /* \"#utility.yul\":1075:1081   */\n          0x00\n            /* \"#utility.yul\":1128:1130   */\n          0x20\n            /* \"#utility.yul\":1116:1125   */\n          dup3\n            /* \"#utility.yul\":1107:1114   */\n          dup5\n            /* \"#utility.yul\":1103:1126   */\n          sub\n            /* \"#utility.yul\":1099:1131   */\n          slt\n            /* \"#utility.yul\":1096:1148   */\n          iszero\n          tag_24\n          jumpi\n            /* \"#utility.yul\":1144:1145   */\n          0x00\n            /* \"#utility.yul\":1141:1142   */\n          dup1\n            /* \"#utility.yul\":1134:1146   */\n          revert\n            /* \"#utility.yul\":1096:1148   */\n        tag_24:\n            /* \"#utility.yul\":1176:1185   */\n          dup2\n            /* \"#utility.yul\":1170:1186   */\n          mload\n            /* \"#utility.yul\":1195:1250   */\n          tag_25\n            /* \"#utility.yul\":1244:1249   */\n          dup2\n            /* \"#utility.yul\":1195:1250   */\n          tag_13\n          jump\t// in\n        tag_25:\n            /* \"#utility.yul\":1269:1274   */\n          swap4\n            /* \"#utility.yul\":1005:1280   */\n          swap3\n          pop\n          pop\n          pop\n          jump\t// out\n        tag_14:\n            /* \"src/contracts/AaveFlashLoanV3.sol\":671:7753  contract AaveFlashLoanV3 is FlashLoanReceiverBase{... */\n          mload(0x80)\n          mload(0xa0)\n          mload(0xc0)\n          mload(0xe0)\n          codecopy(0x00, dataOffset(sub_0), dataSize(sub_0))\n          0x00\n          assignImmutable(\"0xef80077fd7ee005d1b0377e3e959eb59d0ca83c4839422f862a3540a66a91fb5\")\n          0x00\n          assignImmutable(\"0x340a23757d2ab13dedab258c0c14c48239e47629cd886b1aa50da5cb9e94f72d\")\n          0x00\n          assignImmutable(\"0x6be84febb8d838b29663c2973fc033c21db97bc9be43c128ccb91ac1f7226079\")\n          0x00\n          assignImmutable(\"0x046caf3ab6404de56b68b7d05a5b6a84a925ff8870a955c7197e992541e00d84\")\n          return(0x00, dataSize(sub_0))\n        stop\n\n        sub_0: assembly {\n                /* \"src/contracts/AaveFlashLoanV3.sol\":671:7753  contract AaveFlashLoanV3 is FlashLoanReceiverBase{... */\n              mstore(0x40, 0x80)\n              jumpi(tag_1, lt(calldatasize, 0x04))\n              shr(0xe0, calldataload(0x00))\n              dup1\n              0x893d20e8\n              gt\n              tag_10\n              jumpi\n              dup1\n              0x893d20e8\n              eq\n              tag_6\n              jumpi\n              dup1\n              0x920f5c84\n              eq\n              tag_7\n              jumpi\n              dup1\n              0xc2d22207\n              eq\n              tag_8\n              jumpi\n              dup1\n              0xf2fde38b\n              eq\n              tag_9\n              jumpi\n              0x00\n              dup1\n              revert\n            tag_10:\n              dup1\n              0x0542975c\n              eq\n              tag_2\n              jumpi\n              dup1\n              0x3bdebbe1\n              eq\n              tag_3\n              jumpi\n              dup1\n              0x3ccfd60b\n              eq\n              tag_4\n              jumpi\n              dup1\n              0x7535d246\n              eq\n              tag_5\n              jumpi\n            tag_1:\n              0x00\n              dup1\n              revert\n                /* \"src/contracts/base/FlashLoanReceiverBase.sol\":453:520  IPoolAddressesProvider public immutable override ADDRESSES_PROVIDER */\n            tag_2:\n              callvalue\n              dup1\n              iszero\n              tag_11\n              jumpi\n              0x00\n              dup1\n              revert\n            tag_11:\n              pop\n              tag_12\n              immutable(\"0x046caf3ab6404de56b68b7d05a5b6a84a925ff8870a955c7197e992541e00d84\")\n              dup2\n              jump\n            tag_12:\n              mload(0x40)\n              sub(shl(0xa0, 0x01), 0x01)\n                /* \"#utility.yul\":209:264   */\n              swap1\n              swap2\n              and\n                /* \"#utility.yul\":191:265   */\n              dup2\n              mstore\n                /* \"#utility.yul\":179:181   */\n              0x20\n                /* \"#utility.yul\":164:182   */\n              add\n                /* \"src/contracts/base/FlashLoanReceiverBase.sol\":453:520  IPoolAddressesProvider public immutable override ADDRESSES_PROVIDER */\n            tag_14:\n              mload(0x40)\n              dup1\n              swap2\n              sub\n              swap1\n              return\n                /* \"src/contracts/AaveFlashLoanV3.sol\":7078:7395  function withdrawERC20Token(address token) external onlyOwner returns(uint256 currentAmount){... */\n            tag_3:\n              callvalue\n              dup1\n              iszero\n              tag_16\n              jumpi\n              0x00\n              dup1\n              revert\n            tag_16:\n              pop\n              tag_17\n              tag_18\n              calldatasize\n              0x04\n              tag_19\n              jump\t// in\n            tag_18:\n              tag_20\n              jump\t// in\n            tag_17:\n              mload(0x40)\n                /* \"#utility.yul\":833:858   */\n              swap1\n              dup2\n              mstore\n                /* \"#utility.yul\":821:823   */\n              0x20\n                /* \"#utility.yul\":806:824   */\n              add\n                /* \"src/contracts/AaveFlashLoanV3.sol\":7078:7395  function withdrawERC20Token(address token) external onlyOwner returns(uint256 currentAmount){... */\n              tag_14\n                /* \"#utility.yul\":687:864   */\n              jump\n                /* \"src/contracts/AaveFlashLoanV3.sol\":6837:7014  function withdraw() external payable onlyOwner(){... */\n            tag_4:\n              tag_23\n              tag_24\n              jump\t// in\n            tag_23:\n              stop\n                /* \"src/contracts/base/FlashLoanReceiverBase.sol\":524:560  IPool public immutable override POOL */\n            tag_5:\n              callvalue\n              dup1\n              iszero\n              tag_25\n              jumpi\n              0x00\n              dup1\n              revert\n            tag_25:\n              pop\n              tag_12\n              immutable(\"0x6be84febb8d838b29663c2973fc033c21db97bc9be43c128ccb91ac1f7226079\")\n              dup2\n              jump\n                /* \"src/contracts/AaveFlashLoanV3.sol\":7506:7586  function getOwner() view external returns (address){... */\n            tag_6:\n              callvalue\n              dup1\n              iszero\n              tag_30\n              jumpi\n              0x00\n              dup1\n              revert\n            tag_30:\n              pop\n                /* \"src/contracts/AaveFlashLoanV3.sol\":7549:7556  address */\n              0x00\n                /* \"src/contracts/AaveFlashLoanV3.sol\":7574:7579  owner */\n              sload\n              sub(shl(0xa0, 0x01), 0x01)\n              and\n                /* \"src/contracts/AaveFlashLoanV3.sol\":7506:7586  function getOwner() view external returns (address){... */\n              jump(tag_12)\n                /* \"src/contracts/AaveFlashLoanV3.sol\":1785:2669  function executeOperation(... */\n            tag_7:\n              callvalue\n              dup1\n              iszero\n              tag_35\n              jumpi\n              0x00\n              dup1\n              revert\n            tag_35:\n              pop\n              tag_36\n              tag_37\n              calldatasize\n              0x04\n              tag_38\n              jump\t// in\n            tag_37:\n              tag_39\n              jump\t// in\n            tag_36:\n              mload(0x40)\n                /* \"#utility.yul\":3560:3574   */\n              swap1\n              iszero\n                /* \"#utility.yul\":3553:3575   */\n              iszero\n                /* \"#utility.yul\":3535:3576   */\n              dup2\n              mstore\n                /* \"#utility.yul\":3523:3525   */\n              0x20\n                /* \"#utility.yul\":3508:3526   */\n              add\n                /* \"src/contracts/AaveFlashLoanV3.sol\":1785:2669  function executeOperation(... */\n              tag_14\n                /* \"#utility.yul\":3395:3582   */\n              jump\n                /* \"src/contracts/AaveFlashLoanV3.sol\":2748:3869  function myFlashLoanCall(address token0, address token1, uint8 direction, uint24 poolFee, uint256 amountIn, uint256 amountOut, uint256 deadline) public onlyOwner {... */\n            tag_8:\n              callvalue\n              dup1\n              iszero\n              tag_42\n              jumpi\n              0x00\n              dup1\n              revert\n            tag_42:\n              pop\n              tag_23\n              tag_44\n              calldatasize\n              0x04\n              tag_45\n              jump\t// in\n            tag_44:\n              tag_46\n              jump\t// in\n                /* \"src/contracts/AaveFlashLoanV3.sol\":7651:7750  function transferOwnership(address newOwner) external onlyOwner {... */\n            tag_9:\n              callvalue\n              dup1\n              iszero\n              tag_47\n              jumpi\n              0x00\n              dup1\n              revert\n            tag_47:\n              pop\n              tag_23\n              tag_49\n              calldatasize\n              0x04\n              tag_19\n              jump\t// in\n            tag_49:\n              tag_50\n              jump\t// in\n                /* \"src/contracts/AaveFlashLoanV3.sol\":7078:7395  function withdrawERC20Token(address token) external onlyOwner returns(uint256 currentAmount){... */\n            tag_20:\n                /* \"src/contracts/AaveFlashLoanV3.sol\":7148:7169  uint256 currentAmount */\n              0x00\n                /* \"src/contracts/AaveFlashLoanV3.sol\":1649:1654  owner */\n              dup1\n              sload\n              sub(shl(0xa0, 0x01), 0x01)\n              and\n                /* \"src/contracts/AaveFlashLoanV3.sol\":1634:1644  msg.sender */\n              caller\n                /* \"src/contracts/AaveFlashLoanV3.sol\":1626:1654  address(msg.sender) == owner */\n              eq\n                /* \"src/contracts/AaveFlashLoanV3.sol\":1618:1655  require(address(msg.sender) == owner) */\n              tag_52\n              jumpi\n              0x00\n              dup1\n              revert\n            tag_52:\n                /* \"src/contracts/AaveFlashLoanV3.sol\":7196:7234  IERC20(token).balanceOf(address(this)) */\n              mload(0x40)\n              0x70a0823100000000000000000000000000000000000000000000000000000000\n              dup2\n              mstore\n                /* \"src/contracts/AaveFlashLoanV3.sol\":7228:7232  this */\n              address\n                /* \"src/contracts/AaveFlashLoanV3.sol\":7196:7234  IERC20(token).balanceOf(address(this)) */\n              0x04\n              dup3\n              add\n                /* \"#utility.yul\":191:265   */\n              mstore\n              sub(shl(0xa0, 0x01), 0x01)\n                /* \"src/contracts/AaveFlashLoanV3.sol\":7196:7219  IERC20(token).balanceOf */\n              dup4\n              and\n              swap1\n              0x70a08231\n              swap1\n                /* \"#utility.yul\":164:182   */\n              0x24\n              add\n                /* \"src/contracts/AaveFlashLoanV3.sol\":7196:7234  IERC20(token).balanceOf(address(this)) */\n              0x20\n              mload(0x40)\n              dup1\n              dup4\n              sub\n              dup2\n              dup7\n              gas\n              staticcall\n              iszero\n              dup1\n              iszero\n              tag_56\n              jumpi\n              returndatasize\n              0x00\n              dup1\n              returndatacopy\n              revert(0x00, returndatasize)\n            tag_56:\n              pop\n              pop\n              pop\n              pop\n              mload(0x40)\n              returndatasize\n              not(0x1f)\n              0x1f\n              dup3\n              add\n              and\n              dup3\n              add\n              dup1\n              0x40\n              mstore\n              pop\n              dup2\n              add\n              swap1\n              tag_57\n              swap2\n              swap1\n              tag_58\n              jump\t// in\n            tag_57:\n                /* \"src/contracts/AaveFlashLoanV3.sol\":7180:7234  currentAmount = IERC20(token).balanceOf(address(this)) */\n              swap1\n              pop\n                /* \"src/contracts/AaveFlashLoanV3.sol\":7268:7269  0 */\n              0x00\n                /* \"src/contracts/AaveFlashLoanV3.sol\":7252:7265  currentAmount */\n              dup2\n                /* \"src/contracts/AaveFlashLoanV3.sol\":7252:7269  currentAmount > 0 */\n              gt\n                /* \"src/contracts/AaveFlashLoanV3.sol\":7244:7322  require(currentAmount > 0, 'Contract does not have the provided ERC20 token.') */\n              tag_59\n              jumpi\n              mload(0x40)\n              shl(0xe5, 0x461bcd)\n              dup2\n              mstore\n                /* \"#utility.yul\":5048:5050   */\n              0x20\n                /* \"src/contracts/AaveFlashLoanV3.sol\":7244:7322  require(currentAmount > 0, 'Contract does not have the provided ERC20 token.') */\n              0x04\n              dup3\n              add\n                /* \"#utility.yul\":5030:5051   */\n              mstore\n                /* \"#utility.yul\":5087:5089   */\n              0x30\n                /* \"#utility.yul\":5067:5085   */\n              0x24\n              dup3\n              add\n                /* \"#utility.yul\":5060:5090   */\n              mstore\n                /* \"#utility.yul\":5126:5160   */\n              0x436f6e747261637420646f6573206e6f742068617665207468652070726f7669\n                /* \"#utility.yul\":5106:5124   */\n              0x44\n              dup3\n              add\n                /* \"#utility.yul\":5099:5161   */\n              mstore\n                /* \"#utility.yul\":5197:5215   */\n              0x64656420455243323020746f6b656e2e00000000000000000000000000000000\n                /* \"#utility.yul\":5177:5195   */\n              0x64\n              dup3\n              add\n                /* \"#utility.yul\":5170:5216   */\n              mstore\n                /* \"#utility.yul\":5233:5252   */\n              0x84\n              add\n                /* \"src/contracts/AaveFlashLoanV3.sol\":7244:7322  require(currentAmount > 0, 'Contract does not have the provided ERC20 token.') */\n            tag_60:\n              mload(0x40)\n              dup1\n              swap2\n              sub\n              swap1\n              revert\n            tag_59:\n                /* \"src/contracts/AaveFlashLoanV3.sol\":7367:7372  owner */\n              sload(0x00)\n                /* \"src/contracts/AaveFlashLoanV3.sol\":7332:7388  TransferHelper.safeTransfer(token, owner, currentAmount) */\n              tag_62\n              swap1\n                /* \"src/contracts/AaveFlashLoanV3.sol\":7360:7365  token */\n              dup4\n              swap1\n              sub(shl(0xa0, 0x01), 0x01)\n                /* \"src/contracts/AaveFlashLoanV3.sol\":7367:7372  owner */\n              and\n                /* \"src/contracts/AaveFlashLoanV3.sol\":7374:7387  currentAmount */\n              dup4\n                /* \"src/contracts/AaveFlashLoanV3.sol\":7332:7359  TransferHelper.safeTransfer */\n              tag_63\n                /* \"src/contracts/AaveFlashLoanV3.sol\":7332:7388  TransferHelper.safeTransfer(token, owner, currentAmount) */\n              jump\t// in\n            tag_62:\n                /* \"src/contracts/AaveFlashLoanV3.sol\":7078:7395  function withdrawERC20Token(address token) external onlyOwner returns(uint256 currentAmount){... */\n              swap2\n              swap1\n              pop\n              jump\t// out\n                /* \"src/contracts/AaveFlashLoanV3.sol\":6837:7014  function withdraw() external payable onlyOwner(){... */\n            tag_24:\n                /* \"src/contracts/AaveFlashLoanV3.sol\":1649:1654  owner */\n              and(sub(shl(0xa0, 0x01), 0x01), sload(0x00))\n                /* \"src/contracts/AaveFlashLoanV3.sol\":1634:1644  msg.sender */\n              caller\n                /* \"src/contracts/AaveFlashLoanV3.sol\":1626:1654  address(msg.sender) == owner */\n              eq\n                /* \"src/contracts/AaveFlashLoanV3.sol\":1618:1655  require(address(msg.sender) == owner) */\n              tag_65\n              jumpi\n              0x00\n              dup1\n              revert\n            tag_65:\n                /* \"src/contracts/AaveFlashLoanV3.sol\":6896:6908  bool success */\n              0x00\n                /* \"src/contracts/AaveFlashLoanV3.sol\":6915:6920  owner */\n              dup1\n              sload\n                /* \"src/contracts/AaveFlashLoanV3.sol\":6915:6961  owner.call{ value: address(this).balance }(\"\") */\n              mload(0x40)\n              sub(shl(0xa0, 0x01), 0x01)\n                /* \"src/contracts/AaveFlashLoanV3.sol\":6915:6920  owner */\n              swap1\n              swap2\n              and\n              swap1\n                /* \"src/contracts/AaveFlashLoanV3.sol\":6934:6955  address(this).balance */\n              selfbalance\n              swap1\n                /* \"src/contracts/AaveFlashLoanV3.sol\":6896:6908  bool success */\n              dup4\n                /* \"src/contracts/AaveFlashLoanV3.sol\":6915:6961  owner.call{ value: address(this).balance }(\"\") */\n              dup2\n                /* \"src/contracts/AaveFlashLoanV3.sol\":6896:6908  bool success */\n              dup2\n                /* \"src/contracts/AaveFlashLoanV3.sol\":6915:6961  owner.call{ value: address(this).balance }(\"\") */\n              dup2\n                /* \"src/contracts/AaveFlashLoanV3.sol\":6934:6955  address(this).balance */\n              dup6\n                /* \"src/contracts/AaveFlashLoanV3.sol\":6915:6920  owner */\n              dup8\n                /* \"src/contracts/AaveFlashLoanV3.sol\":6915:6961  owner.call{ value: address(this).balance }(\"\") */\n              gas\n              call\n              swap3\n              pop\n              pop\n              pop\n              returndatasize\n              dup1\n              0x00\n              dup2\n              eq\n              tag_71\n              jumpi\n              mload(0x40)\n              swap2\n              pop\n              and(add(returndatasize, 0x3f), not(0x1f))\n              dup3\n              add\n              0x40\n              mstore\n              returndatasize\n              dup3\n              mstore\n              returndatasize\n              0x00\n              0x20\n              dup5\n              add\n              returndatacopy\n              jump(tag_70)\n            tag_71:\n              0x60\n              swap2\n              pop\n            tag_70:\n              pop\n                /* \"src/contracts/AaveFlashLoanV3.sol\":6895:6961  (bool success, ) =  owner.call{ value: address(this).balance }(\"\") */\n              pop\n              swap1\n              pop\n                /* \"src/contracts/AaveFlashLoanV3.sol\":6979:6986  success */\n              dup1\n                /* \"src/contracts/AaveFlashLoanV3.sol\":6971:7007  require(success, \"Withdraw failed.\") */\n              tag_72\n              jumpi\n              mload(0x40)\n              shl(0xe5, 0x461bcd)\n              dup2\n              mstore\n                /* \"#utility.yul\":5675:5677   */\n              0x20\n                /* \"src/contracts/AaveFlashLoanV3.sol\":6971:7007  require(success, \"Withdraw failed.\") */\n              0x04\n              dup3\n              add\n                /* \"#utility.yul\":5657:5678   */\n              mstore\n                /* \"#utility.yul\":5714:5716   */\n              0x10\n                /* \"#utility.yul\":5694:5712   */\n              0x24\n              dup3\n              add\n                /* \"#utility.yul\":5687:5717   */\n              mstore\n                /* \"#utility.yul\":5753:5771   */\n              0x5769746864726177206661696c65642e00000000000000000000000000000000\n                /* \"#utility.yul\":5733:5751   */\n              0x44\n              dup3\n              add\n                /* \"#utility.yul\":5726:5772   */\n              mstore\n                /* \"#utility.yul\":5789:5807   */\n              0x64\n              add\n                /* \"src/contracts/AaveFlashLoanV3.sol\":6971:7007  require(success, \"Withdraw failed.\") */\n              tag_60\n                /* \"#utility.yul\":5473:5813   */\n              jump\n                /* \"src/contracts/AaveFlashLoanV3.sol\":6971:7007  require(success, \"Withdraw failed.\") */\n            tag_72:\n                /* \"src/contracts/AaveFlashLoanV3.sol\":6885:7014  {... */\n              pop\n                /* \"src/contracts/AaveFlashLoanV3.sol\":6837:7014  function withdraw() external payable onlyOwner(){... */\n              jump\t// out\n                /* \"src/contracts/AaveFlashLoanV3.sol\":1785:2669  function executeOperation(... */\n            tag_39:\n                /* \"src/contracts/AaveFlashLoanV3.sol\":2014:2018  bool */\n              0x00\n                /* \"src/contracts/AaveFlashLoanV3.sol\":2125:2148  swapERC20Tokens(params) */\n              tag_77\n                /* \"src/contracts/AaveFlashLoanV3.sol\":2141:2147  params */\n              dup4\n              dup4\n                /* \"src/contracts/AaveFlashLoanV3.sol\":2125:2140  swapERC20Tokens */\n              tag_78\n                /* \"src/contracts/AaveFlashLoanV3.sol\":2125:2148  swapERC20Tokens(params) */\n              jump\t// in\n            tag_77:\n                /* \"src/contracts/AaveFlashLoanV3.sol\":2450:2456  uint i */\n              0x00\n                /* \"src/contracts/AaveFlashLoanV3.sol\":2445:2633  for (uint i = 0; i < assets.length; i++) {... */\n            tag_79:\n                /* \"src/contracts/AaveFlashLoanV3.sol\":2462:2479  i < assets.length */\n              dup10\n              dup2\n              lt\n                /* \"src/contracts/AaveFlashLoanV3.sol\":2445:2633  for (uint i = 0; i < assets.length; i++) {... */\n              iszero\n              tag_80\n              jumpi\n                /* \"src/contracts/AaveFlashLoanV3.sol\":2500:2516  uint amountOwing */\n              0x00\n                /* \"src/contracts/AaveFlashLoanV3.sol\":2532:2540  premiums */\n              dup8\n              dup8\n                /* \"src/contracts/AaveFlashLoanV3.sol\":2541:2542  i */\n              dup4\n                /* \"src/contracts/AaveFlashLoanV3.sol\":2532:2543  premiums[i] */\n              dup2\n              dup2\n              lt\n              tag_83\n              jumpi\n              tag_83\n              tag_84\n              jump\t// in\n            tag_83:\n              swap1\n              pop\n              0x20\n              mul\n              add\n              calldataload\n                /* \"src/contracts/AaveFlashLoanV3.sol\":2519:2526  amounts */\n              dup11\n              dup11\n                /* \"src/contracts/AaveFlashLoanV3.sol\":2527:2528  i */\n              dup5\n                /* \"src/contracts/AaveFlashLoanV3.sol\":2519:2529  amounts[i] */\n              dup2\n              dup2\n              lt\n              tag_86\n              jumpi\n              tag_86\n              tag_84\n              jump\t// in\n            tag_86:\n              swap1\n              pop\n              0x20\n              mul\n              add\n              calldataload\n                /* \"src/contracts/AaveFlashLoanV3.sol\":2519:2543  amounts[i] + premiums[i] */\n              tag_87\n              swap2\n              swap1\n              tag_88\n              jump\t// in\n            tag_87:\n                /* \"src/contracts/AaveFlashLoanV3.sol\":2500:2543  uint amountOwing = amounts[i] + premiums[i] */\n              swap1\n              pop\n                /* \"src/contracts/AaveFlashLoanV3.sol\":2557:2622  TransferHelper.safeApprove(assets[i], address(POOL), amountOwing) */\n              tag_89\n                /* \"src/contracts/AaveFlashLoanV3.sol\":2584:2590  assets */\n              dup13\n              dup13\n                /* \"src/contracts/AaveFlashLoanV3.sol\":2591:2592  i */\n              dup5\n                /* \"src/contracts/AaveFlashLoanV3.sol\":2584:2593  assets[i] */\n              dup2\n              dup2\n              lt\n              tag_91\n              jumpi\n              tag_91\n              tag_84\n              jump\t// in\n            tag_91:\n              swap1\n              pop\n              0x20\n              mul\n              add\n              0x20\n              dup2\n              add\n              swap1\n              tag_92\n              swap2\n              swap1\n              tag_19\n              jump\t// in\n            tag_92:\n                /* \"src/contracts/AaveFlashLoanV3.sol\":2603:2607  POOL */\n              immutable(\"0x6be84febb8d838b29663c2973fc033c21db97bc9be43c128ccb91ac1f7226079\")\n                /* \"src/contracts/AaveFlashLoanV3.sol\":2610:2621  amountOwing */\n              dup4\n                /* \"src/contracts/AaveFlashLoanV3.sol\":2557:2583  TransferHelper.safeApprove */\n              tag_93\n                /* \"src/contracts/AaveFlashLoanV3.sol\":2557:2622  TransferHelper.safeApprove(assets[i], address(POOL), amountOwing) */\n              jump\t// in\n            tag_89:\n              pop\n                /* \"src/contracts/AaveFlashLoanV3.sol\":2481:2484  i++ */\n              dup1\n              tag_94\n              dup2\n              tag_95\n              jump\t// in\n            tag_94:\n              swap2\n              pop\n              pop\n                /* \"src/contracts/AaveFlashLoanV3.sol\":2445:2633  for (uint i = 0; i < assets.length; i++) {... */\n              jump(tag_79)\n            tag_80:\n              pop\n                /* \"src/contracts/AaveFlashLoanV3.sol\":2658:2662  true */\n              0x01\n              swap11\n                /* \"src/contracts/AaveFlashLoanV3.sol\":1785:2669  function executeOperation(... */\n              swap10\n              pop\n              pop\n              pop\n              pop\n              pop\n              pop\n              pop\n              pop\n              pop\n              pop\n              jump\t// out\n                /* \"src/contracts/AaveFlashLoanV3.sol\":2748:3869  function myFlashLoanCall(address token0, address token1, uint8 direction, uint24 poolFee, uint256 amountIn, uint256 amountOut, uint256 deadline) public onlyOwner {... */\n            tag_46:\n                /* \"src/contracts/AaveFlashLoanV3.sol\":1649:1654  owner */\n              and(sub(shl(0xa0, 0x01), 0x01), sload(0x00))\n                /* \"src/contracts/AaveFlashLoanV3.sol\":1634:1644  msg.sender */\n              caller\n                /* \"src/contracts/AaveFlashLoanV3.sol\":1626:1654  address(msg.sender) == owner */\n              eq\n                /* \"src/contracts/AaveFlashLoanV3.sol\":1618:1655  require(address(msg.sender) == owner) */\n              tag_97\n              jumpi\n              0x00\n              dup1\n              revert\n            tag_97:\n                /* \"src/contracts/AaveFlashLoanV3.sol\":3049:3065  new address[](1) */\n              0x40\n              dup1\n              mload\n                /* \"src/contracts/AaveFlashLoanV3.sol\":3063:3064  1 */\n              0x01\n                /* \"src/contracts/AaveFlashLoanV3.sol\":3049:3065  new address[](1) */\n              dup1\n              dup3\n              mstore\n              dup2\n              dup4\n              add\n              swap1\n              swap3\n              mstore\n                /* \"src/contracts/AaveFlashLoanV3.sol\":3007:3011  this */\n              address\n              swap2\n                /* \"src/contracts/AaveFlashLoanV3.sol\":2973:2996  address receiverAddress */\n              0x00\n              swap2\n                /* \"src/contracts/AaveFlashLoanV3.sol\":3049:3065  new address[](1) */\n              swap1\n              0x20\n              dup1\n              dup4\n              add\n              swap1\n              dup1\n              calldatasize\n              dup4\n              calldatacopy\n              add\n              swap1\n              pop\n              pop\n                /* \"src/contracts/AaveFlashLoanV3.sol\":3023:3065  address[] memory assets = new address[](1) */\n              swap1\n              pop\n                /* \"src/contracts/AaveFlashLoanV3.sol\":3087:3093  token0 */\n              dup9\n                /* \"src/contracts/AaveFlashLoanV3.sol\":3075:3081  assets */\n              dup2\n                /* \"src/contracts/AaveFlashLoanV3.sol\":3082:3083  0 */\n              0x00\n                /* \"src/contracts/AaveFlashLoanV3.sol\":3075:3084  assets[0] */\n              dup2\n              mload\n              dup2\n              lt\n              tag_104\n              jumpi\n              tag_104\n              tag_84\n              jump\t// in\n            tag_104:\n              sub(shl(0xa0, 0x01), 0x01)\n                /* \"src/contracts/AaveFlashLoanV3.sol\":3075:3093  assets[0] = token0 */\n              swap3\n              swap1\n              swap3\n              and\n                /* \"src/contracts/AaveFlashLoanV3.sol\":3075:3084  assets[0] */\n              0x20\n              swap3\n              dup4\n              mul\n              swap2\n              swap1\n              swap2\n              add\n              swap1\n              swap2\n              add\n                /* \"src/contracts/AaveFlashLoanV3.sol\":3075:3093  assets[0] = token0 */\n              mstore\n                /* \"src/contracts/AaveFlashLoanV3.sol\":3131:3147  new uint256[](1) */\n              0x40\n              dup1\n              mload\n                /* \"src/contracts/AaveFlashLoanV3.sol\":3145:3146  1 */\n              0x01\n                /* \"src/contracts/AaveFlashLoanV3.sol\":3131:3147  new uint256[](1) */\n              dup1\n              dup3\n              mstore\n              dup2\n              dup4\n              add\n              swap1\n              swap3\n              mstore\n                /* \"src/contracts/AaveFlashLoanV3.sol\":3104:3128  uint256[] memory amounts */\n              0x00\n              swap2\n                /* \"src/contracts/AaveFlashLoanV3.sol\":3131:3147  new uint256[](1) */\n              dup2\n              0x20\n              add\n              0x20\n              dup3\n              mul\n              dup1\n              calldatasize\n              dup4\n              calldatacopy\n              add\n              swap1\n              pop\n              pop\n                /* \"src/contracts/AaveFlashLoanV3.sol\":3104:3147  uint256[] memory amounts = new uint256[](1) */\n              swap1\n              pop\n                /* \"src/contracts/AaveFlashLoanV3.sol\":3170:3178  amountIn */\n              dup6\n                /* \"src/contracts/AaveFlashLoanV3.sol\":3157:3164  amounts */\n              dup2\n                /* \"src/contracts/AaveFlashLoanV3.sol\":3165:3166  0 */\n              0x00\n                /* \"src/contracts/AaveFlashLoanV3.sol\":3157:3167  amounts[0] */\n              dup2\n              mload\n              dup2\n              lt\n              tag_109\n              jumpi\n              tag_109\n              tag_84\n              jump\t// in\n            tag_109:\n              0x20\n              swap1\n              dup2\n              mul\n              swap2\n              swap1\n              swap2\n              add\n              add\n                /* \"src/contracts/AaveFlashLoanV3.sol\":3157:3178  amounts[0] = amountIn */\n              mstore\n                /* \"src/contracts/AaveFlashLoanV3.sol\":3263:3279  new uint256[](1) */\n              0x40\n              dup1\n              mload\n                /* \"src/contracts/AaveFlashLoanV3.sol\":3277:3278  1 */\n              0x01\n                /* \"src/contracts/AaveFlashLoanV3.sol\":3263:3279  new uint256[](1) */\n              dup1\n              dup3\n              mstore\n              dup2\n              dup4\n              add\n              swap1\n              swap3\n              mstore\n                /* \"src/contracts/AaveFlashLoanV3.sol\":3238:3260  uint256[] memory modes */\n              0x00\n              swap2\n                /* \"src/contracts/AaveFlashLoanV3.sol\":3263:3279  new uint256[](1) */\n              dup2\n              0x20\n              add\n              0x20\n              dup3\n              mul\n              dup1\n              calldatasize\n              dup4\n              calldatacopy\n              add\n              swap1\n              pop\n              pop\n                /* \"src/contracts/AaveFlashLoanV3.sol\":3238:3279  uint256[] memory modes = new uint256[](1) */\n              swap1\n              pop\n                /* \"src/contracts/AaveFlashLoanV3.sol\":3300:3301  0 */\n              0x00\n                /* \"src/contracts/AaveFlashLoanV3.sol\":3289:3294  modes */\n              dup2\n                /* \"src/contracts/AaveFlashLoanV3.sol\":3295:3296  0 */\n              0x00\n                /* \"src/contracts/AaveFlashLoanV3.sol\":3289:3297  modes[0] */\n              dup2\n              mload\n              dup2\n              lt\n              tag_114\n              jumpi\n              tag_114\n              tag_84\n              jump\t// in\n            tag_114:\n              0x20\n              swap1\n              dup2\n              mul\n              swap2\n              swap1\n              swap2\n              add\n              dup2\n              add\n                /* \"src/contracts/AaveFlashLoanV3.sol\":3289:3301  modes[0] = 0 */\n              swap2\n              swap1\n              swap2\n              mstore\n                /* \"src/contracts/AaveFlashLoanV3.sol\":3512:3589  abi.encode(token0, token1, direction, poolFee, amountIn, amountOut, deadline) */\n              0x40\n              dup1\n              mload\n              sub(shl(0xa0, 0x01), 0x01)\n                /* \"#utility.yul\":7046:7061   */\n              dup1\n              dup16\n              and\n                /* \"src/contracts/AaveFlashLoanV3.sol\":3512:3589  abi.encode(token0, token1, direction, poolFee, amountIn, amountOut, deadline) */\n              swap4\n              dup3\n              add\n                /* \"#utility.yul\":7028:7062   */\n              swap4\n              swap1\n              swap4\n              mstore\n                /* \"#utility.yul\":7098:7113   */\n              swap2\n              dup13\n              and\n                /* \"#utility.yul\":7078:7096   */\n              swap1\n              dup3\n              add\n                /* \"#utility.yul\":7071:7114   */\n              mstore\n                /* \"#utility.yul\":7162:7166   */\n              0xff\n                /* \"#utility.yul\":7150:7167   */\n              dup11\n              and\n                /* \"#utility.yul\":7130:7148   */\n              0x60\n              dup3\n              add\n                /* \"#utility.yul\":7123:7168   */\n              mstore\n                /* \"#utility.yul\":7216:7224   */\n              0xffffff\n                /* \"#utility.yul\":7204:7225   */\n              dup10\n              and\n                /* \"#utility.yul\":7184:7202   */\n              0x80\n              dup3\n              add\n                /* \"#utility.yul\":7177:7226   */\n              mstore\n                /* \"#utility.yul\":7242:7261   */\n              0xa0\n              dup2\n              add\n                /* \"#utility.yul\":7235:7270   */\n              dup9\n              swap1\n              mstore\n                /* \"#utility.yul\":7286:7305   */\n              0xc0\n              dup2\n              add\n                /* \"#utility.yul\":7279:7314   */\n              dup8\n              swap1\n              mstore\n                /* \"#utility.yul\":7330:7349   */\n              0xe0\n              dup2\n              add\n                /* \"#utility.yul\":7323:7358   */\n              dup7\n              swap1\n              mstore\n                /* \"src/contracts/AaveFlashLoanV3.sol\":3340:3344  this */\n              address\n              swap1\n                /* \"src/contracts/AaveFlashLoanV3.sol\":3311:3329  address onBehalfOf */\n              0x00\n              swap1\n                /* \"#utility.yul\":6939:6958   */\n              0x0100\n              add\n                /* \"src/contracts/AaveFlashLoanV3.sol\":3512:3589  abi.encode(token0, token1, direction, poolFee, amountIn, amountOut, deadline) */\n              0x40\n              dup1\n              mload\n              not(0x1f)\n              dup2\n              dup5\n              sub\n              add\n              dup2\n              mstore\n              swap1\n              dup3\n              swap1\n              mstore\n                /* \"src/contracts/AaveFlashLoanV3.sol\":3679:3862  POOL.flashLoan(... */\n              0xab9c4b5d00000000000000000000000000000000000000000000000000000000\n              dup3\n              mstore\n                /* \"src/contracts/AaveFlashLoanV3.sol\":3512:3589  abi.encode(token0, token1, direction, poolFee, amountIn, amountOut, deadline) */\n              swap2\n              pop\n                /* \"src/contracts/AaveFlashLoanV3.sol\":3599:3618  uint16 referralCode */\n              0x00\n              swap1\n              sub(shl(0xa0, 0x01), 0x01)\n                /* \"src/contracts/AaveFlashLoanV3.sol\":3679:3683  POOL */\n              immutable(\"0x6be84febb8d838b29663c2973fc033c21db97bc9be43c128ccb91ac1f7226079\")\n                /* \"src/contracts/AaveFlashLoanV3.sol\":3679:3693  POOL.flashLoan */\n              and\n              swap1\n              0xab9c4b5d\n              swap1\n                /* \"src/contracts/AaveFlashLoanV3.sol\":3679:3862  POOL.flashLoan(... */\n              tag_117\n              swap1\n                /* \"src/contracts/AaveFlashLoanV3.sol\":3707:3722  receiverAddress */\n              dup11\n              swap1\n                /* \"src/contracts/AaveFlashLoanV3.sol\":3736:3742  assets */\n              dup11\n              swap1\n                /* \"src/contracts/AaveFlashLoanV3.sol\":3756:3763  amounts */\n              dup11\n              swap1\n                /* \"src/contracts/AaveFlashLoanV3.sol\":3777:3782  modes */\n              dup11\n              swap1\n                /* \"src/contracts/AaveFlashLoanV3.sol\":3796:3806  onBehalfOf */\n              dup11\n              swap1\n                /* \"src/contracts/AaveFlashLoanV3.sol\":3512:3589  abi.encode(token0, token1, direction, poolFee, amountIn, amountOut, deadline) */\n              dup11\n              swap1\n                /* \"src/contracts/AaveFlashLoanV3.sol\":3599:3618  uint16 referralCode */\n              dup11\n              swap1\n                /* \"src/contracts/AaveFlashLoanV3.sol\":3679:3862  POOL.flashLoan(... */\n              0x04\n              add\n              tag_118\n              jump\t// in\n            tag_117:\n              0x00\n              mload(0x40)\n              dup1\n              dup4\n              sub\n              dup2\n              0x00\n              dup8\n              dup1\n              extcodesize\n              iszero\n              dup1\n              iszero\n              tag_119\n              jumpi\n              0x00\n              dup1\n              revert\n            tag_119:\n              pop\n              gas\n              call\n              iszero\n              dup1\n              iszero\n              tag_121\n              jumpi\n              returndatasize\n              0x00\n              dup1\n              returndatacopy\n              revert(0x00, returndatasize)\n            tag_121:\n              pop\n              pop\n              pop\n              pop\n                /* \"src/contracts/AaveFlashLoanV3.sol\":2910:3869  {... */\n              pop\n              pop\n              pop\n              pop\n              pop\n              pop\n              pop\n                /* \"src/contracts/AaveFlashLoanV3.sol\":2748:3869  function myFlashLoanCall(address token0, address token1, uint8 direction, uint24 poolFee, uint256 amountIn, uint256 amountOut, uint256 deadline) public onlyOwner {... */\n              pop\n              pop\n              pop\n              pop\n              pop\n              pop\n              pop\n              jump\t// out\n                /* \"src/contracts/AaveFlashLoanV3.sol\":7651:7750  function transferOwnership(address newOwner) external onlyOwner {... */\n            tag_50:\n                /* \"src/contracts/AaveFlashLoanV3.sol\":1649:1654  owner */\n              and(sub(shl(0xa0, 0x01), 0x01), sload(0x00))\n                /* \"src/contracts/AaveFlashLoanV3.sol\":1634:1644  msg.sender */\n              caller\n                /* \"src/contracts/AaveFlashLoanV3.sol\":1626:1654  address(msg.sender) == owner */\n              eq\n                /* \"src/contracts/AaveFlashLoanV3.sol\":1618:1655  require(address(msg.sender) == owner) */\n              tag_123\n              jumpi\n              0x00\n              dup1\n              revert\n            tag_123:\n                /* \"src/contracts/AaveFlashLoanV3.sol\":7726:7731  owner */\n              0x00\n                /* \"src/contracts/AaveFlashLoanV3.sol\":7726:7742  owner = newOwner */\n              dup1\n              sload\n              0xffffffffffffffffffffffff0000000000000000000000000000000000000000\n              and\n              sub(shl(0xa0, 0x01), 0x01)\n              swap3\n              swap1\n              swap3\n              and\n              swap2\n              swap1\n              swap2\n              or\n              swap1\n              sstore\n                /* \"src/contracts/AaveFlashLoanV3.sol\":7651:7750  function transferOwnership(address newOwner) external onlyOwner {... */\n              jump\t// out\n                /* \"@uniswap/v3-periphery/contracts/libraries/TransferHelper.sol\":1211:1520  function safeTransfer(... */\n            tag_63:\n                /* \"@uniswap/v3-periphery/contracts/libraries/TransferHelper.sol\":1371:1430  abi.encodeWithSelector(IERC20.transfer.selector, to, value) */\n              0x40\n              dup1\n              mload\n              sub(shl(0xa0, 0x01), 0x01)\n                /* \"#utility.yul\":10053:10108   */\n              dup5\n              dup2\n              and\n                /* \"@uniswap/v3-periphery/contracts/libraries/TransferHelper.sol\":1371:1430  abi.encodeWithSelector(IERC20.transfer.selector, to, value) */\n              0x24\n              dup4\n              add\n                /* \"#utility.yul\":10035:10109   */\n              mstore\n                /* \"#utility.yul\":10125:10143   */\n              0x44\n              dup1\n              dup4\n              add\n                /* \"#utility.yul\":10118:10152   */\n              dup6\n              swap1\n              mstore\n                /* \"@uniswap/v3-periphery/contracts/libraries/TransferHelper.sol\":1371:1430  abi.encodeWithSelector(IERC20.transfer.selector, to, value) */\n              dup4\n              mload\n              dup1\n              dup5\n              sub\n              swap1\n              swap2\n              add\n              dup2\n              mstore\n                /* \"#utility.yul\":10008:10026   */\n              0x64\n              swap1\n              swap3\n              add\n                /* \"@uniswap/v3-periphery/contracts/libraries/TransferHelper.sol\":1371:1430  abi.encodeWithSelector(IERC20.transfer.selector, to, value) */\n              dup4\n              mstore\n              0x20\n              dup3\n              add\n              dup1\n              mload\n              0xffffffffffffffffffffffffffffffffffffffffffffffffffffffff\n              and\n                /* \"@uniswap/v3-periphery/contracts/libraries/TransferHelper.sol\":1394:1418  IERC20.transfer.selector */\n              0xa9059cbb00000000000000000000000000000000000000000000000000000000\n                /* \"@uniswap/v3-periphery/contracts/libraries/TransferHelper.sol\":1371:1430  abi.encodeWithSelector(IERC20.transfer.selector, to, value) */\n              or\n              swap1\n              mstore\n                /* \"@uniswap/v3-periphery/contracts/libraries/TransferHelper.sol\":1360:1431  token.call(abi.encodeWithSelector(IERC20.transfer.selector, to, value)) */\n              swap2\n              mload\n              0x00\n              swap3\n              dup4\n              swap3\n                /* \"@uniswap/v3-periphery/contracts/libraries/TransferHelper.sol\":1360:1370  token.call */\n              swap1\n              dup8\n              and\n              swap2\n                /* \"@uniswap/v3-periphery/contracts/libraries/TransferHelper.sol\":1360:1431  token.call(abi.encodeWithSelector(IERC20.transfer.selector, to, value)) */\n              tag_128\n              swap2\n                /* \"@uniswap/v3-periphery/contracts/libraries/TransferHelper.sol\":1371:1430  abi.encodeWithSelector(IERC20.transfer.selector, to, value) */\n              swap1\n                /* \"@uniswap/v3-periphery/contracts/libraries/TransferHelper.sol\":1360:1431  token.call(abi.encodeWithSelector(IERC20.transfer.selector, to, value)) */\n              tag_129\n              jump\t// in\n            tag_128:\n              0x00\n              mload(0x40)\n              dup1\n              dup4\n              sub\n              dup2\n              0x00\n              dup7\n              gas\n              call\n              swap2\n              pop\n              pop\n              returndatasize\n              dup1\n              0x00\n              dup2\n              eq\n              tag_132\n              jumpi\n              mload(0x40)\n              swap2\n              pop\n              and(add(returndatasize, 0x3f), not(0x1f))\n              dup3\n              add\n              0x40\n              mstore\n              returndatasize\n              dup3\n              mstore\n              returndatasize\n              0x00\n              0x20\n              dup5\n              add\n              returndatacopy\n              jump(tag_131)\n            tag_132:\n              0x60\n              swap2\n              pop\n            tag_131:\n              pop\n                /* \"@uniswap/v3-periphery/contracts/libraries/TransferHelper.sol\":1324:1431  (bool success, bytes memory data) = token.call(abi.encodeWithSelector(IERC20.transfer.selector, to, value)) */\n              swap2\n              pop\n              swap2\n              pop\n                /* \"@uniswap/v3-periphery/contracts/libraries/TransferHelper.sol\":1449:1456  success */\n              dup2\n                /* \"@uniswap/v3-periphery/contracts/libraries/TransferHelper.sol\":1449:1506  success && (data.length == 0 || abi.decode(data, (bool))) */\n              dup1\n              iszero\n              tag_135\n              jumpi\n              pop\n                /* \"@uniswap/v3-periphery/contracts/libraries/TransferHelper.sol\":1461:1472  data.length */\n              dup1\n              mload\n                /* \"@uniswap/v3-periphery/contracts/libraries/TransferHelper.sol\":1461:1477  data.length == 0 */\n              iszero\n              dup1\n                /* \"@uniswap/v3-periphery/contracts/libraries/TransferHelper.sol\":1461:1505  data.length == 0 || abi.decode(data, (bool)) */\n              tag_135\n              jumpi\n              pop\n                /* \"@uniswap/v3-periphery/contracts/libraries/TransferHelper.sol\":1492:1496  data */\n              dup1\n                /* \"@uniswap/v3-periphery/contracts/libraries/TransferHelper.sol\":1481:1505  abi.decode(data, (bool)) */\n              dup1\n              0x20\n              add\n              swap1\n              mload\n              dup2\n              add\n              swap1\n              tag_135\n              swap2\n              swap1\n              tag_136\n              jump\t// in\n            tag_135:\n                /* \"@uniswap/v3-periphery/contracts/libraries/TransferHelper.sol\":1441:1513  require(success && (data.length == 0 || abi.decode(data, (bool))), 'ST') */\n              tag_137\n              jumpi\n              mload(0x40)\n              shl(0xe5, 0x461bcd)\n              dup2\n              mstore\n                /* \"#utility.yul\":10926:10928   */\n              0x20\n                /* \"@uniswap/v3-periphery/contracts/libraries/TransferHelper.sol\":1441:1513  require(success && (data.length == 0 || abi.decode(data, (bool))), 'ST') */\n              0x04\n              dup3\n              add\n                /* \"#utility.yul\":10908:10929   */\n              mstore\n                /* \"#utility.yul\":10965:10966   */\n              0x02\n                /* \"#utility.yul\":10945:10963   */\n              0x24\n              dup3\n              add\n                /* \"#utility.yul\":10938:10967   */\n              mstore\n                /* \"#utility.yul\":11003:11007   */\n              0x5354000000000000000000000000000000000000000000000000000000000000\n                /* \"#utility.yul\":10983:11001   */\n              0x44\n              dup3\n              add\n                /* \"#utility.yul\":10976:11008   */\n              mstore\n                /* \"#utility.yul\":11025:11043   */\n              0x64\n              add\n                /* \"@uniswap/v3-periphery/contracts/libraries/TransferHelper.sol\":1441:1513  require(success && (data.length == 0 || abi.decode(data, (bool))), 'ST') */\n              tag_60\n                /* \"#utility.yul\":10724:11049   */\n              jump\n                /* \"@uniswap/v3-periphery/contracts/libraries/TransferHelper.sol\":1441:1513  require(success && (data.length == 0 || abi.decode(data, (bool))), 'ST') */\n            tag_137:\n                /* \"@uniswap/v3-periphery/contracts/libraries/TransferHelper.sol\":1314:1520  {... */\n              pop\n              pop\n                /* \"@uniswap/v3-periphery/contracts/libraries/TransferHelper.sol\":1211:1520  function safeTransfer(... */\n              pop\n              pop\n              pop\n              jump\t// out\n                /* \"src/contracts/AaveFlashLoanV3.sol\":3949:5192  function swapERC20Tokens(bytes calldata params) internal{... */\n            tag_78:\n                /* \"src/contracts/AaveFlashLoanV3.sol\":4016:4030  address token0 */\n              0x00\n              dup1\n              dup1\n              dup1\n              dup1\n              dup1\n              dup1\n                /* \"src/contracts/AaveFlashLoanV3.sol\":4138:4218  abi.decode(params, (address, address, uint8, uint24, uint256, uint256, uint256)) */\n              tag_141\n              dup9\n              dup11\n              add\n                /* \"src/contracts/AaveFlashLoanV3.sol\":4149:4155  params */\n              dup11\n                /* \"src/contracts/AaveFlashLoanV3.sol\":4138:4218  abi.decode(params, (address, address, uint8, uint24, uint256, uint256, uint256)) */\n              tag_45\n              jump\t// in\n            tag_141:\n                /* \"src/contracts/AaveFlashLoanV3.sol\":4253:4269  new address[](2) */\n              0x40\n              dup1\n              mload\n                /* \"src/contracts/AaveFlashLoanV3.sol\":4267:4268  2 */\n              0x02\n                /* \"src/contracts/AaveFlashLoanV3.sol\":4253:4269  new address[](2) */\n              dup1\n              dup3\n              mstore\n              0x60\n              dup3\n              add\n              dup4\n              mstore\n                /* \"src/contracts/AaveFlashLoanV3.sol\":4015:4218  (address token0, address token1, uint8 direction, uint24 poolFee, uint256 amountIn, uint256 amountOut, uint256 deadline) = abi.decode(params, (address, address, uint8, uint24, uint256, uint256, uint256)) */\n              swap9\n              swap16\n              pop\n              swap7\n              swap14\n              pop\n              swap5\n              swap12\n              pop\n              swap3\n              swap10\n              pop\n              swap1\n              swap8\n              pop\n              swap6\n              pop\n              swap4\n              pop\n                /* \"src/contracts/AaveFlashLoanV3.sol\":4229:4250  address[] memory path */\n              0x00\n              swap3\n                /* \"src/contracts/AaveFlashLoanV3.sol\":4267:4268  2 */\n              swap1\n                /* \"src/contracts/AaveFlashLoanV3.sol\":4253:4269  new address[](2) */\n              0x20\n              dup4\n              add\n              swap1\n              dup1\n              calldatasize\n              dup4\n              calldatacopy\n              add\n              swap1\n              pop\n              pop\n                /* \"src/contracts/AaveFlashLoanV3.sol\":4229:4269  address[] memory path = new address[](2) */\n              swap1\n              pop\n                /* \"src/contracts/AaveFlashLoanV3.sol\":4380:4389  direction */\n              dup6\n                /* \"src/contracts/AaveFlashLoanV3.sol\":4380:4394  direction == 1 */\n              0xff\n              and\n                /* \"src/contracts/AaveFlashLoanV3.sol\":4393:4394  1 */\n              0x01\n                /* \"src/contracts/AaveFlashLoanV3.sol\":4380:4394  direction == 1 */\n              eq\n                /* \"src/contracts/AaveFlashLoanV3.sol\":4377:5186  if(direction == 1){... */\n              iszero\n              tag_146\n              jumpi\n                /* \"src/contracts/AaveFlashLoanV3.sol\":4468:4492  uint256 uniSwapAmountOut */\n              0x00\n                /* \"src/contracts/AaveFlashLoanV3.sol\":4495:4564  uniSwapExactInputSingle(amountIn, amountOut, token0, token1, poolFee) */\n              tag_147\n                /* \"src/contracts/AaveFlashLoanV3.sol\":4519:4527  amountIn */\n              dup6\n                /* \"src/contracts/AaveFlashLoanV3.sol\":4529:4538  amountOut */\n              dup6\n                /* \"src/contracts/AaveFlashLoanV3.sol\":4540:4546  token0 */\n              dup12\n                /* \"src/contracts/AaveFlashLoanV3.sol\":4548:4554  token1 */\n              dup12\n                /* \"src/contracts/AaveFlashLoanV3.sol\":4556:4563  poolFee */\n              dup11\n                /* \"src/contracts/AaveFlashLoanV3.sol\":4495:4518  uniSwapExactInputSingle */\n              tag_148\n                /* \"src/contracts/AaveFlashLoanV3.sol\":4495:4564  uniSwapExactInputSingle(amountIn, amountOut, token0, token1, poolFee) */\n              jump\t// in\n            tag_147:\n                /* \"src/contracts/AaveFlashLoanV3.sol\":4468:4564  uint256 uniSwapAmountOut = uniSwapExactInputSingle(amountIn, amountOut, token0, token1, poolFee) */\n              swap1\n              pop\n                /* \"src/contracts/AaveFlashLoanV3.sol\":4657:4663  token1 */\n              dup8\n                /* \"src/contracts/AaveFlashLoanV3.sol\":4647:4651  path */\n              dup3\n                /* \"src/contracts/AaveFlashLoanV3.sol\":4652:4653  0 */\n              0x00\n                /* \"src/contracts/AaveFlashLoanV3.sol\":4647:4654  path[0] */\n              dup2\n              mload\n              dup2\n              lt\n              tag_150\n              jumpi\n              tag_150\n              tag_84\n              jump\t// in\n            tag_150:\n              0x20\n              mul\n              0x20\n              add\n              add\n                /* \"src/contracts/AaveFlashLoanV3.sol\":4647:4663  path[0] = token1 */\n              swap1\n              sub(shl(0xa0, 0x01), 0x01)\n              and\n              swap1\n              dup2\n              sub(shl(0xa0, 0x01), 0x01)\n              and\n              dup2\n              mstore\n              pop\n              pop\n                /* \"src/contracts/AaveFlashLoanV3.sol\":4687:4693  token0 */\n              dup9\n                /* \"src/contracts/AaveFlashLoanV3.sol\":4677:4681  path */\n              dup3\n                /* \"src/contracts/AaveFlashLoanV3.sol\":4682:4683  1 */\n              0x01\n                /* \"src/contracts/AaveFlashLoanV3.sol\":4677:4684  path[1] */\n              dup2\n              mload\n              dup2\n              lt\n              tag_152\n              jumpi\n              tag_152\n              tag_84\n              jump\t// in\n            tag_152:\n              0x20\n              mul\n              0x20\n              add\n              add\n                /* \"src/contracts/AaveFlashLoanV3.sol\":4677:4693  path[1] = token0 */\n              swap1\n              sub(shl(0xa0, 0x01), 0x01)\n              and\n              swap1\n              dup2\n              sub(shl(0xa0, 0x01), 0x01)\n              and\n              dup2\n              mstore\n              pop\n              pop\n                /* \"src/contracts/AaveFlashLoanV3.sol\":4707:4769  sushiSwapExactInputSingle(uniSwapAmountOut, 0, path, deadline) */\n              tag_153\n                /* \"src/contracts/AaveFlashLoanV3.sol\":4733:4749  uniSwapAmountOut */\n              dup2\n                /* \"src/contracts/AaveFlashLoanV3.sol\":4751:4752  0 */\n              0x00\n                /* \"src/contracts/AaveFlashLoanV3.sol\":4754:4758  path */\n              dup5\n                /* \"src/contracts/AaveFlashLoanV3.sol\":4760:4768  deadline */\n              dup7\n                /* \"src/contracts/AaveFlashLoanV3.sol\":4707:4732  sushiSwapExactInputSingle */\n              tag_154\n                /* \"src/contracts/AaveFlashLoanV3.sol\":4707:4769  sushiSwapExactInputSingle(uniSwapAmountOut, 0, path, deadline) */\n              jump\t// in\n            tag_153:\n              pop\n                /* \"src/contracts/AaveFlashLoanV3.sol\":4395:4781  {... */\n              pop\n                /* \"src/contracts/AaveFlashLoanV3.sol\":4377:5186  if(direction == 1){... */\n              jump(tag_155)\n            tag_146:\n                /* \"src/contracts/AaveFlashLoanV3.sol\":4868:4874  token0 */\n              dup8\n                /* \"src/contracts/AaveFlashLoanV3.sol\":4858:4862  path */\n              dup2\n                /* \"src/contracts/AaveFlashLoanV3.sol\":4863:4864  0 */\n              0x00\n                /* \"src/contracts/AaveFlashLoanV3.sol\":4858:4865  path[0] */\n              dup2\n              mload\n              dup2\n              lt\n              tag_157\n              jumpi\n              tag_157\n              tag_84\n              jump\t// in\n            tag_157:\n              0x20\n              mul\n              0x20\n              add\n              add\n                /* \"src/contracts/AaveFlashLoanV3.sol\":4858:4874  path[0] = token0 */\n              swap1\n              sub(shl(0xa0, 0x01), 0x01)\n              and\n              swap1\n              dup2\n              sub(shl(0xa0, 0x01), 0x01)\n              and\n              dup2\n              mstore\n              pop\n              pop\n                /* \"src/contracts/AaveFlashLoanV3.sol\":4898:4904  token1 */\n              dup7\n                /* \"src/contracts/AaveFlashLoanV3.sol\":4888:4892  path */\n              dup2\n                /* \"src/contracts/AaveFlashLoanV3.sol\":4893:4894  1 */\n              0x01\n                /* \"src/contracts/AaveFlashLoanV3.sol\":4888:4895  path[1] */\n              dup2\n              mload\n              dup2\n              lt\n              tag_159\n              jumpi\n              tag_159\n              tag_84\n              jump\t// in\n            tag_159:\n              0x20\n              mul\n              0x20\n              add\n              add\n                /* \"src/contracts/AaveFlashLoanV3.sol\":4888:4904  path[1] = token1 */\n              swap1\n              sub(shl(0xa0, 0x01), 0x01)\n              and\n              swap1\n              dup2\n              sub(shl(0xa0, 0x01), 0x01)\n              and\n              dup2\n              mstore\n              pop\n              pop\n                /* \"src/contracts/AaveFlashLoanV3.sol\":4918:4953  uint256[] memory sushiSwapAmountOut */\n              0x00\n                /* \"src/contracts/AaveFlashLoanV3.sol\":4956:5018  sushiSwapExactInputSingle(amountIn, amountOut, path, deadline) */\n              tag_160\n                /* \"src/contracts/AaveFlashLoanV3.sol\":4982:4990  amountIn */\n              dup6\n                /* \"src/contracts/AaveFlashLoanV3.sol\":4992:5001  amountOut */\n              dup6\n                /* \"src/contracts/AaveFlashLoanV3.sol\":5003:5007  path */\n              dup5\n                /* \"src/contracts/AaveFlashLoanV3.sol\":5009:5017  deadline */\n              dup7\n                /* \"src/contracts/AaveFlashLoanV3.sol\":4956:4981  sushiSwapExactInputSingle */\n              tag_154\n                /* \"src/contracts/AaveFlashLoanV3.sol\":4956:5018  sushiSwapExactInputSingle(amountIn, amountOut, path, deadline) */\n              jump\t// in\n            tag_160:\n                /* \"src/contracts/AaveFlashLoanV3.sol\":4918:5018  uint256[] memory sushiSwapAmountOut = sushiSwapExactInputSingle(amountIn, amountOut, path, deadline) */\n              swap1\n              pop\n                /* \"src/contracts/AaveFlashLoanV3.sol\":5101:5175  uniSwapExactInputSingle(sushiSwapAmountOut[1], 0, token1, token0, poolFee) */\n              tag_161\n                /* \"src/contracts/AaveFlashLoanV3.sol\":5125:5143  sushiSwapAmountOut */\n              dup2\n                /* \"src/contracts/AaveFlashLoanV3.sol\":5144:5145  1 */\n              0x01\n                /* \"src/contracts/AaveFlashLoanV3.sol\":5125:5146  sushiSwapAmountOut[1] */\n              dup2\n              mload\n              dup2\n              lt\n              tag_163\n              jumpi\n              tag_163\n              tag_84\n              jump\t// in\n            tag_163:\n              0x20\n              mul\n              0x20\n              add\n              add\n              mload\n                /* \"src/contracts/AaveFlashLoanV3.sol\":5148:5149  0 */\n              0x00\n                /* \"src/contracts/AaveFlashLoanV3.sol\":5151:5157  token1 */\n              dup11\n                /* \"src/contracts/AaveFlashLoanV3.sol\":5159:5165  token0 */\n              dup13\n                /* \"src/contracts/AaveFlashLoanV3.sol\":5167:5174  poolFee */\n              dup11\n                /* \"src/contracts/AaveFlashLoanV3.sol\":5101:5124  uniSwapExactInputSingle */\n              tag_148\n                /* \"src/contracts/AaveFlashLoanV3.sol\":5101:5175  uniSwapExactInputSingle(sushiSwapAmountOut[1], 0, token1, token0, poolFee) */\n              jump\t// in\n            tag_161:\n              pop\n                /* \"src/contracts/AaveFlashLoanV3.sol\":4785:5186  {... */\n              pop\n                /* \"src/contracts/AaveFlashLoanV3.sol\":4377:5186  if(direction == 1){... */\n            tag_155:\n                /* \"src/contracts/AaveFlashLoanV3.sol\":4005:5192  {... */\n              pop\n              pop\n              pop\n              pop\n              pop\n              pop\n              pop\n              pop\n                /* \"src/contracts/AaveFlashLoanV3.sol\":3949:5192  function swapERC20Tokens(bytes calldata params) internal{... */\n              pop\n              pop\n              jump\t// out\n                /* \"@uniswap/v3-periphery/contracts/libraries/TransferHelper.sol\":1873:2180  function safeApprove(... */\n            tag_93:\n                /* \"@uniswap/v3-periphery/contracts/libraries/TransferHelper.sol\":2032:2090  abi.encodeWithSelector(IERC20.approve.selector, to, value) */\n              0x40\n              dup1\n              mload\n              sub(shl(0xa0, 0x01), 0x01)\n                /* \"#utility.yul\":10053:10108   */\n              dup5\n              dup2\n              and\n                /* \"@uniswap/v3-periphery/contracts/libraries/TransferHelper.sol\":2032:2090  abi.encodeWithSelector(IERC20.approve.selector, to, value) */\n              0x24\n              dup4\n              add\n                /* \"#utility.yul\":10035:10109   */\n              mstore\n                /* \"#utility.yul\":10125:10143   */\n              0x44\n              dup1\n              dup4\n              add\n                /* \"#utility.yul\":10118:10152   */\n              dup6\n              swap1\n              mstore\n                /* \"@uniswap/v3-periphery/contracts/libraries/TransferHelper.sol\":2032:2090  abi.encodeWithSelector(IERC20.approve.selector, to, value) */\n              dup4\n              mload\n              dup1\n              dup5\n              sub\n              swap1\n              swap2\n              add\n              dup2\n              mstore\n                /* \"#utility.yul\":10008:10026   */\n              0x64\n              swap1\n              swap3\n              add\n                /* \"@uniswap/v3-periphery/contracts/libraries/TransferHelper.sol\":2032:2090  abi.encodeWithSelector(IERC20.approve.selector, to, value) */\n              dup4\n              mstore\n              0x20\n              dup3\n              add\n              dup1\n              mload\n              0xffffffffffffffffffffffffffffffffffffffffffffffffffffffff\n              and\n                /* \"@uniswap/v3-periphery/contracts/libraries/TransferHelper.sol\":2055:2078  IERC20.approve.selector */\n              0x095ea7b300000000000000000000000000000000000000000000000000000000\n                /* \"@uniswap/v3-periphery/contracts/libraries/TransferHelper.sol\":2032:2090  abi.encodeWithSelector(IERC20.approve.selector, to, value) */\n              or\n              swap1\n              mstore\n                /* \"@uniswap/v3-periphery/contracts/libraries/TransferHelper.sol\":2021:2091  token.call(abi.encodeWithSelector(IERC20.approve.selector, to, value)) */\n              swap2\n              mload\n              0x00\n              swap3\n              dup4\n              swap3\n                /* \"@uniswap/v3-periphery/contracts/libraries/TransferHelper.sol\":2021:2031  token.call */\n              swap1\n              dup8\n              and\n              swap2\n                /* \"@uniswap/v3-periphery/contracts/libraries/TransferHelper.sol\":2021:2091  token.call(abi.encodeWithSelector(IERC20.approve.selector, to, value)) */\n              tag_166\n              swap2\n                /* \"@uniswap/v3-periphery/contracts/libraries/TransferHelper.sol\":2032:2090  abi.encodeWithSelector(IERC20.approve.selector, to, value) */\n              swap1\n                /* \"@uniswap/v3-periphery/contracts/libraries/TransferHelper.sol\":2021:2091  token.call(abi.encodeWithSelector(IERC20.approve.selector, to, value)) */\n              tag_129\n              jump\t// in\n            tag_166:\n              0x00\n              mload(0x40)\n              dup1\n              dup4\n              sub\n              dup2\n              0x00\n              dup7\n              gas\n              call\n              swap2\n              pop\n              pop\n              returndatasize\n              dup1\n              0x00\n              dup2\n              eq\n              tag_169\n              jumpi\n              mload(0x40)\n              swap2\n              pop\n              and(add(returndatasize, 0x3f), not(0x1f))\n              dup3\n              add\n              0x40\n              mstore\n              returndatasize\n              dup3\n              mstore\n              returndatasize\n              0x00\n              0x20\n              dup5\n              add\n              returndatacopy\n              jump(tag_168)\n            tag_169:\n              0x60\n              swap2\n              pop\n            tag_168:\n              pop\n                /* \"@uniswap/v3-periphery/contracts/libraries/TransferHelper.sol\":1985:2091  (bool success, bytes memory data) = token.call(abi.encodeWithSelector(IERC20.approve.selector, to, value)) */\n              swap2\n              pop\n              swap2\n              pop\n                /* \"@uniswap/v3-periphery/contracts/libraries/TransferHelper.sol\":2109:2116  success */\n              dup2\n                /* \"@uniswap/v3-periphery/contracts/libraries/TransferHelper.sol\":2109:2166  success && (data.length == 0 || abi.decode(data, (bool))) */\n              dup1\n              iszero\n              tag_172\n              jumpi\n              pop\n                /* \"@uniswap/v3-periphery/contracts/libraries/TransferHelper.sol\":2121:2132  data.length */\n              dup1\n              mload\n                /* \"@uniswap/v3-periphery/contracts/libraries/TransferHelper.sol\":2121:2137  data.length == 0 */\n              iszero\n              dup1\n                /* \"@uniswap/v3-periphery/contracts/libraries/TransferHelper.sol\":2121:2165  data.length == 0 || abi.decode(data, (bool)) */\n              tag_172\n              jumpi\n              pop\n                /* \"@uniswap/v3-periphery/contracts/libraries/TransferHelper.sol\":2152:2156  data */\n              dup1\n                /* \"@uniswap/v3-periphery/contracts/libraries/TransferHelper.sol\":2141:2165  abi.decode(data, (bool)) */\n              dup1\n              0x20\n              add\n              swap1\n              mload\n              dup2\n              add\n              swap1\n              tag_172\n              swap2\n              swap1\n              tag_136\n              jump\t// in\n            tag_172:\n                /* \"@uniswap/v3-periphery/contracts/libraries/TransferHelper.sol\":2101:2173  require(success && (data.length == 0 || abi.decode(data, (bool))), 'SA') */\n              tag_137\n              jumpi\n              mload(0x40)\n              shl(0xe5, 0x461bcd)\n              dup2\n              mstore\n                /* \"#utility.yul\":12015:12017   */\n              0x20\n                /* \"@uniswap/v3-periphery/contracts/libraries/TransferHelper.sol\":2101:2173  require(success && (data.length == 0 || abi.decode(data, (bool))), 'SA') */\n              0x04\n              dup3\n              add\n                /* \"#utility.yul\":11997:12018   */\n              mstore\n                /* \"#utility.yul\":12054:12055   */\n              0x02\n                /* \"#utility.yul\":12034:12052   */\n              0x24\n              dup3\n              add\n                /* \"#utility.yul\":12027:12056   */\n              mstore\n                /* \"#utility.yul\":12092:12096   */\n              0x5341000000000000000000000000000000000000000000000000000000000000\n                /* \"#utility.yul\":12072:12090   */\n              0x44\n              dup3\n              add\n                /* \"#utility.yul\":12065:12097   */\n              mstore\n                /* \"#utility.yul\":12114:12132   */\n              0x64\n              add\n                /* \"@uniswap/v3-periphery/contracts/libraries/TransferHelper.sol\":2101:2173  require(success && (data.length == 0 || abi.decode(data, (bool))), 'SA') */\n              tag_60\n                /* \"#utility.yul\":11813:12138   */\n              jump\n                /* \"src/contracts/AaveFlashLoanV3.sol\":5265:6212  function uniSwapExactInputSingle(uint256 amountIn, uint256 amountOutMinimum, address token0, address token1, uint24 poolFee) internal returns (uint256 amountOut) {... */\n            tag_148:\n                /* \"src/contracts/AaveFlashLoanV3.sol\":5408:5425  uint256 amountOut */\n              0x00\n                /* \"src/contracts/AaveFlashLoanV3.sol\":5493:5561  TransferHelper.safeApprove(token0, address(uniSwapRouter), amountIn) */\n              tag_177\n                /* \"src/contracts/AaveFlashLoanV3.sol\":5520:5526  token0 */\n              dup5\n                /* \"src/contracts/AaveFlashLoanV3.sol\":5536:5549  uniSwapRouter */\n              immutable(\"0x340a23757d2ab13dedab258c0c14c48239e47629cd886b1aa50da5cb9e94f72d\")\n                /* \"src/contracts/AaveFlashLoanV3.sol\":5552:5560  amountIn */\n              dup9\n                /* \"src/contracts/AaveFlashLoanV3.sol\":5493:5519  TransferHelper.safeApprove */\n              tag_93\n                /* \"src/contracts/AaveFlashLoanV3.sol\":5493:5561  TransferHelper.safeApprove(token0, address(uniSwapRouter), amountIn) */\n              jump\t// in\n            tag_177:\n                /* \"src/contracts/AaveFlashLoanV3.sol\":5725:6083  ISwapRouter.ExactInputSingleParams({... */\n              0x40\n              dup1\n              mload\n              0x0100\n              dup2\n              add\n              dup3\n              mstore\n              sub(shl(0xa0, 0x01), 0x01)\n              dup7\n              dup2\n              and\n              dup3\n              mstore\n              dup6\n              dup2\n              and\n              0x20\n              dup4\n              add\n              swap1\n              dup2\n              mstore\n              0xffffff\n              dup7\n              dup2\n              and\n              dup5\n              dup7\n              add\n              swap1\n              dup2\n              mstore\n                /* \"src/contracts/AaveFlashLoanV3.sol\":5894:5898  this */\n              address\n                /* \"src/contracts/AaveFlashLoanV3.sol\":5725:6083  ISwapRouter.ExactInputSingleParams({... */\n              0x60\n              dup7\n              add\n              swap1\n              dup2\n              mstore\n                /* \"src/contracts/AaveFlashLoanV3.sol\":5927:5942  block.timestamp */\n              timestamp\n                /* \"src/contracts/AaveFlashLoanV3.sol\":5725:6083  ISwapRouter.ExactInputSingleParams({... */\n              0x80\n              dup8\n              add\n              swap1\n              dup2\n              mstore\n              0xa0\n              dup8\n              add\n              dup15\n              dup2\n              mstore\n              0xc0\n              dup9\n              add\n              dup15\n              dup2\n              mstore\n              0x00\n              0xe0\n              dup11\n              add\n              swap1\n              dup2\n              mstore\n                /* \"src/contracts/AaveFlashLoanV3.sol\":6167:6205  uniSwapRouter.exactInputSingle(params) */\n              swap10\n              mload\n              0x414bf38900000000000000000000000000000000000000000000000000000000\n              dup2\n              mstore\n                /* \"#utility.yul\":12451:12464   */\n              dup10\n              mload\n                /* \"#utility.yul\":12447:12469   */\n              dup10\n              and\n                /* \"src/contracts/AaveFlashLoanV3.sol\":6167:6205  uniSwapRouter.exactInputSingle(params) */\n              0x04\n              dup3\n              add\n                /* \"#utility.yul\":12429:12470   */\n              mstore\n                /* \"#utility.yul\":12512:12536   */\n              swap7\n              mload\n                /* \"#utility.yul\":12508:12541   */\n              dup9\n              and\n                /* \"#utility.yul\":12486:12506   */\n              0x24\n              dup9\n              add\n                /* \"#utility.yul\":12479:12542   */\n              mstore\n                /* \"#utility.yul\":12584:12608   */\n              swap4\n              mload\n                /* \"#utility.yul\":12580:12619   */\n              swap1\n              swap5\n              and\n                /* \"#utility.yul\":12558:12578   */\n              0x44\n              dup7\n              add\n                /* \"#utility.yul\":12551:12620   */\n              mstore\n                /* \"#utility.yul\":12662:12686   */\n              swap1\n              mload\n                /* \"#utility.yul\":12658:12691   */\n              dup6\n              and\n                /* \"#utility.yul\":12636:12656   */\n              0x64\n              dup6\n              add\n                /* \"#utility.yul\":12629:12692   */\n              mstore\n                /* \"#utility.yul\":12730:12754   */\n              mload\n                /* \"#utility.yul\":12708:12728   */\n              0x84\n              dup5\n              add\n                /* \"#utility.yul\":12701:12755   */\n              mstore\n                /* \"#utility.yul\":12793:12817   */\n              swap1\n              mload\n                /* \"#utility.yul\":12771:12791   */\n              0xa4\n              dup4\n              add\n                /* \"#utility.yul\":12764:12818   */\n              mstore\n                /* \"#utility.yul\":12856:12880   */\n              mload\n                /* \"#utility.yul\":12834:12854   */\n              0xc4\n              dup3\n              add\n                /* \"#utility.yul\":12827:12881   */\n              mstore\n                /* \"#utility.yul\":12923:12947   */\n              swap3\n              mload\n                /* \"#utility.yul\":12919:12952   */\n              dup2\n              and\n                /* \"#utility.yul\":12897:12917   */\n              0xe4\n              dup5\n              add\n                /* \"#utility.yul\":12890:12953   */\n              mstore\n                /* \"src/contracts/AaveFlashLoanV3.sol\":5725:6083  ISwapRouter.ExactInputSingleParams({... */\n              swap1\n              swap2\n                /* \"src/contracts/AaveFlashLoanV3.sol\":6167:6180  uniSwapRouter */\n              immutable(\"0x340a23757d2ab13dedab258c0c14c48239e47629cd886b1aa50da5cb9e94f72d\")\n                /* \"src/contracts/AaveFlashLoanV3.sol\":6167:6197  uniSwapRouter.exactInputSingle */\n              swap1\n              swap2\n              and\n              swap1\n              0x414bf389\n              swap1\n                /* \"#utility.yul\":12340:12359   */\n              0x0104\n              add\n                /* \"src/contracts/AaveFlashLoanV3.sol\":6167:6205  uniSwapRouter.exactInputSingle(params) */\n              0x20\n              mload(0x40)\n              dup1\n              dup4\n              sub\n              dup2\n              0x00\n              dup8\n              gas\n              call\n              iszero\n              dup1\n              iszero\n              tag_181\n              jumpi\n              returndatasize\n              0x00\n              dup1\n              returndatacopy\n              revert(0x00, returndatasize)\n            tag_181:\n              pop\n              pop\n              pop\n              pop\n              mload(0x40)\n              returndatasize\n              not(0x1f)\n              0x1f\n              dup3\n              add\n              and\n              dup3\n              add\n              dup1\n              0x40\n              mstore\n              pop\n              dup2\n              add\n              swap1\n              tag_182\n              swap2\n              swap1\n              tag_58\n              jump\t// in\n            tag_182:\n                /* \"src/contracts/AaveFlashLoanV3.sol\":6155:6205  amountOut = uniSwapRouter.exactInputSingle(params) */\n              swap8\n                /* \"src/contracts/AaveFlashLoanV3.sol\":5265:6212  function uniSwapExactInputSingle(uint256 amountIn, uint256 amountOutMinimum, address token0, address token1, uint24 poolFee) internal returns (uint256 amountOut) {... */\n              swap7\n              pop\n              pop\n              pop\n              pop\n              pop\n              pop\n              pop\n              jump\t// out\n                /* \"src/contracts/AaveFlashLoanV3.sol\":6279:6746  function sushiSwapExactInputSingle(uint256 amountIn, uint256 amountOutMin, address[] memory path, uint256 deadline) internal returns (uint256[] memory amountOut) {... */\n            tag_154:\n                /* \"src/contracts/AaveFlashLoanV3.sol\":6413:6439  uint256[] memory amountOut */\n              0x60\n                /* \"src/contracts/AaveFlashLoanV3.sol\":6497:6564  TransferHelper.safeApprove(path[0], address(sushiRouter), amountIn) */\n              tag_184\n                /* \"src/contracts/AaveFlashLoanV3.sol\":6524:6528  path */\n              dup4\n                /* \"src/contracts/AaveFlashLoanV3.sol\":6529:6530  0 */\n              0x00\n                /* \"src/contracts/AaveFlashLoanV3.sol\":6524:6531  path[0] */\n              dup2\n              mload\n              dup2\n              lt\n              tag_186\n              jumpi\n              tag_186\n              tag_84\n              jump\t// in\n            tag_186:\n              0x20\n              mul\n              0x20\n              add\n              add\n              mload\n                /* \"src/contracts/AaveFlashLoanV3.sol\":6541:6552  sushiRouter */\n              immutable(\"0xef80077fd7ee005d1b0377e3e959eb59d0ca83c4839422f862a3540a66a91fb5\")\n                /* \"src/contracts/AaveFlashLoanV3.sol\":6555:6563  amountIn */\n              dup8\n                /* \"src/contracts/AaveFlashLoanV3.sol\":6497:6523  TransferHelper.safeApprove */\n              tag_93\n                /* \"src/contracts/AaveFlashLoanV3.sol\":6497:6564  TransferHelper.safeApprove(path[0], address(sushiRouter), amountIn) */\n              jump\t// in\n            tag_184:\n                /* \"src/contracts/AaveFlashLoanV3.sol\":6648:6739  sushiRouter.swapExactTokensForTokens(amountIn, amountOutMin, path, address(this), deadline) */\n              mload(0x40)\n              0x38ed173900000000000000000000000000000000000000000000000000000000\n              dup2\n              mstore\n              sub(shl(0xa0, 0x01), 0x01)\n                /* \"src/contracts/AaveFlashLoanV3.sol\":6648:6659  sushiRouter */\n              immutable(\"0xef80077fd7ee005d1b0377e3e959eb59d0ca83c4839422f862a3540a66a91fb5\")\n                /* \"src/contracts/AaveFlashLoanV3.sol\":6648:6684  sushiRouter.swapExactTokensForTokens */\n              and\n              swap1\n              0x38ed1739\n              swap1\n                /* \"src/contracts/AaveFlashLoanV3.sol\":6648:6739  sushiRouter.swapExactTokensForTokens(amountIn, amountOutMin, path, address(this), deadline) */\n              tag_187\n              swap1\n                /* \"src/contracts/AaveFlashLoanV3.sol\":6685:6693  amountIn */\n              dup9\n              swap1\n                /* \"src/contracts/AaveFlashLoanV3.sol\":6695:6707  amountOutMin */\n              dup9\n              swap1\n                /* \"src/contracts/AaveFlashLoanV3.sol\":6709:6713  path */\n              dup9\n              swap1\n                /* \"src/contracts/AaveFlashLoanV3.sol\":6723:6727  this */\n              address\n              swap1\n                /* \"src/contracts/AaveFlashLoanV3.sol\":6730:6738  deadline */\n              dup10\n              swap1\n                /* \"src/contracts/AaveFlashLoanV3.sol\":6648:6739  sushiRouter.swapExactTokensForTokens(amountIn, amountOutMin, path, address(this), deadline) */\n              0x04\n              add\n              tag_188\n              jump\t// in\n            tag_187:\n              0x00\n              mload(0x40)\n              dup1\n              dup4\n              sub\n              dup2\n              0x00\n              dup8\n              gas\n              call\n              iszero\n              dup1\n              iszero\n              tag_190\n              jumpi\n              returndatasize\n              0x00\n              dup1\n              returndatacopy\n              revert(0x00, returndatasize)\n            tag_190:\n              pop\n              pop\n              pop\n              pop\n              mload(0x40)\n              returndatasize\n              0x00\n              dup3\n              returndatacopy\n              0x1f\n              returndatasize\n              swap1\n              dup2\n              add\n              not(0x1f)\n              and\n              dup3\n              add\n              0x40\n              mstore\n              tag_191\n              swap2\n              swap1\n              dup2\n              add\n              swap1\n              tag_192\n              jump\t// in\n            tag_191:\n                /* \"src/contracts/AaveFlashLoanV3.sol\":6636:6739  amountOut = sushiRouter.swapExactTokensForTokens(amountIn, amountOutMin, path, address(this), deadline) */\n              swap6\n                /* \"src/contracts/AaveFlashLoanV3.sol\":6279:6746  function sushiSwapExactInputSingle(uint256 amountIn, uint256 amountOutMin, address[] memory path, uint256 deadline) internal returns (uint256[] memory amountOut) {... */\n              swap5\n              pop\n              pop\n              pop\n              pop\n              pop\n              jump\t// out\n                /* \"#utility.yul\":276:430   */\n            tag_193:\n              sub(shl(0xa0, 0x01), 0x01)\n                /* \"#utility.yul\":355:360   */\n              dup2\n                /* \"#utility.yul\":351:405   */\n              and\n                /* \"#utility.yul\":344:349   */\n              dup2\n                /* \"#utility.yul\":341:406   */\n              eq\n                /* \"#utility.yul\":331:424   */\n              tag_72\n              jumpi\n                /* \"#utility.yul\":420:421   */\n              0x00\n                /* \"#utility.yul\":417:418   */\n              dup1\n                /* \"#utility.yul\":410:422   */\n              revert\n                /* \"#utility.yul\":435:682   */\n            tag_19:\n                /* \"#utility.yul\":494:500   */\n              0x00\n                /* \"#utility.yul\":547:549   */\n              0x20\n                /* \"#utility.yul\":535:544   */\n              dup3\n                /* \"#utility.yul\":526:533   */\n              dup5\n                /* \"#utility.yul\":522:545   */\n              sub\n                /* \"#utility.yul\":518:550   */\n              slt\n                /* \"#utility.yul\":515:567   */\n              iszero\n              tag_206\n              jumpi\n                /* \"#utility.yul\":563:564   */\n              0x00\n                /* \"#utility.yul\":560:561   */\n              dup1\n                /* \"#utility.yul\":553:565   */\n              revert\n                /* \"#utility.yul\":515:567   */\n            tag_206:\n                /* \"#utility.yul\":602:611   */\n              dup2\n                /* \"#utility.yul\":589:612   */\n              calldataload\n                /* \"#utility.yul\":621:652   */\n              tag_207\n                /* \"#utility.yul\":646:651   */\n              dup2\n                /* \"#utility.yul\":621:652   */\n              tag_193\n              jump\t// in\n            tag_207:\n                /* \"#utility.yul\":671:676   */\n              swap4\n                /* \"#utility.yul\":435:682   */\n              swap3\n              pop\n              pop\n              pop\n              jump\t// out\n                /* \"#utility.yul\":1345:1712   */\n            tag_194:\n                /* \"#utility.yul\":1408:1416   */\n              0x00\n                /* \"#utility.yul\":1418:1424   */\n              dup1\n                /* \"#utility.yul\":1472:1475   */\n              dup4\n                /* \"#utility.yul\":1465:1469   */\n              0x1f\n                /* \"#utility.yul\":1457:1463   */\n              dup5\n                /* \"#utility.yul\":1453:1470   */\n              add\n                /* \"#utility.yul\":1449:1476   */\n              slt\n                /* \"#utility.yul\":1439:1494   */\n              tag_212\n              jumpi\n                /* \"#utility.yul\":1490:1491   */\n              0x00\n                /* \"#utility.yul\":1487:1488   */\n              dup1\n                /* \"#utility.yul\":1480:1492   */\n              revert\n                /* \"#utility.yul\":1439:1494   */\n            tag_212:\n              pop\n                /* \"#utility.yul\":1513:1533   */\n              dup2\n              calldataload\n                /* \"#utility.yul\":1556:1574   */\n              0xffffffffffffffff\n                /* \"#utility.yul\":1545:1575   */\n              dup2\n              gt\n                /* \"#utility.yul\":1542:1592   */\n              iszero\n              tag_213\n              jumpi\n                /* \"#utility.yul\":1588:1589   */\n              0x00\n                /* \"#utility.yul\":1585:1586   */\n              dup1\n                /* \"#utility.yul\":1578:1590   */\n              revert\n                /* \"#utility.yul\":1542:1592   */\n            tag_213:\n                /* \"#utility.yul\":1625:1629   */\n              0x20\n                /* \"#utility.yul\":1617:1623   */\n              dup4\n                /* \"#utility.yul\":1613:1630   */\n              add\n                /* \"#utility.yul\":1601:1630   */\n              swap2\n              pop\n                /* \"#utility.yul\":1685:1688   */\n              dup4\n                /* \"#utility.yul\":1678:1682   */\n              0x20\n                /* \"#utility.yul\":1668:1674   */\n              dup3\n                /* \"#utility.yul\":1665:1666   */\n              0x05\n                /* \"#utility.yul\":1661:1675   */\n              shl\n                /* \"#utility.yul\":1653:1659   */\n              dup6\n                /* \"#utility.yul\":1649:1676   */\n              add\n                /* \"#utility.yul\":1645:1683   */\n              add\n                /* \"#utility.yul\":1642:1689   */\n              gt\n                /* \"#utility.yul\":1639:1706   */\n              iszero\n              tag_214\n              jumpi\n                /* \"#utility.yul\":1702:1703   */\n              0x00\n                /* \"#utility.yul\":1699:1700   */\n              dup1\n                /* \"#utility.yul\":1692:1704   */\n              revert\n                /* \"#utility.yul\":1639:1706   */\n            tag_214:\n                /* \"#utility.yul\":1345:1712   */\n              swap3\n              pop\n              swap3\n              swap1\n              pop\n              jump\t// out\n                /* \"#utility.yul\":1717:3390   */\n            tag_38:\n                /* \"#utility.yul\":1904:1910   */\n              0x00\n                /* \"#utility.yul\":1912:1918   */\n              dup1\n                /* \"#utility.yul\":1920:1926   */\n              0x00\n                /* \"#utility.yul\":1928:1934   */\n              dup1\n                /* \"#utility.yul\":1936:1942   */\n              0x00\n                /* \"#utility.yul\":1944:1950   */\n              dup1\n                /* \"#utility.yul\":1952:1958   */\n              0x00\n                /* \"#utility.yul\":1960:1966   */\n              dup1\n                /* \"#utility.yul\":1968:1974   */\n              0x00\n                /* \"#utility.yul\":2021:2024   */\n              0xa0\n                /* \"#utility.yul\":2009:2018   */\n              dup11\n                /* \"#utility.yul\":2000:2007   */\n              dup13\n                /* \"#utility.yul\":1996:2019   */\n              sub\n                /* \"#utility.yul\":1992:2025   */\n              slt\n                /* \"#utility.yul\":1989:2042   */\n              iszero\n              tag_216\n              jumpi\n                /* \"#utility.yul\":2038:2039   */\n              0x00\n                /* \"#utility.yul\":2035:2036   */\n              dup1\n                /* \"#utility.yul\":2028:2040   */\n              revert\n                /* \"#utility.yul\":1989:2042   */\n            tag_216:\n                /* \"#utility.yul\":2078:2087   */\n              dup10\n                /* \"#utility.yul\":2065:2088   */\n              calldataload\n                /* \"#utility.yul\":2107:2125   */\n              0xffffffffffffffff\n                /* \"#utility.yul\":2148:2150   */\n              dup1\n                /* \"#utility.yul\":2140:2146   */\n              dup3\n                /* \"#utility.yul\":2137:2151   */\n              gt\n                /* \"#utility.yul\":2134:2168   */\n              iszero\n              tag_217\n              jumpi\n                /* \"#utility.yul\":2164:2165   */\n              0x00\n                /* \"#utility.yul\":2161:2162   */\n              dup1\n                /* \"#utility.yul\":2154:2166   */\n              revert\n                /* \"#utility.yul\":2134:2168   */\n            tag_217:\n                /* \"#utility.yul\":2203:2273   */\n              tag_218\n                /* \"#utility.yul\":2265:2272   */\n              dup14\n                /* \"#utility.yul\":2256:2262   */\n              dup4\n                /* \"#utility.yul\":2245:2254   */\n              dup15\n                /* \"#utility.yul\":2241:2263   */\n              add\n                /* \"#utility.yul\":2203:2273   */\n              tag_194\n              jump\t// in\n            tag_218:\n                /* \"#utility.yul\":2292:2300   */\n              swap1\n              swap12\n              pop\n                /* \"#utility.yul\":2177:2273   */\n              swap10\n              pop\n                /* \"#utility.yul\":2380:2382   */\n              0x20\n                /* \"#utility.yul\":2365:2383   */\n              dup13\n              add\n                /* \"#utility.yul\":2352:2384   */\n              calldataload\n              swap2\n              pop\n                /* \"#utility.yul\":2396:2412   */\n              dup1\n              dup3\n              gt\n                /* \"#utility.yul\":2393:2429   */\n              iszero\n              tag_219\n              jumpi\n                /* \"#utility.yul\":2425:2426   */\n              0x00\n                /* \"#utility.yul\":2422:2423   */\n              dup1\n                /* \"#utility.yul\":2415:2427   */\n              revert\n                /* \"#utility.yul\":2393:2429   */\n            tag_219:\n                /* \"#utility.yul\":2464:2536   */\n              tag_220\n                /* \"#utility.yul\":2528:2535   */\n              dup14\n                /* \"#utility.yul\":2517:2525   */\n              dup4\n                /* \"#utility.yul\":2506:2515   */\n              dup15\n                /* \"#utility.yul\":2502:2526   */\n              add\n                /* \"#utility.yul\":2464:2536   */\n              tag_194\n              jump\t// in\n            tag_220:\n                /* \"#utility.yul\":2555:2563   */\n              swap1\n              swap10\n              pop\n                /* \"#utility.yul\":2438:2536   */\n              swap8\n              pop\n                /* \"#utility.yul\":2643:2645   */\n              0x40\n                /* \"#utility.yul\":2628:2646   */\n              dup13\n              add\n                /* \"#utility.yul\":2615:2647   */\n              calldataload\n              swap2\n              pop\n                /* \"#utility.yul\":2659:2675   */\n              dup1\n              dup3\n              gt\n                /* \"#utility.yul\":2656:2692   */\n              iszero\n              tag_221\n              jumpi\n                /* \"#utility.yul\":2688:2689   */\n              0x00\n                /* \"#utility.yul\":2685:2686   */\n              dup1\n                /* \"#utility.yul\":2678:2690   */\n              revert\n                /* \"#utility.yul\":2656:2692   */\n            tag_221:\n                /* \"#utility.yul\":2727:2799   */\n              tag_222\n                /* \"#utility.yul\":2791:2798   */\n              dup14\n                /* \"#utility.yul\":2780:2788   */\n              dup4\n                /* \"#utility.yul\":2769:2778   */\n              dup15\n                /* \"#utility.yul\":2765:2789   */\n              add\n                /* \"#utility.yul\":2727:2799   */\n              tag_194\n              jump\t// in\n            tag_222:\n                /* \"#utility.yul\":2818:2826   */\n              swap1\n              swap8\n              pop\n                /* \"#utility.yul\":2701:2799   */\n              swap6\n              pop\n                /* \"#utility.yul\":2903:2905   */\n              0x60\n                /* \"#utility.yul\":2888:2906   */\n              dup13\n              add\n                /* \"#utility.yul\":2875:2907   */\n              calldataload\n              swap2\n              pop\n                /* \"#utility.yul\":2916:2947   */\n              tag_223\n                /* \"#utility.yul\":2875:2907   */\n              dup3\n                /* \"#utility.yul\":2916:2947   */\n              tag_193\n              jump\t// in\n            tag_223:\n                /* \"#utility.yul\":2966:2971   */\n              swap1\n              swap4\n              pop\n                /* \"#utility.yul\":3024:3027   */\n              0x80\n                /* \"#utility.yul\":3009:3028   */\n              dup12\n              add\n                /* \"#utility.yul\":2996:3029   */\n              calldataload\n              swap1\n                /* \"#utility.yul\":3041:3057   */\n              dup1\n              dup3\n              gt\n                /* \"#utility.yul\":3038:3074   */\n              iszero\n              tag_224\n              jumpi\n                /* \"#utility.yul\":3070:3071   */\n              0x00\n                /* \"#utility.yul\":3067:3068   */\n              dup1\n                /* \"#utility.yul\":3060:3072   */\n              revert\n                /* \"#utility.yul\":3038:3074   */\n            tag_224:\n                /* \"#utility.yul\":3108:3116   */\n              dup2\n                /* \"#utility.yul\":3097:3106   */\n              dup13\n                /* \"#utility.yul\":3093:3117   */\n              add\n                /* \"#utility.yul\":3083:3117   */\n              swap2\n              pop\n                /* \"#utility.yul\":3155:3162   */\n              dup13\n                /* \"#utility.yul\":3148:3152   */\n              0x1f\n                /* \"#utility.yul\":3144:3146   */\n              dup4\n                /* \"#utility.yul\":3140:3153   */\n              add\n                /* \"#utility.yul\":3136:3163   */\n              slt\n                /* \"#utility.yul\":3126:3181   */\n              tag_225\n              jumpi\n                /* \"#utility.yul\":3177:3178   */\n              0x00\n                /* \"#utility.yul\":3174:3175   */\n              dup1\n                /* \"#utility.yul\":3167:3179   */\n              revert\n                /* \"#utility.yul\":3126:3181   */\n            tag_225:\n                /* \"#utility.yul\":3217:3219   */\n              dup2\n                /* \"#utility.yul\":3204:3220   */\n              calldataload\n                /* \"#utility.yul\":3243:3245   */\n              dup2\n                /* \"#utility.yul\":3235:3241   */\n              dup2\n                /* \"#utility.yul\":3232:3246   */\n              gt\n                /* \"#utility.yul\":3229:3263   */\n              iszero\n              tag_226\n              jumpi\n                /* \"#utility.yul\":3259:3260   */\n              0x00\n                /* \"#utility.yul\":3256:3257   */\n              dup1\n                /* \"#utility.yul\":3249:3261   */\n              revert\n                /* \"#utility.yul\":3229:3263   */\n            tag_226:\n                /* \"#utility.yul\":3304:3311   */\n              dup14\n                /* \"#utility.yul\":3299:3301   */\n              0x20\n                /* \"#utility.yul\":3290:3296   */\n              dup3\n                /* \"#utility.yul\":3286:3288   */\n              dup6\n                /* \"#utility.yul\":3282:3297   */\n              add\n                /* \"#utility.yul\":3278:3302   */\n              add\n                /* \"#utility.yul\":3275:3312   */\n              gt\n                /* \"#utility.yul\":3272:3329   */\n              iszero\n              tag_227\n              jumpi\n                /* \"#utility.yul\":3325:3326   */\n              0x00\n                /* \"#utility.yul\":3322:3323   */\n              dup1\n                /* \"#utility.yul\":3315:3327   */\n              revert\n                /* \"#utility.yul\":3272:3329   */\n            tag_227:\n                /* \"#utility.yul\":3356:3358   */\n              0x20\n                /* \"#utility.yul\":3352:3354   */\n              dup4\n                /* \"#utility.yul\":3348:3359   */\n              add\n                /* \"#utility.yul\":3338:3359   */\n              swap5\n              pop\n                /* \"#utility.yul\":3378:3384   */\n              dup1\n                /* \"#utility.yul\":3368:3384   */\n              swap4\n              pop\n              pop\n              pop\n              pop\n                /* \"#utility.yul\":1717:3390   */\n              swap3\n              swap6\n              swap9\n              pop\n              swap3\n              swap6\n              swap9\n              pop\n              swap3\n              swap6\n              swap9\n              jump\t// out\n                /* \"#utility.yul\":3587:3743   */\n            tag_195:\n                /* \"#utility.yul\":3653:3673   */\n              dup1\n              calldataload\n                /* \"#utility.yul\":3713:3717   */\n              0xff\n                /* \"#utility.yul\":3702:3718   */\n              dup2\n              and\n                /* \"#utility.yul\":3692:3719   */\n              dup2\n              eq\n                /* \"#utility.yul\":3682:3737   */\n              tag_62\n              jumpi\n                /* \"#utility.yul\":3733:3734   */\n              0x00\n                /* \"#utility.yul\":3730:3731   */\n              dup1\n                /* \"#utility.yul\":3723:3735   */\n              revert\n                /* \"#utility.yul\":3748:3909   */\n            tag_196:\n                /* \"#utility.yul\":3815:3835   */\n              dup1\n              calldataload\n                /* \"#utility.yul\":3875:3883   */\n              0xffffff\n                /* \"#utility.yul\":3864:3884   */\n              dup2\n              and\n                /* \"#utility.yul\":3854:3885   */\n              dup2\n              eq\n                /* \"#utility.yul\":3844:3903   */\n              tag_62\n              jumpi\n                /* \"#utility.yul\":3899:3900   */\n              0x00\n                /* \"#utility.yul\":3896:3897   */\n              dup1\n                /* \"#utility.yul\":3889:3901   */\n              revert\n                /* \"#utility.yul\":3914:4652   */\n            tag_45:\n                /* \"#utility.yul\":4024:4030   */\n              0x00\n                /* \"#utility.yul\":4032:4038   */\n              dup1\n                /* \"#utility.yul\":4040:4046   */\n              0x00\n                /* \"#utility.yul\":4048:4054   */\n              dup1\n                /* \"#utility.yul\":4056:4062   */\n              0x00\n                /* \"#utility.yul\":4064:4070   */\n              dup1\n                /* \"#utility.yul\":4072:4078   */\n              0x00\n                /* \"#utility.yul\":4125:4128   */\n              0xe0\n                /* \"#utility.yul\":4113:4122   */\n              dup9\n                /* \"#utility.yul\":4104:4111   */\n              dup11\n                /* \"#utility.yul\":4100:4123   */\n              sub\n                /* \"#utility.yul\":4096:4129   */\n              slt\n                /* \"#utility.yul\":4093:4146   */\n              iszero\n              tag_234\n              jumpi\n                /* \"#utility.yul\":4142:4143   */\n              0x00\n                /* \"#utility.yul\":4139:4140   */\n              dup1\n                /* \"#utility.yul\":4132:4144   */\n              revert\n                /* \"#utility.yul\":4093:4146   */\n            tag_234:\n                /* \"#utility.yul\":4181:4190   */\n              dup8\n                /* \"#utility.yul\":4168:4191   */\n              calldataload\n                /* \"#utility.yul\":4200:4231   */\n              tag_235\n                /* \"#utility.yul\":4225:4230   */\n              dup2\n                /* \"#utility.yul\":4200:4231   */\n              tag_193\n              jump\t// in\n            tag_235:\n                /* \"#utility.yul\":4250:4255   */\n              swap7\n              pop\n                /* \"#utility.yul\":4307:4309   */\n              0x20\n                /* \"#utility.yul\":4292:4310   */\n              dup9\n              add\n                /* \"#utility.yul\":4279:4311   */\n              calldataload\n                /* \"#utility.yul\":4320:4353   */\n              tag_236\n                /* \"#utility.yul\":4279:4311   */\n              dup2\n                /* \"#utility.yul\":4320:4353   */\n              tag_193\n              jump\t// in\n            tag_236:\n                /* \"#utility.yul\":4372:4379   */\n              swap6\n              pop\n                /* \"#utility.yul\":4398:4434   */\n              tag_237\n                /* \"#utility.yul\":4430:4432   */\n              0x40\n                /* \"#utility.yul\":4415:4433   */\n              dup10\n              add\n                /* \"#utility.yul\":4398:4434   */\n              tag_195\n              jump\t// in\n            tag_237:\n                /* \"#utility.yul\":4388:4434   */\n              swap5\n              pop\n                /* \"#utility.yul\":4453:4490   */\n              tag_238\n                /* \"#utility.yul\":4486:4488   */\n              0x60\n                /* \"#utility.yul\":4475:4484   */\n              dup10\n                /* \"#utility.yul\":4471:4489   */\n              add\n                /* \"#utility.yul\":4453:4490   */\n              tag_196\n              jump\t// in\n            tag_238:\n                /* \"#utility.yul\":3914:4652   */\n              swap7\n              swap10\n              swap6\n              swap9\n              pop\n              swap4\n              swap7\n                /* \"#utility.yul\":4537:4540   */\n              0x80\n                /* \"#utility.yul\":4522:4541   */\n              dup2\n              add\n                /* \"#utility.yul\":4509:4542   */\n              calldataload\n              swap6\n                /* \"#utility.yul\":4589:4592   */\n              0xa0\n                /* \"#utility.yul\":4574:4593   */\n              dup3\n              add\n                /* \"#utility.yul\":4561:4594   */\n              calldataload\n              swap6\n              pop\n                /* \"#utility.yul\":4641:4644   */\n              0xc0\n                /* \"#utility.yul\":4626:4645   */\n              swap1\n              swap2\n              add\n                /* \"#utility.yul\":4613:4646   */\n              calldataload\n              swap4\n              pop\n                /* \"#utility.yul\":3914:4652   */\n              swap2\n              pop\n              pop\n              jump\t// out\n                /* \"#utility.yul\":4657:4841   */\n            tag_58:\n                /* \"#utility.yul\":4727:4733   */\n              0x00\n                /* \"#utility.yul\":4780:4782   */\n              0x20\n                /* \"#utility.yul\":4768:4777   */\n              dup3\n                /* \"#utility.yul\":4759:4766   */\n              dup5\n                /* \"#utility.yul\":4755:4778   */\n              sub\n                /* \"#utility.yul\":4751:4783   */\n              slt\n                /* \"#utility.yul\":4748:4800   */\n              iszero\n              tag_240\n              jumpi\n                /* \"#utility.yul\":4796:4797   */\n              0x00\n                /* \"#utility.yul\":4793:4794   */\n              dup1\n                /* \"#utility.yul\":4786:4798   */\n              revert\n                /* \"#utility.yul\":4748:4800   */\n            tag_240:\n              pop\n                /* \"#utility.yul\":4819:4835   */\n              mload\n              swap2\n                /* \"#utility.yul\":4657:4841   */\n              swap1\n              pop\n              jump\t// out\n                /* \"#utility.yul\":5818:6002   */\n            tag_84:\n              shl(0xe0, 0x4e487b71)\n                /* \"#utility.yul\":5867:5868   */\n              0x00\n                /* \"#utility.yul\":5860:5948   */\n              mstore\n                /* \"#utility.yul\":5967:5971   */\n              0x32\n                /* \"#utility.yul\":5964:5965   */\n              0x04\n                /* \"#utility.yul\":5957:5972   */\n              mstore\n                /* \"#utility.yul\":5991:5995   */\n              0x24\n                /* \"#utility.yul\":5988:5989   */\n              0x00\n                /* \"#utility.yul\":5981:5996   */\n              revert\n                /* \"#utility.yul\":6007:6191   */\n            tag_197:\n              shl(0xe0, 0x4e487b71)\n                /* \"#utility.yul\":6056:6057   */\n              0x00\n                /* \"#utility.yul\":6049:6137   */\n              mstore\n                /* \"#utility.yul\":6156:6160   */\n              0x11\n                /* \"#utility.yul\":6153:6154   */\n              0x04\n                /* \"#utility.yul\":6146:6161   */\n              mstore\n                /* \"#utility.yul\":6180:6184   */\n              0x24\n                /* \"#utility.yul\":6177:6178   */\n              0x00\n                /* \"#utility.yul\":6170:6185   */\n              revert\n                /* \"#utility.yul\":6196:6324   */\n            tag_88:\n                /* \"#utility.yul\":6236:6239   */\n              0x00\n                /* \"#utility.yul\":6267:6268   */\n              dup3\n                /* \"#utility.yul\":6263:6269   */\n              not\n                /* \"#utility.yul\":6260:6261   */\n              dup3\n                /* \"#utility.yul\":6257:6270   */\n              gt\n                /* \"#utility.yul\":6254:6293   */\n              iszero\n              tag_248\n              jumpi\n                /* \"#utility.yul\":6273:6291   */\n              tag_248\n              tag_197\n              jump\t// in\n            tag_248:\n              pop\n                /* \"#utility.yul\":6309:6318   */\n              add\n              swap1\n                /* \"#utility.yul\":6196:6324   */\n              jump\t// out\n                /* \"#utility.yul\":6329:6464   */\n            tag_95:\n                /* \"#utility.yul\":6368:6371   */\n              0x00\n              not(0x00)\n                /* \"#utility.yul\":6389:6406   */\n              dup3\n              eq\n                /* \"#utility.yul\":6386:6429   */\n              iszero\n              tag_251\n              jumpi\n                /* \"#utility.yul\":6409:6427   */\n              tag_251\n              tag_197\n              jump\t// in\n            tag_251:\n              pop\n                /* \"#utility.yul\":6456:6457   */\n              0x01\n                /* \"#utility.yul\":6445:6458   */\n              add\n              swap1\n                /* \"#utility.yul\":6329:6464   */\n              jump\t// out\n                /* \"#utility.yul\":6469:6653   */\n            tag_101:\n              shl(0xe0, 0x4e487b71)\n                /* \"#utility.yul\":6518:6519   */\n              0x00\n                /* \"#utility.yul\":6511:6599   */\n              mstore\n                /* \"#utility.yul\":6618:6622   */\n              0x41\n                /* \"#utility.yul\":6615:6616   */\n              0x04\n                /* \"#utility.yul\":6608:6623   */\n              mstore\n                /* \"#utility.yul\":6642:6646   */\n              0x24\n                /* \"#utility.yul\":6639:6640   */\n              0x00\n                /* \"#utility.yul\":6632:6647   */\n              revert\n                /* \"#utility.yul\":7369:7853   */\n            tag_198:\n                /* \"#utility.yul\":7422:7425   */\n              0x00\n                /* \"#utility.yul\":7460:7465   */\n              dup2\n                /* \"#utility.yul\":7454:7466   */\n              mload\n                /* \"#utility.yul\":7487:7493   */\n              dup1\n                /* \"#utility.yul\":7482:7485   */\n              dup5\n                /* \"#utility.yul\":7475:7494   */\n              mstore\n                /* \"#utility.yul\":7513:7517   */\n              0x20\n                /* \"#utility.yul\":7542:7544   */\n              dup1\n                /* \"#utility.yul\":7537:7540   */\n              dup6\n                /* \"#utility.yul\":7533:7545   */\n              add\n                /* \"#utility.yul\":7526:7545   */\n              swap5\n              pop\n                /* \"#utility.yul\":7579:7581   */\n              dup1\n                /* \"#utility.yul\":7572:7577   */\n              dup5\n                /* \"#utility.yul\":7568:7582   */\n              add\n                /* \"#utility.yul\":7600:7601   */\n              0x00\n                /* \"#utility.yul\":7610:7828   */\n            tag_255:\n                /* \"#utility.yul\":7624:7630   */\n              dup4\n                /* \"#utility.yul\":7621:7622   */\n              dup2\n                /* \"#utility.yul\":7618:7631   */\n              lt\n                /* \"#utility.yul\":7610:7828   */\n              iszero\n              tag_257\n              jumpi\n                /* \"#utility.yul\":7689:7702   */\n              dup2\n              mload\n              sub(shl(0xa0, 0x01), 0x01)\n                /* \"#utility.yul\":7685:7747   */\n              and\n                /* \"#utility.yul\":7673:7748   */\n              dup8\n              mstore\n                /* \"#utility.yul\":7768:7780   */\n              swap6\n              dup3\n              add\n              swap6\n                /* \"#utility.yul\":7803:7818   */\n              swap1\n              dup3\n              add\n              swap1\n                /* \"#utility.yul\":7646:7647   */\n              0x01\n                /* \"#utility.yul\":7639:7648   */\n              add\n                /* \"#utility.yul\":7610:7828   */\n              jump(tag_255)\n            tag_257:\n              pop\n                /* \"#utility.yul\":7844:7847   */\n              swap5\n              swap6\n                /* \"#utility.yul\":7369:7853   */\n              swap5\n              pop\n              pop\n              pop\n              pop\n              pop\n              jump\t// out\n                /* \"#utility.yul\":7858:8293   */\n            tag_199:\n                /* \"#utility.yul\":7911:7914   */\n              0x00\n                /* \"#utility.yul\":7949:7954   */\n              dup2\n                /* \"#utility.yul\":7943:7955   */\n              mload\n                /* \"#utility.yul\":7976:7982   */\n              dup1\n                /* \"#utility.yul\":7971:7974   */\n              dup5\n                /* \"#utility.yul\":7964:7983   */\n              mstore\n                /* \"#utility.yul\":8002:8006   */\n              0x20\n                /* \"#utility.yul\":8031:8033   */\n              dup1\n                /* \"#utility.yul\":8026:8029   */\n              dup6\n                /* \"#utility.yul\":8022:8034   */\n              add\n                /* \"#utility.yul\":8015:8034   */\n              swap5\n              pop\n                /* \"#utility.yul\":8068:8070   */\n              dup1\n                /* \"#utility.yul\":8061:8066   */\n              dup5\n                /* \"#utility.yul\":8057:8071   */\n              add\n                /* \"#utility.yul\":8089:8090   */\n              0x00\n                /* \"#utility.yul\":8099:8268   */\n            tag_259:\n                /* \"#utility.yul\":8113:8119   */\n              dup4\n                /* \"#utility.yul\":8110:8111   */\n              dup2\n                /* \"#utility.yul\":8107:8120   */\n              lt\n                /* \"#utility.yul\":8099:8268   */\n              iszero\n              tag_257\n              jumpi\n                /* \"#utility.yul\":8174:8187   */\n              dup2\n              mload\n                /* \"#utility.yul\":8162:8188   */\n              dup8\n              mstore\n                /* \"#utility.yul\":8208:8220   */\n              swap6\n              dup3\n              add\n              swap6\n                /* \"#utility.yul\":8243:8258   */\n              swap1\n              dup3\n              add\n              swap1\n                /* \"#utility.yul\":8135:8136   */\n              0x01\n                /* \"#utility.yul\":8128:8137   */\n              add\n                /* \"#utility.yul\":8099:8268   */\n              jump(tag_259)\n                /* \"#utility.yul\":8298:8556   */\n            tag_200:\n                /* \"#utility.yul\":8370:8371   */\n              0x00\n                /* \"#utility.yul\":8380:8493   */\n            tag_263:\n                /* \"#utility.yul\":8394:8400   */\n              dup4\n                /* \"#utility.yul\":8391:8392   */\n              dup2\n                /* \"#utility.yul\":8388:8401   */\n              lt\n                /* \"#utility.yul\":8380:8493   */\n              iszero\n              tag_265\n              jumpi\n                /* \"#utility.yul\":8470:8481   */\n              dup2\n              dup2\n              add\n                /* \"#utility.yul\":8464:8482   */\n              mload\n                /* \"#utility.yul\":8451:8462   */\n              dup4\n              dup3\n              add\n                /* \"#utility.yul\":8444:8483   */\n              mstore\n                /* \"#utility.yul\":8416:8418   */\n              0x20\n                /* \"#utility.yul\":8409:8419   */\n              add\n                /* \"#utility.yul\":8380:8493   */\n              jump(tag_263)\n            tag_265:\n                /* \"#utility.yul\":8511:8517   */\n              dup4\n                /* \"#utility.yul\":8508:8509   */\n              dup2\n                /* \"#utility.yul\":8505:8518   */\n              gt\n                /* \"#utility.yul\":8502:8550   */\n              iszero\n              tag_266\n              jumpi\n                /* \"#utility.yul\":8546:8547   */\n              0x00\n                /* \"#utility.yul\":8537:8543   */\n              dup5\n                /* \"#utility.yul\":8532:8535   */\n              dup5\n                /* \"#utility.yul\":8528:8544   */\n              add\n                /* \"#utility.yul\":8521:8548   */\n              mstore\n                /* \"#utility.yul\":8502:8550   */\n            tag_266:\n              pop\n                /* \"#utility.yul\":8298:8556   */\n              pop\n              pop\n              pop\n              jump\t// out\n                /* \"#utility.yul\":8561:9856   */\n            tag_118:\n                /* \"#utility.yul\":8987:8991   */\n              0x00\n              sub(shl(0xa0, 0x01), 0x01)\n                /* \"#utility.yul\":9097:9099   */\n              dup1\n                /* \"#utility.yul\":9089:9095   */\n              dup11\n                /* \"#utility.yul\":9085:9100   */\n              and\n                /* \"#utility.yul\":9074:9083   */\n              dup4\n                /* \"#utility.yul\":9067:9101   */\n              mstore\n                /* \"#utility.yul\":9137:9140   */\n              0xe0\n                /* \"#utility.yul\":9132:9134   */\n              0x20\n                /* \"#utility.yul\":9121:9130   */\n              dup5\n                /* \"#utility.yul\":9117:9135   */\n              add\n                /* \"#utility.yul\":9110:9141   */\n              mstore\n                /* \"#utility.yul\":9164:9221   */\n              tag_268\n                /* \"#utility.yul\":9216:9219   */\n              0xe0\n                /* \"#utility.yul\":9205:9214   */\n              dup5\n                /* \"#utility.yul\":9201:9220   */\n              add\n                /* \"#utility.yul\":9193:9199   */\n              dup11\n                /* \"#utility.yul\":9164:9221   */\n              tag_198\n              jump\t// in\n            tag_268:\n                /* \"#utility.yul\":9269:9278   */\n              dup4\n                /* \"#utility.yul\":9261:9267   */\n              dup2\n                /* \"#utility.yul\":9257:9279   */\n              sub\n                /* \"#utility.yul\":9252:9254   */\n              0x40\n                /* \"#utility.yul\":9241:9250   */\n              dup6\n                /* \"#utility.yul\":9237:9255   */\n              add\n                /* \"#utility.yul\":9230:9280   */\n              mstore\n                /* \"#utility.yul\":9303:9347   */\n              tag_269\n                /* \"#utility.yul\":9340:9346   */\n              dup2\n                /* \"#utility.yul\":9332:9338   */\n              dup11\n                /* \"#utility.yul\":9303:9347   */\n              tag_199\n              jump\t// in\n            tag_269:\n                /* \"#utility.yul\":9289:9347   */\n              swap1\n              pop\n                /* \"#utility.yul\":9395:9404   */\n              dup4\n                /* \"#utility.yul\":9387:9393   */\n              dup2\n                /* \"#utility.yul\":9383:9405   */\n              sub\n                /* \"#utility.yul\":9378:9380   */\n              0x60\n                /* \"#utility.yul\":9367:9376   */\n              dup6\n                /* \"#utility.yul\":9363:9381   */\n              add\n                /* \"#utility.yul\":9356:9406   */\n              mstore\n                /* \"#utility.yul\":9429:9473   */\n              tag_270\n                /* \"#utility.yul\":9466:9472   */\n              dup2\n                /* \"#utility.yul\":9458:9464   */\n              dup10\n                /* \"#utility.yul\":9429:9473   */\n              tag_199\n              jump\t// in\n            tag_270:\n                /* \"#utility.yul\":9510:9525   */\n              swap2\n              dup8\n              and\n                /* \"#utility.yul\":9504:9507   */\n              0x80\n                /* \"#utility.yul\":9489:9508   */\n              dup6\n              add\n                /* \"#utility.yul\":9482:9526   */\n              mstore\n              pop\n                /* \"#utility.yul\":9563:9585   */\n              dup3\n              dup2\n              sub\n                /* \"#utility.yul\":9557:9560   */\n              0xa0\n                /* \"#utility.yul\":9542:9561   */\n              dup5\n              add\n                /* \"#utility.yul\":9535:9586   */\n              mstore\n                /* \"#utility.yul\":9609:9622   */\n              dup5\n              mload\n                /* \"#utility.yul\":9631:9653   */\n              dup1\n              dup3\n              mstore\n                /* \"#utility.yul\":9609:9622   */\n              swap1\n                /* \"#utility.yul\":9662:9725   */\n              tag_271\n                /* \"#utility.yul\":9609:9622   */\n              dup3\n                /* \"#utility.yul\":9713:9715   */\n              0x20\n                /* \"#utility.yul\":9701:9716   */\n              dup1\n              dup5\n              add\n              swap1\n                /* \"#utility.yul\":9684:9699   */\n              dup10\n              add\n                /* \"#utility.yul\":9662:9725   */\n              tag_200\n              jump\t// in\n            tag_271:\n                /* \"#utility.yul\":9842:9848   */\n              0xffff\n                /* \"#utility.yul\":9830:9849   */\n              swap5\n              swap1\n              swap5\n              and\n                /* \"#utility.yul\":9824:9827   */\n              0xc0\n                /* \"#utility.yul\":9809:9828   */\n              swap4\n              swap1\n              swap4\n              add\n                /* \"#utility.yul\":9802:9850   */\n              swap3\n              swap1\n              swap3\n              mstore\n              pop\n                /* \"#utility.yul\":9783:9785   */\n              0x1f\n                /* \"#utility.yul\":9762:9777   */\n              add\n              not(0x1f)\n                /* \"#utility.yul\":9758:9787   */\n              and\n                /* \"#utility.yul\":9746:9788   */\n              add\n                /* \"#utility.yul\":9790:9792   */\n              0x20\n                /* \"#utility.yul\":9742:9793   */\n              add\n              swap7\n                /* \"#utility.yul\":8561:9856   */\n              swap6\n              pop\n              pop\n              pop\n              pop\n              pop\n              pop\n              jump\t// out\n                /* \"#utility.yul\":10163:10437   */\n            tag_129:\n                /* \"#utility.yul\":10292:10295   */\n              0x00\n                /* \"#utility.yul\":10330:10336   */\n              dup3\n                /* \"#utility.yul\":10324:10337   */\n              mload\n                /* \"#utility.yul\":10346:10399   */\n              tag_274\n                /* \"#utility.yul\":10392:10398   */\n              dup2\n                /* \"#utility.yul\":10387:10390   */\n              dup5\n                /* \"#utility.yul\":10380:10384   */\n              0x20\n                /* \"#utility.yul\":10372:10378   */\n              dup8\n                /* \"#utility.yul\":10368:10385   */\n              add\n                /* \"#utility.yul\":10346:10399   */\n              tag_200\n              jump\t// in\n            tag_274:\n                /* \"#utility.yul\":10415:10431   */\n              swap2\n              swap1\n              swap2\n              add\n              swap3\n                /* \"#utility.yul\":10163:10437   */\n              swap2\n              pop\n              pop\n              jump\t// out\n                /* \"#utility.yul\":10442:10719   */\n            tag_136:\n                /* \"#utility.yul\":10509:10515   */\n              0x00\n                /* \"#utility.yul\":10562:10564   */\n              0x20\n                /* \"#utility.yul\":10550:10559   */\n              dup3\n                /* \"#utility.yul\":10541:10548   */\n              dup5\n                /* \"#utility.yul\":10537:10560   */\n              sub\n                /* \"#utility.yul\":10533:10565   */\n              slt\n                /* \"#utility.yul\":10530:10582   */\n              iszero\n              tag_276\n              jumpi\n                /* \"#utility.yul\":10578:10579   */\n              0x00\n                /* \"#utility.yul\":10575:10576   */\n              dup1\n                /* \"#utility.yul\":10568:10580   */\n              revert\n                /* \"#utility.yul\":10530:10582   */\n            tag_276:\n                /* \"#utility.yul\":10610:10619   */\n              dup2\n                /* \"#utility.yul\":10604:10620   */\n              mload\n                /* \"#utility.yul\":10663:10668   */\n              dup1\n                /* \"#utility.yul\":10656:10669   */\n              iszero\n                /* \"#utility.yul\":10649:10670   */\n              iszero\n                /* \"#utility.yul\":10642:10647   */\n              dup2\n                /* \"#utility.yul\":10639:10671   */\n              eq\n                /* \"#utility.yul\":10629:10689   */\n              tag_207\n              jumpi\n                /* \"#utility.yul\":10685:10686   */\n              0x00\n                /* \"#utility.yul\":10682:10683   */\n              dup1\n                /* \"#utility.yul\":10675:10687   */\n              revert\n                /* \"#utility.yul\":12964:13561   */\n            tag_188:\n                /* \"#utility.yul\":13255:13261   */\n              dup6\n                /* \"#utility.yul\":13244:13253   */\n              dup2\n                /* \"#utility.yul\":13237:13262   */\n              mstore\n                /* \"#utility.yul\":13298:13304   */\n              dup5\n                /* \"#utility.yul\":13293:13295   */\n              0x20\n                /* \"#utility.yul\":13282:13291   */\n              dup3\n                /* \"#utility.yul\":13278:13296   */\n              add\n                /* \"#utility.yul\":13271:13305   */\n              mstore\n                /* \"#utility.yul\":13341:13344   */\n              0xa0\n                /* \"#utility.yul\":13336:13338   */\n              0x40\n                /* \"#utility.yul\":13325:13334   */\n              dup3\n                /* \"#utility.yul\":13321:13339   */\n              add\n                /* \"#utility.yul\":13314:13345   */\n              mstore\n                /* \"#utility.yul\":13218:13222   */\n              0x00\n                /* \"#utility.yul\":13362:13419   */\n              tag_288\n                /* \"#utility.yul\":13414:13417   */\n              0xa0\n                /* \"#utility.yul\":13403:13412   */\n              dup4\n                /* \"#utility.yul\":13399:13418   */\n              add\n                /* \"#utility.yul\":13391:13397   */\n              dup7\n                /* \"#utility.yul\":13362:13419   */\n              tag_198\n              jump\t// in\n            tag_288:\n              sub(shl(0xa0, 0x01), 0x01)\n                /* \"#utility.yul\":13455:13510   */\n              swap5\n              swap1\n              swap5\n              and\n                /* \"#utility.yul\":13450:13452   */\n              0x60\n                /* \"#utility.yul\":13435:13453   */\n              dup4\n              add\n                /* \"#utility.yul\":13428:13511   */\n              mstore\n              pop\n                /* \"#utility.yul\":13542:13545   */\n              0x80\n                /* \"#utility.yul\":13527:13546   */\n              add\n                /* \"#utility.yul\":13520:13555   */\n              mstore\n                /* \"#utility.yul\":13354:13419   */\n              swap4\n                /* \"#utility.yul\":12964:13561   */\n              swap3\n              pop\n              pop\n              pop\n              jump\t// out\n                /* \"#utility.yul\":13566:14671   */\n            tag_192:\n                /* \"#utility.yul\":13661:13667   */\n              0x00\n                /* \"#utility.yul\":13692:13694   */\n              0x20\n                /* \"#utility.yul\":13735:13737   */\n              dup1\n                /* \"#utility.yul\":13723:13732   */\n              dup4\n                /* \"#utility.yul\":13714:13721   */\n              dup6\n                /* \"#utility.yul\":13710:13733   */\n              sub\n                /* \"#utility.yul\":13706:13738   */\n              slt\n                /* \"#utility.yul\":13703:13755   */\n              iszero\n              tag_290\n              jumpi\n                /* \"#utility.yul\":13751:13752   */\n              0x00\n                /* \"#utility.yul\":13748:13749   */\n              dup1\n                /* \"#utility.yul\":13741:13753   */\n              revert\n                /* \"#utility.yul\":13703:13755   */\n            tag_290:\n                /* \"#utility.yul\":13784:13793   */\n              dup3\n                /* \"#utility.yul\":13778:13794   */\n              mload\n                /* \"#utility.yul\":13813:13831   */\n              0xffffffffffffffff\n                /* \"#utility.yul\":13854:13856   */\n              dup1\n                /* \"#utility.yul\":13846:13852   */\n              dup3\n                /* \"#utility.yul\":13843:13857   */\n              gt\n                /* \"#utility.yul\":13840:13874   */\n              iszero\n              tag_291\n              jumpi\n                /* \"#utility.yul\":13870:13871   */\n              0x00\n                /* \"#utility.yul\":13867:13868   */\n              dup1\n                /* \"#utility.yul\":13860:13872   */\n              revert\n                /* \"#utility.yul\":13840:13874   */\n            tag_291:\n                /* \"#utility.yul\":13908:13914   */\n              dup2\n                /* \"#utility.yul\":13897:13906   */\n              dup6\n                /* \"#utility.yul\":13893:13915   */\n              add\n                /* \"#utility.yul\":13883:13915   */\n              swap2\n              pop\n                /* \"#utility.yul\":13953:13960   */\n              dup6\n                /* \"#utility.yul\":13946:13950   */\n              0x1f\n                /* \"#utility.yul\":13942:13944   */\n              dup4\n                /* \"#utility.yul\":13938:13951   */\n              add\n                /* \"#utility.yul\":13934:13961   */\n              slt\n                /* \"#utility.yul\":13924:13979   */\n              tag_292\n              jumpi\n                /* \"#utility.yul\":13975:13976   */\n              0x00\n                /* \"#utility.yul\":13972:13973   */\n              dup1\n                /* \"#utility.yul\":13965:13977   */\n              revert\n                /* \"#utility.yul\":13924:13979   */\n            tag_292:\n                /* \"#utility.yul\":14004:14006   */\n              dup2\n                /* \"#utility.yul\":13998:14007   */\n              mload\n                /* \"#utility.yul\":14026:14028   */\n              dup2\n                /* \"#utility.yul\":14022:14024   */\n              dup2\n                /* \"#utility.yul\":14019:14029   */\n              gt\n                /* \"#utility.yul\":14016:14052   */\n              iszero\n              tag_294\n              jumpi\n                /* \"#utility.yul\":14032:14050   */\n              tag_294\n              tag_101\n              jump\t// in\n            tag_294:\n                /* \"#utility.yul\":14078:14080   */\n              dup1\n                /* \"#utility.yul\":14075:14076   */\n              0x05\n                /* \"#utility.yul\":14071:14081   */\n              shl\n                /* \"#utility.yul\":14110:14112   */\n              0x40\n                /* \"#utility.yul\":14104:14113   */\n              mload\n                /* \"#utility.yul\":14173:14175   */\n              0x1f\n                /* \"#utility.yul\":14169:14176   */\n              not\n                /* \"#utility.yul\":14164:14166   */\n              0x3f\n                /* \"#utility.yul\":14160:14162   */\n              dup4\n                /* \"#utility.yul\":14156:14167   */\n              add\n                /* \"#utility.yul\":14152:14177   */\n              and\n                /* \"#utility.yul\":14144:14150   */\n              dup2\n                /* \"#utility.yul\":14140:14178   */\n              add\n                /* \"#utility.yul\":14228:14234   */\n              dup2\n                /* \"#utility.yul\":14216:14226   */\n              dup2\n                /* \"#utility.yul\":14213:14235   */\n              lt\n                /* \"#utility.yul\":14208:14210   */\n              dup6\n                /* \"#utility.yul\":14196:14206   */\n              dup3\n                /* \"#utility.yul\":14193:14211   */\n              gt\n                /* \"#utility.yul\":14190:14236   */\n              or\n                /* \"#utility.yul\":14187:14259   */\n              iszero\n              tag_296\n              jumpi\n                /* \"#utility.yul\":14239:14257   */\n              tag_296\n              tag_101\n              jump\t// in\n            tag_296:\n                /* \"#utility.yul\":14275:14277   */\n              0x40\n                /* \"#utility.yul\":14268:14290   */\n              mstore\n                /* \"#utility.yul\":14325:14343   */\n              swap2\n              dup3\n              mstore\n                /* \"#utility.yul\":14359:14374   */\n              dup5\n              dup3\n              add\n              swap3\n              pop\n                /* \"#utility.yul\":14401:14412   */\n              dup4\n              dup2\n              add\n                /* \"#utility.yul\":14397:14417   */\n              dup6\n              add\n              swap2\n                /* \"#utility.yul\":14429:14448   */\n              dup9\n              dup4\n              gt\n                /* \"#utility.yul\":14426:14465   */\n              iszero\n              tag_297\n              jumpi\n                /* \"#utility.yul\":14461:14462   */\n              0x00\n                /* \"#utility.yul\":14458:14459   */\n              dup1\n                /* \"#utility.yul\":14451:14463   */\n              revert\n                /* \"#utility.yul\":14426:14465   */\n            tag_297:\n                /* \"#utility.yul\":14485:14496   */\n              swap4\n              dup6\n              add\n              swap4\n                /* \"#utility.yul\":14505:14640   */\n            tag_298:\n                /* \"#utility.yul\":14521:14527   */\n              dup3\n                /* \"#utility.yul\":14516:14519   */\n              dup6\n                /* \"#utility.yul\":14513:14528   */\n              lt\n                /* \"#utility.yul\":14505:14640   */\n              iszero\n              tag_300\n              jumpi\n                /* \"#utility.yul\":14587:14597   */\n              dup5\n              mload\n                /* \"#utility.yul\":14575:14598   */\n              dup5\n              mstore\n                /* \"#utility.yul\":14538:14550   */\n              swap4\n              dup6\n              add\n              swap4\n                /* \"#utility.yul\":14618:14630   */\n              swap3\n              dup6\n              add\n              swap3\n                /* \"#utility.yul\":14505:14640   */\n              jump(tag_298)\n            tag_300:\n                /* \"#utility.yul\":14659:14665   */\n              swap9\n                /* \"#utility.yul\":13566:14671   */\n              swap8\n              pop\n              pop\n              pop\n              pop\n              pop\n              pop\n              pop\n              pop\n              jump\t// out\n\n            auxdata: 0xa26469706673582212202bd00c67f5240f930b75331ce4c314b53db88b23c31856cead8bef7b211df99c64736f6c634300080a0033\n        }\n    }\n\n    auxdata: 0xa26469706673582212202e631e5cfadd9dea67f0eae8b4fff0bf6a5609ad269744602417605afcd6725a64736f6c634300080a0033\n}\n",
				"bytecode": {
					"linkReferences": {},
					"object": "610100604052603260015534801561001657600080fd5b50604051611f4a380380611f4a83398101604081905261003591610081565b3360e052600080546001600160a01b0319166001600160a01b03958616179055918316608052821660a0521660c0526100e0565b6001600160a01b038116811461007e57600080fd5b50565b6000806000806080858703121561009757600080fd5b84516100a281610069565b60208601519094506100b381610069565b60408601519093506100c481610069565b60608601519092506100d581610069565b939692955090935050565b60805160a05160c05160e051611df96101516000396000818161024001528181610277015281816102b1015281816102df0152818161046f01526105b30152600081816101fa01526103ab0152600081816101c6015261075501526000818161019201526107330152611df96000f3fe6080604052600436106100bc5760003560e01c80635d01ff3d11610074578063837708811161004e578063837708811461021c578063893d20e814610231578063c20b43951461026457600080fd5b80635d01ff3d146101805780636d13582c146101b457806378cd62c5146101e857600080fd5b80632954018c116100a55780632954018c1461013957806339ab4a24146101595780633ccfd60b1461017857600080fd5b8063049211a8146100c157806323ceb29a14610117575b600080fd5b3480156100cd57600080fd5b506100fa6100dc36600461082c565b6001600160a01b039081166000908152600260205260409020541690565b6040516001600160a01b0390911681526020015b60405180910390f35b34801561012357600080fd5b5061013761013236600461085c565b61026c565b005b34801561014557600080fd5b506000546100fa906001600160a01b031681565b34801561016557600080fd5b506003545b60405190815260200161010e565b6101376102a6565b34801561018c57600080fd5b506100fa7f000000000000000000000000000000000000000000000000000000000000000081565b3480156101c057600080fd5b506100fa7f000000000000000000000000000000000000000000000000000000000000000081565b3480156101f457600080fd5b506100fa7f000000000000000000000000000000000000000000000000000000000000000081565b34801561022857600080fd5b5061016a6103a6565b34801561023d57600080fd5b507f00000000000000000000000000000000000000000000000000000000000000006100fa565b6100fa610462565b336001600160a01b037f000000000000000000000000000000000000000000000000000000000000000016146102a157600080fd5b600155565b336001600160a01b037f000000000000000000000000000000000000000000000000000000000000000016146102db57600080fd5b60007f00000000000000000000000000000000000000000000000000000000000000006001600160a01b03164760405160006040518083038185875af1925050503d8060008114610348576040519150601f19603f3d011682016040523d82523d6000602084013e61034d565b606091505b50509050806103a35760405162461bcd60e51b815260206004820152601060248201527f5769746864726177206661696c65642e0000000000000000000000000000000060448201526064015b60405180910390fd5b50565b6000807f00000000000000000000000000000000000000000000000000000000000000006001600160a01b03166350d25bcd6040518163ffffffff1660e01b8152600401602060405180830381865afa158015610407573d6000803e3d6000fd5b505050506040513d601f19601f8201168201806040525081019061042b9190610875565b905080600154670de0b6b3a764000061044491906108a4565b61044e91906108c3565b61045c906305f5e1006108a4565b91505090565b6000336001600160a01b037f0000000000000000000000000000000000000000000000000000000000000000161461071c57600061049e6103a6565b9050803410156105af5760405162461bcd60e51b81526020600482015260b060248201527f4e65656420746f2073656e642061206d696e696d756d20616d6f756e74206f6660448201527f206d6174696320746f20707572636861736520666c617368206c6f616e20636f60648201527f6e74726163742e20416e79206c6566746f7665722066756e647320617265207260848201527f657475726e65642e2056696577206765744d6174696356616c75654e6565646560a48201527f64466f724e6577436f6e747261637420666f722063757272656e74206d61746960c48201527f6320616d6f756e74206e65656465642e0000000000000000000000000000000060e48201526101040161039a565b60007f00000000000000000000000000000000000000000000000000000000000000006001600160a01b03168260405160006040518083038185875af1925050503d806000811461061c576040519150601f19603f3d011682016040523d82523d6000602084013e610621565b606091505b50509050806106725760405162461bcd60e51b815260206004820152601960248201527f5472616e7366657220746f206f776e6572206661696c65642e00000000000000604482015260640161039a565b47156107195760003361068584346108e5565b604051600081818185875af1925050503d80600081146106c1576040519150601f19603f3d011682016040523d82523d6000602084013e6106c6565b606091505b50509050806107175760405162461bcd60e51b815260206004820152601660248201527f526566756e6420746f2075736572206661696c65642e00000000000000000000604482015260640161039a565b505b50505b600080546040516001600160a01b039091169033907f0000000000000000000000000000000000000000000000000000000000000000907f00000000000000000000000000000000000000000000000000000000000000009061077e9061081f565b6001600160a01b039485168152928416602084015290831660408301529091166060820152608001604051809103906000f0801580156107c2573d6000803e3d6000fd5b5033600090815260026020526040812080547fffffffffffffffffffffffff0000000000000000000000000000000000000000166001600160a01b0384161790556003805492935090610814836108fc565b909155509092915050565b6114ac8061091883390190565b60006020828403121561083e57600080fd5b81356001600160a01b038116811461085557600080fd5b9392505050565b60006020828403121561086e57600080fd5b5035919050565b60006020828403121561088757600080fd5b5051919050565b634e487b7160e01b600052601160045260246000fd5b60008160001904831182151516156108be576108be61088e565b500290565b6000826108e057634e487b7160e01b600052601260045260246000fd5b500490565b6000828210156108f7576108f761088e565b500390565b60006000198214156109105761091061088e565b506001019056fe6101006040523480156200001257600080fd5b50604051620014ac380380620014ac833981016040819052620000359162000106565b83806001600160a01b03166080816001600160a01b031681525050806001600160a01b031663026b1d5f6040518163ffffffff1660e01b8152600401602060405180830381865afa1580156200008f573d6000803e3d6000fd5b505050506040513d601f19601f82011682018060405250810190620000b591906200016e565b6001600160a01b0390811660a052600080546001600160a01b031916958216959095179094555090821660c0521660e0525062000195565b6001600160a01b03811681146200010357600080fd5b50565b600080600080608085870312156200011d57600080fd5b84516200012a81620000ed565b60208601519094506200013d81620000ed565b60408601519093506200015081620000ed565b60608601519092506200016381620000ed565b939692955090935050565b6000602082840312156200018157600080fd5b81516200018e81620000ed565b9392505050565b60805160a05160c05160e0516112c2620001ea60003960008181610c870152610cdc015260008181610b050152610bea01526000818161011b0152818161043e015261060d01526000609201526112c26000f3fe60806040526004361061007b5760003560e01c8063893d20e81161004e578063893d20e81461013d578063920f5c841461015b578063c2d222071461018b578063f2fde38b146101ab57600080fd5b80630542975c146100805780633bdebbe1146100d15780633ccfd60b146100ff5780637535d24614610109575b600080fd5b34801561008c57600080fd5b506100b47f000000000000000000000000000000000000000000000000000000000000000081565b6040516001600160a01b0390911681526020015b60405180910390f35b3480156100dd57600080fd5b506100f16100ec366004610d7e565b6101cb565b6040519081526020016100c8565b6101076102fe565b005b34801561011557600080fd5b506100b47f000000000000000000000000000000000000000000000000000000000000000081565b34801561014957600080fd5b506000546001600160a01b03166100b4565b34801561016757600080fd5b5061017b610176366004610dee565b6103bb565b60405190151581526020016100c8565b34801561019757600080fd5b506101076101a6366004610f17565b610487565b3480156101b757600080fd5b506101076101c6366004610d7e565b610690565b600080546001600160a01b031633146101e357600080fd5b6040517f70a082310000000000000000000000000000000000000000000000000000000081523060048201526001600160a01b038316906370a0823190602401602060405180830381865afa158015610240573d6000803e3d6000fd5b505050506040513d601f19601f820116820180604052508101906102649190610f8a565b9050600081116102e15760405162461bcd60e51b815260206004820152603060248201527f436f6e747261637420646f6573206e6f742068617665207468652070726f766960448201527f64656420455243323020746f6b656e2e0000000000000000000000000000000060648201526084015b60405180910390fd5b6000546102f99083906001600160a01b0316836106e1565b919050565b6000546001600160a01b0316331461031557600080fd5b600080546040516001600160a01b039091169047908381818185875af1925050503d8060008114610362576040519150601f19603f3d011682016040523d82523d6000602084013e610367565b606091505b50509050806103b85760405162461bcd60e51b815260206004820152601060248201527f5769746864726177206661696c65642e0000000000000000000000000000000060448201526064016102d8565b50565b60006103c7838361082a565b60005b898110156104765760008787838181106103e6576103e6610fa3565b905060200201358a8a848181106103ff576103ff610fa3565b905060200201356104109190610fcf565b90506104638c8c8481811061042757610427610fa3565b905060200201602081019061043c9190610d7e565b7f0000000000000000000000000000000000000000000000000000000000000000836109bb565b508061046e81610fe7565b9150506103ca565b5060019a9950505050505050505050565b6000546001600160a01b0316331461049e57600080fd5b6040805160018082528183019092523091600091906020808301908036833701905050905088816000815181106104d7576104d7610fa3565b6001600160a01b039290921660209283029190910190910152604080516001808252818301909252600091816020016020820280368337019050509050858160008151811061052857610528610fa3565b602090810291909101015260408051600180825281830190925260009181602001602082028036833701905050905060008160008151811061056c5761056c610fa3565b602090810291909101810191909152604080516001600160a01b03808f1693820193909352918c169082015260ff8a16606082015262ffffff8916608082015260a0810188905260c0810187905260e0810186905230906000906101000160408051601f19818403018152908290527fab9c4b5d00000000000000000000000000000000000000000000000000000000825291506000906001600160a01b037f0000000000000000000000000000000000000000000000000000000000000000169063ab9c4b5d9061064e908a908a908a908a908a908a908a906004016110bc565b600060405180830381600087803b15801561066857600080fd5b505af115801561067c573d6000803e3d6000fd5b505050505050505050505050505050505050565b6000546001600160a01b031633146106a757600080fd5b600080547fffffffffffffffffffffffff0000000000000000000000000000000000000000166001600160a01b0392909216919091179055565b604080516001600160a01b038481166024830152604480830185905283518084039091018152606490920183526020820180517bffffffffffffffffffffffffffffffffffffffffffffffffffffffff167fa9059cbb00000000000000000000000000000000000000000000000000000000179052915160009283929087169161076b9190611154565b6000604051808303816000865af19150503d80600081146107a8576040519150601f19603f3d011682016040523d82523d6000602084013e6107ad565b606091505b50915091508180156107d75750805115806107d75750808060200190518101906107d79190611170565b6108235760405162461bcd60e51b815260206004820152600260248201527f535400000000000000000000000000000000000000000000000000000000000060448201526064016102d8565b5050505050565b600080808080808061083e888a018a610f17565b604080516002808252606082018352989f50969d50949b5092995090975095509350600092906020830190803683370190505090508560ff166001141561090c57600061088e85858b8b8a610afd565b905087826000815181106108a4576108a4610fa3565b60200260200101906001600160a01b031690816001600160a01b03168152505088826001815181106108d8576108d8610fa3565b60200260200101906001600160a01b031690816001600160a01b0316815250506109058160008486610c65565b50506109af565b878160008151811061092057610920610fa3565b60200260200101906001600160a01b031690816001600160a01b031681525050868160018151811061095457610954610fa3565b60200260200101906001600160a01b031690816001600160a01b031681525050600061098285858486610c65565b90506109ac8160018151811061099a5761099a610fa3565b602002602001015160008a8c8a610afd565b50505b50505050505050505050565b604080516001600160a01b038481166024830152604480830185905283518084039091018152606490920183526020820180517bffffffffffffffffffffffffffffffffffffffffffffffffffffffff167f095ea7b3000000000000000000000000000000000000000000000000000000001790529151600092839290871691610a459190611154565b6000604051808303816000865af19150503d8060008114610a82576040519150601f19603f3d011682016040523d82523d6000602084013e610a87565b606091505b5091509150818015610ab1575080511580610ab1575080806020019051810190610ab19190611170565b6108235760405162461bcd60e51b815260206004820152600260248201527f534100000000000000000000000000000000000000000000000000000000000060448201526064016102d8565b6000610b2a847f0000000000000000000000000000000000000000000000000000000000000000886109bb565b60408051610100810182526001600160a01b0386811682528581166020830190815262ffffff8681168486019081523060608601908152426080870190815260a087018e815260c088018e8152600060e08a0190815299517f414bf38900000000000000000000000000000000000000000000000000000000815289518916600482015296518816602488015293519094166044860152905185166064850152516084840152905160a48301525160c48201529251811660e484015290917f00000000000000000000000000000000000000000000000000000000000000009091169063414bf38990610104016020604051808303816000875af1158015610c36573d6000803e3d6000fd5b505050506040513d601f19601f82011682018060405250810190610c5a9190610f8a565b979650505050505050565b6060610cac83600081518110610c7d57610c7d610fa3565b60200260200101517f0000000000000000000000000000000000000000000000000000000000000000876109bb565b6040517f38ed17390000000000000000000000000000000000000000000000000000000081526001600160a01b037f000000000000000000000000000000000000000000000000000000000000000016906338ed173990610d199088908890889030908990600401611192565b6000604051808303816000875af1158015610d38573d6000803e3d6000fd5b505050506040513d6000823e601f3d908101601f19168201604052610d6091908101906111ce565b95945050505050565b6001600160a01b03811681146103b857600080fd5b600060208284031215610d9057600080fd5b8135610d9b81610d69565b9392505050565b60008083601f840112610db457600080fd5b50813567ffffffffffffffff811115610dcc57600080fd5b6020830191508360208260051b8501011115610de757600080fd5b9250929050565b600080600080600080600080600060a08a8c031215610e0c57600080fd5b893567ffffffffffffffff80821115610e2457600080fd5b610e308d838e01610da2565b909b50995060208c0135915080821115610e4957600080fd5b610e558d838e01610da2565b909950975060408c0135915080821115610e6e57600080fd5b610e7a8d838e01610da2565b909750955060608c01359150610e8f82610d69565b90935060808b01359080821115610ea557600080fd5b818c0191508c601f830112610eb957600080fd5b813581811115610ec857600080fd5b8d6020828501011115610eda57600080fd5b6020830194508093505050509295985092959850929598565b803560ff811681146102f957600080fd5b803562ffffff811681146102f957600080fd5b600080600080600080600060e0888a031215610f3257600080fd5b8735610f3d81610d69565b96506020880135610f4d81610d69565b9550610f5b60408901610ef3565b9450610f6960608901610f04565b9699959850939660808101359560a0820135955060c0909101359350915050565b600060208284031215610f9c57600080fd5b5051919050565b634e487b7160e01b600052603260045260246000fd5b634e487b7160e01b600052601160045260246000fd5b60008219821115610fe257610fe2610fb9565b500190565b6000600019821415610ffb57610ffb610fb9565b5060010190565b634e487b7160e01b600052604160045260246000fd5b600081518084526020808501945080840160005b838110156110515781516001600160a01b03168752958201959082019060010161102c565b509495945050505050565b600081518084526020808501945080840160005b8381101561105157815187529582019590820190600101611070565b60005b838110156110a757818101518382015260200161108f565b838111156110b6576000848401525b50505050565b60006001600160a01b03808a16835260e060208401526110df60e084018a611018565b83810360408501526110f1818a61105c565b90508381036060850152611105818961105c565b91871660808501525082810360a084015284518082529061112d82602080840190890161108c565b61ffff9490941660c0939093019290925250601f01601f1916016020019695505050505050565b6000825161116681846020870161108c565b9190910192915050565b60006020828403121561118257600080fd5b81518015158114610d9b57600080fd5b85815284602082015260a0604082015260006111b160a0830186611018565b6001600160a01b0394909416606083015250608001529392505050565b600060208083850312156111e157600080fd5b825167ffffffffffffffff808211156111f957600080fd5b818501915085601f83011261120d57600080fd5b81518181111561121f5761121f611002565b8060051b604051601f19603f8301168101818110858211171561124457611244611002565b60405291825284820192508381018501918883111561126257600080fd5b938501935b8285101561128057845184529385019392850192611267565b9897505050505050505056fea26469706673582212202bd00c67f5240f930b75331ce4c314b53db88b23c31856cead8bef7b211df99c64736f6c634300080a0033a26469706673582212202e631e5cfadd9dea67f0eae8b4fff0bf6a5609ad269744602417605afcd6725a64736f6c634300080a0033",
					"opcodes": "PUSH2 0x100 PUSH1 0x40 MSTORE PUSH1 0x32 PUSH1 0x1 SSTORE CALLVALUE DUP1 ISZERO PUSH2 0x16 JUMPI PUSH1 0x0 DUP1 REVERT JUMPDEST POP PUSH1 0x40 MLOAD PUSH2 0x1F4A CODESIZE SUB DUP1 PUSH2 0x1F4A DUP4 CODECOPY DUP2 ADD PUSH1 0x40 DUP2 SWAP1 MSTORE PUSH2 0x35 SWAP2 PUSH2 0x81 JUMP JUMPDEST CALLER PUSH1 0xE0 MSTORE PUSH1 0x0 DUP1 SLOAD PUSH1 0x1 PUSH1 0x1 PUSH1 0xA0 SHL SUB NOT AND PUSH1 0x1 PUSH1 0x1 PUSH1 0xA0 SHL SUB SWAP6 DUP7 AND OR SWAP1 SSTORE SWAP2 DUP4 AND PUSH1 0x80 MSTORE DUP3 AND PUSH1 0xA0 MSTORE AND PUSH1 0xC0 MSTORE PUSH2 0xE0 JUMP JUMPDEST PUSH1 0x1 PUSH1 0x1 PUSH1 0xA0 SHL SUB DUP2 AND DUP2 EQ PUSH2 0x7E JUMPI PUSH1 0x0 DUP1 REVERT JUMPDEST POP JUMP JUMPDEST PUSH1 0x0 DUP1 PUSH1 0x0 DUP1 PUSH1 0x80 DUP6 DUP8 SUB SLT ISZERO PUSH2 0x97 JUMPI PUSH1 0x0 DUP1 REVERT JUMPDEST DUP5 MLOAD PUSH2 0xA2 DUP2 PUSH2 0x69 JUMP JUMPDEST PUSH1 0x20 DUP7 ADD MLOAD SWAP1 SWAP5 POP PUSH2 0xB3 DUP2 PUSH2 0x69 JUMP JUMPDEST PUSH1 0x40 DUP7 ADD MLOAD SWAP1 SWAP4 POP PUSH2 0xC4 DUP2 PUSH2 0x69 JUMP JUMPDEST PUSH1 0x60 DUP7 ADD MLOAD SWAP1 SWAP3 POP PUSH2 0xD5 DUP2 PUSH2 0x69 JUMP JUMPDEST SWAP4 SWAP7 SWAP3 SWAP6 POP SWAP1 SWAP4 POP POP JUMP JUMPDEST PUSH1 0x80 MLOAD PUSH1 0xA0 MLOAD PUSH1 0xC0 MLOAD PUSH1 0xE0 MLOAD PUSH2 0x1DF9 PUSH2 0x151 PUSH1 0x0 CODECOPY PUSH1 0x0 DUP2 DUP2 PUSH2 0x240 ADD MSTORE DUP2 DUP2 PUSH2 0x277 ADD MSTORE DUP2 DUP2 PUSH2 0x2B1 ADD MSTORE DUP2 DUP2 PUSH2 0x2DF ADD MSTORE DUP2 DUP2 PUSH2 0x46F ADD MSTORE PUSH2 0x5B3 ADD MSTORE PUSH1 0x0 DUP2 DUP2 PUSH2 0x1FA ADD MSTORE PUSH2 0x3AB ADD MSTORE PUSH1 0x0 DUP2 DUP2 PUSH2 0x1C6 ADD MSTORE PUSH2 0x755 ADD MSTORE PUSH1 0x0 DUP2 DUP2 PUSH2 0x192 ADD MSTORE PUSH2 0x733 ADD MSTORE PUSH2 0x1DF9 PUSH1 0x0 RETURN INVALID PUSH1 0x80 PUSH1 0x40 MSTORE PUSH1 0x4 CALLDATASIZE LT PUSH2 0xBC JUMPI PUSH1 0x0 CALLDATALOAD PUSH1 0xE0 SHR DUP1 PUSH4 0x5D01FF3D GT PUSH2 0x74 JUMPI DUP1 PUSH4 0x83770881 GT PUSH2 0x4E JUMPI DUP1 PUSH4 0x83770881 EQ PUSH2 0x21C JUMPI DUP1 PUSH4 0x893D20E8 EQ PUSH2 0x231 JUMPI DUP1 PUSH4 0xC20B4395 EQ PUSH2 0x264 JUMPI PUSH1 0x0 DUP1 REVERT JUMPDEST DUP1 PUSH4 0x5D01FF3D EQ PUSH2 0x180 JUMPI DUP1 PUSH4 0x6D13582C EQ PUSH2 0x1B4 JUMPI DUP1 PUSH4 0x78CD62C5 EQ PUSH2 0x1E8 JUMPI PUSH1 0x0 DUP1 REVERT JUMPDEST DUP1 PUSH4 0x2954018C GT PUSH2 0xA5 JUMPI DUP1 PUSH4 0x2954018C EQ PUSH2 0x139 JUMPI DUP1 PUSH4 0x39AB4A24 EQ PUSH2 0x159 JUMPI DUP1 PUSH4 0x3CCFD60B EQ PUSH2 0x178 JUMPI PUSH1 0x0 DUP1 REVERT JUMPDEST DUP1 PUSH4 0x49211A8 EQ PUSH2 0xC1 JUMPI DUP1 PUSH4 0x23CEB29A EQ PUSH2 0x117 JUMPI JUMPDEST PUSH1 0x0 DUP1 REVERT JUMPDEST CALLVALUE DUP1 ISZERO PUSH2 0xCD JUMPI PUSH1 0x0 DUP1 REVERT JUMPDEST POP PUSH2 0xFA PUSH2 0xDC CALLDATASIZE PUSH1 0x4 PUSH2 0x82C JUMP JUMPDEST PUSH1 0x1 PUSH1 0x1 PUSH1 0xA0 SHL SUB SWAP1 DUP2 AND PUSH1 0x0 SWAP1 DUP2 MSTORE PUSH1 0x2 PUSH1 0x20 MSTORE PUSH1 0x40 SWAP1 KECCAK256 SLOAD AND SWAP1 JUMP JUMPDEST PUSH1 0x40 MLOAD PUSH1 0x1 PUSH1 0x1 PUSH1 0xA0 SHL SUB SWAP1 SWAP2 AND DUP2 MSTORE PUSH1 0x20 ADD JUMPDEST PUSH1 0x40 MLOAD DUP1 SWAP2 SUB SWAP1 RETURN JUMPDEST CALLVALUE DUP1 ISZERO PUSH2 0x123 JUMPI PUSH1 0x0 DUP1 REVERT JUMPDEST POP PUSH2 0x137 PUSH2 0x132 CALLDATASIZE PUSH1 0x4 PUSH2 0x85C JUMP JUMPDEST PUSH2 0x26C JUMP JUMPDEST STOP JUMPDEST CALLVALUE DUP1 ISZERO PUSH2 0x145 JUMPI PUSH1 0x0 DUP1 REVERT JUMPDEST POP PUSH1 0x0 SLOAD PUSH2 0xFA SWAP1 PUSH1 0x1 PUSH1 0x1 PUSH1 0xA0 SHL SUB AND DUP2 JUMP JUMPDEST CALLVALUE DUP1 ISZERO PUSH2 0x165 JUMPI PUSH1 0x0 DUP1 REVERT JUMPDEST POP PUSH1 0x3 SLOAD JUMPDEST PUSH1 0x40 MLOAD SWAP1 DUP2 MSTORE PUSH1 0x20 ADD PUSH2 0x10E JUMP JUMPDEST PUSH2 0x137 PUSH2 0x2A6 JUMP JUMPDEST CALLVALUE DUP1 ISZERO PUSH2 0x18C JUMPI PUSH1 0x0 DUP1 REVERT JUMPDEST POP PUSH2 0xFA PUSH32 0x0 DUP2 JUMP JUMPDEST CALLVALUE DUP1 ISZERO PUSH2 0x1C0 JUMPI PUSH1 0x0 DUP1 REVERT JUMPDEST POP PUSH2 0xFA PUSH32 0x0 DUP2 JUMP JUMPDEST CALLVALUE DUP1 ISZERO PUSH2 0x1F4 JUMPI PUSH1 0x0 DUP1 REVERT JUMPDEST POP PUSH2 0xFA PUSH32 0x0 DUP2 JUMP JUMPDEST CALLVALUE DUP1 ISZERO PUSH2 0x228 JUMPI PUSH1 0x0 DUP1 REVERT JUMPDEST POP PUSH2 0x16A PUSH2 0x3A6 JUMP JUMPDEST CALLVALUE DUP1 ISZERO PUSH2 0x23D JUMPI PUSH1 0x0 DUP1 REVERT JUMPDEST POP PUSH32 0x0 PUSH2 0xFA JUMP JUMPDEST PUSH2 0xFA PUSH2 0x462 JUMP JUMPDEST CALLER PUSH1 0x1 PUSH1 0x1 PUSH1 0xA0 SHL SUB PUSH32 0x0 AND EQ PUSH2 0x2A1 JUMPI PUSH1 0x0 DUP1 REVERT JUMPDEST PUSH1 0x1 SSTORE JUMP JUMPDEST CALLER PUSH1 0x1 PUSH1 0x1 PUSH1 0xA0 SHL SUB PUSH32 0x0 AND EQ PUSH2 0x2DB JUMPI PUSH1 0x0 DUP1 REVERT JUMPDEST PUSH1 0x0 PUSH32 0x0 PUSH1 0x1 PUSH1 0x1 PUSH1 0xA0 SHL SUB AND SELFBALANCE PUSH1 0x40 MLOAD PUSH1 0x0 PUSH1 0x40 MLOAD DUP1 DUP4 SUB DUP2 DUP6 DUP8 GAS CALL SWAP3 POP POP POP RETURNDATASIZE DUP1 PUSH1 0x0 DUP2 EQ PUSH2 0x348 JUMPI PUSH1 0x40 MLOAD SWAP2 POP PUSH1 0x1F NOT PUSH1 0x3F RETURNDATASIZE ADD AND DUP3 ADD PUSH1 0x40 MSTORE RETURNDATASIZE DUP3 MSTORE RETURNDATASIZE PUSH1 0x0 PUSH1 0x20 DUP5 ADD RETURNDATACOPY PUSH2 0x34D JUMP JUMPDEST PUSH1 0x60 SWAP2 POP JUMPDEST POP POP SWAP1 POP DUP1 PUSH2 0x3A3 JUMPI PUSH1 0x40 MLOAD PUSH3 0x461BCD PUSH1 0xE5 SHL DUP2 MSTORE PUSH1 0x20 PUSH1 0x4 DUP3 ADD MSTORE PUSH1 0x10 PUSH1 0x24 DUP3 ADD MSTORE PUSH32 0x5769746864726177206661696C65642E00000000000000000000000000000000 PUSH1 0x44 DUP3 ADD MSTORE PUSH1 0x64 ADD JUMPDEST PUSH1 0x40 MLOAD DUP1 SWAP2 SUB SWAP1 REVERT JUMPDEST POP JUMP JUMPDEST PUSH1 0x0 DUP1 PUSH32 0x0 PUSH1 0x1 PUSH1 0x1 PUSH1 0xA0 SHL SUB AND PUSH4 0x50D25BCD PUSH1 0x40 MLOAD DUP2 PUSH4 0xFFFFFFFF AND PUSH1 0xE0 SHL DUP2 MSTORE PUSH1 0x4 ADD PUSH1 0x20 PUSH1 0x40 MLOAD DUP1 DUP4 SUB DUP2 DUP7 GAS STATICCALL ISZERO DUP1 ISZERO PUSH2 0x407 JUMPI RETURNDATASIZE PUSH1 0x0 DUP1 RETURNDATACOPY RETURNDATASIZE PUSH1 0x0 REVERT JUMPDEST POP POP POP POP PUSH1 0x40 MLOAD RETURNDATASIZE PUSH1 0x1F NOT PUSH1 0x1F DUP3 ADD AND DUP3 ADD DUP1 PUSH1 0x40 MSTORE POP DUP2 ADD SWAP1 PUSH2 0x42B SWAP2 SWAP1 PUSH2 0x875 JUMP JUMPDEST SWAP1 POP DUP1 PUSH1 0x1 SLOAD PUSH8 0xDE0B6B3A7640000 PUSH2 0x444 SWAP2 SWAP1 PUSH2 0x8A4 JUMP JUMPDEST PUSH2 0x44E SWAP2 SWAP1 PUSH2 0x8C3 JUMP JUMPDEST PUSH2 0x45C SWAP1 PUSH4 0x5F5E100 PUSH2 0x8A4 JUMP JUMPDEST SWAP2 POP POP SWAP1 JUMP JUMPDEST PUSH1 0x0 CALLER PUSH1 0x1 PUSH1 0x1 PUSH1 0xA0 SHL SUB PUSH32 0x0 AND EQ PUSH2 0x71C JUMPI PUSH1 0x0 PUSH2 0x49E PUSH2 0x3A6 JUMP JUMPDEST SWAP1 POP DUP1 CALLVALUE LT ISZERO PUSH2 0x5AF JUMPI PUSH1 0x40 MLOAD PUSH3 0x461BCD PUSH1 0xE5 SHL DUP2 MSTORE PUSH1 0x20 PUSH1 0x4 DUP3 ADD MSTORE PUSH1 0xB0 PUSH1 0x24 DUP3 ADD MSTORE PUSH32 0x4E65656420746F2073656E642061206D696E696D756D20616D6F756E74206F66 PUSH1 0x44 DUP3 ADD MSTORE PUSH32 0x206D6174696320746F20707572636861736520666C617368206C6F616E20636F PUSH1 0x64 DUP3 ADD MSTORE PUSH32 0x6E74726163742E20416E79206C6566746F7665722066756E6473206172652072 PUSH1 0x84 DUP3 ADD MSTORE PUSH32 0x657475726E65642E2056696577206765744D6174696356616C75654E65656465 PUSH1 0xA4 DUP3 ADD MSTORE PUSH32 0x64466F724E6577436F6E747261637420666F722063757272656E74206D617469 PUSH1 0xC4 DUP3 ADD MSTORE PUSH32 0x6320616D6F756E74206E65656465642E00000000000000000000000000000000 PUSH1 0xE4 DUP3 ADD MSTORE PUSH2 0x104 ADD PUSH2 0x39A JUMP JUMPDEST PUSH1 0x0 PUSH32 0x0 PUSH1 0x1 PUSH1 0x1 PUSH1 0xA0 SHL SUB AND DUP3 PUSH1 0x40 MLOAD PUSH1 0x0 PUSH1 0x40 MLOAD DUP1 DUP4 SUB DUP2 DUP6 DUP8 GAS CALL SWAP3 POP POP POP RETURNDATASIZE DUP1 PUSH1 0x0 DUP2 EQ PUSH2 0x61C JUMPI PUSH1 0x40 MLOAD SWAP2 POP PUSH1 0x1F NOT PUSH1 0x3F RETURNDATASIZE ADD AND DUP3 ADD PUSH1 0x40 MSTORE RETURNDATASIZE DUP3 MSTORE RETURNDATASIZE PUSH1 0x0 PUSH1 0x20 DUP5 ADD RETURNDATACOPY PUSH2 0x621 JUMP JUMPDEST PUSH1 0x60 SWAP2 POP JUMPDEST POP POP SWAP1 POP DUP1 PUSH2 0x672 JUMPI PUSH1 0x40 MLOAD PUSH3 0x461BCD PUSH1 0xE5 SHL DUP2 MSTORE PUSH1 0x20 PUSH1 0x4 DUP3 ADD MSTORE PUSH1 0x19 PUSH1 0x24 DUP3 ADD MSTORE PUSH32 0x5472616E7366657220746F206F776E6572206661696C65642E00000000000000 PUSH1 0x44 DUP3 ADD MSTORE PUSH1 0x64 ADD PUSH2 0x39A JUMP JUMPDEST SELFBALANCE ISZERO PUSH2 0x719 JUMPI PUSH1 0x0 CALLER PUSH2 0x685 DUP5 CALLVALUE PUSH2 0x8E5 JUMP JUMPDEST PUSH1 0x40 MLOAD PUSH1 0x0 DUP2 DUP2 DUP2 DUP6 DUP8 GAS CALL SWAP3 POP POP POP RETURNDATASIZE DUP1 PUSH1 0x0 DUP2 EQ PUSH2 0x6C1 JUMPI PUSH1 0x40 MLOAD SWAP2 POP PUSH1 0x1F NOT PUSH1 0x3F RETURNDATASIZE ADD AND DUP3 ADD PUSH1 0x40 MSTORE RETURNDATASIZE DUP3 MSTORE RETURNDATASIZE PUSH1 0x0 PUSH1 0x20 DUP5 ADD RETURNDATACOPY PUSH2 0x6C6 JUMP JUMPDEST PUSH1 0x60 SWAP2 POP JUMPDEST POP POP SWAP1 POP DUP1 PUSH2 0x717 JUMPI PUSH1 0x40 MLOAD PUSH3 0x461BCD PUSH1 0xE5 SHL DUP2 MSTORE PUSH1 0x20 PUSH1 0x4 DUP3 ADD MSTORE PUSH1 0x16 PUSH1 0x24 DUP3 ADD MSTORE PUSH32 0x526566756E6420746F2075736572206661696C65642E00000000000000000000 PUSH1 0x44 DUP3 ADD MSTORE PUSH1 0x64 ADD PUSH2 0x39A JUMP JUMPDEST POP JUMPDEST POP POP JUMPDEST PUSH1 0x0 DUP1 SLOAD PUSH1 0x40 MLOAD PUSH1 0x1 PUSH1 0x1 PUSH1 0xA0 SHL SUB SWAP1 SWAP2 AND SWAP1 CALLER SWAP1 PUSH32 0x0 SWAP1 PUSH32 0x0 SWAP1 PUSH2 0x77E SWAP1 PUSH2 0x81F JUMP JUMPDEST PUSH1 0x1 PUSH1 0x1 PUSH1 0xA0 SHL SUB SWAP5 DUP6 AND DUP2 MSTORE SWAP3 DUP5 AND PUSH1 0x20 DUP5 ADD MSTORE SWAP1 DUP4 AND PUSH1 0x40 DUP4 ADD MSTORE SWAP1 SWAP2 AND PUSH1 0x60 DUP3 ADD MSTORE PUSH1 0x80 ADD PUSH1 0x40 MLOAD DUP1 SWAP2 SUB SWAP1 PUSH1 0x0 CREATE DUP1 ISZERO DUP1 ISZERO PUSH2 0x7C2 JUMPI RETURNDATASIZE PUSH1 0x0 DUP1 RETURNDATACOPY RETURNDATASIZE PUSH1 0x0 REVERT JUMPDEST POP CALLER PUSH1 0x0 SWAP1 DUP2 MSTORE PUSH1 0x2 PUSH1 0x20 MSTORE PUSH1 0x40 DUP2 KECCAK256 DUP1 SLOAD PUSH32 0xFFFFFFFFFFFFFFFFFFFFFFFF0000000000000000000000000000000000000000 AND PUSH1 0x1 PUSH1 0x1 PUSH1 0xA0 SHL SUB DUP5 AND OR SWAP1 SSTORE PUSH1 0x3 DUP1 SLOAD SWAP3 SWAP4 POP SWAP1 PUSH2 0x814 DUP4 PUSH2 0x8FC JUMP JUMPDEST SWAP1 SWAP2 SSTORE POP SWAP1 SWAP3 SWAP2 POP POP JUMP JUMPDEST PUSH2 0x14AC DUP1 PUSH2 0x918 DUP4 CODECOPY ADD SWAP1 JUMP JUMPDEST PUSH1 0x0 PUSH1 0x20 DUP3 DUP5 SUB SLT ISZERO PUSH2 0x83E JUMPI PUSH1 0x0 DUP1 REVERT JUMPDEST DUP2 CALLDATALOAD PUSH1 0x1 PUSH1 0x1 PUSH1 0xA0 SHL SUB DUP2 AND DUP2 EQ PUSH2 0x855 JUMPI PUSH1 0x0 DUP1 REVERT JUMPDEST SWAP4 SWAP3 POP POP POP JUMP JUMPDEST PUSH1 0x0 PUSH1 0x20 DUP3 DUP5 SUB SLT ISZERO PUSH2 0x86E JUMPI PUSH1 0x0 DUP1 REVERT JUMPDEST POP CALLDATALOAD SWAP2 SWAP1 POP JUMP JUMPDEST PUSH1 0x0 PUSH1 0x20 DUP3 DUP5 SUB SLT ISZERO PUSH2 0x887 JUMPI PUSH1 0x0 DUP1 REVERT JUMPDEST POP MLOAD SWAP2 SWAP1 POP JUMP JUMPDEST PUSH4 0x4E487B71 PUSH1 0xE0 SHL PUSH1 0x0 MSTORE PUSH1 0x11 PUSH1 0x4 MSTORE PUSH1 0x24 PUSH1 0x0 REVERT JUMPDEST PUSH1 0x0 DUP2 PUSH1 0x0 NOT DIV DUP4 GT DUP3 ISZERO ISZERO AND ISZERO PUSH2 0x8BE JUMPI PUSH2 0x8BE PUSH2 0x88E JUMP JUMPDEST POP MUL SWAP1 JUMP JUMPDEST PUSH1 0x0 DUP3 PUSH2 0x8E0 JUMPI PUSH4 0x4E487B71 PUSH1 0xE0 SHL PUSH1 0x0 MSTORE PUSH1 0x12 PUSH1 0x4 MSTORE PUSH1 0x24 PUSH1 0x0 REVERT JUMPDEST POP DIV SWAP1 JUMP JUMPDEST PUSH1 0x0 DUP3 DUP3 LT ISZERO PUSH2 0x8F7 JUMPI PUSH2 0x8F7 PUSH2 0x88E JUMP JUMPDEST POP SUB SWAP1 JUMP JUMPDEST PUSH1 0x0 PUSH1 0x0 NOT DUP3 EQ ISZERO PUSH2 0x910 JUMPI PUSH2 0x910 PUSH2 0x88E JUMP JUMPDEST POP PUSH1 0x1 ADD SWAP1 JUMP INVALID PUSH2 0x100 PUSH1 0x40 MSTORE CALLVALUE DUP1 ISZERO PUSH3 0x12 JUMPI PUSH1 0x0 DUP1 REVERT JUMPDEST POP PUSH1 0x40 MLOAD PUSH3 0x14AC CODESIZE SUB DUP1 PUSH3 0x14AC DUP4 CODECOPY DUP2 ADD PUSH1 0x40 DUP2 SWAP1 MSTORE PUSH3 0x35 SWAP2 PUSH3 0x106 JUMP JUMPDEST DUP4 DUP1 PUSH1 0x1 PUSH1 0x1 PUSH1 0xA0 SHL SUB AND PUSH1 0x80 DUP2 PUSH1 0x1 PUSH1 0x1 PUSH1 0xA0 SHL SUB AND DUP2 MSTORE POP POP DUP1 PUSH1 0x1 PUSH1 0x1 PUSH1 0xA0 SHL SUB AND PUSH4 0x26B1D5F PUSH1 0x40 MLOAD DUP2 PUSH4 0xFFFFFFFF AND PUSH1 0xE0 SHL DUP2 MSTORE PUSH1 0x4 ADD PUSH1 0x20 PUSH1 0x40 MLOAD DUP1 DUP4 SUB DUP2 DUP7 GAS STATICCALL ISZERO DUP1 ISZERO PUSH3 0x8F JUMPI RETURNDATASIZE PUSH1 0x0 DUP1 RETURNDATACOPY RETURNDATASIZE PUSH1 0x0 REVERT JUMPDEST POP POP POP POP PUSH1 0x40 MLOAD RETURNDATASIZE PUSH1 0x1F NOT PUSH1 0x1F DUP3 ADD AND DUP3 ADD DUP1 PUSH1 0x40 MSTORE POP DUP2 ADD SWAP1 PUSH3 0xB5 SWAP2 SWAP1 PUSH3 0x16E JUMP JUMPDEST PUSH1 0x1 PUSH1 0x1 PUSH1 0xA0 SHL SUB SWAP1 DUP2 AND PUSH1 0xA0 MSTORE PUSH1 0x0 DUP1 SLOAD PUSH1 0x1 PUSH1 0x1 PUSH1 0xA0 SHL SUB NOT AND SWAP6 DUP3 AND SWAP6 SWAP1 SWAP6 OR SWAP1 SWAP5 SSTORE POP SWAP1 DUP3 AND PUSH1 0xC0 MSTORE AND PUSH1 0xE0 MSTORE POP PUSH3 0x195 JUMP JUMPDEST PUSH1 0x1 PUSH1 0x1 PUSH1 0xA0 SHL SUB DUP2 AND DUP2 EQ PUSH3 0x103 JUMPI PUSH1 0x0 DUP1 REVERT JUMPDEST POP JUMP JUMPDEST PUSH1 0x0 DUP1 PUSH1 0x0 DUP1 PUSH1 0x80 DUP6 DUP8 SUB SLT ISZERO PUSH3 0x11D JUMPI PUSH1 0x0 DUP1 REVERT JUMPDEST DUP5 MLOAD PUSH3 0x12A DUP2 PUSH3 0xED JUMP JUMPDEST PUSH1 0x20 DUP7 ADD MLOAD SWAP1 SWAP5 POP PUSH3 0x13D DUP2 PUSH3 0xED JUMP JUMPDEST PUSH1 0x40 DUP7 ADD MLOAD SWAP1 SWAP4 POP PUSH3 0x150 DUP2 PUSH3 0xED JUMP JUMPDEST PUSH1 0x60 DUP7 ADD MLOAD SWAP1 SWAP3 POP PUSH3 0x163 DUP2 PUSH3 0xED JUMP JUMPDEST SWAP4 SWAP7 SWAP3 SWAP6 POP SWAP1 SWAP4 POP POP JUMP JUMPDEST PUSH1 0x0 PUSH1 0x20 DUP3 DUP5 SUB SLT ISZERO PUSH3 0x181 JUMPI PUSH1 0x0 DUP1 REVERT JUMPDEST DUP2 MLOAD PUSH3 0x18E DUP2 PUSH3 0xED JUMP JUMPDEST SWAP4 SWAP3 POP POP POP JUMP JUMPDEST PUSH1 0x80 MLOAD PUSH1 0xA0 MLOAD PUSH1 0xC0 MLOAD PUSH1 0xE0 MLOAD PUSH2 0x12C2 PUSH3 0x1EA PUSH1 0x0 CODECOPY PUSH1 0x0 DUP2 DUP2 PUSH2 0xC87 ADD MSTORE PUSH2 0xCDC ADD MSTORE PUSH1 0x0 DUP2 DUP2 PUSH2 0xB05 ADD MSTORE PUSH2 0xBEA ADD MSTORE PUSH1 0x0 DUP2 DUP2 PUSH2 0x11B ADD MSTORE DUP2 DUP2 PUSH2 0x43E ADD MSTORE PUSH2 0x60D ADD MSTORE PUSH1 0x0 PUSH1 0x92 ADD MSTORE PUSH2 0x12C2 PUSH1 0x0 RETURN INVALID PUSH1 0x80 PUSH1 0x40 MSTORE PUSH1 0x4 CALLDATASIZE LT PUSH2 0x7B JUMPI PUSH1 0x0 CALLDATALOAD PUSH1 0xE0 SHR DUP1 PUSH4 0x893D20E8 GT PUSH2 0x4E JUMPI DUP1 PUSH4 0x893D20E8 EQ PUSH2 0x13D JUMPI DUP1 PUSH4 0x920F5C84 EQ PUSH2 0x15B JUMPI DUP1 PUSH4 0xC2D22207 EQ PUSH2 0x18B JUMPI DUP1 PUSH4 0xF2FDE38B EQ PUSH2 0x1AB JUMPI PUSH1 0x0 DUP1 REVERT JUMPDEST DUP1 PUSH4 0x542975C EQ PUSH2 0x80 JUMPI DUP1 PUSH4 0x3BDEBBE1 EQ PUSH2 0xD1 JUMPI DUP1 PUSH4 0x3CCFD60B EQ PUSH2 0xFF JUMPI DUP1 PUSH4 0x7535D246 EQ PUSH2 0x109 JUMPI JUMPDEST PUSH1 0x0 DUP1 REVERT JUMPDEST CALLVALUE DUP1 ISZERO PUSH2 0x8C JUMPI PUSH1 0x0 DUP1 REVERT JUMPDEST POP PUSH2 0xB4 PUSH32 0x0 DUP2 JUMP JUMPDEST PUSH1 0x40 MLOAD PUSH1 0x1 PUSH1 0x1 PUSH1 0xA0 SHL SUB SWAP1 SWAP2 AND DUP2 MSTORE PUSH1 0x20 ADD JUMPDEST PUSH1 0x40 MLOAD DUP1 SWAP2 SUB SWAP1 RETURN JUMPDEST CALLVALUE DUP1 ISZERO PUSH2 0xDD JUMPI PUSH1 0x0 DUP1 REVERT JUMPDEST POP PUSH2 0xF1 PUSH2 0xEC CALLDATASIZE PUSH1 0x4 PUSH2 0xD7E JUMP JUMPDEST PUSH2 0x1CB JUMP JUMPDEST PUSH1 0x40 MLOAD SWAP1 DUP2 MSTORE PUSH1 0x20 ADD PUSH2 0xC8 JUMP JUMPDEST PUSH2 0x107 PUSH2 0x2FE JUMP JUMPDEST STOP JUMPDEST CALLVALUE DUP1 ISZERO PUSH2 0x115 JUMPI PUSH1 0x0 DUP1 REVERT JUMPDEST POP PUSH2 0xB4 PUSH32 0x0 DUP2 JUMP JUMPDEST CALLVALUE DUP1 ISZERO PUSH2 0x149 JUMPI PUSH1 0x0 DUP1 REVERT JUMPDEST POP PUSH1 0x0 SLOAD PUSH1 0x1 PUSH1 0x1 PUSH1 0xA0 SHL SUB AND PUSH2 0xB4 JUMP JUMPDEST CALLVALUE DUP1 ISZERO PUSH2 0x167 JUMPI PUSH1 0x0 DUP1 REVERT JUMPDEST POP PUSH2 0x17B PUSH2 0x176 CALLDATASIZE PUSH1 0x4 PUSH2 0xDEE JUMP JUMPDEST PUSH2 0x3BB JUMP JUMPDEST PUSH1 0x40 MLOAD SWAP1 ISZERO ISZERO DUP2 MSTORE PUSH1 0x20 ADD PUSH2 0xC8 JUMP JUMPDEST CALLVALUE DUP1 ISZERO PUSH2 0x197 JUMPI PUSH1 0x0 DUP1 REVERT JUMPDEST POP PUSH2 0x107 PUSH2 0x1A6 CALLDATASIZE PUSH1 0x4 PUSH2 0xF17 JUMP JUMPDEST PUSH2 0x487 JUMP JUMPDEST CALLVALUE DUP1 ISZERO PUSH2 0x1B7 JUMPI PUSH1 0x0 DUP1 REVERT JUMPDEST POP PUSH2 0x107 PUSH2 0x1C6 CALLDATASIZE PUSH1 0x4 PUSH2 0xD7E JUMP JUMPDEST PUSH2 0x690 JUMP JUMPDEST PUSH1 0x0 DUP1 SLOAD PUSH1 0x1 PUSH1 0x1 PUSH1 0xA0 SHL SUB AND CALLER EQ PUSH2 0x1E3 JUMPI PUSH1 0x0 DUP1 REVERT JUMPDEST PUSH1 0x40 MLOAD PUSH32 0x70A0823100000000000000000000000000000000000000000000000000000000 DUP2 MSTORE ADDRESS PUSH1 0x4 DUP3 ADD MSTORE PUSH1 0x1 PUSH1 0x1 PUSH1 0xA0 SHL SUB DUP4 AND SWAP1 PUSH4 0x70A08231 SWAP1 PUSH1 0x24 ADD PUSH1 0x20 PUSH1 0x40 MLOAD DUP1 DUP4 SUB DUP2 DUP7 GAS STATICCALL ISZERO DUP1 ISZERO PUSH2 0x240 JUMPI RETURNDATASIZE PUSH1 0x0 DUP1 RETURNDATACOPY RETURNDATASIZE PUSH1 0x0 REVERT JUMPDEST POP POP POP POP PUSH1 0x40 MLOAD RETURNDATASIZE PUSH1 0x1F NOT PUSH1 0x1F DUP3 ADD AND DUP3 ADD DUP1 PUSH1 0x40 MSTORE POP DUP2 ADD SWAP1 PUSH2 0x264 SWAP2 SWAP1 PUSH2 0xF8A JUMP JUMPDEST SWAP1 POP PUSH1 0x0 DUP2 GT PUSH2 0x2E1 JUMPI PUSH1 0x40 MLOAD PUSH3 0x461BCD PUSH1 0xE5 SHL DUP2 MSTORE PUSH1 0x20 PUSH1 0x4 DUP3 ADD MSTORE PUSH1 0x30 PUSH1 0x24 DUP3 ADD MSTORE PUSH32 0x436F6E747261637420646F6573206E6F742068617665207468652070726F7669 PUSH1 0x44 DUP3 ADD MSTORE PUSH32 0x64656420455243323020746F6B656E2E00000000000000000000000000000000 PUSH1 0x64 DUP3 ADD MSTORE PUSH1 0x84 ADD JUMPDEST PUSH1 0x40 MLOAD DUP1 SWAP2 SUB SWAP1 REVERT JUMPDEST PUSH1 0x0 SLOAD PUSH2 0x2F9 SWAP1 DUP4 SWAP1 PUSH1 0x1 PUSH1 0x1 PUSH1 0xA0 SHL SUB AND DUP4 PUSH2 0x6E1 JUMP JUMPDEST SWAP2 SWAP1 POP JUMP JUMPDEST PUSH1 0x0 SLOAD PUSH1 0x1 PUSH1 0x1 PUSH1 0xA0 SHL SUB AND CALLER EQ PUSH2 0x315 JUMPI PUSH1 0x0 DUP1 REVERT JUMPDEST PUSH1 0x0 DUP1 SLOAD PUSH1 0x40 MLOAD PUSH1 0x1 PUSH1 0x1 PUSH1 0xA0 SHL SUB SWAP1 SWAP2 AND SWAP1 SELFBALANCE SWAP1 DUP4 DUP2 DUP2 DUP2 DUP6 DUP8 GAS CALL SWAP3 POP POP POP RETURNDATASIZE DUP1 PUSH1 0x0 DUP2 EQ PUSH2 0x362 JUMPI PUSH1 0x40 MLOAD SWAP2 POP PUSH1 0x1F NOT PUSH1 0x3F RETURNDATASIZE ADD AND DUP3 ADD PUSH1 0x40 MSTORE RETURNDATASIZE DUP3 MSTORE RETURNDATASIZE PUSH1 0x0 PUSH1 0x20 DUP5 ADD RETURNDATACOPY PUSH2 0x367 JUMP JUMPDEST PUSH1 0x60 SWAP2 POP JUMPDEST POP POP SWAP1 POP DUP1 PUSH2 0x3B8 JUMPI PUSH1 0x40 MLOAD PUSH3 0x461BCD PUSH1 0xE5 SHL DUP2 MSTORE PUSH1 0x20 PUSH1 0x4 DUP3 ADD MSTORE PUSH1 0x10 PUSH1 0x24 DUP3 ADD MSTORE PUSH32 0x5769746864726177206661696C65642E00000000000000000000000000000000 PUSH1 0x44 DUP3 ADD MSTORE PUSH1 0x64 ADD PUSH2 0x2D8 JUMP JUMPDEST POP JUMP JUMPDEST PUSH1 0x0 PUSH2 0x3C7 DUP4 DUP4 PUSH2 0x82A JUMP JUMPDEST PUSH1 0x0 JUMPDEST DUP10 DUP2 LT ISZERO PUSH2 0x476 JUMPI PUSH1 0x0 DUP8 DUP8 DUP4 DUP2 DUP2 LT PUSH2 0x3E6 JUMPI PUSH2 0x3E6 PUSH2 0xFA3 JUMP JUMPDEST SWAP1 POP PUSH1 0x20 MUL ADD CALLDATALOAD DUP11 DUP11 DUP5 DUP2 DUP2 LT PUSH2 0x3FF JUMPI PUSH2 0x3FF PUSH2 0xFA3 JUMP JUMPDEST SWAP1 POP PUSH1 0x20 MUL ADD CALLDATALOAD PUSH2 0x410 SWAP2 SWAP1 PUSH2 0xFCF JUMP JUMPDEST SWAP1 POP PUSH2 0x463 DUP13 DUP13 DUP5 DUP2 DUP2 LT PUSH2 0x427 JUMPI PUSH2 0x427 PUSH2 0xFA3 JUMP JUMPDEST SWAP1 POP PUSH1 0x20 MUL ADD PUSH1 0x20 DUP2 ADD SWAP1 PUSH2 0x43C SWAP2 SWAP1 PUSH2 0xD7E JUMP JUMPDEST PUSH32 0x0 DUP4 PUSH2 0x9BB JUMP JUMPDEST POP DUP1 PUSH2 0x46E DUP2 PUSH2 0xFE7 JUMP JUMPDEST SWAP2 POP POP PUSH2 0x3CA JUMP JUMPDEST POP PUSH1 0x1 SWAP11 SWAP10 POP POP POP POP POP POP POP POP POP POP JUMP JUMPDEST PUSH1 0x0 SLOAD PUSH1 0x1 PUSH1 0x1 PUSH1 0xA0 SHL SUB AND CALLER EQ PUSH2 0x49E JUMPI PUSH1 0x0 DUP1 REVERT JUMPDEST PUSH1 0x40 DUP1 MLOAD PUSH1 0x1 DUP1 DUP3 MSTORE DUP2 DUP4 ADD SWAP1 SWAP3 MSTORE ADDRESS SWAP2 PUSH1 0x0 SWAP2 SWAP1 PUSH1 0x20 DUP1 DUP4 ADD SWAP1 DUP1 CALLDATASIZE DUP4 CALLDATACOPY ADD SWAP1 POP POP SWAP1 POP DUP9 DUP2 PUSH1 0x0 DUP2 MLOAD DUP2 LT PUSH2 0x4D7 JUMPI PUSH2 0x4D7 PUSH2 0xFA3 JUMP JUMPDEST PUSH1 0x1 PUSH1 0x1 PUSH1 0xA0 SHL SUB SWAP3 SWAP1 SWAP3 AND PUSH1 0x20 SWAP3 DUP4 MUL SWAP2 SWAP1 SWAP2 ADD SWAP1 SWAP2 ADD MSTORE PUSH1 0x40 DUP1 MLOAD PUSH1 0x1 DUP1 DUP3 MSTORE DUP2 DUP4 ADD SWAP1 SWAP3 MSTORE PUSH1 0x0 SWAP2 DUP2 PUSH1 0x20 ADD PUSH1 0x20 DUP3 MUL DUP1 CALLDATASIZE DUP4 CALLDATACOPY ADD SWAP1 POP POP SWAP1 POP DUP6 DUP2 PUSH1 0x0 DUP2 MLOAD DUP2 LT PUSH2 0x528 JUMPI PUSH2 0x528 PUSH2 0xFA3 JUMP JUMPDEST PUSH1 0x20 SWAP1 DUP2 MUL SWAP2 SWAP1 SWAP2 ADD ADD MSTORE PUSH1 0x40 DUP1 MLOAD PUSH1 0x1 DUP1 DUP3 MSTORE DUP2 DUP4 ADD SWAP1 SWAP3 MSTORE PUSH1 0x0 SWAP2 DUP2 PUSH1 0x20 ADD PUSH1 0x20 DUP3 MUL DUP1 CALLDATASIZE DUP4 CALLDATACOPY ADD SWAP1 POP POP SWAP1 POP PUSH1 0x0 DUP2 PUSH1 0x0 DUP2 MLOAD DUP2 LT PUSH2 0x56C JUMPI PUSH2 0x56C PUSH2 0xFA3 JUMP JUMPDEST PUSH1 0x20 SWAP1 DUP2 MUL SWAP2 SWAP1 SWAP2 ADD DUP2 ADD SWAP2 SWAP1 SWAP2 MSTORE PUSH1 0x40 DUP1 MLOAD PUSH1 0x1 PUSH1 0x1 PUSH1 0xA0 SHL SUB DUP1 DUP16 AND SWAP4 DUP3 ADD SWAP4 SWAP1 SWAP4 MSTORE SWAP2 DUP13 AND SWAP1 DUP3 ADD MSTORE PUSH1 0xFF DUP11 AND PUSH1 0x60 DUP3 ADD MSTORE PUSH3 0xFFFFFF DUP10 AND PUSH1 0x80 DUP3 ADD MSTORE PUSH1 0xA0 DUP2 ADD DUP9 SWAP1 MSTORE PUSH1 0xC0 DUP2 ADD DUP8 SWAP1 MSTORE PUSH1 0xE0 DUP2 ADD DUP7 SWAP1 MSTORE ADDRESS SWAP1 PUSH1 0x0 SWAP1 PUSH2 0x100 ADD PUSH1 0x40 DUP1 MLOAD PUSH1 0x1F NOT DUP2 DUP5 SUB ADD DUP2 MSTORE SWAP1 DUP3 SWAP1 MSTORE PUSH32 0xAB9C4B5D00000000000000000000000000000000000000000000000000000000 DUP3 MSTORE SWAP2 POP PUSH1 0x0 SWAP1 PUSH1 0x1 PUSH1 0x1 PUSH1 0xA0 SHL SUB PUSH32 0x0 AND SWAP1 PUSH4 0xAB9C4B5D SWAP1 PUSH2 0x64E SWAP1 DUP11 SWAP1 DUP11 SWAP1 DUP11 SWAP1 DUP11 SWAP1 DUP11 SWAP1 DUP11 SWAP1 DUP11 SWAP1 PUSH1 0x4 ADD PUSH2 0x10BC JUMP JUMPDEST PUSH1 0x0 PUSH1 0x40 MLOAD DUP1 DUP4 SUB DUP2 PUSH1 0x0 DUP8 DUP1 EXTCODESIZE ISZERO DUP1 ISZERO PUSH2 0x668 JUMPI PUSH1 0x0 DUP1 REVERT JUMPDEST POP GAS CALL ISZERO DUP1 ISZERO PUSH2 0x67C JUMPI RETURNDATASIZE PUSH1 0x0 DUP1 RETURNDATACOPY RETURNDATASIZE PUSH1 0x0 REVERT JUMPDEST POP POP POP POP POP POP POP POP POP POP POP POP POP POP POP POP POP POP JUMP JUMPDEST PUSH1 0x0 SLOAD PUSH1 0x1 PUSH1 0x1 PUSH1 0xA0 SHL SUB AND CALLER EQ PUSH2 0x6A7 JUMPI PUSH1 0x0 DUP1 REVERT JUMPDEST PUSH1 0x0 DUP1 SLOAD PUSH32 0xFFFFFFFFFFFFFFFFFFFFFFFF0000000000000000000000000000000000000000 AND PUSH1 0x1 PUSH1 0x1 PUSH1 0xA0 SHL SUB SWAP3 SWAP1 SWAP3 AND SWAP2 SWAP1 SWAP2 OR SWAP1 SSTORE JUMP JUMPDEST PUSH1 0x40 DUP1 MLOAD PUSH1 0x1 PUSH1 0x1 PUSH1 0xA0 SHL SUB DUP5 DUP2 AND PUSH1 0x24 DUP4 ADD MSTORE PUSH1 0x44 DUP1 DUP4 ADD DUP6 SWAP1 MSTORE DUP4 MLOAD DUP1 DUP5 SUB SWAP1 SWAP2 ADD DUP2 MSTORE PUSH1 0x64 SWAP1 SWAP3 ADD DUP4 MSTORE PUSH1 0x20 DUP3 ADD DUP1 MLOAD PUSH28 0xFFFFFFFFFFFFFFFFFFFFFFFFFFFFFFFFFFFFFFFFFFFFFFFFFFFFFFFF AND PUSH32 0xA9059CBB00000000000000000000000000000000000000000000000000000000 OR SWAP1 MSTORE SWAP2 MLOAD PUSH1 0x0 SWAP3 DUP4 SWAP3 SWAP1 DUP8 AND SWAP2 PUSH2 0x76B SWAP2 SWAP1 PUSH2 0x1154 JUMP JUMPDEST PUSH1 0x0 PUSH1 0x40 MLOAD DUP1 DUP4 SUB DUP2 PUSH1 0x0 DUP7 GAS CALL SWAP2 POP POP RETURNDATASIZE DUP1 PUSH1 0x0 DUP2 EQ PUSH2 0x7A8 JUMPI PUSH1 0x40 MLOAD SWAP2 POP PUSH1 0x1F NOT PUSH1 0x3F RETURNDATASIZE ADD AND DUP3 ADD PUSH1 0x40 MSTORE RETURNDATASIZE DUP3 MSTORE RETURNDATASIZE PUSH1 0x0 PUSH1 0x20 DUP5 ADD RETURNDATACOPY PUSH2 0x7AD JUMP JUMPDEST PUSH1 0x60 SWAP2 POP JUMPDEST POP SWAP2 POP SWAP2 POP DUP2 DUP1 ISZERO PUSH2 0x7D7 JUMPI POP DUP1 MLOAD ISZERO DUP1 PUSH2 0x7D7 JUMPI POP DUP1 DUP1 PUSH1 0x20 ADD SWAP1 MLOAD DUP2 ADD SWAP1 PUSH2 0x7D7 SWAP2 SWAP1 PUSH2 0x1170 JUMP JUMPDEST PUSH2 0x823 JUMPI PUSH1 0x40 MLOAD PUSH3 0x461BCD PUSH1 0xE5 SHL DUP2 MSTORE PUSH1 0x20 PUSH1 0x4 DUP3 ADD MSTORE PUSH1 0x2 PUSH1 0x24 DUP3 ADD MSTORE PUSH32 0x5354000000000000000000000000000000000000000000000000000000000000 PUSH1 0x44 DUP3 ADD MSTORE PUSH1 0x64 ADD PUSH2 0x2D8 JUMP JUMPDEST POP POP POP POP POP JUMP JUMPDEST PUSH1 0x0 DUP1 DUP1 DUP1 DUP1 DUP1 DUP1 PUSH2 0x83E DUP9 DUP11 ADD DUP11 PUSH2 0xF17 JUMP JUMPDEST PUSH1 0x40 DUP1 MLOAD PUSH1 0x2 DUP1 DUP3 MSTORE PUSH1 0x60 DUP3 ADD DUP4 MSTORE SWAP9 SWAP16 POP SWAP7 SWAP14 POP SWAP5 SWAP12 POP SWAP3 SWAP10 POP SWAP1 SWAP8 POP SWAP6 POP SWAP4 POP PUSH1 0x0 SWAP3 SWAP1 PUSH1 0x20 DUP4 ADD SWAP1 DUP1 CALLDATASIZE DUP4 CALLDATACOPY ADD SWAP1 POP POP SWAP1 POP DUP6 PUSH1 0xFF AND PUSH1 0x1 EQ ISZERO PUSH2 0x90C JUMPI PUSH1 0x0 PUSH2 0x88E DUP6 DUP6 DUP12 DUP12 DUP11 PUSH2 0xAFD JUMP JUMPDEST SWAP1 POP DUP8 DUP3 PUSH1 0x0 DUP2 MLOAD DUP2 LT PUSH2 0x8A4 JUMPI PUSH2 0x8A4 PUSH2 0xFA3 JUMP JUMPDEST PUSH1 0x20 MUL PUSH1 0x20 ADD ADD SWAP1 PUSH1 0x1 PUSH1 0x1 PUSH1 0xA0 SHL SUB AND SWAP1 DUP2 PUSH1 0x1 PUSH1 0x1 PUSH1 0xA0 SHL SUB AND DUP2 MSTORE POP POP DUP9 DUP3 PUSH1 0x1 DUP2 MLOAD DUP2 LT PUSH2 0x8D8 JUMPI PUSH2 0x8D8 PUSH2 0xFA3 JUMP JUMPDEST PUSH1 0x20 MUL PUSH1 0x20 ADD ADD SWAP1 PUSH1 0x1 PUSH1 0x1 PUSH1 0xA0 SHL SUB AND SWAP1 DUP2 PUSH1 0x1 PUSH1 0x1 PUSH1 0xA0 SHL SUB AND DUP2 MSTORE POP POP PUSH2 0x905 DUP2 PUSH1 0x0 DUP5 DUP7 PUSH2 0xC65 JUMP JUMPDEST POP POP PUSH2 0x9AF JUMP JUMPDEST DUP8 DUP2 PUSH1 0x0 DUP2 MLOAD DUP2 LT PUSH2 0x920 JUMPI PUSH2 0x920 PUSH2 0xFA3 JUMP JUMPDEST PUSH1 0x20 MUL PUSH1 0x20 ADD ADD SWAP1 PUSH1 0x1 PUSH1 0x1 PUSH1 0xA0 SHL SUB AND SWAP1 DUP2 PUSH1 0x1 PUSH1 0x1 PUSH1 0xA0 SHL SUB AND DUP2 MSTORE POP POP DUP7 DUP2 PUSH1 0x1 DUP2 MLOAD DUP2 LT PUSH2 0x954 JUMPI PUSH2 0x954 PUSH2 0xFA3 JUMP JUMPDEST PUSH1 0x20 MUL PUSH1 0x20 ADD ADD SWAP1 PUSH1 0x1 PUSH1 0x1 PUSH1 0xA0 SHL SUB AND SWAP1 DUP2 PUSH1 0x1 PUSH1 0x1 PUSH1 0xA0 SHL SUB AND DUP2 MSTORE POP POP PUSH1 0x0 PUSH2 0x982 DUP6 DUP6 DUP5 DUP7 PUSH2 0xC65 JUMP JUMPDEST SWAP1 POP PUSH2 0x9AC DUP2 PUSH1 0x1 DUP2 MLOAD DUP2 LT PUSH2 0x99A JUMPI PUSH2 0x99A PUSH2 0xFA3 JUMP JUMPDEST PUSH1 0x20 MUL PUSH1 0x20 ADD ADD MLOAD PUSH1 0x0 DUP11 DUP13 DUP11 PUSH2 0xAFD JUMP JUMPDEST POP POP JUMPDEST POP POP POP POP POP POP POP POP POP POP JUMP JUMPDEST PUSH1 0x40 DUP1 MLOAD PUSH1 0x1 PUSH1 0x1 PUSH1 0xA0 SHL SUB DUP5 DUP2 AND PUSH1 0x24 DUP4 ADD MSTORE PUSH1 0x44 DUP1 DUP4 ADD DUP6 SWAP1 MSTORE DUP4 MLOAD DUP1 DUP5 SUB SWAP1 SWAP2 ADD DUP2 MSTORE PUSH1 0x64 SWAP1 SWAP3 ADD DUP4 MSTORE PUSH1 0x20 DUP3 ADD DUP1 MLOAD PUSH28 0xFFFFFFFFFFFFFFFFFFFFFFFFFFFFFFFFFFFFFFFFFFFFFFFFFFFFFFFF AND PUSH32 0x95EA7B300000000000000000000000000000000000000000000000000000000 OR SWAP1 MSTORE SWAP2 MLOAD PUSH1 0x0 SWAP3 DUP4 SWAP3 SWAP1 DUP8 AND SWAP2 PUSH2 0xA45 SWAP2 SWAP1 PUSH2 0x1154 JUMP JUMPDEST PUSH1 0x0 PUSH1 0x40 MLOAD DUP1 DUP4 SUB DUP2 PUSH1 0x0 DUP7 GAS CALL SWAP2 POP POP RETURNDATASIZE DUP1 PUSH1 0x0 DUP2 EQ PUSH2 0xA82 JUMPI PUSH1 0x40 MLOAD SWAP2 POP PUSH1 0x1F NOT PUSH1 0x3F RETURNDATASIZE ADD AND DUP3 ADD PUSH1 0x40 MSTORE RETURNDATASIZE DUP3 MSTORE RETURNDATASIZE PUSH1 0x0 PUSH1 0x20 DUP5 ADD RETURNDATACOPY PUSH2 0xA87 JUMP JUMPDEST PUSH1 0x60 SWAP2 POP JUMPDEST POP SWAP2 POP SWAP2 POP DUP2 DUP1 ISZERO PUSH2 0xAB1 JUMPI POP DUP1 MLOAD ISZERO DUP1 PUSH2 0xAB1 JUMPI POP DUP1 DUP1 PUSH1 0x20 ADD SWAP1 MLOAD DUP2 ADD SWAP1 PUSH2 0xAB1 SWAP2 SWAP1 PUSH2 0x1170 JUMP JUMPDEST PUSH2 0x823 JUMPI PUSH1 0x40 MLOAD PUSH3 0x461BCD PUSH1 0xE5 SHL DUP2 MSTORE PUSH1 0x20 PUSH1 0x4 DUP3 ADD MSTORE PUSH1 0x2 PUSH1 0x24 DUP3 ADD MSTORE PUSH32 0x5341000000000000000000000000000000000000000000000000000000000000 PUSH1 0x44 DUP3 ADD MSTORE PUSH1 0x64 ADD PUSH2 0x2D8 JUMP JUMPDEST PUSH1 0x0 PUSH2 0xB2A DUP5 PUSH32 0x0 DUP9 PUSH2 0x9BB JUMP JUMPDEST PUSH1 0x40 DUP1 MLOAD PUSH2 0x100 DUP2 ADD DUP3 MSTORE PUSH1 0x1 PUSH1 0x1 PUSH1 0xA0 SHL SUB DUP7 DUP2 AND DUP3 MSTORE DUP6 DUP2 AND PUSH1 0x20 DUP4 ADD SWAP1 DUP2 MSTORE PUSH3 0xFFFFFF DUP7 DUP2 AND DUP5 DUP7 ADD SWAP1 DUP2 MSTORE ADDRESS PUSH1 0x60 DUP7 ADD SWAP1 DUP2 MSTORE TIMESTAMP PUSH1 0x80 DUP8 ADD SWAP1 DUP2 MSTORE PUSH1 0xA0 DUP8 ADD DUP15 DUP2 MSTORE PUSH1 0xC0 DUP9 ADD DUP15 DUP2 MSTORE PUSH1 0x0 PUSH1 0xE0 DUP11 ADD SWAP1 DUP2 MSTORE SWAP10 MLOAD PUSH32 0x414BF38900000000000000000000000000000000000000000000000000000000 DUP2 MSTORE DUP10 MLOAD DUP10 AND PUSH1 0x4 DUP3 ADD MSTORE SWAP7 MLOAD DUP9 AND PUSH1 0x24 DUP9 ADD MSTORE SWAP4 MLOAD SWAP1 SWAP5 AND PUSH1 0x44 DUP7 ADD MSTORE SWAP1 MLOAD DUP6 AND PUSH1 0x64 DUP6 ADD MSTORE MLOAD PUSH1 0x84 DUP5 ADD MSTORE SWAP1 MLOAD PUSH1 0xA4 DUP4 ADD MSTORE MLOAD PUSH1 0xC4 DUP3 ADD MSTORE SWAP3 MLOAD DUP2 AND PUSH1 0xE4 DUP5 ADD MSTORE SWAP1 SWAP2 PUSH32 0x0 SWAP1 SWAP2 AND SWAP1 PUSH4 0x414BF389 SWAP1 PUSH2 0x104 ADD PUSH1 0x20 PUSH1 0x40 MLOAD DUP1 DUP4 SUB DUP2 PUSH1 0x0 DUP8 GAS CALL ISZERO DUP1 ISZERO PUSH2 0xC36 JUMPI RETURNDATASIZE PUSH1 0x0 DUP1 RETURNDATACOPY RETURNDATASIZE PUSH1 0x0 REVERT JUMPDEST POP POP POP POP PUSH1 0x40 MLOAD RETURNDATASIZE PUSH1 0x1F NOT PUSH1 0x1F DUP3 ADD AND DUP3 ADD DUP1 PUSH1 0x40 MSTORE POP DUP2 ADD SWAP1 PUSH2 0xC5A SWAP2 SWAP1 PUSH2 0xF8A JUMP JUMPDEST SWAP8 SWAP7 POP POP POP POP POP POP POP JUMP JUMPDEST PUSH1 0x60 PUSH2 0xCAC DUP4 PUSH1 0x0 DUP2 MLOAD DUP2 LT PUSH2 0xC7D JUMPI PUSH2 0xC7D PUSH2 0xFA3 JUMP JUMPDEST PUSH1 0x20 MUL PUSH1 0x20 ADD ADD MLOAD PUSH32 0x0 DUP8 PUSH2 0x9BB JUMP JUMPDEST PUSH1 0x40 MLOAD PUSH32 0x38ED173900000000000000000000000000000000000000000000000000000000 DUP2 MSTORE PUSH1 0x1 PUSH1 0x1 PUSH1 0xA0 SHL SUB PUSH32 0x0 AND SWAP1 PUSH4 0x38ED1739 SWAP1 PUSH2 0xD19 SWAP1 DUP9 SWAP1 DUP9 SWAP1 DUP9 SWAP1 ADDRESS SWAP1 DUP10 SWAP1 PUSH1 0x4 ADD PUSH2 0x1192 JUMP JUMPDEST PUSH1 0x0 PUSH1 0x40 MLOAD DUP1 DUP4 SUB DUP2 PUSH1 0x0 DUP8 GAS CALL ISZERO DUP1 ISZERO PUSH2 0xD38 JUMPI RETURNDATASIZE PUSH1 0x0 DUP1 RETURNDATACOPY RETURNDATASIZE PUSH1 0x0 REVERT JUMPDEST POP POP POP POP PUSH1 0x40 MLOAD RETURNDATASIZE PUSH1 0x0 DUP3 RETURNDATACOPY PUSH1 0x1F RETURNDATASIZE SWAP1 DUP2 ADD PUSH1 0x1F NOT AND DUP3 ADD PUSH1 0x40 MSTORE PUSH2 0xD60 SWAP2 SWAP1 DUP2 ADD SWAP1 PUSH2 0x11CE JUMP JUMPDEST SWAP6 SWAP5 POP POP POP POP POP JUMP JUMPDEST PUSH1 0x1 PUSH1 0x1 PUSH1 0xA0 SHL SUB DUP2 AND DUP2 EQ PUSH2 0x3B8 JUMPI PUSH1 0x0 DUP1 REVERT JUMPDEST PUSH1 0x0 PUSH1 0x20 DUP3 DUP5 SUB SLT ISZERO PUSH2 0xD90 JUMPI PUSH1 0x0 DUP1 REVERT JUMPDEST DUP2 CALLDATALOAD PUSH2 0xD9B DUP2 PUSH2 0xD69 JUMP JUMPDEST SWAP4 SWAP3 POP POP POP JUMP JUMPDEST PUSH1 0x0 DUP1 DUP4 PUSH1 0x1F DUP5 ADD SLT PUSH2 0xDB4 JUMPI PUSH1 0x0 DUP1 REVERT JUMPDEST POP DUP2 CALLDATALOAD PUSH8 0xFFFFFFFFFFFFFFFF DUP2 GT ISZERO PUSH2 0xDCC JUMPI PUSH1 0x0 DUP1 REVERT JUMPDEST PUSH1 0x20 DUP4 ADD SWAP2 POP DUP4 PUSH1 0x20 DUP3 PUSH1 0x5 SHL DUP6 ADD ADD GT ISZERO PUSH2 0xDE7 JUMPI PUSH1 0x0 DUP1 REVERT JUMPDEST SWAP3 POP SWAP3 SWAP1 POP JUMP JUMPDEST PUSH1 0x0 DUP1 PUSH1 0x0 DUP1 PUSH1 0x0 DUP1 PUSH1 0x0 DUP1 PUSH1 0x0 PUSH1 0xA0 DUP11 DUP13 SUB SLT ISZERO PUSH2 0xE0C JUMPI PUSH1 0x0 DUP1 REVERT JUMPDEST DUP10 CALLDATALOAD PUSH8 0xFFFFFFFFFFFFFFFF DUP1 DUP3 GT ISZERO PUSH2 0xE24 JUMPI PUSH1 0x0 DUP1 REVERT JUMPDEST PUSH2 0xE30 DUP14 DUP4 DUP15 ADD PUSH2 0xDA2 JUMP JUMPDEST SWAP1 SWAP12 POP SWAP10 POP PUSH1 0x20 DUP13 ADD CALLDATALOAD SWAP2 POP DUP1 DUP3 GT ISZERO PUSH2 0xE49 JUMPI PUSH1 0x0 DUP1 REVERT JUMPDEST PUSH2 0xE55 DUP14 DUP4 DUP15 ADD PUSH2 0xDA2 JUMP JUMPDEST SWAP1 SWAP10 POP SWAP8 POP PUSH1 0x40 DUP13 ADD CALLDATALOAD SWAP2 POP DUP1 DUP3 GT ISZERO PUSH2 0xE6E JUMPI PUSH1 0x0 DUP1 REVERT JUMPDEST PUSH2 0xE7A DUP14 DUP4 DUP15 ADD PUSH2 0xDA2 JUMP JUMPDEST SWAP1 SWAP8 POP SWAP6 POP PUSH1 0x60 DUP13 ADD CALLDATALOAD SWAP2 POP PUSH2 0xE8F DUP3 PUSH2 0xD69 JUMP JUMPDEST SWAP1 SWAP4 POP PUSH1 0x80 DUP12 ADD CALLDATALOAD SWAP1 DUP1 DUP3 GT ISZERO PUSH2 0xEA5 JUMPI PUSH1 0x0 DUP1 REVERT JUMPDEST DUP2 DUP13 ADD SWAP2 POP DUP13 PUSH1 0x1F DUP4 ADD SLT PUSH2 0xEB9 JUMPI PUSH1 0x0 DUP1 REVERT JUMPDEST DUP2 CALLDATALOAD DUP2 DUP2 GT ISZERO PUSH2 0xEC8 JUMPI PUSH1 0x0 DUP1 REVERT JUMPDEST DUP14 PUSH1 0x20 DUP3 DUP6 ADD ADD GT ISZERO PUSH2 0xEDA JUMPI PUSH1 0x0 DUP1 REVERT JUMPDEST PUSH1 0x20 DUP4 ADD SWAP5 POP DUP1 SWAP4 POP POP POP POP SWAP3 SWAP6 SWAP9 POP SWAP3 SWAP6 SWAP9 POP SWAP3 SWAP6 SWAP9 JUMP JUMPDEST DUP1 CALLDATALOAD PUSH1 0xFF DUP2 AND DUP2 EQ PUSH2 0x2F9 JUMPI PUSH1 0x0 DUP1 REVERT JUMPDEST DUP1 CALLDATALOAD PUSH3 0xFFFFFF DUP2 AND DUP2 EQ PUSH2 0x2F9 JUMPI PUSH1 0x0 DUP1 REVERT JUMPDEST PUSH1 0x0 DUP1 PUSH1 0x0 DUP1 PUSH1 0x0 DUP1 PUSH1 0x0 PUSH1 0xE0 DUP9 DUP11 SUB SLT ISZERO PUSH2 0xF32 JUMPI PUSH1 0x0 DUP1 REVERT JUMPDEST DUP8 CALLDATALOAD PUSH2 0xF3D DUP2 PUSH2 0xD69 JUMP JUMPDEST SWAP7 POP PUSH1 0x20 DUP9 ADD CALLDATALOAD PUSH2 0xF4D DUP2 PUSH2 0xD69 JUMP JUMPDEST SWAP6 POP PUSH2 0xF5B PUSH1 0x40 DUP10 ADD PUSH2 0xEF3 JUMP JUMPDEST SWAP5 POP PUSH2 0xF69 PUSH1 0x60 DUP10 ADD PUSH2 0xF04 JUMP JUMPDEST SWAP7 SWAP10 SWAP6 SWAP9 POP SWAP4 SWAP7 PUSH1 0x80 DUP2 ADD CALLDATALOAD SWAP6 PUSH1 0xA0 DUP3 ADD CALLDATALOAD SWAP6 POP PUSH1 0xC0 SWAP1 SWAP2 ADD CALLDATALOAD SWAP4 POP SWAP2 POP POP JUMP JUMPDEST PUSH1 0x0 PUSH1 0x20 DUP3 DUP5 SUB SLT ISZERO PUSH2 0xF9C JUMPI PUSH1 0x0 DUP1 REVERT JUMPDEST POP MLOAD SWAP2 SWAP1 POP JUMP JUMPDEST PUSH4 0x4E487B71 PUSH1 0xE0 SHL PUSH1 0x0 MSTORE PUSH1 0x32 PUSH1 0x4 MSTORE PUSH1 0x24 PUSH1 0x0 REVERT JUMPDEST PUSH4 0x4E487B71 PUSH1 0xE0 SHL PUSH1 0x0 MSTORE PUSH1 0x11 PUSH1 0x4 MSTORE PUSH1 0x24 PUSH1 0x0 REVERT JUMPDEST PUSH1 0x0 DUP3 NOT DUP3 GT ISZERO PUSH2 0xFE2 JUMPI PUSH2 0xFE2 PUSH2 0xFB9 JUMP JUMPDEST POP ADD SWAP1 JUMP JUMPDEST PUSH1 0x0 PUSH1 0x0 NOT DUP3 EQ ISZERO PUSH2 0xFFB JUMPI PUSH2 0xFFB PUSH2 0xFB9 JUMP JUMPDEST POP PUSH1 0x1 ADD SWAP1 JUMP JUMPDEST PUSH4 0x4E487B71 PUSH1 0xE0 SHL PUSH1 0x0 MSTORE PUSH1 0x41 PUSH1 0x4 MSTORE PUSH1 0x24 PUSH1 0x0 REVERT JUMPDEST PUSH1 0x0 DUP2 MLOAD DUP1 DUP5 MSTORE PUSH1 0x20 DUP1 DUP6 ADD SWAP5 POP DUP1 DUP5 ADD PUSH1 0x0 JUMPDEST DUP4 DUP2 LT ISZERO PUSH2 0x1051 JUMPI DUP2 MLOAD PUSH1 0x1 PUSH1 0x1 PUSH1 0xA0 SHL SUB AND DUP8 MSTORE SWAP6 DUP3 ADD SWAP6 SWAP1 DUP3 ADD SWAP1 PUSH1 0x1 ADD PUSH2 0x102C JUMP JUMPDEST POP SWAP5 SWAP6 SWAP5 POP POP POP POP POP JUMP JUMPDEST PUSH1 0x0 DUP2 MLOAD DUP1 DUP5 MSTORE PUSH1 0x20 DUP1 DUP6 ADD SWAP5 POP DUP1 DUP5 ADD PUSH1 0x0 JUMPDEST DUP4 DUP2 LT ISZERO PUSH2 0x1051 JUMPI DUP2 MLOAD DUP8 MSTORE SWAP6 DUP3 ADD SWAP6 SWAP1 DUP3 ADD SWAP1 PUSH1 0x1 ADD PUSH2 0x1070 JUMP JUMPDEST PUSH1 0x0 JUMPDEST DUP4 DUP2 LT ISZERO PUSH2 0x10A7 JUMPI DUP2 DUP2 ADD MLOAD DUP4 DUP3 ADD MSTORE PUSH1 0x20 ADD PUSH2 0x108F JUMP JUMPDEST DUP4 DUP2 GT ISZERO PUSH2 0x10B6 JUMPI PUSH1 0x0 DUP5 DUP5 ADD MSTORE JUMPDEST POP POP POP POP JUMP JUMPDEST PUSH1 0x0 PUSH1 0x1 PUSH1 0x1 PUSH1 0xA0 SHL SUB DUP1 DUP11 AND DUP4 MSTORE PUSH1 0xE0 PUSH1 0x20 DUP5 ADD MSTORE PUSH2 0x10DF PUSH1 0xE0 DUP5 ADD DUP11 PUSH2 0x1018 JUMP JUMPDEST DUP4 DUP2 SUB PUSH1 0x40 DUP6 ADD MSTORE PUSH2 0x10F1 DUP2 DUP11 PUSH2 0x105C JUMP JUMPDEST SWAP1 POP DUP4 DUP2 SUB PUSH1 0x60 DUP6 ADD MSTORE PUSH2 0x1105 DUP2 DUP10 PUSH2 0x105C JUMP JUMPDEST SWAP2 DUP8 AND PUSH1 0x80 DUP6 ADD MSTORE POP DUP3 DUP2 SUB PUSH1 0xA0 DUP5 ADD MSTORE DUP5 MLOAD DUP1 DUP3 MSTORE SWAP1 PUSH2 0x112D DUP3 PUSH1 0x20 DUP1 DUP5 ADD SWAP1 DUP10 ADD PUSH2 0x108C JUMP JUMPDEST PUSH2 0xFFFF SWAP5 SWAP1 SWAP5 AND PUSH1 0xC0 SWAP4 SWAP1 SWAP4 ADD SWAP3 SWAP1 SWAP3 MSTORE POP PUSH1 0x1F ADD PUSH1 0x1F NOT AND ADD PUSH1 0x20 ADD SWAP7 SWAP6 POP POP POP POP POP POP JUMP JUMPDEST PUSH1 0x0 DUP3 MLOAD PUSH2 0x1166 DUP2 DUP5 PUSH1 0x20 DUP8 ADD PUSH2 0x108C JUMP JUMPDEST SWAP2 SWAP1 SWAP2 ADD SWAP3 SWAP2 POP POP JUMP JUMPDEST PUSH1 0x0 PUSH1 0x20 DUP3 DUP5 SUB SLT ISZERO PUSH2 0x1182 JUMPI PUSH1 0x0 DUP1 REVERT JUMPDEST DUP2 MLOAD DUP1 ISZERO ISZERO DUP2 EQ PUSH2 0xD9B JUMPI PUSH1 0x0 DUP1 REVERT JUMPDEST DUP6 DUP2 MSTORE DUP5 PUSH1 0x20 DUP3 ADD MSTORE PUSH1 0xA0 PUSH1 0x40 DUP3 ADD MSTORE PUSH1 0x0 PUSH2 0x11B1 PUSH1 0xA0 DUP4 ADD DUP7 PUSH2 0x1018 JUMP JUMPDEST PUSH1 0x1 PUSH1 0x1 PUSH1 0xA0 SHL SUB SWAP5 SWAP1 SWAP5 AND PUSH1 0x60 DUP4 ADD MSTORE POP PUSH1 0x80 ADD MSTORE SWAP4 SWAP3 POP POP POP JUMP JUMPDEST PUSH1 0x0 PUSH1 0x20 DUP1 DUP4 DUP6 SUB SLT ISZERO PUSH2 0x11E1 JUMPI PUSH1 0x0 DUP1 REVERT JUMPDEST DUP3 MLOAD PUSH8 0xFFFFFFFFFFFFFFFF DUP1 DUP3 GT ISZERO PUSH2 0x11F9 JUMPI PUSH1 0x0 DUP1 REVERT JUMPDEST DUP2 DUP6 ADD SWAP2 POP DUP6 PUSH1 0x1F DUP4 ADD SLT PUSH2 0x120D JUMPI PUSH1 0x0 DUP1 REVERT JUMPDEST DUP2 MLOAD DUP2 DUP2 GT ISZERO PUSH2 0x121F JUMPI PUSH2 0x121F PUSH2 0x1002 JUMP JUMPDEST DUP1 PUSH1 0x5 SHL PUSH1 0x40 MLOAD PUSH1 0x1F NOT PUSH1 0x3F DUP4 ADD AND DUP2 ADD DUP2 DUP2 LT DUP6 DUP3 GT OR ISZERO PUSH2 0x1244 JUMPI PUSH2 0x1244 PUSH2 0x1002 JUMP JUMPDEST PUSH1 0x40 MSTORE SWAP2 DUP3 MSTORE DUP5 DUP3 ADD SWAP3 POP DUP4 DUP2 ADD DUP6 ADD SWAP2 DUP9 DUP4 GT ISZERO PUSH2 0x1262 JUMPI PUSH1 0x0 DUP1 REVERT JUMPDEST SWAP4 DUP6 ADD SWAP4 JUMPDEST DUP3 DUP6 LT ISZERO PUSH2 0x1280 JUMPI DUP5 MLOAD DUP5 MSTORE SWAP4 DUP6 ADD SWAP4 SWAP3 DUP6 ADD SWAP3 PUSH2 0x1267 JUMP JUMPDEST SWAP9 SWAP8 POP POP POP POP POP POP POP POP JUMP INVALID LOG2 PUSH5 0x6970667358 0x22 SLT KECCAK256 0x2B 0xD0 0xC PUSH8 0xF5240F930B75331C 0xE4 0xC3 EQ 0xB5 RETURNDATASIZE 0xB8 DUP12 0x23 0xC3 XOR JUMP 0xCE 0xAD DUP12 0xEF PUSH28 0x211DF99C64736F6C634300080A0033A26469706673582212202E631E 0x5C STATICCALL 0xDD SWAP14 0xEA PUSH8 0xF0EAE8B4FFF0BF6A JUMP MULMOD 0xAD 0x26 SWAP8 DIFFICULTY PUSH1 0x24 OR PUSH1 0x5A 0xFC 0xD6 PUSH19 0x5A64736F6C634300080A003300000000000000 "
				},
				"gasEstimates": {
					"creation": {
						"codeDepositCost": "1534600",
						"executionCost": "infinite",
						"totalCost": "infinite"
					},
					"external": {
						"addressProvider()": "2349",
						"chainLinkOracle()": "infinite",
						"changeUSDAmount(uint256)": "infinite",
						"createNewFlashLoanContract()": "infinite",
						"getAmountOfFlashLoansCreated()": "2326",
						"getFlashLoanContract(address)": "2545",
						"getMaticValueNeededForNewContract()": "infinite",
						"getOwner()": "infinite",
						"sushiRouter()": "infinite",
						"uniSwapRouter()": "infinite",
						"withdraw()": "infinite"
					}
				},
				"methodIdentifiers": {
					"addressProvider()": "2954018c",
					"chainLinkOracle()": "78cd62c5",
					"changeUSDAmount(uint256)": "23ceb29a",
					"createNewFlashLoanContract()": "c20b4395",
					"getAmountOfFlashLoansCreated()": "39ab4a24",
					"getFlashLoanContract(address)": "049211a8",
					"getMaticValueNeededForNewContract()": "83770881",
					"getOwner()": "893d20e8",
					"sushiRouter()": "6d13582c",
					"uniSwapRouter()": "5d01ff3d",
					"withdraw()": "3ccfd60b"
				}
			},
			"userdoc": {
				"kind": "user",
				"methods": {
					"addressProvider()": {
						"notice": "Address variables needed to create new contract."
					},
					"chainLinkOracle()": {
						"notice": "Chain link oracle variable to get latestAnswer() and variable for USD amount needed."
					},
					"changeUSDAmount(uint256)": {
						"notice": "Function to change USD amount needed to create contract. Should only be altered by factory  owner."
					},
					"constructor": {
						"notice": "Constructor takes in values on creation to be used by the AaveFlashLoanV3 contract creation."
					},
					"createNewFlashLoanContract()": {
						"notice": "Creates a new flash loan and sets the owner to the person that called this function. Requires at least usdAmount of matic value  to create the contract."
					},
					"getAmountOfFlashLoansCreated()": {
						"notice": "Function to get current size of contracts created through the factory."
					},
					"getFlashLoanContract(address)": {
						"notice": "Function to get Flash Loan contract for a specific creator address."
					},
					"getMaticValueNeededForNewContract()": {
						"notice": "Function to be used by someone who wants to know current value needed to create a new Flash Loan contract."
					},
					"getOwner()": {
						"notice": "Function to get owner information that keeps  the owner variable private."
					},
					"withdraw()": {
						"notice": "Withdraw function to be used in case any funds are left on the contract. Only the factory owner can withdraw funds."
					}
				},
				"version": 1
			}
		}
	}
}