{
  "_format": "hh-sol-artifact-1",
  "contractName": "AaveFlashLoan",
  "sourceName": "contracts/AaveFlashLoan.sol",
  "abi": [
    {
      "inputs": [
        {
          "internalType": "contract ILendingPoolAddressesProvider",
          "name": "_addressProvider",
          "type": "address"
        }
      ],
      "stateMutability": "nonpayable",
      "type": "constructor"
    },
    {
      "inputs": [],
      "name": "ADDRESSES_PROVIDER",
      "outputs": [
        {
          "internalType": "contract ILendingPoolAddressesProvider",
          "name": "",
          "type": "address"
        }
      ],
      "stateMutability": "view",
      "type": "function"
    },
    {
      "inputs": [],
      "name": "LENDING_POOL",
      "outputs": [
        {
          "internalType": "contract ILendingPool",
          "name": "",
          "type": "address"
        }
      ],
      "stateMutability": "view",
      "type": "function"
    },
    {
      "inputs": [
        {
          "internalType": "address[]",
          "name": "assets",
          "type": "address[]"
        },
        {
          "internalType": "uint256[]",
          "name": "amounts",
          "type": "uint256[]"
        },
        {
          "internalType": "uint256[]",
          "name": "premiums",
          "type": "uint256[]"
        },
        {
          "internalType": "address",
          "name": "initiator",
          "type": "address"
        },
        {
          "internalType": "bytes",
          "name": "params",
          "type": "bytes"
        }
      ],
      "name": "executeOperation",
      "outputs": [
        {
          "internalType": "bool",
          "name": "",
          "type": "bool"
        }
      ],
      "stateMutability": "nonpayable",
      "type": "function"
    },
    {
      "inputs": [
        {
          "internalType": "address",
          "name": "token0",
          "type": "address"
        },
        {
          "internalType": "address",
          "name": "token1",
          "type": "address"
        },
        {
          "internalType": "uint8",
          "name": "direction",
          "type": "uint8"
        },
        {
          "internalType": "uint24",
          "name": "poolFee",
          "type": "uint24"
        },
        {
          "internalType": "uint256",
          "name": "amountIn",
          "type": "uint256"
        },
        {
          "internalType": "uint256",
          "name": "amountOut",
          "type": "uint256"
        },
        {
          "internalType": "uint256",
          "name": "deadline",
          "type": "uint256"
        }
      ],
      "name": "myFlashLoanCall",
      "outputs": [],
      "stateMutability": "nonpayable",
      "type": "function"
    },
    {
      "inputs": [],
      "name": "owner",
      "outputs": [
        {
          "internalType": "address",
          "name": "",
          "type": "address"
        }
      ],
      "stateMutability": "view",
      "type": "function"
    },
    {
      "inputs": [],
      "name": "provider",
      "outputs": [
        {
          "internalType": "contract ILendingPoolAddressesProvider",
          "name": "",
          "type": "address"
        }
      ],
      "stateMutability": "view",
      "type": "function"
    },
    {
      "inputs": [
        {
          "internalType": "address",
          "name": "token",
          "type": "address"
        }
      ],
      "name": "withdrawERC20Token",
      "outputs": [
        {
          "internalType": "uint256",
          "name": "currentAmount",
          "type": "uint256"
        }
      ],
      "stateMutability": "nonpayable",
      "type": "function"
    }
  ],
  "bytecode": "0x6101006040523480156200001257600080fd5b5060405162002640380380620026408339818101604052810190620000389190620002d9565b808073ffffffffffffffffffffffffffffffffffffffff1660808173ffffffffffffffffffffffffffffffffffffffff1660601b815250508073ffffffffffffffffffffffffffffffffffffffff16630261bf8b6040518163ffffffff1660e01b815260040160206040518083038186803b158015620000b757600080fd5b505afa158015620000cc573d6000803e3d6000fd5b505050506040513d601f19601f82011682018060405250810190620000f29190620002ad565b73ffffffffffffffffffffffffffffffffffffffff1660a08173ffffffffffffffffffffffffffffffffffffffff1660601b8152505050806000806101000a81548173ffffffffffffffffffffffffffffffffffffffff021916908373ffffffffffffffffffffffffffffffffffffffff16021790555060008054906101000a900473ffffffffffffffffffffffffffffffffffffffff1673ffffffffffffffffffffffffffffffffffffffff16630261bf8b6040518163ffffffff1660e01b815260040160206040518083038186803b158015620001d057600080fd5b505afa158015620001e5573d6000803e3d6000fd5b505050506040513d601f19601f820116820180604052508101906200020b9190620002ad565b73ffffffffffffffffffffffffffffffffffffffff1660c08173ffffffffffffffffffffffffffffffffffffffff1660601b815250503373ffffffffffffffffffffffffffffffffffffffff1660e08173ffffffffffffffffffffffffffffffffffffffff1660601b815250505062000381565b60008151905062000290816200034d565b92915050565b600081519050620002a78162000367565b92915050565b600060208284031215620002c057600080fd5b6000620002d0848285016200027f565b91505092915050565b600060208284031215620002ec57600080fd5b6000620002fc8482850162000296565b91505092915050565b600062000312826200032d565b9050919050565b6000620003268262000305565b9050919050565b600073ffffffffffffffffffffffffffffffffffffffff82169050919050565b620003588162000305565b81146200036457600080fd5b50565b620003728162000319565b81146200037e57600080fd5b50565b60805160601c60a05160601c60c05160601c60e05160601c612259620003e7600039600081816101c2015281816102ec0152818161031801526104a60152600050506000818161043501528181610482015261079a0152600061017801526122596000f3fe608060405234801561001057600080fd5b506004361061007d5760003560e01c80638da5cb5b1161005b5780638da5cb5b146100ee578063920f5c841461010c578063b4dcfc771461013c578063c2d222071461015a5761007d565b80630542975c14610082578063085d4883146100a05780633bdebbe1146100be575b600080fd5b61008a610176565b6040516100979190611c98565b60405180910390f35b6100a861019a565b6040516100b59190611c98565b60405180910390f35b6100d860048036038101906100d39190611449565b6101be565b6040516100e59190611d4a565b60405180910390f35b6100f6610316565b6040516101039190611ade565b60405180910390f35b61012660048036038101906101219190611637565b61033a565b6040516101339190611c7d565b60405180910390f35b610144610480565b6040516101519190611cb3565b60405180910390f35b610174600480360381019061016f9190611599565b6104a4565b005b7f000000000000000000000000000000000000000000000000000000000000000081565b60008054906101000a900473ffffffffffffffffffffffffffffffffffffffff1681565b60007f000000000000000000000000000000000000000000000000000000000000000073ffffffffffffffffffffffffffffffffffffffff163373ffffffffffffffffffffffffffffffffffffffff161461021857600080fd5b8173ffffffffffffffffffffffffffffffffffffffff166370a08231306040518263ffffffff1660e01b81526004016102519190611ade565b60206040518083038186803b15801561026957600080fd5b505afa15801561027d573d6000803e3d6000fd5b505050506040513d601f19601f820116820180604052508101906102a19190611789565b9050600081116102e6576040517f08c379a00000000000000000000000000000000000000000000000000000000081526004016102dd90611d0e565b60405180910390fd5b610311827f00000000000000000000000000000000000000000000000000000000000000008361083f565b919050565b7f000000000000000000000000000000000000000000000000000000000000000081565b60006103468383610994565b60005b8a8a905081101561046e57600087878381811061038f577f4e487b7100000000000000000000000000000000000000000000000000000000600052603260045260246000fd5b905060200201358a8a848181106103cf577f4e487b7100000000000000000000000000000000000000000000000000000000600052603260045260246000fd5b905060200201356103e09190611eba565b905061045a8c8c8481811061041e577f4e487b7100000000000000000000000000000000000000000000000000000000600052603260045260246000fd5b90506020020160208101906104339190611449565b7f000000000000000000000000000000000000000000000000000000000000000083610a79565b50808061046690612040565b915050610349565b50600190509998505050505050505050565b7f000000000000000000000000000000000000000000000000000000000000000081565b7f000000000000000000000000000000000000000000000000000000000000000073ffffffffffffffffffffffffffffffffffffffff163373ffffffffffffffffffffffffffffffffffffffff16146104fc57600080fd5b60003090506000600167ffffffffffffffff811115610544577f4e487b7100000000000000000000000000000000000000000000000000000000600052604160045260246000fd5b6040519080825280602002602001820160405280156105725781602001602082028036833780820191505090505b50905088816000815181106105b0577f4e487b7100000000000000000000000000000000000000000000000000000000600052603260045260246000fd5b602002602001019073ffffffffffffffffffffffffffffffffffffffff16908173ffffffffffffffffffffffffffffffffffffffff16815250506000600167ffffffffffffffff81111561062d577f4e487b7100000000000000000000000000000000000000000000000000000000600052604160045260246000fd5b60405190808252806020026020018201604052801561065b5781602001602082028036833780820191505090505b5090508581600081518110610699577f4e487b7100000000000000000000000000000000000000000000000000000000600052603260045260246000fd5b6020026020010181815250506000600167ffffffffffffffff8111156106e8577f4e487b7100000000000000000000000000000000000000000000000000000000600052604160045260246000fd5b6040519080825280602002602001820160405280156107165781602001602082028036833780820191505090505b509050600081600081518110610755577f4e487b7100000000000000000000000000000000000000000000000000000000600052603260045260246000fd5b602002602001018181525050600030905060008c8c8c8c8c8c8c6040516020016107859796959493929190611b5a565b604051602081830303815290604052905060007f000000000000000000000000000000000000000000000000000000000000000073ffffffffffffffffffffffffffffffffffffffff1663ab9c4b5d888888888888886040518863ffffffff1660e01b81526004016107fd9796959493929190611bc9565b600060405180830381600087803b15801561081757600080fd5b505af115801561082b573d6000803e3d6000fd5b505050505050505050505050505050505050565b6000808473ffffffffffffffffffffffffffffffffffffffff1663a9059cbb60e01b8585604051602401610874929190611c54565b604051602081830303815290604052907bffffffffffffffffffffffffffffffffffffffffffffffffffffffff19166020820180517bffffffffffffffffffffffffffffffffffffffffffffffffffffffff83818316178352505050506040516108de9190611ac7565b6000604051808303816000865af19150503d806000811461091b576040519150601f19603f3d011682016040523d82523d6000602084013e610920565b606091505b509150915081801561094e575060008151148061094d57508080602001905181019061094c9190611760565b5b5b61098d576040517f08c379a000000000000000000000000000000000000000000000000000000000815260040161098490611cee565b60405180910390fd5b5050505050565b600080600080600080600088888101906109ae91906114fb565b965096509650965096509650965060008787868686866040516020016109d996959493929190611af9565b604051602081830303815290604052905060018660ff161415610a13576000610a0182610bce565b9050610a0d8282610c13565b50610a6d565b6000610a1e82610db3565b9050610a6b8282600181518110610a5e577f4e487b7100000000000000000000000000000000000000000000000000000000600052603260045260246000fd5b6020026020010151610f56565b505b50505050505050505050565b6000808473ffffffffffffffffffffffffffffffffffffffff1663095ea7b360e01b8585604051602401610aae929190611c54565b604051602081830303815290604052907bffffffffffffffffffffffffffffffffffffffffffffffffffffffff19166020820180517bffffffffffffffffffffffffffffffffffffffffffffffffffffffff8381831617835250505050604051610b189190611ac7565b6000604051808303816000865af19150503d8060008114610b55576040519150601f19603f3d011682016040523d82523d6000602084013e610b5a565b606091505b5091509150818015610b885750600081511480610b87575080806020019051810190610b869190611760565b5b5b610bc7576040517f08c379a0000000000000000000000000000000000000000000000000000000008152600401610bbe90611cce565b60405180910390fd5b5050505050565b600080600080600080600087806020019051810190610bed9190611472565b955095509550955095509550610c068383888888610f98565b9650505050505050919050565b60008060008060008087806020019051810190610c309190611472565b9550955095509550955095506000600267ffffffffffffffff811115610c7f577f4e487b7100000000000000000000000000000000000000000000000000000000600052604160045260246000fd5b604051908082528060200260200182016040528015610cad5781602001602082028036833780820191505090505b5090508581600081518110610ceb577f4e487b7100000000000000000000000000000000000000000000000000000000600052603260045260246000fd5b602002602001019073ffffffffffffffffffffffffffffffffffffffff16908173ffffffffffffffffffffffffffffffffffffffff16815250508681600181518110610d60577f4e487b7100000000000000000000000000000000000000000000000000000000600052603260045260246000fd5b602002602001019073ffffffffffffffffffffffffffffffffffffffff16908173ffffffffffffffffffffffffffffffffffffffff1681525050610da78860008385611100565b50505050505050505050565b606060008060008060008087806020019051810190610dd29190611472565b9550955095509550955095506000600267ffffffffffffffff811115610e21577f4e487b7100000000000000000000000000000000000000000000000000000000600052604160045260246000fd5b604051908082528060200260200182016040528015610e4f5781602001602082028036833780820191505090505b5090508681600081518110610e8d577f4e487b7100000000000000000000000000000000000000000000000000000000600052603260045260246000fd5b602002602001019073ffffffffffffffffffffffffffffffffffffffff16908173ffffffffffffffffffffffffffffffffffffffff16815250508581600181518110610f02577f4e487b7100000000000000000000000000000000000000000000000000000000600052603260045260246000fd5b602002602001019073ffffffffffffffffffffffffffffffffffffffff16908173ffffffffffffffffffffffffffffffffffffffff1681525050610f4884848385611100565b975050505050505050919050565b60008060008060008087806020019051810190610f739190611472565b955095509550955095509550610f8d876000878988610f98565b505050505050505050565b6000610fb98473e592427a0aece92de3edee1f18e0157c0586156488610a79565b60006040518061010001604052808673ffffffffffffffffffffffffffffffffffffffff1681526020018573ffffffffffffffffffffffffffffffffffffffff1681526020018462ffffff1681526020013073ffffffffffffffffffffffffffffffffffffffff168152602001428152602001888152602001878152602001600073ffffffffffffffffffffffffffffffffffffffff16815250905073e592427a0aece92de3edee1f18e0157c0586156473ffffffffffffffffffffffffffffffffffffffff1663414bf389826040518263ffffffff1660e01b81526004016110a29190611d2e565b602060405180830381600087803b1580156110bc57600080fd5b505af11580156110d0573d6000803e3d6000fd5b505050506040513d601f19601f820116820180604052508101906110f49190611789565b91505095945050505050565b60606111628360008151811061113f577f4e487b7100000000000000000000000000000000000000000000000000000000600052603260045260246000fd5b6020026020010151737a250d5630b4cf539739df2c5dacb4c659f2488d87610a79565b737a250d5630b4cf539739df2c5dacb4c659f2488d73ffffffffffffffffffffffffffffffffffffffff166338ed173986868630876040518663ffffffff1660e01b81526004016111b7959493929190611d65565b600060405180830381600087803b1580156111d157600080fd5b505af11580156111e5573d6000803e3d6000fd5b505050506040513d6000823e3d601f19601f8201168201806040525081019061120e919061171f565b9050949350505050565b600061122b61122684611de4565b611dbf565b9050808382526020820190508285602086028201111561124a57600080fd5b60005b8581101561127a5781611260888261141f565b84526020840193506020830192505060018101905061124d565b5050509392505050565b60008135905061129381612199565b92915050565b6000813590506112a8816121b0565b92915050565b6000815190506112bd816121b0565b92915050565b60008083601f8401126112d557600080fd5b8235905067ffffffffffffffff8111156112ee57600080fd5b60208301915083602082028301111561130657600080fd5b9250929050565b60008083601f84011261131f57600080fd5b8235905067ffffffffffffffff81111561133857600080fd5b60208301915083602082028301111561135057600080fd5b9250929050565b600082601f83011261136857600080fd5b8151611378848260208601611218565b91505092915050565b600081519050611390816121c7565b92915050565b60008083601f8401126113a857600080fd5b8235905067ffffffffffffffff8111156113c157600080fd5b6020830191508360018202830111156113d957600080fd5b9250929050565b6000813590506113ef816121de565b92915050565b600081519050611404816121de565b92915050565b600081359050611419816121f5565b92915050565b60008151905061142e816121f5565b92915050565b6000813590506114438161220c565b92915050565b60006020828403121561145b57600080fd5b600061146984828501611284565b91505092915050565b60008060008060008060c0878903121561148b57600080fd5b600061149989828a016112ae565b96505060206114aa89828a016112ae565b95505060406114bb89828a016113f5565b94505060606114cc89828a0161141f565b93505060806114dd89828a0161141f565b92505060a06114ee89828a0161141f565b9150509295509295509295565b600080600080600080600060e0888a03121561151657600080fd5b60006115248a828b01611299565b97505060206115358a828b01611299565b96505060406115468a828b01611434565b95505060606115578a828b016113e0565b94505060806115688a828b0161140a565b93505060a06115798a828b0161140a565b92505060c061158a8a828b0161140a565b91505092959891949750929550565b600080600080600080600060e0888a0312156115b457600080fd5b60006115c28a828b01611284565b97505060206115d38a828b01611284565b96505060406115e48a828b01611434565b95505060606115f58a828b016113e0565b94505060806116068a828b0161140a565b93505060a06116178a828b0161140a565b92505060c06116288a828b0161140a565b91505092959891949750929550565b600080600080600080600080600060a08a8c03121561165557600080fd5b60008a013567ffffffffffffffff81111561166f57600080fd5b61167b8c828d016112c3565b995099505060208a013567ffffffffffffffff81111561169a57600080fd5b6116a68c828d0161130d565b975097505060408a013567ffffffffffffffff8111156116c557600080fd5b6116d18c828d0161130d565b955095505060606116e48c828d01611284565b93505060808a013567ffffffffffffffff81111561170157600080fd5b61170d8c828d01611396565b92509250509295985092959850929598565b60006020828403121561173157600080fd5b600082015167ffffffffffffffff81111561174b57600080fd5b61175784828501611357565b91505092915050565b60006020828403121561177257600080fd5b600061178084828501611381565b91505092915050565b60006020828403121561179b57600080fd5b60006117a98482850161141f565b91505092915050565b60006117be83836117e2565b60208301905092915050565b60006117d68383611a9a565b60208301905092915050565b6117eb81611f10565b82525050565b6117fa81611f10565b82525050565b600061180b82611e30565b6118158185611e6b565b935061182083611e10565b8060005b8381101561185157815161183888826117b2565b975061184383611e51565b925050600181019050611824565b5085935050505092915050565b600061186982611e3b565b6118738185611e7c565b935061187e83611e20565b8060005b838110156118af57815161189688826117ca565b97506118a183611e5e565b925050600181019050611882565b5085935050505092915050565b6118c581611f34565b82525050565b60006118d682611e46565b6118e08185611e8d565b93506118f0818560208601611fdc565b6118f9816120e7565b840191505092915050565b600061190f82611e46565b6119198185611e9e565b9350611929818560208601611fdc565b80840191505092915050565b61193e81611f94565b82525050565b61194d81611fb8565b82525050565b6000611960600283611ea9565b915061196b826120f8565b602082019050919050565b6000611983600283611ea9565b915061198e82612121565b602082019050919050565b60006119a6602383611ea9565b91506119b18261214a565b604082019050919050565b610100820160008201516119d360008501826117e2565b5060208201516119e660208501826117e2565b5060408201516119f96040850182611a7c565b506060820151611a0c60608501826117e2565b506080820151611a1f6080850182611a9a565b5060a0820151611a3260a0850182611a9a565b5060c0820151611a4560c0850182611a9a565b5060e0820151611a5860e0850182611a5e565b50505050565b611a6781611f4e565b82525050565b611a7681611f40565b82525050565b611a8581611f6e565b82525050565b611a9481611f6e565b82525050565b611aa381611f7d565b82525050565b611ab281611f7d565b82525050565b611ac181611f87565b82525050565b6000611ad38284611904565b915081905092915050565b6000602082019050611af360008301846117f1565b92915050565b600060c082019050611b0e60008301896117f1565b611b1b60208301886117f1565b611b286040830187611a8b565b611b356060830186611aa9565b611b426080830185611aa9565b611b4f60a0830184611aa9565b979650505050505050565b600060e082019050611b6f600083018a6117f1565b611b7c60208301896117f1565b611b896040830188611ab8565b611b966060830187611a8b565b611ba36080830186611aa9565b611bb060a0830185611aa9565b611bbd60c0830184611aa9565b98975050505050505050565b600060e082019050611bde600083018a6117f1565b8181036020830152611bf08189611800565b90508181036040830152611c04818861185e565b90508181036060830152611c18818761185e565b9050611c2760808301866117f1565b81810360a0830152611c3981856118cb565b9050611c4860c0830184611a6d565b98975050505050505050565b6000604082019050611c6960008301856117f1565b611c766020830184611aa9565b9392505050565b6000602082019050611c9260008301846118bc565b92915050565b6000602082019050611cad6000830184611935565b92915050565b6000602082019050611cc86000830184611944565b92915050565b60006020820190508181036000830152611ce781611953565b9050919050565b60006020820190508181036000830152611d0781611976565b9050919050565b60006020820190508181036000830152611d2781611999565b9050919050565b600061010082019050611d4460008301846119bc565b92915050565b6000602082019050611d5f6000830184611aa9565b92915050565b600060a082019050611d7a6000830188611aa9565b611d876020830187611aa9565b8181036040830152611d998186611800565b9050611da860608301856117f1565b611db56080830184611aa9565b9695505050505050565b6000611dc9611dda565b9050611dd5828261200f565b919050565b6000604051905090565b600067ffffffffffffffff821115611dff57611dfe6120b8565b5b602082029050602081019050919050565b6000819050602082019050919050565b6000819050602082019050919050565b600081519050919050565b600081519050919050565b600081519050919050565b6000602082019050919050565b6000602082019050919050565b600082825260208201905092915050565b600082825260208201905092915050565b600082825260208201905092915050565b600081905092915050565b600082825260208201905092915050565b6000611ec582611f7d565b9150611ed083611f7d565b9250827fffffffffffffffffffffffffffffffffffffffffffffffffffffffffffffffff03821115611f0557611f04612089565b5b828201905092915050565b6000611f1b82611f4e565b9050919050565b6000611f2d82611f4e565b9050919050565b60008115159050919050565b600061ffff82169050919050565b600073ffffffffffffffffffffffffffffffffffffffff82169050919050565b600062ffffff82169050919050565b6000819050919050565b600060ff82169050919050565b6000611f9f82611fa6565b9050919050565b6000611fb182611f4e565b9050919050565b6000611fc382611fca565b9050919050565b6000611fd582611f4e565b9050919050565b60005b83811015611ffa578082015181840152602081019050611fdf565b83811115612009576000848401525b50505050565b612018826120e7565b810181811067ffffffffffffffff82111715612037576120366120b8565b5b80604052505050565b600061204b82611f7d565b91507fffffffffffffffffffffffffffffffffffffffffffffffffffffffffffffffff82141561207e5761207d612089565b5b600182019050919050565b7f4e487b7100000000000000000000000000000000000000000000000000000000600052601160045260246000fd5b7f4e487b7100000000000000000000000000000000000000000000000000000000600052604160045260246000fd5b6000601f19601f8301169050919050565b7f5341000000000000000000000000000000000000000000000000000000000000600082015250565b7f5354000000000000000000000000000000000000000000000000000000000000600082015250565b7f436f6e747261637420646f6573206e6f74206861766520455243323020746f6b60008201527f656e2e0000000000000000000000000000000000000000000000000000000000602082015250565b6121a281611f10565b81146121ad57600080fd5b50565b6121b981611f22565b81146121c457600080fd5b50565b6121d081611f34565b81146121db57600080fd5b50565b6121e781611f6e565b81146121f257600080fd5b50565b6121fe81611f7d565b811461220957600080fd5b50565b61221581611f87565b811461222057600080fd5b5056fea264697066735822122032815f13fe355c9ec27416406b68cd657100f5597994d49f76ae5074269f16af64736f6c63430008010033",
  "linkReferences": {},
  "deployedLinkReferences": {}
}