{
  "_format": "hh-sol-artifact-1",
  "contractName": "AaveFlashLoan",
  "sourceName": "contracts/AaveFlashLoan.sol",
  "abi": [
    {
      "inputs": [
        {
          "internalType": "contract ILendingPoolAddressesProvider",
          "name": "_addressProvider",
          "type": "address"
        }
      ],
      "stateMutability": "nonpayable",
      "type": "constructor"
    },
    {
      "inputs": [],
      "name": "ADDRESSES_PROVIDER",
      "outputs": [
        {
          "internalType": "contract ILendingPoolAddressesProvider",
          "name": "",
          "type": "address"
        }
      ],
      "stateMutability": "view",
      "type": "function"
    },
    {
      "inputs": [],
      "name": "LENDING_POOL",
      "outputs": [
        {
          "internalType": "contract ILendingPool",
          "name": "",
          "type": "address"
        }
      ],
      "stateMutability": "view",
      "type": "function"
    },
    {
      "inputs": [
        {
          "internalType": "address[]",
          "name": "assets",
          "type": "address[]"
        },
        {
          "internalType": "uint256[]",
          "name": "amounts",
          "type": "uint256[]"
        },
        {
          "internalType": "uint256[]",
          "name": "premiums",
          "type": "uint256[]"
        },
        {
          "internalType": "address",
          "name": "initiator",
          "type": "address"
        },
        {
          "internalType": "bytes",
          "name": "params",
          "type": "bytes"
        }
      ],
      "name": "executeOperation",
      "outputs": [
        {
          "internalType": "bool",
          "name": "",
          "type": "bool"
        }
      ],
      "stateMutability": "nonpayable",
      "type": "function"
    },
    {
      "inputs": [
        {
          "internalType": "address",
          "name": "token0",
          "type": "address"
        },
        {
          "internalType": "address",
          "name": "token1",
          "type": "address"
        },
        {
          "internalType": "uint8",
          "name": "direction",
          "type": "uint8"
        },
        {
          "internalType": "uint24",
          "name": "poolFee",
          "type": "uint24"
        },
        {
          "internalType": "uint256",
          "name": "amountIn",
          "type": "uint256"
        },
        {
          "internalType": "uint256",
          "name": "amountOut",
          "type": "uint256"
        },
        {
          "internalType": "uint256",
          "name": "deadline",
          "type": "uint256"
        }
      ],
      "name": "myFlashLoanCall",
      "outputs": [],
      "stateMutability": "nonpayable",
      "type": "function"
    },
    {
      "inputs": [],
      "name": "owner",
      "outputs": [
        {
          "internalType": "address",
          "name": "",
          "type": "address"
        }
      ],
      "stateMutability": "view",
      "type": "function"
    },
    {
      "inputs": [],
      "name": "provider",
      "outputs": [
        {
          "internalType": "contract ILendingPoolAddressesProvider",
          "name": "",
          "type": "address"
        }
      ],
      "stateMutability": "view",
      "type": "function"
    },
    {
      "inputs": [
        {
          "internalType": "address",
          "name": "token",
          "type": "address"
        }
      ],
      "name": "withdrawERC20Token",
      "outputs": [
        {
          "internalType": "uint256",
          "name": "currentAmount",
          "type": "uint256"
        }
      ],
      "stateMutability": "nonpayable",
      "type": "function"
    }
  ],
  "bytecode": "0x6101006040523480156200001257600080fd5b506040516200238c3803806200238c8339818101604052810190620000389190620002d9565b808073ffffffffffffffffffffffffffffffffffffffff1660808173ffffffffffffffffffffffffffffffffffffffff1660601b815250508073ffffffffffffffffffffffffffffffffffffffff16630261bf8b6040518163ffffffff1660e01b815260040160206040518083038186803b158015620000b757600080fd5b505afa158015620000cc573d6000803e3d6000fd5b505050506040513d601f19601f82011682018060405250810190620000f29190620002ad565b73ffffffffffffffffffffffffffffffffffffffff1660a08173ffffffffffffffffffffffffffffffffffffffff1660601b8152505050806000806101000a81548173ffffffffffffffffffffffffffffffffffffffff021916908373ffffffffffffffffffffffffffffffffffffffff16021790555060008054906101000a900473ffffffffffffffffffffffffffffffffffffffff1673ffffffffffffffffffffffffffffffffffffffff16630261bf8b6040518163ffffffff1660e01b815260040160206040518083038186803b158015620001d057600080fd5b505afa158015620001e5573d6000803e3d6000fd5b505050506040513d601f19601f820116820180604052508101906200020b9190620002ad565b73ffffffffffffffffffffffffffffffffffffffff1660c08173ffffffffffffffffffffffffffffffffffffffff1660601b815250503373ffffffffffffffffffffffffffffffffffffffff1660e08173ffffffffffffffffffffffffffffffffffffffff1660601b815250505062000381565b60008151905062000290816200034d565b92915050565b600081519050620002a78162000367565b92915050565b600060208284031215620002c057600080fd5b6000620002d0848285016200027f565b91505092915050565b600060208284031215620002ec57600080fd5b6000620002fc8482850162000296565b91505092915050565b600062000312826200032d565b9050919050565b6000620003268262000305565b9050919050565b600073ffffffffffffffffffffffffffffffffffffffff82169050919050565b620003588162000305565b81146200036457600080fd5b50565b620003728162000319565b81146200037e57600080fd5b50565b60805160601c60a05160601c60c05160601c60e05160601c611fa5620003e7600039600081816101c2015281816102ec0152818161031801526104a60152600050506000818161043501528181610482015261079a015260006101780152611fa56000f3fe608060405234801561001057600080fd5b506004361061007d5760003560e01c80638da5cb5b1161005b5780638da5cb5b146100ee578063920f5c841461010c578063b4dcfc771461013c578063c2d222071461015a5761007d565b80630542975c14610082578063085d4883146100a05780633bdebbe1146100be575b600080fd5b61008a610176565b60405161009791906119e4565b60405180910390f35b6100a861019a565b6040516100b591906119e4565b60405180910390f35b6100d860048036038101906100d3919061127f565b6101be565b6040516100e59190611a96565b60405180910390f35b6100f6610316565b604051610103919061188b565b60405180910390f35b610126600480360381019061012191906113e4565b61033a565b60405161013391906119c9565b60405180910390f35b610144610480565b60405161015191906119ff565b60405180910390f35b610174600480360381019061016f9190611346565b6104a4565b005b7f000000000000000000000000000000000000000000000000000000000000000081565b60008054906101000a900473ffffffffffffffffffffffffffffffffffffffff1681565b60007f000000000000000000000000000000000000000000000000000000000000000073ffffffffffffffffffffffffffffffffffffffff163373ffffffffffffffffffffffffffffffffffffffff161461021857600080fd5b8173ffffffffffffffffffffffffffffffffffffffff166370a08231306040518263ffffffff1660e01b8152600401610251919061188b565b60206040518083038186803b15801561026957600080fd5b505afa15801561027d573d6000803e3d6000fd5b505050506040513d601f19601f820116820180604052508101906102a19190611536565b9050600081116102e6576040517f08c379a00000000000000000000000000000000000000000000000000000000081526004016102dd90611a5a565b60405180910390fd5b610311827f00000000000000000000000000000000000000000000000000000000000000008361083f565b919050565b7f000000000000000000000000000000000000000000000000000000000000000081565b60006103468383610994565b60005b8a8a905081101561046e57600087878381811061038f577f4e487b7100000000000000000000000000000000000000000000000000000000600052603260045260246000fd5b905060200201358a8a848181106103cf577f4e487b7100000000000000000000000000000000000000000000000000000000600052603260045260246000fd5b905060200201356103e09190611c06565b905061045a8c8c8481811061041e577f4e487b7100000000000000000000000000000000000000000000000000000000600052603260045260246000fd5b9050602002016020810190610433919061127f565b7f000000000000000000000000000000000000000000000000000000000000000083610ca3565b50808061046690611d8c565b915050610349565b50600190509998505050505050505050565b7f000000000000000000000000000000000000000000000000000000000000000081565b7f000000000000000000000000000000000000000000000000000000000000000073ffffffffffffffffffffffffffffffffffffffff163373ffffffffffffffffffffffffffffffffffffffff16146104fc57600080fd5b60003090506000600167ffffffffffffffff811115610544577f4e487b7100000000000000000000000000000000000000000000000000000000600052604160045260246000fd5b6040519080825280602002602001820160405280156105725781602001602082028036833780820191505090505b50905088816000815181106105b0577f4e487b7100000000000000000000000000000000000000000000000000000000600052603260045260246000fd5b602002602001019073ffffffffffffffffffffffffffffffffffffffff16908173ffffffffffffffffffffffffffffffffffffffff16815250506000600167ffffffffffffffff81111561062d577f4e487b7100000000000000000000000000000000000000000000000000000000600052604160045260246000fd5b60405190808252806020026020018201604052801561065b5781602001602082028036833780820191505090505b5090508581600081518110610699577f4e487b7100000000000000000000000000000000000000000000000000000000600052603260045260246000fd5b6020026020010181815250506000600167ffffffffffffffff8111156106e8577f4e487b7100000000000000000000000000000000000000000000000000000000600052604160045260246000fd5b6040519080825280602002602001820160405280156107165781602001602082028036833780820191505090505b509050600081600081518110610755577f4e487b7100000000000000000000000000000000000000000000000000000000600052603260045260246000fd5b602002602001018181525050600030905060008c8c8c8c8c8c8c60405160200161078597969594939291906118a6565b604051602081830303815290604052905060007f000000000000000000000000000000000000000000000000000000000000000073ffffffffffffffffffffffffffffffffffffffff1663ab9c4b5d888888888888886040518863ffffffff1660e01b81526004016107fd9796959493929190611915565b600060405180830381600087803b15801561081757600080fd5b505af115801561082b573d6000803e3d6000fd5b505050505050505050505050505050505050565b6000808473ffffffffffffffffffffffffffffffffffffffff1663a9059cbb60e01b85856040516024016108749291906119a0565b604051602081830303815290604052907bffffffffffffffffffffffffffffffffffffffffffffffffffffffff19166020820180517bffffffffffffffffffffffffffffffffffffffffffffffffffffffff83818316178352505050506040516108de9190611874565b6000604051808303816000865af19150503d806000811461091b576040519150601f19603f3d011682016040523d82523d6000602084013e610920565b606091505b509150915081801561094e575060008151148061094d57508080602001905181019061094c919061150d565b5b5b61098d576040517f08c379a000000000000000000000000000000000000000000000000000000000815260040161098490611a3a565b60405180910390fd5b5050505050565b600080600080600080600088888101906109ae91906112a8565b96509650965096509650965096506000600267ffffffffffffffff8111156109ff577f4e487b7100000000000000000000000000000000000000000000000000000000600052604160045260246000fd5b604051908082528060200260200182016040528015610a2d5781602001602082028036833780820191505090505b50905060018660ff161415610b4b576000610a4b85858b8b8a610df8565b90508782600081518110610a88577f4e487b7100000000000000000000000000000000000000000000000000000000600052603260045260246000fd5b602002602001019073ffffffffffffffffffffffffffffffffffffffff16908173ffffffffffffffffffffffffffffffffffffffff16815250508882600181518110610afd577f4e487b7100000000000000000000000000000000000000000000000000000000600052603260045260246000fd5b602002602001019073ffffffffffffffffffffffffffffffffffffffff16908173ffffffffffffffffffffffffffffffffffffffff1681525050610b448160008486610f60565b5050610c97565b8781600081518110610b86577f4e487b7100000000000000000000000000000000000000000000000000000000600052603260045260246000fd5b602002602001019073ffffffffffffffffffffffffffffffffffffffff16908173ffffffffffffffffffffffffffffffffffffffff16815250508681600181518110610bfb577f4e487b7100000000000000000000000000000000000000000000000000000000600052603260045260246000fd5b602002602001019073ffffffffffffffffffffffffffffffffffffffff16908173ffffffffffffffffffffffffffffffffffffffff16815250506000610c4385858486610f60565b9050610c9481600181518110610c82577f4e487b7100000000000000000000000000000000000000000000000000000000600052603260045260246000fd5b602002602001015160008a8c8a610df8565b50505b50505050505050505050565b6000808473ffffffffffffffffffffffffffffffffffffffff1663095ea7b360e01b8585604051602401610cd89291906119a0565b604051602081830303815290604052907bffffffffffffffffffffffffffffffffffffffffffffffffffffffff19166020820180517bffffffffffffffffffffffffffffffffffffffffffffffffffffffff8381831617835250505050604051610d429190611874565b6000604051808303816000865af19150503d8060008114610d7f576040519150601f19603f3d011682016040523d82523d6000602084013e610d84565b606091505b5091509150818015610db25750600081511480610db1575080806020019051810190610db0919061150d565b5b5b610df1576040517f08c379a0000000000000000000000000000000000000000000000000000000008152600401610de890611a1a565b60405180910390fd5b5050505050565b6000610e198473e592427a0aece92de3edee1f18e0157c0586156488610ca3565b60006040518061010001604052808673ffffffffffffffffffffffffffffffffffffffff1681526020018573ffffffffffffffffffffffffffffffffffffffff1681526020018462ffffff1681526020013073ffffffffffffffffffffffffffffffffffffffff168152602001428152602001888152602001878152602001600073ffffffffffffffffffffffffffffffffffffffff16815250905073e592427a0aece92de3edee1f18e0157c0586156473ffffffffffffffffffffffffffffffffffffffff1663414bf389826040518263ffffffff1660e01b8152600401610f029190611a7a565b602060405180830381600087803b158015610f1c57600080fd5b505af1158015610f30573d6000803e3d6000fd5b505050506040513d601f19601f82011682018060405250810190610f549190611536565b91505095945050505050565b6060610fc283600081518110610f9f577f4e487b7100000000000000000000000000000000000000000000000000000000600052603260045260246000fd5b6020026020010151737a250d5630b4cf539739df2c5dacb4c659f2488d87610ca3565b737a250d5630b4cf539739df2c5dacb4c659f2488d73ffffffffffffffffffffffffffffffffffffffff166338ed173986868630876040518663ffffffff1660e01b8152600401611017959493929190611ab1565b600060405180830381600087803b15801561103157600080fd5b505af1158015611045573d6000803e3d6000fd5b505050506040513d6000823e3d601f19601f8201168201806040525081019061106e91906114cc565b9050949350505050565b600061108b61108684611b30565b611b0b565b905080838252602082019050828560208602820111156110aa57600080fd5b60005b858110156110da57816110c08882611255565b8452602084019350602083019250506001810190506110ad565b5050509392505050565b6000813590506110f381611ee5565b92915050565b60008135905061110881611efc565b92915050565b60008083601f84011261112057600080fd5b8235905067ffffffffffffffff81111561113957600080fd5b60208301915083602082028301111561115157600080fd5b9250929050565b60008083601f84011261116a57600080fd5b8235905067ffffffffffffffff81111561118357600080fd5b60208301915083602082028301111561119b57600080fd5b9250929050565b600082601f8301126111b357600080fd5b81516111c3848260208601611078565b91505092915050565b6000815190506111db81611f13565b92915050565b60008083601f8401126111f357600080fd5b8235905067ffffffffffffffff81111561120c57600080fd5b60208301915083600182028301111561122457600080fd5b9250929050565b60008135905061123a81611f2a565b92915050565b60008135905061124f81611f41565b92915050565b60008151905061126481611f41565b92915050565b60008135905061127981611f58565b92915050565b60006020828403121561129157600080fd5b600061129f848285016110e4565b91505092915050565b600080600080600080600060e0888a0312156112c357600080fd5b60006112d18a828b016110f9565b97505060206112e28a828b016110f9565b96505060406112f38a828b0161126a565b95505060606113048a828b0161122b565b94505060806113158a828b01611240565b93505060a06113268a828b01611240565b92505060c06113378a828b01611240565b91505092959891949750929550565b600080600080600080600060e0888a03121561136157600080fd5b600061136f8a828b016110e4565b97505060206113808a828b016110e4565b96505060406113918a828b0161126a565b95505060606113a28a828b0161122b565b94505060806113b38a828b01611240565b93505060a06113c48a828b01611240565b92505060c06113d58a828b01611240565b91505092959891949750929550565b600080600080600080600080600060a08a8c03121561140257600080fd5b60008a013567ffffffffffffffff81111561141c57600080fd5b6114288c828d0161110e565b995099505060208a013567ffffffffffffffff81111561144757600080fd5b6114538c828d01611158565b975097505060408a013567ffffffffffffffff81111561147257600080fd5b61147e8c828d01611158565b955095505060606114918c828d016110e4565b93505060808a013567ffffffffffffffff8111156114ae57600080fd5b6114ba8c828d016111e1565b92509250509295985092959850929598565b6000602082840312156114de57600080fd5b600082015167ffffffffffffffff8111156114f857600080fd5b611504848285016111a2565b91505092915050565b60006020828403121561151f57600080fd5b600061152d848285016111cc565b91505092915050565b60006020828403121561154857600080fd5b600061155684828501611255565b91505092915050565b600061156b838361158f565b60208301905092915050565b60006115838383611847565b60208301905092915050565b61159881611c5c565b82525050565b6115a781611c5c565b82525050565b60006115b882611b7c565b6115c28185611bb7565b93506115cd83611b5c565b8060005b838110156115fe5781516115e5888261155f565b97506115f083611b9d565b9250506001810190506115d1565b5085935050505092915050565b600061161682611b87565b6116208185611bc8565b935061162b83611b6c565b8060005b8381101561165c5781516116438882611577565b975061164e83611baa565b92505060018101905061162f565b5085935050505092915050565b61167281611c80565b82525050565b600061168382611b92565b61168d8185611bd9565b935061169d818560208601611d28565b6116a681611e33565b840191505092915050565b60006116bc82611b92565b6116c68185611bea565b93506116d6818560208601611d28565b80840191505092915050565b6116eb81611ce0565b82525050565b6116fa81611d04565b82525050565b600061170d600283611bf5565b915061171882611e44565b602082019050919050565b6000611730600283611bf5565b915061173b82611e6d565b602082019050919050565b6000611753602383611bf5565b915061175e82611e96565b604082019050919050565b61010082016000820151611780600085018261158f565b506020820151611793602085018261158f565b5060408201516117a66040850182611829565b5060608201516117b9606085018261158f565b5060808201516117cc6080850182611847565b5060a08201516117df60a0850182611847565b5060c08201516117f260c0850182611847565b5060e082015161180560e085018261180b565b50505050565b61181481611c9a565b82525050565b61182381611c8c565b82525050565b61183281611cba565b82525050565b61184181611cba565b82525050565b61185081611cc9565b82525050565b61185f81611cc9565b82525050565b61186e81611cd3565b82525050565b600061188082846116b1565b915081905092915050565b60006020820190506118a0600083018461159e565b92915050565b600060e0820190506118bb600083018a61159e565b6118c8602083018961159e565b6118d56040830188611865565b6118e26060830187611838565b6118ef6080830186611856565b6118fc60a0830185611856565b61190960c0830184611856565b98975050505050505050565b600060e08201905061192a600083018a61159e565b818103602083015261193c81896115ad565b90508181036040830152611950818861160b565b90508181036060830152611964818761160b565b9050611973608083018661159e565b81810360a08301526119858185611678565b905061199460c083018461181a565b98975050505050505050565b60006040820190506119b5600083018561159e565b6119c26020830184611856565b9392505050565b60006020820190506119de6000830184611669565b92915050565b60006020820190506119f960008301846116e2565b92915050565b6000602082019050611a1460008301846116f1565b92915050565b60006020820190508181036000830152611a3381611700565b9050919050565b60006020820190508181036000830152611a5381611723565b9050919050565b60006020820190508181036000830152611a7381611746565b9050919050565b600061010082019050611a906000830184611769565b92915050565b6000602082019050611aab6000830184611856565b92915050565b600060a082019050611ac66000830188611856565b611ad36020830187611856565b8181036040830152611ae581866115ad565b9050611af4606083018561159e565b611b016080830184611856565b9695505050505050565b6000611b15611b26565b9050611b218282611d5b565b919050565b6000604051905090565b600067ffffffffffffffff821115611b4b57611b4a611e04565b5b602082029050602081019050919050565b6000819050602082019050919050565b6000819050602082019050919050565b600081519050919050565b600081519050919050565b600081519050919050565b6000602082019050919050565b6000602082019050919050565b600082825260208201905092915050565b600082825260208201905092915050565b600082825260208201905092915050565b600081905092915050565b600082825260208201905092915050565b6000611c1182611cc9565b9150611c1c83611cc9565b9250827fffffffffffffffffffffffffffffffffffffffffffffffffffffffffffffffff03821115611c5157611c50611dd5565b5b828201905092915050565b6000611c6782611c9a565b9050919050565b6000611c7982611c9a565b9050919050565b60008115159050919050565b600061ffff82169050919050565b600073ffffffffffffffffffffffffffffffffffffffff82169050919050565b600062ffffff82169050919050565b6000819050919050565b600060ff82169050919050565b6000611ceb82611cf2565b9050919050565b6000611cfd82611c9a565b9050919050565b6000611d0f82611d16565b9050919050565b6000611d2182611c9a565b9050919050565b60005b83811015611d46578082015181840152602081019050611d2b565b83811115611d55576000848401525b50505050565b611d6482611e33565b810181811067ffffffffffffffff82111715611d8357611d82611e04565b5b80604052505050565b6000611d9782611cc9565b91507fffffffffffffffffffffffffffffffffffffffffffffffffffffffffffffffff821415611dca57611dc9611dd5565b5b600182019050919050565b7f4e487b7100000000000000000000000000000000000000000000000000000000600052601160045260246000fd5b7f4e487b7100000000000000000000000000000000000000000000000000000000600052604160045260246000fd5b6000601f19601f8301169050919050565b7f5341000000000000000000000000000000000000000000000000000000000000600082015250565b7f5354000000000000000000000000000000000000000000000000000000000000600082015250565b7f436f6e747261637420646f6573206e6f74206861766520455243323020746f6b60008201527f656e2e0000000000000000000000000000000000000000000000000000000000602082015250565b611eee81611c5c565b8114611ef957600080fd5b50565b611f0581611c6e565b8114611f1057600080fd5b50565b611f1c81611c80565b8114611f2757600080fd5b50565b611f3381611cba565b8114611f3e57600080fd5b50565b611f4a81611cc9565b8114611f5557600080fd5b50565b611f6181611cd3565b8114611f6c57600080fd5b5056fea2646970667358221220df1dc0a9bc23406a8ab49f70bc8c68e430b137d02e2a923f877689b0757ddef064736f6c63430008010033",
  "linkReferences": {},
  "deployedLinkReferences": {}
}