{
  "_format": "hh-sol-artifact-1",
  "contractName": "AaveFlashLoan",
  "sourceName": "contracts/AaveFlashLoan.sol",
  "abi": [
    {
      "inputs": [
        {
          "internalType": "contract ILendingPoolAddressesProvider",
          "name": "_addressProvider",
          "type": "address"
        }
      ],
      "stateMutability": "nonpayable",
      "type": "constructor"
    },
    {
      "inputs": [],
      "name": "ADDRESSES_PROVIDER",
      "outputs": [
        {
          "internalType": "contract ILendingPoolAddressesProvider",
          "name": "",
          "type": "address"
        }
      ],
      "stateMutability": "view",
      "type": "function"
    },
    {
      "inputs": [],
      "name": "LENDING_POOL",
      "outputs": [
        {
          "internalType": "contract ILendingPool",
          "name": "",
          "type": "address"
        }
      ],
      "stateMutability": "view",
      "type": "function"
    },
    {
      "inputs": [
        {
          "internalType": "address[]",
          "name": "assets",
          "type": "address[]"
        },
        {
          "internalType": "uint256[]",
          "name": "amounts",
          "type": "uint256[]"
        },
        {
          "internalType": "uint256[]",
          "name": "premiums",
          "type": "uint256[]"
        },
        {
          "internalType": "address",
          "name": "initiator",
          "type": "address"
        },
        {
          "internalType": "bytes",
          "name": "params",
          "type": "bytes"
        }
      ],
      "name": "executeOperation",
      "outputs": [
        {
          "internalType": "bool",
          "name": "",
          "type": "bool"
        }
      ],
      "stateMutability": "nonpayable",
      "type": "function"
    },
    {
      "inputs": [
        {
          "internalType": "address",
          "name": "token0",
          "type": "address"
        },
        {
          "internalType": "address",
          "name": "token1",
          "type": "address"
        },
        {
          "internalType": "uint8",
          "name": "direction",
          "type": "uint8"
        },
        {
          "internalType": "uint24",
          "name": "poolFee",
          "type": "uint24"
        },
        {
          "internalType": "uint256",
          "name": "amountIn",
          "type": "uint256"
        },
        {
          "internalType": "uint256",
          "name": "amountOut",
          "type": "uint256"
        },
        {
          "internalType": "uint256",
          "name": "deadline",
          "type": "uint256"
        }
      ],
      "name": "myFlashLoanCall",
      "outputs": [],
      "stateMutability": "nonpayable",
      "type": "function"
    },
    {
      "inputs": [],
      "name": "owner",
      "outputs": [
        {
          "internalType": "address",
          "name": "",
          "type": "address"
        }
      ],
      "stateMutability": "view",
      "type": "function"
    },
    {
      "inputs": [],
      "name": "provider",
      "outputs": [
        {
          "internalType": "contract ILendingPoolAddressesProvider",
          "name": "",
          "type": "address"
        }
      ],
      "stateMutability": "view",
      "type": "function"
    },
    {
      "inputs": [
        {
          "internalType": "address",
          "name": "newOwner",
          "type": "address"
        }
      ],
      "name": "transferOwnership",
      "outputs": [],
      "stateMutability": "nonpayable",
      "type": "function"
    },
    {
      "inputs": [
        {
          "internalType": "address",
          "name": "token",
          "type": "address"
        }
      ],
      "name": "withdrawERC20Token",
      "outputs": [
        {
          "internalType": "uint256",
          "name": "currentAmount",
          "type": "uint256"
        }
      ],
      "stateMutability": "nonpayable",
      "type": "function"
    }
  ],
  "bytecode": "0x60e06040523480156200001157600080fd5b5060405162002249380380620022498339818101604052810190620000379190620002dd565b808073ffffffffffffffffffffffffffffffffffffffff1660808173ffffffffffffffffffffffffffffffffffffffff16815250508073ffffffffffffffffffffffffffffffffffffffff16630261bf8b6040518163ffffffff1660e01b8152600401602060405180830381865afa158015620000b8573d6000803e3d6000fd5b505050506040513d601f19601f82011682018060405250810190620000de919062000340565b73ffffffffffffffffffffffffffffffffffffffff1660a08173ffffffffffffffffffffffffffffffffffffffff168152505050806000806101000a81548173ffffffffffffffffffffffffffffffffffffffff021916908373ffffffffffffffffffffffffffffffffffffffff16021790555060008054906101000a900473ffffffffffffffffffffffffffffffffffffffff1673ffffffffffffffffffffffffffffffffffffffff16630261bf8b6040518163ffffffff1660e01b8152600401602060405180830381865afa158015620001be573d6000803e3d6000fd5b505050506040513d601f19601f82011682018060405250810190620001e4919062000340565b73ffffffffffffffffffffffffffffffffffffffff1660c08173ffffffffffffffffffffffffffffffffffffffff168152505033600160006101000a81548173ffffffffffffffffffffffffffffffffffffffff021916908373ffffffffffffffffffffffffffffffffffffffff1602179055505062000372565b600080fd5b600073ffffffffffffffffffffffffffffffffffffffff82169050919050565b6000620002918262000264565b9050919050565b6000620002a58262000284565b9050919050565b620002b78162000298565b8114620002c357600080fd5b50565b600081519050620002d781620002ac565b92915050565b600060208284031215620002f657620002f56200025f565b5b60006200030684828501620002c6565b91505092915050565b6200031a8162000284565b81146200032657600080fd5b50565b6000815190506200033a816200030f565b92915050565b6000602082840312156200035957620003586200025f565b5b6000620003698482850162000329565b91505092915050565b60805160a05160c051611e9c620003ad60003960005050600081816103e10152818161042e01526106640152600061019f0152611e9c6000f3fe608060405234801561001057600080fd5b50600436106100885760003560e01c8063920f5c841161005b578063920f5c8414610117578063b4dcfc7714610147578063c2d2220714610165578063f2fde38b1461018157610088565b80630542975c1461008d578063085d4883146100ab5780633bdebbe1146100c95780638da5cb5b146100f9575b600080fd5b61009561019d565b6040516100a29190610f37565b60405180910390f35b6100b36101c1565b6040516100c09190610f37565b60405180910390f35b6100e360048036038101906100de9190610fa4565b6101e5565b6040516100f09190610fea565b60405180910390f35b610101610332565b60405161010e9190611014565b60405180910390f35b610131600480360381019061012c9190611140565b610358565b60405161013e9190611257565b60405180910390f35b61014f61042c565b60405161015c9190611293565b60405180910390f35b61017f600480360381019061017a919061134e565b610450565b005b61019b60048036038101906101969190610fa4565b610709565b005b7f000000000000000000000000000000000000000000000000000000000000000081565b60008054906101000a900473ffffffffffffffffffffffffffffffffffffffff1681565b6000600160009054906101000a900473ffffffffffffffffffffffffffffffffffffffff1673ffffffffffffffffffffffffffffffffffffffff163373ffffffffffffffffffffffffffffffffffffffff161461024157600080fd5b8173ffffffffffffffffffffffffffffffffffffffff166370a08231306040518263ffffffff1660e01b815260040161027a9190611014565b602060405180830381865afa158015610297573d6000803e3d6000fd5b505050506040513d601f19601f820116820180604052508101906102bb9190611405565b905060008111610300576040517f08c379a00000000000000000000000000000000000000000000000000000000081526004016102f7906114b5565b60405180910390fd5b61032d82600160009054906101000a900473ffffffffffffffffffffffffffffffffffffffff16836107a7565b919050565b600160009054906101000a900473ffffffffffffffffffffffffffffffffffffffff1681565b600061036483836108fc565b60005b8a8a905081101561041a576000878783818110610387576103866114d5565b5b905060200201358a8a848181106103a1576103a06114d5565b5b905060200201356103b29190611533565b90506104068c8c848181106103ca576103c96114d5565b5b90506020020160208101906103df9190610fa4565b7f000000000000000000000000000000000000000000000000000000000000000083610b27565b50808061041290611589565b915050610367565b50600190509998505050505050505050565b7f000000000000000000000000000000000000000000000000000000000000000081565b600160009054906101000a900473ffffffffffffffffffffffffffffffffffffffff1673ffffffffffffffffffffffffffffffffffffffff163373ffffffffffffffffffffffffffffffffffffffff16146104aa57600080fd5b60003090506000600167ffffffffffffffff8111156104cc576104cb6115d2565b5b6040519080825280602002602001820160405280156104fa5781602001602082028036833780820191505090505b5090508881600081518110610512576105116114d5565b5b602002602001019073ffffffffffffffffffffffffffffffffffffffff16908173ffffffffffffffffffffffffffffffffffffffff16815250506000600167ffffffffffffffff811115610569576105686115d2565b5b6040519080825280602002602001820160405280156105975781602001602082028036833780820191505090505b50905085816000815181106105af576105ae6114d5565b5b6020026020010181815250506000600167ffffffffffffffff8111156105d8576105d76115d2565b5b6040519080825280602002602001820160405280156106065781602001602082028036833780820191505090505b50905060008160008151811061061f5761061e6114d5565b5b602002602001018181525050600030905060008c8c8c8c8c8c8c60405160200161064f979695949392919061161f565b604051602081830303815290604052905060007f000000000000000000000000000000000000000000000000000000000000000073ffffffffffffffffffffffffffffffffffffffff1663ab9c4b5d888888888888886040518863ffffffff1660e01b81526004016106c797969594939291906118c0565b600060405180830381600087803b1580156106e157600080fd5b505af11580156106f5573d6000803e3d6000fd5b505050505050505050505050505050505050565b600160009054906101000a900473ffffffffffffffffffffffffffffffffffffffff1673ffffffffffffffffffffffffffffffffffffffff163373ffffffffffffffffffffffffffffffffffffffff161461076357600080fd5b80600160006101000a81548173ffffffffffffffffffffffffffffffffffffffff021916908373ffffffffffffffffffffffffffffffffffffffff16021790555050565b6000808473ffffffffffffffffffffffffffffffffffffffff1663a9059cbb60e01b85856040516024016107dc92919061194b565b604051602081830303815290604052907bffffffffffffffffffffffffffffffffffffffffffffffffffffffff19166020820180517bffffffffffffffffffffffffffffffffffffffffffffffffffffffff838183161783525050505060405161084691906119b0565b6000604051808303816000865af19150503d8060008114610883576040519150601f19603f3d011682016040523d82523d6000602084013e610888565b606091505b50915091508180156108b657506000815114806108b55750808060200190518101906108b491906119f3565b5b5b6108f5576040517f08c379a00000000000000000000000000000000000000000000000000000000081526004016108ec90611a6c565b60405180910390fd5b5050505050565b600080600080600080600088888101906109169190611aca565b96509650965096509650965096506000600267ffffffffffffffff811115610941576109406115d2565b5b60405190808252806020026020018201604052801561096f5781602001602082028036833780820191505090505b50905060018660ff161415610a4157600061098d85858b8b8a610c7c565b905087826000815181106109a4576109a36114d5565b5b602002602001019073ffffffffffffffffffffffffffffffffffffffff16908173ffffffffffffffffffffffffffffffffffffffff168152505088826001815181106109f3576109f26114d5565b5b602002602001019073ffffffffffffffffffffffffffffffffffffffff16908173ffffffffffffffffffffffffffffffffffffffff1681525050610a3a8160008486610dd5565b5050610b1b565b8781600081518110610a5657610a556114d5565b5b602002602001019073ffffffffffffffffffffffffffffffffffffffff16908173ffffffffffffffffffffffffffffffffffffffff16815250508681600181518110610aa557610aa46114d5565b5b602002602001019073ffffffffffffffffffffffffffffffffffffffff16908173ffffffffffffffffffffffffffffffffffffffff16815250506000610aed85858486610dd5565b9050610b1881600181518110610b0657610b056114d5565b5b602002602001015160008a8c8a610c7c565b50505b50505050505050505050565b6000808473ffffffffffffffffffffffffffffffffffffffff1663095ea7b360e01b8585604051602401610b5c92919061194b565b604051602081830303815290604052907bffffffffffffffffffffffffffffffffffffffffffffffffffffffff19166020820180517bffffffffffffffffffffffffffffffffffffffffffffffffffffffff8381831617835250505050604051610bc691906119b0565b6000604051808303816000865af19150503d8060008114610c03576040519150601f19603f3d011682016040523d82523d6000602084013e610c08565b606091505b5091509150818015610c365750600081511480610c35575080806020019051810190610c3491906119f3565b5b5b610c75576040517f08c379a0000000000000000000000000000000000000000000000000000000008152600401610c6c90611bb8565b60405180910390fd5b5050505050565b6000610c9d8473e592427a0aece92de3edee1f18e0157c0586156488610b27565b60006040518061010001604052808673ffffffffffffffffffffffffffffffffffffffff1681526020018573ffffffffffffffffffffffffffffffffffffffff1681526020018462ffffff1681526020013073ffffffffffffffffffffffffffffffffffffffff168152602001428152602001888152602001878152602001600073ffffffffffffffffffffffffffffffffffffffff16815250905073e592427a0aece92de3edee1f18e0157c0586156473ffffffffffffffffffffffffffffffffffffffff1663414bf389826040518263ffffffff1660e01b8152600401610d869190611c98565b6020604051808303816000875af1158015610da5573d6000803e3d6000fd5b505050506040513d601f19601f82011682018060405250810190610dc99190611405565b91505095945050505050565b6060610e1183600081518110610dee57610ded6114d5565b5b6020026020010151731b02da8cb0d097eb8d57a175b88c7d8b4799750687610b27565b731b02da8cb0d097eb8d57a175b88c7d8b4799750673ffffffffffffffffffffffffffffffffffffffff166338ed173986868630876040518663ffffffff1660e01b8152600401610e66959493929190611cb4565b6000604051808303816000875af1158015610e85573d6000803e3d6000fd5b505050506040513d6000823e3d601f19601f82011682018060405250810190610eae9190611e1d565b9050949350505050565b600073ffffffffffffffffffffffffffffffffffffffff82169050919050565b6000819050919050565b6000610efd610ef8610ef384610eb8565b610ed8565b610eb8565b9050919050565b6000610f0f82610ee2565b9050919050565b6000610f2182610f04565b9050919050565b610f3181610f16565b82525050565b6000602082019050610f4c6000830184610f28565b92915050565b6000604051905090565b600080fd5b600080fd5b6000610f7182610eb8565b9050919050565b610f8181610f66565b8114610f8c57600080fd5b50565b600081359050610f9e81610f78565b92915050565b600060208284031215610fba57610fb9610f5c565b5b6000610fc884828501610f8f565b91505092915050565b6000819050919050565b610fe481610fd1565b82525050565b6000602082019050610fff6000830184610fdb565b92915050565b61100e81610f66565b82525050565b60006020820190506110296000830184611005565b92915050565b600080fd5b600080fd5b600080fd5b60008083601f8401126110545761105361102f565b5b8235905067ffffffffffffffff81111561107157611070611034565b5b60208301915083602082028301111561108d5761108c611039565b5b9250929050565b60008083601f8401126110aa576110a961102f565b5b8235905067ffffffffffffffff8111156110c7576110c6611034565b5b6020830191508360208202830111156110e3576110e2611039565b5b9250929050565b60008083601f840112611100576110ff61102f565b5b8235905067ffffffffffffffff81111561111d5761111c611034565b5b60208301915083600182028301111561113957611138611039565b5b9250929050565b600080600080600080600080600060a08a8c03121561116257611161610f5c565b5b60008a013567ffffffffffffffff8111156111805761117f610f61565b5b61118c8c828d0161103e565b995099505060208a013567ffffffffffffffff8111156111af576111ae610f61565b5b6111bb8c828d01611094565b975097505060408a013567ffffffffffffffff8111156111de576111dd610f61565b5b6111ea8c828d01611094565b955095505060606111fd8c828d01610f8f565b93505060808a013567ffffffffffffffff81111561121e5761121d610f61565b5b61122a8c828d016110ea565b92509250509295985092959850929598565b60008115159050919050565b6112518161123c565b82525050565b600060208201905061126c6000830184611248565b92915050565b600061127d82610f04565b9050919050565b61128d81611272565b82525050565b60006020820190506112a86000830184611284565b92915050565b600060ff82169050919050565b6112c4816112ae565b81146112cf57600080fd5b50565b6000813590506112e1816112bb565b92915050565b600062ffffff82169050919050565b6112ff816112e7565b811461130a57600080fd5b50565b60008135905061131c816112f6565b92915050565b61132b81610fd1565b811461133657600080fd5b50565b60008135905061134881611322565b92915050565b600080600080600080600060e0888a03121561136d5761136c610f5c565b5b600061137b8a828b01610f8f565b975050602061138c8a828b01610f8f565b965050604061139d8a828b016112d2565b95505060606113ae8a828b0161130d565b94505060806113bf8a828b01611339565b93505060a06113d08a828b01611339565b92505060c06113e18a828b01611339565b91505092959891949750929550565b6000815190506113ff81611322565b92915050565b60006020828403121561141b5761141a610f5c565b5b6000611429848285016113f0565b91505092915050565b600082825260208201905092915050565b7f436f6e747261637420646f6573206e6f742068617665207468652070726f766960008201527f64656420455243323020746f6b656e2e00000000000000000000000000000000602082015250565b600061149f603083611432565b91506114aa82611443565b604082019050919050565b600060208201905081810360008301526114ce81611492565b9050919050565b7f4e487b7100000000000000000000000000000000000000000000000000000000600052603260045260246000fd5b7f4e487b7100000000000000000000000000000000000000000000000000000000600052601160045260246000fd5b600061153e82610fd1565b915061154983610fd1565b9250827fffffffffffffffffffffffffffffffffffffffffffffffffffffffffffffffff0382111561157e5761157d611504565b5b828201905092915050565b600061159482610fd1565b91507fffffffffffffffffffffffffffffffffffffffffffffffffffffffffffffffff8214156115c7576115c6611504565b5b600182019050919050565b7f4e487b7100000000000000000000000000000000000000000000000000000000600052604160045260246000fd5b61160a816112ae565b82525050565b611619816112e7565b82525050565b600060e082019050611634600083018a611005565b6116416020830189611005565b61164e6040830188611601565b61165b6060830187611610565b6116686080830186610fdb565b61167560a0830185610fdb565b61168260c0830184610fdb565b98975050505050505050565b600081519050919050565b600082825260208201905092915050565b6000819050602082019050919050565b6116c381610f66565b82525050565b60006116d583836116ba565b60208301905092915050565b6000602082019050919050565b60006116f98261168e565b6117038185611699565b935061170e836116aa565b8060005b8381101561173f57815161172688826116c9565b9750611731836116e1565b925050600181019050611712565b5085935050505092915050565b600081519050919050565b600082825260208201905092915050565b6000819050602082019050919050565b61178181610fd1565b82525050565b60006117938383611778565b60208301905092915050565b6000602082019050919050565b60006117b78261174c565b6117c18185611757565b93506117cc83611768565b8060005b838110156117fd5781516117e48882611787565b97506117ef8361179f565b9250506001810190506117d0565b5085935050505092915050565b600081519050919050565b600082825260208201905092915050565b60005b83811015611844578082015181840152602081019050611829565b83811115611853576000848401525b50505050565b6000601f19601f8301169050919050565b60006118758261180a565b61187f8185611815565b935061188f818560208601611826565b61189881611859565b840191505092915050565b600061ffff82169050919050565b6118ba816118a3565b82525050565b600060e0820190506118d5600083018a611005565b81810360208301526118e781896116ee565b905081810360408301526118fb81886117ac565b9050818103606083015261190f81876117ac565b905061191e6080830186611005565b81810360a0830152611930818561186a565b905061193f60c08301846118b1565b98975050505050505050565b60006040820190506119606000830185611005565b61196d6020830184610fdb565b9392505050565b600081905092915050565b600061198a8261180a565b6119948185611974565b93506119a4818560208601611826565b80840191505092915050565b60006119bc828461197f565b915081905092915050565b6119d08161123c565b81146119db57600080fd5b50565b6000815190506119ed816119c7565b92915050565b600060208284031215611a0957611a08610f5c565b5b6000611a17848285016119de565b91505092915050565b7f5354000000000000000000000000000000000000000000000000000000000000600082015250565b6000611a56600283611432565b9150611a6182611a20565b602082019050919050565b60006020820190508181036000830152611a8581611a49565b9050919050565b6000611a9782610eb8565b9050919050565b611aa781611a8c565b8114611ab257600080fd5b50565b600081359050611ac481611a9e565b92915050565b600080600080600080600060e0888a031215611ae957611ae8610f5c565b5b6000611af78a828b01611ab5565b9750506020611b088a828b01611ab5565b9650506040611b198a828b016112d2565b9550506060611b2a8a828b0161130d565b9450506080611b3b8a828b01611339565b93505060a0611b4c8a828b01611339565b92505060c0611b5d8a828b01611339565b91505092959891949750929550565b7f5341000000000000000000000000000000000000000000000000000000000000600082015250565b6000611ba2600283611432565b9150611bad82611b6c565b602082019050919050565b60006020820190508181036000830152611bd181611b95565b9050919050565b611be1816112e7565b82525050565b611bf081610eb8565b82525050565b61010082016000820151611c0d60008501826116ba565b506020820151611c2060208501826116ba565b506040820151611c336040850182611bd8565b506060820151611c4660608501826116ba565b506080820151611c596080850182611778565b5060a0820151611c6c60a0850182611778565b5060c0820151611c7f60c0850182611778565b5060e0820151611c9260e0850182611be7565b50505050565b600061010082019050611cae6000830184611bf6565b92915050565b600060a082019050611cc96000830188610fdb565b611cd66020830187610fdb565b8181036040830152611ce881866116ee565b9050611cf76060830185611005565b611d046080830184610fdb565b9695505050505050565b611d1782611859565b810181811067ffffffffffffffff82111715611d3657611d356115d2565b5b80604052505050565b6000611d49610f52565b9050611d558282611d0e565b919050565b600067ffffffffffffffff821115611d7557611d746115d2565b5b602082029050602081019050919050565b6000611d99611d9484611d5a565b611d3f565b90508083825260208201905060208402830185811115611dbc57611dbb611039565b5b835b81811015611de55780611dd188826113f0565b845260208401935050602081019050611dbe565b5050509392505050565b600082601f830112611e0457611e0361102f565b5b8151611e14848260208601611d86565b91505092915050565b600060208284031215611e3357611e32610f5c565b5b600082015167ffffffffffffffff811115611e5157611e50610f61565b5b611e5d84828501611def565b9150509291505056fea26469706673582212209381368decce8c38cc09a56909360254327870fc875af812bd7bf66e5ff6f27d64736f6c634300080a0033",
  "linkReferences": {},
  "deployedLinkReferences": {}
}