{
  "_format": "hh-sol-artifact-1",
  "contractName": "AaveFlashLoan",
  "sourceName": "contracts/AaveFlashLoan.sol",
  "abi": [
    {
      "inputs": [
        {
          "internalType": "contract ILendingPoolAddressesProvider",
          "name": "_addressProvider",
          "type": "address"
        }
      ],
      "stateMutability": "nonpayable",
      "type": "constructor"
    },
    {
      "inputs": [],
      "name": "ADDRESSES_PROVIDER",
      "outputs": [
        {
          "internalType": "contract ILendingPoolAddressesProvider",
          "name": "",
          "type": "address"
        }
      ],
      "stateMutability": "view",
      "type": "function"
    },
    {
      "inputs": [],
      "name": "LENDING_POOL",
      "outputs": [
        {
          "internalType": "contract ILendingPool",
          "name": "",
          "type": "address"
        }
      ],
      "stateMutability": "view",
      "type": "function"
    },
    {
      "inputs": [
        {
          "internalType": "address[]",
          "name": "assets",
          "type": "address[]"
        },
        {
          "internalType": "uint256[]",
          "name": "amounts",
          "type": "uint256[]"
        },
        {
          "internalType": "uint256[]",
          "name": "premiums",
          "type": "uint256[]"
        },
        {
          "internalType": "address",
          "name": "initiator",
          "type": "address"
        },
        {
          "internalType": "bytes",
          "name": "params",
          "type": "bytes"
        }
      ],
      "name": "executeOperation",
      "outputs": [
        {
          "internalType": "bool",
          "name": "",
          "type": "bool"
        }
      ],
      "stateMutability": "nonpayable",
      "type": "function"
    },
    {
      "inputs": [
        {
          "internalType": "address",
          "name": "token0",
          "type": "address"
        },
        {
          "internalType": "address",
          "name": "token1",
          "type": "address"
        },
        {
          "internalType": "uint8",
          "name": "direction",
          "type": "uint8"
        },
        {
          "internalType": "uint24",
          "name": "poolFee",
          "type": "uint24"
        },
        {
          "internalType": "uint256",
          "name": "amountIn",
          "type": "uint256"
        },
        {
          "internalType": "uint256",
          "name": "amountOut",
          "type": "uint256"
        },
        {
          "internalType": "uint256",
          "name": "deadline",
          "type": "uint256"
        }
      ],
      "name": "myFlashLoanCall",
      "outputs": [],
      "stateMutability": "nonpayable",
      "type": "function"
    },
    {
      "inputs": [],
      "name": "provider",
      "outputs": [
        {
          "internalType": "contract ILendingPoolAddressesProvider",
          "name": "",
          "type": "address"
        }
      ],
      "stateMutability": "view",
      "type": "function"
    }
  ],
  "bytecode": "0x60c060405273e592427a0aece92de3edee1f18e0157c0586156460405162000027906200036b565b6200003391906200042f565b604051809103906000f08015801562000050573d6000803e3d6000fd5b50600260006101000a81548173ffffffffffffffffffffffffffffffffffffffff021916908373ffffffffffffffffffffffffffffffffffffffff160217905550737a250d5630b4cf539739df2c5dacb4c659f2488d604051620000b49062000379565b620000c091906200044c565b604051809103906000f080158015620000dd573d6000803e3d6000fd5b50600360006101000a81548173ffffffffffffffffffffffffffffffffffffffff021916908373ffffffffffffffffffffffffffffffffffffffff1602179055503480156200012b57600080fd5b506040516200406b3803806200406b8339818101604052810190620001519190620003e1565b808073ffffffffffffffffffffffffffffffffffffffff1660808173ffffffffffffffffffffffffffffffffffffffff1660601b815250508073ffffffffffffffffffffffffffffffffffffffff16630261bf8b6040518163ffffffff1660e01b815260040160206040518083038186803b158015620001d057600080fd5b505afa158015620001e5573d6000803e3d6000fd5b505050506040513d601f19601f820116820180604052508101906200020b9190620003b5565b73ffffffffffffffffffffffffffffffffffffffff1660a08173ffffffffffffffffffffffffffffffffffffffff1660601b8152505050806000806101000a81548173ffffffffffffffffffffffffffffffffffffffff021916908373ffffffffffffffffffffffffffffffffffffffff16021790555060008054906101000a900473ffffffffffffffffffffffffffffffffffffffff1673ffffffffffffffffffffffffffffffffffffffff16630261bf8b6040518163ffffffff1660e01b815260040160206040518083038186803b158015620002e957600080fd5b505afa158015620002fe573d6000803e3d6000fd5b505050506040513d601f19601f82011682018060405250810190620003249190620003b5565b600160006101000a81548173ffffffffffffffffffffffffffffffffffffffff021916908373ffffffffffffffffffffffffffffffffffffffff1602179055505062000535565b610b8e806200269283390190565b610e4b806200322083390190565b600081519050620003988162000501565b92915050565b600081519050620003af816200051b565b92915050565b600060208284031215620003c857600080fd5b6000620003d88482850162000387565b91505092915050565b600060208284031215620003f457600080fd5b600062000404848285016200039e565b91505092915050565b6200041881620004b1565b82525050565b6200042981620004d9565b82525050565b60006020820190506200044660008301846200040d565b92915050565b60006020820190506200046360008301846200041e565b92915050565b6000620004768262000491565b9050919050565b60006200048a8262000469565b9050919050565b600073ffffffffffffffffffffffffffffffffffffffff82169050919050565b6000620004be82620004c5565b9050919050565b6000620004d28262000491565b9050919050565b6000620004e682620004ed565b9050919050565b6000620004fa8262000491565b9050919050565b6200050c8162000469565b81146200051857600080fd5b50565b62000526816200047d565b81146200053257600080fd5b50565b60805160601c60a05160601c6121236200056f600039600081816102450152818161029201526105520152600061010401526121236000f3fe608060405234801561001057600080fd5b50600436106100575760003560e01c80630542975c1461005c578063085d48831461007a578063920f5c8414610098578063b4dcfc77146100c8578063c2d22207146100e6575b600080fd5b610064610102565b6040516100719190611af7565b60405180910390f35b610082610126565b60405161008f9190611af7565b60405180910390f35b6100b260048036038101906100ad919061156f565b61014a565b6040516100bf9190611adc565b60405180910390f35b6100d0610290565b6040516100dd9190611b12565b60405180910390f35b61010060048036038101906100fb91906114d1565b6102b4565b005b7f000000000000000000000000000000000000000000000000000000000000000081565b60008054906101000a900473ffffffffffffffffffffffffffffffffffffffff1681565b600061015683836105f7565b60005b8a8a905081101561027e57600087878381811061019f577f4e487b7100000000000000000000000000000000000000000000000000000000600052603260045260246000fd5b905060200201358a8a848181106101df577f4e487b7100000000000000000000000000000000000000000000000000000000600052603260045260246000fd5b905060200201356101f09190611dea565b905061026a8c8c8481811061022e577f4e487b7100000000000000000000000000000000000000000000000000000000600052603260045260246000fd5b90506020020160208101906102439190611381565b7f000000000000000000000000000000000000000000000000000000000000000083610726565b50808061027690611f82565b915050610159565b50600190509998505050505050505050565b7f000000000000000000000000000000000000000000000000000000000000000081565b60003090506000600167ffffffffffffffff8111156102fc577f4e487b7100000000000000000000000000000000000000000000000000000000600052604160045260246000fd5b60405190808252806020026020018201604052801561032a5781602001602082028036833780820191505090505b5090508881600081518110610368577f4e487b7100000000000000000000000000000000000000000000000000000000600052603260045260246000fd5b602002602001019073ffffffffffffffffffffffffffffffffffffffff16908173ffffffffffffffffffffffffffffffffffffffff16815250506000600167ffffffffffffffff8111156103e5577f4e487b7100000000000000000000000000000000000000000000000000000000600052604160045260246000fd5b6040519080825280602002602001820160405280156104135781602001602082028036833780820191505090505b5090508581600081518110610451577f4e487b7100000000000000000000000000000000000000000000000000000000600052603260045260246000fd5b6020026020010181815250506000600167ffffffffffffffff8111156104a0577f4e487b7100000000000000000000000000000000000000000000000000000000600052604160045260246000fd5b6040519080825280602002602001820160405280156104ce5781602001602082028036833780820191505090505b50905060008160008151811061050d577f4e487b7100000000000000000000000000000000000000000000000000000000600052603260045260246000fd5b602002602001018181525050600030905060008c8c8c8c8c8c8c60405160200161053d97969594939291906119b9565b604051602081830303815290604052905060007f000000000000000000000000000000000000000000000000000000000000000073ffffffffffffffffffffffffffffffffffffffff1663ab9c4b5d888888888888886040518863ffffffff1660e01b81526004016105b59796959493929190611a28565b600060405180830381600087803b1580156105cf57600080fd5b505af11580156105e3573d6000803e3d6000fd5b505050505050505050505050505050505050565b600080600080600080600088888101906106119190611433565b9650965096509650965096509650600087878686868660405160200161063c96959493929190611958565b604051602081830303815290604052905060018660ff1614156106765760006106648261087b565b905061067082826109dc565b5061071a565b600061068182610c60565b90506106cd816001815181106106c0577f4e487b7100000000000000000000000000000000000000000000000000000000600052603260045260246000fd5b6020026020010151610ede565b610718828260018151811061070b577f4e487b7100000000000000000000000000000000000000000000000000000000600052603260045260246000fd5b6020026020010151610f77565b505b50505050505050505050565b6000808473ffffffffffffffffffffffffffffffffffffffff1663095ea7b360e01b858560405160240161075b929190611ab3565b604051602081830303815290604052907bffffffffffffffffffffffffffffffffffffffffffffffffffffffff19166020820180517bffffffffffffffffffffffffffffffffffffffffffffffffffffffff83818316178352505050506040516107c59190611941565b6000604051808303816000865af19150503d8060008114610802576040519150601f19603f3d011682016040523d82523d6000602084013e610807565b606091505b509150915081801561083557506000815114806108345750808060200190518101906108339190611698565b5b5b610874576040517f08c379a000000000000000000000000000000000000000000000000000000000815260040161086b90611b4f565b60405180910390fd5b5050505050565b60008060008060008060008780602001905181019061089a91906113aa565b9550955095509550955095506108d386600260009054906101000a900473ffffffffffffffffffffffffffffffffffffffff1685610726565b600260009054906101000a900473ffffffffffffffffffffffffffffffffffffffff1673ffffffffffffffffffffffffffffffffffffffff1663d3b2a39984848989896040518663ffffffff1660e01b8152600401610936959493929190611c37565b602060405180830381600087803b15801561095057600080fd5b505af1158015610964573d6000803e3d6000fd5b505050506040513d601f19601f8201168201806040525081019061098891906116c1565b96506109c86040518060400160405280601f81526020017f496e7369646520556e69537761702053696e676c6520537761702043616c6c0081525061108e565b6109d187610ede565b505050505050919050565b600080600080600080878060200190518101906109f991906113aa565b955095509550955095509550610a3285600360009054906101000a900473ffffffffffffffffffffffffffffffffffffffff1689610726565b6000600267ffffffffffffffff811115610a75577f4e487b7100000000000000000000000000000000000000000000000000000000600052604160045260246000fd5b604051908082528060200260200182016040528015610aa35781602001602082028036833780820191505090505b5090508581600081518110610ae1577f4e487b7100000000000000000000000000000000000000000000000000000000600052603260045260246000fd5b602002602001019073ffffffffffffffffffffffffffffffffffffffff16908173ffffffffffffffffffffffffffffffffffffffff16815250508681600181518110610b56577f4e487b7100000000000000000000000000000000000000000000000000000000600052603260045260246000fd5b602002602001019073ffffffffffffffffffffffffffffffffffffffff16908173ffffffffffffffffffffffffffffffffffffffff1681525050610b9988610ede565b600360009054906101000a900473ffffffffffffffffffffffffffffffffffffffff1673ffffffffffffffffffffffffffffffffffffffff1663d1b991f78960008430876040518663ffffffff1660e01b8152600401610bfd959493929190611bdd565b600060405180830381600087803b158015610c1757600080fd5b505af1158015610c2b573d6000803e3d6000fd5b505050506040513d6000823e3d601f19601f82011682018060405250810190610c549190611657565b50505050505050505050565b606060008060008060008087806020019051810190610c7f91906113aa565b955095509550955095509550610cb886600360009054906101000a900473ffffffffffffffffffffffffffffffffffffffff1685610726565b6000600267ffffffffffffffff811115610cfb577f4e487b7100000000000000000000000000000000000000000000000000000000600052604160045260246000fd5b604051908082528060200260200182016040528015610d295781602001602082028036833780820191505090505b5090508681600081518110610d67577f4e487b7100000000000000000000000000000000000000000000000000000000600052603260045260246000fd5b602002602001019073ffffffffffffffffffffffffffffffffffffffff16908173ffffffffffffffffffffffffffffffffffffffff16815250508581600181518110610ddc577f4e487b7100000000000000000000000000000000000000000000000000000000600052603260045260246000fd5b602002602001019073ffffffffffffffffffffffffffffffffffffffff16908173ffffffffffffffffffffffffffffffffffffffff1681525050600360009054906101000a900473ffffffffffffffffffffffffffffffffffffffff1673ffffffffffffffffffffffffffffffffffffffff1663d1b991f785858430876040518663ffffffff1660e01b8152600401610e79959493929190611c8a565b600060405180830381600087803b158015610e9357600080fd5b505af1158015610ea7573d6000803e3d6000fd5b505050506040513d6000823e3d601f19601f82011682018060405250810190610ed09190611657565b975050505050505050919050565b610f7481604051602401610ef29190611b6f565b6040516020818303038152906040527ff5b1bba9000000000000000000000000000000000000000000000000000000007bffffffffffffffffffffffffffffffffffffffffffffffffffffffff19166020820180517bffffffffffffffffffffffffffffffffffffffffffffffffffffffff8381831617835250505050611127565b50565b60008060008060008087806020019051810190610f9491906113aa565b955095509550955095509550610fcd85600260009054906101000a900473ffffffffffffffffffffffffffffffffffffffff1689610726565b600260009054906101000a900473ffffffffffffffffffffffffffffffffffffffff1673ffffffffffffffffffffffffffffffffffffffff1663d3b2a399886000888a896040518663ffffffff1660e01b8152600401611031959493929190611b8a565b602060405180830381600087803b15801561104b57600080fd5b505af115801561105f573d6000803e3d6000fd5b505050506040513d601f19601f8201168201806040525081019061108391906116c1565b505050505050505050565b611124816040516024016110a29190611b2d565b6040516020818303038152906040527f41304fac000000000000000000000000000000000000000000000000000000007bffffffffffffffffffffffffffffffffffffffffffffffffffffffff19166020820180517bffffffffffffffffffffffffffffffffffffffffffffffffffffffff8381831617835250505050611127565b50565b60008151905060006a636f6e736f6c652e6c6f679050602083016000808483855afa5050505050565b600061116361115e84611d09565b611ce4565b9050808382526020820190508285602086028201111561118257600080fd5b60005b858110156111b257816111988882611357565b845260208401935060208301925050600181019050611185565b5050509392505050565b6000813590506111cb81612063565b92915050565b6000813590506111e08161207a565b92915050565b6000815190506111f58161207a565b92915050565b60008083601f84011261120d57600080fd5b8235905067ffffffffffffffff81111561122657600080fd5b60208301915083602082028301111561123e57600080fd5b9250929050565b60008083601f84011261125757600080fd5b8235905067ffffffffffffffff81111561127057600080fd5b60208301915083602082028301111561128857600080fd5b9250929050565b600082601f8301126112a057600080fd5b81516112b0848260208601611150565b91505092915050565b6000815190506112c881612091565b92915050565b60008083601f8401126112e057600080fd5b8235905067ffffffffffffffff8111156112f957600080fd5b60208301915083600182028301111561131157600080fd5b9250929050565b600081359050611327816120a8565b92915050565b60008151905061133c816120a8565b92915050565b600081359050611351816120bf565b92915050565b600081519050611366816120bf565b92915050565b60008135905061137b816120d6565b92915050565b60006020828403121561139357600080fd5b60006113a1848285016111bc565b91505092915050565b60008060008060008060c087890312156113c357600080fd5b60006113d189828a016111e6565b96505060206113e289828a016111e6565b95505060406113f389828a0161132d565b945050606061140489828a01611357565b935050608061141589828a01611357565b92505060a061142689828a01611357565b9150509295509295509295565b600080600080600080600060e0888a03121561144e57600080fd5b600061145c8a828b016111d1565b975050602061146d8a828b016111d1565b965050604061147e8a828b0161136c565b955050606061148f8a828b01611318565b94505060806114a08a828b01611342565b93505060a06114b18a828b01611342565b92505060c06114c28a828b01611342565b91505092959891949750929550565b600080600080600080600060e0888a0312156114ec57600080fd5b60006114fa8a828b016111bc565b975050602061150b8a828b016111bc565b965050604061151c8a828b0161136c565b955050606061152d8a828b01611318565b945050608061153e8a828b01611342565b93505060a061154f8a828b01611342565b92505060c06115608a828b01611342565b91505092959891949750929550565b600080600080600080600080600060a08a8c03121561158d57600080fd5b60008a013567ffffffffffffffff8111156115a757600080fd5b6115b38c828d016111fb565b995099505060208a013567ffffffffffffffff8111156115d257600080fd5b6115de8c828d01611245565b975097505060408a013567ffffffffffffffff8111156115fd57600080fd5b6116098c828d01611245565b9550955050606061161c8c828d016111bc565b93505060808a013567ffffffffffffffff81111561163957600080fd5b6116458c828d016112ce565b92509250509295985092959850929598565b60006020828403121561166957600080fd5b600082015167ffffffffffffffff81111561168357600080fd5b61168f8482850161128f565b91505092915050565b6000602082840312156116aa57600080fd5b60006116b8848285016112b9565b91505092915050565b6000602082840312156116d357600080fd5b60006116e184828501611357565b91505092915050565b60006116f6838361171a565b60208301905092915050565b600061170e8383611914565b60208301905092915050565b61172381611e40565b82525050565b61173281611e40565b82525050565b600061174382611d55565b61174d8185611d9b565b935061175883611d35565b8060005b8381101561178957815161177088826116ea565b975061177b83611d81565b92505060018101905061175c565b5085935050505092915050565b60006117a182611d60565b6117ab8185611dac565b93506117b683611d45565b8060005b838110156117e75781516117ce8882611702565b97506117d983611d8e565b9250506001810190506117ba565b5085935050505092915050565b6117fd81611e64565b82525050565b600061180e82611d6b565b6118188185611dbd565b9350611828818560208601611f1e565b61183181612029565b840191505092915050565b600061184782611d6b565b6118518185611dce565b9350611861818560208601611f1e565b80840191505092915050565b61187681611ec4565b82525050565b61188581611ee8565b82525050565b61189481611f0c565b82525050565b60006118a582611d76565b6118af8185611dd9565b93506118bf818560208601611f1e565b6118c881612029565b840191505092915050565b60006118e0600283611dd9565b91506118eb8261203a565b602082019050919050565b6118ff81611e70565b82525050565b61190e81611e9e565b82525050565b61191d81611ead565b82525050565b61192c81611ead565b82525050565b61193b81611eb7565b82525050565b600061194d828461183c565b915081905092915050565b600060c08201905061196d6000830189611729565b61197a6020830188611729565b6119876040830187611905565b6119946060830186611923565b6119a16080830185611923565b6119ae60a0830184611923565b979650505050505050565b600060e0820190506119ce600083018a611729565b6119db6020830189611729565b6119e86040830188611932565b6119f56060830187611905565b611a026080830186611923565b611a0f60a0830185611923565b611a1c60c0830184611923565b98975050505050505050565b600060e082019050611a3d600083018a611729565b8181036020830152611a4f8189611738565b90508181036040830152611a638188611796565b90508181036060830152611a778187611796565b9050611a866080830186611729565b81810360a0830152611a988185611803565b9050611aa760c08301846118f6565b98975050505050505050565b6000604082019050611ac86000830185611729565b611ad56020830184611923565b9392505050565b6000602082019050611af160008301846117f4565b92915050565b6000602082019050611b0c600083018461186d565b92915050565b6000602082019050611b27600083018461187c565b92915050565b60006020820190508181036000830152611b47818461189a565b905092915050565b60006020820190508181036000830152611b68816118d3565b9050919050565b6000602082019050611b846000830184611923565b92915050565b600060a082019050611b9f6000830188611923565b611bac602083018761188b565b611bb96040830186611729565b611bc66060830185611729565b611bd36080830184611905565b9695505050505050565b600060a082019050611bf26000830188611923565b611bff602083018761188b565b8181036040830152611c118186611738565b9050611c206060830185611729565b611c2d6080830184611923565b9695505050505050565b600060a082019050611c4c6000830188611923565b611c596020830187611923565b611c666040830186611729565b611c736060830185611729565b611c806080830184611905565b9695505050505050565b600060a082019050611c9f6000830188611923565b611cac6020830187611923565b8181036040830152611cbe8186611738565b9050611ccd6060830185611729565b611cda6080830184611923565b9695505050505050565b6000611cee611cff565b9050611cfa8282611f51565b919050565b6000604051905090565b600067ffffffffffffffff821115611d2457611d23611ffa565b5b602082029050602081019050919050565b6000819050602082019050919050565b6000819050602082019050919050565b600081519050919050565b600081519050919050565b600081519050919050565b600081519050919050565b6000602082019050919050565b6000602082019050919050565b600082825260208201905092915050565b600082825260208201905092915050565b600082825260208201905092915050565b600081905092915050565b600082825260208201905092915050565b6000611df582611ead565b9150611e0083611ead565b9250827fffffffffffffffffffffffffffffffffffffffffffffffffffffffffffffffff03821115611e3557611e34611fcb565b5b828201905092915050565b6000611e4b82611e7e565b9050919050565b6000611e5d82611e7e565b9050919050565b60008115159050919050565b600061ffff82169050919050565b600073ffffffffffffffffffffffffffffffffffffffff82169050919050565b600062ffffff82169050919050565b6000819050919050565b600060ff82169050919050565b6000611ecf82611ed6565b9050919050565b6000611ee182611e7e565b9050919050565b6000611ef382611efa565b9050919050565b6000611f0582611e7e565b9050919050565b6000611f1782611ead565b9050919050565b60005b83811015611f3c578082015181840152602081019050611f21565b83811115611f4b576000848401525b50505050565b611f5a82612029565b810181811067ffffffffffffffff82111715611f7957611f78611ffa565b5b80604052505050565b6000611f8d82611ead565b91507fffffffffffffffffffffffffffffffffffffffffffffffffffffffffffffffff821415611fc057611fbf611fcb565b5b600182019050919050565b7f4e487b7100000000000000000000000000000000000000000000000000000000600052601160045260246000fd5b7f4e487b7100000000000000000000000000000000000000000000000000000000600052604160045260246000fd5b6000601f19601f8301169050919050565b7f5341000000000000000000000000000000000000000000000000000000000000600082015250565b61206c81611e40565b811461207757600080fd5b50565b61208381611e52565b811461208e57600080fd5b50565b61209a81611e64565b81146120a557600080fd5b50565b6120b181611e9e565b81146120bc57600080fd5b50565b6120c881611ead565b81146120d357600080fd5b50565b6120df81611eb7565b81146120ea57600080fd5b5056fea2646970667358221220783828b8de6ba13eb23dd021e2cb2a2d82ecc5fdb6e7a74a78dcc16498880f7364736f6c6343000801003360a060405234801561001057600080fd5b50604051610b8e380380610b8e83398181016040528101906100329190610084565b8073ffffffffffffffffffffffffffffffffffffffff1660808173ffffffffffffffffffffffffffffffffffffffff1660601b8152505050610108565b60008151905061007e816100f1565b92915050565b60006020828403121561009657600080fd5b60006100a48482850161006f565b91505092915050565b60006100b8826100d1565b9050919050565b60006100ca826100ad565b9050919050565b600073ffffffffffffffffffffffffffffffffffffffff82169050919050565b6100fa816100bf565b811461010557600080fd5b50565b60805160601c610a5c61013260003960008181608b0152818160c101526101840152610a5c6000f3fe608060405234801561001057600080fd5b50600436106100365760003560e01c8063c31c9c071461003b578063d3b2a39914610059575b600080fd5b610043610089565b6040516100509190610811565b60405180910390f35b610073600480360381019061006e91906105a1565b6100ad565b6040516100809190610888565b60405180910390f35b7f000000000000000000000000000000000000000000000000000000000000000081565b60006100bb84333089610239565b6100e6847f000000000000000000000000000000000000000000000000000000000000000088610391565b60006040518061010001604052808673ffffffffffffffffffffffffffffffffffffffff1681526020018573ffffffffffffffffffffffffffffffffffffffff1681526020018462ffffff1681526020013373ffffffffffffffffffffffffffffffffffffffff168152602001428152602001888152602001878152602001600073ffffffffffffffffffffffffffffffffffffffff1681525090507f000000000000000000000000000000000000000000000000000000000000000073ffffffffffffffffffffffffffffffffffffffff1663414bf389826040518263ffffffff1660e01b81526004016101db919061086c565b602060405180830381600087803b1580156101f557600080fd5b505af1158015610209573d6000803e3d6000fd5b505050506040513d601f19601f8201168201806040525081019061022d9190610578565b91505095945050505050565b6000808573ffffffffffffffffffffffffffffffffffffffff166323b872dd60e01b868686604051602401610270939291906107b1565b604051602081830303815290604052907bffffffffffffffffffffffffffffffffffffffffffffffffffffffff19166020820180517bffffffffffffffffffffffffffffffffffffffffffffffffffffffff83818316178352505050506040516102da919061079a565b6000604051808303816000865af19150503d8060008114610317576040519150601f19603f3d011682016040523d82523d6000602084013e61031c565b606091505b509150915081801561034a5750600081511480610349575080806020019051810190610348919061054f565b5b5b610389576040517f08c379a00000000000000000000000000000000000000000000000000000000081526004016103809061084c565b60405180910390fd5b505050505050565b6000808473ffffffffffffffffffffffffffffffffffffffff1663095ea7b360e01b85856040516024016103c69291906107e8565b604051602081830303815290604052907bffffffffffffffffffffffffffffffffffffffffffffffffffffffff19166020820180517bffffffffffffffffffffffffffffffffffffffffffffffffffffffff8381831617835250505050604051610430919061079a565b6000604051808303816000865af19150503d806000811461046d576040519150601f19603f3d011682016040523d82523d6000602084013e610472565b606091505b50915091508180156104a0575060008151148061049f57508080602001905181019061049e919061054f565b5b5b6104df576040517f08c379a00000000000000000000000000000000000000000000000000000000081526004016104d69061082c565b60405180910390fd5b5050505050565b6000813590506104f5816109ca565b92915050565b60008151905061050a816109e1565b92915050565b60008135905061051f816109f8565b92915050565b60008135905061053481610a0f565b92915050565b60008151905061054981610a0f565b92915050565b60006020828403121561056157600080fd5b600061056f848285016104fb565b91505092915050565b60006020828403121561058a57600080fd5b60006105988482850161053a565b91505092915050565b600080600080600060a086880312156105b957600080fd5b60006105c788828901610525565b95505060206105d888828901610525565b94505060406105e9888289016104e6565b93505060606105fa888289016104e6565b925050608061060b88828901610510565b9150509295509295909350565b610621816108ca565b82525050565b610630816108ca565b82525050565b6000610641826108a3565b61064b81856108ae565b935061065b818560208601610945565b80840191505092915050565b61067081610921565b82525050565b60006106836002836108b9565b915061068e82610978565b602082019050919050565b60006106a66003836108b9565b91506106b1826109a1565b602082019050919050565b610100820160008201516106d36000850182610618565b5060208201516106e66020850182610618565b5060408201516106f9604085018261076d565b50606082015161070c6060850182610618565b50608082015161071f608085018261077c565b5060a082015161073260a085018261077c565b5060c082015161074560c085018261077c565b5060e082015161075860e085018261075e565b50505050565b610767816108e8565b82525050565b61077681610908565b82525050565b61078581610917565b82525050565b61079481610917565b82525050565b60006107a68284610636565b915081905092915050565b60006060820190506107c66000830186610627565b6107d36020830185610627565b6107e0604083018461078b565b949350505050565b60006040820190506107fd6000830185610627565b61080a602083018461078b565b9392505050565b60006020820190506108266000830184610667565b92915050565b6000602082019050818103600083015261084581610676565b9050919050565b6000602082019050818103600083015261086581610699565b9050919050565b60006101008201905061088260008301846106bc565b92915050565b600060208201905061089d600083018461078b565b92915050565b600081519050919050565b600081905092915050565b600082825260208201905092915050565b60006108d5826108e8565b9050919050565b60008115159050919050565b600073ffffffffffffffffffffffffffffffffffffffff82169050919050565b600062ffffff82169050919050565b6000819050919050565b600061092c82610933565b9050919050565b600061093e826108e8565b9050919050565b60005b83811015610963578082015181840152602081019050610948565b83811115610972576000848401525b50505050565b7f5341000000000000000000000000000000000000000000000000000000000000600082015250565b7f5354460000000000000000000000000000000000000000000000000000000000600082015250565b6109d3816108ca565b81146109de57600080fd5b50565b6109ea816108dc565b81146109f557600080fd5b50565b610a0181610908565b8114610a0c57600080fd5b50565b610a1881610917565b8114610a2357600080fd5b5056fea2646970667358221220fffee3b0c2107f1a3d71cea7f9d8654d2c066273bb62f4ae600b35865a3a0a3164736f6c6343000801003360a060405234801561001057600080fd5b50604051610e4b380380610e4b83398181016040528101906100329190610084565b8073ffffffffffffffffffffffffffffffffffffffff1660808173ffffffffffffffffffffffffffffffffffffffff1660601b8152505050610108565b60008151905061007e816100f1565b92915050565b60006020828403121561009657600080fd5b60006100a48482850161006f565b91505092915050565b60006100b8826100d1565b9050919050565b60006100ca826100ad565b9050919050565b600073ffffffffffffffffffffffffffffffffffffffff82169050919050565b6100fa816100bf565b811461010557600080fd5b50565b60805160601c610d1861013360003960008181608b0152818161015d01526101840152610d186000f3fe608060405234801561001057600080fd5b50600436106100365760003560e01c80636d13582c1461003b578063d1b991f714610059575b600080fd5b610043610089565b6040516100509190610994565b60405180910390f35b610073600480360381019061006e91906106bc565b6100ad565b6040516100809190610972565b60405180910390f35b7f000000000000000000000000000000000000000000000000000000000000000081565b6060610109858560008181106100ec577f4e487b7100000000000000000000000000000000000000000000000000000000600052603260045260246000fd5b90506020020160208101906101019190610629565b33308a610248565b61018285856000818110610146577f4e487b7100000000000000000000000000000000000000000000000000000000600052603260045260246000fd5b905060200201602081019061015b9190610629565b7f0000000000000000000000000000000000000000000000000000000000000000896103a0565b7f000000000000000000000000000000000000000000000000000000000000000073ffffffffffffffffffffffffffffffffffffffff166338ed17398888888888886040518763ffffffff1660e01b81526004016101e5969594939291906109ef565b600060405180830381600087803b1580156101ff57600080fd5b505af1158015610213573d6000803e3d6000fd5b505050506040513d6000823e3d601f19601f8201168201806040525081019061023c9190610652565b90509695505050505050565b6000808573ffffffffffffffffffffffffffffffffffffffff166323b872dd60e01b86868660405160240161027f93929190610912565b604051602081830303815290604052907bffffffffffffffffffffffffffffffffffffffffffffffffffffffff19166020820180517bffffffffffffffffffffffffffffffffffffffffffffffffffffffff83818316178352505050506040516102e991906108fb565b6000604051808303816000865af19150503d8060008114610326576040519150601f19603f3d011682016040523d82523d6000602084013e61032b565b606091505b509150915081801561035957506000815114806103585750808060200190518101906103579190610693565b5b5b610398576040517f08c379a000000000000000000000000000000000000000000000000000000000815260040161038f906109cf565b60405180910390fd5b505050505050565b6000808473ffffffffffffffffffffffffffffffffffffffff1663095ea7b360e01b85856040516024016103d5929190610949565b604051602081830303815290604052907bffffffffffffffffffffffffffffffffffffffffffffffffffffffff19166020820180517bffffffffffffffffffffffffffffffffffffffffffffffffffffffff838183161783525050505060405161043f91906108fb565b6000604051808303816000865af19150503d806000811461047c576040519150601f19603f3d011682016040523d82523d6000602084013e610481565b606091505b50915091508180156104af57506000815114806104ae5750808060200190518101906104ad9190610693565b5b5b6104ee576040517f08c379a00000000000000000000000000000000000000000000000000000000081526004016104e5906109af565b60405180910390fd5b5050505050565b600061050861050384610a70565b610a4b565b9050808382526020820190508285602086028201111561052757600080fd5b60005b85811015610557578161053d8882610614565b84526020840193506020830192505060018101905061052a565b5050509392505050565b60008135905061057081610c9d565b92915050565b60008083601f84011261058857600080fd5b8235905067ffffffffffffffff8111156105a157600080fd5b6020830191508360208202830111156105b957600080fd5b9250929050565b600082601f8301126105d157600080fd5b81516105e18482602086016104f5565b91505092915050565b6000815190506105f981610cb4565b92915050565b60008135905061060e81610ccb565b92915050565b60008151905061062381610ccb565b92915050565b60006020828403121561063b57600080fd5b600061064984828501610561565b91505092915050565b60006020828403121561066457600080fd5b600082015167ffffffffffffffff81111561067e57600080fd5b61068a848285016105c0565b91505092915050565b6000602082840312156106a557600080fd5b60006106b3848285016105ea565b91505092915050565b60008060008060008060a087890312156106d557600080fd5b60006106e389828a016105ff565b96505060206106f489828a016105ff565b955050604087013567ffffffffffffffff81111561071157600080fd5b61071d89828a01610576565b9450945050606061073089828a01610561565b925050608061074189828a016105ff565b9150509295509295509295565b600061075a838361077e565b60208301905092915050565b600061077283836108dd565b60208301905092915050565b61078781610b3b565b82525050565b61079681610b3b565b82525050565b60006107a88385610ae6565b93506107b382610a9c565b8060005b858110156107ec576107c98284610b24565b6107d3888261074e565b97506107de83610acc565b9250506001810190506107b7565b5085925050509392505050565b600061080482610ab6565b61080e8185610af7565b935061081983610aa6565b8060005b8381101561084a5781516108318882610766565b975061083c83610ad9565b92505060018101905061081d565b5085935050505092915050565b600061086282610ac1565b61086c8185610b08565b935061087c818560208601610ba7565b80840191505092915050565b61089181610b83565b82525050565b60006108a4600283610b13565b91506108af82610c4b565b602082019050919050565b60006108c7600383610b13565b91506108d282610c74565b602082019050919050565b6108e681610b79565b82525050565b6108f581610b79565b82525050565b60006109078284610857565b915081905092915050565b6000606082019050610927600083018661078d565b610934602083018561078d565b61094160408301846108ec565b949350505050565b600060408201905061095e600083018561078d565b61096b60208301846108ec565b9392505050565b6000602082019050818103600083015261098c81846107f9565b905092915050565b60006020820190506109a96000830184610888565b92915050565b600060208201905081810360008301526109c881610897565b9050919050565b600060208201905081810360008301526109e8816108ba565b9050919050565b600060a082019050610a0460008301896108ec565b610a1160208301886108ec565b8181036040830152610a2481868861079c565b9050610a33606083018561078d565b610a4060808301846108ec565b979650505050505050565b6000610a55610a66565b9050610a618282610bda565b919050565b6000604051905090565b600067ffffffffffffffff821115610a8b57610a8a610c0b565b5b602082029050602081019050919050565b6000819050919050565b6000819050602082019050919050565b600081519050919050565b600081519050919050565b6000602082019050919050565b6000602082019050919050565b600082825260208201905092915050565b600082825260208201905092915050565b600081905092915050565b600082825260208201905092915050565b6000610b336020840184610561565b905092915050565b6000610b4682610b59565b9050919050565b60008115159050919050565b600073ffffffffffffffffffffffffffffffffffffffff82169050919050565b6000819050919050565b6000610b8e82610b95565b9050919050565b6000610ba082610b59565b9050919050565b60005b83811015610bc5578082015181840152602081019050610baa565b83811115610bd4576000848401525b50505050565b610be382610c3a565b810181811067ffffffffffffffff82111715610c0257610c01610c0b565b5b80604052505050565b7f4e487b7100000000000000000000000000000000000000000000000000000000600052604160045260246000fd5b6000601f19601f8301169050919050565b7f5341000000000000000000000000000000000000000000000000000000000000600082015250565b7f5354460000000000000000000000000000000000000000000000000000000000600082015250565b610ca681610b3b565b8114610cb157600080fd5b50565b610cbd81610b4d565b8114610cc857600080fd5b50565b610cd481610b79565b8114610cdf57600080fd5b5056fea26469706673582212204c4b3b85b688e181e15ab4f92403fb639653892c77a764c8c5d3933e792145c264736f6c63430008010033",
  "linkReferences": {},
  "deployedLinkReferences": {}
}