{
  "_format": "hh-sol-artifact-1",
  "contractName": "AaveFlashLoan",
  "sourceName": "contracts/AaveFlashLoan.sol",
  "abi": [
    {
      "inputs": [
        {
          "internalType": "contract ILendingPoolAddressesProvider",
          "name": "_addressProvider",
          "type": "address"
        }
      ],
      "stateMutability": "nonpayable",
      "type": "constructor"
    },
    {
      "inputs": [],
      "name": "ADDRESSES_PROVIDER",
      "outputs": [
        {
          "internalType": "contract ILendingPoolAddressesProvider",
          "name": "",
          "type": "address"
        }
      ],
      "stateMutability": "view",
      "type": "function"
    },
    {
      "inputs": [],
      "name": "LENDING_POOL",
      "outputs": [
        {
          "internalType": "contract ILendingPool",
          "name": "",
          "type": "address"
        }
      ],
      "stateMutability": "view",
      "type": "function"
    },
    {
      "inputs": [
        {
          "internalType": "address[]",
          "name": "assets",
          "type": "address[]"
        },
        {
          "internalType": "uint256[]",
          "name": "amounts",
          "type": "uint256[]"
        },
        {
          "internalType": "uint256[]",
          "name": "premiums",
          "type": "uint256[]"
        },
        {
          "internalType": "address",
          "name": "initiator",
          "type": "address"
        },
        {
          "internalType": "bytes",
          "name": "params",
          "type": "bytes"
        }
      ],
      "name": "executeOperation",
      "outputs": [
        {
          "internalType": "bool",
          "name": "",
          "type": "bool"
        }
      ],
      "stateMutability": "nonpayable",
      "type": "function"
    },
    {
      "inputs": [
        {
          "internalType": "address",
          "name": "token0",
          "type": "address"
        },
        {
          "internalType": "address",
          "name": "token1",
          "type": "address"
        },
        {
          "internalType": "uint8",
          "name": "direction",
          "type": "uint8"
        },
        {
          "internalType": "uint24",
          "name": "poolFee",
          "type": "uint24"
        },
        {
          "internalType": "uint256",
          "name": "amountIn",
          "type": "uint256"
        },
        {
          "internalType": "uint256",
          "name": "amountOut",
          "type": "uint256"
        },
        {
          "internalType": "uint256",
          "name": "deadline",
          "type": "uint256"
        }
      ],
      "name": "myFlashLoanCall",
      "outputs": [],
      "stateMutability": "nonpayable",
      "type": "function"
    },
    {
      "inputs": [],
      "name": "owner",
      "outputs": [
        {
          "internalType": "address",
          "name": "",
          "type": "address"
        }
      ],
      "stateMutability": "view",
      "type": "function"
    },
    {
      "inputs": [],
      "name": "provider",
      "outputs": [
        {
          "internalType": "contract ILendingPoolAddressesProvider",
          "name": "",
          "type": "address"
        }
      ],
      "stateMutability": "view",
      "type": "function"
    },
    {
      "inputs": [
        {
          "internalType": "address",
          "name": "newOwner",
          "type": "address"
        }
      ],
      "name": "transferOwnership",
      "outputs": [],
      "stateMutability": "nonpayable",
      "type": "function"
    },
    {
      "inputs": [
        {
          "internalType": "address",
          "name": "token",
          "type": "address"
        }
      ],
      "name": "withdrawERC20Token",
      "outputs": [
        {
          "internalType": "uint256",
          "name": "currentAmount",
          "type": "uint256"
        }
      ],
      "stateMutability": "nonpayable",
      "type": "function"
    }
  ],
  "bytecode": "0x60e06040523480156200001157600080fd5b5060405162002440380380620024408339818101604052810190620000379190620002e2565b808073ffffffffffffffffffffffffffffffffffffffff1660808173ffffffffffffffffffffffffffffffffffffffff1660601b815250508073ffffffffffffffffffffffffffffffffffffffff16630261bf8b6040518163ffffffff1660e01b815260040160206040518083038186803b158015620000b657600080fd5b505afa158015620000cb573d6000803e3d6000fd5b505050506040513d601f19601f82011682018060405250810190620000f19190620002b6565b73ffffffffffffffffffffffffffffffffffffffff1660a08173ffffffffffffffffffffffffffffffffffffffff1660601b8152505050806000806101000a81548173ffffffffffffffffffffffffffffffffffffffff021916908373ffffffffffffffffffffffffffffffffffffffff16021790555060008054906101000a900473ffffffffffffffffffffffffffffffffffffffff1673ffffffffffffffffffffffffffffffffffffffff16630261bf8b6040518163ffffffff1660e01b815260040160206040518083038186803b158015620001cf57600080fd5b505afa158015620001e4573d6000803e3d6000fd5b505050506040513d601f19601f820116820180604052508101906200020a9190620002b6565b73ffffffffffffffffffffffffffffffffffffffff1660c08173ffffffffffffffffffffffffffffffffffffffff1660601b8152505033600160006101000a81548173ffffffffffffffffffffffffffffffffffffffff021916908373ffffffffffffffffffffffffffffffffffffffff160217905550506200038a565b600081519050620002998162000356565b92915050565b600081519050620002b08162000370565b92915050565b600060208284031215620002c957600080fd5b6000620002d98482850162000288565b91505092915050565b600060208284031215620002f557600080fd5b600062000305848285016200029f565b91505092915050565b60006200031b8262000336565b9050919050565b60006200032f826200030e565b9050919050565b600073ffffffffffffffffffffffffffffffffffffffff82169050919050565b62000361816200030e565b81146200036d57600080fd5b50565b6200037b8162000322565b81146200038757600080fd5b50565b60805160601c60a05160601c60c05160601c612072620003ce6000396000505060008181610462015281816104af01526107c90152600061019f01526120726000f3fe608060405234801561001057600080fd5b50600436106100885760003560e01c8063920f5c841161005b578063920f5c8414610117578063b4dcfc7714610147578063c2d2220714610165578063f2fde38b1461018157610088565b80630542975c1461008d578063085d4883146100ab5780633bdebbe1146100c95780638da5cb5b146100f9575b600080fd5b61009561019d565b6040516100a29190611ab1565b60405180910390f35b6100b36101c1565b6040516100c09190611ab1565b60405180910390f35b6100e360048036038101906100de919061134c565b6101e5565b6040516100f09190611b63565b60405180910390f35b610101610341565b60405161010e9190611958565b60405180910390f35b610131600480360381019061012c91906114b1565b610367565b60405161013e9190611a96565b60405180910390f35b61014f6104ad565b60405161015c9190611acc565b60405180910390f35b61017f600480360381019061017a9190611413565b6104d1565b005b61019b6004803603810190610196919061134c565b61086e565b005b7f000000000000000000000000000000000000000000000000000000000000000081565b60008054906101000a900473ffffffffffffffffffffffffffffffffffffffff1681565b6000600160009054906101000a900473ffffffffffffffffffffffffffffffffffffffff1673ffffffffffffffffffffffffffffffffffffffff163373ffffffffffffffffffffffffffffffffffffffff161461024157600080fd5b8173ffffffffffffffffffffffffffffffffffffffff166370a08231306040518263ffffffff1660e01b815260040161027a9190611958565b60206040518083038186803b15801561029257600080fd5b505afa1580156102a6573d6000803e3d6000fd5b505050506040513d601f19601f820116820180604052508101906102ca9190611603565b90506000811161030f576040517f08c379a000000000000000000000000000000000000000000000000000000000815260040161030690611b27565b60405180910390fd5b61033c82600160009054906101000a900473ffffffffffffffffffffffffffffffffffffffff168361090c565b919050565b600160009054906101000a900473ffffffffffffffffffffffffffffffffffffffff1681565b60006103738383610a61565b60005b8a8a905081101561049b5760008787838181106103bc577f4e487b7100000000000000000000000000000000000000000000000000000000600052603260045260246000fd5b905060200201358a8a848181106103fc577f4e487b7100000000000000000000000000000000000000000000000000000000600052603260045260246000fd5b9050602002013561040d9190611cd3565b90506104878c8c8481811061044b577f4e487b7100000000000000000000000000000000000000000000000000000000600052603260045260246000fd5b9050602002016020810190610460919061134c565b7f000000000000000000000000000000000000000000000000000000000000000083610d70565b50808061049390611e59565b915050610376565b50600190509998505050505050505050565b7f000000000000000000000000000000000000000000000000000000000000000081565b600160009054906101000a900473ffffffffffffffffffffffffffffffffffffffff1673ffffffffffffffffffffffffffffffffffffffff163373ffffffffffffffffffffffffffffffffffffffff161461052b57600080fd5b60003090506000600167ffffffffffffffff811115610573577f4e487b7100000000000000000000000000000000000000000000000000000000600052604160045260246000fd5b6040519080825280602002602001820160405280156105a15781602001602082028036833780820191505090505b50905088816000815181106105df577f4e487b7100000000000000000000000000000000000000000000000000000000600052603260045260246000fd5b602002602001019073ffffffffffffffffffffffffffffffffffffffff16908173ffffffffffffffffffffffffffffffffffffffff16815250506000600167ffffffffffffffff81111561065c577f4e487b7100000000000000000000000000000000000000000000000000000000600052604160045260246000fd5b60405190808252806020026020018201604052801561068a5781602001602082028036833780820191505090505b50905085816000815181106106c8577f4e487b7100000000000000000000000000000000000000000000000000000000600052603260045260246000fd5b6020026020010181815250506000600167ffffffffffffffff811115610717577f4e487b7100000000000000000000000000000000000000000000000000000000600052604160045260246000fd5b6040519080825280602002602001820160405280156107455781602001602082028036833780820191505090505b509050600081600081518110610784577f4e487b7100000000000000000000000000000000000000000000000000000000600052603260045260246000fd5b602002602001018181525050600030905060008c8c8c8c8c8c8c6040516020016107b49796959493929190611973565b604051602081830303815290604052905060007f000000000000000000000000000000000000000000000000000000000000000073ffffffffffffffffffffffffffffffffffffffff1663ab9c4b5d888888888888886040518863ffffffff1660e01b815260040161082c97969594939291906119e2565b600060405180830381600087803b15801561084657600080fd5b505af115801561085a573d6000803e3d6000fd5b505050505050505050505050505050505050565b600160009054906101000a900473ffffffffffffffffffffffffffffffffffffffff1673ffffffffffffffffffffffffffffffffffffffff163373ffffffffffffffffffffffffffffffffffffffff16146108c857600080fd5b80600160006101000a81548173ffffffffffffffffffffffffffffffffffffffff021916908373ffffffffffffffffffffffffffffffffffffffff16021790555050565b6000808473ffffffffffffffffffffffffffffffffffffffff1663a9059cbb60e01b8585604051602401610941929190611a6d565b604051602081830303815290604052907bffffffffffffffffffffffffffffffffffffffffffffffffffffffff19166020820180517bffffffffffffffffffffffffffffffffffffffffffffffffffffffff83818316178352505050506040516109ab9190611941565b6000604051808303816000865af19150503d80600081146109e8576040519150601f19603f3d011682016040523d82523d6000602084013e6109ed565b606091505b5091509150818015610a1b5750600081511480610a1a575080806020019051810190610a1991906115da565b5b5b610a5a576040517f08c379a0000000000000000000000000000000000000000000000000000000008152600401610a5190611b07565b60405180910390fd5b5050505050565b60008060008060008060008888810190610a7b9190611375565b96509650965096509650965096506000600267ffffffffffffffff811115610acc577f4e487b7100000000000000000000000000000000000000000000000000000000600052604160045260246000fd5b604051908082528060200260200182016040528015610afa5781602001602082028036833780820191505090505b50905060018660ff161415610c18576000610b1885858b8b8a610ec5565b90508782600081518110610b55577f4e487b7100000000000000000000000000000000000000000000000000000000600052603260045260246000fd5b602002602001019073ffffffffffffffffffffffffffffffffffffffff16908173ffffffffffffffffffffffffffffffffffffffff16815250508882600181518110610bca577f4e487b7100000000000000000000000000000000000000000000000000000000600052603260045260246000fd5b602002602001019073ffffffffffffffffffffffffffffffffffffffff16908173ffffffffffffffffffffffffffffffffffffffff1681525050610c11816000848661102d565b5050610d64565b8781600081518110610c53577f4e487b7100000000000000000000000000000000000000000000000000000000600052603260045260246000fd5b602002602001019073ffffffffffffffffffffffffffffffffffffffff16908173ffffffffffffffffffffffffffffffffffffffff16815250508681600181518110610cc8577f4e487b7100000000000000000000000000000000000000000000000000000000600052603260045260246000fd5b602002602001019073ffffffffffffffffffffffffffffffffffffffff16908173ffffffffffffffffffffffffffffffffffffffff16815250506000610d108585848661102d565b9050610d6181600181518110610d4f577f4e487b7100000000000000000000000000000000000000000000000000000000600052603260045260246000fd5b602002602001015160008a8c8a610ec5565b50505b50505050505050505050565b6000808473ffffffffffffffffffffffffffffffffffffffff1663095ea7b360e01b8585604051602401610da5929190611a6d565b604051602081830303815290604052907bffffffffffffffffffffffffffffffffffffffffffffffffffffffff19166020820180517bffffffffffffffffffffffffffffffffffffffffffffffffffffffff8381831617835250505050604051610e0f9190611941565b6000604051808303816000865af19150503d8060008114610e4c576040519150601f19603f3d011682016040523d82523d6000602084013e610e51565b606091505b5091509150818015610e7f5750600081511480610e7e575080806020019051810190610e7d91906115da565b5b5b610ebe576040517f08c379a0000000000000000000000000000000000000000000000000000000008152600401610eb590611ae7565b60405180910390fd5b5050505050565b6000610ee68473e592427a0aece92de3edee1f18e0157c0586156488610d70565b60006040518061010001604052808673ffffffffffffffffffffffffffffffffffffffff1681526020018573ffffffffffffffffffffffffffffffffffffffff1681526020018462ffffff1681526020013073ffffffffffffffffffffffffffffffffffffffff168152602001428152602001888152602001878152602001600073ffffffffffffffffffffffffffffffffffffffff16815250905073e592427a0aece92de3edee1f18e0157c0586156473ffffffffffffffffffffffffffffffffffffffff1663414bf389826040518263ffffffff1660e01b8152600401610fcf9190611b47565b602060405180830381600087803b158015610fe957600080fd5b505af1158015610ffd573d6000803e3d6000fd5b505050506040513d601f19601f820116820180604052508101906110219190611603565b91505095945050505050565b606061108f8360008151811061106c577f4e487b7100000000000000000000000000000000000000000000000000000000600052603260045260246000fd5b6020026020010151731b02da8cb0d097eb8d57a175b88c7d8b4799750687610d70565b731b02da8cb0d097eb8d57a175b88c7d8b4799750673ffffffffffffffffffffffffffffffffffffffff166338ed173986868630876040518663ffffffff1660e01b81526004016110e4959493929190611b7e565b600060405180830381600087803b1580156110fe57600080fd5b505af1158015611112573d6000803e3d6000fd5b505050506040513d6000823e3d601f19601f8201168201806040525081019061113b9190611599565b9050949350505050565b600061115861115384611bfd565b611bd8565b9050808382526020820190508285602086028201111561117757600080fd5b60005b858110156111a7578161118d8882611322565b84526020840193506020830192505060018101905061117a565b5050509392505050565b6000813590506111c081611fb2565b92915050565b6000813590506111d581611fc9565b92915050565b60008083601f8401126111ed57600080fd5b8235905067ffffffffffffffff81111561120657600080fd5b60208301915083602082028301111561121e57600080fd5b9250929050565b60008083601f84011261123757600080fd5b8235905067ffffffffffffffff81111561125057600080fd5b60208301915083602082028301111561126857600080fd5b9250929050565b600082601f83011261128057600080fd5b8151611290848260208601611145565b91505092915050565b6000815190506112a881611fe0565b92915050565b60008083601f8401126112c057600080fd5b8235905067ffffffffffffffff8111156112d957600080fd5b6020830191508360018202830111156112f157600080fd5b9250929050565b60008135905061130781611ff7565b92915050565b60008135905061131c8161200e565b92915050565b6000815190506113318161200e565b92915050565b60008135905061134681612025565b92915050565b60006020828403121561135e57600080fd5b600061136c848285016111b1565b91505092915050565b600080600080600080600060e0888a03121561139057600080fd5b600061139e8a828b016111c6565b97505060206113af8a828b016111c6565b96505060406113c08a828b01611337565b95505060606113d18a828b016112f8565b94505060806113e28a828b0161130d565b93505060a06113f38a828b0161130d565b92505060c06114048a828b0161130d565b91505092959891949750929550565b600080600080600080600060e0888a03121561142e57600080fd5b600061143c8a828b016111b1565b975050602061144d8a828b016111b1565b965050604061145e8a828b01611337565b955050606061146f8a828b016112f8565b94505060806114808a828b0161130d565b93505060a06114918a828b0161130d565b92505060c06114a28a828b0161130d565b91505092959891949750929550565b600080600080600080600080600060a08a8c0312156114cf57600080fd5b60008a013567ffffffffffffffff8111156114e957600080fd5b6114f58c828d016111db565b995099505060208a013567ffffffffffffffff81111561151457600080fd5b6115208c828d01611225565b975097505060408a013567ffffffffffffffff81111561153f57600080fd5b61154b8c828d01611225565b9550955050606061155e8c828d016111b1565b93505060808a013567ffffffffffffffff81111561157b57600080fd5b6115878c828d016112ae565b92509250509295985092959850929598565b6000602082840312156115ab57600080fd5b600082015167ffffffffffffffff8111156115c557600080fd5b6115d18482850161126f565b91505092915050565b6000602082840312156115ec57600080fd5b60006115fa84828501611299565b91505092915050565b60006020828403121561161557600080fd5b600061162384828501611322565b91505092915050565b6000611638838361165c565b60208301905092915050565b60006116508383611914565b60208301905092915050565b61166581611d29565b82525050565b61167481611d29565b82525050565b600061168582611c49565b61168f8185611c84565b935061169a83611c29565b8060005b838110156116cb5781516116b2888261162c565b97506116bd83611c6a565b92505060018101905061169e565b5085935050505092915050565b60006116e382611c54565b6116ed8185611c95565b93506116f883611c39565b8060005b838110156117295781516117108882611644565b975061171b83611c77565b9250506001810190506116fc565b5085935050505092915050565b61173f81611d4d565b82525050565b600061175082611c5f565b61175a8185611ca6565b935061176a818560208601611df5565b61177381611f00565b840191505092915050565b600061178982611c5f565b6117938185611cb7565b93506117a3818560208601611df5565b80840191505092915050565b6117b881611dad565b82525050565b6117c781611dd1565b82525050565b60006117da600283611cc2565b91506117e582611f11565b602082019050919050565b60006117fd600283611cc2565b915061180882611f3a565b602082019050919050565b6000611820603083611cc2565b915061182b82611f63565b604082019050919050565b6101008201600082015161184d600085018261165c565b506020820151611860602085018261165c565b50604082015161187360408501826118f6565b506060820151611886606085018261165c565b5060808201516118996080850182611914565b5060a08201516118ac60a0850182611914565b5060c08201516118bf60c0850182611914565b5060e08201516118d260e08501826118d8565b50505050565b6118e181611d67565b82525050565b6118f081611d59565b82525050565b6118ff81611d87565b82525050565b61190e81611d87565b82525050565b61191d81611d96565b82525050565b61192c81611d96565b82525050565b61193b81611da0565b82525050565b600061194d828461177e565b915081905092915050565b600060208201905061196d600083018461166b565b92915050565b600060e082019050611988600083018a61166b565b611995602083018961166b565b6119a26040830188611932565b6119af6060830187611905565b6119bc6080830186611923565b6119c960a0830185611923565b6119d660c0830184611923565b98975050505050505050565b600060e0820190506119f7600083018a61166b565b8181036020830152611a09818961167a565b90508181036040830152611a1d81886116d8565b90508181036060830152611a3181876116d8565b9050611a40608083018661166b565b81810360a0830152611a528185611745565b9050611a6160c08301846118e7565b98975050505050505050565b6000604082019050611a82600083018561166b565b611a8f6020830184611923565b9392505050565b6000602082019050611aab6000830184611736565b92915050565b6000602082019050611ac660008301846117af565b92915050565b6000602082019050611ae160008301846117be565b92915050565b60006020820190508181036000830152611b00816117cd565b9050919050565b60006020820190508181036000830152611b20816117f0565b9050919050565b60006020820190508181036000830152611b4081611813565b9050919050565b600061010082019050611b5d6000830184611836565b92915050565b6000602082019050611b786000830184611923565b92915050565b600060a082019050611b936000830188611923565b611ba06020830187611923565b8181036040830152611bb2818661167a565b9050611bc1606083018561166b565b611bce6080830184611923565b9695505050505050565b6000611be2611bf3565b9050611bee8282611e28565b919050565b6000604051905090565b600067ffffffffffffffff821115611c1857611c17611ed1565b5b602082029050602081019050919050565b6000819050602082019050919050565b6000819050602082019050919050565b600081519050919050565b600081519050919050565b600081519050919050565b6000602082019050919050565b6000602082019050919050565b600082825260208201905092915050565b600082825260208201905092915050565b600082825260208201905092915050565b600081905092915050565b600082825260208201905092915050565b6000611cde82611d96565b9150611ce983611d96565b9250827fffffffffffffffffffffffffffffffffffffffffffffffffffffffffffffffff03821115611d1e57611d1d611ea2565b5b828201905092915050565b6000611d3482611d67565b9050919050565b6000611d4682611d67565b9050919050565b60008115159050919050565b600061ffff82169050919050565b600073ffffffffffffffffffffffffffffffffffffffff82169050919050565b600062ffffff82169050919050565b6000819050919050565b600060ff82169050919050565b6000611db882611dbf565b9050919050565b6000611dca82611d67565b9050919050565b6000611ddc82611de3565b9050919050565b6000611dee82611d67565b9050919050565b60005b83811015611e13578082015181840152602081019050611df8565b83811115611e22576000848401525b50505050565b611e3182611f00565b810181811067ffffffffffffffff82111715611e5057611e4f611ed1565b5b80604052505050565b6000611e6482611d96565b91507fffffffffffffffffffffffffffffffffffffffffffffffffffffffffffffffff821415611e9757611e96611ea2565b5b600182019050919050565b7f4e487b7100000000000000000000000000000000000000000000000000000000600052601160045260246000fd5b7f4e487b7100000000000000000000000000000000000000000000000000000000600052604160045260246000fd5b6000601f19601f8301169050919050565b7f5341000000000000000000000000000000000000000000000000000000000000600082015250565b7f5354000000000000000000000000000000000000000000000000000000000000600082015250565b7f436f6e747261637420646f6573206e6f742068617665207468652070726f766960008201527f64656420455243323020746f6b656e2e00000000000000000000000000000000602082015250565b611fbb81611d29565b8114611fc657600080fd5b50565b611fd281611d3b565b8114611fdd57600080fd5b50565b611fe981611d4d565b8114611ff457600080fd5b50565b61200081611d87565b811461200b57600080fd5b50565b61201781611d96565b811461202257600080fd5b50565b61202e81611da0565b811461203957600080fd5b5056fea26469706673582212209171fe18f99f4b8f710afac685d3db0dd7aa31ad3f684e145e82eb9f84b1304764736f6c63430008010033",
  "linkReferences": {},
  "deployedLinkReferences": {}
}