{
  "_format": "hh-sol-artifact-1",
  "contractName": "AaveFlashLoan",
  "sourceName": "contracts/AaveFlashLoan.sol",
  "abi": [
    {
      "inputs": [
        {
          "internalType": "contract ILendingPoolAddressesProvider",
          "name": "_addressProvider",
          "type": "address"
        },
        {
          "internalType": "contract ISwapRouter",
          "name": "_uniSwapRouter",
          "type": "address"
        },
        {
          "internalType": "contract IUniswapV2Router02",
          "name": "_sushiRouter",
          "type": "address"
        }
      ],
      "stateMutability": "nonpayable",
      "type": "constructor"
    },
    {
      "inputs": [],
      "name": "ADDRESSES_PROVIDER",
      "outputs": [
        {
          "internalType": "contract ILendingPoolAddressesProvider",
          "name": "",
          "type": "address"
        }
      ],
      "stateMutability": "view",
      "type": "function"
    },
    {
      "inputs": [],
      "name": "LENDING_POOL",
      "outputs": [
        {
          "internalType": "contract ILendingPool",
          "name": "",
          "type": "address"
        }
      ],
      "stateMutability": "view",
      "type": "function"
    },
    {
      "inputs": [
        {
          "internalType": "address[]",
          "name": "assets",
          "type": "address[]"
        },
        {
          "internalType": "uint256[]",
          "name": "amounts",
          "type": "uint256[]"
        },
        {
          "internalType": "uint256[]",
          "name": "premiums",
          "type": "uint256[]"
        },
        {
          "internalType": "address",
          "name": "initiator",
          "type": "address"
        },
        {
          "internalType": "bytes",
          "name": "params",
          "type": "bytes"
        }
      ],
      "name": "executeOperation",
      "outputs": [
        {
          "internalType": "bool",
          "name": "",
          "type": "bool"
        }
      ],
      "stateMutability": "nonpayable",
      "type": "function"
    },
    {
      "inputs": [
        {
          "internalType": "address",
          "name": "token0",
          "type": "address"
        },
        {
          "internalType": "address",
          "name": "token1",
          "type": "address"
        },
        {
          "internalType": "uint8",
          "name": "direction",
          "type": "uint8"
        },
        {
          "internalType": "uint24",
          "name": "poolFee",
          "type": "uint24"
        },
        {
          "internalType": "uint256",
          "name": "amountIn",
          "type": "uint256"
        },
        {
          "internalType": "uint256",
          "name": "amountOut",
          "type": "uint256"
        },
        {
          "internalType": "uint256",
          "name": "deadline",
          "type": "uint256"
        }
      ],
      "name": "myFlashLoanCall",
      "outputs": [],
      "stateMutability": "nonpayable",
      "type": "function"
    },
    {
      "inputs": [],
      "name": "owner",
      "outputs": [
        {
          "internalType": "address",
          "name": "",
          "type": "address"
        }
      ],
      "stateMutability": "view",
      "type": "function"
    },
    {
      "inputs": [
        {
          "internalType": "address",
          "name": "newOwner",
          "type": "address"
        }
      ],
      "name": "transferOwnership",
      "outputs": [],
      "stateMutability": "nonpayable",
      "type": "function"
    },
    {
      "inputs": [
        {
          "internalType": "address",
          "name": "token",
          "type": "address"
        }
      ],
      "name": "withdrawERC20Token",
      "outputs": [
        {
          "internalType": "uint256",
          "name": "currentAmount",
          "type": "uint256"
        }
      ],
      "stateMutability": "nonpayable",
      "type": "function"
    }
  ],
  "bytecode": "0x6101006040523480156200001257600080fd5b5060405162002256380380620022568339818101604052810190620000389190620002cc565b828073ffffffffffffffffffffffffffffffffffffffff1660808173ffffffffffffffffffffffffffffffffffffffff16815250508073ffffffffffffffffffffffffffffffffffffffff16630261bf8b6040518163ffffffff1660e01b8152600401602060405180830381865afa158015620000b9573d6000803e3d6000fd5b505050506040513d601f19601f82011682018060405250810190620000df919062000359565b73ffffffffffffffffffffffffffffffffffffffff1660a08173ffffffffffffffffffffffffffffffffffffffff168152505050336000806101000a81548173ffffffffffffffffffffffffffffffffffffffff021916908373ffffffffffffffffffffffffffffffffffffffff1602179055508173ffffffffffffffffffffffffffffffffffffffff1660c08173ffffffffffffffffffffffffffffffffffffffff16815250508073ffffffffffffffffffffffffffffffffffffffff1660e08173ffffffffffffffffffffffffffffffffffffffff16815250505050506200038b565b600080fd5b600073ffffffffffffffffffffffffffffffffffffffff82169050919050565b6000620001f682620001c9565b9050919050565b60006200020a82620001e9565b9050919050565b6200021c81620001fd565b81146200022857600080fd5b50565b6000815190506200023c8162000211565b92915050565b60006200024f82620001e9565b9050919050565b620002618162000242565b81146200026d57600080fd5b50565b600081519050620002818162000256565b92915050565b60006200029482620001e9565b9050919050565b620002a68162000287565b8114620002b257600080fd5b50565b600081519050620002c6816200029b565b92915050565b600080600060608486031215620002e857620002e7620001c4565b5b6000620002f8868287016200022b565b93505060206200030b8682870162000270565b92505060406200031e86828701620002b5565b9150509250925092565b6200033381620001e9565b81146200033f57600080fd5b50565b600081519050620003538162000328565b92915050565b600060208284031215620003725762000371620001c4565b5b6000620003828482850162000342565b91505092915050565b60805160a05160c05160e051611e75620003e160003960008181610db90152610de0015260008181610c2d0152610cf001526000818161038f015281816103dc0152610610015260006101760152611e756000f3fe608060405234801561001057600080fd5b506004361061007d5760003560e01c8063920f5c841161005b578063920f5c84146100ee578063b4dcfc771461011e578063c2d222071461013c578063f2fde38b146101585761007d565b80630542975c146100825780633bdebbe1146100a05780638da5cb5b146100d0575b600080fd5b61008a610174565b6040516100979190610f10565b60405180910390f35b6100ba60048036038101906100b59190610f7d565b610198565b6040516100c79190610fc3565b60405180910390f35b6100d86102e2565b6040516100e59190610fed565b60405180910390f35b61010860048036038101906101039190611119565b610306565b6040516101159190611230565b60405180910390f35b6101266103da565b604051610133919061126c565b60405180910390f35b61015660048036038101906101519190611327565b6103fe565b005b610172600480360381019061016d9190610f7d565b6106b5565b005b7f000000000000000000000000000000000000000000000000000000000000000081565b60008060009054906101000a900473ffffffffffffffffffffffffffffffffffffffff1673ffffffffffffffffffffffffffffffffffffffff163373ffffffffffffffffffffffffffffffffffffffff16146101f357600080fd5b8173ffffffffffffffffffffffffffffffffffffffff166370a08231306040518263ffffffff1660e01b815260040161022c9190610fed565b602060405180830381865afa158015610249573d6000803e3d6000fd5b505050506040513d601f19601f8201168201806040525081019061026d91906113de565b9050600081116102b2576040517f08c379a00000000000000000000000000000000000000000000000000000000081526004016102a99061148e565b60405180910390fd5b6102dd8260008054906101000a900473ffffffffffffffffffffffffffffffffffffffff1683610750565b919050565b60008054906101000a900473ffffffffffffffffffffffffffffffffffffffff1681565b600061031283836108a5565b60005b8a8a90508110156103c8576000878783818110610335576103346114ae565b5b905060200201358a8a8481811061034f5761034e6114ae565b5b90506020020135610360919061150c565b90506103b48c8c84818110610378576103776114ae565b5b905060200201602081019061038d9190610f7d565b7f000000000000000000000000000000000000000000000000000000000000000083610ad0565b5080806103c090611562565b915050610315565b50600190509998505050505050505050565b7f000000000000000000000000000000000000000000000000000000000000000081565b60008054906101000a900473ffffffffffffffffffffffffffffffffffffffff1673ffffffffffffffffffffffffffffffffffffffff163373ffffffffffffffffffffffffffffffffffffffff161461045657600080fd5b60003090506000600167ffffffffffffffff811115610478576104776115ab565b5b6040519080825280602002602001820160405280156104a65781602001602082028036833780820191505090505b50905088816000815181106104be576104bd6114ae565b5b602002602001019073ffffffffffffffffffffffffffffffffffffffff16908173ffffffffffffffffffffffffffffffffffffffff16815250506000600167ffffffffffffffff811115610515576105146115ab565b5b6040519080825280602002602001820160405280156105435781602001602082028036833780820191505090505b509050858160008151811061055b5761055a6114ae565b5b6020026020010181815250506000600167ffffffffffffffff811115610584576105836115ab565b5b6040519080825280602002602001820160405280156105b25781602001602082028036833780820191505090505b5090506000816000815181106105cb576105ca6114ae565b5b602002602001018181525050600030905060008c8c8c8c8c8c8c6040516020016105fb97969594939291906115f8565b604051602081830303815290604052905060007f000000000000000000000000000000000000000000000000000000000000000073ffffffffffffffffffffffffffffffffffffffff1663ab9c4b5d888888888888886040518863ffffffff1660e01b81526004016106739796959493929190611899565b600060405180830381600087803b15801561068d57600080fd5b505af11580156106a1573d6000803e3d6000fd5b505050505050505050505050505050505050565b60008054906101000a900473ffffffffffffffffffffffffffffffffffffffff1673ffffffffffffffffffffffffffffffffffffffff163373ffffffffffffffffffffffffffffffffffffffff161461070d57600080fd5b806000806101000a81548173ffffffffffffffffffffffffffffffffffffffff021916908373ffffffffffffffffffffffffffffffffffffffff16021790555050565b6000808473ffffffffffffffffffffffffffffffffffffffff1663a9059cbb60e01b8585604051602401610785929190611924565b604051602081830303815290604052907bffffffffffffffffffffffffffffffffffffffffffffffffffffffff19166020820180517bffffffffffffffffffffffffffffffffffffffffffffffffffffffff83818316178352505050506040516107ef9190611989565b6000604051808303816000865af19150503d806000811461082c576040519150601f19603f3d011682016040523d82523d6000602084013e610831565b606091505b509150915081801561085f575060008151148061085e57508080602001905181019061085d91906119cc565b5b5b61089e576040517f08c379a000000000000000000000000000000000000000000000000000000000815260040161089590611a45565b60405180910390fd5b5050505050565b600080600080600080600088888101906108bf9190611aa3565b96509650965096509650965096506000600267ffffffffffffffff8111156108ea576108e96115ab565b5b6040519080825280602002602001820160405280156109185781602001602082028036833780820191505090505b50905060018660ff1614156109ea57600061093685858b8b8a610c25565b9050878260008151811061094d5761094c6114ae565b5b602002602001019073ffffffffffffffffffffffffffffffffffffffff16908173ffffffffffffffffffffffffffffffffffffffff1681525050888260018151811061099c5761099b6114ae565b5b602002602001019073ffffffffffffffffffffffffffffffffffffffff16908173ffffffffffffffffffffffffffffffffffffffff16815250506109e38160008486610d96565b5050610ac4565b87816000815181106109ff576109fe6114ae565b5b602002602001019073ffffffffffffffffffffffffffffffffffffffff16908173ffffffffffffffffffffffffffffffffffffffff16815250508681600181518110610a4e57610a4d6114ae565b5b602002602001019073ffffffffffffffffffffffffffffffffffffffff16908173ffffffffffffffffffffffffffffffffffffffff16815250506000610a9685858486610d96565b9050610ac181600181518110610aaf57610aae6114ae565b5b602002602001015160008a8c8a610c25565b50505b50505050505050505050565b6000808473ffffffffffffffffffffffffffffffffffffffff1663095ea7b360e01b8585604051602401610b05929190611924565b604051602081830303815290604052907bffffffffffffffffffffffffffffffffffffffffffffffffffffffff19166020820180517bffffffffffffffffffffffffffffffffffffffffffffffffffffffff8381831617835250505050604051610b6f9190611989565b6000604051808303816000865af19150503d8060008114610bac576040519150601f19603f3d011682016040523d82523d6000602084013e610bb1565b606091505b5091509150818015610bdf5750600081511480610bde575080806020019051810190610bdd91906119cc565b5b5b610c1e576040517f08c379a0000000000000000000000000000000000000000000000000000000008152600401610c1590611b91565b60405180910390fd5b5050505050565b6000610c52847f000000000000000000000000000000000000000000000000000000000000000088610ad0565b60006040518061010001604052808673ffffffffffffffffffffffffffffffffffffffff1681526020018573ffffffffffffffffffffffffffffffffffffffff1681526020018462ffffff1681526020013073ffffffffffffffffffffffffffffffffffffffff168152602001428152602001888152602001878152602001600073ffffffffffffffffffffffffffffffffffffffff1681525090507f000000000000000000000000000000000000000000000000000000000000000073ffffffffffffffffffffffffffffffffffffffff1663414bf389826040518263ffffffff1660e01b8152600401610d479190611c71565b6020604051808303816000875af1158015610d66573d6000803e3d6000fd5b505050506040513d601f19601f82011682018060405250810190610d8a91906113de565b91505095945050505050565b6060610dde83600081518110610daf57610dae6114ae565b5b60200260200101517f000000000000000000000000000000000000000000000000000000000000000087610ad0565b7f000000000000000000000000000000000000000000000000000000000000000073ffffffffffffffffffffffffffffffffffffffff166338ed173986868630876040518663ffffffff1660e01b8152600401610e3f959493929190611c8d565b6000604051808303816000875af1158015610e5e573d6000803e3d6000fd5b505050506040513d6000823e3d601f19601f82011682018060405250810190610e879190611df6565b9050949350505050565b600073ffffffffffffffffffffffffffffffffffffffff82169050919050565b6000819050919050565b6000610ed6610ed1610ecc84610e91565b610eb1565b610e91565b9050919050565b6000610ee882610ebb565b9050919050565b6000610efa82610edd565b9050919050565b610f0a81610eef565b82525050565b6000602082019050610f256000830184610f01565b92915050565b6000604051905090565b600080fd5b600080fd5b6000610f4a82610e91565b9050919050565b610f5a81610f3f565b8114610f6557600080fd5b50565b600081359050610f7781610f51565b92915050565b600060208284031215610f9357610f92610f35565b5b6000610fa184828501610f68565b91505092915050565b6000819050919050565b610fbd81610faa565b82525050565b6000602082019050610fd86000830184610fb4565b92915050565b610fe781610f3f565b82525050565b60006020820190506110026000830184610fde565b92915050565b600080fd5b600080fd5b600080fd5b60008083601f84011261102d5761102c611008565b5b8235905067ffffffffffffffff81111561104a5761104961100d565b5b60208301915083602082028301111561106657611065611012565b5b9250929050565b60008083601f84011261108357611082611008565b5b8235905067ffffffffffffffff8111156110a05761109f61100d565b5b6020830191508360208202830111156110bc576110bb611012565b5b9250929050565b60008083601f8401126110d9576110d8611008565b5b8235905067ffffffffffffffff8111156110f6576110f561100d565b5b60208301915083600182028301111561111257611111611012565b5b9250929050565b600080600080600080600080600060a08a8c03121561113b5761113a610f35565b5b60008a013567ffffffffffffffff81111561115957611158610f3a565b5b6111658c828d01611017565b995099505060208a013567ffffffffffffffff81111561118857611187610f3a565b5b6111948c828d0161106d565b975097505060408a013567ffffffffffffffff8111156111b7576111b6610f3a565b5b6111c38c828d0161106d565b955095505060606111d68c828d01610f68565b93505060808a013567ffffffffffffffff8111156111f7576111f6610f3a565b5b6112038c828d016110c3565b92509250509295985092959850929598565b60008115159050919050565b61122a81611215565b82525050565b60006020820190506112456000830184611221565b92915050565b600061125682610edd565b9050919050565b6112668161124b565b82525050565b6000602082019050611281600083018461125d565b92915050565b600060ff82169050919050565b61129d81611287565b81146112a857600080fd5b50565b6000813590506112ba81611294565b92915050565b600062ffffff82169050919050565b6112d8816112c0565b81146112e357600080fd5b50565b6000813590506112f5816112cf565b92915050565b61130481610faa565b811461130f57600080fd5b50565b600081359050611321816112fb565b92915050565b600080600080600080600060e0888a03121561134657611345610f35565b5b60006113548a828b01610f68565b97505060206113658a828b01610f68565b96505060406113768a828b016112ab565b95505060606113878a828b016112e6565b94505060806113988a828b01611312565b93505060a06113a98a828b01611312565b92505060c06113ba8a828b01611312565b91505092959891949750929550565b6000815190506113d8816112fb565b92915050565b6000602082840312156113f4576113f3610f35565b5b6000611402848285016113c9565b91505092915050565b600082825260208201905092915050565b7f436f6e747261637420646f6573206e6f742068617665207468652070726f766960008201527f64656420455243323020746f6b656e2e00000000000000000000000000000000602082015250565b600061147860308361140b565b91506114838261141c565b604082019050919050565b600060208201905081810360008301526114a78161146b565b9050919050565b7f4e487b7100000000000000000000000000000000000000000000000000000000600052603260045260246000fd5b7f4e487b7100000000000000000000000000000000000000000000000000000000600052601160045260246000fd5b600061151782610faa565b915061152283610faa565b9250827fffffffffffffffffffffffffffffffffffffffffffffffffffffffffffffffff03821115611557576115566114dd565b5b828201905092915050565b600061156d82610faa565b91507fffffffffffffffffffffffffffffffffffffffffffffffffffffffffffffffff8214156115a05761159f6114dd565b5b600182019050919050565b7f4e487b7100000000000000000000000000000000000000000000000000000000600052604160045260246000fd5b6115e381611287565b82525050565b6115f2816112c0565b82525050565b600060e08201905061160d600083018a610fde565b61161a6020830189610fde565b61162760408301886115da565b61163460608301876115e9565b6116416080830186610fb4565b61164e60a0830185610fb4565b61165b60c0830184610fb4565b98975050505050505050565b600081519050919050565b600082825260208201905092915050565b6000819050602082019050919050565b61169c81610f3f565b82525050565b60006116ae8383611693565b60208301905092915050565b6000602082019050919050565b60006116d282611667565b6116dc8185611672565b93506116e783611683565b8060005b838110156117185781516116ff88826116a2565b975061170a836116ba565b9250506001810190506116eb565b5085935050505092915050565b600081519050919050565b600082825260208201905092915050565b6000819050602082019050919050565b61175a81610faa565b82525050565b600061176c8383611751565b60208301905092915050565b6000602082019050919050565b600061179082611725565b61179a8185611730565b93506117a583611741565b8060005b838110156117d65781516117bd8882611760565b97506117c883611778565b9250506001810190506117a9565b5085935050505092915050565b600081519050919050565b600082825260208201905092915050565b60005b8381101561181d578082015181840152602081019050611802565b8381111561182c576000848401525b50505050565b6000601f19601f8301169050919050565b600061184e826117e3565b61185881856117ee565b93506118688185602086016117ff565b61187181611832565b840191505092915050565b600061ffff82169050919050565b6118938161187c565b82525050565b600060e0820190506118ae600083018a610fde565b81810360208301526118c081896116c7565b905081810360408301526118d48188611785565b905081810360608301526118e88187611785565b90506118f76080830186610fde565b81810360a08301526119098185611843565b905061191860c083018461188a565b98975050505050505050565b60006040820190506119396000830185610fde565b6119466020830184610fb4565b9392505050565b600081905092915050565b6000611963826117e3565b61196d818561194d565b935061197d8185602086016117ff565b80840191505092915050565b60006119958284611958565b915081905092915050565b6119a981611215565b81146119b457600080fd5b50565b6000815190506119c6816119a0565b92915050565b6000602082840312156119e2576119e1610f35565b5b60006119f0848285016119b7565b91505092915050565b7f5354000000000000000000000000000000000000000000000000000000000000600082015250565b6000611a2f60028361140b565b9150611a3a826119f9565b602082019050919050565b60006020820190508181036000830152611a5e81611a22565b9050919050565b6000611a7082610e91565b9050919050565b611a8081611a65565b8114611a8b57600080fd5b50565b600081359050611a9d81611a77565b92915050565b600080600080600080600060e0888a031215611ac257611ac1610f35565b5b6000611ad08a828b01611a8e565b9750506020611ae18a828b01611a8e565b9650506040611af28a828b016112ab565b9550506060611b038a828b016112e6565b9450506080611b148a828b01611312565b93505060a0611b258a828b01611312565b92505060c0611b368a828b01611312565b91505092959891949750929550565b7f5341000000000000000000000000000000000000000000000000000000000000600082015250565b6000611b7b60028361140b565b9150611b8682611b45565b602082019050919050565b60006020820190508181036000830152611baa81611b6e565b9050919050565b611bba816112c0565b82525050565b611bc981610e91565b82525050565b61010082016000820151611be66000850182611693565b506020820151611bf96020850182611693565b506040820151611c0c6040850182611bb1565b506060820151611c1f6060850182611693565b506080820151611c326080850182611751565b5060a0820151611c4560a0850182611751565b5060c0820151611c5860c0850182611751565b5060e0820151611c6b60e0850182611bc0565b50505050565b600061010082019050611c876000830184611bcf565b92915050565b600060a082019050611ca26000830188610fb4565b611caf6020830187610fb4565b8181036040830152611cc181866116c7565b9050611cd06060830185610fde565b611cdd6080830184610fb4565b9695505050505050565b611cf082611832565b810181811067ffffffffffffffff82111715611d0f57611d0e6115ab565b5b80604052505050565b6000611d22610f2b565b9050611d2e8282611ce7565b919050565b600067ffffffffffffffff821115611d4e57611d4d6115ab565b5b602082029050602081019050919050565b6000611d72611d6d84611d33565b611d18565b90508083825260208201905060208402830185811115611d9557611d94611012565b5b835b81811015611dbe5780611daa88826113c9565b845260208401935050602081019050611d97565b5050509392505050565b600082601f830112611ddd57611ddc611008565b5b8151611ded848260208601611d5f565b91505092915050565b600060208284031215611e0c57611e0b610f35565b5b600082015167ffffffffffffffff811115611e2a57611e29610f3a565b5b611e3684828501611dc8565b9150509291505056fea2646970667358221220d4cc1b17b27df595dce804b4207b4bc8da2fc43ddafc0a0515164ab8631875fa64736f6c634300080a0033",
  "linkReferences": {},
  "deployedLinkReferences": {}
}