{
  "_format": "hh-sol-artifact-1",
  "contractName": "AaveFlashLoan",
  "sourceName": "contracts/AaveFlashLoan.sol",
  "abi": [
    {
      "inputs": [
        {
          "internalType": "contract ILendingPoolAddressesProvider",
          "name": "_addressProvider",
          "type": "address"
        }
      ],
      "stateMutability": "nonpayable",
      "type": "constructor"
    },
    {
      "inputs": [],
      "name": "ADDRESSES_PROVIDER",
      "outputs": [
        {
          "internalType": "contract ILendingPoolAddressesProvider",
          "name": "",
          "type": "address"
        }
      ],
      "stateMutability": "view",
      "type": "function"
    },
    {
      "inputs": [],
      "name": "LENDING_POOL",
      "outputs": [
        {
          "internalType": "contract ILendingPool",
          "name": "",
          "type": "address"
        }
      ],
      "stateMutability": "view",
      "type": "function"
    },
    {
      "inputs": [
        {
          "internalType": "address[]",
          "name": "assets",
          "type": "address[]"
        },
        {
          "internalType": "uint256[]",
          "name": "amounts",
          "type": "uint256[]"
        },
        {
          "internalType": "uint256[]",
          "name": "premiums",
          "type": "uint256[]"
        },
        {
          "internalType": "address",
          "name": "initiator",
          "type": "address"
        },
        {
          "internalType": "bytes",
          "name": "params",
          "type": "bytes"
        }
      ],
      "name": "executeOperation",
      "outputs": [
        {
          "internalType": "bool",
          "name": "",
          "type": "bool"
        }
      ],
      "stateMutability": "nonpayable",
      "type": "function"
    },
    {
      "inputs": [
        {
          "internalType": "address",
          "name": "token0",
          "type": "address"
        },
        {
          "internalType": "address",
          "name": "token1",
          "type": "address"
        },
        {
          "internalType": "uint8",
          "name": "direction",
          "type": "uint8"
        },
        {
          "internalType": "uint24",
          "name": "poolFee",
          "type": "uint24"
        },
        {
          "internalType": "uint256",
          "name": "amountIn",
          "type": "uint256"
        },
        {
          "internalType": "uint256",
          "name": "amountOut",
          "type": "uint256"
        },
        {
          "internalType": "uint256",
          "name": "deadline",
          "type": "uint256"
        }
      ],
      "name": "myFlashLoanCall",
      "outputs": [],
      "stateMutability": "nonpayable",
      "type": "function"
    },
    {
      "inputs": [],
      "name": "provider",
      "outputs": [
        {
          "internalType": "contract ILendingPoolAddressesProvider",
          "name": "",
          "type": "address"
        }
      ],
      "stateMutability": "view",
      "type": "function"
    }
  ],
  "bytecode": "0x60c060405273e592427a0aece92de3edee1f18e0157c0586156460405162000027906200036b565b6200003391906200042f565b604051809103906000f08015801562000050573d6000803e3d6000fd5b50600260006101000a81548173ffffffffffffffffffffffffffffffffffffffff021916908373ffffffffffffffffffffffffffffffffffffffff160217905550737a250d5630b4cf539739df2c5dacb4c659f2488d604051620000b49062000379565b620000c091906200044c565b604051809103906000f080158015620000dd573d6000803e3d6000fd5b50600360006101000a81548173ffffffffffffffffffffffffffffffffffffffff021916908373ffffffffffffffffffffffffffffffffffffffff1602179055503480156200012b57600080fd5b5060405162003f5638038062003f568339818101604052810190620001519190620003e1565b808073ffffffffffffffffffffffffffffffffffffffff1660808173ffffffffffffffffffffffffffffffffffffffff1660601b815250508073ffffffffffffffffffffffffffffffffffffffff16630261bf8b6040518163ffffffff1660e01b815260040160206040518083038186803b158015620001d057600080fd5b505afa158015620001e5573d6000803e3d6000fd5b505050506040513d601f19601f820116820180604052508101906200020b9190620003b5565b73ffffffffffffffffffffffffffffffffffffffff1660a08173ffffffffffffffffffffffffffffffffffffffff1660601b8152505050806000806101000a81548173ffffffffffffffffffffffffffffffffffffffff021916908373ffffffffffffffffffffffffffffffffffffffff16021790555060008054906101000a900473ffffffffffffffffffffffffffffffffffffffff1673ffffffffffffffffffffffffffffffffffffffff16630261bf8b6040518163ffffffff1660e01b815260040160206040518083038186803b158015620002e957600080fd5b505afa158015620002fe573d6000803e3d6000fd5b505050506040513d601f19601f82011682018060405250810190620003249190620003b5565b600160006101000a81548173ffffffffffffffffffffffffffffffffffffffff021916908373ffffffffffffffffffffffffffffffffffffffff1602179055505062000535565b610b8e806200257d83390190565b610e4b806200310b83390190565b600081519050620003988162000501565b92915050565b600081519050620003af816200051b565b92915050565b600060208284031215620003c857600080fd5b6000620003d88482850162000387565b91505092915050565b600060208284031215620003f457600080fd5b600062000404848285016200039e565b91505092915050565b6200041881620004b1565b82525050565b6200042981620004d9565b82525050565b60006020820190506200044660008301846200040d565b92915050565b60006020820190506200046360008301846200041e565b92915050565b6000620004768262000491565b9050919050565b60006200048a8262000469565b9050919050565b600073ffffffffffffffffffffffffffffffffffffffff82169050919050565b6000620004be82620004c5565b9050919050565b6000620004d28262000491565b9050919050565b6000620004e682620004ed565b9050919050565b6000620004fa8262000491565b9050919050565b6200050c8162000469565b81146200051857600080fd5b50565b62000526816200047d565b81146200053257600080fd5b50565b60805160601c60a05160601c61200e6200056f6000396000818161025d0152818161031501526105d501526000610104015261200e6000f3fe608060405234801561001057600080fd5b50600436106100575760003560e01c80630542975c1461005c578063085d48831461007a578063920f5c8414610098578063b4dcfc77146100c8578063c2d22207146100e6575b600080fd5b610064610102565b6040516100719190611a2a565b60405180910390f35b610082610126565b60405161008f9190611a2a565b60405180910390f35b6100b260048036038101906100ad91906114c0565b61014a565b6040516100bf9190611a0f565b60405180910390f35b6100d0610313565b6040516100dd9190611a45565b60405180910390f35b61010060048036038101906100fb9190611422565b610337565b005b7f000000000000000000000000000000000000000000000000000000000000000081565b60008054906101000a900473ffffffffffffffffffffffffffffffffffffffff1681565b6000610156838361067a565b60005b8a8a905081101561030157600087878381811061019f577f4e487b7100000000000000000000000000000000000000000000000000000000600052603260045260246000fd5b905060200201358a8a848181106101df577f4e487b7100000000000000000000000000000000000000000000000000000000600052603260045260246000fd5b905060200201356101f09190611cd5565b90508b8b8381811061022b577f4e487b7100000000000000000000000000000000000000000000000000000000600052603260045260246000fd5b905060200201602081019061024091906112d2565b73ffffffffffffffffffffffffffffffffffffffff1663095ea7b37f0000000000000000000000000000000000000000000000000000000000000000836040518363ffffffff1660e01b815260040161029a9291906119e6565b602060405180830381600087803b1580156102b457600080fd5b505af11580156102c8573d6000803e3d6000fd5b505050506040513d601f19601f820116820180604052508101906102ec91906115e9565b505080806102f990611e6d565b915050610159565b50600190509998505050505050505050565b7f000000000000000000000000000000000000000000000000000000000000000081565b60003090506000600167ffffffffffffffff81111561037f577f4e487b7100000000000000000000000000000000000000000000000000000000600052604160045260246000fd5b6040519080825280602002602001820160405280156103ad5781602001602082028036833780820191505090505b50905088816000815181106103eb577f4e487b7100000000000000000000000000000000000000000000000000000000600052603260045260246000fd5b602002602001019073ffffffffffffffffffffffffffffffffffffffff16908173ffffffffffffffffffffffffffffffffffffffff16815250506000600167ffffffffffffffff811115610468577f4e487b7100000000000000000000000000000000000000000000000000000000600052604160045260246000fd5b6040519080825280602002602001820160405280156104965781602001602082028036833780820191505090505b50905085816000815181106104d4577f4e487b7100000000000000000000000000000000000000000000000000000000600052603260045260246000fd5b6020026020010181815250506000600167ffffffffffffffff811115610523577f4e487b7100000000000000000000000000000000000000000000000000000000600052604160045260246000fd5b6040519080825280602002602001820160405280156105515781602001602082028036833780820191505090505b509050600081600081518110610590577f4e487b7100000000000000000000000000000000000000000000000000000000600052603260045260246000fd5b602002602001018181525050600030905060008c8c8c8c8c8c8c6040516020016105c097969594939291906118ec565b604051602081830303815290604052905060007f000000000000000000000000000000000000000000000000000000000000000073ffffffffffffffffffffffffffffffffffffffff1663ab9c4b5d888888888888886040518863ffffffff1660e01b8152600401610638979695949392919061195b565b600060405180830381600087803b15801561065257600080fd5b505af1158015610666573d6000803e3d6000fd5b505050505050505050505050505050505050565b600080600080600080600088888101906106949190611384565b965096509650965096509650965060008787868686866040516020016106bf9695949392919061188b565b604051602081830303815290604052905060018660ff1614156106f3576106e581610712565b6106ee81610827565b610706565b6106fc81610b2f565b61070581610da8565b5b50505050505050505050565b6000806000806000808680602001905181019061072f91906112fb565b95509550955095509550955061076886600260009054906101000a900473ffffffffffffffffffffffffffffffffffffffff1685610f4c565b600260009054906101000a900473ffffffffffffffffffffffffffffffffffffffff1673ffffffffffffffffffffffffffffffffffffffff1663d3b2a39984848989896040518663ffffffff1660e01b81526004016107cb959493929190611b2d565b602060405180830381600087803b1580156107e557600080fd5b505af11580156107f9573d6000803e3d6000fd5b505050506040513d601f19601f8201168201806040525081019061081d9190611612565b5050505050505050565b6000806000806000808680602001905181019061084491906112fb565b95509550955095509550955060008573ffffffffffffffffffffffffffffffffffffffff166370a08231306040518263ffffffff1660e01b815260040161088b9190611870565b60206040518083038186803b1580156108a357600080fd5b505afa1580156108b7573d6000803e3d6000fd5b505050506040513d601f19601f820116820180604052508101906108db9190611612565b905061090a86600360009054906101000a900473ffffffffffffffffffffffffffffffffffffffff1683610f4c565b6000600267ffffffffffffffff81111561094d577f4e487b7100000000000000000000000000000000000000000000000000000000600052604160045260246000fd5b60405190808252806020026020018201604052801561097b5781602001602082028036833780820191505090505b50905086816000815181106109b9577f4e487b7100000000000000000000000000000000000000000000000000000000600052603260045260246000fd5b602002602001019073ffffffffffffffffffffffffffffffffffffffff16908173ffffffffffffffffffffffffffffffffffffffff16815250508781600181518110610a2e577f4e487b7100000000000000000000000000000000000000000000000000000000600052603260045260246000fd5b602002602001019073ffffffffffffffffffffffffffffffffffffffff16908173ffffffffffffffffffffffffffffffffffffffff1681525050600360009054906101000a900473ffffffffffffffffffffffffffffffffffffffff1673ffffffffffffffffffffffffffffffffffffffff1663d1b991f78360008430886040518663ffffffff1660e01b8152600401610acc959493929190611ad3565b600060405180830381600087803b158015610ae657600080fd5b505af1158015610afa573d6000803e3d6000fd5b505050506040513d6000823e3d601f19601f82011682018060405250810190610b2391906115a8565b50505050505050505050565b60008060008060008086806020019051810190610b4c91906112fb565b955095509550955095509550610b8586600360009054906101000a900473ffffffffffffffffffffffffffffffffffffffff1685610f4c565b6000600267ffffffffffffffff811115610bc8577f4e487b7100000000000000000000000000000000000000000000000000000000600052604160045260246000fd5b604051908082528060200260200182016040528015610bf65781602001602082028036833780820191505090505b5090508681600081518110610c34577f4e487b7100000000000000000000000000000000000000000000000000000000600052603260045260246000fd5b602002602001019073ffffffffffffffffffffffffffffffffffffffff16908173ffffffffffffffffffffffffffffffffffffffff16815250508581600181518110610ca9577f4e487b7100000000000000000000000000000000000000000000000000000000600052603260045260246000fd5b602002602001019073ffffffffffffffffffffffffffffffffffffffff16908173ffffffffffffffffffffffffffffffffffffffff1681525050600360009054906101000a900473ffffffffffffffffffffffffffffffffffffffff1673ffffffffffffffffffffffffffffffffffffffff1663d1b991f785858430876040518663ffffffff1660e01b8152600401610d46959493929190611b80565b600060405180830381600087803b158015610d6057600080fd5b505af1158015610d74573d6000803e3d6000fd5b505050506040513d6000823e3d601f19601f82011682018060405250810190610d9d91906115a8565b505050505050505050565b60008060008060008086806020019051810190610dc591906112fb565b95509550955095509550955060008573ffffffffffffffffffffffffffffffffffffffff166370a08231306040518263ffffffff1660e01b8152600401610e0c9190611870565b60206040518083038186803b158015610e2457600080fd5b505afa158015610e38573d6000803e3d6000fd5b505050506040513d601f19601f82011682018060405250810190610e5c9190611612565b9050610e8b86600260009054906101000a900473ffffffffffffffffffffffffffffffffffffffff1683610f4c565b600260009054906101000a900473ffffffffffffffffffffffffffffffffffffffff1673ffffffffffffffffffffffffffffffffffffffff1663d3b2a399826000898b8a6040518663ffffffff1660e01b8152600401610eef959493929190611a80565b602060405180830381600087803b158015610f0957600080fd5b505af1158015610f1d573d6000803e3d6000fd5b505050506040513d601f19601f82011682018060405250810190610f419190611612565b505050505050505050565b6000808473ffffffffffffffffffffffffffffffffffffffff1663095ea7b360e01b8585604051602401610f819291906119e6565b604051602081830303815290604052907bffffffffffffffffffffffffffffffffffffffffffffffffffffffff19166020820180517bffffffffffffffffffffffffffffffffffffffffffffffffffffffff8381831617835250505050604051610feb9190611859565b6000604051808303816000865af19150503d8060008114611028576040519150601f19603f3d011682016040523d82523d6000602084013e61102d565b606091505b509150915081801561105b575060008151148061105a57508080602001905181019061105991906115e9565b5b5b61109a576040517f08c379a000000000000000000000000000000000000000000000000000000000815260040161109190611a60565b60405180910390fd5b5050505050565b60006110b46110af84611bff565b611bda565b905080838252602082019050828560208602820111156110d357600080fd5b60005b8581101561110357816110e988826112a8565b8452602084019350602083019250506001810190506110d6565b5050509392505050565b60008135905061111c81611f4e565b92915050565b60008135905061113181611f65565b92915050565b60008151905061114681611f65565b92915050565b60008083601f84011261115e57600080fd5b8235905067ffffffffffffffff81111561117757600080fd5b60208301915083602082028301111561118f57600080fd5b9250929050565b60008083601f8401126111a857600080fd5b8235905067ffffffffffffffff8111156111c157600080fd5b6020830191508360208202830111156111d957600080fd5b9250929050565b600082601f8301126111f157600080fd5b81516112018482602086016110a1565b91505092915050565b60008151905061121981611f7c565b92915050565b60008083601f84011261123157600080fd5b8235905067ffffffffffffffff81111561124a57600080fd5b60208301915083600182028301111561126257600080fd5b9250929050565b60008135905061127881611f93565b92915050565b60008151905061128d81611f93565b92915050565b6000813590506112a281611faa565b92915050565b6000815190506112b781611faa565b92915050565b6000813590506112cc81611fc1565b92915050565b6000602082840312156112e457600080fd5b60006112f28482850161110d565b91505092915050565b60008060008060008060c0878903121561131457600080fd5b600061132289828a01611137565b965050602061133389828a01611137565b955050604061134489828a0161127e565b945050606061135589828a016112a8565b935050608061136689828a016112a8565b92505060a061137789828a016112a8565b9150509295509295509295565b600080600080600080600060e0888a03121561139f57600080fd5b60006113ad8a828b01611122565b97505060206113be8a828b01611122565b96505060406113cf8a828b016112bd565b95505060606113e08a828b01611269565b94505060806113f18a828b01611293565b93505060a06114028a828b01611293565b92505060c06114138a828b01611293565b91505092959891949750929550565b600080600080600080600060e0888a03121561143d57600080fd5b600061144b8a828b0161110d565b975050602061145c8a828b0161110d565b965050604061146d8a828b016112bd565b955050606061147e8a828b01611269565b945050608061148f8a828b01611293565b93505060a06114a08a828b01611293565b92505060c06114b18a828b01611293565b91505092959891949750929550565b600080600080600080600080600060a08a8c0312156114de57600080fd5b60008a013567ffffffffffffffff8111156114f857600080fd5b6115048c828d0161114c565b995099505060208a013567ffffffffffffffff81111561152357600080fd5b61152f8c828d01611196565b975097505060408a013567ffffffffffffffff81111561154e57600080fd5b61155a8c828d01611196565b9550955050606061156d8c828d0161110d565b93505060808a013567ffffffffffffffff81111561158a57600080fd5b6115968c828d0161121f565b92509250509295985092959850929598565b6000602082840312156115ba57600080fd5b600082015167ffffffffffffffff8111156115d457600080fd5b6115e0848285016111e0565b91505092915050565b6000602082840312156115fb57600080fd5b60006116098482850161120a565b91505092915050565b60006020828403121561162457600080fd5b6000611632848285016112a8565b91505092915050565b6000611647838361166b565b60208301905092915050565b600061165f838361182c565b60208301905092915050565b61167481611d2b565b82525050565b61168381611d2b565b82525050565b600061169482611c4b565b61169e8185611c86565b93506116a983611c2b565b8060005b838110156116da5781516116c1888261163b565b97506116cc83611c6c565b9250506001810190506116ad565b5085935050505092915050565b60006116f282611c56565b6116fc8185611c97565b935061170783611c3b565b8060005b8381101561173857815161171f8882611653565b975061172a83611c79565b92505060018101905061170b565b5085935050505092915050565b61174e81611d4f565b82525050565b600061175f82611c61565b6117698185611ca8565b9350611779818560208601611e09565b61178281611f14565b840191505092915050565b600061179882611c61565b6117a28185611cb9565b93506117b2818560208601611e09565b80840191505092915050565b6117c781611daf565b82525050565b6117d681611dd3565b82525050565b6117e581611df7565b82525050565b60006117f8600283611cc4565b915061180382611f25565b602082019050919050565b61181781611d5b565b82525050565b61182681611d89565b82525050565b61183581611d98565b82525050565b61184481611d98565b82525050565b61185381611da2565b82525050565b6000611865828461178d565b915081905092915050565b6000602082019050611885600083018461167a565b92915050565b600060c0820190506118a0600083018961167a565b6118ad602083018861167a565b6118ba604083018761181d565b6118c7606083018661183b565b6118d4608083018561183b565b6118e160a083018461183b565b979650505050505050565b600060e082019050611901600083018a61167a565b61190e602083018961167a565b61191b604083018861184a565b611928606083018761181d565b611935608083018661183b565b61194260a083018561183b565b61194f60c083018461183b565b98975050505050505050565b600060e082019050611970600083018a61167a565b81810360208301526119828189611689565b9050818103604083015261199681886116e7565b905081810360608301526119aa81876116e7565b90506119b9608083018661167a565b81810360a08301526119cb8185611754565b90506119da60c083018461180e565b98975050505050505050565b60006040820190506119fb600083018561167a565b611a08602083018461183b565b9392505050565b6000602082019050611a246000830184611745565b92915050565b6000602082019050611a3f60008301846117be565b92915050565b6000602082019050611a5a60008301846117cd565b92915050565b60006020820190508181036000830152611a79816117eb565b9050919050565b600060a082019050611a95600083018861183b565b611aa260208301876117dc565b611aaf604083018661167a565b611abc606083018561167a565b611ac9608083018461181d565b9695505050505050565b600060a082019050611ae8600083018861183b565b611af560208301876117dc565b8181036040830152611b078186611689565b9050611b16606083018561167a565b611b23608083018461183b565b9695505050505050565b600060a082019050611b42600083018861183b565b611b4f602083018761183b565b611b5c604083018661167a565b611b69606083018561167a565b611b76608083018461181d565b9695505050505050565b600060a082019050611b95600083018861183b565b611ba2602083018761183b565b8181036040830152611bb48186611689565b9050611bc3606083018561167a565b611bd0608083018461183b565b9695505050505050565b6000611be4611bf5565b9050611bf08282611e3c565b919050565b6000604051905090565b600067ffffffffffffffff821115611c1a57611c19611ee5565b5b602082029050602081019050919050565b6000819050602082019050919050565b6000819050602082019050919050565b600081519050919050565b600081519050919050565b600081519050919050565b6000602082019050919050565b6000602082019050919050565b600082825260208201905092915050565b600082825260208201905092915050565b600082825260208201905092915050565b600081905092915050565b600082825260208201905092915050565b6000611ce082611d98565b9150611ceb83611d98565b9250827fffffffffffffffffffffffffffffffffffffffffffffffffffffffffffffffff03821115611d2057611d1f611eb6565b5b828201905092915050565b6000611d3682611d69565b9050919050565b6000611d4882611d69565b9050919050565b60008115159050919050565b600061ffff82169050919050565b600073ffffffffffffffffffffffffffffffffffffffff82169050919050565b600062ffffff82169050919050565b6000819050919050565b600060ff82169050919050565b6000611dba82611dc1565b9050919050565b6000611dcc82611d69565b9050919050565b6000611dde82611de5565b9050919050565b6000611df082611d69565b9050919050565b6000611e0282611d98565b9050919050565b60005b83811015611e27578082015181840152602081019050611e0c565b83811115611e36576000848401525b50505050565b611e4582611f14565b810181811067ffffffffffffffff82111715611e6457611e63611ee5565b5b80604052505050565b6000611e7882611d98565b91507fffffffffffffffffffffffffffffffffffffffffffffffffffffffffffffffff821415611eab57611eaa611eb6565b5b600182019050919050565b7f4e487b7100000000000000000000000000000000000000000000000000000000600052601160045260246000fd5b7f4e487b7100000000000000000000000000000000000000000000000000000000600052604160045260246000fd5b6000601f19601f8301169050919050565b7f5341000000000000000000000000000000000000000000000000000000000000600082015250565b611f5781611d2b565b8114611f6257600080fd5b50565b611f6e81611d3d565b8114611f7957600080fd5b50565b611f8581611d4f565b8114611f9057600080fd5b50565b611f9c81611d89565b8114611fa757600080fd5b50565b611fb381611d98565b8114611fbe57600080fd5b50565b611fca81611da2565b8114611fd557600080fd5b5056fea26469706673582212204ce806f784447b9fe928b879ea7f8325b6a7a7ca58738162844095b771a7d4ea64736f6c6343000801003360a060405234801561001057600080fd5b50604051610b8e380380610b8e83398181016040528101906100329190610084565b8073ffffffffffffffffffffffffffffffffffffffff1660808173ffffffffffffffffffffffffffffffffffffffff1660601b8152505050610108565b60008151905061007e816100f1565b92915050565b60006020828403121561009657600080fd5b60006100a48482850161006f565b91505092915050565b60006100b8826100d1565b9050919050565b60006100ca826100ad565b9050919050565b600073ffffffffffffffffffffffffffffffffffffffff82169050919050565b6100fa816100bf565b811461010557600080fd5b50565b60805160601c610a5c61013260003960008181608b0152818160c101526101840152610a5c6000f3fe608060405234801561001057600080fd5b50600436106100365760003560e01c8063c31c9c071461003b578063d3b2a39914610059575b600080fd5b610043610089565b6040516100509190610811565b60405180910390f35b610073600480360381019061006e91906105a1565b6100ad565b6040516100809190610888565b60405180910390f35b7f000000000000000000000000000000000000000000000000000000000000000081565b60006100bb84333089610239565b6100e6847f000000000000000000000000000000000000000000000000000000000000000088610391565b60006040518061010001604052808673ffffffffffffffffffffffffffffffffffffffff1681526020018573ffffffffffffffffffffffffffffffffffffffff1681526020018462ffffff1681526020013373ffffffffffffffffffffffffffffffffffffffff168152602001428152602001888152602001878152602001600073ffffffffffffffffffffffffffffffffffffffff1681525090507f000000000000000000000000000000000000000000000000000000000000000073ffffffffffffffffffffffffffffffffffffffff1663414bf389826040518263ffffffff1660e01b81526004016101db919061086c565b602060405180830381600087803b1580156101f557600080fd5b505af1158015610209573d6000803e3d6000fd5b505050506040513d601f19601f8201168201806040525081019061022d9190610578565b91505095945050505050565b6000808573ffffffffffffffffffffffffffffffffffffffff166323b872dd60e01b868686604051602401610270939291906107b1565b604051602081830303815290604052907bffffffffffffffffffffffffffffffffffffffffffffffffffffffff19166020820180517bffffffffffffffffffffffffffffffffffffffffffffffffffffffff83818316178352505050506040516102da919061079a565b6000604051808303816000865af19150503d8060008114610317576040519150601f19603f3d011682016040523d82523d6000602084013e61031c565b606091505b509150915081801561034a5750600081511480610349575080806020019051810190610348919061054f565b5b5b610389576040517f08c379a00000000000000000000000000000000000000000000000000000000081526004016103809061084c565b60405180910390fd5b505050505050565b6000808473ffffffffffffffffffffffffffffffffffffffff1663095ea7b360e01b85856040516024016103c69291906107e8565b604051602081830303815290604052907bffffffffffffffffffffffffffffffffffffffffffffffffffffffff19166020820180517bffffffffffffffffffffffffffffffffffffffffffffffffffffffff8381831617835250505050604051610430919061079a565b6000604051808303816000865af19150503d806000811461046d576040519150601f19603f3d011682016040523d82523d6000602084013e610472565b606091505b50915091508180156104a0575060008151148061049f57508080602001905181019061049e919061054f565b5b5b6104df576040517f08c379a00000000000000000000000000000000000000000000000000000000081526004016104d69061082c565b60405180910390fd5b5050505050565b6000813590506104f5816109ca565b92915050565b60008151905061050a816109e1565b92915050565b60008135905061051f816109f8565b92915050565b60008135905061053481610a0f565b92915050565b60008151905061054981610a0f565b92915050565b60006020828403121561056157600080fd5b600061056f848285016104fb565b91505092915050565b60006020828403121561058a57600080fd5b60006105988482850161053a565b91505092915050565b600080600080600060a086880312156105b957600080fd5b60006105c788828901610525565b95505060206105d888828901610525565b94505060406105e9888289016104e6565b93505060606105fa888289016104e6565b925050608061060b88828901610510565b9150509295509295909350565b610621816108ca565b82525050565b610630816108ca565b82525050565b6000610641826108a3565b61064b81856108ae565b935061065b818560208601610945565b80840191505092915050565b61067081610921565b82525050565b60006106836002836108b9565b915061068e82610978565b602082019050919050565b60006106a66003836108b9565b91506106b1826109a1565b602082019050919050565b610100820160008201516106d36000850182610618565b5060208201516106e66020850182610618565b5060408201516106f9604085018261076d565b50606082015161070c6060850182610618565b50608082015161071f608085018261077c565b5060a082015161073260a085018261077c565b5060c082015161074560c085018261077c565b5060e082015161075860e085018261075e565b50505050565b610767816108e8565b82525050565b61077681610908565b82525050565b61078581610917565b82525050565b61079481610917565b82525050565b60006107a68284610636565b915081905092915050565b60006060820190506107c66000830186610627565b6107d36020830185610627565b6107e0604083018461078b565b949350505050565b60006040820190506107fd6000830185610627565b61080a602083018461078b565b9392505050565b60006020820190506108266000830184610667565b92915050565b6000602082019050818103600083015261084581610676565b9050919050565b6000602082019050818103600083015261086581610699565b9050919050565b60006101008201905061088260008301846106bc565b92915050565b600060208201905061089d600083018461078b565b92915050565b600081519050919050565b600081905092915050565b600082825260208201905092915050565b60006108d5826108e8565b9050919050565b60008115159050919050565b600073ffffffffffffffffffffffffffffffffffffffff82169050919050565b600062ffffff82169050919050565b6000819050919050565b600061092c82610933565b9050919050565b600061093e826108e8565b9050919050565b60005b83811015610963578082015181840152602081019050610948565b83811115610972576000848401525b50505050565b7f5341000000000000000000000000000000000000000000000000000000000000600082015250565b7f5354460000000000000000000000000000000000000000000000000000000000600082015250565b6109d3816108ca565b81146109de57600080fd5b50565b6109ea816108dc565b81146109f557600080fd5b50565b610a0181610908565b8114610a0c57600080fd5b50565b610a1881610917565b8114610a2357600080fd5b5056fea2646970667358221220fffee3b0c2107f1a3d71cea7f9d8654d2c066273bb62f4ae600b35865a3a0a3164736f6c6343000801003360a060405234801561001057600080fd5b50604051610e4b380380610e4b83398181016040528101906100329190610084565b8073ffffffffffffffffffffffffffffffffffffffff1660808173ffffffffffffffffffffffffffffffffffffffff1660601b8152505050610108565b60008151905061007e816100f1565b92915050565b60006020828403121561009657600080fd5b60006100a48482850161006f565b91505092915050565b60006100b8826100d1565b9050919050565b60006100ca826100ad565b9050919050565b600073ffffffffffffffffffffffffffffffffffffffff82169050919050565b6100fa816100bf565b811461010557600080fd5b50565b60805160601c610d1861013360003960008181608b0152818161015d01526101840152610d186000f3fe608060405234801561001057600080fd5b50600436106100365760003560e01c80636d13582c1461003b578063d1b991f714610059575b600080fd5b610043610089565b6040516100509190610994565b60405180910390f35b610073600480360381019061006e91906106bc565b6100ad565b6040516100809190610972565b60405180910390f35b7f000000000000000000000000000000000000000000000000000000000000000081565b6060610109858560008181106100ec577f4e487b7100000000000000000000000000000000000000000000000000000000600052603260045260246000fd5b90506020020160208101906101019190610629565b33308a610248565b61018285856000818110610146577f4e487b7100000000000000000000000000000000000000000000000000000000600052603260045260246000fd5b905060200201602081019061015b9190610629565b7f0000000000000000000000000000000000000000000000000000000000000000896103a0565b7f000000000000000000000000000000000000000000000000000000000000000073ffffffffffffffffffffffffffffffffffffffff166338ed17398888888888886040518763ffffffff1660e01b81526004016101e5969594939291906109ef565b600060405180830381600087803b1580156101ff57600080fd5b505af1158015610213573d6000803e3d6000fd5b505050506040513d6000823e3d601f19601f8201168201806040525081019061023c9190610652565b90509695505050505050565b6000808573ffffffffffffffffffffffffffffffffffffffff166323b872dd60e01b86868660405160240161027f93929190610912565b604051602081830303815290604052907bffffffffffffffffffffffffffffffffffffffffffffffffffffffff19166020820180517bffffffffffffffffffffffffffffffffffffffffffffffffffffffff83818316178352505050506040516102e991906108fb565b6000604051808303816000865af19150503d8060008114610326576040519150601f19603f3d011682016040523d82523d6000602084013e61032b565b606091505b509150915081801561035957506000815114806103585750808060200190518101906103579190610693565b5b5b610398576040517f08c379a000000000000000000000000000000000000000000000000000000000815260040161038f906109cf565b60405180910390fd5b505050505050565b6000808473ffffffffffffffffffffffffffffffffffffffff1663095ea7b360e01b85856040516024016103d5929190610949565b604051602081830303815290604052907bffffffffffffffffffffffffffffffffffffffffffffffffffffffff19166020820180517bffffffffffffffffffffffffffffffffffffffffffffffffffffffff838183161783525050505060405161043f91906108fb565b6000604051808303816000865af19150503d806000811461047c576040519150601f19603f3d011682016040523d82523d6000602084013e610481565b606091505b50915091508180156104af57506000815114806104ae5750808060200190518101906104ad9190610693565b5b5b6104ee576040517f08c379a00000000000000000000000000000000000000000000000000000000081526004016104e5906109af565b60405180910390fd5b5050505050565b600061050861050384610a70565b610a4b565b9050808382526020820190508285602086028201111561052757600080fd5b60005b85811015610557578161053d8882610614565b84526020840193506020830192505060018101905061052a565b5050509392505050565b60008135905061057081610c9d565b92915050565b60008083601f84011261058857600080fd5b8235905067ffffffffffffffff8111156105a157600080fd5b6020830191508360208202830111156105b957600080fd5b9250929050565b600082601f8301126105d157600080fd5b81516105e18482602086016104f5565b91505092915050565b6000815190506105f981610cb4565b92915050565b60008135905061060e81610ccb565b92915050565b60008151905061062381610ccb565b92915050565b60006020828403121561063b57600080fd5b600061064984828501610561565b91505092915050565b60006020828403121561066457600080fd5b600082015167ffffffffffffffff81111561067e57600080fd5b61068a848285016105c0565b91505092915050565b6000602082840312156106a557600080fd5b60006106b3848285016105ea565b91505092915050565b60008060008060008060a087890312156106d557600080fd5b60006106e389828a016105ff565b96505060206106f489828a016105ff565b955050604087013567ffffffffffffffff81111561071157600080fd5b61071d89828a01610576565b9450945050606061073089828a01610561565b925050608061074189828a016105ff565b9150509295509295509295565b600061075a838361077e565b60208301905092915050565b600061077283836108dd565b60208301905092915050565b61078781610b3b565b82525050565b61079681610b3b565b82525050565b60006107a88385610ae6565b93506107b382610a9c565b8060005b858110156107ec576107c98284610b24565b6107d3888261074e565b97506107de83610acc565b9250506001810190506107b7565b5085925050509392505050565b600061080482610ab6565b61080e8185610af7565b935061081983610aa6565b8060005b8381101561084a5781516108318882610766565b975061083c83610ad9565b92505060018101905061081d565b5085935050505092915050565b600061086282610ac1565b61086c8185610b08565b935061087c818560208601610ba7565b80840191505092915050565b61089181610b83565b82525050565b60006108a4600283610b13565b91506108af82610c4b565b602082019050919050565b60006108c7600383610b13565b91506108d282610c74565b602082019050919050565b6108e681610b79565b82525050565b6108f581610b79565b82525050565b60006109078284610857565b915081905092915050565b6000606082019050610927600083018661078d565b610934602083018561078d565b61094160408301846108ec565b949350505050565b600060408201905061095e600083018561078d565b61096b60208301846108ec565b9392505050565b6000602082019050818103600083015261098c81846107f9565b905092915050565b60006020820190506109a96000830184610888565b92915050565b600060208201905081810360008301526109c881610897565b9050919050565b600060208201905081810360008301526109e8816108ba565b9050919050565b600060a082019050610a0460008301896108ec565b610a1160208301886108ec565b8181036040830152610a2481868861079c565b9050610a33606083018561078d565b610a4060808301846108ec565b979650505050505050565b6000610a55610a66565b9050610a618282610bda565b919050565b6000604051905090565b600067ffffffffffffffff821115610a8b57610a8a610c0b565b5b602082029050602081019050919050565b6000819050919050565b6000819050602082019050919050565b600081519050919050565b600081519050919050565b6000602082019050919050565b6000602082019050919050565b600082825260208201905092915050565b600082825260208201905092915050565b600081905092915050565b600082825260208201905092915050565b6000610b336020840184610561565b905092915050565b6000610b4682610b59565b9050919050565b60008115159050919050565b600073ffffffffffffffffffffffffffffffffffffffff82169050919050565b6000819050919050565b6000610b8e82610b95565b9050919050565b6000610ba082610b59565b9050919050565b60005b83811015610bc5578082015181840152602081019050610baa565b83811115610bd4576000848401525b50505050565b610be382610c3a565b810181811067ffffffffffffffff82111715610c0257610c01610c0b565b5b80604052505050565b7f4e487b7100000000000000000000000000000000000000000000000000000000600052604160045260246000fd5b6000601f19601f8301169050919050565b7f5341000000000000000000000000000000000000000000000000000000000000600082015250565b7f5354460000000000000000000000000000000000000000000000000000000000600082015250565b610ca681610b3b565b8114610cb157600080fd5b50565b610cbd81610b4d565b8114610cc857600080fd5b50565b610cd481610b79565b8114610cdf57600080fd5b5056fea26469706673582212204c4b3b85b688e181e15ab4f92403fb639653892c77a764c8c5d3933e792145c264736f6c63430008010033",
  "linkReferences": {},
  "deployedLinkReferences": {}
}