{
  "_format": "hh-sol-artifact-1",
  "contractName": "UniSwapSingleSwap",
  "sourceName": "contracts/DeFi_Exchanges/UniSwapSingleSwap.sol",
  "abi": [
    {
      "inputs": [
        {
          "internalType": "contract ISwapRouter",
          "name": "_swapRouter",
          "type": "address"
        }
      ],
      "stateMutability": "nonpayable",
      "type": "constructor"
    },
    {
      "inputs": [
        {
          "internalType": "uint256",
          "name": "amountIn",
          "type": "uint256"
        },
        {
          "internalType": "uint256",
          "name": "amountOutMinimum",
          "type": "uint256"
        },
        {
          "internalType": "address",
          "name": "token0",
          "type": "address"
        },
        {
          "internalType": "address",
          "name": "token1",
          "type": "address"
        },
        {
          "internalType": "uint24",
          "name": "poolFee",
          "type": "uint24"
        }
      ],
      "name": "swapExactInputSingle",
      "outputs": [
        {
          "internalType": "uint256",
          "name": "amountOut",
          "type": "uint256"
        }
      ],
      "stateMutability": "nonpayable",
      "type": "function"
    },
    {
      "inputs": [],
      "name": "swapRouter",
      "outputs": [
        {
          "internalType": "contract ISwapRouter",
          "name": "",
          "type": "address"
        }
      ],
      "stateMutability": "view",
      "type": "function"
    }
  ],
  "bytecode": "0x60a060405234801561001057600080fd5b506040516106b73803806106b783398101604081905261002f91610040565b6001600160a01b0316608052610070565b60006020828403121561005257600080fd5b81516001600160a01b038116811461006957600080fd5b9392505050565b6080516106206100976000396000818160400152818160b4015261014d01526106206000f3fe608060405234801561001057600080fd5b50600436106100365760003560e01c8063c31c9c071461003b578063d3b2a3991461007f575b600080fd5b6100627f000000000000000000000000000000000000000000000000000000000000000081565b6040516001600160a01b0390911681526020015b60405180910390f35b61009261008d36600461048c565b6100a0565b604051908152602001610076565b60006100ae843330896101d0565b6100d9847f000000000000000000000000000000000000000000000000000000000000000088610327565b60408051610100810182526001600160a01b038087168252858116602083015262ffffff85168284015233606083015242608083015260a0820189905260c08201889052600060e083015291517f414bf38900000000000000000000000000000000000000000000000000000000815290917f0000000000000000000000000000000000000000000000000000000000000000169063414bf389906101829084906004016104ef565b6020604051808303816000875af11580156101a1573d6000803e3d6000fd5b505050506040513d601f19601f820116820180604052508101906101c5919061056d565b979650505050505050565b604080516001600160a01b0385811660248301528481166044830152606480830185905283518084039091018152608490920183526020820180517bffffffffffffffffffffffffffffffffffffffffffffffffffffffff167f23b872dd0000000000000000000000000000000000000000000000000000000017905291516000928392908816916102629190610586565b6000604051808303816000865af19150503d806000811461029f576040519150601f19603f3d011682016040523d82523d6000602084013e6102a4565b606091505b50915091508180156102ce5750805115806102ce5750808060200190518101906102ce91906105c1565b61031f5760405162461bcd60e51b815260206004820152600360248201527f535446000000000000000000000000000000000000000000000000000000000060448201526064015b60405180910390fd5b505050505050565b604080516001600160a01b038481166024830152604480830185905283518084039091018152606490920183526020820180517bffffffffffffffffffffffffffffffffffffffffffffffffffffffff167f095ea7b30000000000000000000000000000000000000000000000000000000017905291516000928392908716916103b19190610586565b6000604051808303816000865af19150503d80600081146103ee576040519150601f19603f3d011682016040523d82523d6000602084013e6103f3565b606091505b509150915081801561041d57508051158061041d57508080602001905181019061041d91906105c1565b6104695760405162461bcd60e51b815260206004820152600260248201527f53410000000000000000000000000000000000000000000000000000000000006044820152606401610316565b5050505050565b80356001600160a01b038116811461048757600080fd5b919050565b600080600080600060a086880312156104a457600080fd5b85359450602086013593506104bb60408701610470565b92506104c960608701610470565b9150608086013562ffffff811681146104e157600080fd5b809150509295509295909350565b6000610100820190506001600160a01b0380845116835280602085015116602084015262ffffff6040850151166040840152806060850151166060840152506080830151608083015260a083015160a083015260c083015160c083015260e083015161056660e08401826001600160a01b03169052565b5092915050565b60006020828403121561057f57600080fd5b5051919050565b6000825160005b818110156105a7576020818601810151858301520161058d565b818111156105b6576000828501525b509190910192915050565b6000602082840312156105d357600080fd5b815180151581146105e357600080fd5b939250505056fea264697066735822122031d87e3fd670d3d7ba5e7cb7d5bc475aa3b0a1e8f884a3a1c2c6d6deaf89295d64736f6c634300080a0033",
  "linkReferences": {},
  "deployedLinkReferences": {}
}