{
  "_format": "hh-sol-artifact-1",
  "contractName": "AaveFlashLoanV3Factory",
  "sourceName": "contracts/AaveFlashLoanV3Factory.sol",
  "abi": [
    {
      "inputs": [
        {
          "internalType": "contract IPoolAddressesProvider",
          "name": "_addressProvider",
          "type": "address"
        },
        {
          "internalType": "contract ISwapRouter",
          "name": "_uniSwapRouter",
          "type": "address"
        },
        {
          "internalType": "contract IUniswapV2Router02",
          "name": "_sushiRouter",
          "type": "address"
        },
        {
          "internalType": "contract IChainLinkOracle",
          "name": "_oracle",
          "type": "address"
        }
      ],
      "stateMutability": "nonpayable",
      "type": "constructor"
    },
    {
      "inputs": [],
      "name": "addressProvider",
      "outputs": [
        {
          "internalType": "contract IPoolAddressesProvider",
          "name": "",
          "type": "address"
        }
      ],
      "stateMutability": "view",
      "type": "function"
    },
    {
      "inputs": [],
      "name": "chainLinkOracle",
      "outputs": [
        {
          "internalType": "contract IChainLinkOracle",
          "name": "",
          "type": "address"
        }
      ],
      "stateMutability": "view",
      "type": "function"
    },
    {
      "inputs": [
        {
          "internalType": "uint256",
          "name": "setAmount",
          "type": "uint256"
        }
      ],
      "name": "changeUSDAmount",
      "outputs": [],
      "stateMutability": "nonpayable",
      "type": "function"
    },
    {
      "inputs": [],
      "name": "createNewFlashLoanContract",
      "outputs": [
        {
          "internalType": "address",
          "name": "",
          "type": "address"
        }
      ],
      "stateMutability": "payable",
      "type": "function"
    },
    {
      "inputs": [],
      "name": "getAmountOfFlashLoansCreated",
      "outputs": [
        {
          "internalType": "uint256",
          "name": "amountCreated",
          "type": "uint256"
        }
      ],
      "stateMutability": "view",
      "type": "function"
    },
    {
      "inputs": [
        {
          "internalType": "address",
          "name": "creatorAddress",
          "type": "address"
        }
      ],
      "name": "getFlashLoanContract",
      "outputs": [
        {
          "internalType": "address",
          "name": "flashLoanContractAddress",
          "type": "address"
        }
      ],
      "stateMutability": "view",
      "type": "function"
    },
    {
      "inputs": [],
      "name": "getMaticValueNeededForNewContract",
      "outputs": [
        {
          "internalType": "uint256",
          "name": "amountNeeded",
          "type": "uint256"
        }
      ],
      "stateMutability": "view",
      "type": "function"
    },
    {
      "inputs": [],
      "name": "getOwner",
      "outputs": [
        {
          "internalType": "address",
          "name": "",
          "type": "address"
        }
      ],
      "stateMutability": "view",
      "type": "function"
    },
    {
      "inputs": [],
      "name": "sushiRouter",
      "outputs": [
        {
          "internalType": "contract IUniswapV2Router02",
          "name": "",
          "type": "address"
        }
      ],
      "stateMutability": "view",
      "type": "function"
    },
    {
      "inputs": [],
      "name": "uniSwapRouter",
      "outputs": [
        {
          "internalType": "contract ISwapRouter",
          "name": "",
          "type": "address"
        }
      ],
      "stateMutability": "view",
      "type": "function"
    },
    {
      "inputs": [],
      "name": "withdraw",
      "outputs": [],
      "stateMutability": "nonpayable",
      "type": "function"
    }
  ],
  "bytecode": "0x610100604052603260015534801561001657600080fd5b506040516123d03803806123d083398101604081905261003591610081565b3360e052600080546001600160a01b0319166001600160a01b03958616179055918316608052821660a0521660c0526100e0565b6001600160a01b038116811461007e57600080fd5b50565b6000806000806080858703121561009757600080fd5b84516100a281610069565b60208601519094506100b381610069565b60408601519093506100c481610069565b60608601519092506100d581610069565b939692955090935050565b60805160a05160c05160e05161227f6101516000396000818161024d01528181610284015281816102be015281816102ec0152818161047c01526105c001526000818161020701526103b80152600081816101d3015261076201526000818161019f0152610740015261227f6000f3fe6080604052600436106100bc5760003560e01c80635d01ff3d11610074578063837708811161004e5780638377088114610229578063893d20e81461023e578063c20b43951461027157600080fd5b80635d01ff3d1461018d5780636d13582c146101c157806378cd62c5146101f557600080fd5b80632954018c116100a55780632954018c1461013957806339ab4a24146101595780633ccfd60b1461017857600080fd5b8063049211a8146100c157806323ceb29a14610117575b600080fd5b3480156100cd57600080fd5b506100fa6100dc366004610839565b6001600160a01b039081166000908152600260205260409020541690565b6040516001600160a01b0390911681526020015b60405180910390f35b34801561012357600080fd5b50610137610132366004610869565b610279565b005b34801561014557600080fd5b506000546100fa906001600160a01b031681565b34801561016557600080fd5b506003545b60405190815260200161010e565b34801561018457600080fd5b506101376102b3565b34801561019957600080fd5b506100fa7f000000000000000000000000000000000000000000000000000000000000000081565b3480156101cd57600080fd5b506100fa7f000000000000000000000000000000000000000000000000000000000000000081565b34801561020157600080fd5b506100fa7f000000000000000000000000000000000000000000000000000000000000000081565b34801561023557600080fd5b5061016a6103b3565b34801561024a57600080fd5b507f00000000000000000000000000000000000000000000000000000000000000006100fa565b6100fa61046f565b336001600160a01b037f000000000000000000000000000000000000000000000000000000000000000016146102ae57600080fd5b600155565b336001600160a01b037f000000000000000000000000000000000000000000000000000000000000000016146102e857600080fd5b60007f00000000000000000000000000000000000000000000000000000000000000006001600160a01b03164760405160006040518083038185875af1925050503d8060008114610355576040519150601f19603f3d011682016040523d82523d6000602084013e61035a565b606091505b50509050806103b05760405162461bcd60e51b815260206004820152601060248201527f5769746864726177206661696c65642e0000000000000000000000000000000060448201526064015b60405180910390fd5b50565b6000807f00000000000000000000000000000000000000000000000000000000000000006001600160a01b03166350d25bcd6040518163ffffffff1660e01b8152600401602060405180830381865afa158015610414573d6000803e3d6000fd5b505050506040513d601f19601f820116820180604052508101906104389190610882565b905080600154670de0b6b3a764000061045191906108b1565b61045b91906108d0565b610469906305f5e1006108b1565b91505090565b6000336001600160a01b037f000000000000000000000000000000000000000000000000000000000000000016146107295760006104ab6103b3565b9050803410156105bc5760405162461bcd60e51b81526020600482015260b060248201527f4e65656420746f2073656e642061206d696e696d756d20616d6f756e74206f6660448201527f206d6174696320746f20707572636861736520666c617368206c6f616e20636f60648201527f6e74726163742e20416e79206c6566746f7665722066756e647320617265207260848201527f657475726e65642e2056696577206765744d6174696356616c75654e6565646560a48201527f64466f724e6577436f6e747261637420666f722063757272656e74206d61746960c48201527f6320616d6f756e74206e65656465642e0000000000000000000000000000000060e4820152610104016103a7565b60007f00000000000000000000000000000000000000000000000000000000000000006001600160a01b03168260405160006040518083038185875af1925050503d8060008114610629576040519150601f19603f3d011682016040523d82523d6000602084013e61062e565b606091505b505090508061067f5760405162461bcd60e51b815260206004820152601960248201527f5472616e7366657220746f206f776e6572206661696c65642e0000000000000060448201526064016103a7565b47156107265760003361069284346108f2565b604051600081818185875af1925050503d80600081146106ce576040519150601f19603f3d011682016040523d82523d6000602084013e6106d3565b606091505b50509050806107245760405162461bcd60e51b815260206004820152601660248201527f526566756e6420746f2075736572206661696c65642e0000000000000000000060448201526064016103a7565b505b50505b600080546040516001600160a01b039091169033907f0000000000000000000000000000000000000000000000000000000000000000907f00000000000000000000000000000000000000000000000000000000000000009061078b9061082c565b6001600160a01b039485168152928416602084015290831660408301529091166060820152608001604051809103906000f0801580156107cf573d6000803e3d6000fd5b5033600090815260026020526040812080547fffffffffffffffffffffffff0000000000000000000000000000000000000000166001600160a01b038416179055600380549293509061082183610909565b909155509092915050565b6119258061092583390190565b60006020828403121561084b57600080fd5b81356001600160a01b038116811461086257600080fd5b9392505050565b60006020828403121561087b57600080fd5b5035919050565b60006020828403121561089457600080fd5b5051919050565b634e487b7160e01b600052601160045260246000fd5b60008160001904831182151516156108cb576108cb61089b565b500290565b6000826108ed57634e487b7160e01b600052601260045260246000fd5b500490565b6000828210156109045761090461089b565b500390565b600060001982141561091d5761091d61089b565b506001019056fe6101006040526000805462ffffff60a01b191661027160a61b1790553480156200002857600080fd5b5060405162001925380380620019258339810160408190526200004b916200011c565b83806001600160a01b03166080816001600160a01b031681525050806001600160a01b031663026b1d5f6040518163ffffffff1660e01b8152600401602060405180830381865afa158015620000a5573d6000803e3d6000fd5b505050506040513d601f19601f82011682018060405250810190620000cb919062000184565b6001600160a01b0390811660a052600080546001600160a01b031916958216959095179094555090821660c0521660e05250620001ab565b6001600160a01b03811681146200011957600080fd5b50565b600080600080608085870312156200013357600080fd5b8451620001408162000103565b6020860151909450620001538162000103565b6040860151909350620001668162000103565b6060860151909250620001798162000103565b939692955090935050565b6000602082840312156200019757600080fd5b8151620001a48162000103565b9392505050565b60805160a05160c05160e0516117256200020060003960008181610fee0152611043015260008181610e6c0152610f51015260008181610161015281816105c701526107ec0152600060c801526117256000f3fe608060405234801561001057600080fd5b50600436106100be5760003560e01c8063893d20e811610076578063b6e9ba9c1161005b578063b6e9ba9c146101b7578063c2d22207146101ca578063f2fde38b146101dd57600080fd5b8063893d20e814610183578063920f5c841461019457600080fd5b80633ccfd60b116100a75780633ccfd60b146101285780636ef2459c146101325780637535d2461461015c57600080fd5b80630542975c146100c35780633bdebbe114610107575b600080fd5b6100ea7f000000000000000000000000000000000000000000000000000000000000000081565b6040516001600160a01b0390911681526020015b60405180910390f35b61011a6101153660046110e5565b6101f0565b6040519081526020016100fe565b61013061030a565b005b60005461014890600160a01b900462ffffff1681565b60405162ffffff90911681526020016100fe565b6100ea7f000000000000000000000000000000000000000000000000000000000000000081565b6000546001600160a01b03166100ea565b6101a76101a2366004611155565b6103c7565b60405190151581526020016100fe565b6101306101c536600461125a565b610614565b6101306101d83660046112a2565b610666565b6101306101eb3660046110e5565b61086f565b600080546001600160a01b0316331461020857600080fd5b6040516370a0823160e01b81523060048201526001600160a01b038316906370a0823190602401602060405180830381865afa15801561024c573d6000803e3d6000fd5b505050506040513d601f19601f820116820180604052508101906102709190611315565b9050600081116102ed5760405162461bcd60e51b815260206004820152603060248201527f436f6e747261637420646f6573206e6f742068617665207468652070726f766960448201527f64656420455243323020746f6b656e2e0000000000000000000000000000000060648201526084015b60405180910390fd5b6000546103059083906001600160a01b0316836108c0565b919050565b6000546001600160a01b0316331461032157600080fd5b600080546040516001600160a01b039091169047908381818185875af1925050503d806000811461036e576040519150601f19603f3d011682016040523d82523d6000602084013e610373565b606091505b50509050806103c45760405162461bcd60e51b815260206004820152601060248201527f5769746864726177206661696c65642e0000000000000000000000000000000060448201526064016102e4565b50565b60006103d583838888610a09565b60006040518060600160405280602e81526020016116c2602e913960408051808201909152601781527f202d20416d6f756e7420696e20436f6e74726163743a20000000000000000000602082015290915060005b8b8110156106015760008989838181106104465761044661132e565b905060200201358c8c8481811061045f5761045f61132e565b90506020020135610470919061135a565b905060008e8e848181106104865761048661132e565b905060200201602081019061049b91906110e5565b6040516370a0823160e01b81523060048201526001600160a01b0391909116906370a0823190602401602060405180830381865afa1580156104e1573d6000803e3d6000fd5b505050506040513d601f19601f820116820180604052508101906105059190611315565b90508082108561051484610be8565b6040516020016105259291906113a2565b6040516020818303038152906040528561053e84610be8565b60405160200161054f9291906113a2565b60408051601f198184030181529082905261056d92916020016113a2565b6040516020818303038152906040529061059a5760405162461bcd60e51b81526004016102e491906113fd565b506105ec8f8f858181106105b0576105b061132e565b90506020020160208101906105c591906110e5565b7f000000000000000000000000000000000000000000000000000000000000000084610d22565b505080806105f990611410565b91505061042a565b5060019c9b505050505050505050505050565b6000546001600160a01b0316331461062b57600080fd5b600080547fffffffffffffffffff000000ffffffffffffffffffffffffffffffffffffffff1661ffff92909216600160a01b02919091179055565b6000546001600160a01b0316331461067d57600080fd5b6040805160018082528183019092523091600091906020808301908036833701905050905088816000815181106106b6576106b661132e565b6001600160a01b03929092166020928302919091019091015260408051600180825281830190925260009181602001602082028036833701905050905085816000815181106107075761070761132e565b602090810291909101015260408051600180825281830190925260009181602001602082028036833701905050905060008160008151811061074b5761074b61132e565b602090810291909101810191909152604080516001600160a01b03808f1693820193909352918c169082015260ff8a16606082015262ffffff8916608082015260a0810188905260c0810187905260e0810186905230906000906101000160408051601f19818403018152908290527fab9c4b5d00000000000000000000000000000000000000000000000000000000825291506000906001600160a01b037f0000000000000000000000000000000000000000000000000000000000000000169063ab9c4b5d9061082d908a908a908a908a908a908a908a906004016114b5565b600060405180830381600087803b15801561084757600080fd5b505af115801561085b573d6000803e3d6000fd5b505050505050505050505050505050505050565b6000546001600160a01b0316331461088657600080fd5b600080547fffffffffffffffffffffffff0000000000000000000000000000000000000000166001600160a01b0392909216919091179055565b604080516001600160a01b038481166024830152604480830185905283518084039091018152606490920183526020820180517bffffffffffffffffffffffffffffffffffffffffffffffffffffffff167fa9059cbb00000000000000000000000000000000000000000000000000000000179052915160009283929087169161094a9190611534565b6000604051808303816000865af19150503d8060008114610987576040519150601f19603f3d011682016040523d82523d6000602084013e61098c565b606091505b50915091508180156109b65750805115806109b65750808060200190518101906109b69190611550565b610a025760405162461bcd60e51b815260206004820152600260248201527f535400000000000000000000000000000000000000000000000000000000000060448201526064016102e4565b5050505050565b6000808080808080610a1d8a8c018c6112a2565b604080516002808252606082018352989f50969d50949b509299509097509550935060009290602083019080368337019050506000805491925090610a6e90600160a01b900462ffffff1686611588565b8b8b6000818110610a8157610a8161132e565b9050602002013586610a93919061135a565b610a9d919061135a565b90508660ff1660011415610b37576000610aba86868c8c8b610e64565b90508883600081518110610ad057610ad061132e565b60200260200101906001600160a01b031690816001600160a01b0316815250508983600181518110610b0457610b0461132e565b60200260200101906001600160a01b031690816001600160a01b031681525050610b3081838587610fcc565b5050610bd9565b8882600081518110610b4b57610b4b61132e565b60200260200101906001600160a01b031690816001600160a01b0316815250508782600181518110610b7f57610b7f61132e565b60200260200101906001600160a01b031690816001600160a01b0316815250506000610bad86868587610fcc565b9050610bd681600181518110610bc557610bc561132e565b6020026020010151838b8d8b610e64565b50505b50505050505050505050505050565b606081610c2857505060408051808201909152600181527f3000000000000000000000000000000000000000000000000000000000000000602082015290565b8160005b8115610c525780610c3c81611410565b9150610c4b9050600a83611588565b9150610c2c565b60008167ffffffffffffffff811115610c6d57610c6d61142b565b6040519080825280601f01601f191660200182016040528015610c97576020820181803683370190505b5090505b8415610d1a57610cac60018361159c565b9150610cb9600a866115b3565b610cc490603061135a565b60f81b818381518110610cd957610cd961132e565b60200101907effffffffffffffffffffffffffffffffffffffffffffffffffffffffffffff1916908160001a905350610d13600a86611588565b9450610c9b565b949350505050565b604080516001600160a01b038481166024830152604480830185905283518084039091018152606490920183526020820180517bffffffffffffffffffffffffffffffffffffffffffffffffffffffff167f095ea7b3000000000000000000000000000000000000000000000000000000001790529151600092839290871691610dac9190611534565b6000604051808303816000865af19150503d8060008114610de9576040519150601f19603f3d011682016040523d82523d6000602084013e610dee565b606091505b5091509150818015610e18575080511580610e18575080806020019051810190610e189190611550565b610a025760405162461bcd60e51b815260206004820152600260248201527f534100000000000000000000000000000000000000000000000000000000000060448201526064016102e4565b6000610e91847f000000000000000000000000000000000000000000000000000000000000000088610d22565b60408051610100810182526001600160a01b0386811682528581166020830190815262ffffff8681168486019081523060608601908152426080870190815260a087018e815260c088018e8152600060e08a0190815299517f414bf38900000000000000000000000000000000000000000000000000000000815289518916600482015296518816602488015293519094166044860152905185166064850152516084840152905160a48301525160c48201529251811660e484015290917f00000000000000000000000000000000000000000000000000000000000000009091169063414bf38990610104016020604051808303816000875af1158015610f9d573d6000803e3d6000fd5b505050506040513d601f19601f82011682018060405250810190610fc19190611315565b979650505050505050565b606061101383600081518110610fe457610fe461132e565b60200260200101517f000000000000000000000000000000000000000000000000000000000000000087610d22565b6040517f38ed17390000000000000000000000000000000000000000000000000000000081526001600160a01b037f000000000000000000000000000000000000000000000000000000000000000016906338ed17399061108090889088908890309089906004016115c7565b6000604051808303816000875af115801561109f573d6000803e3d6000fd5b505050506040513d6000823e601f3d908101601f191682016040526110c79190810190611603565b95945050505050565b6001600160a01b03811681146103c457600080fd5b6000602082840312156110f757600080fd5b8135611102816110d0565b9392505050565b60008083601f84011261111b57600080fd5b50813567ffffffffffffffff81111561113357600080fd5b6020830191508360208260051b850101111561114e57600080fd5b9250929050565b600080600080600080600080600060a08a8c03121561117357600080fd5b893567ffffffffffffffff8082111561118b57600080fd5b6111978d838e01611109565b909b50995060208c01359150808211156111b057600080fd5b6111bc8d838e01611109565b909950975060408c01359150808211156111d557600080fd5b6111e18d838e01611109565b909750955060608c013591506111f6826110d0565b90935060808b0135908082111561120c57600080fd5b818c0191508c601f83011261122057600080fd5b81358181111561122f57600080fd5b8d602082850101111561124157600080fd5b6020830194508093505050509295985092959850929598565b60006020828403121561126c57600080fd5b813561ffff8116811461110257600080fd5b803560ff8116811461030557600080fd5b803562ffffff8116811461030557600080fd5b600080600080600080600060e0888a0312156112bd57600080fd5b87356112c8816110d0565b965060208801356112d8816110d0565b95506112e66040890161127e565b94506112f46060890161128f565b9699959850939660808101359560a0820135955060c0909101359350915050565b60006020828403121561132757600080fd5b5051919050565b634e487b7160e01b600052603260045260246000fd5b634e487b7160e01b600052601160045260246000fd5b6000821982111561136d5761136d611344565b500190565b60005b8381101561138d578181015183820152602001611375565b8381111561139c576000848401525b50505050565b600083516113b4818460208801611372565b8351908301906113c8818360208801611372565b01949350505050565b600081518084526113e9816020860160208601611372565b601f01601f19169290920160200192915050565b60208152600061110260208301846113d1565b600060001982141561142457611424611344565b5060010190565b634e487b7160e01b600052604160045260246000fd5b600081518084526020808501945080840160005b8381101561147a5781516001600160a01b031687529582019590820190600101611455565b509495945050505050565b600081518084526020808501945080840160005b8381101561147a57815187529582019590820190600101611499565b60006001600160a01b03808a16835260e060208401526114d860e084018a611441565b83810360408501526114ea818a611485565b905083810360608501526114fe8189611485565b9050818716608085015283810360a085015261151a81876113d1565b9250505061ffff831660c083015298975050505050505050565b60008251611546818460208701611372565b9190910192915050565b60006020828403121561156257600080fd5b8151801515811461110257600080fd5b634e487b7160e01b600052601260045260246000fd5b60008261159757611597611572565b500490565b6000828210156115ae576115ae611344565b500390565b6000826115c2576115c2611572565b500690565b85815284602082015260a0604082015260006115e660a0830186611441565b6001600160a01b0394909416606083015250608001529392505050565b6000602080838503121561161657600080fd5b825167ffffffffffffffff8082111561162e57600080fd5b818501915085601f83011261164257600080fd5b8151818111156116545761165461142b565b8060051b604051601f19603f830116810181811085821117156116795761167961142b565b60405291825284820192508381018501918883111561169757600080fd5b938501935b828510156116b55784518452938501939285019261169c565b9897505050505050505056fe4e6f7420656e6f75676820746f6b656e7320746f20726570617920646562742e204465627420416d6f756e743a20a264697066735822122048d591b4a707324d25b8aa7d07c4afd79aceda064932220da490785d5008202f64736f6c634300080a0033a26469706673582212206f2bd2fce05e994b687fea8bf505afa80667708662af5e53f6fd207d0bb30adc64736f6c634300080a0033",
  "linkReferences": {},
  "deployedLinkReferences": {}
}