{
  "_format": "hh-sol-artifact-1",
  "contractName": "AaveFlashLoanV3Factory",
  "sourceName": "contracts/AaveFlashLoanV3Factory.sol",
  "abi": [
    {
      "inputs": [
        {
          "internalType": "contract IPoolAddressesProvider",
          "name": "_addressProvider",
          "type": "address"
        },
        {
          "internalType": "contract ISwapRouter",
          "name": "_uniSwapRouter",
          "type": "address"
        },
        {
          "internalType": "contract IUniswapV2Router02",
          "name": "_sushiRouter",
          "type": "address"
        },
        {
          "internalType": "contract IChainLinkOracle",
          "name": "_oracle",
          "type": "address"
        }
      ],
      "stateMutability": "nonpayable",
      "type": "constructor"
    },
    {
      "inputs": [
        {
          "internalType": "uint256",
          "name": "",
          "type": "uint256"
        }
      ],
      "name": "AaveFlashLoanV3Contracts",
      "outputs": [
        {
          "internalType": "address",
          "name": "",
          "type": "address"
        }
      ],
      "stateMutability": "view",
      "type": "function"
    },
    {
      "inputs": [],
      "name": "addressProvider",
      "outputs": [
        {
          "internalType": "contract IPoolAddressesProvider",
          "name": "",
          "type": "address"
        }
      ],
      "stateMutability": "view",
      "type": "function"
    },
    {
      "inputs": [],
      "name": "chainLinkOracle",
      "outputs": [
        {
          "internalType": "contract IChainLinkOracle",
          "name": "",
          "type": "address"
        }
      ],
      "stateMutability": "view",
      "type": "function"
    },
    {
      "inputs": [],
      "name": "createNewFlashLoanContract",
      "outputs": [
        {
          "internalType": "address",
          "name": "",
          "type": "address"
        }
      ],
      "stateMutability": "payable",
      "type": "function"
    },
    {
      "inputs": [],
      "name": "getMaticValueNeededForNewContract",
      "outputs": [
        {
          "internalType": "uint256",
          "name": "amountNeeded",
          "type": "uint256"
        }
      ],
      "stateMutability": "view",
      "type": "function"
    },
    {
      "inputs": [],
      "name": "getOwner",
      "outputs": [
        {
          "internalType": "address",
          "name": "",
          "type": "address"
        }
      ],
      "stateMutability": "view",
      "type": "function"
    },
    {
      "inputs": [],
      "name": "sushiRouter",
      "outputs": [
        {
          "internalType": "contract IUniswapV2Router02",
          "name": "",
          "type": "address"
        }
      ],
      "stateMutability": "view",
      "type": "function"
    },
    {
      "inputs": [],
      "name": "uniSwapRouter",
      "outputs": [
        {
          "internalType": "contract ISwapRouter",
          "name": "",
          "type": "address"
        }
      ],
      "stateMutability": "view",
      "type": "function"
    },
    {
      "inputs": [],
      "name": "withdraw",
      "outputs": [],
      "stateMutability": "payable",
      "type": "function"
    }
  ],
  "bytecode": "0x60e06040523480156200001157600080fd5b506040516200391a3803806200391a8339818101604052810190620000379190620002ab565b3373ffffffffffffffffffffffffffffffffffffffff1660c08173ffffffffffffffffffffffffffffffffffffffff1681525050836000806101000a81548173ffffffffffffffffffffffffffffffffffffffff021916908373ffffffffffffffffffffffffffffffffffffffff1602179055508273ffffffffffffffffffffffffffffffffffffffff1660808173ffffffffffffffffffffffffffffffffffffffff16815250508173ffffffffffffffffffffffffffffffffffffffff1660a08173ffffffffffffffffffffffffffffffffffffffff168152505080600160006101000a81548173ffffffffffffffffffffffffffffffffffffffff021916908373ffffffffffffffffffffffffffffffffffffffff160217905550505050506200031d565b600080fd5b600073ffffffffffffffffffffffffffffffffffffffff82169050919050565b6000620001908262000163565b9050919050565b6000620001a48262000183565b9050919050565b620001b68162000197565b8114620001c257600080fd5b50565b600081519050620001d681620001ab565b92915050565b6000620001e98262000183565b9050919050565b620001fb81620001dc565b81146200020757600080fd5b50565b6000815190506200021b81620001f0565b92915050565b60006200022e8262000183565b9050919050565b620002408162000221565b81146200024c57600080fd5b50565b600081519050620002608162000235565b92915050565b6000620002738262000183565b9050919050565b620002858162000266565b81146200029157600080fd5b50565b600081519050620002a5816200027a565b92915050565b60008060008060808587031215620002c857620002c76200015e565b5b6000620002d887828801620001c5565b9450506020620002eb878288016200020a565b9350506040620002fe878288016200024f565b9250506060620003118782880162000294565b91505092959194509250565b60805160a05160c0516135aa620003706000396000818161028f015281816103300152818161053b015261066e0152600081816104280152610851015260008181610404015261083001526135aa6000f3fe608060405260043610620000925760003560e01c80636d13582c11620000615780636d13582c146200014757806378cd62c514620001775780638377088114620001a7578063893d20e814620001d7578063c20b439514620002075762000092565b80630fd18c9a14620000975780632954018c14620000db5780633ccfd60b146200010b5780635d01ff3d1462000117575b600080fd5b348015620000a457600080fd5b50620000c36004803603810190620000bd919062000968565b62000229565b604051620000d29190620009df565b60405180910390f35b348015620000e857600080fd5b50620000f362000269565b60405162000102919062000a67565b60405180910390f35b620001156200028d565b005b3480156200012457600080fd5b506200012f62000402565b6040516200013e919062000aa9565b60405180910390f35b3480156200015457600080fd5b506200015f62000426565b6040516200016e919062000aeb565b60405180910390f35b3480156200018457600080fd5b506200018f6200044a565b6040516200019e919062000b2d565b60405180910390f35b348015620001b457600080fd5b50620001bf62000470565b604051620001ce919062000b5b565b60405180910390f35b348015620001e457600080fd5b50620001ef62000537565b604051620001fe9190620009df565b60405180910390f35b620002116200055f565b604051620002209190620009df565b60405180910390f35b600281815481106200023a57600080fd5b906000526020600020016000915054906101000a900473ffffffffffffffffffffffffffffffffffffffff1681565b60008054906101000a900473ffffffffffffffffffffffffffffffffffffffff1681565b7f000000000000000000000000000000000000000000000000000000000000000073ffffffffffffffffffffffffffffffffffffffff163373ffffffffffffffffffffffffffffffffffffffff1614620002e657600080fd5b600047116200032c576040517f08c379a0000000000000000000000000000000000000000000000000000000008152600401620003239062000bff565b60405180910390fd5b60007f000000000000000000000000000000000000000000000000000000000000000073ffffffffffffffffffffffffffffffffffffffff1647604051620003749062000c56565b60006040518083038185875af1925050503d8060008114620003b3576040519150601f19603f3d011682016040523d82523d6000602084013e620003b8565b606091505b5050905080620003ff576040517f08c379a0000000000000000000000000000000000000000000000000000000008152600401620003f69062000cbd565b60405180910390fd5b50565b7f000000000000000000000000000000000000000000000000000000000000000081565b7f000000000000000000000000000000000000000000000000000000000000000081565b600160009054906101000a900473ffffffffffffffffffffffffffffffffffffffff1681565b600080600160009054906101000a900473ffffffffffffffffffffffffffffffffffffffff1673ffffffffffffffffffffffffffffffffffffffff166350d25bcd6040518163ffffffff1660e01b8152600401602060405180830381865afa158015620004e1573d6000803e3d6000fd5b505050506040513d601f19601f8201168201806040525081019062000507919062000d1a565b90506305f5e100816802b5e3af16b188000062000525919062000daa565b62000531919062000de2565b91505090565b60007f0000000000000000000000000000000000000000000000000000000000000000905090565b600080600160009054906101000a900473ffffffffffffffffffffffffffffffffffffffff1673ffffffffffffffffffffffffffffffffffffffff166350d25bcd6040518163ffffffff1660e01b8152600401602060405180830381865afa158015620005d0573d6000803e3d6000fd5b505050506040513d601f19601f82011682018060405250810190620005f6919062000d1a565b905060006305f5e100826802b5e3af16b188000062000616919062000daa565b62000622919062000de2565b9050803410156200066a576040517f08c379a0000000000000000000000000000000000000000000000000000000008152600401620006619062000edf565b60405180910390fd5b60007f000000000000000000000000000000000000000000000000000000000000000073ffffffffffffffffffffffffffffffffffffffff1682604051620006b29062000c56565b60006040518083038185875af1925050503d8060008114620006f1576040519150601f19603f3d011682016040523d82523d6000602084013e620006f6565b606091505b50509050806200073d576040517f08c379a0000000000000000000000000000000000000000000000000000000008152600401620007349062000f51565b60405180910390fd5b6000471115620008095760003373ffffffffffffffffffffffffffffffffffffffff1683346200076e919062000f73565b6040516200077c9062000c56565b60006040518083038185875af1925050503d8060008114620007bb576040519150601f19603f3d011682016040523d82523d6000602084013e620007c0565b606091505b505090508062000807576040517f08c379a0000000000000000000000000000000000000000000000000000000008152600401620007fe9062000f51565b60405180910390fd5b505b60008060009054906101000a900473ffffffffffffffffffffffffffffffffffffffff16337f00000000000000000000000000000000000000000000000000000000000000007f00000000000000000000000000000000000000000000000000000000000000006040516200087e906200091a565b6200088d949392919062000fae565b604051809103906000f080158015620008aa573d6000803e3d6000fd5b5090506002819080600181540180825580915050600190039060005260206000200160009091909190916101000a81548173ffffffffffffffffffffffffffffffffffffffff021916908373ffffffffffffffffffffffffffffffffffffffff1602179055508094505050505090565b6125798062000ffc83390190565b600080fd5b6000819050919050565b62000942816200092d565b81146200094e57600080fd5b50565b600081359050620009628162000937565b92915050565b60006020828403121562000981576200098062000928565b5b6000620009918482850162000951565b91505092915050565b600073ffffffffffffffffffffffffffffffffffffffff82169050919050565b6000620009c7826200099a565b9050919050565b620009d981620009ba565b82525050565b6000602082019050620009f66000830184620009ce565b92915050565b6000819050919050565b600062000a2762000a2162000a1b846200099a565b620009fc565b6200099a565b9050919050565b600062000a3b8262000a06565b9050919050565b600062000a4f8262000a2e565b9050919050565b62000a618162000a42565b82525050565b600060208201905062000a7e600083018462000a56565b92915050565b600062000a918262000a2e565b9050919050565b62000aa38162000a84565b82525050565b600060208201905062000ac0600083018462000a98565b92915050565b600062000ad38262000a2e565b9050919050565b62000ae58162000ac6565b82525050565b600060208201905062000b02600083018462000ada565b92915050565b600062000b158262000a2e565b9050919050565b62000b278162000b08565b82525050565b600060208201905062000b44600083018462000b1c565b92915050565b62000b55816200092d565b82525050565b600060208201905062000b72600083018462000b4a565b92915050565b600082825260208201905092915050565b7f4e6f2066756e6473206172652063757272656e746c79206f6e20636f6e74726160008201527f637420746f2077697468647261772e0000000000000000000000000000000000602082015250565b600062000be7602f8362000b78565b915062000bf48262000b89565b604082019050919050565b6000602082019050818103600083015262000c1a8162000bd8565b9050919050565b600081905092915050565b50565b600062000c3e60008362000c21565b915062000c4b8262000c2c565b600082019050919050565b600062000c638262000c2f565b9150819050919050565b7f5769746864726177206661696c65642e00000000000000000000000000000000600082015250565b600062000ca560108362000b78565b915062000cb28262000c6d565b602082019050919050565b6000602082019050818103600083015262000cd88162000c96565b9050919050565b6000819050919050565b62000cf48162000cdf565b811462000d0057600080fd5b50565b60008151905062000d148162000ce9565b92915050565b60006020828403121562000d335762000d3262000928565b5b600062000d438482850162000d03565b91505092915050565b7f4e487b7100000000000000000000000000000000000000000000000000000000600052601260045260246000fd5b7f4e487b7100000000000000000000000000000000000000000000000000000000600052601160045260246000fd5b600062000db7826200092d565b915062000dc4836200092d565b92508262000dd75762000dd662000d4c565b5b828204905092915050565b600062000def826200092d565b915062000dfc836200092d565b9250817fffffffffffffffffffffffffffffffffffffffffffffffffffffffffffffffff048311821515161562000e385762000e3762000d7b565b5b828202905092915050565b7f4e65656420746f2073656e64206174206c65617374202435302055534420776f60008201527f727468206f66206d6174696320746f20707572636861736520666c617368206c60208201527f6f616e20636f6e74726163740000000000000000000000000000000000000000604082015250565b600062000ec7604c8362000b78565b915062000ed48262000e43565b606082019050919050565b6000602082019050818103600083015262000efa8162000eb8565b9050919050565b7f5472616e73666572206661696c65642e00000000000000000000000000000000600082015250565b600062000f3960108362000b78565b915062000f468262000f01565b602082019050919050565b6000602082019050818103600083015262000f6c8162000f2a565b9050919050565b600062000f80826200092d565b915062000f8d836200092d565b92508282101562000fa35762000fa262000d7b565b5b828203905092915050565b600060808201905062000fc5600083018762000a56565b62000fd46020830186620009ce565b62000fe3604083018562000a98565b62000ff2606083018462000ada565b9594505050505056fe6101006040523480156200001257600080fd5b5060405162002579380380620025798339818101604052810190620000389190620002fe565b838073ffffffffffffffffffffffffffffffffffffffff1660808173ffffffffffffffffffffffffffffffffffffffff16815250508073ffffffffffffffffffffffffffffffffffffffff1663026b1d5f6040518163ffffffff1660e01b8152600401602060405180830381865afa158015620000b9573d6000803e3d6000fd5b505050506040513d601f19601f82011682018060405250810190620000df919062000370565b73ffffffffffffffffffffffffffffffffffffffff1660a08173ffffffffffffffffffffffffffffffffffffffff168152505050826000806101000a81548173ffffffffffffffffffffffffffffffffffffffff021916908373ffffffffffffffffffffffffffffffffffffffff1602179055508173ffffffffffffffffffffffffffffffffffffffff1660c08173ffffffffffffffffffffffffffffffffffffffff16815250508073ffffffffffffffffffffffffffffffffffffffff1660e08173ffffffffffffffffffffffffffffffffffffffff168152505050505050620003a2565b600080fd5b600073ffffffffffffffffffffffffffffffffffffffff82169050919050565b6000620001f782620001ca565b9050919050565b60006200020b82620001ea565b9050919050565b6200021d81620001fe565b81146200022957600080fd5b50565b6000815190506200023d8162000212565b92915050565b6200024e81620001ea565b81146200025a57600080fd5b50565b6000815190506200026e8162000243565b92915050565b60006200028182620001ea565b9050919050565b620002938162000274565b81146200029f57600080fd5b50565b600081519050620002b38162000288565b92915050565b6000620002c682620001ea565b9050919050565b620002d881620002b9565b8114620002e457600080fd5b50565b600081519050620002f881620002cd565b92915050565b600080600080608085870312156200031b576200031a620001c5565b5b60006200032b878288016200022c565b94505060206200033e878288016200025d565b93505060406200035187828801620002a2565b92505060606200036487828801620002e7565b91505092959194509250565b600060208284031215620003895762000388620001c5565b5b600062000399848285016200025d565b91505092915050565b60805160a05160c05160e051612181620003f860003960008181610f8c0152610fb3015260008181610e000152610ec30152600081816104b20152818161058601526107e3015260006101d901526121816000f3fe60806040526004361061007b5760003560e01c8063893d20e81161004e578063893d20e81461011d578063920f5c8414610148578063c2d2220714610185578063f2fde38b146101ae5761007b565b80630542975c146100805780633bdebbe1146100ab5780633ccfd60b146100e85780637535d246146100f2575b600080fd5b34801561008c57600080fd5b506100956101d7565b6040516100a291906110e3565b60405180910390f35b3480156100b757600080fd5b506100d260048036038101906100cd9190611150565b6101fb565b6040516100df9190611196565b60405180910390f35b6100f0610345565b005b3480156100fe57600080fd5b506101076104b0565b60405161011491906111d2565b60405180910390f35b34801561012957600080fd5b506101326104d4565b60405161013f91906111fc565b60405180910390f35b34801561015457600080fd5b5061016f600480360381019061016a9190611328565b6104fd565b60405161017c919061143f565b60405180910390f35b34801561019157600080fd5b506101ac60048036038101906101a791906114fa565b6105d1565b005b3480156101ba57600080fd5b506101d560048036038101906101d09190611150565b610888565b005b7f000000000000000000000000000000000000000000000000000000000000000081565b60008060009054906101000a900473ffffffffffffffffffffffffffffffffffffffff1673ffffffffffffffffffffffffffffffffffffffff163373ffffffffffffffffffffffffffffffffffffffff161461025657600080fd5b8173ffffffffffffffffffffffffffffffffffffffff166370a08231306040518263ffffffff1660e01b815260040161028f91906111fc565b602060405180830381865afa1580156102ac573d6000803e3d6000fd5b505050506040513d601f19601f820116820180604052508101906102d091906115b1565b905060008111610315576040517f08c379a000000000000000000000000000000000000000000000000000000000815260040161030c90611661565b60405180910390fd5b6103408260008054906101000a900473ffffffffffffffffffffffffffffffffffffffff1683610923565b919050565b60008054906101000a900473ffffffffffffffffffffffffffffffffffffffff1673ffffffffffffffffffffffffffffffffffffffff163373ffffffffffffffffffffffffffffffffffffffff161461039d57600080fd5b600047116103e0576040517f08c379a00000000000000000000000000000000000000000000000000000000081526004016103d7906116f3565b60405180910390fd5b60008060009054906101000a900473ffffffffffffffffffffffffffffffffffffffff1673ffffffffffffffffffffffffffffffffffffffff164760405161042790611744565b60006040518083038185875af1925050503d8060008114610464576040519150601f19603f3d011682016040523d82523d6000602084013e610469565b606091505b50509050806104ad576040517f08c379a00000000000000000000000000000000000000000000000000000000081526004016104a4906117a5565b60405180910390fd5b50565b7f000000000000000000000000000000000000000000000000000000000000000081565b60008060009054906101000a900473ffffffffffffffffffffffffffffffffffffffff16905090565b60006105098383610a78565b60005b8a8a90508110156105bf57600087878381811061052c5761052b6117c5565b5b905060200201358a8a84818110610546576105456117c5565b5b905060200201356105579190611823565b90506105ab8c8c8481811061056f5761056e6117c5565b5b90506020020160208101906105849190611150565b7f000000000000000000000000000000000000000000000000000000000000000083610ca3565b5080806105b790611879565b91505061050c565b50600190509998505050505050505050565b60008054906101000a900473ffffffffffffffffffffffffffffffffffffffff1673ffffffffffffffffffffffffffffffffffffffff163373ffffffffffffffffffffffffffffffffffffffff161461062957600080fd5b60003090506000600167ffffffffffffffff81111561064b5761064a6118c2565b5b6040519080825280602002602001820160405280156106795781602001602082028036833780820191505090505b5090508881600081518110610691576106906117c5565b5b602002602001019073ffffffffffffffffffffffffffffffffffffffff16908173ffffffffffffffffffffffffffffffffffffffff16815250506000600167ffffffffffffffff8111156106e8576106e76118c2565b5b6040519080825280602002602001820160405280156107165781602001602082028036833780820191505090505b509050858160008151811061072e5761072d6117c5565b5b6020026020010181815250506000600167ffffffffffffffff811115610757576107566118c2565b5b6040519080825280602002602001820160405280156107855781602001602082028036833780820191505090505b50905060008160008151811061079e5761079d6117c5565b5b602002602001018181525050600030905060008c8c8c8c8c8c8c6040516020016107ce979695949392919061190f565b604051602081830303815290604052905060007f000000000000000000000000000000000000000000000000000000000000000073ffffffffffffffffffffffffffffffffffffffff1663ab9c4b5d888888888888886040518863ffffffff1660e01b81526004016108469796959493929190611bb0565b600060405180830381600087803b15801561086057600080fd5b505af1158015610874573d6000803e3d6000fd5b505050505050505050505050505050505050565b60008054906101000a900473ffffffffffffffffffffffffffffffffffffffff1673ffffffffffffffffffffffffffffffffffffffff163373ffffffffffffffffffffffffffffffffffffffff16146108e057600080fd5b806000806101000a81548173ffffffffffffffffffffffffffffffffffffffff021916908373ffffffffffffffffffffffffffffffffffffffff16021790555050565b6000808473ffffffffffffffffffffffffffffffffffffffff1663a9059cbb60e01b8585604051602401610958929190611c3b565b604051602081830303815290604052907bffffffffffffffffffffffffffffffffffffffffffffffffffffffff19166020820180517bffffffffffffffffffffffffffffffffffffffffffffffffffffffff83818316178352505050506040516109c29190611c95565b6000604051808303816000865af19150503d80600081146109ff576040519150601f19603f3d011682016040523d82523d6000602084013e610a04565b606091505b5091509150818015610a325750600081511480610a31575080806020019051810190610a309190611cd8565b5b5b610a71576040517f08c379a0000000000000000000000000000000000000000000000000000000008152600401610a6890611d51565b60405180910390fd5b5050505050565b60008060008060008060008888810190610a929190611daf565b96509650965096509650965096506000600267ffffffffffffffff811115610abd57610abc6118c2565b5b604051908082528060200260200182016040528015610aeb5781602001602082028036833780820191505090505b50905060018660ff161415610bbd576000610b0985858b8b8a610df8565b90508782600081518110610b2057610b1f6117c5565b5b602002602001019073ffffffffffffffffffffffffffffffffffffffff16908173ffffffffffffffffffffffffffffffffffffffff16815250508882600181518110610b6f57610b6e6117c5565b5b602002602001019073ffffffffffffffffffffffffffffffffffffffff16908173ffffffffffffffffffffffffffffffffffffffff1681525050610bb68160008486610f69565b5050610c97565b8781600081518110610bd257610bd16117c5565b5b602002602001019073ffffffffffffffffffffffffffffffffffffffff16908173ffffffffffffffffffffffffffffffffffffffff16815250508681600181518110610c2157610c206117c5565b5b602002602001019073ffffffffffffffffffffffffffffffffffffffff16908173ffffffffffffffffffffffffffffffffffffffff16815250506000610c6985858486610f69565b9050610c9481600181518110610c8257610c816117c5565b5b602002602001015160008a8c8a610df8565b50505b50505050505050505050565b6000808473ffffffffffffffffffffffffffffffffffffffff1663095ea7b360e01b8585604051602401610cd8929190611c3b565b604051602081830303815290604052907bffffffffffffffffffffffffffffffffffffffffffffffffffffffff19166020820180517bffffffffffffffffffffffffffffffffffffffffffffffffffffffff8381831617835250505050604051610d429190611c95565b6000604051808303816000865af19150503d8060008114610d7f576040519150601f19603f3d011682016040523d82523d6000602084013e610d84565b606091505b5091509150818015610db25750600081511480610db1575080806020019051810190610db09190611cd8565b5b5b610df1576040517f08c379a0000000000000000000000000000000000000000000000000000000008152600401610de890611e9d565b60405180910390fd5b5050505050565b6000610e25847f000000000000000000000000000000000000000000000000000000000000000088610ca3565b60006040518061010001604052808673ffffffffffffffffffffffffffffffffffffffff1681526020018573ffffffffffffffffffffffffffffffffffffffff1681526020018462ffffff1681526020013073ffffffffffffffffffffffffffffffffffffffff168152602001428152602001888152602001878152602001600073ffffffffffffffffffffffffffffffffffffffff1681525090507f000000000000000000000000000000000000000000000000000000000000000073ffffffffffffffffffffffffffffffffffffffff1663414bf389826040518263ffffffff1660e01b8152600401610f1a9190611f7d565b6020604051808303816000875af1158015610f39573d6000803e3d6000fd5b505050506040513d601f19601f82011682018060405250810190610f5d91906115b1565b91505095945050505050565b6060610fb183600081518110610f8257610f816117c5565b5b60200260200101517f000000000000000000000000000000000000000000000000000000000000000087610ca3565b7f000000000000000000000000000000000000000000000000000000000000000073ffffffffffffffffffffffffffffffffffffffff166338ed173986868630876040518663ffffffff1660e01b8152600401611012959493929190611f99565b6000604051808303816000875af1158015611031573d6000803e3d6000fd5b505050506040513d6000823e3d601f19601f8201168201806040525081019061105a9190612102565b9050949350505050565b600073ffffffffffffffffffffffffffffffffffffffff82169050919050565b6000819050919050565b60006110a96110a461109f84611064565b611084565b611064565b9050919050565b60006110bb8261108e565b9050919050565b60006110cd826110b0565b9050919050565b6110dd816110c2565b82525050565b60006020820190506110f860008301846110d4565b92915050565b6000604051905090565b600080fd5b600080fd5b600061111d82611064565b9050919050565b61112d81611112565b811461113857600080fd5b50565b60008135905061114a81611124565b92915050565b60006020828403121561116657611165611108565b5b60006111748482850161113b565b91505092915050565b6000819050919050565b6111908161117d565b82525050565b60006020820190506111ab6000830184611187565b92915050565b60006111bc826110b0565b9050919050565b6111cc816111b1565b82525050565b60006020820190506111e760008301846111c3565b92915050565b6111f681611112565b82525050565b600060208201905061121160008301846111ed565b92915050565b600080fd5b600080fd5b600080fd5b60008083601f84011261123c5761123b611217565b5b8235905067ffffffffffffffff8111156112595761125861121c565b5b60208301915083602082028301111561127557611274611221565b5b9250929050565b60008083601f84011261129257611291611217565b5b8235905067ffffffffffffffff8111156112af576112ae61121c565b5b6020830191508360208202830111156112cb576112ca611221565b5b9250929050565b60008083601f8401126112e8576112e7611217565b5b8235905067ffffffffffffffff8111156113055761130461121c565b5b60208301915083600182028301111561132157611320611221565b5b9250929050565b600080600080600080600080600060a08a8c03121561134a57611349611108565b5b60008a013567ffffffffffffffff8111156113685761136761110d565b5b6113748c828d01611226565b995099505060208a013567ffffffffffffffff8111156113975761139661110d565b5b6113a38c828d0161127c565b975097505060408a013567ffffffffffffffff8111156113c6576113c561110d565b5b6113d28c828d0161127c565b955095505060606113e58c828d0161113b565b93505060808a013567ffffffffffffffff8111156114065761140561110d565b5b6114128c828d016112d2565b92509250509295985092959850929598565b60008115159050919050565b61143981611424565b82525050565b60006020820190506114546000830184611430565b92915050565b600060ff82169050919050565b6114708161145a565b811461147b57600080fd5b50565b60008135905061148d81611467565b92915050565b600062ffffff82169050919050565b6114ab81611493565b81146114b657600080fd5b50565b6000813590506114c8816114a2565b92915050565b6114d78161117d565b81146114e257600080fd5b50565b6000813590506114f4816114ce565b92915050565b600080600080600080600060e0888a03121561151957611518611108565b5b60006115278a828b0161113b565b97505060206115388a828b0161113b565b96505060406115498a828b0161147e565b955050606061155a8a828b016114b9565b945050608061156b8a828b016114e5565b93505060a061157c8a828b016114e5565b92505060c061158d8a828b016114e5565b91505092959891949750929550565b6000815190506115ab816114ce565b92915050565b6000602082840312156115c7576115c6611108565b5b60006115d58482850161159c565b91505092915050565b600082825260208201905092915050565b7f436f6e747261637420646f6573206e6f742068617665207468652070726f766960008201527f64656420455243323020746f6b656e2e00000000000000000000000000000000602082015250565b600061164b6030836115de565b9150611656826115ef565b604082019050919050565b6000602082019050818103600083015261167a8161163e565b9050919050565b7f4e6f2066756e6473206172652063757272656e746c79206f6e20636f6e74726160008201527f637420746f2077697468647261772e0000000000000000000000000000000000602082015250565b60006116dd602f836115de565b91506116e882611681565b604082019050919050565b6000602082019050818103600083015261170c816116d0565b9050919050565b600081905092915050565b50565b600061172e600083611713565b91506117398261171e565b600082019050919050565b600061174f82611721565b9150819050919050565b7f5769746864726177206661696c65642e00000000000000000000000000000000600082015250565b600061178f6010836115de565b915061179a82611759565b602082019050919050565b600060208201905081810360008301526117be81611782565b9050919050565b7f4e487b7100000000000000000000000000000000000000000000000000000000600052603260045260246000fd5b7f4e487b7100000000000000000000000000000000000000000000000000000000600052601160045260246000fd5b600061182e8261117d565b91506118398361117d565b9250827fffffffffffffffffffffffffffffffffffffffffffffffffffffffffffffffff0382111561186e5761186d6117f4565b5b828201905092915050565b60006118848261117d565b91507fffffffffffffffffffffffffffffffffffffffffffffffffffffffffffffffff8214156118b7576118b66117f4565b5b600182019050919050565b7f4e487b7100000000000000000000000000000000000000000000000000000000600052604160045260246000fd5b6118fa8161145a565b82525050565b61190981611493565b82525050565b600060e082019050611924600083018a6111ed565b61193160208301896111ed565b61193e60408301886118f1565b61194b6060830187611900565b6119586080830186611187565b61196560a0830185611187565b61197260c0830184611187565b98975050505050505050565b600081519050919050565b600082825260208201905092915050565b6000819050602082019050919050565b6119b381611112565b82525050565b60006119c583836119aa565b60208301905092915050565b6000602082019050919050565b60006119e98261197e565b6119f38185611989565b93506119fe8361199a565b8060005b83811015611a2f578151611a1688826119b9565b9750611a21836119d1565b925050600181019050611a02565b5085935050505092915050565b600081519050919050565b600082825260208201905092915050565b6000819050602082019050919050565b611a718161117d565b82525050565b6000611a838383611a68565b60208301905092915050565b6000602082019050919050565b6000611aa782611a3c565b611ab18185611a47565b9350611abc83611a58565b8060005b83811015611aed578151611ad48882611a77565b9750611adf83611a8f565b925050600181019050611ac0565b5085935050505092915050565b600081519050919050565b600082825260208201905092915050565b60005b83811015611b34578082015181840152602081019050611b19565b83811115611b43576000848401525b50505050565b6000601f19601f8301169050919050565b6000611b6582611afa565b611b6f8185611b05565b9350611b7f818560208601611b16565b611b8881611b49565b840191505092915050565b600061ffff82169050919050565b611baa81611b93565b82525050565b600060e082019050611bc5600083018a6111ed565b8181036020830152611bd781896119de565b90508181036040830152611beb8188611a9c565b90508181036060830152611bff8187611a9c565b9050611c0e60808301866111ed565b81810360a0830152611c208185611b5a565b9050611c2f60c0830184611ba1565b98975050505050505050565b6000604082019050611c5060008301856111ed565b611c5d6020830184611187565b9392505050565b6000611c6f82611afa565b611c798185611713565b9350611c89818560208601611b16565b80840191505092915050565b6000611ca18284611c64565b915081905092915050565b611cb581611424565b8114611cc057600080fd5b50565b600081519050611cd281611cac565b92915050565b600060208284031215611cee57611ced611108565b5b6000611cfc84828501611cc3565b91505092915050565b7f5354000000000000000000000000000000000000000000000000000000000000600082015250565b6000611d3b6002836115de565b9150611d4682611d05565b602082019050919050565b60006020820190508181036000830152611d6a81611d2e565b9050919050565b6000611d7c82611064565b9050919050565b611d8c81611d71565b8114611d9757600080fd5b50565b600081359050611da981611d83565b92915050565b600080600080600080600060e0888a031215611dce57611dcd611108565b5b6000611ddc8a828b01611d9a565b9750506020611ded8a828b01611d9a565b9650506040611dfe8a828b0161147e565b9550506060611e0f8a828b016114b9565b9450506080611e208a828b016114e5565b93505060a0611e318a828b016114e5565b92505060c0611e428a828b016114e5565b91505092959891949750929550565b7f5341000000000000000000000000000000000000000000000000000000000000600082015250565b6000611e876002836115de565b9150611e9282611e51565b602082019050919050565b60006020820190508181036000830152611eb681611e7a565b9050919050565b611ec681611493565b82525050565b611ed581611064565b82525050565b61010082016000820151611ef260008501826119aa565b506020820151611f0560208501826119aa565b506040820151611f186040850182611ebd565b506060820151611f2b60608501826119aa565b506080820151611f3e6080850182611a68565b5060a0820151611f5160a0850182611a68565b5060c0820151611f6460c0850182611a68565b5060e0820151611f7760e0850182611ecc565b50505050565b600061010082019050611f936000830184611edb565b92915050565b600060a082019050611fae6000830188611187565b611fbb6020830187611187565b8181036040830152611fcd81866119de565b9050611fdc60608301856111ed565b611fe96080830184611187565b9695505050505050565b611ffc82611b49565b810181811067ffffffffffffffff8211171561201b5761201a6118c2565b5b80604052505050565b600061202e6110fe565b905061203a8282611ff3565b919050565b600067ffffffffffffffff82111561205a576120596118c2565b5b602082029050602081019050919050565b600061207e6120798461203f565b612024565b905080838252602082019050602084028301858111156120a1576120a0611221565b5b835b818110156120ca57806120b6888261159c565b8452602084019350506020810190506120a3565b5050509392505050565b600082601f8301126120e9576120e8611217565b5b81516120f984826020860161206b565b91505092915050565b60006020828403121561211857612117611108565b5b600082015167ffffffffffffffff8111156121365761213561110d565b5b612142848285016120d4565b9150509291505056fea2646970667358221220f4902db5bae2a95795b5b74f5cb21bf22e81c90ffed6c7cb9a791fc6854d2b3664736f6c634300080a0033a26469706673582212202611ca6939b01071eb24c203904023efbd27d1605bc7dcac7ab4a2a53efb3d7864736f6c634300080a0033",
  "linkReferences": {},
  "deployedLinkReferences": {}
}