{
  "_format": "hh-sol-artifact-1",
  "contractName": "AaveFlashLoanV3Factory",
  "sourceName": "contracts/AaveFlashLoanV3Factory.sol",
  "abi": [
    {
      "inputs": [
        {
          "internalType": "contract IPoolAddressesProvider",
          "name": "_addressProvider",
          "type": "address"
        },
        {
          "internalType": "contract ISwapRouter",
          "name": "_uniSwapRouter",
          "type": "address"
        },
        {
          "internalType": "contract IUniswapV2Router02",
          "name": "_sushiRouter",
          "type": "address"
        },
        {
          "internalType": "contract IChainLinkOracle",
          "name": "_oracle",
          "type": "address"
        }
      ],
      "stateMutability": "nonpayable",
      "type": "constructor"
    },
    {
      "inputs": [],
      "name": "addressProvider",
      "outputs": [
        {
          "internalType": "contract IPoolAddressesProvider",
          "name": "",
          "type": "address"
        }
      ],
      "stateMutability": "view",
      "type": "function"
    },
    {
      "inputs": [],
      "name": "chainLinkOracle",
      "outputs": [
        {
          "internalType": "contract IChainLinkOracle",
          "name": "",
          "type": "address"
        }
      ],
      "stateMutability": "view",
      "type": "function"
    },
    {
      "inputs": [],
      "name": "createNewFlashLoanContract",
      "outputs": [
        {
          "internalType": "address",
          "name": "",
          "type": "address"
        }
      ],
      "stateMutability": "payable",
      "type": "function"
    },
    {
      "inputs": [],
      "name": "getAmountOfFlashLoansCreated",
      "outputs": [
        {
          "internalType": "uint256",
          "name": "amountCreated",
          "type": "uint256"
        }
      ],
      "stateMutability": "view",
      "type": "function"
    },
    {
      "inputs": [
        {
          "internalType": "address",
          "name": "creatorAddress",
          "type": "address"
        }
      ],
      "name": "getFlashLoanContract",
      "outputs": [
        {
          "internalType": "address",
          "name": "flashLoanContractAddress",
          "type": "address"
        }
      ],
      "stateMutability": "view",
      "type": "function"
    },
    {
      "inputs": [],
      "name": "getMaticValueNeededForNewContract",
      "outputs": [
        {
          "internalType": "uint256",
          "name": "amountNeeded",
          "type": "uint256"
        }
      ],
      "stateMutability": "view",
      "type": "function"
    },
    {
      "inputs": [],
      "name": "getOwner",
      "outputs": [
        {
          "internalType": "address",
          "name": "",
          "type": "address"
        }
      ],
      "stateMutability": "view",
      "type": "function"
    },
    {
      "inputs": [],
      "name": "sushiRouter",
      "outputs": [
        {
          "internalType": "contract IUniswapV2Router02",
          "name": "",
          "type": "address"
        }
      ],
      "stateMutability": "view",
      "type": "function"
    },
    {
      "inputs": [],
      "name": "uniSwapRouter",
      "outputs": [
        {
          "internalType": "contract ISwapRouter",
          "name": "",
          "type": "address"
        }
      ],
      "stateMutability": "view",
      "type": "function"
    },
    {
      "inputs": [],
      "name": "withdraw",
      "outputs": [],
      "stateMutability": "payable",
      "type": "function"
    }
  ],
  "bytecode": "0x6101006040523480156200001257600080fd5b50604051620037a3380380620037a383398181016040528101906200003891906200029f565b3373ffffffffffffffffffffffffffffffffffffffff1660e08173ffffffffffffffffffffffffffffffffffffffff1681525050836000806101000a81548173ffffffffffffffffffffffffffffffffffffffff021916908373ffffffffffffffffffffffffffffffffffffffff1602179055508273ffffffffffffffffffffffffffffffffffffffff1660808173ffffffffffffffffffffffffffffffffffffffff16815250508173ffffffffffffffffffffffffffffffffffffffff1660a08173ffffffffffffffffffffffffffffffffffffffff16815250508073ffffffffffffffffffffffffffffffffffffffff1660c08173ffffffffffffffffffffffffffffffffffffffff16815250505050505062000311565b600080fd5b600073ffffffffffffffffffffffffffffffffffffffff82169050919050565b6000620001848262000157565b9050919050565b6000620001988262000177565b9050919050565b620001aa816200018b565b8114620001b657600080fd5b50565b600081519050620001ca816200019f565b92915050565b6000620001dd8262000177565b9050919050565b620001ef81620001d0565b8114620001fb57600080fd5b50565b6000815190506200020f81620001e4565b92915050565b6000620002228262000177565b9050919050565b620002348162000215565b81146200024057600080fd5b50565b600081519050620002548162000229565b92915050565b6000620002678262000177565b9050919050565b62000279816200025a565b81146200028557600080fd5b50565b60008151905062000299816200026e565b92915050565b60008060008060808587031215620002bc57620002bb62000152565b5b6000620002cc87828801620001b9565b9450506020620002df87828801620001fe565b9350506040620002f28782880162000243565b9250506060620003058782880162000288565b91505092959194509250565b60805160a05160c05160e05161342e62000375600039600081816102fe015281816103590152818161056001526105dd015260008181610475015261049c01526000818161045101526107c001526000818161042d015261079f015261342e6000f3fe6080604052600436106200009e5760003560e01c80636d13582c11620000615780636d13582c146200018357806378cd62c514620001b35780638377088114620001e3578063893d20e81462000213578063c20b43951462000243576200009e565b8063049211a814620000a35780632954018c14620000e757806339ab4a2414620001175780633ccfd60b14620001475780635d01ff3d1462000153575b600080fd5b348015620000b057600080fd5b50620000cf6004803603810190620000c9919062000935565b62000265565b604051620000de919062000978565b60405180910390f35b348015620000f457600080fd5b50620000ff620002ce565b6040516200010e919062000a00565b60405180910390f35b3480156200012457600080fd5b506200012f620002f2565b6040516200013e919062000a38565b60405180910390f35b62000151620002fc565b005b3480156200016057600080fd5b506200016b6200042b565b6040516200017a919062000a7a565b60405180910390f35b3480156200019057600080fd5b506200019b6200044f565b604051620001aa919062000abc565b60405180910390f35b348015620001c057600080fd5b50620001cb62000473565b604051620001da919062000afe565b60405180910390f35b348015620001f057600080fd5b50620001fb62000497565b6040516200020a919062000a38565b60405180910390f35b3480156200022057600080fd5b506200022b6200055c565b6040516200023a919062000978565b60405180910390f35b6200024d62000584565b6040516200025c919062000978565b60405180910390f35b6000600160008373ffffffffffffffffffffffffffffffffffffffff1673ffffffffffffffffffffffffffffffffffffffff16815260200190815260200160002060009054906101000a900473ffffffffffffffffffffffffffffffffffffffff169050919050565b60008054906101000a900473ffffffffffffffffffffffffffffffffffffffff1681565b6000600254905090565b7f000000000000000000000000000000000000000000000000000000000000000073ffffffffffffffffffffffffffffffffffffffff163373ffffffffffffffffffffffffffffffffffffffff16146200035557600080fd5b60007f000000000000000000000000000000000000000000000000000000000000000073ffffffffffffffffffffffffffffffffffffffff16476040516200039d9062000b50565b60006040518083038185875af1925050503d8060008114620003dc576040519150601f19603f3d011682016040523d82523d6000602084013e620003e1565b606091505b505090508062000428576040517f08c379a00000000000000000000000000000000000000000000000000000000081526004016200041f9062000bc8565b60405180910390fd5b50565b7f000000000000000000000000000000000000000000000000000000000000000081565b7f000000000000000000000000000000000000000000000000000000000000000081565b7f000000000000000000000000000000000000000000000000000000000000000081565b6000807f000000000000000000000000000000000000000000000000000000000000000073ffffffffffffffffffffffffffffffffffffffff166350d25bcd6040518163ffffffff1660e01b8152600401602060405180830381865afa15801562000506573d6000803e3d6000fd5b505050506040513d601f19601f820116820180604052508101906200052c919062000c25565b90506305f5e100816802b5e3af16b18800006200054a919062000cb5565b62000556919062000ced565b91505090565b60007f0000000000000000000000000000000000000000000000000000000000000000905090565b6000806200059162000497565b905080341015620005d9576040517f08c379a0000000000000000000000000000000000000000000000000000000008152600401620005d09062000dea565b60405180910390fd5b60007f000000000000000000000000000000000000000000000000000000000000000073ffffffffffffffffffffffffffffffffffffffff1682604051620006219062000b50565b60006040518083038185875af1925050503d806000811462000660576040519150601f19603f3d011682016040523d82523d6000602084013e62000665565b606091505b5050905080620006ac576040517f08c379a0000000000000000000000000000000000000000000000000000000008152600401620006a39062000e5c565b60405180910390fd5b6000471115620007785760003373ffffffffffffffffffffffffffffffffffffffff168334620006dd919062000e7e565b604051620006eb9062000b50565b60006040518083038185875af1925050503d80600081146200072a576040519150601f19603f3d011682016040523d82523d6000602084013e6200072f565b606091505b505090508062000776576040517f08c379a00000000000000000000000000000000000000000000000000000000081526004016200076d9062000e5c565b60405180910390fd5b505b60008060009054906101000a900473ffffffffffffffffffffffffffffffffffffffff16337f00000000000000000000000000000000000000000000000000000000000000007f0000000000000000000000000000000000000000000000000000000000000000604051620007ed90620008bd565b620007fc949392919062000eb9565b604051809103906000f08015801562000819573d6000803e3d6000fd5b50905080600160003373ffffffffffffffffffffffffffffffffffffffff1673ffffffffffffffffffffffffffffffffffffffff16815260200190815260200160002060006101000a81548173ffffffffffffffffffffffffffffffffffffffff021916908373ffffffffffffffffffffffffffffffffffffffff16021790555060026000815480929190620008af9062000f06565b919050555080935050505090565b6124a48062000f5583390190565b600080fd5b600073ffffffffffffffffffffffffffffffffffffffff82169050919050565b6000620008fd82620008d0565b9050919050565b6200090f81620008f0565b81146200091b57600080fd5b50565b6000813590506200092f8162000904565b92915050565b6000602082840312156200094e576200094d620008cb565b5b60006200095e848285016200091e565b91505092915050565b6200097281620008f0565b82525050565b60006020820190506200098f600083018462000967565b92915050565b6000819050919050565b6000620009c0620009ba620009b484620008d0565b62000995565b620008d0565b9050919050565b6000620009d4826200099f565b9050919050565b6000620009e882620009c7565b9050919050565b620009fa81620009db565b82525050565b600060208201905062000a176000830184620009ef565b92915050565b6000819050919050565b62000a328162000a1d565b82525050565b600060208201905062000a4f600083018462000a27565b92915050565b600062000a6282620009c7565b9050919050565b62000a748162000a55565b82525050565b600060208201905062000a91600083018462000a69565b92915050565b600062000aa482620009c7565b9050919050565b62000ab68162000a97565b82525050565b600060208201905062000ad3600083018462000aab565b92915050565b600062000ae682620009c7565b9050919050565b62000af88162000ad9565b82525050565b600060208201905062000b15600083018462000aed565b92915050565b600081905092915050565b50565b600062000b3860008362000b1b565b915062000b458262000b26565b600082019050919050565b600062000b5d8262000b29565b9150819050919050565b600082825260208201905092915050565b7f5769746864726177206661696c65642e00000000000000000000000000000000600082015250565b600062000bb060108362000b67565b915062000bbd8262000b78565b602082019050919050565b6000602082019050818103600083015262000be38162000ba1565b9050919050565b6000819050919050565b62000bff8162000bea565b811462000c0b57600080fd5b50565b60008151905062000c1f8162000bf4565b92915050565b60006020828403121562000c3e5762000c3d620008cb565b5b600062000c4e8482850162000c0e565b91505092915050565b7f4e487b7100000000000000000000000000000000000000000000000000000000600052601260045260246000fd5b7f4e487b7100000000000000000000000000000000000000000000000000000000600052601160045260246000fd5b600062000cc28262000a1d565b915062000ccf8362000a1d565b92508262000ce25762000ce162000c57565b5b828204905092915050565b600062000cfa8262000a1d565b915062000d078362000a1d565b9250817fffffffffffffffffffffffffffffffffffffffffffffffffffffffffffffffff048311821515161562000d435762000d4262000c86565b5b828202905092915050565b7f4e65656420746f2073656e64206174206c65617374202435302055534420776f60008201527f727468206f66206d6174696320746f20707572636861736520666c617368206c60208201527f6f616e20636f6e74726163740000000000000000000000000000000000000000604082015250565b600062000dd2604c8362000b67565b915062000ddf8262000d4e565b606082019050919050565b6000602082019050818103600083015262000e058162000dc3565b9050919050565b7f5472616e73666572206661696c65642e00000000000000000000000000000000600082015250565b600062000e4460108362000b67565b915062000e518262000e0c565b602082019050919050565b6000602082019050818103600083015262000e778162000e35565b9050919050565b600062000e8b8262000a1d565b915062000e988362000a1d565b92508282101562000eae5762000ead62000c86565b5b828203905092915050565b600060808201905062000ed06000830187620009ef565b62000edf602083018662000967565b62000eee604083018562000a69565b62000efd606083018462000aab565b95945050505050565b600062000f138262000a1d565b91507fffffffffffffffffffffffffffffffffffffffffffffffffffffffffffffffff82141562000f495762000f4862000c86565b5b60018201905091905056fe6101006040523480156200001257600080fd5b50604051620024a4380380620024a48339818101604052810190620000389190620002fe565b838073ffffffffffffffffffffffffffffffffffffffff1660808173ffffffffffffffffffffffffffffffffffffffff16815250508073ffffffffffffffffffffffffffffffffffffffff1663026b1d5f6040518163ffffffff1660e01b8152600401602060405180830381865afa158015620000b9573d6000803e3d6000fd5b505050506040513d601f19601f82011682018060405250810190620000df919062000370565b73ffffffffffffffffffffffffffffffffffffffff1660a08173ffffffffffffffffffffffffffffffffffffffff168152505050826000806101000a81548173ffffffffffffffffffffffffffffffffffffffff021916908373ffffffffffffffffffffffffffffffffffffffff1602179055508173ffffffffffffffffffffffffffffffffffffffff1660c08173ffffffffffffffffffffffffffffffffffffffff16815250508073ffffffffffffffffffffffffffffffffffffffff1660e08173ffffffffffffffffffffffffffffffffffffffff168152505050505050620003a2565b600080fd5b600073ffffffffffffffffffffffffffffffffffffffff82169050919050565b6000620001f782620001ca565b9050919050565b60006200020b82620001ea565b9050919050565b6200021d81620001fe565b81146200022957600080fd5b50565b6000815190506200023d8162000212565b92915050565b6200024e81620001ea565b81146200025a57600080fd5b50565b6000815190506200026e8162000243565b92915050565b60006200028182620001ea565b9050919050565b620002938162000274565b81146200029f57600080fd5b50565b600081519050620002b38162000288565b92915050565b6000620002c682620001ea565b9050919050565b620002d881620002b9565b8114620002e457600080fd5b50565b600081519050620002f881620002cd565b92915050565b600080600080608085870312156200031b576200031a620001c5565b5b60006200032b878288016200022c565b94505060206200033e878288016200025d565b93505060406200035187828801620002a2565b92505060606200036487828801620002e7565b91505092959194509250565b600060208284031215620003895762000388620001c5565b5b600062000399848285016200025d565b91505092915050565b60805160a05160c05160e0516120ac620003f860003960008181610f490152610f70015260008181610dbd0152610e8001526000818161046f0152818161054301526107a0015260006101d901526120ac6000f3fe60806040526004361061007b5760003560e01c8063893d20e81161004e578063893d20e81461011d578063920f5c8414610148578063c2d2220714610185578063f2fde38b146101ae5761007b565b80630542975c146100805780633bdebbe1146100ab5780633ccfd60b146100e85780637535d246146100f2575b600080fd5b34801561008c57600080fd5b506100956101d7565b6040516100a291906110a0565b60405180910390f35b3480156100b757600080fd5b506100d260048036038101906100cd919061110d565b6101fb565b6040516100df9190611153565b60405180910390f35b6100f0610345565b005b3480156100fe57600080fd5b5061010761046d565b604051610114919061118f565b60405180910390f35b34801561012957600080fd5b50610132610491565b60405161013f91906111b9565b60405180910390f35b34801561015457600080fd5b5061016f600480360381019061016a91906112e5565b6104ba565b60405161017c91906113fc565b60405180910390f35b34801561019157600080fd5b506101ac60048036038101906101a791906114b7565b61058e565b005b3480156101ba57600080fd5b506101d560048036038101906101d0919061110d565b610845565b005b7f000000000000000000000000000000000000000000000000000000000000000081565b60008060009054906101000a900473ffffffffffffffffffffffffffffffffffffffff1673ffffffffffffffffffffffffffffffffffffffff163373ffffffffffffffffffffffffffffffffffffffff161461025657600080fd5b8173ffffffffffffffffffffffffffffffffffffffff166370a08231306040518263ffffffff1660e01b815260040161028f91906111b9565b602060405180830381865afa1580156102ac573d6000803e3d6000fd5b505050506040513d601f19601f820116820180604052508101906102d0919061156e565b905060008111610315576040517f08c379a000000000000000000000000000000000000000000000000000000000815260040161030c9061161e565b60405180910390fd5b6103408260008054906101000a900473ffffffffffffffffffffffffffffffffffffffff16836108e0565b919050565b60008054906101000a900473ffffffffffffffffffffffffffffffffffffffff1673ffffffffffffffffffffffffffffffffffffffff163373ffffffffffffffffffffffffffffffffffffffff161461039d57600080fd5b60008060009054906101000a900473ffffffffffffffffffffffffffffffffffffffff1673ffffffffffffffffffffffffffffffffffffffff16476040516103e49061166f565b60006040518083038185875af1925050503d8060008114610421576040519150601f19603f3d011682016040523d82523d6000602084013e610426565b606091505b505090508061046a576040517f08c379a0000000000000000000000000000000000000000000000000000000008152600401610461906116d0565b60405180910390fd5b50565b7f000000000000000000000000000000000000000000000000000000000000000081565b60008060009054906101000a900473ffffffffffffffffffffffffffffffffffffffff16905090565b60006104c68383610a35565b60005b8a8a905081101561057c5760008787838181106104e9576104e86116f0565b5b905060200201358a8a84818110610503576105026116f0565b5b90506020020135610514919061174e565b90506105688c8c8481811061052c5761052b6116f0565b5b9050602002016020810190610541919061110d565b7f000000000000000000000000000000000000000000000000000000000000000083610c60565b508080610574906117a4565b9150506104c9565b50600190509998505050505050505050565b60008054906101000a900473ffffffffffffffffffffffffffffffffffffffff1673ffffffffffffffffffffffffffffffffffffffff163373ffffffffffffffffffffffffffffffffffffffff16146105e657600080fd5b60003090506000600167ffffffffffffffff811115610608576106076117ed565b5b6040519080825280602002602001820160405280156106365781602001602082028036833780820191505090505b509050888160008151811061064e5761064d6116f0565b5b602002602001019073ffffffffffffffffffffffffffffffffffffffff16908173ffffffffffffffffffffffffffffffffffffffff16815250506000600167ffffffffffffffff8111156106a5576106a46117ed565b5b6040519080825280602002602001820160405280156106d35781602001602082028036833780820191505090505b50905085816000815181106106eb576106ea6116f0565b5b6020026020010181815250506000600167ffffffffffffffff811115610714576107136117ed565b5b6040519080825280602002602001820160405280156107425781602001602082028036833780820191505090505b50905060008160008151811061075b5761075a6116f0565b5b602002602001018181525050600030905060008c8c8c8c8c8c8c60405160200161078b979695949392919061183a565b604051602081830303815290604052905060007f000000000000000000000000000000000000000000000000000000000000000073ffffffffffffffffffffffffffffffffffffffff1663ab9c4b5d888888888888886040518863ffffffff1660e01b81526004016108039796959493929190611adb565b600060405180830381600087803b15801561081d57600080fd5b505af1158015610831573d6000803e3d6000fd5b505050505050505050505050505050505050565b60008054906101000a900473ffffffffffffffffffffffffffffffffffffffff1673ffffffffffffffffffffffffffffffffffffffff163373ffffffffffffffffffffffffffffffffffffffff161461089d57600080fd5b806000806101000a81548173ffffffffffffffffffffffffffffffffffffffff021916908373ffffffffffffffffffffffffffffffffffffffff16021790555050565b6000808473ffffffffffffffffffffffffffffffffffffffff1663a9059cbb60e01b8585604051602401610915929190611b66565b604051602081830303815290604052907bffffffffffffffffffffffffffffffffffffffffffffffffffffffff19166020820180517bffffffffffffffffffffffffffffffffffffffffffffffffffffffff838183161783525050505060405161097f9190611bc0565b6000604051808303816000865af19150503d80600081146109bc576040519150601f19603f3d011682016040523d82523d6000602084013e6109c1565b606091505b50915091508180156109ef57506000815114806109ee5750808060200190518101906109ed9190611c03565b5b5b610a2e576040517f08c379a0000000000000000000000000000000000000000000000000000000008152600401610a2590611c7c565b60405180910390fd5b5050505050565b60008060008060008060008888810190610a4f9190611cda565b96509650965096509650965096506000600267ffffffffffffffff811115610a7a57610a796117ed565b5b604051908082528060200260200182016040528015610aa85781602001602082028036833780820191505090505b50905060018660ff161415610b7a576000610ac685858b8b8a610db5565b90508782600081518110610add57610adc6116f0565b5b602002602001019073ffffffffffffffffffffffffffffffffffffffff16908173ffffffffffffffffffffffffffffffffffffffff16815250508882600181518110610b2c57610b2b6116f0565b5b602002602001019073ffffffffffffffffffffffffffffffffffffffff16908173ffffffffffffffffffffffffffffffffffffffff1681525050610b738160008486610f26565b5050610c54565b8781600081518110610b8f57610b8e6116f0565b5b602002602001019073ffffffffffffffffffffffffffffffffffffffff16908173ffffffffffffffffffffffffffffffffffffffff16815250508681600181518110610bde57610bdd6116f0565b5b602002602001019073ffffffffffffffffffffffffffffffffffffffff16908173ffffffffffffffffffffffffffffffffffffffff16815250506000610c2685858486610f26565b9050610c5181600181518110610c3f57610c3e6116f0565b5b602002602001015160008a8c8a610db5565b50505b50505050505050505050565b6000808473ffffffffffffffffffffffffffffffffffffffff1663095ea7b360e01b8585604051602401610c95929190611b66565b604051602081830303815290604052907bffffffffffffffffffffffffffffffffffffffffffffffffffffffff19166020820180517bffffffffffffffffffffffffffffffffffffffffffffffffffffffff8381831617835250505050604051610cff9190611bc0565b6000604051808303816000865af19150503d8060008114610d3c576040519150601f19603f3d011682016040523d82523d6000602084013e610d41565b606091505b5091509150818015610d6f5750600081511480610d6e575080806020019051810190610d6d9190611c03565b5b5b610dae576040517f08c379a0000000000000000000000000000000000000000000000000000000008152600401610da590611dc8565b60405180910390fd5b5050505050565b6000610de2847f000000000000000000000000000000000000000000000000000000000000000088610c60565b60006040518061010001604052808673ffffffffffffffffffffffffffffffffffffffff1681526020018573ffffffffffffffffffffffffffffffffffffffff1681526020018462ffffff1681526020013073ffffffffffffffffffffffffffffffffffffffff168152602001428152602001888152602001878152602001600073ffffffffffffffffffffffffffffffffffffffff1681525090507f000000000000000000000000000000000000000000000000000000000000000073ffffffffffffffffffffffffffffffffffffffff1663414bf389826040518263ffffffff1660e01b8152600401610ed79190611ea8565b6020604051808303816000875af1158015610ef6573d6000803e3d6000fd5b505050506040513d601f19601f82011682018060405250810190610f1a919061156e565b91505095945050505050565b6060610f6e83600081518110610f3f57610f3e6116f0565b5b60200260200101517f000000000000000000000000000000000000000000000000000000000000000087610c60565b7f000000000000000000000000000000000000000000000000000000000000000073ffffffffffffffffffffffffffffffffffffffff166338ed173986868630876040518663ffffffff1660e01b8152600401610fcf959493929190611ec4565b6000604051808303816000875af1158015610fee573d6000803e3d6000fd5b505050506040513d6000823e3d601f19601f82011682018060405250810190611017919061202d565b9050949350505050565b600073ffffffffffffffffffffffffffffffffffffffff82169050919050565b6000819050919050565b600061106661106161105c84611021565b611041565b611021565b9050919050565b60006110788261104b565b9050919050565b600061108a8261106d565b9050919050565b61109a8161107f565b82525050565b60006020820190506110b56000830184611091565b92915050565b6000604051905090565b600080fd5b600080fd5b60006110da82611021565b9050919050565b6110ea816110cf565b81146110f557600080fd5b50565b600081359050611107816110e1565b92915050565b600060208284031215611123576111226110c5565b5b6000611131848285016110f8565b91505092915050565b6000819050919050565b61114d8161113a565b82525050565b60006020820190506111686000830184611144565b92915050565b60006111798261106d565b9050919050565b6111898161116e565b82525050565b60006020820190506111a46000830184611180565b92915050565b6111b3816110cf565b82525050565b60006020820190506111ce60008301846111aa565b92915050565b600080fd5b600080fd5b600080fd5b60008083601f8401126111f9576111f86111d4565b5b8235905067ffffffffffffffff811115611216576112156111d9565b5b602083019150836020820283011115611232576112316111de565b5b9250929050565b60008083601f84011261124f5761124e6111d4565b5b8235905067ffffffffffffffff81111561126c5761126b6111d9565b5b602083019150836020820283011115611288576112876111de565b5b9250929050565b60008083601f8401126112a5576112a46111d4565b5b8235905067ffffffffffffffff8111156112c2576112c16111d9565b5b6020830191508360018202830111156112de576112dd6111de565b5b9250929050565b600080600080600080600080600060a08a8c031215611307576113066110c5565b5b60008a013567ffffffffffffffff811115611325576113246110ca565b5b6113318c828d016111e3565b995099505060208a013567ffffffffffffffff811115611354576113536110ca565b5b6113608c828d01611239565b975097505060408a013567ffffffffffffffff811115611383576113826110ca565b5b61138f8c828d01611239565b955095505060606113a28c828d016110f8565b93505060808a013567ffffffffffffffff8111156113c3576113c26110ca565b5b6113cf8c828d0161128f565b92509250509295985092959850929598565b60008115159050919050565b6113f6816113e1565b82525050565b600060208201905061141160008301846113ed565b92915050565b600060ff82169050919050565b61142d81611417565b811461143857600080fd5b50565b60008135905061144a81611424565b92915050565b600062ffffff82169050919050565b61146881611450565b811461147357600080fd5b50565b6000813590506114858161145f565b92915050565b6114948161113a565b811461149f57600080fd5b50565b6000813590506114b18161148b565b92915050565b600080600080600080600060e0888a0312156114d6576114d56110c5565b5b60006114e48a828b016110f8565b97505060206114f58a828b016110f8565b96505060406115068a828b0161143b565b95505060606115178a828b01611476565b94505060806115288a828b016114a2565b93505060a06115398a828b016114a2565b92505060c061154a8a828b016114a2565b91505092959891949750929550565b6000815190506115688161148b565b92915050565b600060208284031215611584576115836110c5565b5b600061159284828501611559565b91505092915050565b600082825260208201905092915050565b7f436f6e747261637420646f6573206e6f742068617665207468652070726f766960008201527f64656420455243323020746f6b656e2e00000000000000000000000000000000602082015250565b600061160860308361159b565b9150611613826115ac565b604082019050919050565b60006020820190508181036000830152611637816115fb565b9050919050565b600081905092915050565b50565b600061165960008361163e565b915061166482611649565b600082019050919050565b600061167a8261164c565b9150819050919050565b7f5769746864726177206661696c65642e00000000000000000000000000000000600082015250565b60006116ba60108361159b565b91506116c582611684565b602082019050919050565b600060208201905081810360008301526116e9816116ad565b9050919050565b7f4e487b7100000000000000000000000000000000000000000000000000000000600052603260045260246000fd5b7f4e487b7100000000000000000000000000000000000000000000000000000000600052601160045260246000fd5b60006117598261113a565b91506117648361113a565b9250827fffffffffffffffffffffffffffffffffffffffffffffffffffffffffffffffff038211156117995761179861171f565b5b828201905092915050565b60006117af8261113a565b91507fffffffffffffffffffffffffffffffffffffffffffffffffffffffffffffffff8214156117e2576117e161171f565b5b600182019050919050565b7f4e487b7100000000000000000000000000000000000000000000000000000000600052604160045260246000fd5b61182581611417565b82525050565b61183481611450565b82525050565b600060e08201905061184f600083018a6111aa565b61185c60208301896111aa565b611869604083018861181c565b611876606083018761182b565b6118836080830186611144565b61189060a0830185611144565b61189d60c0830184611144565b98975050505050505050565b600081519050919050565b600082825260208201905092915050565b6000819050602082019050919050565b6118de816110cf565b82525050565b60006118f083836118d5565b60208301905092915050565b6000602082019050919050565b6000611914826118a9565b61191e81856118b4565b9350611929836118c5565b8060005b8381101561195a57815161194188826118e4565b975061194c836118fc565b92505060018101905061192d565b5085935050505092915050565b600081519050919050565b600082825260208201905092915050565b6000819050602082019050919050565b61199c8161113a565b82525050565b60006119ae8383611993565b60208301905092915050565b6000602082019050919050565b60006119d282611967565b6119dc8185611972565b93506119e783611983565b8060005b83811015611a185781516119ff88826119a2565b9750611a0a836119ba565b9250506001810190506119eb565b5085935050505092915050565b600081519050919050565b600082825260208201905092915050565b60005b83811015611a5f578082015181840152602081019050611a44565b83811115611a6e576000848401525b50505050565b6000601f19601f8301169050919050565b6000611a9082611a25565b611a9a8185611a30565b9350611aaa818560208601611a41565b611ab381611a74565b840191505092915050565b600061ffff82169050919050565b611ad581611abe565b82525050565b600060e082019050611af0600083018a6111aa565b8181036020830152611b028189611909565b90508181036040830152611b1681886119c7565b90508181036060830152611b2a81876119c7565b9050611b3960808301866111aa565b81810360a0830152611b4b8185611a85565b9050611b5a60c0830184611acc565b98975050505050505050565b6000604082019050611b7b60008301856111aa565b611b886020830184611144565b9392505050565b6000611b9a82611a25565b611ba4818561163e565b9350611bb4818560208601611a41565b80840191505092915050565b6000611bcc8284611b8f565b915081905092915050565b611be0816113e1565b8114611beb57600080fd5b50565b600081519050611bfd81611bd7565b92915050565b600060208284031215611c1957611c186110c5565b5b6000611c2784828501611bee565b91505092915050565b7f5354000000000000000000000000000000000000000000000000000000000000600082015250565b6000611c6660028361159b565b9150611c7182611c30565b602082019050919050565b60006020820190508181036000830152611c9581611c59565b9050919050565b6000611ca782611021565b9050919050565b611cb781611c9c565b8114611cc257600080fd5b50565b600081359050611cd481611cae565b92915050565b600080600080600080600060e0888a031215611cf957611cf86110c5565b5b6000611d078a828b01611cc5565b9750506020611d188a828b01611cc5565b9650506040611d298a828b0161143b565b9550506060611d3a8a828b01611476565b9450506080611d4b8a828b016114a2565b93505060a0611d5c8a828b016114a2565b92505060c0611d6d8a828b016114a2565b91505092959891949750929550565b7f5341000000000000000000000000000000000000000000000000000000000000600082015250565b6000611db260028361159b565b9150611dbd82611d7c565b602082019050919050565b60006020820190508181036000830152611de181611da5565b9050919050565b611df181611450565b82525050565b611e0081611021565b82525050565b61010082016000820151611e1d60008501826118d5565b506020820151611e3060208501826118d5565b506040820151611e436040850182611de8565b506060820151611e5660608501826118d5565b506080820151611e696080850182611993565b5060a0820151611e7c60a0850182611993565b5060c0820151611e8f60c0850182611993565b5060e0820151611ea260e0850182611df7565b50505050565b600061010082019050611ebe6000830184611e06565b92915050565b600060a082019050611ed96000830188611144565b611ee66020830187611144565b8181036040830152611ef88186611909565b9050611f0760608301856111aa565b611f146080830184611144565b9695505050505050565b611f2782611a74565b810181811067ffffffffffffffff82111715611f4657611f456117ed565b5b80604052505050565b6000611f596110bb565b9050611f658282611f1e565b919050565b600067ffffffffffffffff821115611f8557611f846117ed565b5b602082029050602081019050919050565b6000611fa9611fa484611f6a565b611f4f565b90508083825260208201905060208402830185811115611fcc57611fcb6111de565b5b835b81811015611ff55780611fe18882611559565b845260208401935050602081019050611fce565b5050509392505050565b600082601f830112612014576120136111d4565b5b8151612024848260208601611f96565b91505092915050565b600060208284031215612043576120426110c5565b5b600082015167ffffffffffffffff811115612061576120606110ca565b5b61206d84828501611fff565b9150509291505056fea26469706673582212205fbb51c23428630398785468d4dbee39271bda4f1f387ec741bbcc7ff8661b7864736f6c634300080a0033a26469706673582212208469b638ef0a884f9f2c5f979a08bdea973871d16a75b061e1472da22fb3c5db64736f6c634300080a0033",
  "linkReferences": {},
  "deployedLinkReferences": {}
}