{
  "_format": "hh-sol-artifact-1",
  "contractName": "AaveFlashLoanV3Factory",
  "sourceName": "contracts/AaveFlashLoanV3Factory.sol",
  "abi": [
    {
      "inputs": [
        {
          "internalType": "contract IPoolAddressesProvider",
          "name": "_addressProvider",
          "type": "address"
        },
        {
          "internalType": "contract ISwapRouter",
          "name": "_uniSwapRouter",
          "type": "address"
        },
        {
          "internalType": "contract IUniswapV2Router02",
          "name": "_sushiRouter",
          "type": "address"
        },
        {
          "internalType": "contract IChainLinkOracle",
          "name": "_oracle",
          "type": "address"
        }
      ],
      "stateMutability": "nonpayable",
      "type": "constructor"
    },
    {
      "inputs": [],
      "name": "addressProvider",
      "outputs": [
        {
          "internalType": "contract IPoolAddressesProvider",
          "name": "",
          "type": "address"
        }
      ],
      "stateMutability": "view",
      "type": "function"
    },
    {
      "inputs": [],
      "name": "chainLinkOracle",
      "outputs": [
        {
          "internalType": "contract IChainLinkOracle",
          "name": "",
          "type": "address"
        }
      ],
      "stateMutability": "view",
      "type": "function"
    },
    {
      "inputs": [
        {
          "internalType": "uint256",
          "name": "setAmount",
          "type": "uint256"
        }
      ],
      "name": "changeUSDAmount",
      "outputs": [],
      "stateMutability": "nonpayable",
      "type": "function"
    },
    {
      "inputs": [],
      "name": "createNewFlashLoanContract",
      "outputs": [
        {
          "internalType": "address",
          "name": "",
          "type": "address"
        }
      ],
      "stateMutability": "payable",
      "type": "function"
    },
    {
      "inputs": [],
      "name": "getAmountOfFlashLoansCreated",
      "outputs": [
        {
          "internalType": "uint256",
          "name": "amountCreated",
          "type": "uint256"
        }
      ],
      "stateMutability": "view",
      "type": "function"
    },
    {
      "inputs": [
        {
          "internalType": "address",
          "name": "creatorAddress",
          "type": "address"
        }
      ],
      "name": "getFlashLoanContract",
      "outputs": [
        {
          "internalType": "address",
          "name": "flashLoanContractAddress",
          "type": "address"
        }
      ],
      "stateMutability": "view",
      "type": "function"
    },
    {
      "inputs": [],
      "name": "getMaticValueNeededForNewContract",
      "outputs": [
        {
          "internalType": "uint256",
          "name": "amountNeeded",
          "type": "uint256"
        }
      ],
      "stateMutability": "view",
      "type": "function"
    },
    {
      "inputs": [],
      "name": "getOwner",
      "outputs": [
        {
          "internalType": "address",
          "name": "",
          "type": "address"
        }
      ],
      "stateMutability": "view",
      "type": "function"
    },
    {
      "inputs": [],
      "name": "sushiRouter",
      "outputs": [
        {
          "internalType": "contract IUniswapV2Router02",
          "name": "",
          "type": "address"
        }
      ],
      "stateMutability": "view",
      "type": "function"
    },
    {
      "inputs": [],
      "name": "uniSwapRouter",
      "outputs": [
        {
          "internalType": "contract ISwapRouter",
          "name": "",
          "type": "address"
        }
      ],
      "stateMutability": "view",
      "type": "function"
    },
    {
      "inputs": [],
      "name": "withdraw",
      "outputs": [],
      "stateMutability": "payable",
      "type": "function"
    }
  ],
  "bytecode": "0x610100604052603260015534801561001657600080fd5b50604051611f4a380380611f4a83398101604081905261003591610081565b3360e052600080546001600160a01b0319166001600160a01b03958616179055918316608052821660a0521660c0526100e0565b6001600160a01b038116811461007e57600080fd5b50565b6000806000806080858703121561009757600080fd5b84516100a281610069565b60208601519094506100b381610069565b60408601519093506100c481610069565b60608601519092506100d581610069565b939692955090935050565b60805160a05160c05160e051611df96101516000396000818161024001528181610277015281816102b1015281816102df0152818161046f01526105b30152600081816101fa01526103ab0152600081816101c6015261075501526000818161019201526107330152611df96000f3fe6080604052600436106100bc5760003560e01c80635d01ff3d11610074578063837708811161004e578063837708811461021c578063893d20e814610231578063c20b43951461026457600080fd5b80635d01ff3d146101805780636d13582c146101b457806378cd62c5146101e857600080fd5b80632954018c116100a55780632954018c1461013957806339ab4a24146101595780633ccfd60b1461017857600080fd5b8063049211a8146100c157806323ceb29a14610117575b600080fd5b3480156100cd57600080fd5b506100fa6100dc36600461082c565b6001600160a01b039081166000908152600260205260409020541690565b6040516001600160a01b0390911681526020015b60405180910390f35b34801561012357600080fd5b5061013761013236600461085c565b61026c565b005b34801561014557600080fd5b506000546100fa906001600160a01b031681565b34801561016557600080fd5b506003545b60405190815260200161010e565b6101376102a6565b34801561018c57600080fd5b506100fa7f000000000000000000000000000000000000000000000000000000000000000081565b3480156101c057600080fd5b506100fa7f000000000000000000000000000000000000000000000000000000000000000081565b3480156101f457600080fd5b506100fa7f000000000000000000000000000000000000000000000000000000000000000081565b34801561022857600080fd5b5061016a6103a6565b34801561023d57600080fd5b507f00000000000000000000000000000000000000000000000000000000000000006100fa565b6100fa610462565b336001600160a01b037f000000000000000000000000000000000000000000000000000000000000000016146102a157600080fd5b600155565b336001600160a01b037f000000000000000000000000000000000000000000000000000000000000000016146102db57600080fd5b60007f00000000000000000000000000000000000000000000000000000000000000006001600160a01b03164760405160006040518083038185875af1925050503d8060008114610348576040519150601f19603f3d011682016040523d82523d6000602084013e61034d565b606091505b50509050806103a35760405162461bcd60e51b815260206004820152601060248201527f5769746864726177206661696c65642e0000000000000000000000000000000060448201526064015b60405180910390fd5b50565b6000807f00000000000000000000000000000000000000000000000000000000000000006001600160a01b03166350d25bcd6040518163ffffffff1660e01b8152600401602060405180830381865afa158015610407573d6000803e3d6000fd5b505050506040513d601f19601f8201168201806040525081019061042b9190610875565b905080600154670de0b6b3a764000061044491906108a4565b61044e91906108c3565b61045c906305f5e1006108a4565b91505090565b6000336001600160a01b037f0000000000000000000000000000000000000000000000000000000000000000161461071c57600061049e6103a6565b9050803410156105af5760405162461bcd60e51b81526020600482015260b060248201527f4e65656420746f2073656e642061206d696e696d756d20616d6f756e74206f6660448201527f206d6174696320746f20707572636861736520666c617368206c6f616e20636f60648201527f6e74726163742e20416e79206c6566746f7665722066756e647320617265207260848201527f657475726e65642e2056696577206765744d6174696356616c75654e6565646560a48201527f64466f724e6577436f6e747261637420666f722063757272656e74206d61746960c48201527f6320616d6f756e74206e65656465642e0000000000000000000000000000000060e48201526101040161039a565b60007f00000000000000000000000000000000000000000000000000000000000000006001600160a01b03168260405160006040518083038185875af1925050503d806000811461061c576040519150601f19603f3d011682016040523d82523d6000602084013e610621565b606091505b50509050806106725760405162461bcd60e51b815260206004820152601960248201527f5472616e7366657220746f206f776e6572206661696c65642e00000000000000604482015260640161039a565b47156107195760003361068584346108e5565b604051600081818185875af1925050503d80600081146106c1576040519150601f19603f3d011682016040523d82523d6000602084013e6106c6565b606091505b50509050806107175760405162461bcd60e51b815260206004820152601660248201527f526566756e6420746f2075736572206661696c65642e00000000000000000000604482015260640161039a565b505b50505b600080546040516001600160a01b039091169033907f0000000000000000000000000000000000000000000000000000000000000000907f00000000000000000000000000000000000000000000000000000000000000009061077e9061081f565b6001600160a01b039485168152928416602084015290831660408301529091166060820152608001604051809103906000f0801580156107c2573d6000803e3d6000fd5b5033600090815260026020526040812080547fffffffffffffffffffffffff0000000000000000000000000000000000000000166001600160a01b0384161790556003805492935090610814836108fc565b909155509092915050565b6114ac8061091883390190565b60006020828403121561083e57600080fd5b81356001600160a01b038116811461085557600080fd5b9392505050565b60006020828403121561086e57600080fd5b5035919050565b60006020828403121561088757600080fd5b5051919050565b634e487b7160e01b600052601160045260246000fd5b60008160001904831182151516156108be576108be61088e565b500290565b6000826108e057634e487b7160e01b600052601260045260246000fd5b500490565b6000828210156108f7576108f761088e565b500390565b60006000198214156109105761091061088e565b506001019056fe6101006040523480156200001257600080fd5b50604051620014ac380380620014ac833981016040819052620000359162000106565b83806001600160a01b03166080816001600160a01b031681525050806001600160a01b031663026b1d5f6040518163ffffffff1660e01b8152600401602060405180830381865afa1580156200008f573d6000803e3d6000fd5b505050506040513d601f19601f82011682018060405250810190620000b591906200016e565b6001600160a01b0390811660a052600080546001600160a01b031916958216959095179094555090821660c0521660e0525062000195565b6001600160a01b03811681146200010357600080fd5b50565b600080600080608085870312156200011d57600080fd5b84516200012a81620000ed565b60208601519094506200013d81620000ed565b60408601519093506200015081620000ed565b60608601519092506200016381620000ed565b939692955090935050565b6000602082840312156200018157600080fd5b81516200018e81620000ed565b9392505050565b60805160a05160c05160e0516112c2620001ea60003960008181610c870152610cdc015260008181610b050152610bea01526000818161011b0152818161043e015261060d01526000609201526112c26000f3fe60806040526004361061007b5760003560e01c8063893d20e81161004e578063893d20e81461013d578063920f5c841461015b578063c2d222071461018b578063f2fde38b146101ab57600080fd5b80630542975c146100805780633bdebbe1146100d15780633ccfd60b146100ff5780637535d24614610109575b600080fd5b34801561008c57600080fd5b506100b47f000000000000000000000000000000000000000000000000000000000000000081565b6040516001600160a01b0390911681526020015b60405180910390f35b3480156100dd57600080fd5b506100f16100ec366004610d7e565b6101cb565b6040519081526020016100c8565b6101076102fe565b005b34801561011557600080fd5b506100b47f000000000000000000000000000000000000000000000000000000000000000081565b34801561014957600080fd5b506000546001600160a01b03166100b4565b34801561016757600080fd5b5061017b610176366004610dee565b6103bb565b60405190151581526020016100c8565b34801561019757600080fd5b506101076101a6366004610f17565b610487565b3480156101b757600080fd5b506101076101c6366004610d7e565b610690565b600080546001600160a01b031633146101e357600080fd5b6040517f70a082310000000000000000000000000000000000000000000000000000000081523060048201526001600160a01b038316906370a0823190602401602060405180830381865afa158015610240573d6000803e3d6000fd5b505050506040513d601f19601f820116820180604052508101906102649190610f8a565b9050600081116102e15760405162461bcd60e51b815260206004820152603060248201527f436f6e747261637420646f6573206e6f742068617665207468652070726f766960448201527f64656420455243323020746f6b656e2e0000000000000000000000000000000060648201526084015b60405180910390fd5b6000546102f99083906001600160a01b0316836106e1565b919050565b6000546001600160a01b0316331461031557600080fd5b600080546040516001600160a01b039091169047908381818185875af1925050503d8060008114610362576040519150601f19603f3d011682016040523d82523d6000602084013e610367565b606091505b50509050806103b85760405162461bcd60e51b815260206004820152601060248201527f5769746864726177206661696c65642e0000000000000000000000000000000060448201526064016102d8565b50565b60006103c7838361082a565b60005b898110156104765760008787838181106103e6576103e6610fa3565b905060200201358a8a848181106103ff576103ff610fa3565b905060200201356104109190610fcf565b90506104638c8c8481811061042757610427610fa3565b905060200201602081019061043c9190610d7e565b7f0000000000000000000000000000000000000000000000000000000000000000836109bb565b508061046e81610fe7565b9150506103ca565b5060019a9950505050505050505050565b6000546001600160a01b0316331461049e57600080fd5b6040805160018082528183019092523091600091906020808301908036833701905050905088816000815181106104d7576104d7610fa3565b6001600160a01b039290921660209283029190910190910152604080516001808252818301909252600091816020016020820280368337019050509050858160008151811061052857610528610fa3565b602090810291909101015260408051600180825281830190925260009181602001602082028036833701905050905060008160008151811061056c5761056c610fa3565b602090810291909101810191909152604080516001600160a01b03808f1693820193909352918c169082015260ff8a16606082015262ffffff8916608082015260a0810188905260c0810187905260e0810186905230906000906101000160408051601f19818403018152908290527fab9c4b5d00000000000000000000000000000000000000000000000000000000825291506000906001600160a01b037f0000000000000000000000000000000000000000000000000000000000000000169063ab9c4b5d9061064e908a908a908a908a908a908a908a906004016110bc565b600060405180830381600087803b15801561066857600080fd5b505af115801561067c573d6000803e3d6000fd5b505050505050505050505050505050505050565b6000546001600160a01b031633146106a757600080fd5b600080547fffffffffffffffffffffffff0000000000000000000000000000000000000000166001600160a01b0392909216919091179055565b604080516001600160a01b038481166024830152604480830185905283518084039091018152606490920183526020820180517bffffffffffffffffffffffffffffffffffffffffffffffffffffffff167fa9059cbb00000000000000000000000000000000000000000000000000000000179052915160009283929087169161076b9190611154565b6000604051808303816000865af19150503d80600081146107a8576040519150601f19603f3d011682016040523d82523d6000602084013e6107ad565b606091505b50915091508180156107d75750805115806107d75750808060200190518101906107d79190611170565b6108235760405162461bcd60e51b815260206004820152600260248201527f535400000000000000000000000000000000000000000000000000000000000060448201526064016102d8565b5050505050565b600080808080808061083e888a018a610f17565b604080516002808252606082018352989f50969d50949b5092995090975095509350600092906020830190803683370190505090508560ff166001141561090c57600061088e85858b8b8a610afd565b905087826000815181106108a4576108a4610fa3565b60200260200101906001600160a01b031690816001600160a01b03168152505088826001815181106108d8576108d8610fa3565b60200260200101906001600160a01b031690816001600160a01b0316815250506109058160008486610c65565b50506109af565b878160008151811061092057610920610fa3565b60200260200101906001600160a01b031690816001600160a01b031681525050868160018151811061095457610954610fa3565b60200260200101906001600160a01b031690816001600160a01b031681525050600061098285858486610c65565b90506109ac8160018151811061099a5761099a610fa3565b602002602001015160008a8c8a610afd565b50505b50505050505050505050565b604080516001600160a01b038481166024830152604480830185905283518084039091018152606490920183526020820180517bffffffffffffffffffffffffffffffffffffffffffffffffffffffff167f095ea7b3000000000000000000000000000000000000000000000000000000001790529151600092839290871691610a459190611154565b6000604051808303816000865af19150503d8060008114610a82576040519150601f19603f3d011682016040523d82523d6000602084013e610a87565b606091505b5091509150818015610ab1575080511580610ab1575080806020019051810190610ab19190611170565b6108235760405162461bcd60e51b815260206004820152600260248201527f534100000000000000000000000000000000000000000000000000000000000060448201526064016102d8565b6000610b2a847f0000000000000000000000000000000000000000000000000000000000000000886109bb565b60408051610100810182526001600160a01b0386811682528581166020830190815262ffffff8681168486019081523060608601908152426080870190815260a087018e815260c088018e8152600060e08a0190815299517f414bf38900000000000000000000000000000000000000000000000000000000815289518916600482015296518816602488015293519094166044860152905185166064850152516084840152905160a48301525160c48201529251811660e484015290917f00000000000000000000000000000000000000000000000000000000000000009091169063414bf38990610104016020604051808303816000875af1158015610c36573d6000803e3d6000fd5b505050506040513d601f19601f82011682018060405250810190610c5a9190610f8a565b979650505050505050565b6060610cac83600081518110610c7d57610c7d610fa3565b60200260200101517f0000000000000000000000000000000000000000000000000000000000000000876109bb565b6040517f38ed17390000000000000000000000000000000000000000000000000000000081526001600160a01b037f000000000000000000000000000000000000000000000000000000000000000016906338ed173990610d199088908890889030908990600401611192565b6000604051808303816000875af1158015610d38573d6000803e3d6000fd5b505050506040513d6000823e601f3d908101601f19168201604052610d6091908101906111ce565b95945050505050565b6001600160a01b03811681146103b857600080fd5b600060208284031215610d9057600080fd5b8135610d9b81610d69565b9392505050565b60008083601f840112610db457600080fd5b50813567ffffffffffffffff811115610dcc57600080fd5b6020830191508360208260051b8501011115610de757600080fd5b9250929050565b600080600080600080600080600060a08a8c031215610e0c57600080fd5b893567ffffffffffffffff80821115610e2457600080fd5b610e308d838e01610da2565b909b50995060208c0135915080821115610e4957600080fd5b610e558d838e01610da2565b909950975060408c0135915080821115610e6e57600080fd5b610e7a8d838e01610da2565b909750955060608c01359150610e8f82610d69565b90935060808b01359080821115610ea557600080fd5b818c0191508c601f830112610eb957600080fd5b813581811115610ec857600080fd5b8d6020828501011115610eda57600080fd5b6020830194508093505050509295985092959850929598565b803560ff811681146102f957600080fd5b803562ffffff811681146102f957600080fd5b600080600080600080600060e0888a031215610f3257600080fd5b8735610f3d81610d69565b96506020880135610f4d81610d69565b9550610f5b60408901610ef3565b9450610f6960608901610f04565b9699959850939660808101359560a0820135955060c0909101359350915050565b600060208284031215610f9c57600080fd5b5051919050565b634e487b7160e01b600052603260045260246000fd5b634e487b7160e01b600052601160045260246000fd5b60008219821115610fe257610fe2610fb9565b500190565b6000600019821415610ffb57610ffb610fb9565b5060010190565b634e487b7160e01b600052604160045260246000fd5b600081518084526020808501945080840160005b838110156110515781516001600160a01b03168752958201959082019060010161102c565b509495945050505050565b600081518084526020808501945080840160005b8381101561105157815187529582019590820190600101611070565b60005b838110156110a757818101518382015260200161108f565b838111156110b6576000848401525b50505050565b60006001600160a01b03808a16835260e060208401526110df60e084018a611018565b83810360408501526110f1818a61105c565b90508381036060850152611105818961105c565b91871660808501525082810360a084015284518082529061112d82602080840190890161108c565b61ffff9490941660c0939093019290925250601f01601f1916016020019695505050505050565b6000825161116681846020870161108c565b9190910192915050565b60006020828403121561118257600080fd5b81518015158114610d9b57600080fd5b85815284602082015260a0604082015260006111b160a0830186611018565b6001600160a01b0394909416606083015250608001529392505050565b600060208083850312156111e157600080fd5b825167ffffffffffffffff808211156111f957600080fd5b818501915085601f83011261120d57600080fd5b81518181111561121f5761121f611002565b8060051b604051601f19603f8301168101818110858211171561124457611244611002565b60405291825284820192508381018501918883111561126257600080fd5b938501935b8285101561128057845184529385019392850192611267565b9897505050505050505056fea26469706673582212206b9c8fe032cf2319f11bd766cd183eff7e95ed125882aef94e08304d4febbcc364736f6c634300080a0033a2646970667358221220f6c92ef705ba626625e79543ea2a33b30f3b99efbea571711308ce5be777af8164736f6c634300080a0033",
  "linkReferences": {},
  "deployedLinkReferences": {}
}