{
  "_format": "hh-sol-artifact-1",
  "contractName": "AaveFlashLoanV3",
  "sourceName": "contracts/AaveFlashLoanV3.sol",
  "abi": [
    {
      "inputs": [
        {
          "internalType": "contract IPoolAddressesProvider",
          "name": "_addressProvider",
          "type": "address"
        },
        {
          "internalType": "address",
          "name": "_owner",
          "type": "address"
        },
        {
          "internalType": "contract ISwapRouter",
          "name": "_uniSwapRouter",
          "type": "address"
        },
        {
          "internalType": "contract IUniswapV2Router02",
          "name": "_sushiRouter",
          "type": "address"
        }
      ],
      "stateMutability": "nonpayable",
      "type": "constructor"
    },
    {
      "inputs": [],
      "name": "ADDRESSES_PROVIDER",
      "outputs": [
        {
          "internalType": "contract IPoolAddressesProvider",
          "name": "",
          "type": "address"
        }
      ],
      "stateMutability": "view",
      "type": "function"
    },
    {
      "inputs": [],
      "name": "POOL",
      "outputs": [
        {
          "internalType": "contract IPool",
          "name": "",
          "type": "address"
        }
      ],
      "stateMutability": "view",
      "type": "function"
    },
    {
      "inputs": [
        {
          "internalType": "address[]",
          "name": "assets",
          "type": "address[]"
        },
        {
          "internalType": "uint256[]",
          "name": "amounts",
          "type": "uint256[]"
        },
        {
          "internalType": "uint256[]",
          "name": "premiums",
          "type": "uint256[]"
        },
        {
          "internalType": "address",
          "name": "initiator",
          "type": "address"
        },
        {
          "internalType": "bytes",
          "name": "params",
          "type": "bytes"
        }
      ],
      "name": "executeOperation",
      "outputs": [
        {
          "internalType": "bool",
          "name": "",
          "type": "bool"
        }
      ],
      "stateMutability": "nonpayable",
      "type": "function"
    },
    {
      "inputs": [
        {
          "internalType": "address",
          "name": "token0",
          "type": "address"
        },
        {
          "internalType": "address",
          "name": "token1",
          "type": "address"
        },
        {
          "internalType": "uint8",
          "name": "direction",
          "type": "uint8"
        },
        {
          "internalType": "uint24",
          "name": "poolFee",
          "type": "uint24"
        },
        {
          "internalType": "uint256",
          "name": "amountIn",
          "type": "uint256"
        },
        {
          "internalType": "uint256",
          "name": "amountOut",
          "type": "uint256"
        },
        {
          "internalType": "uint256",
          "name": "deadline",
          "type": "uint256"
        }
      ],
      "name": "myFlashLoanCall",
      "outputs": [],
      "stateMutability": "nonpayable",
      "type": "function"
    },
    {
      "inputs": [],
      "name": "owner",
      "outputs": [
        {
          "internalType": "address",
          "name": "",
          "type": "address"
        }
      ],
      "stateMutability": "view",
      "type": "function"
    },
    {
      "inputs": [
        {
          "internalType": "address",
          "name": "newOwner",
          "type": "address"
        }
      ],
      "name": "transferOwnership",
      "outputs": [],
      "stateMutability": "nonpayable",
      "type": "function"
    },
    {
      "inputs": [
        {
          "internalType": "address",
          "name": "token",
          "type": "address"
        }
      ],
      "name": "withdrawERC20Token",
      "outputs": [
        {
          "internalType": "uint256",
          "name": "currentAmount",
          "type": "uint256"
        }
      ],
      "stateMutability": "nonpayable",
      "type": "function"
    }
  ],
  "bytecode": "0x6101006040523480156200001257600080fd5b506040516200226d3803806200226d8339818101604052810190620000389190620002fe565b838073ffffffffffffffffffffffffffffffffffffffff1660808173ffffffffffffffffffffffffffffffffffffffff16815250508073ffffffffffffffffffffffffffffffffffffffff1663026b1d5f6040518163ffffffff1660e01b8152600401602060405180830381865afa158015620000b9573d6000803e3d6000fd5b505050506040513d601f19601f82011682018060405250810190620000df919062000370565b73ffffffffffffffffffffffffffffffffffffffff1660a08173ffffffffffffffffffffffffffffffffffffffff168152505050826000806101000a81548173ffffffffffffffffffffffffffffffffffffffff021916908373ffffffffffffffffffffffffffffffffffffffff1602179055508173ffffffffffffffffffffffffffffffffffffffff1660c08173ffffffffffffffffffffffffffffffffffffffff16815250508073ffffffffffffffffffffffffffffffffffffffff1660e08173ffffffffffffffffffffffffffffffffffffffff168152505050505050620003a2565b600080fd5b600073ffffffffffffffffffffffffffffffffffffffff82169050919050565b6000620001f782620001ca565b9050919050565b60006200020b82620001ea565b9050919050565b6200021d81620001fe565b81146200022957600080fd5b50565b6000815190506200023d8162000212565b92915050565b6200024e81620001ea565b81146200025a57600080fd5b50565b6000815190506200026e8162000243565b92915050565b60006200028182620001ea565b9050919050565b620002938162000274565b81146200029f57600080fd5b50565b600081519050620002b38162000288565b92915050565b6000620002c682620001ea565b9050919050565b620002d881620002b9565b8114620002e457600080fd5b50565b600081519050620002f881620002cd565b92915050565b600080600080608085870312156200031b576200031a620001c5565b5b60006200032b878288016200022c565b94505060206200033e878288016200025d565b93505060406200035187828801620002a2565b92505060606200036487828801620002e7565b91505092959194509250565b600060208284031215620003895762000388620001c5565b5b600062000399848285016200025d565b91505092915050565b60805160a05160c05160e051611e75620003f860003960008181610db90152610de0015260008181610c2d0152610cf00152600081816102e4015281816103b30152610610015260006101760152611e756000f3fe608060405234801561001057600080fd5b506004361061007d5760003560e01c80638da5cb5b1161005b5780638da5cb5b146100ee578063920f5c841461010c578063c2d222071461013c578063f2fde38b146101585761007d565b80630542975c146100825780633bdebbe1146100a05780637535d246146100d0575b600080fd5b61008a610174565b6040516100979190610f10565b60405180910390f35b6100ba60048036038101906100b59190610f7d565b610198565b6040516100c79190610fc3565b60405180910390f35b6100d86102e2565b6040516100e59190610fff565b60405180910390f35b6100f6610306565b6040516101039190611029565b60405180910390f35b61012660048036038101906101219190611155565b61032a565b604051610133919061126c565b60405180910390f35b61015660048036038101906101519190611327565b6103fe565b005b610172600480360381019061016d9190610f7d565b6106b5565b005b7f000000000000000000000000000000000000000000000000000000000000000081565b60008060009054906101000a900473ffffffffffffffffffffffffffffffffffffffff1673ffffffffffffffffffffffffffffffffffffffff163373ffffffffffffffffffffffffffffffffffffffff16146101f357600080fd5b8173ffffffffffffffffffffffffffffffffffffffff166370a08231306040518263ffffffff1660e01b815260040161022c9190611029565b602060405180830381865afa158015610249573d6000803e3d6000fd5b505050506040513d601f19601f8201168201806040525081019061026d91906113de565b9050600081116102b2576040517f08c379a00000000000000000000000000000000000000000000000000000000081526004016102a99061148e565b60405180910390fd5b6102dd8260008054906101000a900473ffffffffffffffffffffffffffffffffffffffff1683610750565b919050565b7f000000000000000000000000000000000000000000000000000000000000000081565b60008054906101000a900473ffffffffffffffffffffffffffffffffffffffff1681565b600061033683836108a5565b60005b8a8a90508110156103ec576000878783818110610359576103586114ae565b5b905060200201358a8a84818110610373576103726114ae565b5b90506020020135610384919061150c565b90506103d88c8c8481811061039c5761039b6114ae565b5b90506020020160208101906103b19190610f7d565b7f000000000000000000000000000000000000000000000000000000000000000083610ad0565b5080806103e490611562565b915050610339565b50600190509998505050505050505050565b60008054906101000a900473ffffffffffffffffffffffffffffffffffffffff1673ffffffffffffffffffffffffffffffffffffffff163373ffffffffffffffffffffffffffffffffffffffff161461045657600080fd5b60003090506000600167ffffffffffffffff811115610478576104776115ab565b5b6040519080825280602002602001820160405280156104a65781602001602082028036833780820191505090505b50905088816000815181106104be576104bd6114ae565b5b602002602001019073ffffffffffffffffffffffffffffffffffffffff16908173ffffffffffffffffffffffffffffffffffffffff16815250506000600167ffffffffffffffff811115610515576105146115ab565b5b6040519080825280602002602001820160405280156105435781602001602082028036833780820191505090505b509050858160008151811061055b5761055a6114ae565b5b6020026020010181815250506000600167ffffffffffffffff811115610584576105836115ab565b5b6040519080825280602002602001820160405280156105b25781602001602082028036833780820191505090505b5090506000816000815181106105cb576105ca6114ae565b5b602002602001018181525050600030905060008c8c8c8c8c8c8c6040516020016105fb97969594939291906115f8565b604051602081830303815290604052905060007f000000000000000000000000000000000000000000000000000000000000000073ffffffffffffffffffffffffffffffffffffffff1663ab9c4b5d888888888888886040518863ffffffff1660e01b81526004016106739796959493929190611899565b600060405180830381600087803b15801561068d57600080fd5b505af11580156106a1573d6000803e3d6000fd5b505050505050505050505050505050505050565b60008054906101000a900473ffffffffffffffffffffffffffffffffffffffff1673ffffffffffffffffffffffffffffffffffffffff163373ffffffffffffffffffffffffffffffffffffffff161461070d57600080fd5b806000806101000a81548173ffffffffffffffffffffffffffffffffffffffff021916908373ffffffffffffffffffffffffffffffffffffffff16021790555050565b6000808473ffffffffffffffffffffffffffffffffffffffff1663a9059cbb60e01b8585604051602401610785929190611924565b604051602081830303815290604052907bffffffffffffffffffffffffffffffffffffffffffffffffffffffff19166020820180517bffffffffffffffffffffffffffffffffffffffffffffffffffffffff83818316178352505050506040516107ef9190611989565b6000604051808303816000865af19150503d806000811461082c576040519150601f19603f3d011682016040523d82523d6000602084013e610831565b606091505b509150915081801561085f575060008151148061085e57508080602001905181019061085d91906119cc565b5b5b61089e576040517f08c379a000000000000000000000000000000000000000000000000000000000815260040161089590611a45565b60405180910390fd5b5050505050565b600080600080600080600088888101906108bf9190611aa3565b96509650965096509650965096506000600267ffffffffffffffff8111156108ea576108e96115ab565b5b6040519080825280602002602001820160405280156109185781602001602082028036833780820191505090505b50905060018660ff1614156109ea57600061093685858b8b8a610c25565b9050878260008151811061094d5761094c6114ae565b5b602002602001019073ffffffffffffffffffffffffffffffffffffffff16908173ffffffffffffffffffffffffffffffffffffffff1681525050888260018151811061099c5761099b6114ae565b5b602002602001019073ffffffffffffffffffffffffffffffffffffffff16908173ffffffffffffffffffffffffffffffffffffffff16815250506109e38160008486610d96565b5050610ac4565b87816000815181106109ff576109fe6114ae565b5b602002602001019073ffffffffffffffffffffffffffffffffffffffff16908173ffffffffffffffffffffffffffffffffffffffff16815250508681600181518110610a4e57610a4d6114ae565b5b602002602001019073ffffffffffffffffffffffffffffffffffffffff16908173ffffffffffffffffffffffffffffffffffffffff16815250506000610a9685858486610d96565b9050610ac181600181518110610aaf57610aae6114ae565b5b602002602001015160008a8c8a610c25565b50505b50505050505050505050565b6000808473ffffffffffffffffffffffffffffffffffffffff1663095ea7b360e01b8585604051602401610b05929190611924565b604051602081830303815290604052907bffffffffffffffffffffffffffffffffffffffffffffffffffffffff19166020820180517bffffffffffffffffffffffffffffffffffffffffffffffffffffffff8381831617835250505050604051610b6f9190611989565b6000604051808303816000865af19150503d8060008114610bac576040519150601f19603f3d011682016040523d82523d6000602084013e610bb1565b606091505b5091509150818015610bdf5750600081511480610bde575080806020019051810190610bdd91906119cc565b5b5b610c1e576040517f08c379a0000000000000000000000000000000000000000000000000000000008152600401610c1590611b91565b60405180910390fd5b5050505050565b6000610c52847f000000000000000000000000000000000000000000000000000000000000000088610ad0565b60006040518061010001604052808673ffffffffffffffffffffffffffffffffffffffff1681526020018573ffffffffffffffffffffffffffffffffffffffff1681526020018462ffffff1681526020013073ffffffffffffffffffffffffffffffffffffffff168152602001428152602001888152602001878152602001600073ffffffffffffffffffffffffffffffffffffffff1681525090507f000000000000000000000000000000000000000000000000000000000000000073ffffffffffffffffffffffffffffffffffffffff1663414bf389826040518263ffffffff1660e01b8152600401610d479190611c71565b6020604051808303816000875af1158015610d66573d6000803e3d6000fd5b505050506040513d601f19601f82011682018060405250810190610d8a91906113de565b91505095945050505050565b6060610dde83600081518110610daf57610dae6114ae565b5b60200260200101517f000000000000000000000000000000000000000000000000000000000000000087610ad0565b7f000000000000000000000000000000000000000000000000000000000000000073ffffffffffffffffffffffffffffffffffffffff166338ed173986868630876040518663ffffffff1660e01b8152600401610e3f959493929190611c8d565b6000604051808303816000875af1158015610e5e573d6000803e3d6000fd5b505050506040513d6000823e3d601f19601f82011682018060405250810190610e879190611df6565b9050949350505050565b600073ffffffffffffffffffffffffffffffffffffffff82169050919050565b6000819050919050565b6000610ed6610ed1610ecc84610e91565b610eb1565b610e91565b9050919050565b6000610ee882610ebb565b9050919050565b6000610efa82610edd565b9050919050565b610f0a81610eef565b82525050565b6000602082019050610f256000830184610f01565b92915050565b6000604051905090565b600080fd5b600080fd5b6000610f4a82610e91565b9050919050565b610f5a81610f3f565b8114610f6557600080fd5b50565b600081359050610f7781610f51565b92915050565b600060208284031215610f9357610f92610f35565b5b6000610fa184828501610f68565b91505092915050565b6000819050919050565b610fbd81610faa565b82525050565b6000602082019050610fd86000830184610fb4565b92915050565b6000610fe982610edd565b9050919050565b610ff981610fde565b82525050565b60006020820190506110146000830184610ff0565b92915050565b61102381610f3f565b82525050565b600060208201905061103e600083018461101a565b92915050565b600080fd5b600080fd5b600080fd5b60008083601f84011261106957611068611044565b5b8235905067ffffffffffffffff81111561108657611085611049565b5b6020830191508360208202830111156110a2576110a161104e565b5b9250929050565b60008083601f8401126110bf576110be611044565b5b8235905067ffffffffffffffff8111156110dc576110db611049565b5b6020830191508360208202830111156110f8576110f761104e565b5b9250929050565b60008083601f84011261111557611114611044565b5b8235905067ffffffffffffffff81111561113257611131611049565b5b60208301915083600182028301111561114e5761114d61104e565b5b9250929050565b600080600080600080600080600060a08a8c03121561117757611176610f35565b5b60008a013567ffffffffffffffff81111561119557611194610f3a565b5b6111a18c828d01611053565b995099505060208a013567ffffffffffffffff8111156111c4576111c3610f3a565b5b6111d08c828d016110a9565b975097505060408a013567ffffffffffffffff8111156111f3576111f2610f3a565b5b6111ff8c828d016110a9565b955095505060606112128c828d01610f68565b93505060808a013567ffffffffffffffff81111561123357611232610f3a565b5b61123f8c828d016110ff565b92509250509295985092959850929598565b60008115159050919050565b61126681611251565b82525050565b6000602082019050611281600083018461125d565b92915050565b600060ff82169050919050565b61129d81611287565b81146112a857600080fd5b50565b6000813590506112ba81611294565b92915050565b600062ffffff82169050919050565b6112d8816112c0565b81146112e357600080fd5b50565b6000813590506112f5816112cf565b92915050565b61130481610faa565b811461130f57600080fd5b50565b600081359050611321816112fb565b92915050565b600080600080600080600060e0888a03121561134657611345610f35565b5b60006113548a828b01610f68565b97505060206113658a828b01610f68565b96505060406113768a828b016112ab565b95505060606113878a828b016112e6565b94505060806113988a828b01611312565b93505060a06113a98a828b01611312565b92505060c06113ba8a828b01611312565b91505092959891949750929550565b6000815190506113d8816112fb565b92915050565b6000602082840312156113f4576113f3610f35565b5b6000611402848285016113c9565b91505092915050565b600082825260208201905092915050565b7f436f6e747261637420646f6573206e6f742068617665207468652070726f766960008201527f64656420455243323020746f6b656e2e00000000000000000000000000000000602082015250565b600061147860308361140b565b91506114838261141c565b604082019050919050565b600060208201905081810360008301526114a78161146b565b9050919050565b7f4e487b7100000000000000000000000000000000000000000000000000000000600052603260045260246000fd5b7f4e487b7100000000000000000000000000000000000000000000000000000000600052601160045260246000fd5b600061151782610faa565b915061152283610faa565b9250827fffffffffffffffffffffffffffffffffffffffffffffffffffffffffffffffff03821115611557576115566114dd565b5b828201905092915050565b600061156d82610faa565b91507fffffffffffffffffffffffffffffffffffffffffffffffffffffffffffffffff8214156115a05761159f6114dd565b5b600182019050919050565b7f4e487b7100000000000000000000000000000000000000000000000000000000600052604160045260246000fd5b6115e381611287565b82525050565b6115f2816112c0565b82525050565b600060e08201905061160d600083018a61101a565b61161a602083018961101a565b61162760408301886115da565b61163460608301876115e9565b6116416080830186610fb4565b61164e60a0830185610fb4565b61165b60c0830184610fb4565b98975050505050505050565b600081519050919050565b600082825260208201905092915050565b6000819050602082019050919050565b61169c81610f3f565b82525050565b60006116ae8383611693565b60208301905092915050565b6000602082019050919050565b60006116d282611667565b6116dc8185611672565b93506116e783611683565b8060005b838110156117185781516116ff88826116a2565b975061170a836116ba565b9250506001810190506116eb565b5085935050505092915050565b600081519050919050565b600082825260208201905092915050565b6000819050602082019050919050565b61175a81610faa565b82525050565b600061176c8383611751565b60208301905092915050565b6000602082019050919050565b600061179082611725565b61179a8185611730565b93506117a583611741565b8060005b838110156117d65781516117bd8882611760565b97506117c883611778565b9250506001810190506117a9565b5085935050505092915050565b600081519050919050565b600082825260208201905092915050565b60005b8381101561181d578082015181840152602081019050611802565b8381111561182c576000848401525b50505050565b6000601f19601f8301169050919050565b600061184e826117e3565b61185881856117ee565b93506118688185602086016117ff565b61187181611832565b840191505092915050565b600061ffff82169050919050565b6118938161187c565b82525050565b600060e0820190506118ae600083018a61101a565b81810360208301526118c081896116c7565b905081810360408301526118d48188611785565b905081810360608301526118e88187611785565b90506118f7608083018661101a565b81810360a08301526119098185611843565b905061191860c083018461188a565b98975050505050505050565b6000604082019050611939600083018561101a565b6119466020830184610fb4565b9392505050565b600081905092915050565b6000611963826117e3565b61196d818561194d565b935061197d8185602086016117ff565b80840191505092915050565b60006119958284611958565b915081905092915050565b6119a981611251565b81146119b457600080fd5b50565b6000815190506119c6816119a0565b92915050565b6000602082840312156119e2576119e1610f35565b5b60006119f0848285016119b7565b91505092915050565b7f5354000000000000000000000000000000000000000000000000000000000000600082015250565b6000611a2f60028361140b565b9150611a3a826119f9565b602082019050919050565b60006020820190508181036000830152611a5e81611a22565b9050919050565b6000611a7082610e91565b9050919050565b611a8081611a65565b8114611a8b57600080fd5b50565b600081359050611a9d81611a77565b92915050565b600080600080600080600060e0888a031215611ac257611ac1610f35565b5b6000611ad08a828b01611a8e565b9750506020611ae18a828b01611a8e565b9650506040611af28a828b016112ab565b9550506060611b038a828b016112e6565b9450506080611b148a828b01611312565b93505060a0611b258a828b01611312565b92505060c0611b368a828b01611312565b91505092959891949750929550565b7f5341000000000000000000000000000000000000000000000000000000000000600082015250565b6000611b7b60028361140b565b9150611b8682611b45565b602082019050919050565b60006020820190508181036000830152611baa81611b6e565b9050919050565b611bba816112c0565b82525050565b611bc981610e91565b82525050565b61010082016000820151611be66000850182611693565b506020820151611bf96020850182611693565b506040820151611c0c6040850182611bb1565b506060820151611c1f6060850182611693565b506080820151611c326080850182611751565b5060a0820151611c4560a0850182611751565b5060c0820151611c5860c0850182611751565b5060e0820151611c6b60e0850182611bc0565b50505050565b600061010082019050611c876000830184611bcf565b92915050565b600060a082019050611ca26000830188610fb4565b611caf6020830187610fb4565b8181036040830152611cc181866116c7565b9050611cd0606083018561101a565b611cdd6080830184610fb4565b9695505050505050565b611cf082611832565b810181811067ffffffffffffffff82111715611d0f57611d0e6115ab565b5b80604052505050565b6000611d22610f2b565b9050611d2e8282611ce7565b919050565b600067ffffffffffffffff821115611d4e57611d4d6115ab565b5b602082029050602081019050919050565b6000611d72611d6d84611d33565b611d18565b90508083825260208201905060208402830185811115611d9557611d9461104e565b5b835b81811015611dbe5780611daa88826113c9565b845260208401935050602081019050611d97565b5050509392505050565b600082601f830112611ddd57611ddc611044565b5b8151611ded848260208601611d5f565b91505092915050565b600060208284031215611e0c57611e0b610f35565b5b600082015167ffffffffffffffff811115611e2a57611e29610f3a565b5b611e3684828501611dc8565b9150509291505056fea26469706673582212202144bb37389faa346cbf084112249487cd1f99931acb834d3702b379214692bc64736f6c634300080a0033",
  "linkReferences": {},
  "deployedLinkReferences": {}
}