{
  "_format": "hh-sol-artifact-1",
  "contractName": "AaveFlashLoanV3",
  "sourceName": "contracts/AaveFlashLoanV3.sol",
  "abi": [
    {
      "inputs": [
        {
          "internalType": "contract IPoolAddressesProvider",
          "name": "_addressProvider",
          "type": "address"
        },
        {
          "internalType": "address",
          "name": "_owner",
          "type": "address"
        },
        {
          "internalType": "contract ISwapRouter",
          "name": "_uniSwapRouter",
          "type": "address"
        },
        {
          "internalType": "contract IUniswapV2Router02",
          "name": "_sushiRouter",
          "type": "address"
        }
      ],
      "stateMutability": "nonpayable",
      "type": "constructor"
    },
    {
      "inputs": [],
      "name": "ADDRESSES_PROVIDER",
      "outputs": [
        {
          "internalType": "contract IPoolAddressesProvider",
          "name": "",
          "type": "address"
        }
      ],
      "stateMutability": "view",
      "type": "function"
    },
    {
      "inputs": [],
      "name": "POOL",
      "outputs": [
        {
          "internalType": "contract IPool",
          "name": "",
          "type": "address"
        }
      ],
      "stateMutability": "view",
      "type": "function"
    },
    {
      "inputs": [
        {
          "internalType": "address[]",
          "name": "assets",
          "type": "address[]"
        },
        {
          "internalType": "uint256[]",
          "name": "amounts",
          "type": "uint256[]"
        },
        {
          "internalType": "uint256[]",
          "name": "premiums",
          "type": "uint256[]"
        },
        {
          "internalType": "address",
          "name": "initiator",
          "type": "address"
        },
        {
          "internalType": "bytes",
          "name": "params",
          "type": "bytes"
        }
      ],
      "name": "executeOperation",
      "outputs": [
        {
          "internalType": "bool",
          "name": "",
          "type": "bool"
        }
      ],
      "stateMutability": "nonpayable",
      "type": "function"
    },
    {
      "inputs": [],
      "name": "getOwner",
      "outputs": [
        {
          "internalType": "address",
          "name": "",
          "type": "address"
        }
      ],
      "stateMutability": "view",
      "type": "function"
    },
    {
      "inputs": [],
      "name": "minimumProfitDividor",
      "outputs": [
        {
          "internalType": "uint24",
          "name": "",
          "type": "uint24"
        }
      ],
      "stateMutability": "view",
      "type": "function"
    },
    {
      "inputs": [
        {
          "internalType": "address",
          "name": "token0",
          "type": "address"
        },
        {
          "internalType": "address",
          "name": "token1",
          "type": "address"
        },
        {
          "internalType": "uint8",
          "name": "direction",
          "type": "uint8"
        },
        {
          "internalType": "uint24",
          "name": "poolFee",
          "type": "uint24"
        },
        {
          "internalType": "uint256",
          "name": "amountIn",
          "type": "uint256"
        },
        {
          "internalType": "uint256",
          "name": "amountOut",
          "type": "uint256"
        },
        {
          "internalType": "uint256",
          "name": "deadline",
          "type": "uint256"
        }
      ],
      "name": "myFlashLoanCall",
      "outputs": [],
      "stateMutability": "nonpayable",
      "type": "function"
    },
    {
      "inputs": [
        {
          "internalType": "uint24",
          "name": "setAmount",
          "type": "uint24"
        }
      ],
      "name": "setMinimumProfitDividor",
      "outputs": [],
      "stateMutability": "nonpayable",
      "type": "function"
    },
    {
      "inputs": [
        {
          "internalType": "address",
          "name": "newOwner",
          "type": "address"
        }
      ],
      "name": "transferOwnership",
      "outputs": [],
      "stateMutability": "nonpayable",
      "type": "function"
    },
    {
      "inputs": [],
      "name": "withdraw",
      "outputs": [],
      "stateMutability": "nonpayable",
      "type": "function"
    },
    {
      "inputs": [
        {
          "internalType": "address",
          "name": "token",
          "type": "address"
        }
      ],
      "name": "withdrawERC20Token",
      "outputs": [
        {
          "internalType": "uint256",
          "name": "currentAmount",
          "type": "uint256"
        }
      ],
      "stateMutability": "nonpayable",
      "type": "function"
    }
  ],
  "bytecode": "0x6101006040526000805462ffffff60a01b191661027160a61b1790553480156200002857600080fd5b506040516200191e3803806200191e8339810160408190526200004b916200011c565b83806001600160a01b03166080816001600160a01b031681525050806001600160a01b031663026b1d5f6040518163ffffffff1660e01b8152600401602060405180830381865afa158015620000a5573d6000803e3d6000fd5b505050506040513d601f19601f82011682018060405250810190620000cb919062000184565b6001600160a01b0390811660a052600080546001600160a01b031916958216959095179094555090821660c0521660e05250620001ab565b6001600160a01b03811681146200011957600080fd5b50565b600080600080608085870312156200013357600080fd5b8451620001408162000103565b6020860151909450620001538162000103565b6040860151909350620001668162000103565b6060860151909250620001798162000103565b939692955090935050565b6000602082840312156200019757600080fd5b8151620001a48162000103565b9392505050565b60805160a05160c05160e05161171e6200020060003960008181610ff00152611045015260008181610e6e0152610f53015260008181610161015281816105c701526107ee0152600060c8015261171e6000f3fe608060405234801561001057600080fd5b50600436106100be5760003560e01c8063893d20e811610076578063beb01c401161005b578063beb01c40146101b7578063c2d22207146101ca578063f2fde38b146101dd57600080fd5b8063893d20e814610183578063920f5c841461019457600080fd5b80633ccfd60b116100a75780633ccfd60b146101285780636ef2459c146101325780637535d2461461015c57600080fd5b80630542975c146100c35780633bdebbe114610107575b600080fd5b6100ea7f000000000000000000000000000000000000000000000000000000000000000081565b6040516001600160a01b0390911681526020015b60405180910390f35b61011a6101153660046110e7565b6101f0565b6040519081526020016100fe565b61013061030a565b005b60005461014890600160a01b900462ffffff1681565b60405162ffffff90911681526020016100fe565b6100ea7f000000000000000000000000000000000000000000000000000000000000000081565b6000546001600160a01b03166100ea565b6101a76101a2366004611157565b6103c7565b60405190151581526020016100fe565b6101306101c536600461126f565b610614565b6101306101d836600461129b565b610668565b6101306101eb3660046110e7565b610871565b600080546001600160a01b0316331461020857600080fd5b6040516370a0823160e01b81523060048201526001600160a01b038316906370a0823190602401602060405180830381865afa15801561024c573d6000803e3d6000fd5b505050506040513d601f19601f82011682018060405250810190610270919061130e565b9050600081116102ed5760405162461bcd60e51b815260206004820152603060248201527f436f6e747261637420646f6573206e6f742068617665207468652070726f766960448201527f64656420455243323020746f6b656e2e0000000000000000000000000000000060648201526084015b60405180910390fd5b6000546103059083906001600160a01b0316836108c2565b919050565b6000546001600160a01b0316331461032157600080fd5b600080546040516001600160a01b039091169047908381818185875af1925050503d806000811461036e576040519150601f19603f3d011682016040523d82523d6000602084013e610373565b606091505b50509050806103c45760405162461bcd60e51b815260206004820152601060248201527f5769746864726177206661696c65642e0000000000000000000000000000000060448201526064016102e4565b50565b60006103d583838888610a0b565b60006040518060600160405280602e81526020016116bb602e913960408051808201909152601781527f202d20416d6f756e7420696e20436f6e74726163743a20000000000000000000602082015290915060005b8b81101561060157600089898381811061044657610446611327565b905060200201358c8c8481811061045f5761045f611327565b905060200201356104709190611353565b905060008e8e8481811061048657610486611327565b905060200201602081019061049b91906110e7565b6040516370a0823160e01b81523060048201526001600160a01b0391909116906370a0823190602401602060405180830381865afa1580156104e1573d6000803e3d6000fd5b505050506040513d601f19601f82011682018060405250810190610505919061130e565b90508082108561051484610bea565b60405160200161052592919061139b565b6040516020818303038152906040528561053e84610bea565b60405160200161054f92919061139b565b60408051601f198184030181529082905261056d929160200161139b565b6040516020818303038152906040529061059a5760405162461bcd60e51b81526004016102e491906113f6565b506105ec8f8f858181106105b0576105b0611327565b90506020020160208101906105c591906110e7565b7f000000000000000000000000000000000000000000000000000000000000000084610d24565b505080806105f990611409565b91505061042a565b5060019c9b505050505050505050505050565b6000546001600160a01b0316331461062b57600080fd5b6000805462ffffff909216600160a01b027fffffffffffffffffff000000ffffffffffffffffffffffffffffffffffffffff909216919091179055565b6000546001600160a01b0316331461067f57600080fd5b6040805160018082528183019092523091600091906020808301908036833701905050905088816000815181106106b8576106b8611327565b6001600160a01b039290921660209283029190910190910152604080516001808252818301909252600091816020016020820280368337019050509050858160008151811061070957610709611327565b602090810291909101015260408051600180825281830190925260009181602001602082028036833701905050905060008160008151811061074d5761074d611327565b602090810291909101810191909152604080516001600160a01b03808f1693820193909352918c169082015260ff8a16606082015262ffffff8916608082015260a0810188905260c0810187905260e0810186905230906000906101000160408051601f19818403018152908290527fab9c4b5d00000000000000000000000000000000000000000000000000000000825291506000906001600160a01b037f0000000000000000000000000000000000000000000000000000000000000000169063ab9c4b5d9061082f908a908a908a908a908a908a908a906004016114ae565b600060405180830381600087803b15801561084957600080fd5b505af115801561085d573d6000803e3d6000fd5b505050505050505050505050505050505050565b6000546001600160a01b0316331461088857600080fd5b600080547fffffffffffffffffffffffff0000000000000000000000000000000000000000166001600160a01b0392909216919091179055565b604080516001600160a01b038481166024830152604480830185905283518084039091018152606490920183526020820180517bffffffffffffffffffffffffffffffffffffffffffffffffffffffff167fa9059cbb00000000000000000000000000000000000000000000000000000000179052915160009283929087169161094c919061152d565b6000604051808303816000865af19150503d8060008114610989576040519150601f19603f3d011682016040523d82523d6000602084013e61098e565b606091505b50915091508180156109b85750805115806109b85750808060200190518101906109b89190611549565b610a045760405162461bcd60e51b815260206004820152600260248201527f535400000000000000000000000000000000000000000000000000000000000060448201526064016102e4565b5050505050565b6000808080808080610a1f8a8c018c61129b565b604080516002808252606082018352989f50969d50949b509299509097509550935060009290602083019080368337019050506000805491925090610a7090600160a01b900462ffffff1686611581565b8b8b6000818110610a8357610a83611327565b9050602002013586610a959190611353565b610a9f9190611353565b90508660ff1660011415610b39576000610abc86868c8c8b610e66565b90508883600081518110610ad257610ad2611327565b60200260200101906001600160a01b031690816001600160a01b0316815250508983600181518110610b0657610b06611327565b60200260200101906001600160a01b031690816001600160a01b031681525050610b3281838587610fce565b5050610bdb565b8882600081518110610b4d57610b4d611327565b60200260200101906001600160a01b031690816001600160a01b0316815250508782600181518110610b8157610b81611327565b60200260200101906001600160a01b031690816001600160a01b0316815250506000610baf86868587610fce565b9050610bd881600181518110610bc757610bc7611327565b6020026020010151838b8d8b610e66565b50505b50505050505050505050505050565b606081610c2a57505060408051808201909152600181527f3000000000000000000000000000000000000000000000000000000000000000602082015290565b8160005b8115610c545780610c3e81611409565b9150610c4d9050600a83611581565b9150610c2e565b60008167ffffffffffffffff811115610c6f57610c6f611424565b6040519080825280601f01601f191660200182016040528015610c99576020820181803683370190505b5090505b8415610d1c57610cae600183611595565b9150610cbb600a866115ac565b610cc6906030611353565b60f81b818381518110610cdb57610cdb611327565b60200101907effffffffffffffffffffffffffffffffffffffffffffffffffffffffffffff1916908160001a905350610d15600a86611581565b9450610c9d565b949350505050565b604080516001600160a01b038481166024830152604480830185905283518084039091018152606490920183526020820180517bffffffffffffffffffffffffffffffffffffffffffffffffffffffff167f095ea7b3000000000000000000000000000000000000000000000000000000001790529151600092839290871691610dae919061152d565b6000604051808303816000865af19150503d8060008114610deb576040519150601f19603f3d011682016040523d82523d6000602084013e610df0565b606091505b5091509150818015610e1a575080511580610e1a575080806020019051810190610e1a9190611549565b610a045760405162461bcd60e51b815260206004820152600260248201527f534100000000000000000000000000000000000000000000000000000000000060448201526064016102e4565b6000610e93847f000000000000000000000000000000000000000000000000000000000000000088610d24565b60408051610100810182526001600160a01b0386811682528581166020830190815262ffffff8681168486019081523060608601908152426080870190815260a087018e815260c088018e8152600060e08a0190815299517f414bf38900000000000000000000000000000000000000000000000000000000815289518916600482015296518816602488015293519094166044860152905185166064850152516084840152905160a48301525160c48201529251811660e484015290917f00000000000000000000000000000000000000000000000000000000000000009091169063414bf38990610104016020604051808303816000875af1158015610f9f573d6000803e3d6000fd5b505050506040513d601f19601f82011682018060405250810190610fc3919061130e565b979650505050505050565b606061101583600081518110610fe657610fe6611327565b60200260200101517f000000000000000000000000000000000000000000000000000000000000000087610d24565b6040517f38ed17390000000000000000000000000000000000000000000000000000000081526001600160a01b037f000000000000000000000000000000000000000000000000000000000000000016906338ed17399061108290889088908890309089906004016115c0565b6000604051808303816000875af11580156110a1573d6000803e3d6000fd5b505050506040513d6000823e601f3d908101601f191682016040526110c991908101906115fc565b95945050505050565b6001600160a01b03811681146103c457600080fd5b6000602082840312156110f957600080fd5b8135611104816110d2565b9392505050565b60008083601f84011261111d57600080fd5b50813567ffffffffffffffff81111561113557600080fd5b6020830191508360208260051b850101111561115057600080fd5b9250929050565b600080600080600080600080600060a08a8c03121561117557600080fd5b893567ffffffffffffffff8082111561118d57600080fd5b6111998d838e0161110b565b909b50995060208c01359150808211156111b257600080fd5b6111be8d838e0161110b565b909950975060408c01359150808211156111d757600080fd5b6111e38d838e0161110b565b909750955060608c013591506111f8826110d2565b90935060808b0135908082111561120e57600080fd5b818c0191508c601f83011261122257600080fd5b81358181111561123157600080fd5b8d602082850101111561124357600080fd5b6020830194508093505050509295985092959850929598565b803562ffffff8116811461030557600080fd5b60006020828403121561128157600080fd5b6111048261125c565b803560ff8116811461030557600080fd5b600080600080600080600060e0888a0312156112b657600080fd5b87356112c1816110d2565b965060208801356112d1816110d2565b95506112df6040890161128a565b94506112ed6060890161125c565b9699959850939660808101359560a0820135955060c0909101359350915050565b60006020828403121561132057600080fd5b5051919050565b634e487b7160e01b600052603260045260246000fd5b634e487b7160e01b600052601160045260246000fd5b600082198211156113665761136661133d565b500190565b60005b8381101561138657818101518382015260200161136e565b83811115611395576000848401525b50505050565b600083516113ad81846020880161136b565b8351908301906113c181836020880161136b565b01949350505050565b600081518084526113e281602086016020860161136b565b601f01601f19169290920160200192915050565b60208152600061110460208301846113ca565b600060001982141561141d5761141d61133d565b5060010190565b634e487b7160e01b600052604160045260246000fd5b600081518084526020808501945080840160005b838110156114735781516001600160a01b03168752958201959082019060010161144e565b509495945050505050565b600081518084526020808501945080840160005b8381101561147357815187529582019590820190600101611492565b60006001600160a01b03808a16835260e060208401526114d160e084018a61143a565b83810360408501526114e3818a61147e565b905083810360608501526114f7818961147e565b9050818716608085015283810360a085015261151381876113ca565b9250505061ffff831660c083015298975050505050505050565b6000825161153f81846020870161136b565b9190910192915050565b60006020828403121561155b57600080fd5b8151801515811461110457600080fd5b634e487b7160e01b600052601260045260246000fd5b6000826115905761159061156b565b500490565b6000828210156115a7576115a761133d565b500390565b6000826115bb576115bb61156b565b500690565b85815284602082015260a0604082015260006115df60a083018661143a565b6001600160a01b0394909416606083015250608001529392505050565b6000602080838503121561160f57600080fd5b825167ffffffffffffffff8082111561162757600080fd5b818501915085601f83011261163b57600080fd5b81518181111561164d5761164d611424565b8060051b604051601f19603f8301168101818110858211171561167257611672611424565b60405291825284820192508381018501918883111561169057600080fd5b938501935b828510156116ae57845184529385019392850192611695565b9897505050505050505056fe4e6f7420656e6f75676820746f6b656e7320746f20726570617920646562742e204465627420416d6f756e743a20a2646970667358221220cdd209b4f9be7a59e36c35e0f97d1d63c3e5f83a1487179daa9024c9c62c07f764736f6c634300080a0033",
  "linkReferences": {},
  "deployedLinkReferences": {}
}