{
  "_format": "hh-sol-artifact-1",
  "contractName": "SwapExamples",
  "sourceName": "contracts/UniSwapSingleSwap.sol",
  "abi": [
    {
      "inputs": [
        {
          "internalType": "contract ISwapRouter",
          "name": "_swapRouter",
          "type": "address"
        }
      ],
      "stateMutability": "nonpayable",
      "type": "constructor"
    },
    {
      "inputs": [],
      "name": "DAI",
      "outputs": [
        {
          "internalType": "address",
          "name": "",
          "type": "address"
        }
      ],
      "stateMutability": "view",
      "type": "function"
    },
    {
      "inputs": [],
      "name": "USDC",
      "outputs": [
        {
          "internalType": "address",
          "name": "",
          "type": "address"
        }
      ],
      "stateMutability": "view",
      "type": "function"
    },
    {
      "inputs": [],
      "name": "WETH9",
      "outputs": [
        {
          "internalType": "address",
          "name": "",
          "type": "address"
        }
      ],
      "stateMutability": "view",
      "type": "function"
    },
    {
      "inputs": [],
      "name": "poolFee",
      "outputs": [
        {
          "internalType": "uint24",
          "name": "",
          "type": "uint24"
        }
      ],
      "stateMutability": "view",
      "type": "function"
    },
    {
      "inputs": [
        {
          "internalType": "uint256",
          "name": "amountIn",
          "type": "uint256"
        }
      ],
      "name": "swapExactInputSingle",
      "outputs": [
        {
          "internalType": "uint256",
          "name": "amountOut",
          "type": "uint256"
        }
      ],
      "stateMutability": "nonpayable",
      "type": "function"
    },
    {
      "inputs": [
        {
          "internalType": "uint256",
          "name": "amountOut",
          "type": "uint256"
        },
        {
          "internalType": "uint256",
          "name": "amountInMaximum",
          "type": "uint256"
        }
      ],
      "name": "swapExactOutputSingle",
      "outputs": [
        {
          "internalType": "uint256",
          "name": "amountIn",
          "type": "uint256"
        }
      ],
      "stateMutability": "nonpayable",
      "type": "function"
    },
    {
      "inputs": [],
      "name": "swapRouter",
      "outputs": [
        {
          "internalType": "contract ISwapRouter",
          "name": "",
          "type": "address"
        }
      ],
      "stateMutability": "view",
      "type": "function"
    }
  ],
  "bytecode": "0x60a06040523480156200001157600080fd5b50604051620012a4380380620012a483398181016040528101906200003791906200008c565b8073ffffffffffffffffffffffffffffffffffffffff1660808173ffffffffffffffffffffffffffffffffffffffff1660601b81525050506200011a565b600081519050620000868162000100565b92915050565b6000602082840312156200009f57600080fd5b6000620000af8482850162000075565b91505092915050565b6000620000c582620000e0565b9050919050565b6000620000d982620000b8565b9050919050565b600073ffffffffffffffffffffffffffffffffffffffff82169050919050565b6200010b81620000cc565b81146200011757600080fd5b50565b60805160601c61115362000151600039806101d252806102c6528061039152806103ef52806104e252806105af52506111536000f3fe608060405234801561001057600080fd5b506004361061007d5760003560e01c806389a302711161005b57806389a30271146100ee578063c31c9c071461010c578063c4b69a181461012a578063e0bab4c41461015a5761007d565b8063089fe6aa146100825780634aa4a4fc146100a057806373bd43ad146100be575b600080fd5b61008a610178565b6040516100979190611061565b60405180910390f35b6100a861017e565b6040516100b59190610ff3565b60405180910390f35b6100d860048036038101906100d39190610da9565b610196565b6040516100e5919061107c565b60405180910390f35b6100f6610377565b6040516101039190610ff3565b60405180910390f35b61011461038f565b604051610121919061100e565b60405180910390f35b610144600480360381019061013f9190610dfb565b6103b3565b604051610151919061107c565b60405180910390f35b6101626105fe565b60405161016f9190610ff3565b60405180910390f35b610bb881565b73c02aaa39b223fe8d0a0e5c4f27ead9083c756cc281565b60006101b8736b175474e89094c44da98b954eedeac495271d0f333085610616565b6101f7736b175474e89094c44da98b954eedeac495271d0f7f000000000000000000000000000000000000000000000000000000000000000084610837565b6101ff610c3b565b604051806101000160405280736b175474e89094c44da98b954eedeac495271d0f73ffffffffffffffffffffffffffffffffffffffff16815260200173c02aaa39b223fe8d0a0e5c4f27ead9083c756cc273ffffffffffffffffffffffffffffffffffffffff168152602001610bb862ffffff1681526020013373ffffffffffffffffffffffffffffffffffffffff16815260200142815260200184815260200160008152602001600073ffffffffffffffffffffffffffffffffffffffff1681525090507f000000000000000000000000000000000000000000000000000000000000000073ffffffffffffffffffffffffffffffffffffffff1663414bf389826040518263ffffffff1660e01b815260040161031d9190611029565b602060405180830381600087803b15801561033757600080fd5b505af115801561034b573d6000803e3d6000fd5b505050506040513d601f19601f8201168201806040525081019061036f9190610dd2565b915050919050565b73a0b86991c6218b36c1d19d4a2e9eb0ce3606eb4881565b7f000000000000000000000000000000000000000000000000000000000000000081565b60006103d5736b175474e89094c44da98b954eedeac495271d0f333085610616565b610414736b175474e89094c44da98b954eedeac495271d0f7f000000000000000000000000000000000000000000000000000000000000000084610837565b61041c610cdd565b604051806101000160405280736b175474e89094c44da98b954eedeac495271d0f73ffffffffffffffffffffffffffffffffffffffff16815260200173c02aaa39b223fe8d0a0e5c4f27ead9083c756cc273ffffffffffffffffffffffffffffffffffffffff168152602001610bb862ffffff1681526020013373ffffffffffffffffffffffffffffffffffffffff168152602001428152602001858152602001848152602001600073ffffffffffffffffffffffffffffffffffffffff1681525090507f000000000000000000000000000000000000000000000000000000000000000073ffffffffffffffffffffffffffffffffffffffff1663db3e2198826040518263ffffffff1660e01b81526004016105399190611045565b602060405180830381600087803b15801561055357600080fd5b505af1158015610567573d6000803e3d6000fd5b505050506040513d601f19601f8201168201806040525081019061058b9190610dd2565b9150828210156105f7576105d5736b175474e89094c44da98b954eedeac495271d0f7f00000000000000000000000000000000000000000000000000000000000000006000610837565b6105f6736b175474e89094c44da98b954eedeac495271d0f33848603610a39565b5b5092915050565b736b175474e89094c44da98b954eedeac495271d0f81565b600060608573ffffffffffffffffffffffffffffffffffffffff166323b872dd60e01b868686604051602401808473ffffffffffffffffffffffffffffffffffffffff1681526020018373ffffffffffffffffffffffffffffffffffffffff1681526020018281526020019350505050604051602081830303815290604052907bffffffffffffffffffffffffffffffffffffffffffffffffffffffff19166020820180517bffffffffffffffffffffffffffffffffffffffffffffffffffffffff83818316178352505050506040518082805190602001908083835b6020831061071657805182526020820191506020810190506020830392506106f3565b6001836020036101000a0380198251168184511680821785525050505050509050019150506000604051808303816000865af19150503d8060008114610778576040519150601f19603f3d011682016040523d82523d6000602084013e61077d565b606091505b50915091508180156107bd57506000815114806107bc57508080602001905160208110156107aa57600080fd5b81019080805190602001909291905050505b5b61082f576040517f08c379a00000000000000000000000000000000000000000000000000000000081526004018080602001828103825260038152602001807f535446000000000000000000000000000000000000000000000000000000000081525060200191505060405180910390fd5b505050505050565b600060608473ffffffffffffffffffffffffffffffffffffffff1663095ea7b360e01b8585604051602401808373ffffffffffffffffffffffffffffffffffffffff16815260200182815260200192505050604051602081830303815290604052907bffffffffffffffffffffffffffffffffffffffffffffffffffffffff19166020820180517bffffffffffffffffffffffffffffffffffffffffffffffffffffffff83818316178352505050506040518082805190602001908083835b6020831061091957805182526020820191506020810190506020830392506108f6565b6001836020036101000a0380198251168184511680821785525050505050509050019150506000604051808303816000865af19150503d806000811461097b576040519150601f19603f3d011682016040523d82523d6000602084013e610980565b606091505b50915091508180156109c057506000815114806109bf57508080602001905160208110156109ad57600080fd5b81019080805190602001909291905050505b5b610a32576040517f08c379a00000000000000000000000000000000000000000000000000000000081526004018080602001828103825260028152602001807f534100000000000000000000000000000000000000000000000000000000000081525060200191505060405180910390fd5b5050505050565b600060608473ffffffffffffffffffffffffffffffffffffffff1663a9059cbb60e01b8585604051602401808373ffffffffffffffffffffffffffffffffffffffff16815260200182815260200192505050604051602081830303815290604052907bffffffffffffffffffffffffffffffffffffffffffffffffffffffff19166020820180517bffffffffffffffffffffffffffffffffffffffffffffffffffffffff83818316178352505050506040518082805190602001908083835b60208310610b1b5780518252602082019150602081019050602083039250610af8565b6001836020036101000a0380198251168184511680821785525050505050509050019150506000604051808303816000865af19150503d8060008114610b7d576040519150601f19603f3d011682016040523d82523d6000602084013e610b82565b606091505b5091509150818015610bc25750600081511480610bc15750808060200190516020811015610baf57600080fd5b81019080805190602001909291905050505b5b610c34576040517f08c379a00000000000000000000000000000000000000000000000000000000081526004018080602001828103825260028152602001807f535400000000000000000000000000000000000000000000000000000000000081525060200191505060405180910390fd5b5050505050565b604051806101000160405280600073ffffffffffffffffffffffffffffffffffffffff168152602001600073ffffffffffffffffffffffffffffffffffffffff168152602001600062ffffff168152602001600073ffffffffffffffffffffffffffffffffffffffff168152602001600081526020016000815260200160008152602001600073ffffffffffffffffffffffffffffffffffffffff1681525090565b604051806101000160405280600073ffffffffffffffffffffffffffffffffffffffff168152602001600073ffffffffffffffffffffffffffffffffffffffff168152602001600062ffffff168152602001600073ffffffffffffffffffffffffffffffffffffffff168152602001600081526020016000815260200160008152602001600073ffffffffffffffffffffffffffffffffffffffff1681525090565b600081359050610d8e81611106565b92915050565b600081519050610da381611106565b92915050565b600060208284031215610dbb57600080fd5b6000610dc984828501610d7f565b91505092915050565b600060208284031215610de457600080fd5b6000610df284828501610d94565b91505092915050565b60008060408385031215610e0e57600080fd5b6000610e1c85828601610d7f565b9250506020610e2d85828601610d7f565b9150509250929050565b610e4081611097565b82525050565b610e4f81611097565b82525050565b610e5e816110e2565b82525050565b61010082016000820151610e7b6000850182610e37565b506020820151610e8e6020850182610e37565b506040820151610ea16040850182610fb7565b506060820151610eb46060850182610e37565b506080820151610ec76080850182610fd5565b5060a0820151610eda60a0850182610fd5565b5060c0820151610eed60c0850182610fd5565b5060e0820151610f0060e0850182610fa8565b50505050565b61010082016000820151610f1d6000850182610e37565b506020820151610f306020850182610e37565b506040820151610f436040850182610fb7565b506060820151610f566060850182610e37565b506080820151610f696080850182610fd5565b5060a0820151610f7c60a0850182610fd5565b5060c0820151610f8f60c0850182610fd5565b5060e0820151610fa260e0850182610fa8565b50505050565b610fb1816110a9565b82525050565b610fc0816110c9565b82525050565b610fcf816110c9565b82525050565b610fde816110d8565b82525050565b610fed816110d8565b82525050565b60006020820190506110086000830184610e46565b92915050565b60006020820190506110236000830184610e55565b92915050565b60006101008201905061103f6000830184610e64565b92915050565b60006101008201905061105b6000830184610f06565b92915050565b60006020820190506110766000830184610fc6565b92915050565b60006020820190506110916000830184610fe4565b92915050565b60006110a2826110a9565b9050919050565b600073ffffffffffffffffffffffffffffffffffffffff82169050919050565b600062ffffff82169050919050565b6000819050919050565b60006110ed826110f4565b9050919050565b60006110ff826110a9565b9050919050565b61110f816110d8565b811461111a57600080fd5b5056fea2646970667358221220e530ce86b9c0f25413e5fc5eda5ec45e98c1d73f5e37d1a4b7a4a878791684f264736f6c63430007050033",
  "linkReferences": {},
  "deployedLinkReferences": {}
}