{
  "_format": "hh-sol-artifact-1",
  "contractName": "UniSwapSingleSwap",
  "sourceName": "contracts/UniSwapSingleSwap.sol",
  "abi": [
    {
      "inputs": [
        {
          "internalType": "contract ISwapRouter",
          "name": "_swapRouter",
          "type": "address"
        }
      ],
      "stateMutability": "nonpayable",
      "type": "constructor"
    },
    {
      "inputs": [
        {
          "internalType": "uint256",
          "name": "amountIn",
          "type": "uint256"
        },
        {
          "internalType": "uint256",
          "name": "amountOutMinimum",
          "type": "uint256"
        },
        {
          "internalType": "address",
          "name": "token0",
          "type": "address"
        },
        {
          "internalType": "address",
          "name": "token1",
          "type": "address"
        },
        {
          "internalType": "uint24",
          "name": "poolFee",
          "type": "uint24"
        }
      ],
      "name": "swapExactInputSingle",
      "outputs": [
        {
          "internalType": "uint256",
          "name": "amountOut",
          "type": "uint256"
        }
      ],
      "stateMutability": "nonpayable",
      "type": "function"
    },
    {
      "inputs": [],
      "name": "swapRouter",
      "outputs": [
        {
          "internalType": "contract ISwapRouter",
          "name": "",
          "type": "address"
        }
      ],
      "stateMutability": "view",
      "type": "function"
    }
  ],
  "bytecode": "0x60a060405234801561001057600080fd5b50604051610b5d380380610b5d83398181016040528101906100329190610084565b8073ffffffffffffffffffffffffffffffffffffffff1660808173ffffffffffffffffffffffffffffffffffffffff1660601b8152505050610108565b60008151905061007e816100f1565b92915050565b60006020828403121561009657600080fd5b60006100a48482850161006f565b91505092915050565b60006100b8826100d1565b9050919050565b60006100ca826100ad565b9050919050565b600073ffffffffffffffffffffffffffffffffffffffff82169050919050565b6100fa816100bf565b811461010557600080fd5b50565b60805160601c610a3061012d60003980608b528060c1528061018a5250610a306000f3fe608060405234801561001057600080fd5b50600436106100365760003560e01c8063c31c9c071461003b578063d3b2a39914610059575b600080fd5b610043610089565b60405161005091906108f4565b60405180910390f35b610073600480360381019061006e9190610781565b6100ad565b604051610080919061092b565b60405180910390f35b7f000000000000000000000000000000000000000000000000000000000000000081565b60006100bb8433308961023f565b6100e6847f000000000000000000000000000000000000000000000000000000000000000088610460565b6100ee610662565b6040518061010001604052808673ffffffffffffffffffffffffffffffffffffffff1681526020018573ffffffffffffffffffffffffffffffffffffffff1681526020018462ffffff1681526020013373ffffffffffffffffffffffffffffffffffffffff168152602001428152602001888152602001878152602001600073ffffffffffffffffffffffffffffffffffffffff1681525090507f000000000000000000000000000000000000000000000000000000000000000073ffffffffffffffffffffffffffffffffffffffff1663414bf389826040518263ffffffff1660e01b81526004016101e1919061090f565b602060405180830381600087803b1580156101fb57600080fd5b505af115801561020f573d6000803e3d6000fd5b505050506040513d601f19601f820116820180604052508101906102339190610758565b91505095945050505050565b600060608573ffffffffffffffffffffffffffffffffffffffff166323b872dd60e01b868686604051602401808473ffffffffffffffffffffffffffffffffffffffff1681526020018373ffffffffffffffffffffffffffffffffffffffff1681526020018281526020019350505050604051602081830303815290604052907bffffffffffffffffffffffffffffffffffffffffffffffffffffffff19166020820180517bffffffffffffffffffffffffffffffffffffffffffffffffffffffff83818316178352505050506040518082805190602001908083835b6020831061033f578051825260208201915060208101905060208303925061031c565b6001836020036101000a0380198251168184511680821785525050505050509050019150506000604051808303816000865af19150503d80600081146103a1576040519150601f19603f3d011682016040523d82523d6000602084013e6103a6565b606091505b50915091508180156103e657506000815114806103e557508080602001905160208110156103d357600080fd5b81019080805190602001909291905050505b5b610458576040517f08c379a00000000000000000000000000000000000000000000000000000000081526004018080602001828103825260038152602001807f535446000000000000000000000000000000000000000000000000000000000081525060200191505060405180910390fd5b505050505050565b600060608473ffffffffffffffffffffffffffffffffffffffff1663095ea7b360e01b8585604051602401808373ffffffffffffffffffffffffffffffffffffffff16815260200182815260200192505050604051602081830303815290604052907bffffffffffffffffffffffffffffffffffffffffffffffffffffffff19166020820180517bffffffffffffffffffffffffffffffffffffffffffffffffffffffff83818316178352505050506040518082805190602001908083835b60208310610542578051825260208201915060208101905060208303925061051f565b6001836020036101000a0380198251168184511680821785525050505050509050019150506000604051808303816000865af19150503d80600081146105a4576040519150601f19603f3d011682016040523d82523d6000602084013e6105a9565b606091505b50915091508180156105e957506000815114806105e857508080602001905160208110156105d657600080fd5b81019080805190602001909291905050505b5b61065b576040517f08c379a00000000000000000000000000000000000000000000000000000000081526004018080602001828103825260028152602001807f534100000000000000000000000000000000000000000000000000000000000081525060200191505060405180910390fd5b5050505050565b604051806101000160405280600073ffffffffffffffffffffffffffffffffffffffff168152602001600073ffffffffffffffffffffffffffffffffffffffff168152602001600062ffffff168152602001600073ffffffffffffffffffffffffffffffffffffffff168152602001600081526020016000815260200160008152602001600073ffffffffffffffffffffffffffffffffffffffff1681525090565b600081359050610713816109b5565b92915050565b600081359050610728816109cc565b92915050565b60008135905061073d816109e3565b92915050565b600081519050610752816109e3565b92915050565b60006020828403121561076a57600080fd5b600061077884828501610743565b91505092915050565b600080600080600060a0868803121561079957600080fd5b60006107a78882890161072e565b95505060206107b88882890161072e565b94505060406107c988828901610704565b93505060606107da88828901610704565b92505060806107eb88828901610719565b9150509295509295909350565b61080181610946565b82525050565b61081081610991565b82525050565b6101008201600082015161082d60008501826107f8565b50602082015161084060208501826107f8565b50604082015161085360408501826108c7565b50606082015161086660608501826107f8565b50608082015161087960808501826108d6565b5060a082015161088c60a08501826108d6565b5060c082015161089f60c08501826108d6565b5060e08201516108b260e08501826108b8565b50505050565b6108c181610958565b82525050565b6108d081610978565b82525050565b6108df81610987565b82525050565b6108ee81610987565b82525050565b60006020820190506109096000830184610807565b92915050565b6000610100820190506109256000830184610816565b92915050565b600060208201905061094060008301846108e5565b92915050565b600061095182610958565b9050919050565b600073ffffffffffffffffffffffffffffffffffffffff82169050919050565b600062ffffff82169050919050565b6000819050919050565b600061099c826109a3565b9050919050565b60006109ae82610958565b9050919050565b6109be81610946565b81146109c957600080fd5b50565b6109d581610978565b81146109e057600080fd5b50565b6109ec81610987565b81146109f757600080fd5b5056fea2646970667358221220b75ff5ada3968af077c2408722fbb1e3339db9340a2d1f87e8199f1e747d858b64736f6c63430007050033",
  "linkReferences": {},
  "deployedLinkReferences": {}
}