{
  "_format": "hh-sol-artifact-1",
  "contractName": "UniSwapSingleSwap",
  "sourceName": "contracts/UniSwapSingleSwap.sol",
  "abi": [
    {
      "inputs": [
        {
          "internalType": "contract ISwapRouter",
          "name": "_swapRouter",
          "type": "address"
        }
      ],
      "stateMutability": "nonpayable",
      "type": "constructor"
    },
    {
      "inputs": [
        {
          "internalType": "uint256",
          "name": "amountIn",
          "type": "uint256"
        },
        {
          "internalType": "uint256",
          "name": "amountOutMinimum",
          "type": "uint256"
        },
        {
          "internalType": "address",
          "name": "token0",
          "type": "address"
        },
        {
          "internalType": "address",
          "name": "token1",
          "type": "address"
        },
        {
          "internalType": "uint24",
          "name": "poolFee",
          "type": "uint24"
        }
      ],
      "name": "swapExactInputSingle",
      "outputs": [
        {
          "internalType": "uint256",
          "name": "amountOut",
          "type": "uint256"
        }
      ],
      "stateMutability": "nonpayable",
      "type": "function"
    },
    {
      "inputs": [],
      "name": "swapRouter",
      "outputs": [
        {
          "internalType": "contract ISwapRouter",
          "name": "",
          "type": "address"
        }
      ],
      "stateMutability": "view",
      "type": "function"
    }
  ],
  "bytecode": "0x60a060405234801561001057600080fd5b50604051610b8e380380610b8e83398181016040528101906100329190610084565b8073ffffffffffffffffffffffffffffffffffffffff1660808173ffffffffffffffffffffffffffffffffffffffff1660601b8152505050610108565b60008151905061007e816100f1565b92915050565b60006020828403121561009657600080fd5b60006100a48482850161006f565b91505092915050565b60006100b8826100d1565b9050919050565b60006100ca826100ad565b9050919050565b600073ffffffffffffffffffffffffffffffffffffffff82169050919050565b6100fa816100bf565b811461010557600080fd5b50565b60805160601c610a5c61013260003960008181608b0152818160c101526101840152610a5c6000f3fe608060405234801561001057600080fd5b50600436106100365760003560e01c8063c31c9c071461003b578063d3b2a39914610059575b600080fd5b610043610089565b6040516100509190610811565b60405180910390f35b610073600480360381019061006e91906105a1565b6100ad565b6040516100809190610888565b60405180910390f35b7f000000000000000000000000000000000000000000000000000000000000000081565b60006100bb84333089610239565b6100e6847f000000000000000000000000000000000000000000000000000000000000000088610391565b60006040518061010001604052808673ffffffffffffffffffffffffffffffffffffffff1681526020018573ffffffffffffffffffffffffffffffffffffffff1681526020018462ffffff1681526020013373ffffffffffffffffffffffffffffffffffffffff168152602001428152602001888152602001878152602001600073ffffffffffffffffffffffffffffffffffffffff1681525090507f000000000000000000000000000000000000000000000000000000000000000073ffffffffffffffffffffffffffffffffffffffff1663414bf389826040518263ffffffff1660e01b81526004016101db919061086c565b602060405180830381600087803b1580156101f557600080fd5b505af1158015610209573d6000803e3d6000fd5b505050506040513d601f19601f8201168201806040525081019061022d9190610578565b91505095945050505050565b6000808573ffffffffffffffffffffffffffffffffffffffff166323b872dd60e01b868686604051602401610270939291906107b1565b604051602081830303815290604052907bffffffffffffffffffffffffffffffffffffffffffffffffffffffff19166020820180517bffffffffffffffffffffffffffffffffffffffffffffffffffffffff83818316178352505050506040516102da919061079a565b6000604051808303816000865af19150503d8060008114610317576040519150601f19603f3d011682016040523d82523d6000602084013e61031c565b606091505b509150915081801561034a5750600081511480610349575080806020019051810190610348919061054f565b5b5b610389576040517f08c379a00000000000000000000000000000000000000000000000000000000081526004016103809061084c565b60405180910390fd5b505050505050565b6000808473ffffffffffffffffffffffffffffffffffffffff1663095ea7b360e01b85856040516024016103c69291906107e8565b604051602081830303815290604052907bffffffffffffffffffffffffffffffffffffffffffffffffffffffff19166020820180517bffffffffffffffffffffffffffffffffffffffffffffffffffffffff8381831617835250505050604051610430919061079a565b6000604051808303816000865af19150503d806000811461046d576040519150601f19603f3d011682016040523d82523d6000602084013e610472565b606091505b50915091508180156104a0575060008151148061049f57508080602001905181019061049e919061054f565b5b5b6104df576040517f08c379a00000000000000000000000000000000000000000000000000000000081526004016104d69061082c565b60405180910390fd5b5050505050565b6000813590506104f5816109ca565b92915050565b60008151905061050a816109e1565b92915050565b60008135905061051f816109f8565b92915050565b60008135905061053481610a0f565b92915050565b60008151905061054981610a0f565b92915050565b60006020828403121561056157600080fd5b600061056f848285016104fb565b91505092915050565b60006020828403121561058a57600080fd5b60006105988482850161053a565b91505092915050565b600080600080600060a086880312156105b957600080fd5b60006105c788828901610525565b95505060206105d888828901610525565b94505060406105e9888289016104e6565b93505060606105fa888289016104e6565b925050608061060b88828901610510565b9150509295509295909350565b610621816108ca565b82525050565b610630816108ca565b82525050565b6000610641826108a3565b61064b81856108ae565b935061065b818560208601610945565b80840191505092915050565b61067081610921565b82525050565b60006106836002836108b9565b915061068e82610978565b602082019050919050565b60006106a66003836108b9565b91506106b1826109a1565b602082019050919050565b610100820160008201516106d36000850182610618565b5060208201516106e66020850182610618565b5060408201516106f9604085018261076d565b50606082015161070c6060850182610618565b50608082015161071f608085018261077c565b5060a082015161073260a085018261077c565b5060c082015161074560c085018261077c565b5060e082015161075860e085018261075e565b50505050565b610767816108e8565b82525050565b61077681610908565b82525050565b61078581610917565b82525050565b61079481610917565b82525050565b60006107a68284610636565b915081905092915050565b60006060820190506107c66000830186610627565b6107d36020830185610627565b6107e0604083018461078b565b949350505050565b60006040820190506107fd6000830185610627565b61080a602083018461078b565b9392505050565b60006020820190506108266000830184610667565b92915050565b6000602082019050818103600083015261084581610676565b9050919050565b6000602082019050818103600083015261086581610699565b9050919050565b60006101008201905061088260008301846106bc565b92915050565b600060208201905061089d600083018461078b565b92915050565b600081519050919050565b600081905092915050565b600082825260208201905092915050565b60006108d5826108e8565b9050919050565b60008115159050919050565b600073ffffffffffffffffffffffffffffffffffffffff82169050919050565b600062ffffff82169050919050565b6000819050919050565b600061092c82610933565b9050919050565b600061093e826108e8565b9050919050565b60005b83811015610963578082015181840152602081019050610948565b83811115610972576000848401525b50505050565b7f5341000000000000000000000000000000000000000000000000000000000000600082015250565b7f5354460000000000000000000000000000000000000000000000000000000000600082015250565b6109d3816108ca565b81146109de57600080fd5b50565b6109ea816108dc565b81146109f557600080fd5b50565b610a0181610908565b8114610a0c57600080fd5b50565b610a1881610917565b8114610a2357600080fd5b5056fea2646970667358221220fffee3b0c2107f1a3d71cea7f9d8654d2c066273bb62f4ae600b35865a3a0a3164736f6c63430008010033",
  "linkReferences": {},
  "deployedLinkReferences": {}
}