{
  "_format": "hh-sol-artifact-1",
  "contractName": "AaveFlashLoan",
  "sourceName": "contracts/aaveV2/AaveFlashLoan.sol",
  "abi": [
    {
      "inputs": [
        {
          "internalType": "contract ILendingPoolAddressesProvider",
          "name": "_addressProvider",
          "type": "address"
        },
        {
          "internalType": "contract ISwapRouter",
          "name": "_uniSwapRouter",
          "type": "address"
        },
        {
          "internalType": "contract IUniswapV2Router02",
          "name": "_sushiRouter",
          "type": "address"
        }
      ],
      "stateMutability": "nonpayable",
      "type": "constructor"
    },
    {
      "inputs": [],
      "name": "ADDRESSES_PROVIDER",
      "outputs": [
        {
          "internalType": "contract ILendingPoolAddressesProvider",
          "name": "",
          "type": "address"
        }
      ],
      "stateMutability": "view",
      "type": "function"
    },
    {
      "inputs": [],
      "name": "LENDING_POOL",
      "outputs": [
        {
          "internalType": "contract ILendingPool",
          "name": "",
          "type": "address"
        }
      ],
      "stateMutability": "view",
      "type": "function"
    },
    {
      "inputs": [
        {
          "internalType": "address[]",
          "name": "assets",
          "type": "address[]"
        },
        {
          "internalType": "uint256[]",
          "name": "amounts",
          "type": "uint256[]"
        },
        {
          "internalType": "uint256[]",
          "name": "premiums",
          "type": "uint256[]"
        },
        {
          "internalType": "address",
          "name": "initiator",
          "type": "address"
        },
        {
          "internalType": "bytes",
          "name": "params",
          "type": "bytes"
        }
      ],
      "name": "executeOperation",
      "outputs": [
        {
          "internalType": "bool",
          "name": "",
          "type": "bool"
        }
      ],
      "stateMutability": "nonpayable",
      "type": "function"
    },
    {
      "inputs": [
        {
          "internalType": "address",
          "name": "token0",
          "type": "address"
        },
        {
          "internalType": "address",
          "name": "token1",
          "type": "address"
        },
        {
          "internalType": "uint8",
          "name": "direction",
          "type": "uint8"
        },
        {
          "internalType": "uint24",
          "name": "poolFee",
          "type": "uint24"
        },
        {
          "internalType": "uint256",
          "name": "amountIn",
          "type": "uint256"
        },
        {
          "internalType": "uint256",
          "name": "amountOut",
          "type": "uint256"
        },
        {
          "internalType": "uint256",
          "name": "deadline",
          "type": "uint256"
        }
      ],
      "name": "myFlashLoanCall",
      "outputs": [],
      "stateMutability": "nonpayable",
      "type": "function"
    },
    {
      "inputs": [],
      "name": "owner",
      "outputs": [
        {
          "internalType": "address",
          "name": "",
          "type": "address"
        }
      ],
      "stateMutability": "view",
      "type": "function"
    },
    {
      "inputs": [
        {
          "internalType": "address",
          "name": "newOwner",
          "type": "address"
        }
      ],
      "name": "transferOwnership",
      "outputs": [],
      "stateMutability": "nonpayable",
      "type": "function"
    },
    {
      "inputs": [
        {
          "internalType": "address",
          "name": "token",
          "type": "address"
        }
      ],
      "name": "withdrawERC20Token",
      "outputs": [
        {
          "internalType": "uint256",
          "name": "currentAmount",
          "type": "uint256"
        }
      ],
      "stateMutability": "nonpayable",
      "type": "function"
    }
  ],
  "bytecode": "0x6101006040523480156200001257600080fd5b506040516200137938038062001379833981016040819052620000359162000100565b82806001600160a01b03166080816001600160a01b031681525050806001600160a01b0316630261bf8b6040518163ffffffff1660e01b8152600401602060405180830381865afa1580156200008f573d6000803e3d6000fd5b505050506040513d601f19601f82011682018060405250810190620000b5919062000154565b6001600160a01b0390811660a052600080546001600160a01b0319163317905592831660c052501660e052506200017b565b6001600160a01b0381168114620000fd57600080fd5b50565b6000806000606084860312156200011657600080fd5b83516200012381620000e7565b60208501519093506200013681620000e7565b60408501519092506200014981620000e7565b809150509250925092565b6000602082840312156200016757600080fd5b81516200017481620000e7565b9392505050565b60805160a05160c05160e0516111a9620001d060003960008181610b6b0152610bc00152600081816109e90152610ace0152600081816101220152818161032201526104f101526000608701526111a96000f3fe608060405234801561001057600080fd5b506004361061007d5760003560e01c8063920f5c841161005b578063920f5c84146100fa578063b4dcfc771461011d578063c2d2220714610144578063f2fde38b1461015957600080fd5b80630542975c146100825780633bdebbe1146100c65780638da5cb5b146100e7575b600080fd5b6100a97f000000000000000000000000000000000000000000000000000000000000000081565b6040516001600160a01b0390911681526020015b60405180910390f35b6100d96100d4366004610c65565b61016c565b6040519081526020016100bd565b6000546100a9906001600160a01b031681565b61010d610108366004610cd5565b61029f565b60405190151581526020016100bd565b6100a97f000000000000000000000000000000000000000000000000000000000000000081565b610157610152366004610dfe565b61036b565b005b610157610167366004610c65565b610574565b600080546001600160a01b0316331461018457600080fd5b6040517f70a082310000000000000000000000000000000000000000000000000000000081523060048201526001600160a01b038316906370a0823190602401602060405180830381865afa1580156101e1573d6000803e3d6000fd5b505050506040513d601f19601f820116820180604052508101906102059190610e71565b9050600081116102825760405162461bcd60e51b815260206004820152603060248201527f436f6e747261637420646f6573206e6f742068617665207468652070726f766960448201527f64656420455243323020746f6b656e2e0000000000000000000000000000000060648201526084015b60405180910390fd5b60005461029a9083906001600160a01b0316836105c5565b919050565b60006102ab838361070e565b60005b8981101561035a5760008787838181106102ca576102ca610e8a565b905060200201358a8a848181106102e3576102e3610e8a565b905060200201356102f49190610eb6565b90506103478c8c8481811061030b5761030b610e8a565b90506020020160208101906103209190610c65565b7f00000000000000000000000000000000000000000000000000000000000000008361089f565b508061035281610ece565b9150506102ae565b5060019a9950505050505050505050565b6000546001600160a01b0316331461038257600080fd5b6040805160018082528183019092523091600091906020808301908036833701905050905088816000815181106103bb576103bb610e8a565b6001600160a01b039290921660209283029190910190910152604080516001808252818301909252600091816020016020820280368337019050509050858160008151811061040c5761040c610e8a565b602090810291909101015260408051600180825281830190925260009181602001602082028036833701905050905060008160008151811061045057610450610e8a565b602090810291909101810191909152604080516001600160a01b03808f1693820193909352918c169082015260ff8a16606082015262ffffff8916608082015260a0810188905260c0810187905260e0810186905230906000906101000160408051601f19818403018152908290527fab9c4b5d00000000000000000000000000000000000000000000000000000000825291506000906001600160a01b037f0000000000000000000000000000000000000000000000000000000000000000169063ab9c4b5d90610532908a908a908a908a908a908a908a90600401610fa3565b600060405180830381600087803b15801561054c57600080fd5b505af1158015610560573d6000803e3d6000fd5b505050505050505050505050505050505050565b6000546001600160a01b0316331461058b57600080fd5b600080547fffffffffffffffffffffffff0000000000000000000000000000000000000000166001600160a01b0392909216919091179055565b604080516001600160a01b038481166024830152604480830185905283518084039091018152606490920183526020820180517bffffffffffffffffffffffffffffffffffffffffffffffffffffffff167fa9059cbb00000000000000000000000000000000000000000000000000000000179052915160009283929087169161064f919061103b565b6000604051808303816000865af19150503d806000811461068c576040519150601f19603f3d011682016040523d82523d6000602084013e610691565b606091505b50915091508180156106bb5750805115806106bb5750808060200190518101906106bb9190611057565b6107075760405162461bcd60e51b815260206004820152600260248201527f53540000000000000000000000000000000000000000000000000000000000006044820152606401610279565b5050505050565b6000808080808080610722888a018a610dfe565b604080516002808252606082018352989f50969d50949b5092995090975095509350600092906020830190803683370190505090508560ff16600114156107f057600061077285858b8b8a6109e1565b9050878260008151811061078857610788610e8a565b60200260200101906001600160a01b031690816001600160a01b03168152505088826001815181106107bc576107bc610e8a565b60200260200101906001600160a01b031690816001600160a01b0316815250506107e98160008486610b49565b5050610893565b878160008151811061080457610804610e8a565b60200260200101906001600160a01b031690816001600160a01b031681525050868160018151811061083857610838610e8a565b60200260200101906001600160a01b031690816001600160a01b031681525050600061086685858486610b49565b90506108908160018151811061087e5761087e610e8a565b602002602001015160008a8c8a6109e1565b50505b50505050505050505050565b604080516001600160a01b038481166024830152604480830185905283518084039091018152606490920183526020820180517bffffffffffffffffffffffffffffffffffffffffffffffffffffffff167f095ea7b3000000000000000000000000000000000000000000000000000000001790529151600092839290871691610929919061103b565b6000604051808303816000865af19150503d8060008114610966576040519150601f19603f3d011682016040523d82523d6000602084013e61096b565b606091505b50915091508180156109955750805115806109955750808060200190518101906109959190611057565b6107075760405162461bcd60e51b815260206004820152600260248201527f53410000000000000000000000000000000000000000000000000000000000006044820152606401610279565b6000610a0e847f00000000000000000000000000000000000000000000000000000000000000008861089f565b60408051610100810182526001600160a01b0386811682528581166020830190815262ffffff8681168486019081523060608601908152426080870190815260a087018e815260c088018e8152600060e08a0190815299517f414bf38900000000000000000000000000000000000000000000000000000000815289518916600482015296518816602488015293519094166044860152905185166064850152516084840152905160a48301525160c48201529251811660e484015290917f00000000000000000000000000000000000000000000000000000000000000009091169063414bf38990610104016020604051808303816000875af1158015610b1a573d6000803e3d6000fd5b505050506040513d601f19601f82011682018060405250810190610b3e9190610e71565b979650505050505050565b6060610b9083600081518110610b6157610b61610e8a565b60200260200101517f00000000000000000000000000000000000000000000000000000000000000008761089f565b6040517f38ed17390000000000000000000000000000000000000000000000000000000081526001600160a01b037f000000000000000000000000000000000000000000000000000000000000000016906338ed173990610bfd9088908890889030908990600401611079565b6000604051808303816000875af1158015610c1c573d6000803e3d6000fd5b505050506040513d6000823e601f3d908101601f19168201604052610c4491908101906110b5565b95945050505050565b6001600160a01b0381168114610c6257600080fd5b50565b600060208284031215610c7757600080fd5b8135610c8281610c4d565b9392505050565b60008083601f840112610c9b57600080fd5b50813567ffffffffffffffff811115610cb357600080fd5b6020830191508360208260051b8501011115610cce57600080fd5b9250929050565b600080600080600080600080600060a08a8c031215610cf357600080fd5b893567ffffffffffffffff80821115610d0b57600080fd5b610d178d838e01610c89565b909b50995060208c0135915080821115610d3057600080fd5b610d3c8d838e01610c89565b909950975060408c0135915080821115610d5557600080fd5b610d618d838e01610c89565b909750955060608c01359150610d7682610c4d565b90935060808b01359080821115610d8c57600080fd5b818c0191508c601f830112610da057600080fd5b813581811115610daf57600080fd5b8d6020828501011115610dc157600080fd5b6020830194508093505050509295985092959850929598565b803560ff8116811461029a57600080fd5b803562ffffff8116811461029a57600080fd5b600080600080600080600060e0888a031215610e1957600080fd5b8735610e2481610c4d565b96506020880135610e3481610c4d565b9550610e4260408901610dda565b9450610e5060608901610deb565b9699959850939660808101359560a0820135955060c0909101359350915050565b600060208284031215610e8357600080fd5b5051919050565b634e487b7160e01b600052603260045260246000fd5b634e487b7160e01b600052601160045260246000fd5b60008219821115610ec957610ec9610ea0565b500190565b6000600019821415610ee257610ee2610ea0565b5060010190565b634e487b7160e01b600052604160045260246000fd5b600081518084526020808501945080840160005b83811015610f385781516001600160a01b031687529582019590820190600101610f13565b509495945050505050565b600081518084526020808501945080840160005b83811015610f3857815187529582019590820190600101610f57565b60005b83811015610f8e578181015183820152602001610f76565b83811115610f9d576000848401525b50505050565b60006001600160a01b03808a16835260e06020840152610fc660e084018a610eff565b8381036040850152610fd8818a610f43565b90508381036060850152610fec8189610f43565b91871660808501525082810360a0840152845180825290611014826020808401908901610f73565b61ffff9490941660c0939093019290925250601f01601f1916016020019695505050505050565b6000825161104d818460208701610f73565b9190910192915050565b60006020828403121561106957600080fd5b81518015158114610c8257600080fd5b85815284602082015260a06040820152600061109860a0830186610eff565b6001600160a01b0394909416606083015250608001529392505050565b600060208083850312156110c857600080fd5b825167ffffffffffffffff808211156110e057600080fd5b818501915085601f8301126110f457600080fd5b81518181111561110657611106610ee9565b8060051b604051601f19603f8301168101818110858211171561112b5761112b610ee9565b60405291825284820192508381018501918883111561114957600080fd5b938501935b828510156111675784518452938501939285019261114e565b9897505050505050505056fea26469706673582212204c4c7130a7cac66cc310e241c8d8566dcdb53d06b2560249615337168df31f4364736f6c634300080a0033",
  "linkReferences": {},
  "deployedLinkReferences": {}
}