{
  "_format": "hh-sol-artifact-1",
  "contractName": "SushiSwapSingleSwap",
  "sourceName": "contracts/SushiSwapSingleSwap.sol",
  "abi": [
    {
      "inputs": [
        {
          "internalType": "contract IUniswapV2Router02",
          "name": "_sushiRouter",
          "type": "address"
        }
      ],
      "stateMutability": "nonpayable",
      "type": "constructor"
    },
    {
      "inputs": [],
      "name": "sushiRouter",
      "outputs": [
        {
          "internalType": "contract IUniswapV2Router02",
          "name": "",
          "type": "address"
        }
      ],
      "stateMutability": "view",
      "type": "function"
    },
    {
      "inputs": [
        {
          "internalType": "uint256",
          "name": "amountIn",
          "type": "uint256"
        },
        {
          "internalType": "uint256",
          "name": "amountOutMin",
          "type": "uint256"
        },
        {
          "internalType": "address[]",
          "name": "path",
          "type": "address[]"
        },
        {
          "internalType": "address",
          "name": "to",
          "type": "address"
        },
        {
          "internalType": "uint256",
          "name": "deadline",
          "type": "uint256"
        }
      ],
      "name": "swapExactInputSingle",
      "outputs": [
        {
          "internalType": "uint256[]",
          "name": "amountOut",
          "type": "uint256[]"
        }
      ],
      "stateMutability": "nonpayable",
      "type": "function"
    }
  ],
  "bytecode": "0x60a060405234801561001057600080fd5b50604051610e4b380380610e4b83398181016040528101906100329190610084565b8073ffffffffffffffffffffffffffffffffffffffff1660808173ffffffffffffffffffffffffffffffffffffffff1660601b8152505050610108565b60008151905061007e816100f1565b92915050565b60006020828403121561009657600080fd5b60006100a48482850161006f565b91505092915050565b60006100b8826100d1565b9050919050565b60006100ca826100ad565b9050919050565b600073ffffffffffffffffffffffffffffffffffffffff82169050919050565b6100fa816100bf565b811461010557600080fd5b50565b60805160601c610d1861013360003960008181608b0152818161015d01526101840152610d186000f3fe608060405234801561001057600080fd5b50600436106100365760003560e01c80636d13582c1461003b578063d1b991f714610059575b600080fd5b610043610089565b6040516100509190610994565b60405180910390f35b610073600480360381019061006e91906106bc565b6100ad565b6040516100809190610972565b60405180910390f35b7f000000000000000000000000000000000000000000000000000000000000000081565b6060610109858560008181106100ec577f4e487b7100000000000000000000000000000000000000000000000000000000600052603260045260246000fd5b90506020020160208101906101019190610629565b33308a610248565b61018285856000818110610146577f4e487b7100000000000000000000000000000000000000000000000000000000600052603260045260246000fd5b905060200201602081019061015b9190610629565b7f0000000000000000000000000000000000000000000000000000000000000000896103a0565b7f000000000000000000000000000000000000000000000000000000000000000073ffffffffffffffffffffffffffffffffffffffff166338ed17398888888888886040518763ffffffff1660e01b81526004016101e5969594939291906109ef565b600060405180830381600087803b1580156101ff57600080fd5b505af1158015610213573d6000803e3d6000fd5b505050506040513d6000823e3d601f19601f8201168201806040525081019061023c9190610652565b90509695505050505050565b6000808573ffffffffffffffffffffffffffffffffffffffff166323b872dd60e01b86868660405160240161027f93929190610912565b604051602081830303815290604052907bffffffffffffffffffffffffffffffffffffffffffffffffffffffff19166020820180517bffffffffffffffffffffffffffffffffffffffffffffffffffffffff83818316178352505050506040516102e991906108fb565b6000604051808303816000865af19150503d8060008114610326576040519150601f19603f3d011682016040523d82523d6000602084013e61032b565b606091505b509150915081801561035957506000815114806103585750808060200190518101906103579190610693565b5b5b610398576040517f08c379a000000000000000000000000000000000000000000000000000000000815260040161038f906109cf565b60405180910390fd5b505050505050565b6000808473ffffffffffffffffffffffffffffffffffffffff1663095ea7b360e01b85856040516024016103d5929190610949565b604051602081830303815290604052907bffffffffffffffffffffffffffffffffffffffffffffffffffffffff19166020820180517bffffffffffffffffffffffffffffffffffffffffffffffffffffffff838183161783525050505060405161043f91906108fb565b6000604051808303816000865af19150503d806000811461047c576040519150601f19603f3d011682016040523d82523d6000602084013e610481565b606091505b50915091508180156104af57506000815114806104ae5750808060200190518101906104ad9190610693565b5b5b6104ee576040517f08c379a00000000000000000000000000000000000000000000000000000000081526004016104e5906109af565b60405180910390fd5b5050505050565b600061050861050384610a70565b610a4b565b9050808382526020820190508285602086028201111561052757600080fd5b60005b85811015610557578161053d8882610614565b84526020840193506020830192505060018101905061052a565b5050509392505050565b60008135905061057081610c9d565b92915050565b60008083601f84011261058857600080fd5b8235905067ffffffffffffffff8111156105a157600080fd5b6020830191508360208202830111156105b957600080fd5b9250929050565b600082601f8301126105d157600080fd5b81516105e18482602086016104f5565b91505092915050565b6000815190506105f981610cb4565b92915050565b60008135905061060e81610ccb565b92915050565b60008151905061062381610ccb565b92915050565b60006020828403121561063b57600080fd5b600061064984828501610561565b91505092915050565b60006020828403121561066457600080fd5b600082015167ffffffffffffffff81111561067e57600080fd5b61068a848285016105c0565b91505092915050565b6000602082840312156106a557600080fd5b60006106b3848285016105ea565b91505092915050565b60008060008060008060a087890312156106d557600080fd5b60006106e389828a016105ff565b96505060206106f489828a016105ff565b955050604087013567ffffffffffffffff81111561071157600080fd5b61071d89828a01610576565b9450945050606061073089828a01610561565b925050608061074189828a016105ff565b9150509295509295509295565b600061075a838361077e565b60208301905092915050565b600061077283836108dd565b60208301905092915050565b61078781610b3b565b82525050565b61079681610b3b565b82525050565b60006107a88385610ae6565b93506107b382610a9c565b8060005b858110156107ec576107c98284610b24565b6107d3888261074e565b97506107de83610acc565b9250506001810190506107b7565b5085925050509392505050565b600061080482610ab6565b61080e8185610af7565b935061081983610aa6565b8060005b8381101561084a5781516108318882610766565b975061083c83610ad9565b92505060018101905061081d565b5085935050505092915050565b600061086282610ac1565b61086c8185610b08565b935061087c818560208601610ba7565b80840191505092915050565b61089181610b83565b82525050565b60006108a4600283610b13565b91506108af82610c4b565b602082019050919050565b60006108c7600383610b13565b91506108d282610c74565b602082019050919050565b6108e681610b79565b82525050565b6108f581610b79565b82525050565b60006109078284610857565b915081905092915050565b6000606082019050610927600083018661078d565b610934602083018561078d565b61094160408301846108ec565b949350505050565b600060408201905061095e600083018561078d565b61096b60208301846108ec565b9392505050565b6000602082019050818103600083015261098c81846107f9565b905092915050565b60006020820190506109a96000830184610888565b92915050565b600060208201905081810360008301526109c881610897565b9050919050565b600060208201905081810360008301526109e8816108ba565b9050919050565b600060a082019050610a0460008301896108ec565b610a1160208301886108ec565b8181036040830152610a2481868861079c565b9050610a33606083018561078d565b610a4060808301846108ec565b979650505050505050565b6000610a55610a66565b9050610a618282610bda565b919050565b6000604051905090565b600067ffffffffffffffff821115610a8b57610a8a610c0b565b5b602082029050602081019050919050565b6000819050919050565b6000819050602082019050919050565b600081519050919050565b600081519050919050565b6000602082019050919050565b6000602082019050919050565b600082825260208201905092915050565b600082825260208201905092915050565b600081905092915050565b600082825260208201905092915050565b6000610b336020840184610561565b905092915050565b6000610b4682610b59565b9050919050565b60008115159050919050565b600073ffffffffffffffffffffffffffffffffffffffff82169050919050565b6000819050919050565b6000610b8e82610b95565b9050919050565b6000610ba082610b59565b9050919050565b60005b83811015610bc5578082015181840152602081019050610baa565b83811115610bd4576000848401525b50505050565b610be382610c3a565b810181811067ffffffffffffffff82111715610c0257610c01610c0b565b5b80604052505050565b7f4e487b7100000000000000000000000000000000000000000000000000000000600052604160045260246000fd5b6000601f19601f8301169050919050565b7f5341000000000000000000000000000000000000000000000000000000000000600082015250565b7f5354460000000000000000000000000000000000000000000000000000000000600082015250565b610ca681610b3b565b8114610cb157600080fd5b50565b610cbd81610b4d565b8114610cc857600080fd5b50565b610cd481610b79565b8114610cdf57600080fd5b5056fea2646970667358221220d3a58b272fb487006996aa35f05de65b8d2be8f18e23b43cdb25a4918fb963a264736f6c63430008010033",
  "linkReferences": {},
  "deployedLinkReferences": {}
}