{
  "_format": "hh-sol-artifact-1",
  "contractName": "SushiSwapSingleSwap",
  "sourceName": "contracts/SushiSwapSingleSwap.sol",
  "abi": [
    {
      "inputs": [
        {
          "internalType": "contract IUniswapV2Router02",
          "name": "_sushiRouter",
          "type": "address"
        }
      ],
      "stateMutability": "nonpayable",
      "type": "constructor"
    },
    {
      "inputs": [],
      "name": "sushiRouter",
      "outputs": [
        {
          "internalType": "contract IUniswapV2Router02",
          "name": "",
          "type": "address"
        }
      ],
      "stateMutability": "view",
      "type": "function"
    },
    {
      "inputs": [
        {
          "internalType": "uint256",
          "name": "amountIn",
          "type": "uint256"
        },
        {
          "internalType": "uint256",
          "name": "amountOutMin",
          "type": "uint256"
        },
        {
          "internalType": "address[]",
          "name": "path",
          "type": "address[]"
        },
        {
          "internalType": "address",
          "name": "to",
          "type": "address"
        },
        {
          "internalType": "uint256",
          "name": "deadline",
          "type": "uint256"
        }
      ],
      "name": "swapExactInputSingle",
      "outputs": [
        {
          "internalType": "uint256[]",
          "name": "amountOut",
          "type": "uint256[]"
        }
      ],
      "stateMutability": "nonpayable",
      "type": "function"
    }
  ],
  "bytecode": "0x60a060405234801561001057600080fd5b5060405162000e8f38038062000e8f833981810160405281019061003491906100e3565b8073ffffffffffffffffffffffffffffffffffffffff1660808173ffffffffffffffffffffffffffffffffffffffff168152505050610110565b600080fd5b600073ffffffffffffffffffffffffffffffffffffffff82169050919050565b600061009e82610073565b9050919050565b60006100b082610093565b9050919050565b6100c0816100a5565b81146100cb57600080fd5b50565b6000815190506100dd816100b7565b92915050565b6000602082840312156100f9576100f861006e565b5b6000610107848285016100ce565b91505092915050565b608051610d566200013960003960008181608b0152818161011101526101380152610d566000f3fe608060405234801561001057600080fd5b50600436106100365760003560e01c80636d13582c1461003b578063d1b991f714610059575b600080fd5b610043610089565b6040516100509190610519565b60405180910390f35b610073600480360381019061006e9190610621565b6100ad565b6040516100809190610779565b60405180910390f35b7f000000000000000000000000000000000000000000000000000000000000000081565b60606100e3858560008181106100c6576100c561079b565b5b90506020020160208101906100db91906107ca565b33308a6101ed565b610136858560008181106100fa576100f961079b565b5b905060200201602081019061010f91906107ca565b7f000000000000000000000000000000000000000000000000000000000000000089610345565b7f000000000000000000000000000000000000000000000000000000000000000073ffffffffffffffffffffffffffffffffffffffff166338ed17398888888888886040518763ffffffff1660e01b8152600401610199969594939291906108d8565b6000604051808303816000875af11580156101b8573d6000803e3d6000fd5b505050506040513d6000823e3d601f19601f820116820180604052508101906101e19190610a98565b90509695505050505050565b6000808573ffffffffffffffffffffffffffffffffffffffff166323b872dd60e01b86868660405160240161022493929190610ae1565b604051602081830303815290604052907bffffffffffffffffffffffffffffffffffffffffffffffffffffffff19166020820180517bffffffffffffffffffffffffffffffffffffffffffffffffffffffff838183161783525050505060405161028e9190610b92565b6000604051808303816000865af19150503d80600081146102cb576040519150601f19603f3d011682016040523d82523d6000602084013e6102d0565b606091505b50915091508180156102fe57506000815114806102fd5750808060200190518101906102fc9190610be1565b5b5b61033d576040517f08c379a000000000000000000000000000000000000000000000000000000000815260040161033490610c6b565b60405180910390fd5b505050505050565b6000808473ffffffffffffffffffffffffffffffffffffffff1663095ea7b360e01b858560405160240161037a929190610c8b565b604051602081830303815290604052907bffffffffffffffffffffffffffffffffffffffffffffffffffffffff19166020820180517bffffffffffffffffffffffffffffffffffffffffffffffffffffffff83818316178352505050506040516103e49190610b92565b6000604051808303816000865af19150503d8060008114610421576040519150601f19603f3d011682016040523d82523d6000602084013e610426565b606091505b509150915081801561045457506000815114806104535750808060200190518101906104529190610be1565b5b5b610493576040517f08c379a000000000000000000000000000000000000000000000000000000000815260040161048a90610d00565b60405180910390fd5b5050505050565b600073ffffffffffffffffffffffffffffffffffffffff82169050919050565b6000819050919050565b60006104df6104da6104d58461049a565b6104ba565b61049a565b9050919050565b60006104f1826104c4565b9050919050565b6000610503826104e6565b9050919050565b610513816104f8565b82525050565b600060208201905061052e600083018461050a565b92915050565b6000604051905090565b600080fd5b600080fd5b6000819050919050565b61055b81610548565b811461056657600080fd5b50565b60008135905061057881610552565b92915050565b600080fd5b600080fd5b600080fd5b60008083601f8401126105a3576105a261057e565b5b8235905067ffffffffffffffff8111156105c0576105bf610583565b5b6020830191508360208202830111156105dc576105db610588565b5b9250929050565b60006105ee8261049a565b9050919050565b6105fe816105e3565b811461060957600080fd5b50565b60008135905061061b816105f5565b92915050565b60008060008060008060a0878903121561063e5761063d61053e565b5b600061064c89828a01610569565b965050602061065d89828a01610569565b955050604087013567ffffffffffffffff81111561067e5761067d610543565b5b61068a89828a0161058d565b9450945050606061069d89828a0161060c565b92505060806106ae89828a01610569565b9150509295509295509295565b600081519050919050565b600082825260208201905092915050565b6000819050602082019050919050565b6106f081610548565b82525050565b600061070283836106e7565b60208301905092915050565b6000602082019050919050565b6000610726826106bb565b61073081856106c6565b935061073b836106d7565b8060005b8381101561076c57815161075388826106f6565b975061075e8361070e565b92505060018101905061073f565b5085935050505092915050565b60006020820190508181036000830152610793818461071b565b905092915050565b7f4e487b7100000000000000000000000000000000000000000000000000000000600052603260045260246000fd5b6000602082840312156107e0576107df61053e565b5b60006107ee8482850161060c565b91505092915050565b61080081610548565b82525050565b600082825260208201905092915050565b6000819050919050565b61082a816105e3565b82525050565b600061083c8383610821565b60208301905092915050565b6000610857602084018461060c565b905092915050565b6000602082019050919050565b60006108788385610806565b935061088382610817565b8060005b858110156108bc576108998284610848565b6108a38882610830565b97506108ae8361085f565b925050600181019050610887565b5085925050509392505050565b6108d2816105e3565b82525050565b600060a0820190506108ed60008301896107f7565b6108fa60208301886107f7565b818103604083015261090d81868861086c565b905061091c60608301856108c9565b61092960808301846107f7565b979650505050505050565b6000601f19601f8301169050919050565b7f4e487b7100000000000000000000000000000000000000000000000000000000600052604160045260246000fd5b61097d82610934565b810181811067ffffffffffffffff8211171561099c5761099b610945565b5b80604052505050565b60006109af610534565b90506109bb8282610974565b919050565b600067ffffffffffffffff8211156109db576109da610945565b5b602082029050602081019050919050565b6000815190506109fb81610552565b92915050565b6000610a14610a0f846109c0565b6109a5565b90508083825260208201905060208402830185811115610a3757610a36610588565b5b835b81811015610a605780610a4c88826109ec565b845260208401935050602081019050610a39565b5050509392505050565b600082601f830112610a7f57610a7e61057e565b5b8151610a8f848260208601610a01565b91505092915050565b600060208284031215610aae57610aad61053e565b5b600082015167ffffffffffffffff811115610acc57610acb610543565b5b610ad884828501610a6a565b91505092915050565b6000606082019050610af660008301866108c9565b610b0360208301856108c9565b610b1060408301846107f7565b949350505050565b600081519050919050565b600081905092915050565b60005b83811015610b4c578082015181840152602081019050610b31565b83811115610b5b576000848401525b50505050565b6000610b6c82610b18565b610b768185610b23565b9350610b86818560208601610b2e565b80840191505092915050565b6000610b9e8284610b61565b915081905092915050565b60008115159050919050565b610bbe81610ba9565b8114610bc957600080fd5b50565b600081519050610bdb81610bb5565b92915050565b600060208284031215610bf757610bf661053e565b5b6000610c0584828501610bcc565b91505092915050565b600082825260208201905092915050565b7f5354460000000000000000000000000000000000000000000000000000000000600082015250565b6000610c55600383610c0e565b9150610c6082610c1f565b602082019050919050565b60006020820190508181036000830152610c8481610c48565b9050919050565b6000604082019050610ca060008301856108c9565b610cad60208301846107f7565b9392505050565b7f5341000000000000000000000000000000000000000000000000000000000000600082015250565b6000610cea600283610c0e565b9150610cf582610cb4565b602082019050919050565b60006020820190508181036000830152610d1981610cdd565b905091905056fea2646970667358221220e412670a0d365252a45a293686bdda01e1f0b3503c31ba481252ef794914f74364736f6c634300080a0033",
  "linkReferences": {},
  "deployedLinkReferences": {}
}